{
  "contractName": "BlacklistTransferManagerStorage",
  "abi": [
    {
      "constant": true,
      "inputs": [
        {
          "name": "",
          "type": "bytes32"
        }
      ],
      "name": "blacklists",
      "outputs": [
        {
          "name": "startTime",
          "type": "uint256"
        },
        {
          "name": "endTime",
          "type": "uint256"
        },
        {
          "name": "repeatPeriodTime",
          "type": "uint256"
        }
      ],
      "payable": false,
      "stateMutability": "view",
      "type": "function"
    }
  ],
  "bytecode": "0x6080604052348015600f57600080fd5b5060b28061001e6000396000f3fe6080604052348015600f57600080fd5b506004361060285760003560e01c80632598fd7114602d575b600080fd5b604760048036036020811015604157600080fd5b50356065565b60408051938452602084019290925282820152519081900360600190f35b6000602081905290815260409020805460018201546002909201549091908356fea165627a7a7230582073f0833b96a22750b057ee265c398278db5668cbb523c054930b928d287eb6b60029",
  "source": "pragma solidity 0.5.8;\r\n\r\n/**\r\n * @title Contract used to store layout for the CountTransferManager storage\r\n */\r\ncontract BlacklistTransferManagerStorage {\r\n\r\n    struct BlacklistsDetails {\r\n        uint256 startTime;\r\n        uint256 endTime;\r\n        uint256 repeatPeriodTime;\r\n    }\r\n\r\n    //hold the different blacklist details corresponds to its name\r\n    mapping(bytes32 => BlacklistsDetails) public blacklists;\r\n\r\n    //hold the different name of blacklist corresponds to a investor\r\n    mapping(address => bytes32[]) investorToBlacklist;\r\n\r\n    //get list of the addresses for a particular blacklist\r\n    mapping(bytes32 => address[]) blacklistToInvestor;\r\n\r\n    //mapping use to store the indexes for different blacklist types for a investor\r\n    mapping(address => mapping(bytes32 => uint256)) investorToIndex;\r\n\r\n    //mapping use to store the indexes for different investor for a blacklist type\r\n    mapping(bytes32 => mapping(address => uint256)) blacklistToIndex;\r\n\r\n    bytes32[] allBlacklists;\r\n\r\n}\r\n",
  "sourcePath": "C:\\mspace\\polymath-core\\contracts\\modules\\TransferManager\\BTM\\BlacklistTransferManagerStorage.sol",
  "compiler": {
    "name": "solc",
    "version": "0.5.8+commit.23d335f2.Emscripten.clang"
  },
  "schemaVersion": "3.0.11",
  "updatedAt": "2019-08-05T22:52:46.848Z",
  "devdoc": {
    "methods": {},
    "title": "Contract used to store layout for the CountTransferManager storage\r"
  },
  "userdoc": {
    "methods": {}
  }
}