{
  "contractName": "BlacklistTransferManagerProxy",
  "abi": [
    {
      "constant": false,
      "inputs": [],
      "name": "proxyOwner",
      "outputs": [
        {
          "name": "",
          "type": "address"
        }
      ],
      "payable": false,
      "stateMutability": "nonpayable",
      "type": "function"
    },
    {
      "constant": true,
      "inputs": [
        {
          "name": "",
          "type": "bytes32"
        }
      ],
      "name": "blacklists",
      "outputs": [
        {
          "name": "startTime",
          "type": "uint256"
        },
        {
          "name": "endTime",
          "type": "uint256"
        },
        {
          "name": "repeatPeriodTime",
          "type": "uint256"
        }
      ],
      "payable": false,
      "stateMutability": "view",
      "type": "function"
    },
    {
      "constant": true,
      "inputs": [],
      "name": "ADMIN",
      "outputs": [
        {
          "name": "",
          "type": "bytes32"
        }
      ],
      "payable": false,
      "stateMutability": "view",
      "type": "function"
    },
    {
      "constant": false,
      "inputs": [],
      "name": "version",
      "outputs": [
        {
          "name": "",
          "type": "string"
        }
      ],
      "payable": false,
      "stateMutability": "nonpayable",
      "type": "function"
    },
    {
      "constant": false,
      "inputs": [
        {
          "name": "_newVersion",
          "type": "string"
        },
        {
          "name": "_newImplementation",
          "type": "address"
        }
      ],
      "name": "upgradeTo",
      "outputs": [],
      "payable": false,
      "stateMutability": "nonpayable",
      "type": "function"
    },
    {
      "constant": false,
      "inputs": [],
      "name": "implementation",
      "outputs": [
        {
          "name": "",
          "type": "address"
        }
      ],
      "payable": false,
      "stateMutability": "nonpayable",
      "type": "function"
    },
    {
      "constant": true,
      "inputs": [],
      "name": "paused",
      "outputs": [
        {
          "name": "",
          "type": "bool"
        }
      ],
      "payable": false,
      "stateMutability": "view",
      "type": "function"
    },
    {
      "constant": true,
      "inputs": [],
      "name": "polyToken",
      "outputs": [
        {
          "name": "",
          "type": "address"
        }
      ],
      "payable": false,
      "stateMutability": "view",
      "type": "function"
    },
    {
      "constant": false,
      "inputs": [
        {
          "name": "_newVersion",
          "type": "string"
        },
        {
          "name": "_newImplementation",
          "type": "address"
        },
        {
          "name": "_data",
          "type": "bytes"
        }
      ],
      "name": "upgradeToAndCall",
      "outputs": [],
      "payable": true,
      "stateMutability": "payable",
      "type": "function"
    },
    {
      "constant": true,
      "inputs": [],
      "name": "OPERATOR",
      "outputs": [
        {
          "name": "",
          "type": "bytes32"
        }
      ],
      "payable": false,
      "stateMutability": "view",
      "type": "function"
    },
    {
      "constant": true,
      "inputs": [],
      "name": "securityToken",
      "outputs": [
        {
          "name": "",
          "type": "address"
        }
      ],
      "payable": false,
      "stateMutability": "view",
      "type": "function"
    },
    {
      "constant": true,
      "inputs": [],
      "name": "factory",
      "outputs": [
        {
          "name": "",
          "type": "address"
        }
      ],
      "payable": false,
      "stateMutability": "view",
      "type": "function"
    },
    {
      "constant": false,
      "inputs": [
        {
          "name": "_newOwner",
          "type": "address"
        }
      ],
      "name": "transferProxyOwnership",
      "outputs": [],
      "payable": false,
      "stateMutability": "nonpayable",
      "type": "function"
    },
    {
      "inputs": [
        {
          "name": "_version",
          "type": "string"
        },
        {
          "name": "_securityToken",
          "type": "address"
        },
        {
          "name": "_polyAddress",
          "type": "address"
        },
        {
          "name": "_implementation",
          "type": "address"
        }
      ],
      "payable": false,
      "stateMutability": "nonpayable",
      "type": "constructor"
    },
    {
      "payable": true,
      "stateMutability": "payable",
      "type": "fallback"
    },
    {
      "anonymous": false,
      "inputs": [
        {
          "indexed": false,
          "name": "_previousOwner",
          "type": "address"
        },
        {
          "indexed": false,
          "name": "_newOwner",
          "type": "address"
        }
      ],
      "name": "ProxyOwnershipTransferred",
      "type": "event"
    },
    {
      "anonymous": false,
      "inputs": [
        {
          "indexed": false,
          "name": "_newVersion",
          "type": "string"
        },
        {
          "indexed": true,
          "name": "_newImplementation",
          "type": "address"
        }
      ],
      "name": "Upgraded",
      "type": "event"
    },
    {
      "anonymous": false,
      "inputs": [
        {
          "indexed": false,
          "name": "account",
          "type": "address"
        }
      ],
      "name": "Pause",
      "type": "event"
    },
    {
      "anonymous": false,
      "inputs": [
        {
          "indexed": false,
          "name": "account",
          "type": "address"
        }
      ],
      "name": "Unpause",
      "type": "event"
    }
  ],
  "bytecode": "0x608060405260088054600160a01b60ff02191690553480156200002157600080fd5b506040516200152138038062001521833981018060405260808110156200004757600080fd5b8101908080516401000000008111156200006057600080fd5b820160208101848111156200007457600080fd5b81516401000000008111828201871017156200008f57600080fd5b50506020808301516040840151606090940151600780546001600160a01b038085166001600160a01b03199283161790925560068054821633908117909155600880549389169390921692909217905593965090945091620000f59162000172811b901c565b6001600160a01b03811662000156576040517f08c379a0000000000000000000000000000000000000000000000000000000008152600401808060200182810382526027815260200180620014796027913960400191505060405180910390fd5b6200016884826200020a60201b60201c565b505050506200062c565b6001600160a01b038116620001e857604080517f08c379a000000000000000000000000000000000000000000000000000000000815260206004820152601860248201527f416464726573732073686f756c64206e6f742062652030780000000000000000604482015290519081900360640190fd5b600b80546001600160a01b0319166001600160a01b0392909216919091179055565b600a546001600160a01b038281169116148015906200023157506001600160a01b03811615155b62000288576040517f08c379a0000000000000000000000000000000000000000000000000000000008152600401808060200182810382526046815260200180620014a06046913960600191505060405180910390fd5b6200029e816200058160201b62000c751760201c565b620002f5576040517f08c379a000000000000000000000000000000000000000000000000000000000815260040180806020018281038252603b815260200180620014e6603b913960400191505060405180910390fd5b600082511162000351576040517f08c379a0000000000000000000000000000000000000000000000000000000008152600401808060200182810382526022815260200180620014576022913960400191505060405180910390fd5b816040516020018082805190602001908083835b60208310620003865780518252601f19909201916020918201910162000365565b6001836020036101000a0380198251168184511680821785525050505050509050019150506040516020818303038152906040528051906020012060096040516020018082805460018160011615610100020316600290048015620004255780601f106200040257610100808354040283529182019162000425565b820191906000526020600020905b81548152906001019060200180831162000410575b5050915050604051602081830303815290604052805190602001201415620004ae57604080517f08c379a000000000000000000000000000000000000000000000000000000000815260206004820152601d60248201527f4e65772076657273696f6e20657175616c7320746f2063757272656e74000000604482015290519081900360640190fd5b8151620004c390600990602085019062000587565b50600a80546001600160a01b0319166001600160a01b03831690811790915560408051602080825285518183015285517f8e05e0e35ff592971ca8b477d4285a33a61ded208d644042667b78693a472f5e938793928392918301919085019080838360005b838110156200054257818101518382015260200162000528565b50505050905090810190601f168015620005705780820380516001836020036101000a031916815260200191505b509250505060405180910390a25050565b3b151590565b828054600181600116156101000203166002900490600052602060002090601f016020900481019282601f10620005ca57805160ff1916838001178555620005fa565b82800160010185558215620005fa579182015b82811115620005fa578251825591602001919060010190620005dd565b50620006089291506200060c565b5090565b6200062991905b8082111562000608576000815560010162000613565b90565b610e1b806200063c6000396000f3fe6080604052600436106100c25760003560e01c80635c975abb1161007f578063983d273711610059578063983d27371461039e578063b84dfbd2146103b3578063c45a0155146103c8578063f1739cae146103dd576100c2565b80635c975abb146102915780636faa22a5146102ba578063958a41dd146102cf576100c2565b8063025313a2146100cc5780632598fd71146100fd5780632a0acc6a1461014557806354fd4d501461016c5780635a8b1a9f146101f65780635c60da1b1461027c575b6100ca610410565b005b3480156100d857600080fd5b506100e1610422565b604080516001600160a01b039092168252519081900360200190f35b34801561010957600080fd5b506101276004803603602081101561012057600080fd5b503561045f565b60408051938452602084019290925282820152519081900360600190f35b34801561015157600080fd5b5061015a610480565b60408051918252519081900360200190f35b34801561017857600080fd5b5061018161048f565b6040805160208082528351818301528351919283929083019185019080838360005b838110156101bb5781810151838201526020016101a3565b50505050905090810190601f1680156101e85780820380516001836020036101000a031916815260200191505b509250505060405180910390f35b34801561020257600080fd5b506100ca6004803603604081101561021957600080fd5b81019060208101813564010000000081111561023457600080fd5b82018360208201111561024657600080fd5b8035906020019184600183028401116401000000008311171561026857600080fd5b9193509150356001600160a01b0316610544565b34801561028857600080fd5b506100e16105b8565b34801561029d57600080fd5b506102a66105e3565b604080519115158252519081900360200190f35b3480156102c657600080fd5b506100e16105f3565b6100ca600480360360608110156102e557600080fd5b81019060208101813564010000000081111561030057600080fd5b82018360208201111561031257600080fd5b8035906020019184600183028401116401000000008311171561033457600080fd5b919390926001600160a01b038335169260408101906020013564010000000081111561035f57600080fd5b82018360208201111561037157600080fd5b8035906020019184600183028401116401000000008311171561039357600080fd5b509092509050610602565b3480156103aa57600080fd5b5061015a6106ac565b3480156103bf57600080fd5b506100e16106be565b3480156103d457600080fd5b506100e16106cd565b3480156103e957600080fd5b506100ca6004803603602081101561040057600080fd5b50356001600160a01b03166106dc565b61042061041b6107bf565b6107ce565b565b600061042c6107f2565b6001600160a01b0316336001600160a01b031614156104545761044d6107f2565b905061045c565b61045c610410565b90565b60006020819052908152604090208054600182015460029092015490919083565b600160d91b6420a226a4a70281565b60606104996107f2565b6001600160a01b0316336001600160a01b03161415610454576009805460408051602060026001851615610100026000190190941693909304601f810184900484028201840190925281815292918301828280156105385780601f1061050d57610100808354040283529160200191610538565b820191906000526020600020905b81548152906001019060200180831161051b57829003601f168201915b5050505050905061045c565b61054c6107f2565b6001600160a01b0316336001600160a01b031614156105ab576105a683838080601f016020809104026020016040519081016040528093929190818152602001838380828437600092019190915250859250610801915050565b6105b3565b6105b3610410565b505050565b60006105c26107f2565b6001600160a01b0316336001600160a01b031614156104545761044d6107bf565b600854600160a01b900460ff1681565b6008546001600160a01b031681565b61060a6107f2565b6001600160a01b0316336001600160a01b0316141561069d5761069885858080601f01602080910402602001604051908101604052809392919081815260200183838082843760009201919091525050604080516020601f880181900481028201810190925286815288935091508690869081908401838280828437600092019190915250610afc92505050565b6106a5565b6106a5610410565b5050505050565b600160c11b6727a822a920aa27a90281565b6007546001600160a01b031681565b6006546001600160a01b031681565b6106e46107f2565b6001600160a01b0316336001600160a01b031614156107b4576001600160a01b03811661075b5760408051600160e51b62461bcd02815260206004820152601860248201527f416464726573732073686f756c64206e6f742062652030780000000000000000604482015290519081900360640190fd5b7f5a3e66efaa1e445ebd894728a69d6959842ea1e97bd79b892797106e270efcd96107846107f2565b604080516001600160a01b03928316815291841660208301528051918290030190a16107af81610bf5565b6107bc565b6107bc610410565b50565b600a546001600160a01b031690565b3660008037600080366000845af43d6000803e8080156107ed573d6000f35b3d6000fd5b600b546001600160a01b031690565b600a546001600160a01b0382811691161480159061082757506001600160a01b03811615155b61086557604051600160e51b62461bcd028152600401808060200182810382526046815260200180610d6f6046913960600191505060405180910390fd5b61086e81610c75565b6108ac57604051600160e51b62461bcd02815260040180806020018281038252603b815260200180610db5603b913960400191505060405180910390fd5b60008251116108ef57604051600160e51b62461bcd028152600401808060200182810382526022815260200180610d146022913960400191505060405180910390fd5b816040516020018082805190602001908083835b602083106109225780518252601f199092019160209182019101610903565b6001836020036101000a03801982511681845116808217855250505050505090500191505060405160208183030381529060405280519060200120600960405160200180828054600181600116156101000203166002900480156109bd5780601f1061099b5761010080835404028352918201916109bd565b820191906000526020600020905b8154815290600101906020018083116109a9575b5050915050604051602081830303815290604052805190602001201415610a2e5760408051600160e51b62461bcd02815260206004820152601d60248201527f4e65772076657273696f6e20657175616c7320746f2063757272656e74000000604482015290519081900360640190fd5b8151610a41906009906020850190610c7b565b50600a80546001600160a01b0319166001600160a01b03831690811790915560408051602080825285518183015285517f8e05e0e35ff592971ca8b477d4285a33a61ded208d644042667b78693a472f5e938793928392918301919085019080838360005b83811015610abe578181015183820152602001610aa6565b50505050905090810190601f168015610aeb5780820380516001836020036101000a031916815260200191505b509250505060405180910390a25050565b610b068383610801565b6000306001600160a01b031634836040518082805190602001908083835b60208310610b435780518252601f199092019160209182019101610b24565b6001836020036101000a03801982511681845116808217855250505050505090500191505060006040518083038185875af1925050503d8060008114610ba5576040519150601f19603f3d011682016040523d82523d6000602084013e610baa565b606091505b50508091505080610bef57604051600160e51b62461bcd028152600401808060200182810382526039815260200180610d366039913960400191505060405180910390fd5b50505050565b6001600160a01b038116610c535760408051600160e51b62461bcd02815260206004820152601860248201527f416464726573732073686f756c64206e6f742062652030780000000000000000604482015290519081900360640190fd5b600b80546001600160a01b0319166001600160a01b0392909216919091179055565b3b151590565b828054600181600116156101000203166002900490600052602060002090601f016020900481019282601f10610cbc57805160ff1916838001178555610ce9565b82800160010185558215610ce9579182015b82811115610ce9578251825591602001919060010190610cce565b50610cf5929150610cf9565b5090565b61045c91905b80821115610cf55760008155600101610cff56fe56657273696f6e2073686f756c64206e6f7420626520656d70747920737472696e674661696c20696e20657865637574696e67207468652066756e6374696f6e206f6620696d706c656d656e746174696f6e20636f6e74726163744f6c642061646472657373206973206e6f7420616c6c6f77656420616e6420696d706c656d656e746174696f6e20616464726573732073686f756c64206e6f7420626520307843616e6e6f742073657420612070726f787920696d706c656d656e746174696f6e20746f2061206e6f6e2d636f6e74726163742061646472657373a165627a7a723058201ff2861b1e4fb0b3412d07c51b334c041064f13fa8c5db6ac69de594eee4e396002956657273696f6e2073686f756c64206e6f7420626520656d70747920737472696e67496d706c656d656e746174696f6e20616464726573732073686f756c64206e6f742062652030784f6c642061646472657373206973206e6f7420616c6c6f77656420616e6420696d706c656d656e746174696f6e20616464726573732073686f756c64206e6f7420626520307843616e6e6f742073657420612070726f787920696d706c656d656e746174696f6e20746f2061206e6f6e2d636f6e74726163742061646472657373",
  "source": "pragma solidity 0.5.8;\r\n\r\nimport \"../../../proxy/OwnedUpgradeabilityProxy.sol\";\r\nimport \"./BlacklistTransferManagerStorage.sol\";\r\nimport \"../../../Pausable.sol\";\r\nimport \"../../../storage/modules/ModuleStorage.sol\";\r\n\r\n/**\r\n * @title CountTransferManager module Proxy\r\n */\r\ncontract BlacklistTransferManagerProxy is BlacklistTransferManagerStorage, ModuleStorage, Pausable, OwnedUpgradeabilityProxy {\r\n\r\n    /**\r\n    * @notice Constructor\r\n    * @param _securityToken Address of the security token\r\n    * @param _polyAddress Address of the polytoken\r\n    * @param _implementation representing the address of the new implementation to be set\r\n    */\r\n    constructor (\r\n        string memory _version,\r\n        address _securityToken,\r\n        address _polyAddress,\r\n        address _implementation\r\n    )\r\n        public\r\n        ModuleStorage(_securityToken, _polyAddress)\r\n    {\r\n        require(\r\n            _implementation != address(0),\r\n            \"Implementation address should not be 0x\"\r\n        );\r\n        _upgradeTo(_version, _implementation);\r\n    }\r\n\r\n}\r\n",
  "sourcePath": "C:\\mspace\\polymath-core\\contracts\\modules\\TransferManager\\BTM\\BlacklistTransferManagerProxy.sol",
  "compiler": {
    "name": "solc",
    "version": "0.5.8+commit.23d335f2.Emscripten.clang"
  },
  "schemaVersion": "3.0.11",
  "updatedAt": "2019-08-05T22:52:46.846Z",
  "devdoc": {
    "methods": {
      "constructor": {
        "params": {
          "_implementation": "representing the address of the new implementation to be set\r",
          "_polyAddress": "Address of the polytoken\r",
          "_securityToken": "Address of the security token\r"
        }
      },
      "implementation()": {
        "details": "Tells the address of the current implementation\r",
        "return": "address of the current implementation\r"
      },
      "proxyOwner()": {
        "details": "Tells the address of the proxy owner\r",
        "return": "the address of the proxy owner\r"
      },
      "transferProxyOwnership(address)": {
        "details": "Allows the current owner to transfer control of the contract to a newOwner.\r",
        "params": {
          "_newOwner": "The address to transfer ownership to.\r"
        }
      },
      "upgradeTo(string,address)": {
        "details": "Allows the upgradeability owner to upgrade the current version of the proxy.\r",
        "params": {
          "_newImplementation": "representing the address of the new implementation to be set.\r",
          "_newVersion": "representing the version name of the new implementation to be set.\r"
        }
      },
      "upgradeToAndCall(string,address,bytes)": {
        "details": "Allows the upgradeability owner to upgrade the current version of the proxy and call the new implementation\r to initialize whatever is needed through a low level call.\r",
        "params": {
          "_data": "represents the msg.data to bet sent in the low level call. This parameter may include the function\r signature of the implementation to be called with the needed payload\r",
          "_newImplementation": "representing the address of the new implementation to be set.\r",
          "_newVersion": "representing the version name of the new implementation to be set.\r"
        }
      },
      "version()": {
        "details": "Tells the version name of the current implementation\r",
        "return": "string representing the name of the current version\r"
      }
    },
    "title": "CountTransferManager module Proxy\r"
  },
  "userdoc": {
    "methods": {
      "constructor": "Constructor\r"
    }
  }
}