{
  "contractName": "BlacklistTransferManager",
  "abi": [
    {
      "constant": false,
      "inputs": [],
      "name": "reclaimETH",
      "outputs": [],
      "payable": false,
      "stateMutability": "nonpayable",
      "type": "function"
    },
    {
      "constant": true,
      "inputs": [
        {
          "name": "",
          "type": "bytes32"
        }
      ],
      "name": "blacklists",
      "outputs": [
        {
          "name": "startTime",
          "type": "uint256"
        },
        {
          "name": "endTime",
          "type": "uint256"
        },
        {
          "name": "repeatPeriodTime",
          "type": "uint256"
        }
      ],
      "payable": false,
      "stateMutability": "view",
      "type": "function"
    },
    {
      "constant": true,
      "inputs": [],
      "name": "ADMIN",
      "outputs": [
        {
          "name": "",
          "type": "bytes32"
        }
      ],
      "payable": false,
      "stateMutability": "view",
      "type": "function"
    },
    {
      "constant": false,
      "inputs": [],
      "name": "unpause",
      "outputs": [],
      "payable": false,
      "stateMutability": "nonpayable",
      "type": "function"
    },
    {
      "constant": true,
      "inputs": [],
      "name": "paused",
      "outputs": [
        {
          "name": "",
          "type": "bool"
        }
      ],
      "payable": false,
      "stateMutability": "view",
      "type": "function"
    },
    {
      "constant": true,
      "inputs": [],
      "name": "UNLOCKED",
      "outputs": [
        {
          "name": "",
          "type": "bytes32"
        }
      ],
      "payable": false,
      "stateMutability": "view",
      "type": "function"
    },
    {
      "constant": true,
      "inputs": [],
      "name": "polyToken",
      "outputs": [
        {
          "name": "",
          "type": "address"
        }
      ],
      "payable": false,
      "stateMutability": "view",
      "type": "function"
    },
    {
      "constant": false,
      "inputs": [],
      "name": "pause",
      "outputs": [],
      "payable": false,
      "stateMutability": "nonpayable",
      "type": "function"
    },
    {
      "constant": false,
      "inputs": [
        {
          "name": "_tokenContract",
          "type": "address"
        }
      ],
      "name": "reclaimERC20",
      "outputs": [],
      "payable": false,
      "stateMutability": "nonpayable",
      "type": "function"
    },
    {
      "constant": true,
      "inputs": [],
      "name": "OPERATOR",
      "outputs": [
        {
          "name": "",
          "type": "bytes32"
        }
      ],
      "payable": false,
      "stateMutability": "view",
      "type": "function"
    },
    {
      "constant": true,
      "inputs": [],
      "name": "LOCKED",
      "outputs": [
        {
          "name": "",
          "type": "bytes32"
        }
      ],
      "payable": false,
      "stateMutability": "view",
      "type": "function"
    },
    {
      "constant": true,
      "inputs": [],
      "name": "securityToken",
      "outputs": [
        {
          "name": "",
          "type": "address"
        }
      ],
      "payable": false,
      "stateMutability": "view",
      "type": "function"
    },
    {
      "constant": true,
      "inputs": [],
      "name": "factory",
      "outputs": [
        {
          "name": "",
          "type": "address"
        }
      ],
      "payable": false,
      "stateMutability": "view",
      "type": "function"
    },
    {
      "constant": true,
      "inputs": [],
      "name": "getDataStore",
      "outputs": [
        {
          "name": "",
          "type": "address"
        }
      ],
      "payable": false,
      "stateMutability": "view",
      "type": "function"
    },
    {
      "inputs": [
        {
          "name": "_securityToken",
          "type": "address"
        },
        {
          "name": "_polyAddress",
          "type": "address"
        }
      ],
      "payable": false,
      "stateMutability": "nonpayable",
      "type": "constructor"
    },
    {
      "anonymous": false,
      "inputs": [
        {
          "indexed": false,
          "name": "_startTime",
          "type": "uint256"
        },
        {
          "indexed": false,
          "name": "_endTime",
          "type": "uint256"
        },
        {
          "indexed": false,
          "name": "_blacklistName",
          "type": "bytes32"
        },
        {
          "indexed": false,
          "name": "_repeatPeriodTime",
          "type": "uint256"
        }
      ],
      "name": "AddBlacklistType",
      "type": "event"
    },
    {
      "anonymous": false,
      "inputs": [
        {
          "indexed": false,
          "name": "_startTime",
          "type": "uint256"
        },
        {
          "indexed": false,
          "name": "_endTime",
          "type": "uint256"
        },
        {
          "indexed": false,
          "name": "_blacklistName",
          "type": "bytes32"
        },
        {
          "indexed": false,
          "name": "_repeatPeriodTime",
          "type": "uint256"
        }
      ],
      "name": "ModifyBlacklistType",
      "type": "event"
    },
    {
      "anonymous": false,
      "inputs": [
        {
          "indexed": false,
          "name": "_blacklistName",
          "type": "bytes32"
        }
      ],
      "name": "DeleteBlacklistType",
      "type": "event"
    },
    {
      "anonymous": false,
      "inputs": [
        {
          "indexed": true,
          "name": "_investor",
          "type": "address"
        },
        {
          "indexed": false,
          "name": "_blacklistName",
          "type": "bytes32"
        }
      ],
      "name": "AddInvestorToBlacklist",
      "type": "event"
    },
    {
      "anonymous": false,
      "inputs": [
        {
          "indexed": true,
          "name": "_investor",
          "type": "address"
        },
        {
          "indexed": false,
          "name": "_blacklistName",
          "type": "bytes32"
        }
      ],
      "name": "DeleteInvestorFromBlacklist",
      "type": "event"
    },
    {
      "anonymous": false,
      "inputs": [
        {
          "indexed": false,
          "name": "account",
          "type": "address"
        }
      ],
      "name": "Pause",
      "type": "event"
    },
    {
      "anonymous": false,
      "inputs": [
        {
          "indexed": false,
          "name": "account",
          "type": "address"
        }
      ],
      "name": "Unpause",
      "type": "event"
    },
    {
      "constant": true,
      "inputs": [],
      "name": "getInitFunction",
      "outputs": [
        {
          "name": "",
          "type": "bytes4"
        }
      ],
      "payable": false,
      "stateMutability": "pure",
      "type": "function"
    },
    {
      "constant": false,
      "inputs": [
        {
          "name": "_from",
          "type": "address"
        },
        {
          "name": "",
          "type": "address"
        },
        {
          "name": "",
          "type": "uint256"
        },
        {
          "name": "",
          "type": "bytes"
        }
      ],
      "name": "executeTransfer",
      "outputs": [
        {
          "name": "",
          "type": "uint8"
        }
      ],
      "payable": false,
      "stateMutability": "nonpayable",
      "type": "function"
    },
    {
      "constant": true,
      "inputs": [
        {
          "name": "_from",
          "type": "address"
        },
        {
          "name": "",
          "type": "address"
        },
        {
          "name": "",
          "type": "uint256"
        },
        {
          "name": "",
          "type": "bytes"
        }
      ],
      "name": "verifyTransfer",
      "outputs": [
        {
          "name": "",
          "type": "uint8"
        },
        {
          "name": "",
          "type": "bytes32"
        }
      ],
      "payable": false,
      "stateMutability": "view",
      "type": "function"
    },
    {
      "constant": false,
      "inputs": [
        {
          "name": "_startTime",
          "type": "uint256"
        },
        {
          "name": "_endTime",
          "type": "uint256"
        },
        {
          "name": "_blacklistName",
          "type": "bytes32"
        },
        {
          "name": "_repeatPeriodTime",
          "type": "uint256"
        }
      ],
      "name": "addBlacklistType",
      "outputs": [],
      "payable": false,
      "stateMutability": "nonpayable",
      "type": "function"
    },
    {
      "constant": false,
      "inputs": [
        {
          "name": "_startTimes",
          "type": "uint256[]"
        },
        {
          "name": "_endTimes",
          "type": "uint256[]"
        },
        {
          "name": "_blacklistNames",
          "type": "bytes32[]"
        },
        {
          "name": "_repeatPeriodTimes",
          "type": "uint256[]"
        }
      ],
      "name": "addBlacklistTypeMulti",
      "outputs": [],
      "payable": false,
      "stateMutability": "nonpayable",
      "type": "function"
    },
    {
      "constant": false,
      "inputs": [
        {
          "name": "_startTime",
          "type": "uint256"
        },
        {
          "name": "_endTime",
          "type": "uint256"
        },
        {
          "name": "_blacklistName",
          "type": "bytes32"
        },
        {
          "name": "_repeatPeriodTime",
          "type": "uint256"
        }
      ],
      "name": "modifyBlacklistType",
      "outputs": [],
      "payable": false,
      "stateMutability": "nonpayable",
      "type": "function"
    },
    {
      "constant": false,
      "inputs": [
        {
          "name": "_startTimes",
          "type": "uint256[]"
        },
        {
          "name": "_endTimes",
          "type": "uint256[]"
        },
        {
          "name": "_blacklistNames",
          "type": "bytes32[]"
        },
        {
          "name": "_repeatPeriodTimes",
          "type": "uint256[]"
        }
      ],
      "name": "modifyBlacklistTypeMulti",
      "outputs": [],
      "payable": false,
      "stateMutability": "nonpayable",
      "type": "function"
    },
    {
      "constant": false,
      "inputs": [
        {
          "name": "_blacklistName",
          "type": "bytes32"
        }
      ],
      "name": "deleteBlacklistType",
      "outputs": [],
      "payable": false,
      "stateMutability": "nonpayable",
      "type": "function"
    },
    {
      "constant": false,
      "inputs": [
        {
          "name": "_blacklistNames",
          "type": "bytes32[]"
        }
      ],
      "name": "deleteBlacklistTypeMulti",
      "outputs": [],
      "payable": false,
      "stateMutability": "nonpayable",
      "type": "function"
    },
    {
      "constant": false,
      "inputs": [
        {
          "name": "_investor",
          "type": "address"
        },
        {
          "name": "_blacklistName",
          "type": "bytes32"
        }
      ],
      "name": "addInvestorToBlacklist",
      "outputs": [],
      "payable": false,
      "stateMutability": "nonpayable",
      "type": "function"
    },
    {
      "constant": false,
      "inputs": [
        {
          "name": "_investors",
          "type": "address[]"
        },
        {
          "name": "_blacklistName",
          "type": "bytes32"
        }
      ],
      "name": "addInvestorToBlacklistMulti",
      "outputs": [],
      "payable": false,
      "stateMutability": "nonpayable",
      "type": "function"
    },
    {
      "constant": false,
      "inputs": [
        {
          "name": "_investors",
          "type": "address[]"
        },
        {
          "name": "_blacklistNames",
          "type": "bytes32[]"
        }
      ],
      "name": "addMultiInvestorToBlacklistMulti",
      "outputs": [],
      "payable": false,
      "stateMutability": "nonpayable",
      "type": "function"
    },
    {
      "constant": false,
      "inputs": [
        {
          "name": "_startTime",
          "type": "uint256"
        },
        {
          "name": "_endTime",
          "type": "uint256"
        },
        {
          "name": "_blacklistName",
          "type": "bytes32"
        },
        {
          "name": "_repeatPeriodTime",
          "type": "uint256"
        },
        {
          "name": "_investor",
          "type": "address"
        }
      ],
      "name": "addInvestorToNewBlacklist",
      "outputs": [],
      "payable": false,
      "stateMutability": "nonpayable",
      "type": "function"
    },
    {
      "constant": false,
      "inputs": [
        {
          "name": "_investor",
          "type": "address"
        },
        {
          "name": "_blacklistName",
          "type": "bytes32"
        }
      ],
      "name": "deleteInvestorFromBlacklist",
      "outputs": [],
      "payable": false,
      "stateMutability": "nonpayable",
      "type": "function"
    },
    {
      "constant": false,
      "inputs": [
        {
          "name": "_investor",
          "type": "address"
        }
      ],
      "name": "deleteInvestorFromAllBlacklist",
      "outputs": [],
      "payable": false,
      "stateMutability": "nonpayable",
      "type": "function"
    },
    {
      "constant": false,
      "inputs": [
        {
          "name": "_investor",
          "type": "address[]"
        }
      ],
      "name": "deleteInvestorFromAllBlacklistMulti",
      "outputs": [],
      "payable": false,
      "stateMutability": "nonpayable",
      "type": "function"
    },
    {
      "constant": false,
      "inputs": [
        {
          "name": "_investors",
          "type": "address[]"
        },
        {
          "name": "_blacklistNames",
          "type": "bytes32[]"
        }
      ],
      "name": "deleteMultiInvestorsFromBlacklistMulti",
      "outputs": [],
      "payable": false,
      "stateMutability": "nonpayable",
      "type": "function"
    },
    {
      "constant": true,
      "inputs": [
        {
          "name": "_blacklistName",
          "type": "bytes32"
        }
      ],
      "name": "getListOfAddresses",
      "outputs": [
        {
          "name": "",
          "type": "address[]"
        }
      ],
      "payable": false,
      "stateMutability": "view",
      "type": "function"
    },
    {
      "constant": true,
      "inputs": [
        {
          "name": "_user",
          "type": "address"
        }
      ],
      "name": "getBlacklistNamesToUser",
      "outputs": [
        {
          "name": "",
          "type": "bytes32[]"
        }
      ],
      "payable": false,
      "stateMutability": "view",
      "type": "function"
    },
    {
      "constant": true,
      "inputs": [],
      "name": "getAllBlacklists",
      "outputs": [
        {
          "name": "",
          "type": "bytes32[]"
        }
      ],
      "payable": false,
      "stateMutability": "view",
      "type": "function"
    },
    {
      "constant": true,
      "inputs": [
        {
          "name": "_partition",
          "type": "bytes32"
        },
        {
          "name": "_tokenHolder",
          "type": "address"
        },
        {
          "name": "_additionalBalance",
          "type": "uint256"
        }
      ],
      "name": "getTokensByPartition",
      "outputs": [
        {
          "name": "",
          "type": "uint256"
        }
      ],
      "payable": false,
      "stateMutability": "view",
      "type": "function"
    },
    {
      "constant": true,
      "inputs": [],
      "name": "getPermissions",
      "outputs": [
        {
          "name": "",
          "type": "bytes32[]"
        }
      ],
      "payable": false,
      "stateMutability": "view",
      "type": "function"
    }
  ],
  "bytecode": "0x608060405260088054600160a01b60ff021916905534801561002057600080fd5b506040516040806131b28339810180604052604081101561004057600080fd5b508051602090910151600780546001600160a01b039384166001600160a01b0319918216179091556006805482163317905560088054939092169216919091179055613121806100916000396000f3fe608060405234801561001057600080fd5b506004361061021c5760003560e01c80636c2f0d5311610125578063ad8d542d116100ad578063cf2bd3a81161007c578063cf2bd3a814610e05578063d264130514610e43578063e0d7b04414610e4b578063f1d74b0f14610e7a578063fe58265e14610f695761021c565b8063ad8d542d14610d4c578063b84dfbd214610ded578063c3a07df614610df5578063c45a015514610dfd5761021c565b806379212819116100f45780637921281914610ce85780638456cb5914610d0e5780638905fd4f14610d16578063983d273714610d3c578063a1422f6914610d445761021c565b80636c2f0d5314610af85780636faa22a514610b0057806370ed539114610b2457806372a8176214610bc55761021c565b80632829e651116101a85780633f4ba83a116101775780633f4ba83a146107db5780634c81dbab146107e35780634da43462146108125780635c975abb14610a3957806364770d6614610a555761021c565b80632829e651146106c05780632a0acc6a146107045780632feea1fc1461070c5780633d321731146107295761021c565b8063195ffe1f116101ef578063195ffe1f146102e95780631bf2d88f1461030f5780631ecb1a2a146104325780631f8e8e99146106595780632598fd71146106855761021c565b80630f144a481461022157806311e0f35a1461022b5780631613ec9d1461029857806318c8bf00146102bd575b600080fd5b610229610f71565b005b6102486004803603602081101561024157600080fd5b5035610fa9565b60408051602080825283518183015283519192839290830191858101910280838360005b8381101561028457818101518382015260200161026c565b505050509050019250505060405180910390f35b6102a061107c565b604080516001600160e01b03199092168252519081900360200190f35b610229600480360360408110156102d357600080fd5b506001600160a01b038135169060200135611082565b610229600480360360208110156102ff57600080fd5b50356001600160a01b03166110e9565b6102296004803603604081101561032557600080fd5b810190602081018135600160201b81111561033f57600080fd5b82018360208201111561035157600080fd5b803590602001918460208302840111600160201b8311171561037257600080fd5b9190808060200260200160405190810160405280939291908181526020018383602002808284376000920191909152509295949360208101935035915050600160201b8111156103c157600080fd5b8201836020820111156103d357600080fd5b803590602001918460208302840111600160201b831117156103f457600080fd5b91908080602002602001604051908101604052809392919081815260200183836020028082843760009201919091525092955061114e945050505050565b6102296004803603608081101561044857600080fd5b810190602081018135600160201b81111561046257600080fd5b82018360208201111561047457600080fd5b803590602001918460208302840111600160201b8311171561049557600080fd5b9190808060200260200160405190810160405280939291908181526020018383602002808284376000920191909152509295949360208101935035915050600160201b8111156104e457600080fd5b8201836020820111156104f657600080fd5b803590602001918460208302840111600160201b8311171561051757600080fd5b9190808060200260200160405190810160405280939291908181526020018383602002808284376000920191909152509295949360208101935035915050600160201b81111561056657600080fd5b82018360208201111561057857600080fd5b803590602001918460208302840111600160201b8311171561059957600080fd5b9190808060200260200160405190810160405280939291908181526020018383602002808284376000920191909152509295949360208101935035915050600160201b8111156105e857600080fd5b8201836020820111156105fa57600080fd5b803590602001918460208302840111600160201b8311171561061b57600080fd5b919080806020026020016040519081016040528093929190818152602001838360200280828437600092019190915250929550611237945050505050565b6102296004803603604081101561066f57600080fd5b506001600160a01b038135169060200135611364565b6106a26004803603602081101561069b57600080fd5b50356113c6565b60408051938452602084019290925282820152519081900360600190f35b6106f2600480360360608110156106d657600080fd5b508035906001600160a01b0360208201351690604001356113e7565b60408051918252519081900360200190f35b6106f26115df565b6102296004803603602081101561072257600080fd5b50356115ee565b6107b76004803603608081101561073f57600080fd5b6001600160a01b03823581169260208101359091169160408201359190810190608081016060820135600160201b81111561077957600080fd5b82018360208201111561078b57600080fd5b803590602001918460018302840111600160201b831117156107ac57600080fd5b50909250905061164f565b604051808260038111156107c757fe5b60ff16815260200191505060405180910390f35b610229611667565b610229600480360360808110156107f957600080fd5b5080359060208101359060408101359060600135611679565b6102296004803603608081101561082857600080fd5b810190602081018135600160201b81111561084257600080fd5b82018360208201111561085457600080fd5b803590602001918460208302840111600160201b8311171561087557600080fd5b9190808060200260200160405190810160405280939291908181526020018383602002808284376000920191909152509295949360208101935035915050600160201b8111156108c457600080fd5b8201836020820111156108d657600080fd5b803590602001918460208302840111600160201b831117156108f757600080fd5b9190808060200260200160405190810160405280939291908181526020018383602002808284376000920191909152509295949360208101935035915050600160201b81111561094657600080fd5b82018360208201111561095857600080fd5b803590602001918460208302840111600160201b8311171561097957600080fd5b9190808060200260200160405190810160405280939291908181526020018383602002808284376000920191909152509295949360208101935035915050600160201b8111156109c857600080fd5b8201836020820111156109da57600080fd5b803590602001918460208302840111600160201b831117156109fb57600080fd5b9190808060200260200160405190810160405280939291908181526020018383602002808284376000920191909152509295506116e4945050505050565b610a41611809565b604080519115158252519081900360200190f35b61022960048036036040811015610a6b57600080fd5b810190602081018135600160201b811115610a8557600080fd5b820183602082011115610a9757600080fd5b803590602001918460208302840111600160201b83111715610ab857600080fd5b9190808060200260200160405190810160405280939291908181526020018383602002808284376000920191909152509295505091359250611819915050565b6106f26118a2565b610b086118b4565b604080516001600160a01b039092168252519081900360200190f35b61022960048036036020811015610b3a57600080fd5b810190602081018135600160201b811115610b5457600080fd5b820183602082011115610b6657600080fd5b803590602001918460208302840111600160201b83111715610b8757600080fd5b9190808060200260200160405190810160405280939291908181526020018383602002808284376000920191909152509295506118c3945050505050565b61022960048036036040811015610bdb57600080fd5b810190602081018135600160201b811115610bf557600080fd5b820183602082011115610c0757600080fd5b803590602001918460208302840111600160201b83111715610c2857600080fd5b9190808060200260200160405190810160405280939291908181526020018383602002808284376000920191909152509295949360208101935035915050600160201b811115610c7757600080fd5b820183602082011115610c8957600080fd5b803590602001918460208302840111600160201b83111715610caa57600080fd5b91908080602002602001604051908101604052809392919081815260200183836020028082843760009201919091525092955061194b945050505050565b61024860048036036020811015610cfe57600080fd5b50356001600160a01b0316611a2e565b610229611a99565b61022960048036036020811015610d2c57600080fd5b50356001600160a01b0316611aa9565b6106f2611c5f565b6106f2611c71565b61022960048036036020811015610d6257600080fd5b810190602081018135600160201b811115610d7c57600080fd5b820183602082011115610d8e57600080fd5b803590602001918460208302840111600160201b83111715610daf57600080fd5b919080806020026020016040519081016040528093929190818152602001838360200280828437600092019190915250929550611c81945050505050565b610b08611d09565b610248611d18565b610b08611d66565b610229600480360360a0811015610e1b57600080fd5b50803590602081013590604081013590606081013590608001356001600160a01b0316611d75565b610248611de3565b61022960048036036080811015610e6157600080fd5b5080359060208101359060408101359060600135611e3b565b610f3e60048036036080811015610e9057600080fd5b6001600160a01b03823581169260208101359091169160408201359190810190608081016060820135600160201b811115610eca57600080fd5b820183602082011115610edc57600080fd5b803590602001918460018302840111600160201b83111715610efd57600080fd5b91908080601f016020809104026020016040519081016040528093929190818152602001838380828437600092019190915250929550611e9f945050505050565b60405180836003811115610f4e57fe5b60ff1681526020018281526020019250505060405180910390f35b610b08611eb8565b610f79611f31565b6040513390303180156108fc02916000818181858888f19350505050158015610fa6573d6000803e3d6000fd5b50565b6000818152602081905260409020600101546060906110125760408051600160e51b62461bcd02815260206004820152601c60248201527f426c61636b6c697374207479706520646f65736e277420657869737400000000604482015290519081900360640190fd5b6000828152600260209081526040918290208054835181840281018401909452808452909183018282801561107057602002820191906000526020600020905b81546001600160a01b03168152600190910190602001808311611052575b50505050509050919050565b60005b90565b600160d91b6420a226a4a702611098813361200a565b6110da5760408051600160e51b62461bcd0281526020600482015260126024820152600080516020613018833981519152604482015290519081900360640190fd5b6110e48383612142565b505050565b600160d91b6420a226a4a7026110ff813361200a565b6111415760408051600160e51b62461bcd0281526020600482015260126024820152600080516020613018833981519152604482015290519081900360640190fd5b61114a82612326565b5050565b600160d91b6420a226a4a702611164813361200a565b6111a65760408051600160e51b62461bcd0281526020600482015260126024820152600080516020613018833981519152604482015290519081900360640190fd5b81518351146111ed5760408051600160e51b62461bcd02815260206004820152601d6024820152600080516020613083833981519152604482015290519081900360640190fd5b60005b83518110156112315761122984828151811061120857fe5b602002602001015184838151811061121c57fe5b6020026020010151612142565b6001016111f0565b50505050565b600160d91b6420a226a4a70261124d813361200a565b61128f5760408051600160e51b62461bcd0281526020600482015260126024820152600080516020613018833981519152604482015290519081900360640190fd5b835185511480156112a1575082518451145b80156112ae575081518351145b6112f05760408051600160e51b62461bcd02815260206004820152601d6024820152600080516020613083833981519152604482015290519081900360640190fd5b60005b855181101561135c5761135486828151811061130b57fe5b602002602001015186838151811061131f57fe5b602002602001015186848151811061133357fe5b602002602001015186858151811061134757fe5b6020026020010151612449565b6001016112f3565b505050505050565b600160d91b6420a226a4a70261137a813361200a565b6113bc5760408051600160e51b62461bcd0281526020600482015260126024820152600080516020613018833981519152604482015290519081900360640190fd5b6110e48383612508565b60006020819052908152604090208054600182015460029092015490919083565b60075460009081906001600160a01b0316331461147f5760075460408051600160e01b6370a082310281526001600160a01b038781166004830152915191909216916370a08231916024808301926020929190829003018186803b15801561144e57600080fd5b505afa158015611462573d6000803e3d6000fd5b505050506040513d602081101561147857600080fd5b505161150a565b60075460408051600160e01b6370a082310281526001600160a01b038781166004830152915161150a93879316916370a08231916024808301926020929190829003018186803b1580156114d257600080fd5b505afa1580156114e6573d6000803e3d6000fd5b505050506040513d60208110156114fc57600080fd5b50519063ffffffff6128fb16565b600854909150600160a01b900460ff1680156115335750600160c21b6715539313d0d2d1510285145b1561153f5790506115d8565b600061156c85600080604051806040016040528060038152602001600160ec1b6203078302815250611e9f565b509050600160d21b651313d0d2d15102861480156115955750600081600381111561159357fe5b145b806115c45750600160c21b6715539313d0d2d15102861480156115c4575060008160038111156115c157fe5b14155b156115d1575090506115d8565b6000925050505b9392505050565b600160d91b6420a226a4a70281565b600160d91b6420a226a4a702611604813361200a565b6116465760408051600160e51b62461bcd0281526020600482015260126024820152600080516020613018833981519152604482015290519081900360640190fd5b61114a8261290d565b60008061165b87612aa5565b50979650505050505050565b61166f611f31565b611677612bff565b565b600160d91b6420a226a4a70261168f813361200a565b6116d15760408051600160e51b62461bcd0281526020600482015260126024820152600080516020613018833981519152604482015290519081900360640190fd5b6116dd85858585612449565b5050505050565b600160d91b6420a226a4a7026116fa813361200a565b61173c5760408051600160e51b62461bcd0281526020600482015260126024820152600080516020613018833981519152604482015290519081900360640190fd5b8351855114801561174e575082518451145b801561175b575081518351145b61179d5760408051600160e51b62461bcd02815260206004820152601d6024820152600080516020613083833981519152604482015290519081900360640190fd5b60005b855181101561135c576118018682815181106117b857fe5b60200260200101518683815181106117cc57fe5b60200260200101518684815181106117e057fe5b60200260200101518685815181106117f457fe5b6020026020010151612ca5565b6001016117a0565b600854600160a01b900460ff1681565b600160d91b6420a226a4a70261182f813361200a565b6118715760408051600160e51b62461bcd0281526020600482015260126024820152600080516020613018833981519152604482015290519081900360640190fd5b60005b83518110156112315761189a84828151811061188c57fe5b602002602001015184612142565b600101611874565b600160c21b6715539313d0d2d1510281565b6008546001600160a01b031681565b600160d91b6420a226a4a7026118d9813361200a565b61191b5760408051600160e51b62461bcd0281526020600482015260126024820152600080516020613018833981519152604482015290519081900360640190fd5b60005b82518110156110e45761194383828151811061193657fe5b602002602001015161290d565b60010161191e565b600160d91b6420a226a4a702611961813361200a565b6119a35760408051600160e51b62461bcd0281526020600482015260126024820152600080516020613018833981519152604482015290519081900360640190fd5b81518351146119ea5760408051600160e51b62461bcd02815260206004820152601d6024820152600080516020613083833981519152604482015290519081900360640190fd5b60005b835181101561123157611a26848281518110611a0557fe5b6020026020010151848381518110611a1957fe5b6020026020010151612508565b6001016119ed565b6001600160a01b03811660009081526001602090815260409182902080548351818402810184019094528084526060939283018282801561107057602002820191906000526020600020905b815481526020019060010190808311611a7a5750505050509050919050565b611aa1611f31565b611677612d9a565b611ab1611f31565b6001600160a01b038116611b0f5760408051600160e51b62461bcd02815260206004820152600f60248201527f496e76616c696420616464726573730000000000000000000000000000000000604482015290519081900360640190fd5b60408051600160e01b6370a08231028152306004820152905182916000916001600160a01b038416916370a08231916024808301926020929190829003018186803b158015611b5d57600080fd5b505afa158015611b71573d6000803e3d6000fd5b505050506040513d6020811015611b8757600080fd5b505160408051600160e01b63a9059cbb0281523360048201526024810183905290519192506001600160a01b0384169163a9059cbb916044808201926020929091908290030181600087803b158015611bdf57600080fd5b505af1158015611bf3573d6000803e3d6000fd5b505050506040513d6020811015611c0957600080fd5b50516110e45760408051600160e51b62461bcd02815260206004820152600f60248201527f5472616e73666572206661696c65640000000000000000000000000000000000604482015290519081900360640190fd5b600160c11b6727a822a920aa27a90281565b600160d21b651313d0d2d1510281565b600160d91b6420a226a4a702611c97813361200a565b611cd95760408051600160e51b62461bcd0281526020600482015260126024820152600080516020613018833981519152604482015290519081900360640190fd5b60005b82518110156110e457611d01838281518110611cf457fe5b6020026020010151612326565b600101611cdc565b6007546001600160a01b031681565b60408051600180825281830190925260609182919060208083019080388339019050509050600160d91b6420a226a4a70281600081518110611d5657fe5b6020908102919091010152905090565b6006546001600160a01b031681565b600160d91b6420a226a4a702611d8b813361200a565b611dcd5760408051600160e51b62461bcd0281526020600482015260126024820152600080516020613018833981519152604482015290519081900360640190fd5b611dd986868686612ca5565b61135c8285612142565b60606005805480602002602001604051908101604052809291908181526020018280548015611e3157602002820191906000526020600020905b815481526020019060010190808311611e1d575b5050505050905090565b600160d91b6420a226a4a702611e51813361200a565b611e935760408051600160e51b62461bcd0281526020600482015260126024820152600080516020613018833981519152604482015290519081900360640190fd5b6116dd85858585612ca5565b600080611eab86612aa5565b9150915094509492505050565b60075460408051600160e01b63660d0d6702815290516000926001600160a01b03169163660d0d67916004808301926020929190829003018186803b158015611f0057600080fd5b505afa158015611f14573d6000803e3d6000fd5b505050506040513d6020811015611f2a57600080fd5b5051905090565b600760009054906101000a90046001600160a01b03166001600160a01b0316638da5cb5b6040518163ffffffff1660e01b815260040160206040518083038186803b158015611f7f57600080fd5b505afa158015611f93573d6000803e3d6000fd5b505050506040513d6020811015611fa957600080fd5b50516001600160a01b031633146116775760408051600160e51b62461bcd02815260206004820152601360248201527f53656e646572206973206e6f74206f776e657200000000000000000000000000604482015290519081900360640190fd5b600080600760009054906101000a90046001600160a01b03166001600160a01b0316638da5cb5b6040518163ffffffff1660e01b815260040160206040518083038186803b15801561205b57600080fd5b505afa15801561206f573d6000803e3d6000fd5b505050506040513d602081101561208557600080fd5b50516006546001600160a01b0385811692811683149350161481806120a75750805b80612137575060075460408051600160e01b638658b8b90281526001600160a01b0387811660048301523060248301526044820189905291519190921691638658b8b9916064808301926020929190829003018186803b15801561210a57600080fd5b505afa15801561211e573d6000803e3d6000fd5b505050506040513d602081101561213457600080fd5b50515b925050505b92915050565b6000818152602081905260409020600101546121a85760408051600160e51b62461bcd02815260206004820152601c60248201527f426c61636b6c697374207479706520646f65736e277420657869737400000000604482015290519081900360640190fd5b6001600160a01b0382166122065760408051600160e51b62461bcd02815260206004820152601860248201527f496e76616c696420696e766573746f7220616464726573730000000000000000604482015290519081900360640190fd5b6001600160a01b03821660009081526003602090815260408083208484529091529020541561226957604051600160e51b62461bcd0281526004018080602001828103825260238152602001806130606023913960400191505060405180910390fd5b6001600160a01b0382166000818152600160208181526040808420805460038452828620888752845282862081905560028085528387208054600487528589208a8a528752858920819055845480890186559489528689209094018a90559085528054958601815586529483902090930180546001600160a01b0319168617905580518681529051939492937f5b953084d787f15ed1eddff977ee0d88fbf63e433c3cde8fbea7a4fc349d5f20929181900390910190a250505050565b6001600160a01b0381166123845760408051600160e51b62461bcd02815260206004820152601860248201527f496e76616c696420696e766573746f7220616464726573730000000000000000604482015290519081900360640190fd5b6001600160a01b03811660009081526001602081905260409091205410156123e057604051600160e51b62461bcd0281526004018080602001828103825260288152602001806130a36028913960400191505060405180910390fd5b6001600160a01b03811660009081526001602052604090205460001901805b8181116110e4576001600160a01b038316600090815260016020526040902080546124409185918490811061243057fe5b9060005260206000200154612508565b600019016123ff565b6000828152602081905260409020600101546124af5760408051600160e51b62461bcd02815260206004820152601c60248201527f426c61636b6c697374207479706520646f65736e277420657869737400000000604482015290519081900360640190fd5b6124bb84848484612e47565b60408051858152602081018590528082018490526060810183905290517fb2c5bdf700e8743e7bddfaad6079f28da0b312190dd5dc1d5dfe9860fd963be89181900360800190a150505050565b6001600160a01b0382166125665760408051600160e51b62461bcd02815260206004820152601860248201527f496e76616c696420696e766573746f7220616464726573730000000000000000604482015290519081900360640190fd5b806125bb5760408051600160e51b62461bcd02815260206004820152601660248201527f496e76616c696420626c61636b6c697374206e616d6500000000000000000000604482015290519081900360640190fd5b6001600160a01b0382166000908152600160209081526040808320600383528184208585529092529091205481548392919081106125f557fe5b90600052602060002001541461263f57604051600160e51b62461bcd0281526004018080602001828103825260288152602001806130386028913960400191505060405180910390fd5b60008181526004602090815260408083206001600160a01b038616845282528083205484845260029092529091205460001981018210156127425760008381526002602052604090208054600019830190811061269857fe5b60009182526020808320909101548583526002909152604090912080546001600160a01b0390921691849081106126cb57fe5b600091825260208083209190910180546001600160a01b0319166001600160a01b03949094169390931790925584815260048252604080822060029093528120805485939291908490811061271c57fe5b60009182526020808320909101546001600160a01b031683528201929092526040019020555b6000838152600260205260409020805490612761906000198301612fda565b505060008281526004602090815260408083206001600160a01b03871680855290835281842084905560038352818420868552835281842054908452600190925290912054906000198201811015612872576001600160a01b0385166000908152600160205260409020805460001984019081106127db57fe5b906000526020600020015460016000876001600160a01b03166001600160a01b03168152602001908152602001600020828154811061281657fe5b60009182526020808320909101929092556001600160a01b038716815260038252604080822060019093528120805484939291908490811061285457fe5b90600052602060002001548152602001908152602001600020819055505b6001600160a01b038516600090815260016020526040902080549061289b906000198301612fda565b506001600160a01b0385166000818152600360209081526040808320888452825280832092909255815187815291517fdc247bce63fa5a88389ddfd97f7b059027da8b117fc802b3ebb5ec71b66a577a9281900390910190a25050505050565b6000828201838110156115d857600080fd5b6000818152602081905260409020600101546129735760408051600160e51b62461bcd02815260206004820152601e60248201527f426c61636b6c697374207479706520646f65736ee28099742065786973740000604482015290519081900360640190fd5b600081815260026020526040902054156129c157604051600160e51b62461bcd02815260040180806020018281038252602b8152602001806130cb602b913960400191505060405180910390fd5b6000818152602081905260408120818155600181018290556002018190556005545b80821015612a1a5782600583815481106129f957fe5b90600052602060002001541415612a0f57612a1a565b6001909101906129e3565b600181038214612a595760056001820381548110612a3457fe5b906000526020600020015460058381548110612a4c57fe5b6000918252602090912001555b6005805490612a6c906000198301612fda565b506040805184815290517f9082b227000155e1d3efc115db206d54e4e64e204057aa3f1c7ad1ae0f5be0129181900360200190a1505050565b6008546000908190600160a01b900460ff16612bf2576001600160a01b03831660009081526001602052604090205415612bf25760005b6001600160a01b038416600090815260016020526040902054811015612bf0576001600160a01b0384166000908152600160205260408120805483908110612b2057fe5b60009182526020808320909101548083529082905260409091206001810154815460029092015492935091620151800242821015612be0578015612bc4576000612b8082612b74428663ffffffff612e8d16565b9063ffffffff612ea216565b905042612ba3612b96848463ffffffff612ec416565b869063ffffffff6128fb16565b10612bbe575060009650503060601b9450612bfa9350505050565b50612be0565b428310612be0575060009550503060601b9350612bfa92505050565b505060019092019150612adc9050565b505b506001905060005b915091565b600854600160a01b900460ff16612c605760408051600160e51b62461bcd02815260206004820152601660248201527f436f6e7472616374206973206e6f742070617573656400000000000000000000604482015290519081900360640190fd5b60088054600160a01b60ff02191690556040805133815290517faeb196d352664784d1900b0e7414a8face7d29f4dae8c4b0cf68ed477423bbf49181900360200190a1565b60008281526020819052604090206001015415612d0c5760408051600160e51b62461bcd02815260206004820152601c60248201527f426c61636b6c697374207479706520616c726561647920657869737400000000604482015290519081900360640190fd5b612d1884848484612e47565b600580546001810182556000919091527f036b6384b5eca791c62761152d0c79bb0604c104a5fb6f4eb0703f3154bb3db00182905560408051858152602081018590528082018490526060810183905290517f6af458baec4e7aafeafbdc22a9f909eb7c410cd0dbb2bf6759d9c95476dc2ef29181900360800190a150505050565b600854600160a01b900460ff1615612dfc5760408051600160e51b62461bcd02815260206004820152601260248201527f436f6e7472616374206973207061757365640000000000000000000000000000604482015290519081900360640190fd5b60088054600160a01b60ff021916600160a01b1790556040805133815290517f5ee71a369c8672edded508e624ffc9257fa1ae6886ef32905c18e60196bca3999181900360200190a1565b612e5384848484612eeb565b6040805160608101825294855260208086019485528582019283526000938452839052909120925183559051600183015551600290910155565b600082821115612e9c57600080fd5b50900390565b6000808211612eb057600080fd5b6000828481612ebb57fe5b04949350505050565b600082612ed35750600061213c565b82820282848281612ee057fe5b04146115d857600080fd5b81612f405760408051600160e51b62461bcd02815260206004820152601660248201527f496e76616c696420626c61636b6c697374206e616d6500000000000000000000604482015290519081900360640190fd5b428410158015612f4f57508284105b612fa35760408051600160e51b62461bcd02815260206004820152601960248201527f496e76616c6964207374617274206f7220656e64206461746500000000000000604482015290519081900360640190fd5b612fb3838563ffffffff612e8d16565b612fc6826201518063ffffffff612ec416565b101580612fd1575080155b61123157600080fd5b8154818355818111156110e4576000838152602090206110e491810190830161107f91905b808211156130135760008155600101612fff565b509056fe496e76616c6964207065726d697373696f6e0000000000000000000000000000496e766573746f72206e6f74206173736f63696174656420746f2074686520626c61636b6c697374426c61636b6c69737420616c726561647920616464656420746f20696e766573746f72496e7075742061727261792773206c656e677468206d69736d61746368000000496e766573746f72206973206e6f742070726573656e7420696e2074686520626c61636b6c697374496e766573746f727320617265206173736f63696174656420776974682074686520626c61636b6c697374a165627a7a72305820e215b470489d001df2e0749a57c911cfd704cebac790ebfb54a02a4a838eda000029",
  "source": "pragma solidity 0.5.8;\r\n\r\nimport \"../TransferManager.sol\";\r\nimport \"./BlacklistTransferManagerStorage.sol\";\r\nimport \"openzeppelin-solidity/contracts/math/SafeMath.sol\";\r\n\r\n/**\r\n * @title Transfer Manager module to automate blacklist and restrict transfers\r\n */\r\ncontract BlacklistTransferManager is BlacklistTransferManagerStorage, TransferManager {\r\n    using SafeMath for uint256;\r\n\r\n    // Emit when new blacklist type is added\r\n    event AddBlacklistType(\r\n        uint256 _startTime,\r\n        uint256 _endTime,\r\n        bytes32 _blacklistName,\r\n        uint256 _repeatPeriodTime\r\n    );\r\n\r\n    // Emit when there is a change in the blacklist type\r\n    event ModifyBlacklistType(\r\n        uint256 _startTime,\r\n        uint256 _endTime,\r\n        bytes32 _blacklistName,\r\n        uint256 _repeatPeriodTime\r\n    );\r\n\r\n    // Emit when the added blacklist type is deleted\r\n    event DeleteBlacklistType(\r\n        bytes32 _blacklistName\r\n    );\r\n\r\n    // Emit when new investor is added to the blacklist type\r\n    event AddInvestorToBlacklist(\r\n        address indexed _investor,\r\n        bytes32 _blacklistName\r\n    );\r\n\r\n    // Emit when investor is deleted from the blacklist type\r\n    event DeleteInvestorFromBlacklist(\r\n        address indexed _investor,\r\n        bytes32 _blacklistName\r\n    );\r\n\r\n\r\n    /**\r\n     * @notice Constructor\r\n     * @param _securityToken Address of the security token\r\n     * @param _polyAddress Address of the polytoken\r\n     */\r\n    constructor (address _securityToken, address _polyAddress)\r\n        public\r\n        Module(_securityToken, _polyAddress)\r\n    {\r\n\r\n    }\r\n\r\n    /**\r\n    * @notice This function returns the signature of configure function\r\n    */\r\n    function getInitFunction() public pure returns (bytes4) {\r\n        return bytes4(0);\r\n    }\r\n\r\n\r\n    /**\r\n    * @notice Used to verify the transfer transaction\r\n    * @param _from Address of the sender\r\n    * @dev Restrict the blacklist address to transfer tokens\r\n    * if the current time is between the timeframe define for the\r\n    * blacklist type associated with the _from address\r\n    */\r\n    function executeTransfer(address _from, address /*_to*/, uint256 /*_amount*/, bytes  calldata /*_data*/) external returns(Result) {\r\n        (Result success, ) = _verifyTransfer(_from);\r\n        return success;\r\n    }\r\n\r\n\r\n    /**\r\n    * @notice Used to verify the transfer transaction (View)\r\n    * @param _from Address of the sender\r\n    * @dev Restrict the blacklist address to transfer tokens\r\n    * if the current time is between the timeframe define for the\r\n    * blacklist type associated with the _from address\r\n    */\r\n    function verifyTransfer(\r\n        address _from,\r\n        address /* _to */,\r\n        uint256 /* _amount */,\r\n        bytes  memory/* _data */\r\n    )\r\n        public\r\n        view\r\n        returns(Result, bytes32)\r\n    {\r\n        return _verifyTransfer(_from);\r\n    }\r\n\r\n    function _verifyTransfer(address _from) internal view returns(Result, bytes32) {\r\n        if (!paused) {\r\n            if (investorToBlacklist[_from].length != 0) {\r\n                for (uint256 i = 0; i < investorToBlacklist[_from].length; i++) {\r\n                    bytes32 blacklistName = investorToBlacklist[_from][i];\r\n                    uint256 endTimeTemp = blacklists[blacklistName].endTime;\r\n                    uint256 startTimeTemp = blacklists[blacklistName].startTime;\r\n                    uint256 repeatPeriodTimeTemp = blacklists[blacklistName].repeatPeriodTime * 1 days;\r\n                    /*solium-disable-next-line security/no-block-members*/\r\n                    if (now > startTimeTemp) {\r\n                        if (repeatPeriodTimeTemp > 0) {\r\n                            // Find the repeating parameter that will be used to calculate the new startTime and endTime\r\n                            // based on the new current time value\r\n                            /*solium-disable-next-line security/no-block-members*/\r\n                            uint256 repeater = (now.sub(startTimeTemp)).div(repeatPeriodTimeTemp);\r\n                            /*solium-disable-next-line security/no-block-members*/\r\n                            if (endTimeTemp.add(repeatPeriodTimeTemp.mul(repeater)) >= now) {\r\n                                return (Result.INVALID, bytes32(uint256(address(this)) << 96));\r\n                            }\r\n                        } else if(endTimeTemp >= now) {\r\n                            return (Result.INVALID, bytes32(uint256(address(this)) << 96));\r\n                        }\r\n                    }\r\n                }\r\n            }\r\n        }\r\n        return (Result.NA, bytes32(0));\r\n    }\r\n\r\n\r\n    /**\r\n    * @notice Used to add the blacklist type\r\n    * @param _startTime Start date of the blacklist type\r\n    * @param _endTime End date of the blacklist type\r\n    * @param _blacklistName Name of the blacklist type\r\n    * @param _repeatPeriodTime Repeat period of the blacklist type in days\r\n    */\r\n    function addBlacklistType(uint256 _startTime, uint256 _endTime, bytes32 _blacklistName, uint256 _repeatPeriodTime) public withPerm(ADMIN) {\r\n        _addBlacklistType(_startTime, _endTime, _blacklistName, _repeatPeriodTime);\r\n    }\r\n\r\n    function _addBlacklistType(uint256 _startTime, uint256 _endTime, bytes32 _blacklistName, uint256 _repeatPeriodTime) internal {\r\n        require(blacklists[_blacklistName].endTime == 0, \"Blacklist type already exist\");\r\n        _addBlacklistTypeDetails(_startTime, _endTime, _blacklistName, _repeatPeriodTime);\r\n        allBlacklists.push(_blacklistName);\r\n        emit AddBlacklistType(_startTime, _endTime, _blacklistName, _repeatPeriodTime);\r\n    }\r\n\r\n    function _addBlacklistTypeDetails(uint256 _startTime, uint256 _endTime, bytes32 _blacklistName, uint256 _repeatPeriodTime) internal {\r\n        _validParams(_startTime, _endTime, _blacklistName, _repeatPeriodTime);\r\n        blacklists[_blacklistName] = BlacklistsDetails(_startTime, _endTime, _repeatPeriodTime);\r\n    }\r\n\r\n    /**\r\n    * @notice Used to add the multiple blacklist type\r\n    * @param _startTimes Start date of the blacklist type\r\n    * @param _endTimes End date of the blacklist type\r\n    * @param _blacklistNames Name of the blacklist type\r\n    * @param _repeatPeriodTimes Repeat period of the blacklist type\r\n    */\r\n    function addBlacklistTypeMulti(\r\n        uint256[] memory _startTimes,\r\n        uint256[] memory _endTimes,\r\n        bytes32[] memory _blacklistNames,\r\n        uint256[] memory _repeatPeriodTimes\r\n    )\r\n        public\r\n        withPerm(ADMIN)\r\n    {\r\n        require (_startTimes.length == _endTimes.length && _endTimes.length == _blacklistNames.length && _blacklistNames.length == _repeatPeriodTimes.length, \"Input array's length mismatch\");\r\n        for (uint256 i = 0; i < _startTimes.length; i++) {\r\n            _addBlacklistType(_startTimes[i], _endTimes[i], _blacklistNames[i], _repeatPeriodTimes[i]);\r\n        }\r\n    }\r\n\r\n    /**\r\n    * @notice Used to modify the details of a given blacklist type\r\n    * @param _startTime Start date of the blacklist type\r\n    * @param _endTime End date of the blacklist type\r\n    * @param _blacklistName Name of the blacklist type\r\n    * @param _repeatPeriodTime Repeat period of the blacklist type\r\n    */\r\n    function modifyBlacklistType(uint256 _startTime, uint256 _endTime, bytes32 _blacklistName, uint256 _repeatPeriodTime) public withPerm(ADMIN) {\r\n        _modifyBlacklistType(_startTime, _endTime, _blacklistName, _repeatPeriodTime);\r\n    }\r\n\r\n    function _modifyBlacklistType(uint256 _startTime, uint256 _endTime, bytes32 _blacklistName, uint256 _repeatPeriodTime) internal {\r\n        require(blacklists[_blacklistName].endTime != 0, \"Blacklist type doesn't exist\");\r\n        _addBlacklistTypeDetails(_startTime, _endTime, _blacklistName, _repeatPeriodTime);\r\n        emit ModifyBlacklistType(_startTime, _endTime, _blacklistName, _repeatPeriodTime);\r\n    }\r\n\r\n    /**\r\n    * @notice Used to modify the details of a given multpile blacklist types\r\n    * @param _startTimes Start date of the blacklist type\r\n    * @param _endTimes End date of the blacklist type\r\n    * @param _blacklistNames Name of the blacklist type\r\n    * @param _repeatPeriodTimes Repeat period of the blacklist type\r\n    */\r\n    function modifyBlacklistTypeMulti(\r\n        uint256[] memory _startTimes,\r\n        uint256[] memory _endTimes,\r\n        bytes32[] memory _blacklistNames,\r\n        uint256[] memory _repeatPeriodTimes\r\n    )\r\n        public\r\n        withPerm(ADMIN)\r\n    {\r\n        require (_startTimes.length == _endTimes.length && _endTimes.length == _blacklistNames.length && _blacklistNames.length == _repeatPeriodTimes.length, \"Input array's length mismatch\");\r\n        for (uint256 i = 0; i < _startTimes.length; i++) {\r\n            _modifyBlacklistType(_startTimes[i], _endTimes[i], _blacklistNames[i], _repeatPeriodTimes[i]);\r\n        }\r\n    }\r\n\r\n    /**\r\n    * @notice Used to delete the blacklist type\r\n    * @param _blacklistName Name of the blacklist type\r\n    */\r\n    function deleteBlacklistType(bytes32 _blacklistName) public withPerm(ADMIN) {\r\n        _deleteBlacklistType(_blacklistName);\r\n    }\r\n\r\n    function _deleteBlacklistType(bytes32 _blacklistName) internal {\r\n        require(blacklists[_blacklistName].endTime != 0, \"Blacklist type doesnt exist\");\r\n        require(blacklistToInvestor[_blacklistName].length == 0, \"Investors are associated with the blacklist\");\r\n        // delete blacklist type\r\n        delete(blacklists[_blacklistName]);\r\n        uint256 i = 0;\r\n        uint256 blackListLength = allBlacklists.length;\r\n        for (i = 0; i < blackListLength; i++) {\r\n            if (allBlacklists[i] == _blacklistName) {\r\n                break;\r\n            }\r\n        }\r\n        if (i != blackListLength - 1) {\r\n            allBlacklists[i] = allBlacklists[blackListLength -1];\r\n        }\r\n        allBlacklists.length--;\r\n        emit DeleteBlacklistType(_blacklistName);\r\n    }\r\n\r\n    /**\r\n    * @notice Used to delete the multiple blacklist type\r\n    * @param _blacklistNames Name of the blacklist type\r\n    */\r\n    function deleteBlacklistTypeMulti(bytes32[] memory _blacklistNames) public withPerm(ADMIN) {\r\n        for(uint256 i = 0; i < _blacklistNames.length; i++) {\r\n            _deleteBlacklistType(_blacklistNames[i]);\r\n        }\r\n    }\r\n\r\n    /**\r\n    * @notice Used to assign the blacklist type to the investor\r\n    * @param _investor Address of the investor\r\n    * @param _blacklistName Name of the blacklist\r\n    */\r\n    function addInvestorToBlacklist(address _investor, bytes32 _blacklistName) public withPerm(ADMIN) {\r\n        _addInvestorToBlacklist(_investor, _blacklistName);\r\n    }\r\n\r\n    function _addInvestorToBlacklist(address _investor, bytes32 _blacklistName) internal {\r\n        require(blacklists[_blacklistName].endTime != 0, \"Blacklist type doesn't exist\");\r\n        require(_investor != address(0), \"Invalid investor address\");\r\n        require(investorToIndex[_investor][_blacklistName] == 0, \"Blacklist already added to investor\");\r\n        uint256 investorIndex = investorToBlacklist[_investor].length;\r\n        // Add blacklist index to the investor\r\n        investorToIndex[_investor][_blacklistName] = investorIndex;\r\n        uint256 blacklistIndex = blacklistToInvestor[_blacklistName].length;\r\n        // Add investor index to the blacklist\r\n        blacklistToIndex[_blacklistName][_investor] = blacklistIndex;\r\n        investorToBlacklist[_investor].push(_blacklistName);\r\n        blacklistToInvestor[_blacklistName].push(_investor);\r\n        emit AddInvestorToBlacklist(_investor, _blacklistName);\r\n    }\r\n\r\n    /**\r\n    * @notice Used to assign the blacklist type to the multiple investor\r\n    * @param _investors Address of the investor\r\n    * @param _blacklistName Name of the blacklist\r\n    */\r\n    function addInvestorToBlacklistMulti(address[] memory _investors, bytes32 _blacklistName) public withPerm(ADMIN) {\r\n        for(uint256 i = 0; i < _investors.length; i++) {\r\n            _addInvestorToBlacklist(_investors[i], _blacklistName);\r\n        }\r\n    }\r\n\r\n    /**\r\n    * @notice Used to assign the multiple blacklist type to the multiple investor\r\n    * @param _investors Address of the investor\r\n    * @param _blacklistNames Name of the blacklist\r\n    */\r\n    function addMultiInvestorToBlacklistMulti(address[] memory _investors, bytes32[] memory _blacklistNames) public withPerm(ADMIN) {\r\n        require (_investors.length == _blacklistNames.length, \"Input array's length mismatch\");\r\n        for(uint256 i = 0; i < _investors.length; i++) {\r\n            _addInvestorToBlacklist(_investors[i], _blacklistNames[i]);\r\n        }\r\n    }\r\n\r\n    /**\r\n    * @notice Used to assign the new blacklist type to the investor\r\n    * @param _startTime Start date of the blacklist type\r\n    * @param _endTime End date of the blacklist type\r\n    * @param _blacklistName Name of the blacklist type\r\n    * @param _repeatPeriodTime Repeat period of the blacklist type\r\n    * @param _investor Address of the investor\r\n    */\r\n    function addInvestorToNewBlacklist(\r\n        uint256 _startTime,\r\n        uint256 _endTime,\r\n        bytes32 _blacklistName,\r\n        uint256 _repeatPeriodTime,\r\n        address _investor\r\n    ) public withPerm(ADMIN) {\r\n        _addBlacklistType(_startTime, _endTime, _blacklistName, _repeatPeriodTime);\r\n        _addInvestorToBlacklist(_investor, _blacklistName);\r\n    }\r\n\r\n    /**\r\n    * @notice Used to delete the investor from the blacklist\r\n    * @param _investor Address of the investor\r\n    * @param _blacklistName Name of the blacklist\r\n    */\r\n    function deleteInvestorFromBlacklist(address _investor, bytes32 _blacklistName) public withPerm(ADMIN) {\r\n        _deleteInvestorFromBlacklist(_investor, _blacklistName);\r\n    }\r\n\r\n    /**\r\n    * @notice Used to delete the investor from the blacklist\r\n    * @param _investor Address of the investor\r\n    * @param _blacklistName Name of the blacklist\r\n    */\r\n    function _deleteInvestorFromBlacklist(address _investor, bytes32 _blacklistName) internal {\r\n        require(_investor != address(0), \"Invalid investor address\");\r\n        require(_blacklistName != bytes32(0),\"Invalid blacklist name\");\r\n        require(investorToBlacklist[_investor][investorToIndex[_investor][_blacklistName]] == _blacklistName, \"Investor not associated to the blacklist\");\r\n        // delete the investor from the blacklist type\r\n        uint256 _blacklistIndex = blacklistToIndex[_blacklistName][_investor];\r\n        uint256 _len = blacklistToInvestor[_blacklistName].length;\r\n        if ( _blacklistIndex < _len -1) {\r\n            blacklistToInvestor[_blacklistName][_blacklistIndex] = blacklistToInvestor[_blacklistName][_len - 1];\r\n            blacklistToIndex[_blacklistName][blacklistToInvestor[_blacklistName][_blacklistIndex]] = _blacklistIndex;\r\n        }\r\n        blacklistToInvestor[_blacklistName].length--;\r\n        // delete the investor index from the blacklist\r\n        delete(blacklistToIndex[_blacklistName][_investor]);\r\n        // delete the blacklist from the investor\r\n        uint256 _investorIndex = investorToIndex[_investor][_blacklistName];\r\n        _len = investorToBlacklist[_investor].length;\r\n        if ( _investorIndex < _len -1) {\r\n            investorToBlacklist[_investor][_investorIndex] = investorToBlacklist[_investor][_len - 1];\r\n            investorToIndex[_investor][investorToBlacklist[_investor][_investorIndex]] = _investorIndex;\r\n        }\r\n        investorToBlacklist[_investor].length--;\r\n        // delete the blacklist index from the invetsor\r\n        delete(investorToIndex[_investor][_blacklistName]);\r\n        emit DeleteInvestorFromBlacklist(_investor, _blacklistName);\r\n    }\r\n\r\n    /**\r\n    * @notice Used to delete the investor from all the associated blacklist types\r\n    * @param _investor Address of the investor\r\n    */\r\n    function deleteInvestorFromAllBlacklist(address _investor) public withPerm(ADMIN) {\r\n        _deleteInvestorFromAllBlacklist(_investor);\r\n    }\r\n\r\n    /**\r\n    * @notice Used to delete the investor from all the associated blacklist types\r\n    * @param _investor Address of the investor\r\n    */\r\n    function _deleteInvestorFromAllBlacklist(address _investor) internal {\r\n        require(_investor != address(0), \"Invalid investor address\");\r\n        require(investorToBlacklist[_investor].length >= 1, \"Investor is not present in the blacklist\");\r\n        uint256 index = investorToBlacklist[_investor].length - 1;\r\n        for (uint256 i = index; i >= 0 && i <= index; i--) {\r\n            _deleteInvestorFromBlacklist(_investor, investorToBlacklist[_investor][i]);\r\n        }\r\n    }\r\n\r\n     /**\r\n    * @notice Used to delete the multiple investor from all the associated blacklist types\r\n    * @param _investor Address of the investor\r\n    */\r\n    function deleteInvestorFromAllBlacklistMulti(address[] memory _investor) public withPerm(ADMIN) {\r\n        for(uint256 i = 0; i < _investor.length; i++) {\r\n            _deleteInvestorFromAllBlacklist(_investor[i]);\r\n        }\r\n    }\r\n\r\n     /**\r\n    * @notice Used to delete the multiple investor from the blacklist\r\n    * @param _investors address of the investor\r\n    * @param _blacklistNames name of the blacklist\r\n    */\r\n    function deleteMultiInvestorsFromBlacklistMulti(address[] memory _investors, bytes32[] memory _blacklistNames) public withPerm(ADMIN) {\r\n        require (_investors.length == _blacklistNames.length, \"Input array's length mismatch\");\r\n        for(uint256 i = 0; i < _investors.length; i++) {\r\n            _deleteInvestorFromBlacklist(_investors[i], _blacklistNames[i]);\r\n        }\r\n    }\r\n\r\n    /**\r\n     * @notice Internal function\r\n     */\r\n    function _validParams(uint256 _startTime, uint256 _endTime, bytes32 _blacklistName, uint256 _repeatPeriodTime) internal view {\r\n        require(_blacklistName != bytes32(0), \"Invalid blacklist name\");\r\n        require(_startTime >= now && _startTime < _endTime, \"Invalid start or end date\");\r\n        require(_repeatPeriodTime.mul(1 days) >= _endTime.sub(_startTime) || _repeatPeriodTime == 0);\r\n    }\r\n\r\n    /**\r\n    * @notice get the list of the investors of a blacklist type\r\n    * @param _blacklistName Name of the blacklist type\r\n    * @return address List of investors associated with the blacklist\r\n    */\r\n    function getListOfAddresses(bytes32 _blacklistName) external view returns(address[] memory) {\r\n        require(blacklists[_blacklistName].endTime != 0, \"Blacklist type doesn't exist\");\r\n        return blacklistToInvestor[_blacklistName];\r\n    }\r\n\r\n    /**\r\n    * @notice get the list of the investors of a blacklist type\r\n    * @param _user Address of the user\r\n    * @return bytes32 List of blacklist names associated with the given address\r\n    */\r\n    function getBlacklistNamesToUser(address _user) external view returns(bytes32[] memory) {\r\n        return investorToBlacklist[_user];\r\n    }\r\n\r\n    /**\r\n     * @notice get the list of blacklist names\r\n     * @return bytes32 Array of blacklist names\r\n     */\r\n    function getAllBlacklists() external view returns(bytes32[] memory) {\r\n        return allBlacklists;\r\n    }\r\n\r\n    /**\r\n     * @notice return the amount of tokens for a given user as per the partition\r\n     * @param _partition Identifier\r\n     * @param _tokenHolder Whom token amount need to query\r\n     * @param _additionalBalance It is the `_value` that transfer during transfer/transferFrom function call\r\n     */\r\n    function getTokensByPartition(bytes32 _partition, address _tokenHolder, uint256 _additionalBalance) external view returns(uint256) {\r\n        uint256 currentBalance = (msg.sender == address(securityToken)) ? (securityToken.balanceOf(_tokenHolder)).add(_additionalBalance) : securityToken.balanceOf(_tokenHolder);\r\n        if (paused && _partition == UNLOCKED)\r\n            return currentBalance;\r\n\r\n        (Result success, ) = verifyTransfer(_tokenHolder, address(0), 0, \"0x0\");\r\n        if ((_partition == LOCKED && success == Result.INVALID) || (_partition == UNLOCKED && success != Result.INVALID))\r\n            return currentBalance;\r\n        else\r\n            return 0;\r\n    }\r\n\r\n    /**\r\n    * @notice Return the permissions flag that are associated with blacklist transfer manager\r\n    */\r\n    function getPermissions() public view returns(bytes32[] memory) {\r\n        bytes32[] memory allPermissions = new bytes32[](1);\r\n        allPermissions[0] = ADMIN;\r\n        return allPermissions;\r\n    }\r\n}\r\n",
  "sourcePath": "C:/mspace/polymath-core/contracts/modules/TransferManager/BTM/BlacklistTransferManager.sol",
  "compiler": {
    "name": "solc",
    "version": "0.5.8+commit.23d335f2.Emscripten.clang"
  },
  "schemaVersion": "3.0.11",
  "updatedAt": "2019-08-05T12:37:19.392Z",
  "devdoc": {
    "methods": {
      "addBlacklistType(uint256,uint256,bytes32,uint256)": {
        "params": {
          "_blacklistName": "Name of the blacklist type\r",
          "_endTime": "End date of the blacklist type\r",
          "_repeatPeriodTime": "Repeat period of the blacklist type in days\r",
          "_startTime": "Start date of the blacklist type\r"
        }
      },
      "addBlacklistTypeMulti(uint256[],uint256[],bytes32[],uint256[])": {
        "params": {
          "_blacklistNames": "Name of the blacklist type\r",
          "_endTimes": "End date of the blacklist type\r",
          "_repeatPeriodTimes": "Repeat period of the blacklist type\r",
          "_startTimes": "Start date of the blacklist type\r"
        }
      },
      "addInvestorToBlacklist(address,bytes32)": {
        "params": {
          "_blacklistName": "Name of the blacklist\r",
          "_investor": "Address of the investor\r"
        }
      },
      "addInvestorToBlacklistMulti(address[],bytes32)": {
        "params": {
          "_blacklistName": "Name of the blacklist\r",
          "_investors": "Address of the investor\r"
        }
      },
      "addInvestorToNewBlacklist(uint256,uint256,bytes32,uint256,address)": {
        "params": {
          "_blacklistName": "Name of the blacklist type\r",
          "_endTime": "End date of the blacklist type\r",
          "_investor": "Address of the investor\r",
          "_repeatPeriodTime": "Repeat period of the blacklist type\r",
          "_startTime": "Start date of the blacklist type\r"
        }
      },
      "addMultiInvestorToBlacklistMulti(address[],bytes32[])": {
        "params": {
          "_blacklistNames": "Name of the blacklist\r",
          "_investors": "Address of the investor\r"
        }
      },
      "constructor": {
        "params": {
          "_polyAddress": "Address of the polytoken\r",
          "_securityToken": "Address of the security token\r"
        }
      },
      "deleteBlacklistType(bytes32)": {
        "params": {
          "_blacklistName": "Name of the blacklist type\r"
        }
      },
      "deleteBlacklistTypeMulti(bytes32[])": {
        "params": {
          "_blacklistNames": "Name of the blacklist type\r"
        }
      },
      "deleteInvestorFromAllBlacklist(address)": {
        "params": {
          "_investor": "Address of the investor\r"
        }
      },
      "deleteInvestorFromAllBlacklistMulti(address[])": {
        "params": {
          "_investor": "Address of the investor\r"
        }
      },
      "deleteInvestorFromBlacklist(address,bytes32)": {
        "params": {
          "_blacklistName": "Name of the blacklist\r",
          "_investor": "Address of the investor\r"
        }
      },
      "deleteMultiInvestorsFromBlacklistMulti(address[],bytes32[])": {
        "params": {
          "_blacklistNames": "name of the blacklist\r",
          "_investors": "address of the investor\r"
        }
      },
      "executeTransfer(address,address,uint256,bytes)": {
        "details": "Restrict the blacklist address to transfer tokens\r if the current time is between the timeframe define for the\r blacklist type associated with the _from address\r",
        "params": {
          "_from": "Address of the sender\r"
        }
      },
      "getAllBlacklists()": {
        "return": "bytes32 Array of blacklist names\r"
      },
      "getBlacklistNamesToUser(address)": {
        "params": {
          "_user": "Address of the user\r"
        },
        "return": "bytes32 List of blacklist names associated with the given address\r"
      },
      "getListOfAddresses(bytes32)": {
        "params": {
          "_blacklistName": "Name of the blacklist type\r"
        },
        "return": "address List of investors associated with the blacklist\r"
      },
      "getTokensByPartition(bytes32,address,uint256)": {
        "params": {
          "_additionalBalance": "It is the `_value` that transfer during transfer/transferFrom function call\r",
          "_partition": "Identifier\r",
          "_tokenHolder": "Whom token amount need to query\r"
        }
      },
      "modifyBlacklistType(uint256,uint256,bytes32,uint256)": {
        "params": {
          "_blacklistName": "Name of the blacklist type\r",
          "_endTime": "End date of the blacklist type\r",
          "_repeatPeriodTime": "Repeat period of the blacklist type\r",
          "_startTime": "Start date of the blacklist type\r"
        }
      },
      "modifyBlacklistTypeMulti(uint256[],uint256[],bytes32[],uint256[])": {
        "params": {
          "_blacklistNames": "Name of the blacklist type\r",
          "_endTimes": "End date of the blacklist type\r",
          "_repeatPeriodTimes": "Repeat period of the blacklist type\r",
          "_startTimes": "Start date of the blacklist type\r"
        }
      },
      "reclaimERC20(address)": {
        "details": "We duplicate here due to the overriden owner & onlyOwner\r",
        "params": {
          "_tokenContract": "The address of the token contract\r"
        }
      },
      "reclaimETH()": {
        "details": "We duplicate here due to the overriden owner & onlyOwner\r"
      },
      "verifyTransfer(address,address,uint256,bytes)": {
        "details": "Restrict the blacklist address to transfer tokens\r if the current time is between the timeframe define for the\r blacklist type associated with the _from address\r",
        "params": {
          "_from": "Address of the sender\r"
        }
      }
    },
    "title": "Transfer Manager module to automate blacklist and restrict transfers\r"
  },
  "userdoc": {
    "methods": {
      "addBlacklistType(uint256,uint256,bytes32,uint256)": {
        "notice": "Used to add the blacklist type\r"
      },
      "addBlacklistTypeMulti(uint256[],uint256[],bytes32[],uint256[])": {
        "notice": "Used to add the multiple blacklist type\r"
      },
      "addInvestorToBlacklist(address,bytes32)": {
        "notice": "Used to assign the blacklist type to the investor\r"
      },
      "addInvestorToBlacklistMulti(address[],bytes32)": {
        "notice": "Used to assign the blacklist type to the multiple investor\r"
      },
      "addInvestorToNewBlacklist(uint256,uint256,bytes32,uint256,address)": {
        "notice": "Used to assign the new blacklist type to the investor\r"
      },
      "addMultiInvestorToBlacklistMulti(address[],bytes32[])": {
        "notice": "Used to assign the multiple blacklist type to the multiple investor\r"
      },
      "constructor": "Constructor\r",
      "deleteBlacklistType(bytes32)": {
        "notice": "Used to delete the blacklist type\r"
      },
      "deleteBlacklistTypeMulti(bytes32[])": {
        "notice": "Used to delete the multiple blacklist type\r"
      },
      "deleteInvestorFromAllBlacklist(address)": {
        "notice": "Used to delete the investor from all the associated blacklist types\r"
      },
      "deleteInvestorFromAllBlacklistMulti(address[])": {
        "notice": "Used to delete the multiple investor from all the associated blacklist types\r"
      },
      "deleteInvestorFromBlacklist(address,bytes32)": {
        "notice": "Used to delete the investor from the blacklist\r"
      },
      "deleteMultiInvestorsFromBlacklistMulti(address[],bytes32[])": {
        "notice": "Used to delete the multiple investor from the blacklist\r"
      },
      "executeTransfer(address,address,uint256,bytes)": {
        "notice": "Used to verify the transfer transaction\r"
      },
      "getAllBlacklists()": {
        "notice": "get the list of blacklist names\r"
      },
      "getBlacklistNamesToUser(address)": {
        "notice": "get the list of the investors of a blacklist type\r"
      },
      "getDataStore()": {
        "notice": "used to return the data store address of securityToken\r"
      },
      "getInitFunction()": {
        "notice": "This function returns the signature of configure function\r"
      },
      "getListOfAddresses(bytes32)": {
        "notice": "get the list of the investors of a blacklist type\r"
      },
      "getPermissions()": {
        "notice": "Return the permissions flag that are associated with blacklist transfer manager\r"
      },
      "getTokensByPartition(bytes32,address,uint256)": {
        "notice": "return the amount of tokens for a given user as per the partition\r"
      },
      "modifyBlacklistType(uint256,uint256,bytes32,uint256)": {
        "notice": "Used to modify the details of a given blacklist type\r"
      },
      "modifyBlacklistTypeMulti(uint256[],uint256[],bytes32[],uint256[])": {
        "notice": "Used to modify the details of a given multpile blacklist types\r"
      },
      "pause()": {
        "notice": "Pause (overridden function)\r"
      },
      "reclaimERC20(address)": {
        "notice": "Reclaims ERC20Basic compatible tokens\r"
      },
      "reclaimETH()": {
        "notice": "Reclaims ETH\r"
      },
      "unpause()": {
        "notice": "Unpause (overridden function)\r"
      },
      "verifyTransfer(address,address,uint256,bytes)": {
        "notice": "Used to verify the transfer transaction (View)\r"
      }
    }
  }
}