{
  "contractName": "CappedSTOProxy",
  "abi": [
    {
      "constant": false,
      "inputs": [],
      "name": "proxyOwner",
      "outputs": [
        {
          "name": "",
          "type": "address"
        }
      ],
      "payable": false,
      "stateMutability": "nonpayable",
      "type": "function"
    },
    {
      "constant": true,
      "inputs": [],
      "name": "ADMIN",
      "outputs": [
        {
          "name": "",
          "type": "bytes32"
        }
      ],
      "payable": false,
      "stateMutability": "view",
      "type": "function"
    },
    {
      "constant": true,
      "inputs": [],
      "name": "rate",
      "outputs": [
        {
          "name": "",
          "type": "uint256"
        }
      ],
      "payable": false,
      "stateMutability": "view",
      "type": "function"
    },
    {
      "constant": true,
      "inputs": [],
      "name": "allowBeneficialInvestments",
      "outputs": [
        {
          "name": "",
          "type": "bool"
        }
      ],
      "payable": false,
      "stateMutability": "view",
      "type": "function"
    },
    {
      "constant": true,
      "inputs": [],
      "name": "endTime",
      "outputs": [
        {
          "name": "",
          "type": "uint256"
        }
      ],
      "payable": false,
      "stateMutability": "view",
      "type": "function"
    },
    {
      "constant": true,
      "inputs": [],
      "name": "cap",
      "outputs": [
        {
          "name": "",
          "type": "uint256"
        }
      ],
      "payable": false,
      "stateMutability": "view",
      "type": "function"
    },
    {
      "constant": true,
      "inputs": [],
      "name": "wallet",
      "outputs": [
        {
          "name": "",
          "type": "address"
        }
      ],
      "payable": false,
      "stateMutability": "view",
      "type": "function"
    },
    {
      "constant": false,
      "inputs": [],
      "name": "version",
      "outputs": [
        {
          "name": "",
          "type": "string"
        }
      ],
      "payable": false,
      "stateMutability": "nonpayable",
      "type": "function"
    },
    {
      "constant": false,
      "inputs": [
        {
          "name": "_newVersion",
          "type": "string"
        },
        {
          "name": "_newImplementation",
          "type": "address"
        }
      ],
      "name": "upgradeTo",
      "outputs": [],
      "payable": false,
      "stateMutability": "nonpayable",
      "type": "function"
    },
    {
      "constant": false,
      "inputs": [],
      "name": "implementation",
      "outputs": [
        {
          "name": "",
          "type": "address"
        }
      ],
      "payable": false,
      "stateMutability": "nonpayable",
      "type": "function"
    },
    {
      "constant": true,
      "inputs": [],
      "name": "paused",
      "outputs": [
        {
          "name": "",
          "type": "bool"
        }
      ],
      "payable": false,
      "stateMutability": "view",
      "type": "function"
    },
    {
      "constant": true,
      "inputs": [],
      "name": "totalTokensSold",
      "outputs": [
        {
          "name": "",
          "type": "uint256"
        }
      ],
      "payable": false,
      "stateMutability": "view",
      "type": "function"
    },
    {
      "constant": true,
      "inputs": [
        {
          "name": "",
          "type": "address"
        }
      ],
      "name": "investors",
      "outputs": [
        {
          "name": "",
          "type": "uint256"
        }
      ],
      "payable": false,
      "stateMutability": "view",
      "type": "function"
    },
    {
      "constant": true,
      "inputs": [],
      "name": "polyToken",
      "outputs": [
        {
          "name": "",
          "type": "address"
        }
      ],
      "payable": false,
      "stateMutability": "view",
      "type": "function"
    },
    {
      "constant": true,
      "inputs": [],
      "name": "startTime",
      "outputs": [
        {
          "name": "",
          "type": "uint256"
        }
      ],
      "payable": false,
      "stateMutability": "view",
      "type": "function"
    },
    {
      "constant": false,
      "inputs": [
        {
          "name": "_newVersion",
          "type": "string"
        },
        {
          "name": "_newImplementation",
          "type": "address"
        },
        {
          "name": "_data",
          "type": "bytes"
        }
      ],
      "name": "upgradeToAndCall",
      "outputs": [],
      "payable": true,
      "stateMutability": "payable",
      "type": "function"
    },
    {
      "constant": true,
      "inputs": [],
      "name": "OPERATOR",
      "outputs": [
        {
          "name": "",
          "type": "bytes32"
        }
      ],
      "payable": false,
      "stateMutability": "view",
      "type": "function"
    },
    {
      "constant": true,
      "inputs": [],
      "name": "pausedTime",
      "outputs": [
        {
          "name": "",
          "type": "uint256"
        }
      ],
      "payable": false,
      "stateMutability": "view",
      "type": "function"
    },
    {
      "constant": true,
      "inputs": [],
      "name": "securityToken",
      "outputs": [
        {
          "name": "",
          "type": "address"
        }
      ],
      "payable": false,
      "stateMutability": "view",
      "type": "function"
    },
    {
      "constant": true,
      "inputs": [],
      "name": "factory",
      "outputs": [
        {
          "name": "",
          "type": "address"
        }
      ],
      "payable": false,
      "stateMutability": "view",
      "type": "function"
    },
    {
      "constant": true,
      "inputs": [
        {
          "name": "",
          "type": "uint8"
        }
      ],
      "name": "fundsRaised",
      "outputs": [
        {
          "name": "",
          "type": "uint256"
        }
      ],
      "payable": false,
      "stateMutability": "view",
      "type": "function"
    },
    {
      "constant": true,
      "inputs": [
        {
          "name": "",
          "type": "uint8"
        }
      ],
      "name": "fundRaiseTypes",
      "outputs": [
        {
          "name": "",
          "type": "bool"
        }
      ],
      "payable": false,
      "stateMutability": "view",
      "type": "function"
    },
    {
      "constant": true,
      "inputs": [],
      "name": "investorCount",
      "outputs": [
        {
          "name": "",
          "type": "uint256"
        }
      ],
      "payable": false,
      "stateMutability": "view",
      "type": "function"
    },
    {
      "constant": false,
      "inputs": [
        {
          "name": "_newOwner",
          "type": "address"
        }
      ],
      "name": "transferProxyOwnership",
      "outputs": [],
      "payable": false,
      "stateMutability": "nonpayable",
      "type": "function"
    },
    {
      "inputs": [
        {
          "name": "_version",
          "type": "string"
        },
        {
          "name": "_securityToken",
          "type": "address"
        },
        {
          "name": "_polyAddress",
          "type": "address"
        },
        {
          "name": "_implementation",
          "type": "address"
        }
      ],
      "payable": false,
      "stateMutability": "nonpayable",
      "type": "constructor"
    },
    {
      "payable": true,
      "stateMutability": "payable",
      "type": "fallback"
    },
    {
      "anonymous": false,
      "inputs": [
        {
          "indexed": false,
          "name": "_previousOwner",
          "type": "address"
        },
        {
          "indexed": false,
          "name": "_newOwner",
          "type": "address"
        }
      ],
      "name": "ProxyOwnershipTransferred",
      "type": "event"
    },
    {
      "anonymous": false,
      "inputs": [
        {
          "indexed": false,
          "name": "_newVersion",
          "type": "string"
        },
        {
          "indexed": true,
          "name": "_newImplementation",
          "type": "address"
        }
      ],
      "name": "Upgraded",
      "type": "event"
    },
    {
      "anonymous": false,
      "inputs": [
        {
          "indexed": false,
          "name": "account",
          "type": "address"
        }
      ],
      "name": "Pause",
      "type": "event"
    },
    {
      "anonymous": false,
      "inputs": [
        {
          "indexed": false,
          "name": "account",
          "type": "address"
        }
      ],
      "name": "Unpause",
      "type": "event"
    }
  ],
  "bytecode": "0x60806040526000805460ff19169055600e8054600160a01b60ff02191690553480156200002b57600080fd5b506040516200171538038062001715833981018060405260808110156200005157600080fd5b8101908080516401000000008111156200006a57600080fd5b820160208101848111156200007e57600080fd5b81516401000000008111828201871017156200009957600080fd5b50506020808301516040840151606090940151600d80546001600160a01b038085166001600160a01b031992831617909255600c8054821633908117909155600e8054938916939092169290921790556001600f5593965090945091620001049162000181811b901c565b6001600160a01b03811662000165576040517f08c379a00000000000000000000000000000000000000000000000000000000081526004018080602001828103825260278152602001806200166d6027913960400191505060405180910390fd5b6200017784826200021960201b60201c565b505050506200063b565b6001600160a01b038116620001f757604080517f08c379a000000000000000000000000000000000000000000000000000000000815260206004820152601860248201527f416464726573732073686f756c64206e6f742062652030780000000000000000604482015290519081900360640190fd5b601280546001600160a01b0319166001600160a01b0392909216919091179055565b6011546001600160a01b038281169116148015906200024057506001600160a01b03811615155b62000297576040517f08c379a0000000000000000000000000000000000000000000000000000000008152600401808060200182810382526046815260200180620016946046913960600191505060405180910390fd5b620002ad816200059060201b62000e5a1760201c565b62000304576040517f08c379a000000000000000000000000000000000000000000000000000000000815260040180806020018281038252603b815260200180620016da603b913960400191505060405180910390fd5b600082511162000360576040517f08c379a00000000000000000000000000000000000000000000000000000000081526004018080602001828103825260228152602001806200164b6022913960400191505060405180910390fd5b816040516020018082805190602001908083835b60208310620003955780518252601f19909201916020918201910162000374565b6001836020036101000a0380198251168184511680821785525050505050509050019150506040516020818303038152906040528051906020012060106040516020018082805460018160011615610100020316600290048015620004345780601f106200041157610100808354040283529182019162000434565b820191906000526020600020905b8154815290600101906020018083116200041f575b5050915050604051602081830303815290604052805190602001201415620004bd57604080517f08c379a000000000000000000000000000000000000000000000000000000000815260206004820152601d60248201527f4e65772076657273696f6e20657175616c7320746f2063757272656e74000000604482015290519081900360640190fd5b8151620004d290601090602085019062000596565b50601180546001600160a01b0319166001600160a01b03831690811790915560408051602080825285518183015285517f8e05e0e35ff592971ca8b477d4285a33a61ded208d644042667b78693a472f5e938793928392918301919085019080838360005b838110156200055157818101518382015260200162000537565b50505050905090810190601f1680156200057f5780820380516001836020036101000a031916815260200191505b509250505060405180910390a25050565b3b151590565b828054600181600116156101000203166002900490600052602060002090601f016020900481019282601f10620005d957805160ff191683800117855562000609565b8280016001018555821562000609579182015b8281111562000609578251825591602001919060010190620005ec565b50620006179291506200061b565b5090565b6200063891905b8082111562000617576000815560010162000622565b90565b611000806200064b6000396000f3fe60806040526004361061014b5760003560e01c80636f7bc9be116100b6578063b84dfbd21161006f578063b84dfbd2146104cf578063c45a0155146104e4578063c4d2c6bd146104f9578063d143a37914610526578063d7e64c0014610553578063f1739cae146105685761014b565b80636f7bc9be146103795780636faa22a5146103ac57806378e97925146103c1578063958a41dd146103d6578063983d2737146104a5578063b2cca39d146104ba5761014b565b8063521eb27311610108578063521eb2731461021557806354fd4d501461022a5780635a8b1a9f146102b45780635c60da1b1461033a5780635c975abb1461034f57806363b20117146103645761014b565b8063025313a2146101555780632a0acc6a146101865780632c4e722e146101ad5780632df413e2146101c25780633197cbb6146101eb578063355274ea14610200575b61015361059b565b005b34801561016157600080fd5b5061016a6105ad565b604080516001600160a01b039092168252519081900360200190f35b34801561019257600080fd5b5061019b6105ea565b60408051918252519081900360200190f35b3480156101b957600080fd5b5061019b6105f9565b3480156101ce57600080fd5b506101d76105ff565b604080519115158252519081900360200190f35b3480156101f757600080fd5b5061019b610608565b34801561020c57600080fd5b5061019b61060e565b34801561022157600080fd5b5061016a610614565b34801561023657600080fd5b5061023f610623565b6040805160208082528351818301528351919283929083019185019080838360005b83811015610279578181015183820152602001610261565b50505050905090810190601f1680156102a65780820380516001836020036101000a031916815260200191505b509250505060405180910390f35b3480156102c057600080fd5b50610153600480360360408110156102d757600080fd5b8101906020810181356401000000008111156102f257600080fd5b82018360208201111561030457600080fd5b8035906020019184600183028401116401000000008311171561032657600080fd5b9193509150356001600160a01b03166106d8565b34801561034657600080fd5b5061016a61074c565b34801561035b57600080fd5b506101d7610777565b34801561037057600080fd5b5061019b610787565b34801561038557600080fd5b5061019b6004803603602081101561039c57600080fd5b50356001600160a01b031661078d565b3480156103b857600080fd5b5061016a61079f565b3480156103cd57600080fd5b5061019b6107ae565b610153600480360360608110156103ec57600080fd5b81019060208101813564010000000081111561040757600080fd5b82018360208201111561041957600080fd5b8035906020019184600183028401116401000000008311171561043b57600080fd5b919390926001600160a01b038335169260408101906020013564010000000081111561046657600080fd5b82018360208201111561047857600080fd5b8035906020019184600183028401116401000000008311171561049a57600080fd5b5090925090506107b4565b3480156104b157600080fd5b5061019b61085e565b3480156104c657600080fd5b5061019b610870565b3480156104db57600080fd5b5061016a610876565b3480156104f057600080fd5b5061016a610885565b34801561050557600080fd5b5061019b6004803603602081101561051c57600080fd5b503560ff16610894565b34801561053257600080fd5b506101d76004803603602081101561054957600080fd5b503560ff166108a6565b34801561055f57600080fd5b5061019b6108bb565b34801561057457600080fd5b506101536004803603602081101561058b57600080fd5b50356001600160a01b03166108c1565b6105ab6105a66109a4565b6109b3565b565b60006105b76109d7565b6001600160a01b0316336001600160a01b031614156105df576105d86109d7565b90506105e7565b6105e761059b565b90565b600160d91b6420a226a4a70281565b60015481565b60005460ff1681565b60075481565b60025481565b600a546001600160a01b031681565b606061062d6109d7565b6001600160a01b0316336001600160a01b031614156105df576010805460408051602060026001851615610100026000190190941693909304601f810184900484028201840190925281815292918301828280156106cc5780601f106106a1576101008083540402835291602001916106cc565b820191906000526020600020905b8154815290600101906020018083116106af57829003601f168201915b505050505090506105e7565b6106e06109d7565b6001600160a01b0316336001600160a01b0316141561073f5761073a83838080601f0160208091040260200160405190810160405280939291908181526020018383808284376000920191909152508592506109e6915050565b610747565b61074761059b565b505050565b60006107566109d7565b6001600160a01b0316336001600160a01b031614156105df576105d86109a4565b600e54600160a01b900460ff1681565b600b5481565b60036020526000908152604090205481565b600e546001600160a01b031681565b60065481565b6107bc6109d7565b6001600160a01b0316336001600160a01b0316141561084f5761084a85858080601f01602080910402602001604051908101604052809392919081815260200183838082843760009201919091525050604080516020601f880181900481028201810190925286815288935091508690869081908401838280828437600092019190915250610ce192505050565b610857565b61085761059b565b5050505050565b600160c11b6727a822a920aa27a90281565b60085481565b600d546001600160a01b031681565b600c546001600160a01b031681565b60056020526000908152604090205481565b60046020526000908152604090205460ff1681565b60095481565b6108c96109d7565b6001600160a01b0316336001600160a01b03161415610999576001600160a01b0381166109405760408051600160e51b62461bcd02815260206004820152601860248201527f416464726573732073686f756c64206e6f742062652030780000000000000000604482015290519081900360640190fd5b7f5a3e66efaa1e445ebd894728a69d6959842ea1e97bd79b892797106e270efcd96109696109d7565b604080516001600160a01b03928316815291841660208301528051918290030190a161099481610dda565b6109a1565b6109a161059b565b50565b6011546001600160a01b031690565b3660008037600080366000845af43d6000803e8080156109d2573d6000f35b3d6000fd5b6012546001600160a01b031690565b6011546001600160a01b03828116911614801590610a0c57506001600160a01b03811615155b610a4a57604051600160e51b62461bcd028152600401808060200182810382526046815260200180610f546046913960600191505060405180910390fd5b610a5381610e5a565b610a9157604051600160e51b62461bcd02815260040180806020018281038252603b815260200180610f9a603b913960400191505060405180910390fd5b6000825111610ad457604051600160e51b62461bcd028152600401808060200182810382526022815260200180610ef96022913960400191505060405180910390fd5b816040516020018082805190602001908083835b60208310610b075780518252601f199092019160209182019101610ae8565b6001836020036101000a0380198251168184511680821785525050505050509050019150506040516020818303038152906040528051906020012060106040516020018082805460018160011615610100020316600290048015610ba25780601f10610b80576101008083540402835291820191610ba2565b820191906000526020600020905b815481529060010190602001808311610b8e575b5050915050604051602081830303815290604052805190602001201415610c135760408051600160e51b62461bcd02815260206004820152601d60248201527f4e65772076657273696f6e20657175616c7320746f2063757272656e74000000604482015290519081900360640190fd5b8151610c26906010906020850190610e60565b50601180546001600160a01b0319166001600160a01b03831690811790915560408051602080825285518183015285517f8e05e0e35ff592971ca8b477d4285a33a61ded208d644042667b78693a472f5e938793928392918301919085019080838360005b83811015610ca3578181015183820152602001610c8b565b50505050905090810190601f168015610cd05780820380516001836020036101000a031916815260200191505b509250505060405180910390a25050565b610ceb83836109e6565b6000306001600160a01b031634836040518082805190602001908083835b60208310610d285780518252601f199092019160209182019101610d09565b6001836020036101000a03801982511681845116808217855250505050505090500191505060006040518083038185875af1925050503d8060008114610d8a576040519150601f19603f3d011682016040523d82523d6000602084013e610d8f565b606091505b50508091505080610dd457604051600160e51b62461bcd028152600401808060200182810382526039815260200180610f1b6039913960400191505060405180910390fd5b50505050565b6001600160a01b038116610e385760408051600160e51b62461bcd02815260206004820152601860248201527f416464726573732073686f756c64206e6f742062652030780000000000000000604482015290519081900360640190fd5b601280546001600160a01b0319166001600160a01b0392909216919091179055565b3b151590565b828054600181600116156101000203166002900490600052602060002090601f016020900481019282601f10610ea157805160ff1916838001178555610ece565b82800160010185558215610ece579182015b82811115610ece578251825591602001919060010190610eb3565b50610eda929150610ede565b5090565b6105e791905b80821115610eda5760008155600101610ee456fe56657273696f6e2073686f756c64206e6f7420626520656d70747920737472696e674661696c20696e20657865637574696e67207468652066756e6374696f6e206f6620696d706c656d656e746174696f6e20636f6e74726163744f6c642061646472657373206973206e6f7420616c6c6f77656420616e6420696d706c656d656e746174696f6e20616464726573732073686f756c64206e6f7420626520307843616e6e6f742073657420612070726f787920696d706c656d656e746174696f6e20746f2061206e6f6e2d636f6e74726163742061646472657373a165627a7a7230582079a7c2dd3706013598112bb1e57dc81cf384d411546ab1edf6d09b2319f9769e002956657273696f6e2073686f756c64206e6f7420626520656d70747920737472696e67496d706c656d656e746174696f6e20616464726573732073686f756c64206e6f742062652030784f6c642061646472657373206973206e6f7420616c6c6f77656420616e6420696d706c656d656e746174696f6e20616464726573732073686f756c64206e6f7420626520307843616e6e6f742073657420612070726f787920696d706c656d656e746174696f6e20746f2061206e6f6e2d636f6e74726163742061646472657373",
  "source": "pragma solidity 0.5.8;\r\n\r\nimport \"../../../proxy/OwnedUpgradeabilityProxy.sol\";\r\nimport \"../../../Pausable.sol\";\r\nimport \"openzeppelin-solidity/contracts/utils/ReentrancyGuard.sol\";\r\nimport \"../../../storage/modules/STO/STOStorage.sol\";\r\nimport \"../../../storage/modules/ModuleStorage.sol\";\r\nimport \"./CappedSTOStorage.sol\";\r\n\r\n/**\r\n * @title CappedSTO module Proxy\r\n */\r\ncontract CappedSTOProxy is CappedSTOStorage, STOStorage, ModuleStorage, Pausable, ReentrancyGuard, OwnedUpgradeabilityProxy {\r\n\r\n    /**\r\n    * @notice Constructor\r\n    * @param _securityToken Address of the security token\r\n    * @param _polyAddress Address of the polytoken\r\n    * @param _implementation representing the address of the new implementation to be set\r\n    */\r\n    constructor(\r\n        string memory _version,\r\n        address _securityToken,\r\n        address _polyAddress,\r\n        address _implementation\r\n    )\r\n        public\r\n        ModuleStorage(_securityToken, _polyAddress)\r\n    {\r\n        require(\r\n            _implementation != address(0),\r\n            \"Implementation address should not be 0x\"\r\n        );\r\n        _upgradeTo(_version, _implementation);\r\n    }\r\n\r\n}\r\n",
  "sourcePath": "C:\\mspace\\polymath-core\\contracts\\modules\\STO\\Capped\\CappedSTOProxy.sol",
  "compiler": {
    "name": "solc",
    "version": "0.5.8+commit.23d335f2.Emscripten.clang"
  },
  "schemaVersion": "3.0.11",
  "updatedAt": "2019-08-05T22:52:46.827Z",
  "devdoc": {
    "methods": {
      "constructor": {
        "params": {
          "_implementation": "representing the address of the new implementation to be set\r",
          "_polyAddress": "Address of the polytoken\r",
          "_securityToken": "Address of the security token\r"
        }
      },
      "implementation()": {
        "details": "Tells the address of the current implementation\r",
        "return": "address of the current implementation\r"
      },
      "proxyOwner()": {
        "details": "Tells the address of the proxy owner\r",
        "return": "the address of the proxy owner\r"
      },
      "transferProxyOwnership(address)": {
        "details": "Allows the current owner to transfer control of the contract to a newOwner.\r",
        "params": {
          "_newOwner": "The address to transfer ownership to.\r"
        }
      },
      "upgradeTo(string,address)": {
        "details": "Allows the upgradeability owner to upgrade the current version of the proxy.\r",
        "params": {
          "_newImplementation": "representing the address of the new implementation to be set.\r",
          "_newVersion": "representing the version name of the new implementation to be set.\r"
        }
      },
      "upgradeToAndCall(string,address,bytes)": {
        "details": "Allows the upgradeability owner to upgrade the current version of the proxy and call the new implementation\r to initialize whatever is needed through a low level call.\r",
        "params": {
          "_data": "represents the msg.data to bet sent in the low level call. This parameter may include the function\r signature of the implementation to be called with the needed payload\r",
          "_newImplementation": "representing the address of the new implementation to be set.\r",
          "_newVersion": "representing the version name of the new implementation to be set.\r"
        }
      },
      "version()": {
        "details": "Tells the version name of the current implementation\r",
        "return": "string representing the name of the current version\r"
      }
    },
    "title": "CappedSTO module Proxy\r"
  },
  "userdoc": {
    "methods": {
      "constructor": "Constructor\r"
    }
  }
}