{
  "contractName": "CappedSTOStorage",
  "abi": [
    {
      "constant": true,
      "inputs": [],
      "name": "rate",
      "outputs": [
        {
          "name": "",
          "type": "uint256"
        }
      ],
      "payable": false,
      "stateMutability": "view",
      "type": "function"
    },
    {
      "constant": true,
      "inputs": [],
      "name": "allowBeneficialInvestments",
      "outputs": [
        {
          "name": "",
          "type": "bool"
        }
      ],
      "payable": false,
      "stateMutability": "view",
      "type": "function"
    },
    {
      "constant": true,
      "inputs": [],
      "name": "cap",
      "outputs": [
        {
          "name": "",
          "type": "uint256"
        }
      ],
      "payable": false,
      "stateMutability": "view",
      "type": "function"
    },
    {
      "constant": true,
      "inputs": [
        {
          "name": "",
          "type": "address"
        }
      ],
      "name": "investors",
      "outputs": [
        {
          "name": "",
          "type": "uint256"
        }
      ],
      "payable": false,
      "stateMutability": "view",
      "type": "function"
    }
  ],
  "bytecode": "0x60806040526000805460ff1916905534801561001a57600080fd5b5060f9806100296000396000f3fe6080604052348015600f57600080fd5b506004361060465760003560e01c80632c4e722e14604b5780632df413e2146063578063355274ea14607d5780636f7bc9be146083575b600080fd5b605160a6565b60408051918252519081900360200190f35b606960ac565b604080519115158252519081900360200190f35b605160b5565b605160048036036020811015609757600080fd5b50356001600160a01b031660bb565b60015481565b60005460ff1681565b60025481565b6003602052600090815260409020548156fea165627a7a72305820293bf6c632b728f135e5cfc39623c9175960384c2cfb34bdfb89013cdd36cd720029",
  "source": "pragma solidity 0.5.8;\r\n\r\n/**\r\n * @title Contract used to store layout for the CappedSTO storage\r\n */\r\ncontract CappedSTOStorage {\r\n\r\n    // Determine whether users can invest on behalf of a beneficiary\r\n    bool public allowBeneficialInvestments = false;\r\n    // How many token units a buyer gets (multiplied by 10^18) per wei / base unit of POLY\r\n    // If rate is 10^18, buyer will get 1 token unit for every wei / base unit of poly.\r\n    uint256 public rate;\r\n    //How many token base units this STO will be allowed to sell to investors\r\n    // 1 full token = 10^decimals_of_token base units\r\n    uint256 public cap;\r\n\r\n    mapping (address => uint256) public investors;\r\n\r\n}\r\n",
  "sourcePath": "C:\\mspace\\polymath-core\\contracts\\modules\\STO\\Capped\\CappedSTOStorage.sol",
  "compiler": {
    "name": "solc",
    "version": "0.5.8+commit.23d335f2.Emscripten.clang"
  },
  "schemaVersion": "3.0.11",
  "updatedAt": "2019-08-05T22:52:46.829Z",
  "devdoc": {
    "methods": {},
    "title": "Contract used to store layout for the CappedSTO storage\r"
  },
  "userdoc": {
    "methods": {}
  }
}