{
  "contractName": "CountTransferManagerProxy",
  "abi": [
    {
      "constant": false,
      "inputs": [],
      "name": "proxyOwner",
      "outputs": [
        {
          "name": "",
          "type": "address"
        }
      ],
      "payable": false,
      "stateMutability": "nonpayable",
      "type": "function"
    },
    {
      "constant": true,
      "inputs": [],
      "name": "ADMIN",
      "outputs": [
        {
          "name": "",
          "type": "bytes32"
        }
      ],
      "payable": false,
      "stateMutability": "view",
      "type": "function"
    },
    {
      "constant": false,
      "inputs": [],
      "name": "version",
      "outputs": [
        {
          "name": "",
          "type": "string"
        }
      ],
      "payable": false,
      "stateMutability": "nonpayable",
      "type": "function"
    },
    {
      "constant": false,
      "inputs": [
        {
          "name": "_newVersion",
          "type": "string"
        },
        {
          "name": "_newImplementation",
          "type": "address"
        }
      ],
      "name": "upgradeTo",
      "outputs": [],
      "payable": false,
      "stateMutability": "nonpayable",
      "type": "function"
    },
    {
      "constant": false,
      "inputs": [],
      "name": "implementation",
      "outputs": [
        {
          "name": "",
          "type": "address"
        }
      ],
      "payable": false,
      "stateMutability": "nonpayable",
      "type": "function"
    },
    {
      "constant": true,
      "inputs": [],
      "name": "paused",
      "outputs": [
        {
          "name": "",
          "type": "bool"
        }
      ],
      "payable": false,
      "stateMutability": "view",
      "type": "function"
    },
    {
      "constant": true,
      "inputs": [],
      "name": "polyToken",
      "outputs": [
        {
          "name": "",
          "type": "address"
        }
      ],
      "payable": false,
      "stateMutability": "view",
      "type": "function"
    },
    {
      "constant": false,
      "inputs": [
        {
          "name": "_newVersion",
          "type": "string"
        },
        {
          "name": "_newImplementation",
          "type": "address"
        },
        {
          "name": "_data",
          "type": "bytes"
        }
      ],
      "name": "upgradeToAndCall",
      "outputs": [],
      "payable": true,
      "stateMutability": "payable",
      "type": "function"
    },
    {
      "constant": true,
      "inputs": [],
      "name": "OPERATOR",
      "outputs": [
        {
          "name": "",
          "type": "bytes32"
        }
      ],
      "payable": false,
      "stateMutability": "view",
      "type": "function"
    },
    {
      "constant": true,
      "inputs": [],
      "name": "maxHolderCount",
      "outputs": [
        {
          "name": "",
          "type": "uint256"
        }
      ],
      "payable": false,
      "stateMutability": "view",
      "type": "function"
    },
    {
      "constant": true,
      "inputs": [],
      "name": "securityToken",
      "outputs": [
        {
          "name": "",
          "type": "address"
        }
      ],
      "payable": false,
      "stateMutability": "view",
      "type": "function"
    },
    {
      "constant": true,
      "inputs": [],
      "name": "factory",
      "outputs": [
        {
          "name": "",
          "type": "address"
        }
      ],
      "payable": false,
      "stateMutability": "view",
      "type": "function"
    },
    {
      "constant": false,
      "inputs": [
        {
          "name": "_newOwner",
          "type": "address"
        }
      ],
      "name": "transferProxyOwnership",
      "outputs": [],
      "payable": false,
      "stateMutability": "nonpayable",
      "type": "function"
    },
    {
      "inputs": [
        {
          "name": "_version",
          "type": "string"
        },
        {
          "name": "_securityToken",
          "type": "address"
        },
        {
          "name": "_polyAddress",
          "type": "address"
        },
        {
          "name": "_implementation",
          "type": "address"
        }
      ],
      "payable": false,
      "stateMutability": "nonpayable",
      "type": "constructor"
    },
    {
      "payable": true,
      "stateMutability": "payable",
      "type": "fallback"
    },
    {
      "anonymous": false,
      "inputs": [
        {
          "indexed": false,
          "name": "_previousOwner",
          "type": "address"
        },
        {
          "indexed": false,
          "name": "_newOwner",
          "type": "address"
        }
      ],
      "name": "ProxyOwnershipTransferred",
      "type": "event"
    },
    {
      "anonymous": false,
      "inputs": [
        {
          "indexed": false,
          "name": "_newVersion",
          "type": "string"
        },
        {
          "indexed": true,
          "name": "_newImplementation",
          "type": "address"
        }
      ],
      "name": "Upgraded",
      "type": "event"
    },
    {
      "anonymous": false,
      "inputs": [
        {
          "indexed": false,
          "name": "account",
          "type": "address"
        }
      ],
      "name": "Pause",
      "type": "event"
    },
    {
      "anonymous": false,
      "inputs": [
        {
          "indexed": false,
          "name": "account",
          "type": "address"
        }
      ],
      "name": "Unpause",
      "type": "event"
    }
  ],
  "bytecode": "0x608060405260038054600160a01b60ff02191690553480156200002157600080fd5b50604051620014d3380380620014d3833981018060405260808110156200004757600080fd5b8101908080516401000000008111156200006057600080fd5b820160208101848111156200007457600080fd5b81516401000000008111828201871017156200008f57600080fd5b50506020808301516040840151606090940151600280546001600160a01b038085166001600160a01b03199283161790925560018054821633908117909155600380549389169390921692909217905593965090945091620000f59162000172811b901c565b6001600160a01b03811662000156576040517f08c379a00000000000000000000000000000000000000000000000000000000081526004018080602001828103825260278152602001806200142b6027913960400191505060405180910390fd5b6200016884826200020a60201b60201c565b505050506200062c565b6001600160a01b038116620001e857604080517f08c379a000000000000000000000000000000000000000000000000000000000815260206004820152601860248201527f416464726573732073686f756c64206e6f742062652030780000000000000000604482015290519081900360640190fd5b600680546001600160a01b0319166001600160a01b0392909216919091179055565b6005546001600160a01b038281169116148015906200023157506001600160a01b03811615155b62000288576040517f08c379a0000000000000000000000000000000000000000000000000000000008152600401808060200182810382526046815260200180620014526046913960600191505060405180910390fd5b6200029e816200058160201b62000c271760201c565b620002f5576040517f08c379a000000000000000000000000000000000000000000000000000000000815260040180806020018281038252603b81526020018062001498603b913960400191505060405180910390fd5b600082511162000351576040517f08c379a0000000000000000000000000000000000000000000000000000000008152600401808060200182810382526022815260200180620014096022913960400191505060405180910390fd5b816040516020018082805190602001908083835b60208310620003865780518252601f19909201916020918201910162000365565b6001836020036101000a0380198251168184511680821785525050505050509050019150506040516020818303038152906040528051906020012060046040516020018082805460018160011615610100020316600290048015620004255780601f106200040257610100808354040283529182019162000425565b820191906000526020600020905b81548152906001019060200180831162000410575b5050915050604051602081830303815290604052805190602001201415620004ae57604080517f08c379a000000000000000000000000000000000000000000000000000000000815260206004820152601d60248201527f4e65772076657273696f6e20657175616c7320746f2063757272656e74000000604482015290519081900360640190fd5b8151620004c390600490602085019062000587565b50600580546001600160a01b0319166001600160a01b03831690811790915560408051602080825285518183015285517f8e05e0e35ff592971ca8b477d4285a33a61ded208d644042667b78693a472f5e938793928392918301919085019080838360005b838110156200054257818101518382015260200162000528565b50505050905090810190601f168015620005705780820380516001836020036101000a031916815260200191505b509250505060405180910390a25050565b3b151590565b828054600181600116156101000203166002900490600052602060002090601f016020900481019282601f10620005ca57805160ff1916838001178555620005fa565b82800160010185558215620005fa579182015b82811115620005fa578251825591602001919060010190620005dd565b50620006089291506200060c565b5090565b6200062991905b8082111562000608576000815560010162000613565b90565b610dcd806200063c6000396000f3fe6080604052600436106100c25760003560e01c80636faa22a51161007f578063ae89a29e11610059578063ae89a29e1461036b578063b84dfbd214610380578063c45a015514610395578063f1739cae146103aa576100c2565b80636faa22a514610272578063958a41dd14610287578063983d273714610356576100c2565b8063025313a2146100cc5780632a0acc6a146100fd57806354fd4d50146101245780635a8b1a9f146101ae5780635c60da1b146102345780635c975abb14610249575b6100ca6103dd565b005b3480156100d857600080fd5b506100e16103ef565b604080516001600160a01b039092168252519081900360200190f35b34801561010957600080fd5b5061011261042c565b60408051918252519081900360200190f35b34801561013057600080fd5b5061013961043b565b6040805160208082528351818301528351919283929083019185019080838360005b8381101561017357818101518382015260200161015b565b50505050905090810190601f1680156101a05780820380516001836020036101000a031916815260200191505b509250505060405180910390f35b3480156101ba57600080fd5b506100ca600480360360408110156101d157600080fd5b8101906020810181356401000000008111156101ec57600080fd5b8201836020820111156101fe57600080fd5b8035906020019184600183028401116401000000008311171561022057600080fd5b9193509150356001600160a01b03166104f0565b34801561024057600080fd5b506100e1610564565b34801561025557600080fd5b5061025e61058f565b604080519115158252519081900360200190f35b34801561027e57600080fd5b506100e161059f565b6100ca6004803603606081101561029d57600080fd5b8101906020810181356401000000008111156102b857600080fd5b8201836020820111156102ca57600080fd5b803590602001918460018302840111640100000000831117156102ec57600080fd5b919390926001600160a01b038335169260408101906020013564010000000081111561031757600080fd5b82018360208201111561032957600080fd5b8035906020019184600183028401116401000000008311171561034b57600080fd5b5090925090506105ae565b34801561036257600080fd5b50610112610658565b34801561037757600080fd5b5061011261066a565b34801561038c57600080fd5b506100e1610670565b3480156103a157600080fd5b506100e161067f565b3480156103b657600080fd5b506100ca600480360360208110156103cd57600080fd5b50356001600160a01b031661068e565b6103ed6103e8610771565b610780565b565b60006103f96107a4565b6001600160a01b0316336001600160a01b031614156104215761041a6107a4565b9050610429565b6104296103dd565b90565b600160d91b6420a226a4a70281565b60606104456107a4565b6001600160a01b0316336001600160a01b03161415610421576004805460408051602060026001851615610100026000190190941693909304601f810184900484028201840190925281815292918301828280156104e45780601f106104b9576101008083540402835291602001916104e4565b820191906000526020600020905b8154815290600101906020018083116104c757829003601f168201915b50505050509050610429565b6104f86107a4565b6001600160a01b0316336001600160a01b031614156105575761055283838080601f0160208091040260200160405190810160405280939291908181526020018383808284376000920191909152508592506107b3915050565b61055f565b61055f6103dd565b505050565b600061056e6107a4565b6001600160a01b0316336001600160a01b031614156104215761041a610771565b600354600160a01b900460ff1681565b6003546001600160a01b031681565b6105b66107a4565b6001600160a01b0316336001600160a01b031614156106495761064485858080601f01602080910402602001604051908101604052809392919081815260200183838082843760009201919091525050604080516020601f880181900481028201810190925286815288935091508690869081908401838280828437600092019190915250610aae92505050565b610651565b6106516103dd565b5050505050565b600160c11b6727a822a920aa27a90281565b60005481565b6002546001600160a01b031681565b6001546001600160a01b031681565b6106966107a4565b6001600160a01b0316336001600160a01b03161415610766576001600160a01b03811661070d5760408051600160e51b62461bcd02815260206004820152601860248201527f416464726573732073686f756c64206e6f742062652030780000000000000000604482015290519081900360640190fd5b7f5a3e66efaa1e445ebd894728a69d6959842ea1e97bd79b892797106e270efcd96107366107a4565b604080516001600160a01b03928316815291841660208301528051918290030190a161076181610ba7565b61076e565b61076e6103dd565b50565b6005546001600160a01b031690565b3660008037600080366000845af43d6000803e80801561079f573d6000f35b3d6000fd5b6006546001600160a01b031690565b6005546001600160a01b038281169116148015906107d957506001600160a01b03811615155b61081757604051600160e51b62461bcd028152600401808060200182810382526046815260200180610d216046913960600191505060405180910390fd5b61082081610c27565b61085e57604051600160e51b62461bcd02815260040180806020018281038252603b815260200180610d67603b913960400191505060405180910390fd5b60008251116108a157604051600160e51b62461bcd028152600401808060200182810382526022815260200180610cc66022913960400191505060405180910390fd5b816040516020018082805190602001908083835b602083106108d45780518252601f1990920191602091820191016108b5565b6001836020036101000a038019825116818451168082178552505050505050905001915050604051602081830303815290604052805190602001206004604051602001808280546001816001161561010002031660029004801561096f5780601f1061094d57610100808354040283529182019161096f565b820191906000526020600020905b81548152906001019060200180831161095b575b50509150506040516020818303038152906040528051906020012014156109e05760408051600160e51b62461bcd02815260206004820152601d60248201527f4e65772076657273696f6e20657175616c7320746f2063757272656e74000000604482015290519081900360640190fd5b81516109f3906004906020850190610c2d565b50600580546001600160a01b0319166001600160a01b03831690811790915560408051602080825285518183015285517f8e05e0e35ff592971ca8b477d4285a33a61ded208d644042667b78693a472f5e938793928392918301919085019080838360005b83811015610a70578181015183820152602001610a58565b50505050905090810190601f168015610a9d5780820380516001836020036101000a031916815260200191505b509250505060405180910390a25050565b610ab883836107b3565b6000306001600160a01b031634836040518082805190602001908083835b60208310610af55780518252601f199092019160209182019101610ad6565b6001836020036101000a03801982511681845116808217855250505050505090500191505060006040518083038185875af1925050503d8060008114610b57576040519150601f19603f3d011682016040523d82523d6000602084013e610b5c565b606091505b50508091505080610ba157604051600160e51b62461bcd028152600401808060200182810382526039815260200180610ce86039913960400191505060405180910390fd5b50505050565b6001600160a01b038116610c055760408051600160e51b62461bcd02815260206004820152601860248201527f416464726573732073686f756c64206e6f742062652030780000000000000000604482015290519081900360640190fd5b600680546001600160a01b0319166001600160a01b0392909216919091179055565b3b151590565b828054600181600116156101000203166002900490600052602060002090601f016020900481019282601f10610c6e57805160ff1916838001178555610c9b565b82800160010185558215610c9b579182015b82811115610c9b578251825591602001919060010190610c80565b50610ca7929150610cab565b5090565b61042991905b80821115610ca75760008155600101610cb156fe56657273696f6e2073686f756c64206e6f7420626520656d70747920737472696e674661696c20696e20657865637574696e67207468652066756e6374696f6e206f6620696d706c656d656e746174696f6e20636f6e74726163744f6c642061646472657373206973206e6f7420616c6c6f77656420616e6420696d706c656d656e746174696f6e20616464726573732073686f756c64206e6f7420626520307843616e6e6f742073657420612070726f787920696d706c656d656e746174696f6e20746f2061206e6f6e2d636f6e74726163742061646472657373a165627a7a723058200ee01a6962340125d65a352c317c58bf998d7951a7b9bdb10c2c5e9625115780002956657273696f6e2073686f756c64206e6f7420626520656d70747920737472696e67496d706c656d656e746174696f6e20616464726573732073686f756c64206e6f742062652030784f6c642061646472657373206973206e6f7420616c6c6f77656420616e6420696d706c656d656e746174696f6e20616464726573732073686f756c64206e6f7420626520307843616e6e6f742073657420612070726f787920696d706c656d656e746174696f6e20746f2061206e6f6e2d636f6e74726163742061646472657373",
  "source": "pragma solidity 0.5.8;\r\n\r\nimport \"../../../proxy/OwnedUpgradeabilityProxy.sol\";\r\nimport \"./CountTransferManagerStorage.sol\";\r\nimport \"../../../Pausable.sol\";\r\nimport \"../../../storage/modules/ModuleStorage.sol\";\r\n\r\n/**\r\n * @title CountTransferManager module Proxy\r\n */\r\ncontract CountTransferManagerProxy is CountTransferManagerStorage, ModuleStorage, Pausable, OwnedUpgradeabilityProxy {\r\n\r\n    /**\r\n    * @notice Constructor\r\n    * @param _securityToken Address of the security token\r\n    * @param _polyAddress Address of the polytoken\r\n    * @param _implementation representing the address of the new implementation to be set\r\n    */\r\n    constructor (\r\n        string memory _version,\r\n        address _securityToken,\r\n        address _polyAddress,\r\n        address _implementation\r\n    )\r\n        public\r\n        ModuleStorage(_securityToken, _polyAddress)\r\n    {\r\n        require(\r\n            _implementation != address(0),\r\n            \"Implementation address should not be 0x\"\r\n        );\r\n        _upgradeTo(_version, _implementation);\r\n    }\r\n\r\n}\r\n",
  "sourcePath": "C:\\mspace\\polymath-core\\contracts\\modules\\TransferManager\\CTM\\CountTransferManagerProxy.sol",
  "compiler": {
    "name": "solc",
    "version": "0.5.8+commit.23d335f2.Emscripten.clang"
  },
  "schemaVersion": "3.0.11",
  "updatedAt": "2019-08-05T22:52:46.856Z",
  "devdoc": {
    "methods": {
      "constructor": {
        "params": {
          "_implementation": "representing the address of the new implementation to be set\r",
          "_polyAddress": "Address of the polytoken\r",
          "_securityToken": "Address of the security token\r"
        }
      },
      "implementation()": {
        "details": "Tells the address of the current implementation\r",
        "return": "address of the current implementation\r"
      },
      "proxyOwner()": {
        "details": "Tells the address of the proxy owner\r",
        "return": "the address of the proxy owner\r"
      },
      "transferProxyOwnership(address)": {
        "details": "Allows the current owner to transfer control of the contract to a newOwner.\r",
        "params": {
          "_newOwner": "The address to transfer ownership to.\r"
        }
      },
      "upgradeTo(string,address)": {
        "details": "Allows the upgradeability owner to upgrade the current version of the proxy.\r",
        "params": {
          "_newImplementation": "representing the address of the new implementation to be set.\r",
          "_newVersion": "representing the version name of the new implementation to be set.\r"
        }
      },
      "upgradeToAndCall(string,address,bytes)": {
        "details": "Allows the upgradeability owner to upgrade the current version of the proxy and call the new implementation\r to initialize whatever is needed through a low level call.\r",
        "params": {
          "_data": "represents the msg.data to bet sent in the low level call. This parameter may include the function\r signature of the implementation to be called with the needed payload\r",
          "_newImplementation": "representing the address of the new implementation to be set.\r",
          "_newVersion": "representing the version name of the new implementation to be set.\r"
        }
      },
      "version()": {
        "details": "Tells the version name of the current implementation\r",
        "return": "string representing the name of the current version\r"
      }
    },
    "title": "CountTransferManager module Proxy\r"
  },
  "userdoc": {
    "methods": {
      "constructor": "Constructor\r"
    }
  }
}