{
  "contractName": "CountTransferManager",
  "abi": [
    {
      "constant": false,
      "inputs": [],
      "name": "reclaimETH",
      "outputs": [],
      "payable": false,
      "stateMutability": "nonpayable",
      "type": "function"
    },
    {
      "constant": true,
      "inputs": [
        {
          "name": "_partition",
          "type": "bytes32"
        },
        {
          "name": "_tokenHolder",
          "type": "address"
        },
        {
          "name": "",
          "type": "uint256"
        }
      ],
      "name": "getTokensByPartition",
      "outputs": [
        {
          "name": "",
          "type": "uint256"
        }
      ],
      "payable": false,
      "stateMutability": "view",
      "type": "function"
    },
    {
      "constant": true,
      "inputs": [],
      "name": "ADMIN",
      "outputs": [
        {
          "name": "",
          "type": "bytes32"
        }
      ],
      "payable": false,
      "stateMutability": "view",
      "type": "function"
    },
    {
      "constant": false,
      "inputs": [],
      "name": "unpause",
      "outputs": [],
      "payable": false,
      "stateMutability": "nonpayable",
      "type": "function"
    },
    {
      "constant": true,
      "inputs": [],
      "name": "paused",
      "outputs": [
        {
          "name": "",
          "type": "bool"
        }
      ],
      "payable": false,
      "stateMutability": "view",
      "type": "function"
    },
    {
      "constant": true,
      "inputs": [],
      "name": "UNLOCKED",
      "outputs": [
        {
          "name": "",
          "type": "bytes32"
        }
      ],
      "payable": false,
      "stateMutability": "view",
      "type": "function"
    },
    {
      "constant": true,
      "inputs": [],
      "name": "polyToken",
      "outputs": [
        {
          "name": "",
          "type": "address"
        }
      ],
      "payable": false,
      "stateMutability": "view",
      "type": "function"
    },
    {
      "constant": false,
      "inputs": [],
      "name": "pause",
      "outputs": [],
      "payable": false,
      "stateMutability": "nonpayable",
      "type": "function"
    },
    {
      "constant": false,
      "inputs": [
        {
          "name": "_tokenContract",
          "type": "address"
        }
      ],
      "name": "reclaimERC20",
      "outputs": [],
      "payable": false,
      "stateMutability": "nonpayable",
      "type": "function"
    },
    {
      "constant": true,
      "inputs": [],
      "name": "OPERATOR",
      "outputs": [
        {
          "name": "",
          "type": "bytes32"
        }
      ],
      "payable": false,
      "stateMutability": "view",
      "type": "function"
    },
    {
      "constant": true,
      "inputs": [],
      "name": "LOCKED",
      "outputs": [
        {
          "name": "",
          "type": "bytes32"
        }
      ],
      "payable": false,
      "stateMutability": "view",
      "type": "function"
    },
    {
      "constant": true,
      "inputs": [],
      "name": "maxHolderCount",
      "outputs": [
        {
          "name": "",
          "type": "uint256"
        }
      ],
      "payable": false,
      "stateMutability": "view",
      "type": "function"
    },
    {
      "constant": true,
      "inputs": [],
      "name": "securityToken",
      "outputs": [
        {
          "name": "",
          "type": "address"
        }
      ],
      "payable": false,
      "stateMutability": "view",
      "type": "function"
    },
    {
      "constant": true,
      "inputs": [],
      "name": "factory",
      "outputs": [
        {
          "name": "",
          "type": "address"
        }
      ],
      "payable": false,
      "stateMutability": "view",
      "type": "function"
    },
    {
      "constant": true,
      "inputs": [],
      "name": "getDataStore",
      "outputs": [
        {
          "name": "",
          "type": "address"
        }
      ],
      "payable": false,
      "stateMutability": "view",
      "type": "function"
    },
    {
      "inputs": [
        {
          "name": "_securityToken",
          "type": "address"
        },
        {
          "name": "_polyToken",
          "type": "address"
        }
      ],
      "payable": false,
      "stateMutability": "nonpayable",
      "type": "constructor"
    },
    {
      "anonymous": false,
      "inputs": [
        {
          "indexed": false,
          "name": "_oldHolderCount",
          "type": "uint256"
        },
        {
          "indexed": false,
          "name": "_newHolderCount",
          "type": "uint256"
        }
      ],
      "name": "ModifyHolderCount",
      "type": "event"
    },
    {
      "anonymous": false,
      "inputs": [
        {
          "indexed": false,
          "name": "account",
          "type": "address"
        }
      ],
      "name": "Pause",
      "type": "event"
    },
    {
      "anonymous": false,
      "inputs": [
        {
          "indexed": false,
          "name": "account",
          "type": "address"
        }
      ],
      "name": "Unpause",
      "type": "event"
    },
    {
      "constant": false,
      "inputs": [
        {
          "name": "_from",
          "type": "address"
        },
        {
          "name": "_to",
          "type": "address"
        },
        {
          "name": "_amount",
          "type": "uint256"
        },
        {
          "name": "",
          "type": "bytes"
        }
      ],
      "name": "executeTransfer",
      "outputs": [
        {
          "name": "",
          "type": "uint8"
        }
      ],
      "payable": false,
      "stateMutability": "nonpayable",
      "type": "function"
    },
    {
      "constant": true,
      "inputs": [
        {
          "name": "_from",
          "type": "address"
        },
        {
          "name": "_to",
          "type": "address"
        },
        {
          "name": "_amount",
          "type": "uint256"
        },
        {
          "name": "",
          "type": "bytes"
        }
      ],
      "name": "verifyTransfer",
      "outputs": [
        {
          "name": "",
          "type": "uint8"
        },
        {
          "name": "",
          "type": "bytes32"
        }
      ],
      "payable": false,
      "stateMutability": "view",
      "type": "function"
    },
    {
      "constant": false,
      "inputs": [
        {
          "name": "_maxHolderCount",
          "type": "uint256"
        }
      ],
      "name": "configure",
      "outputs": [],
      "payable": false,
      "stateMutability": "nonpayable",
      "type": "function"
    },
    {
      "constant": false,
      "inputs": [
        {
          "name": "_maxHolderCount",
          "type": "uint256"
        }
      ],
      "name": "changeHolderCount",
      "outputs": [],
      "payable": false,
      "stateMutability": "nonpayable",
      "type": "function"
    },
    {
      "constant": true,
      "inputs": [],
      "name": "getInitFunction",
      "outputs": [
        {
          "name": "",
          "type": "bytes4"
        }
      ],
      "payable": false,
      "stateMutability": "pure",
      "type": "function"
    },
    {
      "constant": true,
      "inputs": [],
      "name": "getPermissions",
      "outputs": [
        {
          "name": "",
          "type": "bytes32[]"
        }
      ],
      "payable": false,
      "stateMutability": "view",
      "type": "function"
    }
  ],
  "bytecode": "0x608060405260038054600160a01b60ff021916905534801561002057600080fd5b506040516040806111bc8339810180604052604081101561004057600080fd5b508051602090910151600280546001600160a01b039384166001600160a01b031991821617909155600180548216331790556003805493909216921691909117905561112b806100916000396000f3fe608060405234801561001057600080fd5b50600436106101375760003560e01c80638456cb59116100b8578063b84dfbd21161007c578063b84dfbd21461031e578063c3a07df614610326578063c45a01551461037e578063ec8cae2314610386578063f1d74b0f146103a3578063fe58265e1461049457610137565b80638456cb59146102d85780638905fd4f146102e0578063983d273714610306578063a1422f691461030e578063ae89a29e1461031657610137565b80633d321731116100ff5780633d321731146101d45780633f4ba83a146102885780635c975abb146102905780636c2f0d53146102ac5780636faa22a5146102b457610137565b80630f144a481461013c5780631613ec9d146101465780631eb25e0a1461016b5780632829e651146101885780632a0acc6a146101cc575b600080fd5b61014461049c565b005b61014e6104d4565b604080516001600160e01b03199092168252519081900360200190f35b6101446004803603602081101561018157600080fd5b50356104e2565b6101ba6004803603606081101561019e57600080fd5b508035906001600160a01b036020820135169060400135610549565b60408051918252519081900360200190f35b6101ba6105ef565b610264600480360360808110156101ea57600080fd5b6001600160a01b0382358116926020810135909116916040820135919081019060808101606082013564010000000081111561022557600080fd5b82018360208201111561023757600080fd5b8035906020019184600183028401116401000000008311171561025957600080fd5b5090925090506105fe565b6040518082600381111561027457fe5b60ff16815260200191505060405180910390f35b610144610692565b6102986106a4565b604080519115158252519081900360200190f35b6101ba6106b4565b6102bc6106c6565b604080516001600160a01b039092168252519081900360200190f35b6101446106d5565b610144600480360360208110156102f657600080fd5b50356001600160a01b03166106e5565b6101ba6108a0565b6101ba6108b2565b6101ba6108c2565b6102bc6108c8565b61032e6108d7565b60408051602080825283518183015283519192839290830191858101910280838360005b8381101561036a578181015183820152602001610352565b505050509050019250505060405180910390f35b6102bc610925565b6101446004803603602081101561039c57600080fd5b5035610934565b610469600480360360808110156103b957600080fd5b6001600160a01b038235811692602081013590911691604082013591908101906080810160608201356401000000008111156103f457600080fd5b82018360208201111561040657600080fd5b8035906020019184600183028401116401000000008311171561042857600080fd5b91908080601f0160208091040260200160405190810160405280939291908181526020018383808284376000920191909152509295506109e1945050505050565b6040518083600381111561047957fe5b60ff1681526020018281526020019250505060405180910390f35b6102bc610bc5565b6104a4610c3e565b6040513390303180156108fc02916000818181858888f193505050501580156104d1573d6000803e3d6000fd5b50565b600160e11b630f592f050290565b6001546001600160a01b031633146105445760408051600160e51b62461bcd02815260206004820152601560248201527f53656e646572206973206e6f7420666163746f72790000000000000000000000604482015290519081900360640190fd5b600055565b6000600160c21b6715539313d0d2d151028414156105e45760025460408051600160e01b6370a082310281526001600160a01b038681166004830152915191909216916370a08231916024808301926020929190829003018186803b1580156105b157600080fd5b505afa1580156105c5573d6000803e3d6000fd5b505050506040513d60208110156105db57600080fd5b505190506105e8565b5060005b9392505050565b600160d91b6420a226a4a70281565b600080610686878787600260009054906101000a90046001600160a01b03166001600160a01b0316631aab9a9f6040518163ffffffff1660e01b815260040160206040518083038186803b15801561065557600080fd5b505afa158015610669573d6000803e3d6000fd5b505050506040513d602081101561067f57600080fd5b5051610d17565b50979650505050505050565b61069a610c3e565b6106a2610e76565b565b600354600160a01b900460ff1681565b600160c21b6715539313d0d2d1510281565b6003546001600160a01b031681565b6106dd610c3e565b6106a2610f1c565b6106ed610c3e565b6001600160a01b03811661074b5760408051600160e51b62461bcd02815260206004820152600f60248201527f496e76616c696420616464726573730000000000000000000000000000000000604482015290519081900360640190fd5b60408051600160e01b6370a08231028152306004820152905182916000916001600160a01b038416916370a08231916024808301926020929190829003018186803b15801561079957600080fd5b505afa1580156107ad573d6000803e3d6000fd5b505050506040513d60208110156107c357600080fd5b505160408051600160e01b63a9059cbb0281523360048201526024810183905290519192506001600160a01b0384169163a9059cbb916044808201926020929091908290030181600087803b15801561081b57600080fd5b505af115801561082f573d6000803e3d6000fd5b505050506040513d602081101561084557600080fd5b505161089b5760408051600160e51b62461bcd02815260206004820152600f60248201527f5472616e73666572206661696c65640000000000000000000000000000000000604482015290519081900360640190fd5b505050565b600160c11b6727a822a920aa27a90281565b600160d21b651313d0d2d1510281565b60005481565b6002546001600160a01b031681565b60408051600180825281830190925260609182919060208083019080388339019050509050600160d91b6420a226a4a7028160008151811061091557fe5b6020908102919091010152905090565b6001546001600160a01b031681565b600160d91b6420a226a4a70261094a8133610fc9565b61099e5760408051600160e51b62461bcd02815260206004820152601260248201527f496e76616c6964207065726d697373696f6e0000000000000000000000000000604482015290519081900360640190fd5b600054604080519182526020820184905280517f99457ea455e79a3ce66ecbb56191a2ec1f39507fdb6ec11d0497aaa9668c26249281900390910190a150600055565b6000806000600260009054906101000a90046001600160a01b03166001600160a01b0316631aab9a9f6040518163ffffffff1660e01b815260040160206040518083038186803b158015610a3457600080fd5b505afa158015610a48573d6000803e3d6000fd5b505050506040513d6020811015610a5e57600080fd5b505190508415801590610a835750856001600160a01b0316876001600160a01b031614155b15610baa576001600160a01b03861615801590610b19575060025460408051600160e01b6370a082310281526001600160a01b038981166004830152915191909216916370a08231916024808301926020929190829003018186803b158015610aeb57600080fd5b505afa158015610aff573d6000803e3d6000fd5b505050506040513d6020811015610b1557600080fd5b5051155b15610b22576001015b60025460408051600160e01b6370a082310281526001600160a01b038a81166004830152915191909216916370a08231916024808301926020929190829003018186803b158015610b7257600080fd5b505afa158015610b86573d6000803e3d6000fd5b505050506040513d6020811015610b9c57600080fd5b5051851415610baa57600019015b610bb687878784610d17565b92509250505b94509492505050565b60025460408051600160e01b63660d0d6702815290516000926001600160a01b03169163660d0d67916004808301926020929190829003018186803b158015610c0d57600080fd5b505afa158015610c21573d6000803e3d6000fd5b505050506040513d6020811015610c3757600080fd5b5051905090565b600260009054906101000a90046001600160a01b03166001600160a01b0316638da5cb5b6040518163ffffffff1660e01b815260040160206040518083038186803b158015610c8c57600080fd5b505afa158015610ca0573d6000803e3d6000fd5b505050506040513d6020811015610cb657600080fd5b50516001600160a01b031633146106a25760408051600160e51b62461bcd02815260206004820152601360248201527f53656e646572206973206e6f74206f776e657200000000000000000000000000604482015290519081900360640190fd5b6003546000908190600160a01b900460ff16610e6757826000541015610e5b5760025460408051600160e01b6370a082310281526001600160a01b038881166004830152915191909216916370a08231916024808301926020929190829003018186803b158015610d8757600080fd5b505afa158015610d9b573d6000803e3d6000fd5b505050506040513d6020811015610db157600080fd5b5051151580610e3c575060025460408051600160e01b6370a082310281526001600160a01b0389811660048301529151879392909216916370a0823191602480820192602092909190829003018186803b158015610e0e57600080fd5b505afa158015610e22573d6000803e3d6000fd5b505050506040513d6020811015610e3857600080fd5b5051145b15610e4d5750600190506000610bbc565b50600090503060601b610bbc565b50600190506000610bbc565b50600195600095509350505050565b600354600160a01b900460ff16610ed75760408051600160e51b62461bcd02815260206004820152601660248201527f436f6e7472616374206973206e6f742070617573656400000000000000000000604482015290519081900360640190fd5b60038054600160a01b60ff02191690556040805133815290517faeb196d352664784d1900b0e7414a8face7d29f4dae8c4b0cf68ed477423bbf49181900360200190a1565b600354600160a01b900460ff1615610f7e5760408051600160e51b62461bcd02815260206004820152601260248201527f436f6e7472616374206973207061757365640000000000000000000000000000604482015290519081900360640190fd5b60038054600160a01b60ff021916600160a01b1790556040805133815290517f5ee71a369c8672edded508e624ffc9257fa1ae6886ef32905c18e60196bca3999181900360200190a1565b600080600260009054906101000a90046001600160a01b03166001600160a01b0316638da5cb5b6040518163ffffffff1660e01b815260040160206040518083038186803b15801561101a57600080fd5b505afa15801561102e573d6000803e3d6000fd5b505050506040513d602081101561104457600080fd5b50516001546001600160a01b0385811692811683149350161481806110665750805b806110f6575060025460408051600160e01b638658b8b90281526001600160a01b0387811660048301523060248301526044820189905291519190921691638658b8b9916064808301926020929190829003018186803b1580156110c957600080fd5b505afa1580156110dd573d6000803e3d6000fd5b505050506040513d60208110156110f357600080fd5b50515b9594505050505056fea165627a7a723058201ab0120f9a0ba02eb4a9670116ec56505d66c5f9cf81519feea0a1931d0a137b0029",
  "source": "pragma solidity 0.5.8;\r\n\r\nimport \"../TransferManager.sol\";\r\nimport \"./CountTransferManagerStorage.sol\";\r\nimport \"../../../interfaces/ISecurityToken.sol\";\r\n\r\n/**\r\n * @title Transfer Manager for limiting maximum number of token holders\r\n */\r\ncontract CountTransferManager is CountTransferManagerStorage, TransferManager {\r\n\r\n    event ModifyHolderCount(uint256 _oldHolderCount, uint256 _newHolderCount);\r\n\r\n    /**\r\n     * @notice Constructor\r\n     * @param _securityToken Address of the security token\r\n     */\r\n    constructor(address _securityToken, address _polyToken) public Module(_securityToken, _polyToken) {\r\n\r\n    }\r\n\r\n    /** @notice Used to verify the transfer transaction and prevent a transfer if it passes the allowed amount of token holders\r\n     * @param _from Address of the sender\r\n     * @param _to Address of the receiver\r\n     * @param _amount Amount to send\r\n     */\r\n    function executeTransfer(\r\n        address _from,\r\n        address _to,\r\n        uint256 _amount,\r\n        bytes calldata /*_data*/\r\n    )\r\n        external\r\n        returns(Result)\r\n    {\r\n        (Result success, ) = _verifyTransfer(_from, _to, _amount, securityToken.holderCount());\r\n        return success;\r\n    }\r\n\r\n    /**\r\n     * @notice Used to verify the transfer transaction and prevent a transfer if it passes the allowed amount of token holders\r\n     * @dev module.verifyTransfer is called by SecToken.canTransfer and does not receive the updated holderCount therefore\r\n     *      verifyTransfer has to manually account for pot. tokenholder changes (by mimicking TokenLib.adjustInvestorCount).\r\n     *      module.executeTransfer is called by SecToken.transfer|issue|others and receives an updated holderCount \r\n     *      as sectoken calls TokenLib.adjustInvestorCount before executeTransfer.\r\n     * @param _from Address of the sender\r\n     * @param _to Address of the receiver\r\n     * @param _amount Amount to send\r\n     */\r\n    function verifyTransfer(\r\n        address _from,\r\n        address _to,\r\n        uint256 _amount,\r\n        bytes memory /* _data */\r\n    )\r\n        public\r\n        view\r\n        returns(Result, bytes32)\r\n    {\r\n        uint256 holderCount = securityToken.holderCount();\r\n        if (_amount != 0 && _from != _to) {\r\n            // Check whether receiver is a new token holder\r\n            if (_to != address(0) && securityToken.balanceOf(_to) == 0) {\r\n                holderCount++;\r\n            }\r\n            // Check whether sender is moving all of their tokens\r\n            if (_amount == securityToken.balanceOf(_from)) {\r\n                holderCount--;\r\n            }\r\n        }\r\n\r\n        return _verifyTransfer(_from, _to, _amount, holderCount);\r\n    }\r\n\r\n    function _verifyTransfer(\r\n        address _from,\r\n        address _to,\r\n        uint256 _amount,\r\n        uint256 _holderCount\r\n    )\r\n        internal\r\n        view\r\n        returns(Result, bytes32)\r\n    {\r\n        if (!paused) {\r\n            if (maxHolderCount < _holderCount) {\r\n                // Allow transfers to existing maxHolders\r\n                if (securityToken.balanceOf(_to) != 0 || securityToken.balanceOf(_from) == _amount) {\r\n                    return (Result.NA, bytes32(0));\r\n                }\r\n                return (Result.INVALID, bytes32(uint256(address(this)) << 96));\r\n            }\r\n            return (Result.NA, bytes32(0));\r\n        }\r\n        return (Result.NA, bytes32(0));\r\n    }\r\n\r\n\r\n    /**\r\n     * @notice Used to initialize the variables of the contract\r\n     * @param _maxHolderCount Maximum no. of holders this module allows the SecurityToken to have\r\n     */\r\n    function configure(uint256 _maxHolderCount) public onlyFactory {\r\n        maxHolderCount = _maxHolderCount;\r\n    }\r\n\r\n    /**\r\n    * @notice Sets the cap for the amount of token holders there can be\r\n    * @param _maxHolderCount is the new maximum amount of token holders\r\n    */\r\n    function changeHolderCount(uint256 _maxHolderCount) public withPerm(ADMIN) {\r\n        emit ModifyHolderCount(maxHolderCount, _maxHolderCount);\r\n        maxHolderCount = _maxHolderCount;\r\n    }\r\n\r\n    /**\r\n     * @notice This function returns the signature of configure function\r\n     */\r\n    function getInitFunction() public pure returns(bytes4) {\r\n        return this.configure.selector;\r\n    }\r\n\r\n    /**\r\n     * @notice Returns the permissions flag that are associated with CountTransferManager\r\n     */\r\n    function getPermissions() public view returns(bytes32[] memory) {\r\n        bytes32[] memory allPermissions = new bytes32[](1);\r\n        allPermissions[0] = ADMIN;\r\n        return allPermissions;\r\n    }\r\n\r\n}\r\n",
  "sourcePath": "C:\\mspace\\polymath-core\\contracts\\modules\\TransferManager\\CTM\\CountTransferManager.sol",
  "compiler": {
    "name": "solc",
    "version": "0.5.8+commit.23d335f2.Emscripten.clang"
  },
  "schemaVersion": "3.0.11",
  "updatedAt": "2019-08-05T22:53:44.681Z",
  "devdoc": {
    "methods": {
      "changeHolderCount(uint256)": {
        "params": {
          "_maxHolderCount": "is the new maximum amount of token holders\r"
        }
      },
      "configure(uint256)": {
        "params": {
          "_maxHolderCount": "Maximum no. of holders this module allows the SecurityToken to have\r"
        }
      },
      "constructor": {
        "params": {
          "_securityToken": "Address of the security token\r"
        }
      },
      "executeTransfer(address,address,uint256,bytes)": {
        "params": {
          "_amount": "Amount to send\r",
          "_from": "Address of the sender\r",
          "_to": "Address of the receiver\r"
        }
      },
      "getTokensByPartition(bytes32,address,uint256)": {
        "details": "returning the balance of token holder against the UNLOCKED partition. \r This condition is valid only when the base contract doesn't implement the\r `getTokensByPartition()` function.  \r"
      },
      "reclaimERC20(address)": {
        "details": "We duplicate here due to the overriden owner & onlyOwner\r",
        "params": {
          "_tokenContract": "The address of the token contract\r"
        }
      },
      "reclaimETH()": {
        "details": "We duplicate here due to the overriden owner & onlyOwner\r"
      },
      "verifyTransfer(address,address,uint256,bytes)": {
        "details": "module.verifyTransfer is called by SecToken.canTransfer and does not receive the updated holderCount therefore\r     verifyTransfer has to manually account for pot. tokenholder changes (by mimicking TokenLib.adjustInvestorCount).\r     module.executeTransfer is called by SecToken.transfer|issue|others and receives an updated holderCount \r     as sectoken calls TokenLib.adjustInvestorCount before executeTransfer.\r",
        "params": {
          "_amount": "Amount to send\r",
          "_from": "Address of the sender\r",
          "_to": "Address of the receiver\r"
        }
      }
    },
    "title": "Transfer Manager for limiting maximum number of token holders\r"
  },
  "userdoc": {
    "methods": {
      "changeHolderCount(uint256)": {
        "notice": "Sets the cap for the amount of token holders there can be\r"
      },
      "configure(uint256)": {
        "notice": "Used to initialize the variables of the contract\r"
      },
      "constructor": "Constructor\r",
      "executeTransfer(address,address,uint256,bytes)": {
        "notice": "Used to verify the transfer transaction and prevent a transfer if it passes the allowed amount of token holders\r"
      },
      "getDataStore()": {
        "notice": "used to return the data store address of securityToken\r"
      },
      "getInitFunction()": {
        "notice": "This function returns the signature of configure function\r"
      },
      "getPermissions()": {
        "notice": "Returns the permissions flag that are associated with CountTransferManager\r"
      },
      "getTokensByPartition(bytes32,address,uint256)": {
        "notice": "return the amount of tokens for a given user as per the partition\r"
      },
      "pause()": {
        "notice": "Pause (overridden function)\r"
      },
      "reclaimERC20(address)": {
        "notice": "Reclaims ERC20Basic compatible tokens\r"
      },
      "reclaimETH()": {
        "notice": "Reclaims ETH\r"
      },
      "unpause()": {
        "notice": "Unpause (overridden function)\r"
      },
      "verifyTransfer(address,address,uint256,bytes)": {
        "notice": "Used to verify the transfer transaction and prevent a transfer if it passes the allowed amount of token holders\r"
      }
    }
  }
}