{
  "contractName": "CountTransferManagerStorage",
  "abi": [
    {
      "constant": true,
      "inputs": [],
      "name": "maxHolderCount",
      "outputs": [
        {
          "name": "",
          "type": "uint256"
        }
      ],
      "payable": false,
      "stateMutability": "view",
      "type": "function"
    }
  ],
  "bytecode": "0x6080604052348015600f57600080fd5b5060778061001e6000396000f3fe6080604052348015600f57600080fd5b506004361060285760003560e01c8063ae89a29e14602d575b600080fd5b60336045565b60408051918252519081900360200190f35b6000548156fea165627a7a723058209c433bad1e5817dac5b2248bf55fd01db07020a76f75705d9a7066fda26564160029",
  "source": "pragma solidity 0.5.8;\r\n\r\n/**\r\n * @title Contract used to store layout for the CountTransferManager storage\r\n */\r\ncontract CountTransferManagerStorage {\r\n\r\n    // The maximum number of concurrent token holders\r\n    uint256 public maxHolderCount;\r\n\r\n}\r\n",
  "sourcePath": "C:\\mspace\\polymath-core\\contracts\\modules\\TransferManager\\CTM\\CountTransferManagerStorage.sol",
  "compiler": {
    "name": "solc",
    "version": "0.5.8+commit.23d335f2.Emscripten.clang"
  },
  "schemaVersion": "3.0.11",
  "updatedAt": "2019-08-05T22:52:46.858Z",
  "devdoc": {
    "methods": {},
    "title": "Contract used to store layout for the CountTransferManager storage\r"
  },
  "userdoc": {
    "methods": {}
  }
}