{
  "contractName": "DataStoreFactory",
  "abi": [
    {
      "constant": true,
      "inputs": [],
      "name": "implementation",
      "outputs": [
        {
          "name": "",
          "type": "address"
        }
      ],
      "payable": false,
      "stateMutability": "view",
      "type": "function"
    },
    {
      "inputs": [
        {
          "name": "_implementation",
          "type": "address"
        }
      ],
      "payable": false,
      "stateMutability": "nonpayable",
      "type": "constructor"
    },
    {
      "constant": false,
      "inputs": [
        {
          "name": "_securityToken",
          "type": "address"
        }
      ],
      "name": "generateDataStore",
      "outputs": [
        {
          "name": "",
          "type": "address"
        }
      ],
      "payable": false,
      "stateMutability": "nonpayable",
      "type": "function"
    }
  ],
  "bytecode": "0x608060405234801561001057600080fd5b506040516020806103ca8339810180604052602081101561003057600080fd5b50516001600160a01b0381166100a757604080517f08c379a000000000000000000000000000000000000000000000000000000000815260206004820152601860248201527f416464726573732073686f756c64206e6f742062652030780000000000000000604482015290519081900360640190fd5b600080546001600160a01b039092166001600160a01b03199092169190911790556102f3806100d76000396000f3fe608060405234801561001057600080fd5b50600436106100365760003560e01c80635c60da1b1461003b5780639422866c1461005f575b600080fd5b610043610085565b604080516001600160a01b039092168252519081900360200190f35b6100436004803603602081101561007557600080fd5b50356001600160a01b0316610094565b6000546001600160a01b031681565b60008054604051829184916001600160a01b03909116906100b4906100ef565b6001600160a01b03928316815291166020820152604080519182900301906000f0801580156100e7573d6000803e3d6000fd5b509392505050565b6101cb806100fd8339019056fe608060405234801561001057600080fd5b506040516040806101cb8339810180604052604081101561003057600080fd5b5080516020909101516001600160a01b0381161580159061005957506001600160a01b03821615155b6100c457604080517f08c379a000000000000000000000000000000000000000000000000000000000815260206004820152601860248201527f416464726573732073686f756c64206e6f742062652030780000000000000000604482015290519081900360640190fd5b600180546001600160a01b039384166001600160a01b0319918216179091556000805492909316911617905560cd806100fe6000396000f3fe608060405260043610601c5760003560e01c8063b84dfbd2146024575b60226052565b005b348015602f57600080fd5b5060366060565b604080516001600160a01b039092168252519081900360200190f35b605e605a606f565b607e565b565b6001546001600160a01b031681565b6000546001600160a01b031690565b3660008037600080366000845af43d6000803e808015609c573d6000f35b3d6000fdfea165627a7a7230582059b065f219c7f530b6015ddab3d9c8324cbd811ddf10cf64550816db06737f1b0029a165627a7a723058202746446b8572436a44a55a4db6ea41fb3397fec065d1e053a1fc775a59e4c60b0029",
  "source": "pragma solidity 0.5.8;\r\n\r\nimport \"./DataStoreProxy.sol\";\r\n\r\ncontract DataStoreFactory {\r\n\r\n    address public implementation;\r\n\r\n    constructor(address _implementation) public {\r\n        require(_implementation != address(0), \"Address should not be 0x\");\r\n        implementation = _implementation;\r\n    }\r\n\r\n    function generateDataStore(address _securityToken) public returns (address) {\r\n        DataStoreProxy dsProxy = new DataStoreProxy(_securityToken, implementation);\r\n        return address(dsProxy);\r\n    }\r\n}\r\n",
  "sourcePath": "C:\\mspace\\polymath-core\\contracts\\datastore\\DataStoreFactory.sol",
  "compiler": {
    "name": "solc",
    "version": "0.5.8+commit.23d335f2.Emscripten.clang"
  },
  "schemaVersion": "3.0.11",
  "updatedAt": "2019-08-05T22:53:45.044Z",
  "devdoc": {
    "methods": {}
  },
  "userdoc": {
    "methods": {}
  }
}