{
  "contractName": "DataStoreProxy",
  "abi": [
    {
      "constant": true,
      "inputs": [],
      "name": "securityToken",
      "outputs": [
        {
          "name": "",
          "type": "address"
        }
      ],
      "payable": false,
      "stateMutability": "view",
      "type": "function"
    },
    {
      "inputs": [
        {
          "name": "_securityToken",
          "type": "address"
        },
        {
          "name": "_implementation",
          "type": "address"
        }
      ],
      "payable": false,
      "stateMutability": "nonpayable",
      "type": "constructor"
    },
    {
      "payable": true,
      "stateMutability": "payable",
      "type": "fallback"
    }
  ],
  "bytecode": "0x608060405234801561001057600080fd5b506040516040806101cb8339810180604052604081101561003057600080fd5b5080516020909101516001600160a01b0381161580159061005957506001600160a01b03821615155b6100c457604080517f08c379a000000000000000000000000000000000000000000000000000000000815260206004820152601860248201527f416464726573732073686f756c64206e6f742062652030780000000000000000604482015290519081900360640190fd5b600180546001600160a01b039384166001600160a01b0319918216179091556000805492909316911617905560cd806100fe6000396000f3fe608060405260043610601c5760003560e01c8063b84dfbd2146024575b60226052565b005b348015602f57600080fd5b5060366060565b604080516001600160a01b039092168252519081900360200190f35b605e605a606f565b607e565b565b6001546001600160a01b031681565b6000546001600160a01b031690565b3660008037600080366000845af43d6000803e808015609c573d6000f35b3d6000fdfea165627a7a7230582059b065f219c7f530b6015ddab3d9c8324cbd811ddf10cf64550816db06737f1b0029",
  "source": "pragma solidity 0.5.8;\r\n\r\nimport \"../proxy/Proxy.sol\";\r\nimport \"./DataStoreStorage.sol\";\r\n\r\n/**\r\n * @title DataStoreProxy Proxy\r\n */\r\ncontract DataStoreProxy is DataStoreStorage, Proxy {\r\n\r\n    /**\r\n    * @notice Constructor\r\n    * @param _securityToken Address of the security token\r\n    * @param _implementation representing the address of the new implementation to be set\r\n    */\r\n    constructor(\r\n        address _securityToken,\r\n        address _implementation\r\n    )\r\n        public\r\n    {\r\n        require(_implementation != address(0) && _securityToken != address(0),\r\n            \"Address should not be 0x\"\r\n        );\r\n        securityToken = ISecurityToken(_securityToken);\r\n        __implementation = _implementation;\r\n    }\r\n\r\n    /**\r\n    * @notice Internal function to provide the address of the implementation contract\r\n    */\r\n    function _implementation() internal view returns(address) {\r\n        return __implementation;\r\n    }\r\n\r\n}\r\n",
  "sourcePath": "C:\\mspace\\polymath-core\\contracts\\datastore\\DataStoreProxy.sol",
  "compiler": {
    "name": "solc",
    "version": "0.5.8+commit.23d335f2.Emscripten.clang"
  },
  "schemaVersion": "3.0.11",
  "updatedAt": "2019-08-05T22:52:45.899Z",
  "devdoc": {
    "methods": {
      "constructor": {
        "params": {
          "_implementation": "representing the address of the new implementation to be set\r",
          "_securityToken": "Address of the security token\r"
        }
      }
    },
    "title": "DataStoreProxy Proxy\r"
  },
  "userdoc": {
    "methods": {
      "constructor": "Constructor\r"
    }
  }
}