{
  "contractName": "DataStoreStorage",
  "abi": [
    {
      "constant": true,
      "inputs": [],
      "name": "securityToken",
      "outputs": [
        {
          "name": "",
          "type": "address"
        }
      ],
      "payable": false,
      "stateMutability": "view",
      "type": "function"
    }
  ],
  "bytecode": "0x6080604052348015600f57600080fd5b50608a8061001e6000396000f3fe6080604052348015600f57600080fd5b506004361060285760003560e01c8063b84dfbd214602d575b600080fd5b6033604f565b604080516001600160a01b039092168252519081900360200190f35b6001546001600160a01b03168156fea165627a7a72305820d2533eccaa15c9db4f837386e4a91626a2fd3c83afcfc3f2a650d4c00dd228fc0029",
  "source": "pragma solidity 0.5.8;\r\n\r\nimport \"../interfaces/ISecurityToken.sol\";\r\n\r\ncontract DataStoreStorage {\r\n    // Address of the current implementation\r\n    address internal __implementation;\r\n\r\n    ISecurityToken public securityToken;\r\n\r\n    mapping (bytes32 => uint256) internal uintData;\r\n    mapping (bytes32 => bytes32) internal bytes32Data;\r\n    mapping (bytes32 => address) internal addressData;\r\n    mapping (bytes32 => string) internal stringData;\r\n    mapping (bytes32 => bytes) internal bytesData;\r\n    mapping (bytes32 => bool) internal boolData;\r\n    mapping (bytes32 => uint256[]) internal uintArrayData;\r\n    mapping (bytes32 => bytes32[]) internal bytes32ArrayData;\r\n    mapping (bytes32 => address[]) internal addressArrayData;\r\n    mapping (bytes32 => bool[]) internal boolArrayData;\r\n\r\n    uint8 internal constant DATA_KEY = 6;\r\n    bytes32 internal constant MANAGEDATA = \"MANAGEDATA\";\r\n}\r\n",
  "sourcePath": "C:\\mspace\\polymath-core\\contracts\\datastore\\DataStoreStorage.sol",
  "compiler": {
    "name": "solc",
    "version": "0.5.8+commit.23d335f2.Emscripten.clang"
  },
  "schemaVersion": "3.0.11",
  "updatedAt": "2019-08-05T22:52:45.900Z",
  "devdoc": {
    "methods": {}
  },
  "userdoc": {
    "methods": {}
  }
}