{
  "contractName": "DataStore",
  "abi": [
    {
      "constant": true,
      "inputs": [],
      "name": "securityToken",
      "outputs": [
        {
          "name": "",
          "type": "address"
        }
      ],
      "payable": false,
      "stateMutability": "view",
      "type": "function"
    },
    {
      "anonymous": false,
      "inputs": [
        {
          "indexed": true,
          "name": "_oldSecurityToken",
          "type": "address"
        },
        {
          "indexed": true,
          "name": "_newSecurityToken",
          "type": "address"
        }
      ],
      "name": "SecurityTokenChanged",
      "type": "event"
    },
    {
      "constant": false,
      "inputs": [
        {
          "name": "_securityToken",
          "type": "address"
        }
      ],
      "name": "setSecurityToken",
      "outputs": [],
      "payable": false,
      "stateMutability": "nonpayable",
      "type": "function"
    },
    {
      "constant": false,
      "inputs": [
        {
          "name": "_key",
          "type": "bytes32"
        },
        {
          "name": "_data",
          "type": "uint256"
        }
      ],
      "name": "setUint256",
      "outputs": [],
      "payable": false,
      "stateMutability": "nonpayable",
      "type": "function"
    },
    {
      "constant": false,
      "inputs": [
        {
          "name": "_key",
          "type": "bytes32"
        },
        {
          "name": "_data",
          "type": "bytes32"
        }
      ],
      "name": "setBytes32",
      "outputs": [],
      "payable": false,
      "stateMutability": "nonpayable",
      "type": "function"
    },
    {
      "constant": false,
      "inputs": [
        {
          "name": "_key",
          "type": "bytes32"
        },
        {
          "name": "_data",
          "type": "address"
        }
      ],
      "name": "setAddress",
      "outputs": [],
      "payable": false,
      "stateMutability": "nonpayable",
      "type": "function"
    },
    {
      "constant": false,
      "inputs": [
        {
          "name": "_key",
          "type": "bytes32"
        },
        {
          "name": "_data",
          "type": "bool"
        }
      ],
      "name": "setBool",
      "outputs": [],
      "payable": false,
      "stateMutability": "nonpayable",
      "type": "function"
    },
    {
      "constant": false,
      "inputs": [
        {
          "name": "_key",
          "type": "bytes32"
        },
        {
          "name": "_data",
          "type": "string"
        }
      ],
      "name": "setString",
      "outputs": [],
      "payable": false,
      "stateMutability": "nonpayable",
      "type": "function"
    },
    {
      "constant": false,
      "inputs": [
        {
          "name": "_key",
          "type": "bytes32"
        },
        {
          "name": "_data",
          "type": "bytes"
        }
      ],
      "name": "setBytes",
      "outputs": [],
      "payable": false,
      "stateMutability": "nonpayable",
      "type": "function"
    },
    {
      "constant": false,
      "inputs": [
        {
          "name": "_key",
          "type": "bytes32"
        },
        {
          "name": "_data",
          "type": "uint256[]"
        }
      ],
      "name": "setUint256Array",
      "outputs": [],
      "payable": false,
      "stateMutability": "nonpayable",
      "type": "function"
    },
    {
      "constant": false,
      "inputs": [
        {
          "name": "_key",
          "type": "bytes32"
        },
        {
          "name": "_data",
          "type": "bytes32[]"
        }
      ],
      "name": "setBytes32Array",
      "outputs": [],
      "payable": false,
      "stateMutability": "nonpayable",
      "type": "function"
    },
    {
      "constant": false,
      "inputs": [
        {
          "name": "_key",
          "type": "bytes32"
        },
        {
          "name": "_data",
          "type": "address[]"
        }
      ],
      "name": "setAddressArray",
      "outputs": [],
      "payable": false,
      "stateMutability": "nonpayable",
      "type": "function"
    },
    {
      "constant": false,
      "inputs": [
        {
          "name": "_key",
          "type": "bytes32"
        },
        {
          "name": "_data",
          "type": "bool[]"
        }
      ],
      "name": "setBoolArray",
      "outputs": [],
      "payable": false,
      "stateMutability": "nonpayable",
      "type": "function"
    },
    {
      "constant": false,
      "inputs": [
        {
          "name": "_key",
          "type": "bytes32"
        },
        {
          "name": "_data",
          "type": "uint256"
        }
      ],
      "name": "insertUint256",
      "outputs": [],
      "payable": false,
      "stateMutability": "nonpayable",
      "type": "function"
    },
    {
      "constant": false,
      "inputs": [
        {
          "name": "_key",
          "type": "bytes32"
        },
        {
          "name": "_data",
          "type": "bytes32"
        }
      ],
      "name": "insertBytes32",
      "outputs": [],
      "payable": false,
      "stateMutability": "nonpayable",
      "type": "function"
    },
    {
      "constant": false,
      "inputs": [
        {
          "name": "_key",
          "type": "bytes32"
        },
        {
          "name": "_data",
          "type": "address"
        }
      ],
      "name": "insertAddress",
      "outputs": [],
      "payable": false,
      "stateMutability": "nonpayable",
      "type": "function"
    },
    {
      "constant": false,
      "inputs": [
        {
          "name": "_key",
          "type": "bytes32"
        },
        {
          "name": "_data",
          "type": "bool"
        }
      ],
      "name": "insertBool",
      "outputs": [],
      "payable": false,
      "stateMutability": "nonpayable",
      "type": "function"
    },
    {
      "constant": false,
      "inputs": [
        {
          "name": "_key",
          "type": "bytes32"
        },
        {
          "name": "_index",
          "type": "uint256"
        }
      ],
      "name": "deleteUint256",
      "outputs": [],
      "payable": false,
      "stateMutability": "nonpayable",
      "type": "function"
    },
    {
      "constant": false,
      "inputs": [
        {
          "name": "_key",
          "type": "bytes32"
        },
        {
          "name": "_index",
          "type": "uint256"
        }
      ],
      "name": "deleteBytes32",
      "outputs": [],
      "payable": false,
      "stateMutability": "nonpayable",
      "type": "function"
    },
    {
      "constant": false,
      "inputs": [
        {
          "name": "_key",
          "type": "bytes32"
        },
        {
          "name": "_index",
          "type": "uint256"
        }
      ],
      "name": "deleteAddress",
      "outputs": [],
      "payable": false,
      "stateMutability": "nonpayable",
      "type": "function"
    },
    {
      "constant": false,
      "inputs": [
        {
          "name": "_key",
          "type": "bytes32"
        },
        {
          "name": "_index",
          "type": "uint256"
        }
      ],
      "name": "deleteBool",
      "outputs": [],
      "payable": false,
      "stateMutability": "nonpayable",
      "type": "function"
    },
    {
      "constant": false,
      "inputs": [
        {
          "name": "_keys",
          "type": "bytes32[]"
        },
        {
          "name": "_data",
          "type": "uint256[]"
        }
      ],
      "name": "setUint256Multi",
      "outputs": [],
      "payable": false,
      "stateMutability": "nonpayable",
      "type": "function"
    },
    {
      "constant": false,
      "inputs": [
        {
          "name": "_keys",
          "type": "bytes32[]"
        },
        {
          "name": "_data",
          "type": "bytes32[]"
        }
      ],
      "name": "setBytes32Multi",
      "outputs": [],
      "payable": false,
      "stateMutability": "nonpayable",
      "type": "function"
    },
    {
      "constant": false,
      "inputs": [
        {
          "name": "_keys",
          "type": "bytes32[]"
        },
        {
          "name": "_data",
          "type": "address[]"
        }
      ],
      "name": "setAddressMulti",
      "outputs": [],
      "payable": false,
      "stateMutability": "nonpayable",
      "type": "function"
    },
    {
      "constant": false,
      "inputs": [
        {
          "name": "_keys",
          "type": "bytes32[]"
        },
        {
          "name": "_data",
          "type": "bool[]"
        }
      ],
      "name": "setBoolMulti",
      "outputs": [],
      "payable": false,
      "stateMutability": "nonpayable",
      "type": "function"
    },
    {
      "constant": false,
      "inputs": [
        {
          "name": "_keys",
          "type": "bytes32[]"
        },
        {
          "name": "_data",
          "type": "uint256[]"
        }
      ],
      "name": "insertUint256Multi",
      "outputs": [],
      "payable": false,
      "stateMutability": "nonpayable",
      "type": "function"
    },
    {
      "constant": false,
      "inputs": [
        {
          "name": "_keys",
          "type": "bytes32[]"
        },
        {
          "name": "_data",
          "type": "bytes32[]"
        }
      ],
      "name": "insertBytes32Multi",
      "outputs": [],
      "payable": false,
      "stateMutability": "nonpayable",
      "type": "function"
    },
    {
      "constant": false,
      "inputs": [
        {
          "name": "_keys",
          "type": "bytes32[]"
        },
        {
          "name": "_data",
          "type": "address[]"
        }
      ],
      "name": "insertAddressMulti",
      "outputs": [],
      "payable": false,
      "stateMutability": "nonpayable",
      "type": "function"
    },
    {
      "constant": false,
      "inputs": [
        {
          "name": "_keys",
          "type": "bytes32[]"
        },
        {
          "name": "_data",
          "type": "bool[]"
        }
      ],
      "name": "insertBoolMulti",
      "outputs": [],
      "payable": false,
      "stateMutability": "nonpayable",
      "type": "function"
    },
    {
      "constant": true,
      "inputs": [
        {
          "name": "_key",
          "type": "bytes32"
        }
      ],
      "name": "getUint256",
      "outputs": [
        {
          "name": "",
          "type": "uint256"
        }
      ],
      "payable": false,
      "stateMutability": "view",
      "type": "function"
    },
    {
      "constant": true,
      "inputs": [
        {
          "name": "_key",
          "type": "bytes32"
        }
      ],
      "name": "getBytes32",
      "outputs": [
        {
          "name": "",
          "type": "bytes32"
        }
      ],
      "payable": false,
      "stateMutability": "view",
      "type": "function"
    },
    {
      "constant": true,
      "inputs": [
        {
          "name": "_key",
          "type": "bytes32"
        }
      ],
      "name": "getAddress",
      "outputs": [
        {
          "name": "",
          "type": "address"
        }
      ],
      "payable": false,
      "stateMutability": "view",
      "type": "function"
    },
    {
      "constant": true,
      "inputs": [
        {
          "name": "_key",
          "type": "bytes32"
        }
      ],
      "name": "getString",
      "outputs": [
        {
          "name": "",
          "type": "string"
        }
      ],
      "payable": false,
      "stateMutability": "view",
      "type": "function"
    },
    {
      "constant": true,
      "inputs": [
        {
          "name": "_key",
          "type": "bytes32"
        }
      ],
      "name": "getBytes",
      "outputs": [
        {
          "name": "",
          "type": "bytes"
        }
      ],
      "payable": false,
      "stateMutability": "view",
      "type": "function"
    },
    {
      "constant": true,
      "inputs": [
        {
          "name": "_key",
          "type": "bytes32"
        }
      ],
      "name": "getBool",
      "outputs": [
        {
          "name": "",
          "type": "bool"
        }
      ],
      "payable": false,
      "stateMutability": "view",
      "type": "function"
    },
    {
      "constant": true,
      "inputs": [
        {
          "name": "_key",
          "type": "bytes32"
        }
      ],
      "name": "getUint256Array",
      "outputs": [
        {
          "name": "",
          "type": "uint256[]"
        }
      ],
      "payable": false,
      "stateMutability": "view",
      "type": "function"
    },
    {
      "constant": true,
      "inputs": [
        {
          "name": "_key",
          "type": "bytes32"
        }
      ],
      "name": "getBytes32Array",
      "outputs": [
        {
          "name": "",
          "type": "bytes32[]"
        }
      ],
      "payable": false,
      "stateMutability": "view",
      "type": "function"
    },
    {
      "constant": true,
      "inputs": [
        {
          "name": "_key",
          "type": "bytes32"
        }
      ],
      "name": "getAddressArray",
      "outputs": [
        {
          "name": "",
          "type": "address[]"
        }
      ],
      "payable": false,
      "stateMutability": "view",
      "type": "function"
    },
    {
      "constant": true,
      "inputs": [
        {
          "name": "_key",
          "type": "bytes32"
        }
      ],
      "name": "getBoolArray",
      "outputs": [
        {
          "name": "",
          "type": "bool[]"
        }
      ],
      "payable": false,
      "stateMutability": "view",
      "type": "function"
    },
    {
      "constant": true,
      "inputs": [
        {
          "name": "_key",
          "type": "bytes32"
        }
      ],
      "name": "getUint256ArrayLength",
      "outputs": [
        {
          "name": "",
          "type": "uint256"
        }
      ],
      "payable": false,
      "stateMutability": "view",
      "type": "function"
    },
    {
      "constant": true,
      "inputs": [
        {
          "name": "_key",
          "type": "bytes32"
        }
      ],
      "name": "getBytes32ArrayLength",
      "outputs": [
        {
          "name": "",
          "type": "uint256"
        }
      ],
      "payable": false,
      "stateMutability": "view",
      "type": "function"
    },
    {
      "constant": true,
      "inputs": [
        {
          "name": "_key",
          "type": "bytes32"
        }
      ],
      "name": "getAddressArrayLength",
      "outputs": [
        {
          "name": "",
          "type": "uint256"
        }
      ],
      "payable": false,
      "stateMutability": "view",
      "type": "function"
    },
    {
      "constant": true,
      "inputs": [
        {
          "name": "_key",
          "type": "bytes32"
        }
      ],
      "name": "getBoolArrayLength",
      "outputs": [
        {
          "name": "",
          "type": "uint256"
        }
      ],
      "payable": false,
      "stateMutability": "view",
      "type": "function"
    },
    {
      "constant": true,
      "inputs": [
        {
          "name": "_key",
          "type": "bytes32"
        },
        {
          "name": "_index",
          "type": "uint256"
        }
      ],
      "name": "getUint256ArrayElement",
      "outputs": [
        {
          "name": "",
          "type": "uint256"
        }
      ],
      "payable": false,
      "stateMutability": "view",
      "type": "function"
    },
    {
      "constant": true,
      "inputs": [
        {
          "name": "_key",
          "type": "bytes32"
        },
        {
          "name": "_index",
          "type": "uint256"
        }
      ],
      "name": "getBytes32ArrayElement",
      "outputs": [
        {
          "name": "",
          "type": "bytes32"
        }
      ],
      "payable": false,
      "stateMutability": "view",
      "type": "function"
    },
    {
      "constant": true,
      "inputs": [
        {
          "name": "_key",
          "type": "bytes32"
        },
        {
          "name": "_index",
          "type": "uint256"
        }
      ],
      "name": "getAddressArrayElement",
      "outputs": [
        {
          "name": "",
          "type": "address"
        }
      ],
      "payable": false,
      "stateMutability": "view",
      "type": "function"
    },
    {
      "constant": true,
      "inputs": [
        {
          "name": "_key",
          "type": "bytes32"
        },
        {
          "name": "_index",
          "type": "uint256"
        }
      ],
      "name": "getBoolArrayElement",
      "outputs": [
        {
          "name": "",
          "type": "bool"
        }
      ],
      "payable": false,
      "stateMutability": "view",
      "type": "function"
    },
    {
      "constant": true,
      "inputs": [
        {
          "name": "_key",
          "type": "bytes32"
        },
        {
          "name": "_startIndex",
          "type": "uint256"
        },
        {
          "name": "_endIndex",
          "type": "uint256"
        }
      ],
      "name": "getUint256ArrayElements",
      "outputs": [
        {
          "name": "array",
          "type": "uint256[]"
        }
      ],
      "payable": false,
      "stateMutability": "view",
      "type": "function"
    },
    {
      "constant": true,
      "inputs": [
        {
          "name": "_key",
          "type": "bytes32"
        },
        {
          "name": "_startIndex",
          "type": "uint256"
        },
        {
          "name": "_endIndex",
          "type": "uint256"
        }
      ],
      "name": "getBytes32ArrayElements",
      "outputs": [
        {
          "name": "array",
          "type": "bytes32[]"
        }
      ],
      "payable": false,
      "stateMutability": "view",
      "type": "function"
    },
    {
      "constant": true,
      "inputs": [
        {
          "name": "_key",
          "type": "bytes32"
        },
        {
          "name": "_startIndex",
          "type": "uint256"
        },
        {
          "name": "_endIndex",
          "type": "uint256"
        }
      ],
      "name": "getAddressArrayElements",
      "outputs": [
        {
          "name": "array",
          "type": "address[]"
        }
      ],
      "payable": false,
      "stateMutability": "view",
      "type": "function"
    },
    {
      "constant": true,
      "inputs": [
        {
          "name": "_key",
          "type": "bytes32"
        },
        {
          "name": "_startIndex",
          "type": "uint256"
        },
        {
          "name": "_endIndex",
          "type": "uint256"
        }
      ],
      "name": "getBoolArrayElements",
      "outputs": [
        {
          "name": "array",
          "type": "bool[]"
        }
      ],
      "payable": false,
      "stateMutability": "view",
      "type": "function"
    }
  ],
  "bytecode": "0x608060405234801561001057600080fd5b50613243806100206000396000f3fe608060405234801561001057600080fd5b50600436106102d65760003560e01c806381d65b2d11610182578063ca446dd9116100e9578063e7680259116100a2578063ec672cf61161007c578063ec672cf614611290578063eca6cc2e14611305578063f0a1543414611328578063f83280a914611345576102d6565b8063e768025914611021578063eabebce014611144578063eb5e9b3c1461116d576102d6565b8063ca446dd914610f50578063dabc29a914610f7c578063dd03199714610fa1578063dd779dc014610fbe578063e0349ba014610fe1578063e3c652cc14610ffe576102d6565b8063a444d0fa1161013b578063a444d0fa14610da3578063a6ed563e14610ec6578063abfdcced14610ee3578063b84dfbd214610f08578063c031a18014610f10578063c86a1cc614610f2d576102d6565b806381d65b2d14610b5657806388bcd9e514610b82578063986e791a14610ba5578063988f372814610c375780639920f9c214610d5a5780639d84920314610d80576102d6565b8063360ecc82116102415780635c9f5506116101fa5780636ddf8174116101d45780636ddf817414610a7e5780636e89955014610aa15780637ae1cfca14610b165780637db8fa5e14610b33576102d6565b80635c9f5506146108fb57806363a934771461093257806367ee16a114610a55576102d6565b8063360ecc82146106dd578063427f76be1461070057806348893a04146107755780634e91db08146108985780634f3029c2146108bb5780635948f733146108de576102d6565b8063287a151611610293578063287a1516146105615780632e28d0841461058a5780632f392239146105ff5780632fc94ba61461062e57806333598b001461064b57806335d4d40714610668576102d6565b8063079f34e5146102db57806307a7dfee14610354578063116bb9291461037157806318e2d1281461038e57806321f8a721146104b357806326004846146104ec575b600080fd5b610304600480360360608110156102f157600080fd5b5080359060208101359060400135611468565b60408051602080825283518183015283519192839290830191858101910280838360005b83811015610340578181015183820152602001610328565b505050509050019250505060405180910390f35b6103046004803603602081101561036a57600080fd5b5035611518565b6103046004803603602081101561038757600080fd5b503561157a565b6104b1600480360360408110156103a457600080fd5b810190602081018135600160201b8111156103be57600080fd5b8201836020820111156103d057600080fd5b803590602001918460208302840111600160201b831117156103f157600080fd5b9190808060200260200160405190810160405280939291908181526020018383602002808284376000920191909152509295949360208101935035915050600160201b81111561044057600080fd5b82018360208201111561045257600080fd5b803590602001918460208302840111600160201b8311171561047357600080fd5b9190808060200260200160405190810160405280939291908181526020018383602002808284376000920191909152509295506115fa945050505050565b005b6104d0600480360360208110156104c957600080fd5b503561169a565b604080516001600160a01b039092168252519081900360200190f35b6104b16004803603604081101561050257600080fd5b81359190810190604081016020820135600160201b81111561052357600080fd5b82018360208201111561053557600080fd5b803590602001918460208302840111600160201b8311171561055657600080fd5b5090925090506116b5565b6103046004803603606081101561057757600080fd5b50803590602081013590604001356116ff565b6104b1600480360360408110156105a057600080fd5b81359190810190604081016020820135600160201b8111156105c157600080fd5b8201836020820111156105d357600080fd5b803590602001918460018302840111600160201b831117156105f457600080fd5b5090925090506117c0565b61061c6004803603602081101561061557600080fd5b5035611808565b60408051918252519081900360200190f35b61061c6004803603602081101561064457600080fd5b503561181a565b61061c6004803603602081101561066157600080fd5b503561182c565b6104b16004803603604081101561067e57600080fd5b81359190810190604081016020820135600160201b81111561069f57600080fd5b8201836020820111156106b157600080fd5b803590602001918460208302840111600160201b831117156106d257600080fd5b50909250905061183e565b6104b1600480360360408110156106f357600080fd5b5080359060200135611883565b6104b16004803603604081101561071657600080fd5b81359190810190604081016020820135600160201b81111561073757600080fd5b82018360208201111561074957600080fd5b803590602001918460208302840111600160201b8311171561076a57600080fd5b509092509050611899565b6104b16004803603604081101561078b57600080fd5b810190602081018135600160201b8111156107a557600080fd5b8201836020820111156107b757600080fd5b803590602001918460208302840111600160201b831117156107d857600080fd5b9190808060200260200160405190810160405280939291908181526020018383602002808284376000920191909152509295949360208101935035915050600160201b81111561082757600080fd5b82018360208201111561083957600080fd5b803590602001918460208302840111600160201b8311171561085a57600080fd5b9190808060200260200160405190810160405280939291908181526020018383602002808284376000920191909152509295506118de945050505050565b6104b1600480360360408110156108ae57600080fd5b5080359060200135611977565b6104b1600480360360408110156108d157600080fd5b508035906020013561198b565b610304600480360360208110156108f457600080fd5b503561199f565b61091e6004803603604081101561091157600080fd5b5080359060200135611a0a565b604080519115158252519081900360200190f35b6104b16004803603604081101561094857600080fd5b810190602081018135600160201b81111561096257600080fd5b82018360208201111561097457600080fd5b803590602001918460208302840111600160201b8311171561099557600080fd5b9190808060200260200160405190810160405280939291908181526020018383602002808284376000920191909152509295949360208101935035915050600160201b8111156109e457600080fd5b8201836020820111156109f657600080fd5b803590602001918460208302840111600160201b83111715610a1757600080fd5b919080806020026020016040519081016040528093929190818152602001838360200280828437600092019190915250929550611a4c945050505050565b61030460048036036060811015610a6b57600080fd5b5080359060208101359060400135611ae5565b6104b160048036036040811015610a9457600080fd5b5080359060200135611b8c565b6104b160048036036040811015610ab757600080fd5b81359190810190604081016020820135600160201b811115610ad857600080fd5b820183602082011115610aea57600080fd5b803590602001918460018302840111600160201b83111715610b0b57600080fd5b509092509050611ba0565b61091e60048036036020811015610b2c57600080fd5b5035611be8565b6104b160048036036040811015610b4957600080fd5b5080359060200135611bfd565b6104b160048036036040811015610b6c57600080fd5b50803590602001356001600160a01b0316611c0f565b6104b160048036036040811015610b9857600080fd5b5080359060200135611c23565b610bc260048036036020811015610bbb57600080fd5b5035611c35565b6040805160208082528351818301528351919283929083019185019080838360005b83811015610bfc578181015183820152602001610be4565b50505050905090810190601f168015610c295780820380516001836020036101000a031916815260200191505b509250505060405180910390f35b6104b160048036036040811015610c4d57600080fd5b810190602081018135600160201b811115610c6757600080fd5b820183602082011115610c7957600080fd5b803590602001918460208302840111600160201b83111715610c9a57600080fd5b9190808060200260200160405190810160405280939291908181526020018383602002808284376000920191909152509295949360208101935035915050600160201b811115610ce957600080fd5b820183602082011115610cfb57600080fd5b803590602001918460208302840111600160201b83111715610d1c57600080fd5b919080806020026020016040519081016040528093929190818152602001838360200280828437600092019190915250929550611ccc945050505050565b6104b160048036036020811015610d7057600080fd5b50356001600160a01b0316611d65565b6104d060048036036040811015610d9657600080fd5b5080359060200135611eea565b6104b160048036036040811015610db957600080fd5b810190602081018135600160201b811115610dd357600080fd5b820183602082011115610de557600080fd5b803590602001918460208302840111600160201b83111715610e0657600080fd5b9190808060200260200160405190810160405280939291908181526020018383602002808284376000920191909152509295949360208101935035915050600160201b811115610e5557600080fd5b820183602082011115610e6757600080fd5b803590602001918460208302840111600160201b83111715610e8857600080fd5b919080806020026020016040519081016040528093929190818152602001838360200280828437600092019190915250929550611f20945050505050565b61061c60048036036020811015610edc57600080fd5b5035611fb9565b6104b160048036036040811015610ef957600080fd5b50803590602001351515611fcb565b6104d0611fdf565b610bc260048036036020811015610f2657600080fd5b5035611fee565b6104b160048036036040811015610f4357600080fd5b5080359060200135612058565b6104b160048036036040811015610f6657600080fd5b50803590602001356001600160a01b031661206a565b6104b160048036036040811015610f9257600080fd5b5080359060200135151561207e565b61030460048036036020811015610fb757600080fd5b5035612092565b61061c60048036036040811015610fd457600080fd5b50803590602001356120f2565b61061c60048036036020811015610ff757600080fd5b503561211f565b6104b16004803603604081101561101457600080fd5b5080359060200135612131565b6104b16004803603604081101561103757600080fd5b810190602081018135600160201b81111561105157600080fd5b82018360208201111561106357600080fd5b803590602001918460208302840111600160201b8311171561108457600080fd5b9190808060200260200160405190810160405280939291908181526020018383602002808284376000920191909152509295949360208101935035915050600160201b8111156110d357600080fd5b8201836020820111156110e557600080fd5b803590602001918460208302840111600160201b8311171561110657600080fd5b919080806020026020016040519081016040528093929190818152602001838360200280828437600092019190915250929550612145945050505050565b6103046004803603606081101561115a57600080fd5b50803590602081013590604001356121de565b6104b16004803603604081101561118357600080fd5b810190602081018135600160201b81111561119d57600080fd5b8201836020820111156111af57600080fd5b803590602001918460208302840111600160201b831117156111d057600080fd5b9190808060200260200160405190810160405280939291908181526020018383602002808284376000920191909152509295949360208101935035915050600160201b81111561121f57600080fd5b82018360208201111561123157600080fd5b803590602001918460208302840111600160201b8311171561125257600080fd5b9190808060200260200160405190810160405280939291908181526020018383602002808284376000920191909152509295506122a5945050505050565b6104b1600480360360408110156112a657600080fd5b81359190810190604081016020820135600160201b8111156112c757600080fd5b8201836020820111156112d957600080fd5b803590602001918460208302840111600160201b831117156112fa57600080fd5b50909250905061233e565b61061c6004803603604081101561131b57600080fd5b5080359060200135612383565b61061c6004803603602081101561133e57600080fd5b503561239d565b6104b16004803603604081101561135b57600080fd5b810190602081018135600160201b81111561137557600080fd5b82018360208201111561138757600080fd5b803590602001918460208302840111600160201b831117156113a857600080fd5b9190808060200260200160405190810160405280939291908181526020018383602002808284376000920191909152509295949360208101935035915050600160201b8111156113f757600080fd5b82018360208201111561140957600080fd5b803590602001918460208302840111600160201b8311171561142a57600080fd5b9190808060200260200160405190810160405280939291908181526020018383602002808284376000920191909152509295506123af945050505050565b60008381526009602052604090205460609080831061148957839003611491565b506001838303015b806040519080825280602002602001820160405280156114bb578160200160208202803883390190505b50915060005b8181101561150f57600086815260096020526040902080548287019081106114e557fe5b90600052602060002001548382815181106114fc57fe5b60209081029190910101526001016114c1565b50509392505050565b60008181526008602090815260409182902080548351818402810184019094528084526060939283018282801561156e57602002820191906000526020600020905b81548152602001906001019080831161155a575b50505050509050919050565b6000818152600b602090815260409182902080548351818402810184019094528084526060939283018282801561156e57602002820191906000526020600020906000905b825461010083900a900460ff1615158152602060019283018181049485019490930390920291018084116115bf575094979650505050505050565b815181518082146116455760408051600160e51b62461bcd02815260206004820152600a6024820152600160b31b690c4c2c840d8cadccee8d02604482015290519081900360640190fd5b61164d612448565b60005b84518110156116935761168b85828151811061166857fe5b602002602001015185838151811061167c57fe5b6020026020010151600061264f565b600101611650565b5050505050565b6000908152600460205260409020546001600160a01b031690565b6116bd612448565b6116fa838383808060200260200160405190810160405280939291908181526020018383602002808284376000920191909152506126d692505050565b505050565b6000838152600b602052604090205460609080831061172057839003611728565b506001838303015b80604051908082528060200260200182016040528015611752578160200160208202803883390190505b50915060005b8181101561150f576000868152600b60205260409020805482870190811061177c57fe5b90600052602060002090602091828204019190069054906101000a900460ff168382815181106117a857fe5b91151560209283029190910190910152600101611758565b6117c8612448565b6116fa8383838080601f01602080910402602001604051908101604052809392919081815260200183838082843760009201919091525061273892505050565b6000908152600b602052604090205490565b6000908152600a602052604090205490565b60009081526002602052604090205490565b611846612448565b6116fa8383838080602002602001604051908101604052809392919081815260200183836020028082843760009201919091525061279a92505050565b61188b612448565b61189582826127fc565b5050565b6118a1612448565b6116fa8383838080602002602001604051908101604052809392919081815260200183836020028082843760009201919091525061293292505050565b815181518082146119295760408051600160e51b62461bcd02815260206004820152600a6024820152600160b31b690c4c2c840d8cadccee8d02604482015290519081900360640190fd5b611931612448565b60005b84518110156116935761196f85828151811061194c57fe5b602002602001015185838151811061196057fe5b60200260200101516000612994565b600101611934565b61197f612448565b6118958282600061264f565b611993612448565b61189582826000612a48565b6000818152600a602090815260409182902080548351818402810184019094528084526060939283018282801561156e57602002820191906000526020600020905b81546001600160a01b031681526001909101906020018083116119e15750505050509050919050565b6000828152600b60205260408120805483908110611a2457fe5b90600052602060002090602091828204019190069054906101000a900460ff16905092915050565b81518151808214611a975760408051600160e51b62461bcd02815260206004820152600a6024820152600160b31b690c4c2c840d8cadccee8d02604482015290519081900360640190fd5b611a9f612448565b60005b845181101561169357611add858281518110611aba57fe5b6020026020010151858381518110611ace57fe5b60200260200101516001612acb565b600101611aa2565b600083815260086020526040902054606090808310611b0657839003611b0e565b506001838303015b80604051908082528060200260200182016040528015611b38578160200160208202803883390190505b50915060005b8181101561150f5760008681526008602052604090208054828701908110611b6257fe5b9060005260206000200154838281518110611b7957fe5b6020908102919091010152600101611b3e565b611b94612448565b61189582826001612a48565b611ba8612448565b6116fa8383838080601f016020809104026020016040519081016040528093929190818152602001838380828437600092019190915250612b7c92505050565b60009081526007602052604090205460ff1690565b611c05612448565b6118958282612bde565b611c17612448565b61189582826001612994565b611c2b612448565b6118958282612d24565b60008181526005602090815260409182902080548351601f600260001961010060018616150201909316929092049182018490048402810184019094528084526060939283018282801561156e5780601f10611c9f5761010080835404028352916020019161156e565b820191906000526020600020905b815481529060010190602001808311611cad5750939695505050505050565b81518151808214611d175760408051600160e51b62461bcd02815260206004820152600a6024820152600160b31b690c4c2c840d8cadccee8d02604482015290519081900360640190fd5b611d1f612448565b60005b845181101561169357611d5d858281518110611d3a57fe5b6020026020010151858381518110611d4e57fe5b60200260200101516001612a48565b600101611d22565b600160009054906101000a90046001600160a01b03166001600160a01b0316638da5cb5b6040518163ffffffff1660e01b815260040160206040518083038186803b158015611db357600080fd5b505afa158015611dc7573d6000803e3d6000fd5b505050506040513d6020811015611ddd57600080fd5b50516001600160a01b03163314611e305760408051600160e51b62461bcd02815260206004820152600c6024820152600160a21b6b155b985d5d1a1bdc9a5e995902604482015290519081900360640190fd5b6001600160a01b038116611e8e5760408051600160e51b62461bcd02815260206004820152600f60248201527f496e76616c696420616464726573730000000000000000000000000000000000604482015290519081900360640190fd5b6001546040516001600160a01b038084169216907fcfafc05b547da7794a1a232e92558b896ade88860e1f6bec45dd7935bbe9851590600090a3600180546001600160a01b0319166001600160a01b0392909216919091179055565b6000828152600a60205260408120805483908110611f0457fe5b6000918252602090912001546001600160a01b03169392505050565b81518151808214611f6b5760408051600160e51b62461bcd02815260206004820152600a6024820152600160b31b690c4c2c840d8cadccee8d02604482015290519081900360640190fd5b611f73612448565b60005b845181101561169357611fb1858281518110611f8e57fe5b6020026020010151858381518110611fa257fe5b6020026020010151600161264f565b600101611f76565b60009081526003602052604090205490565b611fd3612448565b61189582826000612acb565b6001546001600160a01b031681565b60008181526006602090815260409182902080548351601f600260001961010060018616150201909316929092049182018490048402810184019094528084526060939283018282801561156e5780601f10611c9f5761010080835404028352916020019161156e565b612060612448565b6118958282612e34565b612072612448565b61189582826000612994565b612086612448565b61189582826001612acb565b60008181526009602090815260409182902080548351818402810184019094528084526060939283018282801561156e576020028201919060005260206000209081548152602001906001019080831161155a5750505050509050919050565b600082815260096020526040812080548390811061210c57fe5b9060005260206000200154905092915050565b60009081526009602052604090205490565b612139612448565b6118958282600161264f565b815181518082146121905760408051600160e51b62461bcd02815260206004820152600a6024820152600160b31b690c4c2c840d8cadccee8d02604482015290519081900360640190fd5b612198612448565b60005b8451811015611693576121d68582815181106121b357fe5b60200260200101518583815181106121c757fe5b60200260200101516001612994565b60010161219b565b6000838152600a60205260409020546060908083106121ff57839003612207565b506001838303015b80604051908082528060200260200182016040528015612231578160200160208202803883390190505b50915060005b8181101561150f576000868152600a60205260409020805482870190811061225b57fe5b9060005260206000200160009054906101000a90046001600160a01b031683828151811061228557fe5b6001600160a01b0390921660209283029190910190910152600101612237565b815181518082146122f05760408051600160e51b62461bcd02815260206004820152600a6024820152600160b31b690c4c2c840d8cadccee8d02604482015290519081900360640190fd5b6122f8612448565b60005b84518110156116935761233685828151811061231357fe5b602002602001015185838151811061232757fe5b60200260200101516000612acb565b6001016122fb565b612346612448565b6116fa83838380806020026020016040519081016040528093929190818152602001838360200280828437600092019190915250612f4492505050565b600082815260086020526040812080548390811061210c57fe5b60009081526008602052604090205490565b815181518082146123fa5760408051600160e51b62461bcd02815260206004820152600a6024820152600160b31b690c4c2c840d8cadccee8d02604482015290519081900360640190fd5b612402612448565b60005b84518110156116935761244085828151811061241d57fe5b602002602001015185838151811061243157fe5b60200260200101516000612a48565b600101612405565b6001546001600160a01b03163314806124e25750600160009054906101000a90046001600160a01b03166001600160a01b0316638da5cb5b6040518163ffffffff1660e01b815260040160206040518083038186803b1580156124aa57600080fd5b505afa1580156124be573d6000803e3d6000fd5b505050506040513d60208110156124d457600080fd5b50516001600160a01b031633145b8061257f575060015460408051600160e01b638658b8b9028152336004820152306024820152600160b01b694d414e4147454441544102604482015290516001600160a01b0390921691638658b8b991606480820192602092909190829003018186803b15801561255257600080fd5b505afa158015612566573d6000803e3d6000fd5b505050506040513d602081101561257c57600080fd5b50515b80612607575060015460408051600160e01b6352cfe5630281523360048201526006602482015290516001600160a01b03909216916352cfe56391604480820192602092909190829003018186803b1580156125da57600080fd5b505afa1580156125ee573d6000803e3d6000fd5b505050506040513d602081101561260457600080fd5b50515b61264d5760408051600160e51b62461bcd02815260206004820152600c6024820152600160a21b6b155b985d5d1a1bdc9a5e995902604482015290519081900360640190fd5b565b82806126925760408051600160e51b62461bcd0281526020600482015260076024820152600160c81b66626164206b657902604482015290519081900360640190fd5b81156126be576000848152600960209081526040822080546001810182559083529120018390556126d0565b60008481526003602052604090208390555b50505050565b81806127195760408051600160e51b62461bcd0281526020600482015260076024820152600160c81b66626164206b657902604482015290519081900360640190fd5b600083815260096020908152604090912083516126d092850190612fa6565b818061277b5760408051600160e51b62461bcd0281526020600482015260076024820152600160c81b66626164206b657902604482015290519081900360640190fd5b600083815260066020908152604090912083516126d092850190612ff1565b81806127dd5760408051600160e51b62461bcd0281526020600482015260076024820152600160c81b66626164206b657902604482015290519081900360640190fd5b6000838152600b6020908152604090912083516126d09285019061305e565b818061283f5760408051600160e51b62461bcd0281526020600482015260076024820152600160c81b66626164206b657902604482015290519081900360640190fd5b6000838152600a602052604090205482106128975760408051600160e51b62461bcd02815260206004820152600d60248201526001609b1b6c092dcecc2d8d2c84092dcc8caf02604482015290519081900360640190fd5b6000838152600a60205260409020805460001981019081106128b557fe5b6000918252602080832090910154858352600a909152604090912080546001600160a01b0390921691849081106128e857fe5b600091825260208083209190910180546001600160a01b0319166001600160a01b039490941693909317909255848152600a909152604090208054906126d09060001983016130ff565b81806129755760408051600160e51b62461bcd0281526020600482015260076024820152600160c81b66626164206b657902604482015290519081900360640190fd5b600083815260086020908152604090912083516126d092850190612fa6565b82806129d75760408051600160e51b62461bcd0281526020600482015260076024820152600160c81b66626164206b657902604482015290519081900360640190fd5b8115612a19576000848152600a602090815260408220805460018101825590835291200180546001600160a01b0319166001600160a01b0385161790556126d0565b600084815260046020526040902080546001600160a01b0385166001600160a01b031990911617905550505050565b8280612a8b5760408051600160e51b62461bcd0281526020600482015260076024820152600160c81b66626164206b657902604482015290519081900360640190fd5b8115612ab7576000848152600860209081526040822080546001810182559083529120018390556126d0565b505060009182526002602052604090912055565b8280612b0e5760408051600160e51b62461bcd0281526020600482015260076024820152600160c81b66626164206b657902604482015290519081900360640190fd5b8115612b5a576000848152600b602090815260408220805460018101825590835291819020908204018054851515601f9093166101000a92830260ff90930219169190911790556126d0565b6000848152600760205260409020805484151560ff1990911617905550505050565b8180612bbf5760408051600160e51b62461bcd0281526020600482015260076024820152600160c81b66626164206b657902604482015290519081900360640190fd5b600083815260056020908152604090912083516126d092850190612ff1565b8180612c215760408051600160e51b62461bcd0281526020600482015260076024820152600160c81b66626164206b657902604482015290519081900360640190fd5b6000838152600b60205260409020548210612c795760408051600160e51b62461bcd02815260206004820152600d60248201526001609b1b6c092dcecc2d8d2c84092dcc8caf02604482015290519081900360640190fd5b6000838152600b6020526040902080546000198101908110612c9757fe5b90600052602060002090602091828204019190069054906101000a900460ff16600b60008581526020019081526020016000208381548110612cd557fe5b90600052602060002090602091828204019190066101000a81548160ff021916908315150217905550600b60008481526020019081526020016000208054809190600190036126d09190613123565b8180612d675760408051600160e51b62461bcd0281526020600482015260076024820152600160c81b66626164206b657902604482015290519081900360640190fd5b6000838152600860205260409020548210612dbf5760408051600160e51b62461bcd02815260206004820152600d60248201526001609b1b6c092dcecc2d8d2c84092dcc8caf02604482015290519081900360640190fd5b600083815260086020526040902080546000198101908110612ddd57fe5b9060005260206000200154600860008581526020019081526020016000208381548110612e0657fe5b60009182526020808320909101929092558481526008909152604090208054906126d09060001983016130ff565b8180612e775760408051600160e51b62461bcd0281526020600482015260076024820152600160c81b66626164206b657902604482015290519081900360640190fd5b6000838152600960205260409020548210612ecf5760408051600160e51b62461bcd02815260206004820152600d60248201526001609b1b6c092dcecc2d8d2c84092dcc8caf02604482015290519081900360640190fd5b600083815260096020526040902080546000198101908110612eed57fe5b9060005260206000200154600960008581526020019081526020016000208381548110612f1657fe5b60009182526020808320909101929092558481526009909152604090208054906126d09060001983016130ff565b8180612f875760408051600160e51b62461bcd0281526020600482015260076024820152600160c81b66626164206b657902604482015290519081900360640190fd5b6000838152600a6020908152604090912083516126d092850190613157565b828054828255906000526020600020908101928215612fe1579160200282015b82811115612fe1578251825591602001919060010190612fc6565b50612fed9291506131b8565b5090565b828054600181600116156101000203166002900490600052602060002090601f016020900481019282601f1061303257805160ff1916838001178555612fe1565b82800160010185558215612fe15791820182811115612fe1578251825591602001919060010190612fc6565b82805482825590600052602060002090601f016020900481019282156130f35791602002820160005b838211156130c457835183826101000a81548160ff0219169083151502179055509260200192600101602081600001049283019260010302613087565b80156130f15782816101000a81549060ff02191690556001016020816000010492830192600103026130c4565b505b50612fed9291506131d5565b8154818355818111156116fa576000838152602090206116fa9181019083016131b8565b8154818355818111156116fa57601f016020900481601f016020900483600052602060002091820191016116fa91906131b8565b8280548282559060005260206000209081019282156131ac579160200282015b828111156131ac57825182546001600160a01b0319166001600160a01b03909116178255602090920191600190910190613177565b50612fed9291506131f3565b6131d291905b80821115612fed57600081556001016131be565b90565b6131d291905b80821115612fed57805460ff191681556001016131db565b6131d291905b80821115612fed5780546001600160a01b03191681556001016131f956fea165627a7a7230582050de38315762fab61ff66d2f19fcd1783aaba730c991b78c8b20e4afff8f92630029",
  "source": "pragma solidity 0.5.8;\r\n\r\nimport \"../interfaces/ISecurityToken.sol\";\r\nimport \"../interfaces/IOwnable.sol\";\r\nimport \"../interfaces/IDataStore.sol\";\r\nimport \"./DataStoreStorage.sol\";\r\n\r\n/**\r\n * @title Data store contract that stores data for all the modules in a central contract.\r\n */\r\ncontract DataStore is DataStoreStorage, IDataStore {\r\n    //NB To modify a specific element of an array, First push a new element to the array and then delete the old element.\r\n    //Whenver an element is deleted from an Array, last element of that array is moved to the index of deleted element.\r\n    //Delegate with MANAGEDATA permission can modify data.\r\n    event SecurityTokenChanged(address indexed _oldSecurityToken, address indexed _newSecurityToken);\r\n\r\n    function _isAuthorized() internal view {\r\n        require(msg.sender == address(securityToken) ||\r\n            msg.sender == IOwnable(address(securityToken)).owner() ||\r\n            securityToken.checkPermission(msg.sender, address(this), MANAGEDATA) ||\r\n            securityToken.isModule(msg.sender, DATA_KEY),\r\n            \"Unauthorized\"\r\n        );\r\n    }\r\n\r\n    modifier validKey(bytes32 _key) {\r\n        require(_key != bytes32(0), \"bad key\");\r\n        _;\r\n    }\r\n\r\n    modifier validArrayLength(uint256 _keyLength, uint256 _dataLength) {\r\n        require(_keyLength == _dataLength, \"bad length\");\r\n        _;\r\n    }\r\n\r\n    modifier onlyOwner() {\r\n        require(msg.sender == IOwnable(address(securityToken)).owner(), \"Unauthorized\");\r\n        _;\r\n    }\r\n\r\n    /**\r\n     * @dev Changes security token atatched to this data store\r\n     * @param _securityToken address of the security token\r\n     */\r\n    function setSecurityToken(address _securityToken) external onlyOwner {\r\n        require(_securityToken != address(0), \"Invalid address\");\r\n        emit SecurityTokenChanged(address(securityToken), _securityToken);\r\n        securityToken = ISecurityToken(_securityToken);\r\n    }\r\n\r\n    /**\r\n     * @dev Stores a uint256 data against a key\r\n     * @param _key Unique key to identify the data\r\n     * @param _data Data to be stored against the key\r\n     */\r\n    function setUint256(bytes32 _key, uint256 _data) external {\r\n        _isAuthorized();\r\n        _setData(_key, _data, false);\r\n    }\r\n\r\n    function setBytes32(bytes32 _key, bytes32 _data) external {\r\n        _isAuthorized();\r\n        _setData(_key, _data, false);\r\n    }\r\n\r\n    function setAddress(bytes32 _key, address _data) external {\r\n        _isAuthorized();\r\n        _setData(_key, _data, false);\r\n    }\r\n\r\n    function setBool(bytes32 _key, bool _data) external {\r\n        _isAuthorized();\r\n        _setData(_key, _data, false);\r\n    }\r\n\r\n    function setString(bytes32 _key, string calldata _data) external {\r\n        _isAuthorized();\r\n        _setData(_key, _data);\r\n    }\r\n\r\n    function setBytes(bytes32 _key, bytes calldata _data) external {\r\n        _isAuthorized();\r\n        _setData(_key, _data);\r\n    }\r\n\r\n    /**\r\n     * @dev Stores a uint256 array against a key\r\n     * @param _key Unique key to identify the array\r\n     * @param _data Array to be stored against the key\r\n     */\r\n    function setUint256Array(bytes32 _key, uint256[] calldata _data) external {\r\n        _isAuthorized();\r\n        _setData(_key, _data);\r\n    }\r\n\r\n    function setBytes32Array(bytes32 _key, bytes32[] calldata _data) external {\r\n        _isAuthorized();\r\n        _setData(_key, _data);\r\n    }\r\n\r\n    function setAddressArray(bytes32 _key, address[] calldata _data) external {\r\n        _isAuthorized();\r\n        _setData(_key, _data);\r\n    }\r\n\r\n    function setBoolArray(bytes32 _key, bool[] calldata _data) external {\r\n        _isAuthorized();\r\n        _setData(_key, _data);\r\n    }\r\n\r\n    /**\r\n     * @dev Inserts a uint256 element to the array identified by the key\r\n     * @param _key Unique key to identify the array\r\n     * @param _data Element to push into the array\r\n     */\r\n    function insertUint256(bytes32 _key, uint256 _data) external {\r\n        _isAuthorized();\r\n        _setData(_key, _data, true);\r\n    }\r\n\r\n    function insertBytes32(bytes32 _key, bytes32 _data) external {\r\n        _isAuthorized();\r\n        _setData(_key, _data, true);\r\n    }\r\n\r\n    function insertAddress(bytes32 _key, address _data) external {\r\n        _isAuthorized();\r\n        _setData(_key, _data, true);\r\n    }\r\n\r\n    function insertBool(bytes32 _key, bool _data) external {\r\n        _isAuthorized();\r\n        _setData(_key, _data, true);\r\n    }\r\n\r\n    /**\r\n     * @dev Deletes an element from the array identified by the key.\r\n     * When an element is deleted from an Array, last element of that array is moved to the index of deleted element.\r\n     * @param _key Unique key to identify the array\r\n     * @param _index Index of the element to delete\r\n     */\r\n    function deleteUint256(bytes32 _key, uint256 _index) external {\r\n        _isAuthorized();\r\n        _deleteUint(_key, _index);\r\n    }\r\n\r\n    function deleteBytes32(bytes32 _key, uint256 _index) external {\r\n        _isAuthorized();\r\n        _deleteBytes32(_key, _index);\r\n    }\r\n\r\n    function deleteAddress(bytes32 _key, uint256 _index) external {\r\n        _isAuthorized();\r\n        _deleteAddress(_key, _index);\r\n    }\r\n\r\n    function deleteBool(bytes32 _key, uint256 _index) external {\r\n        _isAuthorized();\r\n        _deleteBool(_key, _index);\r\n    }\r\n\r\n    /**\r\n     * @dev Stores multiple uint256 data against respective keys\r\n     * @param _keys Array of keys to identify the data\r\n     * @param _data Array of data to be stored against the respective keys\r\n     */\r\n    function setUint256Multi(bytes32[] memory _keys, uint256[] memory _data) public validArrayLength(_keys.length, _data.length) {\r\n        _isAuthorized();\r\n        for (uint256 i = 0; i < _keys.length; i++) {\r\n            _setData(_keys[i], _data[i], false);\r\n        }\r\n    }\r\n\r\n    function setBytes32Multi(bytes32[] memory _keys, bytes32[] memory _data) public validArrayLength(_keys.length, _data.length) {\r\n        _isAuthorized();\r\n        for (uint256 i = 0; i < _keys.length; i++) {\r\n            _setData(_keys[i], _data[i], false);\r\n        }\r\n    }\r\n\r\n    function setAddressMulti(bytes32[] memory _keys, address[] memory _data) public validArrayLength(_keys.length, _data.length) {\r\n        _isAuthorized();\r\n        for (uint256 i = 0; i < _keys.length; i++) {\r\n            _setData(_keys[i], _data[i], false);\r\n        }\r\n    }\r\n\r\n    function setBoolMulti(bytes32[] memory _keys, bool[] memory _data) public validArrayLength(_keys.length, _data.length) {\r\n        _isAuthorized();\r\n        for (uint256 i = 0; i < _keys.length; i++) {\r\n            _setData(_keys[i], _data[i], false);\r\n        }\r\n    }\r\n\r\n    /**\r\n     * @dev Inserts multiple uint256 elements to the array identified by the respective keys\r\n     * @param _keys Array of keys to identify the data\r\n     * @param _data Array of data to be inserted in arrays of the respective keys\r\n     */\r\n    function insertUint256Multi(bytes32[] memory _keys, uint256[] memory _data) public validArrayLength(_keys.length, _data.length) {\r\n        _isAuthorized();\r\n        for (uint256 i = 0; i < _keys.length; i++) {\r\n            _setData(_keys[i], _data[i], true);\r\n        }\r\n    }\r\n\r\n    function insertBytes32Multi(bytes32[] memory _keys, bytes32[] memory _data) public validArrayLength(_keys.length, _data.length) {\r\n        _isAuthorized();\r\n        for (uint256 i = 0; i < _keys.length; i++) {\r\n            _setData(_keys[i], _data[i], true);\r\n        }\r\n    }\r\n\r\n    function insertAddressMulti(bytes32[] memory _keys, address[] memory _data) public validArrayLength(_keys.length, _data.length) {\r\n        _isAuthorized();\r\n        for (uint256 i = 0; i < _keys.length; i++) {\r\n            _setData(_keys[i], _data[i], true);\r\n        }\r\n    }\r\n\r\n    function insertBoolMulti(bytes32[] memory _keys, bool[] memory _data) public validArrayLength(_keys.length, _data.length) {\r\n        _isAuthorized();\r\n        for (uint256 i = 0; i < _keys.length; i++) {\r\n            _setData(_keys[i], _data[i], true);\r\n        }\r\n    }\r\n\r\n    function getUint256(bytes32 _key) external view returns(uint256) {\r\n        return uintData[_key];\r\n    }\r\n\r\n    function getBytes32(bytes32 _key) external view returns(bytes32) {\r\n        return bytes32Data[_key];\r\n    }\r\n\r\n    function getAddress(bytes32 _key) external view returns(address) {\r\n        return addressData[_key];\r\n    }\r\n\r\n    function getString(bytes32 _key) external view returns(string memory) {\r\n        return stringData[_key];\r\n    }\r\n\r\n    function getBytes(bytes32 _key) external view returns(bytes memory) {\r\n        return bytesData[_key];\r\n    }\r\n\r\n    function getBool(bytes32 _key) external view returns(bool) {\r\n        return boolData[_key];\r\n    }\r\n\r\n    function getUint256Array(bytes32 _key) external view returns(uint256[] memory) {\r\n        return uintArrayData[_key];\r\n    }\r\n\r\n    function getBytes32Array(bytes32 _key) external view returns(bytes32[] memory) {\r\n        return bytes32ArrayData[_key];\r\n    }\r\n\r\n    function getAddressArray(bytes32 _key) external view returns(address[] memory) {\r\n        return addressArrayData[_key];\r\n    }\r\n\r\n    function getBoolArray(bytes32 _key) external view returns(bool[] memory) {\r\n        return boolArrayData[_key];\r\n    }\r\n\r\n    function getUint256ArrayLength(bytes32 _key) external view returns(uint256) {\r\n        return uintArrayData[_key].length;\r\n    }\r\n\r\n    function getBytes32ArrayLength(bytes32 _key) external view returns(uint256) {\r\n        return bytes32ArrayData[_key].length;\r\n    }\r\n\r\n    function getAddressArrayLength(bytes32 _key) external view returns(uint256) {\r\n        return addressArrayData[_key].length;\r\n    }\r\n\r\n    function getBoolArrayLength(bytes32 _key) external view returns(uint256) {\r\n        return boolArrayData[_key].length;\r\n    }\r\n\r\n    function getUint256ArrayElement(bytes32 _key, uint256 _index) external view returns(uint256) {\r\n        return uintArrayData[_key][_index];\r\n    }\r\n\r\n    function getBytes32ArrayElement(bytes32 _key, uint256 _index) external view returns(bytes32) {\r\n        return bytes32ArrayData[_key][_index];\r\n    }\r\n\r\n    function getAddressArrayElement(bytes32 _key, uint256 _index) external view returns(address) {\r\n        return addressArrayData[_key][_index];\r\n    }\r\n\r\n    function getBoolArrayElement(bytes32 _key, uint256 _index) external view returns(bool) {\r\n        return boolArrayData[_key][_index];\r\n    }\r\n\r\n    function getUint256ArrayElements(bytes32 _key, uint256 _startIndex, uint256 _endIndex) public view returns(uint256[] memory array) {\r\n        uint256 size = uintArrayData[_key].length;\r\n        if (_endIndex >= size) {\r\n            size = size - _startIndex;\r\n        } else {\r\n            size = _endIndex - _startIndex + 1;\r\n        }\r\n        array = new uint256[](size);\r\n        for(uint256 i; i < size; i++)\r\n            array[i] = uintArrayData[_key][i + _startIndex];\r\n    }\r\n\r\n    function getBytes32ArrayElements(bytes32 _key, uint256 _startIndex, uint256 _endIndex) public view returns(bytes32[] memory array) {\r\n        uint256 size = bytes32ArrayData[_key].length;\r\n        if (_endIndex >= size) {\r\n            size = size - _startIndex;\r\n        } else {\r\n            size = _endIndex - _startIndex + 1;\r\n        }\r\n        array = new bytes32[](size);\r\n        for(uint256 i; i < size; i++)\r\n            array[i] = bytes32ArrayData[_key][i + _startIndex];\r\n    }\r\n\r\n    function getAddressArrayElements(bytes32 _key, uint256 _startIndex, uint256 _endIndex) public view returns(address[] memory array) {\r\n        uint256 size = addressArrayData[_key].length;\r\n        if (_endIndex >= size) {\r\n            size = size - _startIndex;\r\n        } else {\r\n            size = _endIndex - _startIndex + 1;\r\n        }\r\n        array = new address[](size);\r\n        for(uint256 i; i < size; i++)\r\n            array[i] = addressArrayData[_key][i + _startIndex];\r\n    }\r\n\r\n    function getBoolArrayElements(bytes32 _key, uint256 _startIndex, uint256 _endIndex) public view returns(bool[] memory array) {\r\n        uint256 size = boolArrayData[_key].length;\r\n        if (_endIndex >= size) {\r\n            size = size - _startIndex;\r\n        } else {\r\n            size = _endIndex - _startIndex + 1;\r\n        }\r\n        array = new bool[](size);\r\n        for(uint256 i; i < size; i++)\r\n            array[i] = boolArrayData[_key][i + _startIndex];\r\n    }\r\n\r\n    function _setData(bytes32 _key, uint256 _data, bool _insert) internal validKey(_key) {\r\n        if (_insert)\r\n            uintArrayData[_key].push(_data);\r\n        else\r\n            uintData[_key] = _data;\r\n    }\r\n\r\n    function _setData(bytes32 _key, bytes32 _data, bool _insert) internal validKey(_key) {\r\n        if (_insert)\r\n            bytes32ArrayData[_key].push(_data);\r\n        else\r\n            bytes32Data[_key] = _data;\r\n    }\r\n\r\n    function _setData(bytes32 _key, address _data, bool _insert) internal validKey(_key) {\r\n        if (_insert)\r\n            addressArrayData[_key].push(_data);\r\n        else\r\n            addressData[_key] = _data;\r\n    }\r\n\r\n    function _setData(bytes32 _key, bool _data, bool _insert) internal validKey(_key) {\r\n        if (_insert)\r\n            boolArrayData[_key].push(_data);\r\n        else\r\n            boolData[_key] = _data;\r\n    }\r\n\r\n    function _setData(bytes32 _key, string memory _data) internal validKey(_key) {\r\n        stringData[_key] = _data;\r\n    }\r\n\r\n    function _setData(bytes32 _key, bytes memory _data) internal validKey(_key) {\r\n        bytesData[_key] = _data;\r\n    }\r\n\r\n    function _setData(bytes32 _key, uint256[] memory _data) internal validKey(_key) {\r\n        uintArrayData[_key] = _data;\r\n    }\r\n\r\n    function _setData(bytes32 _key, bytes32[] memory _data) internal validKey(_key) {\r\n        bytes32ArrayData[_key] = _data;\r\n    }\r\n\r\n    function _setData(bytes32 _key, address[] memory _data) internal validKey(_key) {\r\n        addressArrayData[_key] = _data;\r\n    }\r\n\r\n    function _setData(bytes32 _key, bool[] memory _data) internal validKey(_key) {\r\n        boolArrayData[_key] = _data;\r\n    }\r\n\r\n    function _deleteUint(bytes32 _key, uint256 _index) internal validKey(_key) {\r\n        require(uintArrayData[_key].length > _index, \"Invalid Index\"); //Also prevents undeflow\r\n        uintArrayData[_key][_index] = uintArrayData[_key][uintArrayData[_key].length - 1];\r\n        uintArrayData[_key].length--;\r\n    }\r\n\r\n    function _deleteBytes32(bytes32 _key, uint256 _index) internal validKey(_key) {\r\n        require(bytes32ArrayData[_key].length > _index, \"Invalid Index\"); //Also prevents undeflow\r\n        bytes32ArrayData[_key][_index] = bytes32ArrayData[_key][bytes32ArrayData[_key].length - 1];\r\n        bytes32ArrayData[_key].length--;\r\n    }\r\n\r\n    function _deleteAddress(bytes32 _key, uint256 _index) internal validKey(_key) {\r\n        require(addressArrayData[_key].length > _index, \"Invalid Index\"); //Also prevents undeflow\r\n        addressArrayData[_key][_index] = addressArrayData[_key][addressArrayData[_key].length - 1];\r\n        addressArrayData[_key].length--;\r\n    }\r\n\r\n    function _deleteBool(bytes32 _key, uint256 _index) internal validKey(_key) {\r\n        require(boolArrayData[_key].length > _index, \"Invalid Index\"); //Also prevents undeflow\r\n        boolArrayData[_key][_index] = boolArrayData[_key][boolArrayData[_key].length - 1];\r\n        boolArrayData[_key].length--;\r\n    }\r\n}\r\n",
  "sourcePath": "C:/mspace/polymath-core/contracts/datastore/DataStore.sol",
  "compiler": {
    "name": "solc",
    "version": "0.5.8+commit.23d335f2.Emscripten.clang"
  },
  "schemaVersion": "3.0.11",
  "updatedAt": "2019-08-05T22:53:45.030Z",
  "devdoc": {
    "methods": {
      "deleteUint256(bytes32,uint256)": {
        "details": "Deletes an element from the array identified by the key.\r When an element is deleted from an Array, last element of that array is moved to the index of deleted element.\r",
        "params": {
          "_index": "Index of the element to delete\r",
          "_key": "Unique key to identify the array\r"
        }
      },
      "insertUint256(bytes32,uint256)": {
        "details": "Inserts a uint256 element to the array identified by the key\r",
        "params": {
          "_data": "Element to push into the array\r",
          "_key": "Unique key to identify the array\r"
        }
      },
      "insertUint256Multi(bytes32[],uint256[])": {
        "details": "Inserts multiple uint256 elements to the array identified by the respective keys\r",
        "params": {
          "_data": "Array of data to be inserted in arrays of the respective keys\r",
          "_keys": "Array of keys to identify the data\r"
        }
      },
      "setSecurityToken(address)": {
        "details": "Changes security token atatched to this data store\r",
        "params": {
          "_securityToken": "address of the security token\r"
        }
      },
      "setUint256(bytes32,uint256)": {
        "details": "Stores a uint256 data against a key\r",
        "params": {
          "_data": "Data to be stored against the key\r",
          "_key": "Unique key to identify the data\r"
        }
      },
      "setUint256Array(bytes32,uint256[])": {
        "details": "Stores a uint256 array against a key\r",
        "params": {
          "_data": "Array to be stored against the key\r",
          "_key": "Unique key to identify the array\r"
        }
      },
      "setUint256Multi(bytes32[],uint256[])": {
        "details": "Stores multiple uint256 data against respective keys\r",
        "params": {
          "_data": "Array of data to be stored against the respective keys\r",
          "_keys": "Array of keys to identify the data\r"
        }
      }
    },
    "title": "Data store contract that stores data for all the modules in a central contract.\r"
  },
  "userdoc": {
    "methods": {}
  }
}