{
  "contractName": "DividendCheckpointStorage",
  "abi": [
    {
      "constant": true,
      "inputs": [],
      "name": "EXCLUDED_ADDRESS_LIMIT",
      "outputs": [
        {
          "name": "",
          "type": "uint256"
        }
      ],
      "payable": false,
      "stateMutability": "view",
      "type": "function"
    },
    {
      "constant": true,
      "inputs": [
        {
          "name": "",
          "type": "address"
        }
      ],
      "name": "investorWithheld",
      "outputs": [
        {
          "name": "",
          "type": "uint256"
        }
      ],
      "payable": false,
      "stateMutability": "view",
      "type": "function"
    },
    {
      "constant": true,
      "inputs": [],
      "name": "wallet",
      "outputs": [
        {
          "name": "",
          "type": "address"
        }
      ],
      "payable": false,
      "stateMutability": "view",
      "type": "function"
    },
    {
      "constant": true,
      "inputs": [
        {
          "name": "",
          "type": "address"
        }
      ],
      "name": "withholdingTax",
      "outputs": [
        {
          "name": "",
          "type": "uint256"
        }
      ],
      "payable": false,
      "stateMutability": "view",
      "type": "function"
    },
    {
      "constant": true,
      "inputs": [
        {
          "name": "",
          "type": "uint256"
        }
      ],
      "name": "dividends",
      "outputs": [
        {
          "name": "checkpointId",
          "type": "uint256"
        },
        {
          "name": "created",
          "type": "uint256"
        },
        {
          "name": "maturity",
          "type": "uint256"
        },
        {
          "name": "expiry",
          "type": "uint256"
        },
        {
          "name": "amount",
          "type": "uint256"
        },
        {
          "name": "claimedAmount",
          "type": "uint256"
        },
        {
          "name": "totalSupply",
          "type": "uint256"
        },
        {
          "name": "reclaimed",
          "type": "bool"
        },
        {
          "name": "totalWithheld",
          "type": "uint256"
        },
        {
          "name": "totalWithheldWithdrawn",
          "type": "uint256"
        },
        {
          "name": "name",
          "type": "bytes32"
        }
      ],
      "payable": false,
      "stateMutability": "view",
      "type": "function"
    },
    {
      "constant": true,
      "inputs": [
        {
          "name": "",
          "type": "uint256"
        }
      ],
      "name": "excluded",
      "outputs": [
        {
          "name": "",
          "type": "address"
        }
      ],
      "payable": false,
      "stateMutability": "view",
      "type": "function"
    }
  ],
  "bytecode": "0x6080604052609660015534801561001557600080fd5b5061027b806100256000396000f3fe608060405234801561001057600080fd5b50600436106100625760003560e01c80630a29f591146100675780633f2e316514610081578063521eb273146100a75780637a3e23fd146100cb578063814b3fe0146100f1578063bee2ddc214610166575b600080fd5b61006f610183565b60408051918252519081900360200190f35b61006f6004803603602081101561009757600080fd5b50356001600160a01b0316610189565b6100af61019b565b604080516001600160a01b039092168252519081900360200190f35b61006f600480360360208110156100e157600080fd5b50356001600160a01b03166101aa565b61010e6004803603602081101561010757600080fd5b50356101bc565b604080519b8c5260208c019a909a528a8a019890985260608a0196909652608089019490945260a088019290925260c0870152151560e086015261010085015261012084015261014083015251908190036101600190f35b6100af6004803603602081101561017c57600080fd5b5035610228565b60015481565b60056020526000908152604090205481565b6000546001600160a01b031681565b60046020526000908152604090205481565b600281815481106101c957fe5b60009182526020909120600e9091020180546001820154600283015460038401546004850154600586015460068701546007880154600889015460098a0154600d909a0154989a5096989597949693959294919360ff9091169290918b565b6003818154811061023557fe5b6000918252602090912001546001600160a01b031690508156fea165627a7a723058200f55fca958f58ec19df763f36690fa6d2f7d57ea2714e24e77061fd3df1ba51b0029",
  "source": "pragma solidity 0.5.8;\r\n\r\n/**\r\n * @title Holds the storage variable for the DividendCheckpoint modules (i.e ERC20, Ether)\r\n * @dev abstract contract\r\n */\r\ncontract DividendCheckpointStorage {\r\n\r\n    // Address to which reclaimed dividends and withholding tax is sent\r\n    address payable public wallet;\r\n    uint256 public EXCLUDED_ADDRESS_LIMIT = 150;\r\n\r\n    struct Dividend {\r\n        uint256 checkpointId;\r\n        uint256 created; // Time at which the dividend was created\r\n        uint256 maturity; // Time after which dividend can be claimed - set to 0 to bypass\r\n        uint256 expiry;  // Time until which dividend can be claimed - after this time any remaining amount can be withdrawn by issuer -\r\n                         // set to very high value to bypass\r\n        uint256 amount; // Dividend amount in WEI\r\n        uint256 claimedAmount; // Amount of dividend claimed so far\r\n        uint256 totalSupply; // Total supply at the associated checkpoint (avoids recalculating this)\r\n        bool reclaimed;  // True if expiry has passed and issuer has reclaimed remaining dividend\r\n        uint256 totalWithheld;\r\n        uint256 totalWithheldWithdrawn;\r\n        mapping (address => bool) claimed; // List of addresses which have claimed dividend\r\n        mapping (address => bool) dividendExcluded; // List of addresses which cannot claim dividends\r\n        mapping (address => uint256) withheld; // Amount of tax withheld from claim\r\n        bytes32 name; // Name/title - used for identification\r\n    }\r\n\r\n    // List of all dividends\r\n    Dividend[] public dividends;\r\n\r\n    // List of addresses which cannot claim dividends\r\n    address[] public excluded;\r\n\r\n    // Mapping from address to withholding tax as a percentage * 10**16\r\n    mapping (address => uint256) public withholdingTax;\r\n\r\n    // Total amount of ETH withheld per investor\r\n    mapping(address => uint256) public investorWithheld;\r\n\r\n}\r\n",
  "sourcePath": "C:\\mspace\\polymath-core\\contracts\\storage\\modules\\Checkpoint\\Dividend\\DividendCheckpointStorage.sol",
  "compiler": {
    "name": "solc",
    "version": "0.5.8+commit.23d335f2.Emscripten.clang"
  },
  "schemaVersion": "3.0.11",
  "updatedAt": "2019-08-05T22:52:46.957Z",
  "devdoc": {
    "details": "abstract contract\r",
    "methods": {},
    "title": "Holds the storage variable for the DividendCheckpoint modules (i.e ERC20, Ether)\r"
  },
  "userdoc": {
    "methods": {}
  }
}