{
  "contractName": "DummySTOProxy",
  "abi": [
    {
      "constant": false,
      "inputs": [],
      "name": "proxyOwner",
      "outputs": [
        {
          "name": "",
          "type": "address"
        }
      ],
      "payable": false,
      "stateMutability": "nonpayable",
      "type": "function"
    },
    {
      "constant": true,
      "inputs": [],
      "name": "ADMIN",
      "outputs": [
        {
          "name": "",
          "type": "bytes32"
        }
      ],
      "payable": false,
      "stateMutability": "view",
      "type": "function"
    },
    {
      "constant": true,
      "inputs": [],
      "name": "endTime",
      "outputs": [
        {
          "name": "",
          "type": "uint256"
        }
      ],
      "payable": false,
      "stateMutability": "view",
      "type": "function"
    },
    {
      "constant": true,
      "inputs": [],
      "name": "cap",
      "outputs": [
        {
          "name": "",
          "type": "uint256"
        }
      ],
      "payable": false,
      "stateMutability": "view",
      "type": "function"
    },
    {
      "constant": true,
      "inputs": [],
      "name": "wallet",
      "outputs": [
        {
          "name": "",
          "type": "address"
        }
      ],
      "payable": false,
      "stateMutability": "view",
      "type": "function"
    },
    {
      "constant": false,
      "inputs": [],
      "name": "version",
      "outputs": [
        {
          "name": "",
          "type": "string"
        }
      ],
      "payable": false,
      "stateMutability": "nonpayable",
      "type": "function"
    },
    {
      "constant": false,
      "inputs": [
        {
          "name": "_newVersion",
          "type": "string"
        },
        {
          "name": "_newImplementation",
          "type": "address"
        }
      ],
      "name": "upgradeTo",
      "outputs": [],
      "payable": false,
      "stateMutability": "nonpayable",
      "type": "function"
    },
    {
      "constant": false,
      "inputs": [],
      "name": "implementation",
      "outputs": [
        {
          "name": "",
          "type": "address"
        }
      ],
      "payable": false,
      "stateMutability": "nonpayable",
      "type": "function"
    },
    {
      "constant": true,
      "inputs": [],
      "name": "paused",
      "outputs": [
        {
          "name": "",
          "type": "bool"
        }
      ],
      "payable": false,
      "stateMutability": "view",
      "type": "function"
    },
    {
      "constant": true,
      "inputs": [],
      "name": "totalTokensSold",
      "outputs": [
        {
          "name": "",
          "type": "uint256"
        }
      ],
      "payable": false,
      "stateMutability": "view",
      "type": "function"
    },
    {
      "constant": true,
      "inputs": [
        {
          "name": "",
          "type": "address"
        }
      ],
      "name": "investors",
      "outputs": [
        {
          "name": "",
          "type": "uint256"
        }
      ],
      "payable": false,
      "stateMutability": "view",
      "type": "function"
    },
    {
      "constant": true,
      "inputs": [],
      "name": "polyToken",
      "outputs": [
        {
          "name": "",
          "type": "address"
        }
      ],
      "payable": false,
      "stateMutability": "view",
      "type": "function"
    },
    {
      "constant": true,
      "inputs": [],
      "name": "startTime",
      "outputs": [
        {
          "name": "",
          "type": "uint256"
        }
      ],
      "payable": false,
      "stateMutability": "view",
      "type": "function"
    },
    {
      "constant": false,
      "inputs": [
        {
          "name": "_newVersion",
          "type": "string"
        },
        {
          "name": "_newImplementation",
          "type": "address"
        },
        {
          "name": "_data",
          "type": "bytes"
        }
      ],
      "name": "upgradeToAndCall",
      "outputs": [],
      "payable": true,
      "stateMutability": "payable",
      "type": "function"
    },
    {
      "constant": true,
      "inputs": [],
      "name": "OPERATOR",
      "outputs": [
        {
          "name": "",
          "type": "bytes32"
        }
      ],
      "payable": false,
      "stateMutability": "view",
      "type": "function"
    },
    {
      "constant": true,
      "inputs": [],
      "name": "pausedTime",
      "outputs": [
        {
          "name": "",
          "type": "uint256"
        }
      ],
      "payable": false,
      "stateMutability": "view",
      "type": "function"
    },
    {
      "constant": true,
      "inputs": [],
      "name": "securityToken",
      "outputs": [
        {
          "name": "",
          "type": "address"
        }
      ],
      "payable": false,
      "stateMutability": "view",
      "type": "function"
    },
    {
      "constant": true,
      "inputs": [],
      "name": "factory",
      "outputs": [
        {
          "name": "",
          "type": "address"
        }
      ],
      "payable": false,
      "stateMutability": "view",
      "type": "function"
    },
    {
      "constant": true,
      "inputs": [
        {
          "name": "",
          "type": "uint8"
        }
      ],
      "name": "fundsRaised",
      "outputs": [
        {
          "name": "",
          "type": "uint256"
        }
      ],
      "payable": false,
      "stateMutability": "view",
      "type": "function"
    },
    {
      "constant": true,
      "inputs": [
        {
          "name": "",
          "type": "uint8"
        }
      ],
      "name": "fundRaiseTypes",
      "outputs": [
        {
          "name": "",
          "type": "bool"
        }
      ],
      "payable": false,
      "stateMutability": "view",
      "type": "function"
    },
    {
      "constant": true,
      "inputs": [],
      "name": "investorCount",
      "outputs": [
        {
          "name": "",
          "type": "uint256"
        }
      ],
      "payable": false,
      "stateMutability": "view",
      "type": "function"
    },
    {
      "constant": true,
      "inputs": [],
      "name": "someString",
      "outputs": [
        {
          "name": "",
          "type": "string"
        }
      ],
      "payable": false,
      "stateMutability": "view",
      "type": "function"
    },
    {
      "constant": false,
      "inputs": [
        {
          "name": "_newOwner",
          "type": "address"
        }
      ],
      "name": "transferProxyOwnership",
      "outputs": [],
      "payable": false,
      "stateMutability": "nonpayable",
      "type": "function"
    },
    {
      "inputs": [
        {
          "name": "_version",
          "type": "string"
        },
        {
          "name": "_securityToken",
          "type": "address"
        },
        {
          "name": "_polyAddress",
          "type": "address"
        },
        {
          "name": "_implementation",
          "type": "address"
        }
      ],
      "payable": false,
      "stateMutability": "nonpayable",
      "type": "constructor"
    },
    {
      "payable": true,
      "stateMutability": "payable",
      "type": "fallback"
    },
    {
      "anonymous": false,
      "inputs": [
        {
          "indexed": false,
          "name": "_previousOwner",
          "type": "address"
        },
        {
          "indexed": false,
          "name": "_newOwner",
          "type": "address"
        }
      ],
      "name": "ProxyOwnershipTransferred",
      "type": "event"
    },
    {
      "anonymous": false,
      "inputs": [
        {
          "indexed": false,
          "name": "_newVersion",
          "type": "string"
        },
        {
          "indexed": true,
          "name": "_newImplementation",
          "type": "address"
        }
      ],
      "name": "Upgraded",
      "type": "event"
    },
    {
      "anonymous": false,
      "inputs": [
        {
          "indexed": false,
          "name": "account",
          "type": "address"
        }
      ],
      "name": "Pause",
      "type": "event"
    },
    {
      "anonymous": false,
      "inputs": [
        {
          "indexed": false,
          "name": "account",
          "type": "address"
        }
      ],
      "name": "Unpause",
      "type": "event"
    }
  ],
  "bytecode": "0x6080604052600e8054600160a01b60ff02191690553480156200002157600080fd5b506040516200176738038062001767833981018060405260808110156200004757600080fd5b8101908080516401000000008111156200006057600080fd5b820160208101848111156200007457600080fd5b81516401000000008111828201871017156200008f57600080fd5b50506020808301516040840151606090940151600d80546001600160a01b038085166001600160a01b031992831617909255600c8054821633908117909155600e8054938916939092169290921790556001600f5593965090945091620000fa9162000177811b901c565b6001600160a01b0381166200015b576040517f08c379a0000000000000000000000000000000000000000000000000000000008152600401808060200182810382526027815260200180620016bf6027913960400191505060405180910390fd5b6200016d84826200020f60201b60201c565b5050505062000631565b6001600160a01b038116620001ed57604080517f08c379a000000000000000000000000000000000000000000000000000000000815260206004820152601860248201527f416464726573732073686f756c64206e6f742062652030780000000000000000604482015290519081900360640190fd5b601280546001600160a01b0319166001600160a01b0392909216919091179055565b6011546001600160a01b038281169116148015906200023657506001600160a01b03811615155b6200028d576040517f08c379a0000000000000000000000000000000000000000000000000000000008152600401808060200182810382526046815260200180620016e66046913960600191505060405180910390fd5b620002a3816200058660201b62000eb61760201c565b620002fa576040517f08c379a000000000000000000000000000000000000000000000000000000000815260040180806020018281038252603b8152602001806200172c603b913960400191505060405180910390fd5b600082511162000356576040517f08c379a00000000000000000000000000000000000000000000000000000000081526004018080602001828103825260228152602001806200169d6022913960400191505060405180910390fd5b816040516020018082805190602001908083835b602083106200038b5780518252601f1990920191602091820191016200036a565b6001836020036101000a03801982511681845116808217855250505050505090500191505060405160208183030381529060405280519060200120601060405160200180828054600181600116156101000203166002900480156200042a5780601f10620004075761010080835404028352918201916200042a565b820191906000526020600020905b81548152906001019060200180831162000415575b5050915050604051602081830303815290604052805190602001201415620004b357604080517f08c379a000000000000000000000000000000000000000000000000000000000815260206004820152601d60248201527f4e65772076657273696f6e20657175616c7320746f2063757272656e74000000604482015290519081900360640190fd5b8151620004c89060109060208501906200058c565b50601180546001600160a01b0319166001600160a01b03831690811790915560408051602080825285518183015285517f8e05e0e35ff592971ca8b477d4285a33a61ded208d644042667b78693a472f5e938793928392918301919085019080838360005b83811015620005475781810151838201526020016200052d565b50505050905090810190601f168015620005755780820380516001836020036101000a031916815260200191505b509250505060405180910390a25050565b3b151590565b828054600181600116156101000203166002900490600052602060002090601f016020900481019282601f10620005cf57805160ff1916838001178555620005ff565b82800160010185558215620005ff579182015b82811115620005ff578251825591602001919060010190620005e2565b506200060d92915062000611565b5090565b6200062e91905b808211156200060d576000815560010162000618565b90565b61105c80620006416000396000f3fe6080604052600436106101405760003560e01c80636faa22a5116100b6578063c45a01551161006f578063c45a0155146104af578063c4d2c6bd146104c4578063d143a379146104f1578063d7e64c001461051e578063e7a96f6d14610533578063f1739cae1461054857610140565b80636faa22a51461037757806378e979251461038c578063958a41dd146103a1578063983d273714610470578063b2cca39d14610485578063b84dfbd21461049a57610140565b806354fd4d501161010857806354fd4d50146101e15780635a8b1a9f1461026b5780635c60da1b146102f15780635c975abb1461030657806363b201171461032f5780636f7bc9be1461034457610140565b8063025313a21461014a5780632a0acc6a1461017b5780633197cbb6146101a2578063355274ea146101b7578063521eb273146101cc575b61014861057b565b005b34801561015657600080fd5b5061015f61058d565b604080516001600160a01b039092168252519081900360200190f35b34801561018757600080fd5b506101906105ca565b60408051918252519081900360200190f35b3480156101ae57600080fd5b506101906105d9565b3480156101c357600080fd5b506101906105df565b3480156101d857600080fd5b5061015f6105e5565b3480156101ed57600080fd5b506101f66105f4565b6040805160208082528351818301528351919283929083019185019080838360005b83811015610230578181015183820152602001610218565b50505050905090810190601f16801561025d5780820380516001836020036101000a031916815260200191505b509250505060405180910390f35b34801561027757600080fd5b506101486004803603604081101561028e57600080fd5b8101906020810181356401000000008111156102a957600080fd5b8201836020820111156102bb57600080fd5b803590602001918460018302840111640100000000831117156102dd57600080fd5b9193509150356001600160a01b03166106a9565b3480156102fd57600080fd5b5061015f61071d565b34801561031257600080fd5b5061031b610748565b604080519115158252519081900360200190f35b34801561033b57600080fd5b50610190610758565b34801561035057600080fd5b506101906004803603602081101561036757600080fd5b50356001600160a01b031661075e565b34801561038357600080fd5b5061015f610770565b34801561039857600080fd5b5061019061077f565b610148600480360360608110156103b757600080fd5b8101906020810181356401000000008111156103d257600080fd5b8201836020820111156103e457600080fd5b8035906020019184600183028401116401000000008311171561040657600080fd5b919390926001600160a01b038335169260408101906020013564010000000081111561043157600080fd5b82018360208201111561044357600080fd5b8035906020019184600183028401116401000000008311171561046557600080fd5b509092509050610785565b34801561047c57600080fd5b5061019061082f565b34801561049157600080fd5b50610190610841565b3480156104a657600080fd5b5061015f610847565b3480156104bb57600080fd5b5061015f610856565b3480156104d057600080fd5b50610190600480360360208110156104e757600080fd5b503560ff16610865565b3480156104fd57600080fd5b5061031b6004803603602081101561051457600080fd5b503560ff16610877565b34801561052a57600080fd5b5061019061088c565b34801561053f57600080fd5b506101f6610892565b34801561055457600080fd5b506101486004803603602081101561056b57600080fd5b50356001600160a01b031661091d565b61058b610586610a00565b610a0f565b565b6000610597610a33565b6001600160a01b0316336001600160a01b031614156105bf576105b8610a33565b90506105c7565b6105c761057b565b90565b600160d91b6420a226a4a70281565b60075481565b60015481565b600a546001600160a01b031681565b60606105fe610a33565b6001600160a01b0316336001600160a01b031614156105bf576010805460408051602060026001851615610100026000190190941693909304601f8101849004840282018401909252818152929183018282801561069d5780601f106106725761010080835404028352916020019161069d565b820191906000526020600020905b81548152906001019060200180831161068057829003601f168201915b505050505090506105c7565b6106b1610a33565b6001600160a01b0316336001600160a01b031614156107105761070b83838080601f016020809104026020016040519081016040528093929190818152602001838380828437600092019190915250859250610a42915050565b610718565b61071861057b565b505050565b6000610727610a33565b6001600160a01b0316336001600160a01b031614156105bf576105b8610a00565b600e54600160a01b900460ff1681565b600b5481565b60036020526000908152604090205481565b600e546001600160a01b031681565b60065481565b61078d610a33565b6001600160a01b0316336001600160a01b031614156108205761081b85858080601f01602080910402602001604051908101604052809392919081815260200183838082843760009201919091525050604080516020601f880181900481028201810190925286815288935091508690869081908401838280828437600092019190915250610d3d92505050565b610828565b61082861057b565b5050505050565b600160c11b6727a822a920aa27a90281565b60085481565b600d546001600160a01b031681565b600c546001600160a01b031681565b60056020526000908152604090205481565b60046020526000908152604090205460ff1681565b60095481565b6002805460408051602060018416156101000260001901909316849004601f810184900484028201840190925281815292918301828280156109155780601f106108ea57610100808354040283529160200191610915565b820191906000526020600020905b8154815290600101906020018083116108f857829003601f168201915b505050505081565b610925610a33565b6001600160a01b0316336001600160a01b031614156109f5576001600160a01b03811661099c5760408051600160e51b62461bcd02815260206004820152601860248201527f416464726573732073686f756c64206e6f742062652030780000000000000000604482015290519081900360640190fd5b7f5a3e66efaa1e445ebd894728a69d6959842ea1e97bd79b892797106e270efcd96109c5610a33565b604080516001600160a01b03928316815291841660208301528051918290030190a16109f081610e36565b6109fd565b6109fd61057b565b50565b6011546001600160a01b031690565b3660008037600080366000845af43d6000803e808015610a2e573d6000f35b3d6000fd5b6012546001600160a01b031690565b6011546001600160a01b03828116911614801590610a6857506001600160a01b03811615155b610aa657604051600160e51b62461bcd028152600401808060200182810382526046815260200180610fb06046913960600191505060405180910390fd5b610aaf81610eb6565b610aed57604051600160e51b62461bcd02815260040180806020018281038252603b815260200180610ff6603b913960400191505060405180910390fd5b6000825111610b3057604051600160e51b62461bcd028152600401808060200182810382526022815260200180610f556022913960400191505060405180910390fd5b816040516020018082805190602001908083835b60208310610b635780518252601f199092019160209182019101610b44565b6001836020036101000a0380198251168184511680821785525050505050509050019150506040516020818303038152906040528051906020012060106040516020018082805460018160011615610100020316600290048015610bfe5780601f10610bdc576101008083540402835291820191610bfe565b820191906000526020600020905b815481529060010190602001808311610bea575b5050915050604051602081830303815290604052805190602001201415610c6f5760408051600160e51b62461bcd02815260206004820152601d60248201527f4e65772076657273696f6e20657175616c7320746f2063757272656e74000000604482015290519081900360640190fd5b8151610c82906010906020850190610ebc565b50601180546001600160a01b0319166001600160a01b03831690811790915560408051602080825285518183015285517f8e05e0e35ff592971ca8b477d4285a33a61ded208d644042667b78693a472f5e938793928392918301919085019080838360005b83811015610cff578181015183820152602001610ce7565b50505050905090810190601f168015610d2c5780820380516001836020036101000a031916815260200191505b509250505060405180910390a25050565b610d478383610a42565b6000306001600160a01b031634836040518082805190602001908083835b60208310610d845780518252601f199092019160209182019101610d65565b6001836020036101000a03801982511681845116808217855250505050505090500191505060006040518083038185875af1925050503d8060008114610de6576040519150601f19603f3d011682016040523d82523d6000602084013e610deb565b606091505b50508091505080610e3057604051600160e51b62461bcd028152600401808060200182810382526039815260200180610f776039913960400191505060405180910390fd5b50505050565b6001600160a01b038116610e945760408051600160e51b62461bcd02815260206004820152601860248201527f416464726573732073686f756c64206e6f742062652030780000000000000000604482015290519081900360640190fd5b601280546001600160a01b0319166001600160a01b0392909216919091179055565b3b151590565b828054600181600116156101000203166002900490600052602060002090601f016020900481019282601f10610efd57805160ff1916838001178555610f2a565b82800160010185558215610f2a579182015b82811115610f2a578251825591602001919060010190610f0f565b50610f36929150610f3a565b5090565b6105c791905b80821115610f365760008155600101610f4056fe56657273696f6e2073686f756c64206e6f7420626520656d70747920737472696e674661696c20696e20657865637574696e67207468652066756e6374696f6e206f6620696d706c656d656e746174696f6e20636f6e74726163744f6c642061646472657373206973206e6f7420616c6c6f77656420616e6420696d706c656d656e746174696f6e20616464726573732073686f756c64206e6f7420626520307843616e6e6f742073657420612070726f787920696d706c656d656e746174696f6e20746f2061206e6f6e2d636f6e74726163742061646472657373a165627a7a7230582047412a03db801886cbeff60213a54a77cca57e55f55cc8f339e792466b601abc002956657273696f6e2073686f756c64206e6f7420626520656d70747920737472696e67496d706c656d656e746174696f6e20616464726573732073686f756c64206e6f742062652030784f6c642061646472657373206973206e6f7420616c6c6f77656420616e6420696d706c656d656e746174696f6e20616464726573732073686f756c64206e6f7420626520307843616e6e6f742073657420612070726f787920696d706c656d656e746174696f6e20746f2061206e6f6e2d636f6e74726163742061646472657373",
  "source": "pragma solidity 0.5.8;\r\n\r\nimport \"../../proxy/OwnedUpgradeabilityProxy.sol\";\r\nimport \"../../Pausable.sol\";\r\nimport \"openzeppelin-solidity/contracts/utils/ReentrancyGuard.sol\";\r\nimport \"../../storage/modules/STO/STOStorage.sol\";\r\nimport \"../../storage/modules/ModuleStorage.sol\";\r\nimport \"./DummySTOStorage.sol\";\r\n\r\n/**\r\n * @title DummySTO module Proxy\r\n */\r\ncontract DummySTOProxy is DummySTOStorage, STOStorage, ModuleStorage, Pausable, ReentrancyGuard, OwnedUpgradeabilityProxy {\r\n\r\n    /**\r\n    * @notice Constructor\r\n    * @param _securityToken Address of the security token\r\n    * @param _polyAddress Address of the polytoken\r\n    * @param _implementation representing the address of the new implementation to be set\r\n    */\r\n    constructor (\r\n        string memory _version,\r\n        address _securityToken,\r\n        address _polyAddress,\r\n        address _implementation\r\n    )\r\n        public\r\n        ModuleStorage(_securityToken, _polyAddress)\r\n    {\r\n        require(\r\n            _implementation != address(0),\r\n            \"Implementation address should not be 0x\"\r\n        );\r\n        _upgradeTo(_version, _implementation);\r\n    }\r\n\r\n}\r\n",
  "sourcePath": "C:\\mspace\\polymath-core\\contracts\\mocks\\Dummy\\DummySTOProxy.sol",
  "compiler": {
    "name": "solc",
    "version": "0.5.8+commit.23d335f2.Emscripten.clang"
  },
  "schemaVersion": "3.0.11",
  "updatedAt": "2019-08-05T22:52:46.710Z",
  "devdoc": {
    "methods": {
      "constructor": {
        "params": {
          "_implementation": "representing the address of the new implementation to be set\r",
          "_polyAddress": "Address of the polytoken\r",
          "_securityToken": "Address of the security token\r"
        }
      },
      "implementation()": {
        "details": "Tells the address of the current implementation\r",
        "return": "address of the current implementation\r"
      },
      "proxyOwner()": {
        "details": "Tells the address of the proxy owner\r",
        "return": "the address of the proxy owner\r"
      },
      "transferProxyOwnership(address)": {
        "details": "Allows the current owner to transfer control of the contract to a newOwner.\r",
        "params": {
          "_newOwner": "The address to transfer ownership to.\r"
        }
      },
      "upgradeTo(string,address)": {
        "details": "Allows the upgradeability owner to upgrade the current version of the proxy.\r",
        "params": {
          "_newImplementation": "representing the address of the new implementation to be set.\r",
          "_newVersion": "representing the version name of the new implementation to be set.\r"
        }
      },
      "upgradeToAndCall(string,address,bytes)": {
        "details": "Allows the upgradeability owner to upgrade the current version of the proxy and call the new implementation\r to initialize whatever is needed through a low level call.\r",
        "params": {
          "_data": "represents the msg.data to bet sent in the low level call. This parameter may include the function\r signature of the implementation to be called with the needed payload\r",
          "_newImplementation": "representing the address of the new implementation to be set.\r",
          "_newVersion": "representing the version name of the new implementation to be set.\r"
        }
      },
      "version()": {
        "details": "Tells the version name of the current implementation\r",
        "return": "string representing the name of the current version\r"
      }
    },
    "title": "DummySTO module Proxy\r"
  },
  "userdoc": {
    "methods": {
      "constructor": "Constructor\r"
    }
  }
}