{
  "contractName": "DummySTOStorage",
  "abi": [
    {
      "constant": true,
      "inputs": [],
      "name": "cap",
      "outputs": [
        {
          "name": "",
          "type": "uint256"
        }
      ],
      "payable": false,
      "stateMutability": "view",
      "type": "function"
    },
    {
      "constant": true,
      "inputs": [
        {
          "name": "",
          "type": "address"
        }
      ],
      "name": "investors",
      "outputs": [
        {
          "name": "",
          "type": "uint256"
        }
      ],
      "payable": false,
      "stateMutability": "view",
      "type": "function"
    },
    {
      "constant": true,
      "inputs": [],
      "name": "investorCount",
      "outputs": [
        {
          "name": "",
          "type": "uint256"
        }
      ],
      "payable": false,
      "stateMutability": "view",
      "type": "function"
    },
    {
      "constant": true,
      "inputs": [],
      "name": "someString",
      "outputs": [
        {
          "name": "",
          "type": "string"
        }
      ],
      "payable": false,
      "stateMutability": "view",
      "type": "function"
    }
  ],
  "bytecode": "0x608060405234801561001057600080fd5b506101eb806100206000396000f3fe608060405234801561001057600080fd5b506004361061004c5760003560e01c8063355274ea146100515780636f7bc9be1461006b578063d7e64c0014610091578063e7a96f6d14610099575b600080fd5b610059610116565b60408051918252519081900360200190f35b6100596004803603602081101561008157600080fd5b50356001600160a01b031661011c565b61005961012e565b6100a1610134565b6040805160208082528351818301528351919283929083019185019080838360005b838110156100db5781810151838201526020016100c3565b50505050905090810190601f1680156101085780820380516001836020036101000a031916815260200191505b509250505060405180910390f35b60015481565b60036020526000908152604090205481565b60005481565b6002805460408051602060018416156101000260001901909316849004601f810184900484028201840190925281815292918301828280156101b75780601f1061018c576101008083540402835291602001916101b7565b820191906000526020600020905b81548152906001019060200180831161019a57829003601f168201915b50505050508156fea165627a7a72305820aae11cae8fba05f37cf07721c9d3d8ffc8d9d4215cbfc356237f4f2b54c766230029",
  "source": "pragma solidity 0.5.8;\r\n\r\n/**\r\n * @title Contract used to store layout for the DummySTO storage\r\n */\r\ncontract DummySTOStorage {\r\n\r\n    uint256 public investorCount;\r\n\r\n    uint256 public cap;\r\n    string public someString;\r\n\r\n    mapping (address => uint256) public investors;\r\n\r\n}\r\n",
  "sourcePath": "C:\\mspace\\polymath-core\\contracts\\mocks\\Dummy\\DummySTOStorage.sol",
  "compiler": {
    "name": "solc",
    "version": "0.5.8+commit.23d335f2.Emscripten.clang"
  },
  "schemaVersion": "3.0.11",
  "updatedAt": "2019-08-05T22:52:46.712Z",
  "devdoc": {
    "methods": {},
    "title": "Contract used to store layout for the DummySTO storage\r"
  },
  "userdoc": {
    "methods": {}
  }
}