{
  "contractName": "DummySTO",
  "abi": [
    {
      "constant": false,
      "inputs": [],
      "name": "reclaimETH",
      "outputs": [],
      "payable": false,
      "stateMutability": "nonpayable",
      "type": "function"
    },
    {
      "constant": true,
      "inputs": [],
      "name": "ADMIN",
      "outputs": [
        {
          "name": "",
          "type": "bytes32"
        }
      ],
      "payable": false,
      "stateMutability": "view",
      "type": "function"
    },
    {
      "constant": true,
      "inputs": [],
      "name": "endTime",
      "outputs": [
        {
          "name": "",
          "type": "uint256"
        }
      ],
      "payable": false,
      "stateMutability": "view",
      "type": "function"
    },
    {
      "constant": true,
      "inputs": [],
      "name": "cap",
      "outputs": [
        {
          "name": "",
          "type": "uint256"
        }
      ],
      "payable": false,
      "stateMutability": "view",
      "type": "function"
    },
    {
      "constant": false,
      "inputs": [],
      "name": "unpause",
      "outputs": [],
      "payable": false,
      "stateMutability": "nonpayable",
      "type": "function"
    },
    {
      "constant": true,
      "inputs": [],
      "name": "wallet",
      "outputs": [
        {
          "name": "",
          "type": "address"
        }
      ],
      "payable": false,
      "stateMutability": "view",
      "type": "function"
    },
    {
      "constant": true,
      "inputs": [],
      "name": "paused",
      "outputs": [
        {
          "name": "",
          "type": "bool"
        }
      ],
      "payable": false,
      "stateMutability": "view",
      "type": "function"
    },
    {
      "constant": true,
      "inputs": [],
      "name": "totalTokensSold",
      "outputs": [
        {
          "name": "",
          "type": "uint256"
        }
      ],
      "payable": false,
      "stateMutability": "view",
      "type": "function"
    },
    {
      "constant": true,
      "inputs": [
        {
          "name": "",
          "type": "address"
        }
      ],
      "name": "investors",
      "outputs": [
        {
          "name": "",
          "type": "uint256"
        }
      ],
      "payable": false,
      "stateMutability": "view",
      "type": "function"
    },
    {
      "constant": true,
      "inputs": [],
      "name": "polyToken",
      "outputs": [
        {
          "name": "",
          "type": "address"
        }
      ],
      "payable": false,
      "stateMutability": "view",
      "type": "function"
    },
    {
      "constant": true,
      "inputs": [],
      "name": "startTime",
      "outputs": [
        {
          "name": "",
          "type": "uint256"
        }
      ],
      "payable": false,
      "stateMutability": "view",
      "type": "function"
    },
    {
      "constant": false,
      "inputs": [],
      "name": "pause",
      "outputs": [],
      "payable": false,
      "stateMutability": "nonpayable",
      "type": "function"
    },
    {
      "constant": false,
      "inputs": [
        {
          "name": "_tokenContract",
          "type": "address"
        }
      ],
      "name": "reclaimERC20",
      "outputs": [],
      "payable": false,
      "stateMutability": "nonpayable",
      "type": "function"
    },
    {
      "constant": true,
      "inputs": [],
      "name": "OPERATOR",
      "outputs": [
        {
          "name": "",
          "type": "bytes32"
        }
      ],
      "payable": false,
      "stateMutability": "view",
      "type": "function"
    },
    {
      "constant": true,
      "inputs": [
        {
          "name": "_fundRaiseType",
          "type": "uint8"
        }
      ],
      "name": "getRaised",
      "outputs": [
        {
          "name": "",
          "type": "uint256"
        }
      ],
      "payable": false,
      "stateMutability": "view",
      "type": "function"
    },
    {
      "constant": true,
      "inputs": [],
      "name": "pausedTime",
      "outputs": [
        {
          "name": "",
          "type": "uint256"
        }
      ],
      "payable": false,
      "stateMutability": "view",
      "type": "function"
    },
    {
      "constant": true,
      "inputs": [],
      "name": "securityToken",
      "outputs": [
        {
          "name": "",
          "type": "address"
        }
      ],
      "payable": false,
      "stateMutability": "view",
      "type": "function"
    },
    {
      "constant": true,
      "inputs": [],
      "name": "factory",
      "outputs": [
        {
          "name": "",
          "type": "address"
        }
      ],
      "payable": false,
      "stateMutability": "view",
      "type": "function"
    },
    {
      "constant": true,
      "inputs": [
        {
          "name": "",
          "type": "uint8"
        }
      ],
      "name": "fundsRaised",
      "outputs": [
        {
          "name": "",
          "type": "uint256"
        }
      ],
      "payable": false,
      "stateMutability": "view",
      "type": "function"
    },
    {
      "constant": true,
      "inputs": [
        {
          "name": "",
          "type": "uint8"
        }
      ],
      "name": "fundRaiseTypes",
      "outputs": [
        {
          "name": "",
          "type": "bool"
        }
      ],
      "payable": false,
      "stateMutability": "view",
      "type": "function"
    },
    {
      "constant": true,
      "inputs": [],
      "name": "investorCount",
      "outputs": [
        {
          "name": "",
          "type": "uint256"
        }
      ],
      "payable": false,
      "stateMutability": "view",
      "type": "function"
    },
    {
      "constant": true,
      "inputs": [],
      "name": "someString",
      "outputs": [
        {
          "name": "",
          "type": "string"
        }
      ],
      "payable": false,
      "stateMutability": "view",
      "type": "function"
    },
    {
      "constant": true,
      "inputs": [],
      "name": "getDataStore",
      "outputs": [
        {
          "name": "",
          "type": "address"
        }
      ],
      "payable": false,
      "stateMutability": "view",
      "type": "function"
    },
    {
      "inputs": [
        {
          "name": "_securityToken",
          "type": "address"
        },
        {
          "name": "_polyToken",
          "type": "address"
        }
      ],
      "payable": false,
      "stateMutability": "nonpayable",
      "type": "constructor"
    },
    {
      "payable": true,
      "stateMutability": "payable",
      "type": "fallback"
    },
    {
      "anonymous": false,
      "inputs": [
        {
          "indexed": false,
          "name": "_investor",
          "type": "address"
        },
        {
          "indexed": false,
          "name": "_amount",
          "type": "uint256"
        }
      ],
      "name": "GenerateTokens",
      "type": "event"
    },
    {
      "anonymous": false,
      "inputs": [
        {
          "indexed": false,
          "name": "account",
          "type": "address"
        }
      ],
      "name": "Pause",
      "type": "event"
    },
    {
      "anonymous": false,
      "inputs": [
        {
          "indexed": false,
          "name": "account",
          "type": "address"
        }
      ],
      "name": "Unpause",
      "type": "event"
    },
    {
      "anonymous": false,
      "inputs": [
        {
          "indexed": false,
          "name": "_fundRaiseTypes",
          "type": "uint8[]"
        }
      ],
      "name": "SetFundRaiseTypes",
      "type": "event"
    },
    {
      "constant": false,
      "inputs": [
        {
          "name": "_startTime",
          "type": "uint256"
        },
        {
          "name": "_endTime",
          "type": "uint256"
        },
        {
          "name": "_cap",
          "type": "uint256"
        },
        {
          "name": "_someString",
          "type": "string"
        }
      ],
      "name": "configure",
      "outputs": [],
      "payable": false,
      "stateMutability": "nonpayable",
      "type": "function"
    },
    {
      "constant": true,
      "inputs": [],
      "name": "getInitFunction",
      "outputs": [
        {
          "name": "",
          "type": "bytes4"
        }
      ],
      "payable": false,
      "stateMutability": "pure",
      "type": "function"
    },
    {
      "constant": false,
      "inputs": [
        {
          "name": "_investor",
          "type": "address"
        },
        {
          "name": "_amount",
          "type": "uint256"
        }
      ],
      "name": "generateTokens",
      "outputs": [],
      "payable": false,
      "stateMutability": "nonpayable",
      "type": "function"
    },
    {
      "constant": true,
      "inputs": [],
      "name": "getNumberInvestors",
      "outputs": [
        {
          "name": "",
          "type": "uint256"
        }
      ],
      "payable": false,
      "stateMutability": "view",
      "type": "function"
    },
    {
      "constant": true,
      "inputs": [],
      "name": "getTokensSold",
      "outputs": [
        {
          "name": "",
          "type": "uint256"
        }
      ],
      "payable": false,
      "stateMutability": "view",
      "type": "function"
    },
    {
      "constant": true,
      "inputs": [],
      "name": "getPermissions",
      "outputs": [
        {
          "name": "",
          "type": "bytes32[]"
        }
      ],
      "payable": false,
      "stateMutability": "view",
      "type": "function"
    }
  ],
  "bytecode": "0x6080604052600e8054600160a01b60ff021916905534801561002057600080fd5b5060405160408061142a8339810180604052604081101561004057600080fd5b508051602090910151600d80546001600160a01b039384166001600160a01b031991821617909155600c8054821633179055600e8054939092169216919091179055611399806100916000396000f3fe6080604052600436106101c25760003560e01c80638456cb59116100f7578063c3a07df611610095578063d7e64c0011610064578063d7e64c00146105d9578063e7a96f6d146105ee578063ee7c0db014610678578063fe58265e1461068d576101c2565b8063c3a07df614610505578063c45a01551461056a578063c4d2c6bd1461057f578063d143a379146105ac576101c2565b8063983d2737116100d1578063983d2737146104995780639a7cc135146104ae578063b2cca39d146104db578063b84dfbd2146104f0576101c2565b80638456cb591461038b5780638905fd4f146103a05780638b310079146103d3576101c2565b8063521eb273116101645780636f7bc9be1161013e5780636f7bc9be146102f55780636faa22a51461032857806378e979251461033d578063827f32c014610352576101c2565b8063521eb273146102865780635c975abb146102b757806363b20117146102e0576101c2565b80633197cbb6116101a05780633197cbb614610232578063355274ea1461024757806338c59de91461025c5780633f4ba83a14610271576101c2565b80630f144a48146101c45780631613ec9d146101d95780632a0acc6a1461020b575b005b3480156101d057600080fd5b506101c26106a2565b3480156101e557600080fd5b506101ee6106da565b604080516001600160e01b03199092168252519081900360200190f35b34801561021757600080fd5b506102206106e9565b60408051918252519081900360200190f35b34801561023e57600080fd5b506102206106f8565b34801561025357600080fd5b506102206106fe565b34801561026857600080fd5b50610220610704565b34801561027d57600080fd5b506101c261070a565b34801561029257600080fd5b5061029b61071c565b604080516001600160a01b039092168252519081900360200190f35b3480156102c357600080fd5b506102cc61072b565b604080519115158252519081900360200190f35b3480156102ec57600080fd5b5061022061073b565b34801561030157600080fd5b506102206004803603602081101561031857600080fd5b50356001600160a01b0316610741565b34801561033457600080fd5b5061029b610753565b34801561034957600080fd5b50610220610762565b34801561035e57600080fd5b506101c26004803603604081101561037557600080fd5b506001600160a01b038135169060200135610768565b34801561039757600080fd5b506101c26109e9565b3480156103ac57600080fd5b506101c2600480360360208110156103c357600080fd5b50356001600160a01b0316610a4a565b3480156103df57600080fd5b506101c2600480360360808110156103f657600080fd5b8135916020810135916040820135919081019060808101606082013564010000000081111561042457600080fd5b82018360208201111561043657600080fd5b8035906020019184600183028401116401000000008311171561045857600080fd5b91908080601f016020809104026020016040519081016040528093929190818152602001838380828437600092019190915250929550610c05945050505050565b3480156104a557600080fd5b50610220610c90565b3480156104ba57600080fd5b50610220600480360360208110156104d157600080fd5b503560ff16610ca2565b3480156104e757600080fd5b50610220610cce565b3480156104fc57600080fd5b5061029b610cd4565b34801561051157600080fd5b5061051a610ce3565b60408051602080825283518183015283519192839290830191858101910280838360005b8381101561055657818101518382015260200161053e565b505050509050019250505060405180910390f35b34801561057657600080fd5b5061029b610d31565b34801561058b57600080fd5b50610220600480360360208110156105a257600080fd5b503560ff16610d40565b3480156105b857600080fd5b506102cc600480360360208110156105cf57600080fd5b503560ff16610d52565b3480156105e557600080fd5b50610220610d67565b3480156105fa57600080fd5b50610603610d6d565b6040805160208082528351818301528351919283929083019185019080838360005b8381101561063d578181015183820152602001610625565b50505050905090810190601f16801561066a5780820380516001836020036101000a031916815260200191505b509250505060405180910390f35b34801561068457600080fd5b50610220610df8565b34801561069957600080fd5b5061029b610dfd565b6106aa610e76565b6040513390303180156108fc02916000818181858888f193505050501580156106d7573d6000803e3d6000fd5b50565b600160e01b638b310079025b90565b600160d91b6420a226a4a70281565b60075481565b60015481565b60095490565b610712610e76565b61071a610f4f565b565b600a546001600160a01b031681565b600e54600160a01b900460ff1681565b600b5481565b60036020526000908152604090205481565b600e546001600160a01b031681565b60065481565b600160d91b6420a226a4a70261077e8133610ff5565b6107d25760408051600160e51b62461bcd02815260206004820152601260248201527f496e76616c6964207065726d697373696f6e0000000000000000000000000000604482015290519081900360640190fd5b600e54600160a01b900460ff16156108345760408051600160e51b62461bcd02815260206004820152601460248201527f53686f756c64206e6f7420626520706175736564000000000000000000000000604482015290519081900360640190fd5b6000821161088c5760408051600160e51b62461bcd02815260206004820152601f60248201527f416d6f756e742073686f756c642062652067726561746572207468616e203000604482015290519081900360640190fd5b6108958361112b565b6108e95760408051600160e51b62461bcd02815260206004820152600c60248201527f556e617574686f72697a65640000000000000000000000000000000000000000604482015290519081900360640190fd5b600d5460408051600160e01b63bb3acde90281526001600160a01b0386811660048301526024820186905260606044830152600060648301819052925193169263bb3acde99260a48084019391929182900301818387803b15801561094d57600080fd5b505af1158015610961573d6000803e3d6000fd5b505050506001600160a01b03831660009081526003602052604090205461098c576009805460010190555b6001600160a01b0383166000818152600360209081526040918290208054860190558151928352820184905280517f49a23d4bd6b4f260675f3199bc5f2ed8d2000b35fbdd81a6635f8dbbd41ff0449281900390910190a1505050565b6007544210610a425760408051600160e51b62461bcd02815260206004820152601660248201527f53544f20686173206265656e2066696e616c697a656400000000000000000000604482015290519081900360640190fd5b61071a6111df565b610a52610e76565b6001600160a01b038116610ab05760408051600160e51b62461bcd02815260206004820152600f60248201527f496e76616c696420616464726573730000000000000000000000000000000000604482015290519081900360640190fd5b60408051600160e01b6370a08231028152306004820152905182916000916001600160a01b038416916370a08231916024808301926020929190829003018186803b158015610afe57600080fd5b505afa158015610b12573d6000803e3d6000fd5b505050506040513d6020811015610b2857600080fd5b505160408051600160e01b63a9059cbb0281523360048201526024810183905290519192506001600160a01b0384169163a9059cbb916044808201926020929091908290030181600087803b158015610b8057600080fd5b505af1158015610b94573d6000803e3d6000fd5b505050506040513d6020811015610baa57600080fd5b5051610c005760408051600160e51b62461bcd02815260206004820152600f60248201527f5472616e73666572206661696c65640000000000000000000000000000000000604482015290519081900360640190fd5b505050565b600c546001600160a01b03163314610c675760408051600160e51b62461bcd02815260206004820152601560248201527f53656e646572206973206e6f7420666163746f72790000000000000000000000604482015290519081900360640190fd5b6006849055600783905560018290558051610c899060029060208401906112d5565b5050505050565b600160c11b6727a822a920aa27a90281565b600060056000836002811115610cb457fe5b60ff16815260208101919091526040016000205492915050565b60085481565b600d546001600160a01b031681565b60408051600180825281830190925260609182919060208083019080388339019050509050600160d91b6420a226a4a70281600081518110610d2157fe5b6020908102919091010152905090565b600c546001600160a01b031681565b60056020526000908152604090205481565b60046020526000908152604090205460ff1681565b60095481565b6002805460408051602060018416156101000260001901909316849004601f81018490048402820184019092528181529291830182828015610df05780601f10610dc557610100808354040283529160200191610df0565b820191906000526020600020905b815481529060010190602001808311610dd357829003601f168201915b505050505081565b600090565b600d5460408051600160e01b63660d0d6702815290516000926001600160a01b03169163660d0d67916004808301926020929190829003018186803b158015610e4557600080fd5b505afa158015610e59573d6000803e3d6000fd5b505050506040513d6020811015610e6f57600080fd5b5051905090565b600d60009054906101000a90046001600160a01b03166001600160a01b0316638da5cb5b6040518163ffffffff1660e01b815260040160206040518083038186803b158015610ec457600080fd5b505afa158015610ed8573d6000803e3d6000fd5b505050506040513d6020811015610eee57600080fd5b50516001600160a01b0316331461071a5760408051600160e51b62461bcd02815260206004820152601360248201527f53656e646572206973206e6f74206f776e657200000000000000000000000000604482015290519081900360640190fd5b600e54600160a01b900460ff16610fb05760408051600160e51b62461bcd02815260206004820152601660248201527f436f6e7472616374206973206e6f742070617573656400000000000000000000604482015290519081900360640190fd5b600e8054600160a01b60ff02191690556040805133815290517faeb196d352664784d1900b0e7414a8face7d29f4dae8c4b0cf68ed477423bbf49181900360200190a1565b600080600d60009054906101000a90046001600160a01b03166001600160a01b0316638da5cb5b6040518163ffffffff1660e01b815260040160206040518083038186803b15801561104657600080fd5b505afa15801561105a573d6000803e3d6000fd5b505050506040513d602081101561107057600080fd5b5051600c546001600160a01b0385811692811683149350161481806110925750805b806111225750600d5460408051600160e01b638658b8b90281526001600160a01b0387811660048301523060248301526044820189905291519190921691638658b8b9916064808301926020929190829003018186803b1580156110f557600080fd5b505afa158015611109573d6000803e3d6000fd5b505050506040513d602081101561111f57600080fd5b50515b95945050505050565b600080611136610dfd565b90506000816001600160a01b03166333598b006111737f494e564553544f52464c41475300000000000000000000000000000000000000876111ef565b6040518263ffffffff1660e01b81526004018082815260200191505060206040518083038186803b1580156111a757600080fd5b505afa1580156111bb573d6000803e3d6000fd5b505050506040513d60208110156111d157600080fd5b505160021615949350505050565b6111e7610e76565b61071a611228565b604080516020808201949094526001600160a01b039290921660601b828201528051808303603401815260549092019052805191012090565b600e54600160a01b900460ff161561128a5760408051600160e51b62461bcd02815260206004820152601260248201527f436f6e7472616374206973207061757365640000000000000000000000000000604482015290519081900360640190fd5b600e8054600160a01b60ff021916600160a01b1790556040805133815290517f5ee71a369c8672edded508e624ffc9257fa1ae6886ef32905c18e60196bca3999181900360200190a1565b828054600181600116156101000203166002900490600052602060002090601f016020900481019282601f1061131657805160ff1916838001178555611343565b82800160010185558215611343579182015b82811115611343578251825591602001919060010190611328565b5061134f929150611353565b5090565b6106e691905b8082111561134f576000815560010161135956fea165627a7a72305820442a37e731320f5fb204085d4c94e683c1101e021b2bad5f6cf280877df3e64c0029",
  "source": "pragma solidity 0.5.8;\r\n\r\nimport \"../../modules/STO/STO.sol\";\r\nimport \"../../interfaces/ISecurityToken.sol\";\r\nimport \"./DummySTOStorage.sol\";\r\n\r\n/**\r\n * @title STO module for sample implementation of a different crowdsale module\r\n */\r\ncontract DummySTO is DummySTOStorage, STO {\r\n\r\n    event GenerateTokens(address _investor, uint256 _amount);\r\n\r\n    /**\r\n     * @notice Constructor\r\n     * @param _securityToken Address of the security token\r\n     */\r\n    constructor(address _securityToken, address _polyToken) public Module(_securityToken, _polyToken) {\r\n\r\n    }\r\n\r\n    /**\r\n     * @notice Function used to intialize the differnet variables\r\n     * @param _startTime Unix timestamp at which offering get started\r\n     * @param _endTime Unix timestamp at which offering get ended\r\n     * @param _cap Maximum No. of tokens for sale\r\n     * @param _someString Any string that contails the details\r\n     */\r\n    function configure(uint256 _startTime, uint256 _endTime, uint256 _cap, string memory _someString) public onlyFactory {\r\n        startTime = _startTime;\r\n        endTime = _endTime;\r\n        cap = _cap;\r\n        someString = _someString;\r\n    }\r\n\r\n    /**\r\n     * @notice This function returns the signature of configure function\r\n     */\r\n    function getInitFunction() public pure returns(bytes4) {\r\n        return this.configure.selector;\r\n    }\r\n\r\n    /**\r\n     * @notice Function used to generate the tokens\r\n     * @param _investor Address of the investor\r\n     * @param _amount Amount of ETH or Poly invested by the investor\r\n     */\r\n    function generateTokens(address _investor, uint256 _amount) public withPerm(ADMIN) {\r\n        require(!paused, \"Should not be paused\");\r\n        require(_amount > 0, \"Amount should be greater than 0\");\r\n        require(_canBuy(_investor), \"Unauthorized\");\r\n        securityToken.issue(_investor, _amount, \"\");\r\n        if (investors[_investor] == 0) {\r\n            investorCount = investorCount + 1;\r\n        }\r\n        //TODO: Add SafeMath maybe\r\n        investors[_investor] = investors[_investor] + _amount;\r\n        emit GenerateTokens(_investor, _amount);\r\n    }\r\n\r\n    /**\r\n     * @notice Returns the total no. of investors\r\n     */\r\n    function getNumberInvestors() public view returns(uint256) {\r\n        return investorCount;\r\n    }\r\n\r\n    /**\r\n     * @notice Returns the total no. of investors\r\n     */\r\n    function getTokensSold() external view returns(uint256) {\r\n        return 0;\r\n    }\r\n\r\n    /**\r\n     * @notice Returns the permissions flag that are associated with STO\r\n     */\r\n    function getPermissions() public view returns(bytes32[] memory) {\r\n        bytes32[] memory allPermissions = new bytes32[](1);\r\n        allPermissions[0] = ADMIN;\r\n        return allPermissions;\r\n    }\r\n\r\n    function () external payable {\r\n        //Payable fallback function to allow us to test leaking ETH\r\n    }\r\n\r\n}\r\n",
  "sourcePath": "C:/mspace/polymath-core/contracts/mocks/Dummy/DummySTO.sol",
  "compiler": {
    "name": "solc",
    "version": "0.5.8+commit.23d335f2.Emscripten.clang"
  },
  "schemaVersion": "3.0.11",
  "updatedAt": "2019-08-05T12:37:19.095Z",
  "devdoc": {
    "methods": {
      "configure(uint256,uint256,uint256,string)": {
        "params": {
          "_cap": "Maximum No. of tokens for sale\r",
          "_endTime": "Unix timestamp at which offering get ended\r",
          "_someString": "Any string that contails the details\r",
          "_startTime": "Unix timestamp at which offering get started\r"
        }
      },
      "constructor": {
        "params": {
          "_securityToken": "Address of the security token\r"
        }
      },
      "generateTokens(address,uint256)": {
        "params": {
          "_amount": "Amount of ETH or Poly invested by the investor\r",
          "_investor": "Address of the investor\r"
        }
      },
      "pause()": {
        "details": "Only securityToken owner restriction applied on the super function\r"
      },
      "reclaimERC20(address)": {
        "details": "We duplicate here due to the overriden owner & onlyOwner\r",
        "params": {
          "_tokenContract": "The address of the token contract\r"
        }
      },
      "reclaimETH()": {
        "details": "We duplicate here due to the overriden owner & onlyOwner\r"
      }
    },
    "title": "STO module for sample implementation of a different crowdsale module\r"
  },
  "userdoc": {
    "methods": {
      "configure(uint256,uint256,uint256,string)": {
        "notice": "Function used to intialize the differnet variables\r"
      },
      "constructor": "Constructor\r",
      "generateTokens(address,uint256)": {
        "notice": "Function used to generate the tokens\r"
      },
      "getDataStore()": {
        "notice": "used to return the data store address of securityToken\r"
      },
      "getInitFunction()": {
        "notice": "This function returns the signature of configure function\r"
      },
      "getNumberInvestors()": {
        "notice": "Returns the total no. of investors\r"
      },
      "getPermissions()": {
        "notice": "Returns the permissions flag that are associated with STO\r"
      },
      "getRaised(uint8)": {
        "notice": "Returns funds raised by the STO\r"
      },
      "getTokensSold()": {
        "notice": "Returns the total no. of investors\r"
      },
      "pause()": {
        "notice": "Pause (overridden function)\r"
      },
      "reclaimERC20(address)": {
        "notice": "Reclaims ERC20Basic compatible tokens\r"
      },
      "reclaimETH()": {
        "notice": "Reclaims ETH\r"
      },
      "unpause()": {
        "notice": "Unpause (overridden function)\r"
      }
    }
  }
}