{
  "contractName": "ERC20DividendCheckpointStorage",
  "abi": [
    {
      "constant": true,
      "inputs": [
        {
          "name": "",
          "type": "uint256"
        }
      ],
      "name": "dividendTokens",
      "outputs": [
        {
          "name": "",
          "type": "address"
        }
      ],
      "payable": false,
      "stateMutability": "view",
      "type": "function"
    }
  ],
  "bytecode": "0x6080604052348015600f57600080fd5b5060aa8061001e6000396000f3fe6080604052348015600f57600080fd5b506004361060285760003560e01c806395ec5bbe14602d575b600080fd5b604760048036036020811015604157600080fd5b50356063565b604080516001600160a01b039092168252519081900360200190f35b6000602081905290815260409020546001600160a01b03168156fea165627a7a72305820cfe11a6657ca8283914ed3e7c93823cd687cc02b3d9a730b26ea07a5ec543d490029",
  "source": "pragma solidity 0.5.8;\r\n\r\n/**\r\n * @title It holds the storage variables related to ERC20DividendCheckpoint module\r\n */\r\ncontract ERC20DividendCheckpointStorage {\r\n    // Mapping to token address for each dividend\r\n    mapping(uint256 => address) public dividendTokens;\r\n\r\n}\r\n",
  "sourcePath": "C:\\mspace\\polymath-core\\contracts\\modules\\Checkpoint\\Dividend\\ERC20\\ERC20DividendCheckpointStorage.sol",
  "compiler": {
    "name": "solc",
    "version": "0.5.8+commit.23d335f2.Emscripten.clang"
  },
  "schemaVersion": "3.0.11",
  "updatedAt": "2019-08-05T22:52:46.753Z",
  "devdoc": {
    "methods": {},
    "title": "It holds the storage variables related to ERC20DividendCheckpoint module\r"
  },
  "userdoc": {
    "methods": {}
  }
}