{
  "contractName": "ERC20DividendCheckpointProxy",
  "abi": [
    {
      "constant": false,
      "inputs": [],
      "name": "proxyOwner",
      "outputs": [
        {
          "name": "",
          "type": "address"
        }
      ],
      "payable": false,
      "stateMutability": "nonpayable",
      "type": "function"
    },
    {
      "constant": true,
      "inputs": [],
      "name": "EXCLUDED_ADDRESS_LIMIT",
      "outputs": [
        {
          "name": "",
          "type": "uint256"
        }
      ],
      "payable": false,
      "stateMutability": "view",
      "type": "function"
    },
    {
      "constant": true,
      "inputs": [],
      "name": "ADMIN",
      "outputs": [
        {
          "name": "",
          "type": "bytes32"
        }
      ],
      "payable": false,
      "stateMutability": "view",
      "type": "function"
    },
    {
      "constant": true,
      "inputs": [
        {
          "name": "",
          "type": "address"
        }
      ],
      "name": "investorWithheld",
      "outputs": [
        {
          "name": "",
          "type": "uint256"
        }
      ],
      "payable": false,
      "stateMutability": "view",
      "type": "function"
    },
    {
      "constant": true,
      "inputs": [],
      "name": "wallet",
      "outputs": [
        {
          "name": "",
          "type": "address"
        }
      ],
      "payable": false,
      "stateMutability": "view",
      "type": "function"
    },
    {
      "constant": false,
      "inputs": [],
      "name": "version",
      "outputs": [
        {
          "name": "",
          "type": "string"
        }
      ],
      "payable": false,
      "stateMutability": "nonpayable",
      "type": "function"
    },
    {
      "constant": false,
      "inputs": [
        {
          "name": "_newVersion",
          "type": "string"
        },
        {
          "name": "_newImplementation",
          "type": "address"
        }
      ],
      "name": "upgradeTo",
      "outputs": [],
      "payable": false,
      "stateMutability": "nonpayable",
      "type": "function"
    },
    {
      "constant": false,
      "inputs": [],
      "name": "implementation",
      "outputs": [
        {
          "name": "",
          "type": "address"
        }
      ],
      "payable": false,
      "stateMutability": "nonpayable",
      "type": "function"
    },
    {
      "constant": true,
      "inputs": [],
      "name": "paused",
      "outputs": [
        {
          "name": "",
          "type": "bool"
        }
      ],
      "payable": false,
      "stateMutability": "view",
      "type": "function"
    },
    {
      "constant": true,
      "inputs": [],
      "name": "polyToken",
      "outputs": [
        {
          "name": "",
          "type": "address"
        }
      ],
      "payable": false,
      "stateMutability": "view",
      "type": "function"
    },
    {
      "constant": true,
      "inputs": [
        {
          "name": "",
          "type": "address"
        }
      ],
      "name": "withholdingTax",
      "outputs": [
        {
          "name": "",
          "type": "uint256"
        }
      ],
      "payable": false,
      "stateMutability": "view",
      "type": "function"
    },
    {
      "constant": true,
      "inputs": [
        {
          "name": "",
          "type": "uint256"
        }
      ],
      "name": "dividends",
      "outputs": [
        {
          "name": "checkpointId",
          "type": "uint256"
        },
        {
          "name": "created",
          "type": "uint256"
        },
        {
          "name": "maturity",
          "type": "uint256"
        },
        {
          "name": "expiry",
          "type": "uint256"
        },
        {
          "name": "amount",
          "type": "uint256"
        },
        {
          "name": "claimedAmount",
          "type": "uint256"
        },
        {
          "name": "totalSupply",
          "type": "uint256"
        },
        {
          "name": "reclaimed",
          "type": "bool"
        },
        {
          "name": "totalWithheld",
          "type": "uint256"
        },
        {
          "name": "totalWithheldWithdrawn",
          "type": "uint256"
        },
        {
          "name": "name",
          "type": "bytes32"
        }
      ],
      "payable": false,
      "stateMutability": "view",
      "type": "function"
    },
    {
      "constant": false,
      "inputs": [
        {
          "name": "_newVersion",
          "type": "string"
        },
        {
          "name": "_newImplementation",
          "type": "address"
        },
        {
          "name": "_data",
          "type": "bytes"
        }
      ],
      "name": "upgradeToAndCall",
      "outputs": [],
      "payable": true,
      "stateMutability": "payable",
      "type": "function"
    },
    {
      "constant": true,
      "inputs": [
        {
          "name": "",
          "type": "uint256"
        }
      ],
      "name": "dividendTokens",
      "outputs": [
        {
          "name": "",
          "type": "address"
        }
      ],
      "payable": false,
      "stateMutability": "view",
      "type": "function"
    },
    {
      "constant": true,
      "inputs": [],
      "name": "OPERATOR",
      "outputs": [
        {
          "name": "",
          "type": "bytes32"
        }
      ],
      "payable": false,
      "stateMutability": "view",
      "type": "function"
    },
    {
      "constant": true,
      "inputs": [],
      "name": "securityToken",
      "outputs": [
        {
          "name": "",
          "type": "address"
        }
      ],
      "payable": false,
      "stateMutability": "view",
      "type": "function"
    },
    {
      "constant": true,
      "inputs": [
        {
          "name": "",
          "type": "uint256"
        }
      ],
      "name": "excluded",
      "outputs": [
        {
          "name": "",
          "type": "address"
        }
      ],
      "payable": false,
      "stateMutability": "view",
      "type": "function"
    },
    {
      "constant": true,
      "inputs": [],
      "name": "factory",
      "outputs": [
        {
          "name": "",
          "type": "address"
        }
      ],
      "payable": false,
      "stateMutability": "view",
      "type": "function"
    },
    {
      "constant": false,
      "inputs": [
        {
          "name": "_newOwner",
          "type": "address"
        }
      ],
      "name": "transferProxyOwnership",
      "outputs": [],
      "payable": false,
      "stateMutability": "nonpayable",
      "type": "function"
    },
    {
      "inputs": [
        {
          "name": "_version",
          "type": "string"
        },
        {
          "name": "_securityToken",
          "type": "address"
        },
        {
          "name": "_polyAddress",
          "type": "address"
        },
        {
          "name": "_implementation",
          "type": "address"
        }
      ],
      "payable": false,
      "stateMutability": "nonpayable",
      "type": "constructor"
    },
    {
      "payable": true,
      "stateMutability": "payable",
      "type": "fallback"
    },
    {
      "anonymous": false,
      "inputs": [
        {
          "indexed": false,
          "name": "_previousOwner",
          "type": "address"
        },
        {
          "indexed": false,
          "name": "_newOwner",
          "type": "address"
        }
      ],
      "name": "ProxyOwnershipTransferred",
      "type": "event"
    },
    {
      "anonymous": false,
      "inputs": [
        {
          "indexed": false,
          "name": "_newVersion",
          "type": "string"
        },
        {
          "indexed": true,
          "name": "_newImplementation",
          "type": "address"
        }
      ],
      "name": "Upgraded",
      "type": "event"
    },
    {
      "anonymous": false,
      "inputs": [
        {
          "indexed": false,
          "name": "account",
          "type": "address"
        }
      ],
      "name": "Pause",
      "type": "event"
    },
    {
      "anonymous": false,
      "inputs": [
        {
          "indexed": false,
          "name": "account",
          "type": "address"
        }
      ],
      "name": "Unpause",
      "type": "event"
    }
  ],
  "bytecode": "0x6080604052609660025560098054600160a01b60ff02191690553480156200002657600080fd5b506040516200175c3803806200175c833981018060405260808110156200004c57600080fd5b8101908080516401000000008111156200006557600080fd5b820160208101848111156200007957600080fd5b81516401000000008111828201871017156200009457600080fd5b50506020808301516040840151606090940151600880546001600160a01b038085166001600160a01b03199283161790925560078054821633908117909155600980549389169390921692909217905593965090945091620000fa9162000177811b901c565b6001600160a01b0381166200015b576040517f08c379a0000000000000000000000000000000000000000000000000000000008152600401808060200182810382526027815260200180620016b46027913960400191505060405180910390fd5b6200016d84826200020f60201b60201c565b5050505062000631565b6001600160a01b038116620001ed57604080517f08c379a000000000000000000000000000000000000000000000000000000000815260206004820152601860248201527f416464726573732073686f756c64206e6f742062652030780000000000000000604482015290519081900360640190fd5b600c80546001600160a01b0319166001600160a01b0392909216919091179055565b600b546001600160a01b038281169116148015906200023657506001600160a01b03811615155b6200028d576040517f08c379a0000000000000000000000000000000000000000000000000000000008152600401808060200182810382526046815260200180620016db6046913960600191505060405180910390fd5b620002a3816200058660201b62000eab1760201c565b620002fa576040517f08c379a000000000000000000000000000000000000000000000000000000000815260040180806020018281038252603b81526020018062001721603b913960400191505060405180910390fd5b600082511162000356576040517f08c379a0000000000000000000000000000000000000000000000000000000008152600401808060200182810382526022815260200180620016926022913960400191505060405180910390fd5b816040516020018082805190602001908083835b602083106200038b5780518252601f1990920191602091820191016200036a565b6001836020036101000a03801982511681845116808217855250505050505090500191505060405160208183030381529060405280519060200120600a60405160200180828054600181600116156101000203166002900480156200042a5780601f10620004075761010080835404028352918201916200042a565b820191906000526020600020905b81548152906001019060200180831162000415575b5050915050604051602081830303815290604052805190602001201415620004b357604080517f08c379a000000000000000000000000000000000000000000000000000000000815260206004820152601d60248201527f4e65772076657273696f6e20657175616c7320746f2063757272656e74000000604482015290519081900360640190fd5b8151620004c890600a9060208501906200058c565b50600b80546001600160a01b0319166001600160a01b03831690811790915560408051602080825285518183015285517f8e05e0e35ff592971ca8b477d4285a33a61ded208d644042667b78693a472f5e938793928392918301919085019080838360005b83811015620005475781810151838201526020016200052d565b50505050905090810190601f168015620005755780820380516001836020036101000a031916815260200191505b509250505060405180910390a25050565b3b151590565b828054600181600116156101000203166002900490600052602060002090601f016020900481019282601f10620005cf57805160ff1916838001178555620005ff565b82800160010185558215620005ff579182015b82811115620005ff578251825591602001919060010190620005e2565b506200060d92915062000611565b5090565b6200062e91905b808211156200060d576000815560010162000618565b90565b61105180620006416000396000f3fe6080604052600436106101145760003560e01c80636faa22a5116100a0578063983d273711610064578063983d2737146104e4578063b84dfbd2146104f9578063bee2ddc21461050e578063c45a015514610538578063f1739cae1461054d57610114565b80636faa22a5146103215780637a3e23fd14610336578063814b3fe014610369578063958a41dd146103eb57806395ec5bbe146104ba57610114565b8063521eb273116100e7578063521eb273146101be57806354fd4d50146101d35780635a8b1a9f1461025d5780635c60da1b146102e35780635c975abb146102f857610114565b8063025313a21461011e5780630a29f5911461014f5780632a0acc6a146101765780633f2e31651461018b575b61011c610580565b005b34801561012a57600080fd5b50610133610592565b604080516001600160a01b039092168252519081900360200190f35b34801561015b57600080fd5b506101646105cf565b60408051918252519081900360200190f35b34801561018257600080fd5b506101646105d5565b34801561019757600080fd5b50610164600480360360208110156101ae57600080fd5b50356001600160a01b03166105e4565b3480156101ca57600080fd5b506101336105f6565b3480156101df57600080fd5b506101e8610605565b6040805160208082528351818301528351919283929083019185019080838360005b8381101561022257818101518382015260200161020a565b50505050905090810190601f16801561024f5780820380516001836020036101000a031916815260200191505b509250505060405180910390f35b34801561026957600080fd5b5061011c6004803603604081101561028057600080fd5b81019060208101813564010000000081111561029b57600080fd5b8201836020820111156102ad57600080fd5b803590602001918460018302840111640100000000831117156102cf57600080fd5b9193509150356001600160a01b03166106ba565b3480156102ef57600080fd5b5061013361072e565b34801561030457600080fd5b5061030d610759565b604080519115158252519081900360200190f35b34801561032d57600080fd5b50610133610769565b34801561034257600080fd5b506101646004803603602081101561035957600080fd5b50356001600160a01b0316610778565b34801561037557600080fd5b506103936004803603602081101561038c57600080fd5b503561078a565b604080519b8c5260208c019a909a528a8a019890985260608a0196909652608089019490945260a088019290925260c0870152151560e086015261010085015261012084015261014083015251908190036101600190f35b61011c6004803603606081101561040157600080fd5b81019060208101813564010000000081111561041c57600080fd5b82018360208201111561042e57600080fd5b8035906020019184600183028401116401000000008311171561045057600080fd5b919390926001600160a01b038335169260408101906020013564010000000081111561047b57600080fd5b82018360208201111561048d57600080fd5b803590602001918460018302840111640100000000831117156104af57600080fd5b5090925090506107f6565b3480156104c657600080fd5b50610133600480360360208110156104dd57600080fd5b50356108a0565b3480156104f057600080fd5b506101646108bb565b34801561050557600080fd5b506101336108cd565b34801561051a57600080fd5b506101336004803603602081101561053157600080fd5b50356108dc565b34801561054457600080fd5b50610133610903565b34801561055957600080fd5b5061011c6004803603602081101561057057600080fd5b50356001600160a01b0316610912565b61059061058b6109f5565b610a04565b565b600061059c610a28565b6001600160a01b0316336001600160a01b031614156105c4576105bd610a28565b90506105cc565b6105cc610580565b90565b60025481565b600160d91b6420a226a4a70281565b60066020526000908152604090205481565b6001546001600160a01b031681565b606061060f610a28565b6001600160a01b0316336001600160a01b031614156105c457600a805460408051602060026001851615610100026000190190941693909304601f810184900484028201840190925281815292918301828280156106ae5780601f10610683576101008083540402835291602001916106ae565b820191906000526020600020905b81548152906001019060200180831161069157829003601f168201915b505050505090506105cc565b6106c2610a28565b6001600160a01b0316336001600160a01b031614156107215761071c83838080601f016020809104026020016040519081016040528093929190818152602001838380828437600092019190915250859250610a37915050565b610729565b610729610580565b505050565b6000610738610a28565b6001600160a01b0316336001600160a01b031614156105c4576105bd6109f5565b600954600160a01b900460ff1681565b6009546001600160a01b031681565b60056020526000908152604090205481565b6003818154811061079757fe5b60009182526020909120600e9091020180546001820154600283015460038401546004850154600586015460068701546007880154600889015460098a0154600d909a0154989a5096989597949693959294919360ff9091169290918b565b6107fe610a28565b6001600160a01b0316336001600160a01b031614156108915761088c85858080601f01602080910402602001604051908101604052809392919081815260200183838082843760009201919091525050604080516020601f880181900481028201810190925286815288935091508690869081908401838280828437600092019190915250610d3292505050565b610899565b610899610580565b5050505050565b6000602081905290815260409020546001600160a01b031681565b600160c11b6727a822a920aa27a90281565b6008546001600160a01b031681565b600481815481106108e957fe5b6000918252602090912001546001600160a01b0316905081565b6007546001600160a01b031681565b61091a610a28565b6001600160a01b0316336001600160a01b031614156109ea576001600160a01b0381166109915760408051600160e51b62461bcd02815260206004820152601860248201527f416464726573732073686f756c64206e6f742062652030780000000000000000604482015290519081900360640190fd5b7f5a3e66efaa1e445ebd894728a69d6959842ea1e97bd79b892797106e270efcd96109ba610a28565b604080516001600160a01b03928316815291841660208301528051918290030190a16109e581610e2b565b6109f2565b6109f2610580565b50565b600b546001600160a01b031690565b3660008037600080366000845af43d6000803e808015610a23573d6000f35b3d6000fd5b600c546001600160a01b031690565b600b546001600160a01b03828116911614801590610a5d57506001600160a01b03811615155b610a9b57604051600160e51b62461bcd028152600401808060200182810382526046815260200180610fa56046913960600191505060405180910390fd5b610aa481610eab565b610ae257604051600160e51b62461bcd02815260040180806020018281038252603b815260200180610feb603b913960400191505060405180910390fd5b6000825111610b2557604051600160e51b62461bcd028152600401808060200182810382526022815260200180610f4a6022913960400191505060405180910390fd5b816040516020018082805190602001908083835b60208310610b585780518252601f199092019160209182019101610b39565b6001836020036101000a03801982511681845116808217855250505050505090500191505060405160208183030381529060405280519060200120600a6040516020018082805460018160011615610100020316600290048015610bf35780601f10610bd1576101008083540402835291820191610bf3565b820191906000526020600020905b815481529060010190602001808311610bdf575b5050915050604051602081830303815290604052805190602001201415610c645760408051600160e51b62461bcd02815260206004820152601d60248201527f4e65772076657273696f6e20657175616c7320746f2063757272656e74000000604482015290519081900360640190fd5b8151610c7790600a906020850190610eb1565b50600b80546001600160a01b0319166001600160a01b03831690811790915560408051602080825285518183015285517f8e05e0e35ff592971ca8b477d4285a33a61ded208d644042667b78693a472f5e938793928392918301919085019080838360005b83811015610cf4578181015183820152602001610cdc565b50505050905090810190601f168015610d215780820380516001836020036101000a031916815260200191505b509250505060405180910390a25050565b610d3c8383610a37565b6000306001600160a01b031634836040518082805190602001908083835b60208310610d795780518252601f199092019160209182019101610d5a565b6001836020036101000a03801982511681845116808217855250505050505090500191505060006040518083038185875af1925050503d8060008114610ddb576040519150601f19603f3d011682016040523d82523d6000602084013e610de0565b606091505b50508091505080610e2557604051600160e51b62461bcd028152600401808060200182810382526039815260200180610f6c6039913960400191505060405180910390fd5b50505050565b6001600160a01b038116610e895760408051600160e51b62461bcd02815260206004820152601860248201527f416464726573732073686f756c64206e6f742062652030780000000000000000604482015290519081900360640190fd5b600c80546001600160a01b0319166001600160a01b0392909216919091179055565b3b151590565b828054600181600116156101000203166002900490600052602060002090601f016020900481019282601f10610ef257805160ff1916838001178555610f1f565b82800160010185558215610f1f579182015b82811115610f1f578251825591602001919060010190610f04565b50610f2b929150610f2f565b5090565b6105cc91905b80821115610f2b5760008155600101610f3556fe56657273696f6e2073686f756c64206e6f7420626520656d70747920737472696e674661696c20696e20657865637574696e67207468652066756e6374696f6e206f6620696d706c656d656e746174696f6e20636f6e74726163744f6c642061646472657373206973206e6f7420616c6c6f77656420616e6420696d706c656d656e746174696f6e20616464726573732073686f756c64206e6f7420626520307843616e6e6f742073657420612070726f787920696d706c656d656e746174696f6e20746f2061206e6f6e2d636f6e74726163742061646472657373a165627a7a72305820495d4924a499b655171f1399365bb9a5987b7455996320d27970f73fc028487e002956657273696f6e2073686f756c64206e6f7420626520656d70747920737472696e67496d706c656d656e746174696f6e20616464726573732073686f756c64206e6f742062652030784f6c642061646472657373206973206e6f7420616c6c6f77656420616e6420696d706c656d656e746174696f6e20616464726573732073686f756c64206e6f7420626520307843616e6e6f742073657420612070726f787920696d706c656d656e746174696f6e20746f2061206e6f6e2d636f6e74726163742061646472657373",
  "source": "pragma solidity 0.5.8;\r\n\r\nimport \"../../../../proxy/OwnedUpgradeabilityProxy.sol\";\r\nimport \"./ERC20DividendCheckpointStorage.sol\";\r\nimport \"../../../../storage/modules/Checkpoint/Dividend/DividendCheckpointStorage.sol\";\r\nimport \"../../../../Pausable.sol\";\r\nimport \"../../../../storage/modules/ModuleStorage.sol\";\r\n\r\n/**\r\n * @title Transfer Manager module for core transfer validation functionality\r\n */\r\ncontract ERC20DividendCheckpointProxy is ERC20DividendCheckpointStorage, DividendCheckpointStorage, ModuleStorage, Pausable, OwnedUpgradeabilityProxy {\r\n    /**\r\n    * @notice Constructor\r\n    * @param _securityToken Address of the security token\r\n    * @param _polyAddress Address of the polytoken\r\n    * @param _implementation representing the address of the new implementation to be set\r\n    */\r\n    constructor(\r\n        string memory _version,\r\n        address _securityToken,\r\n        address _polyAddress,\r\n        address _implementation\r\n    )\r\n        public\r\n        ModuleStorage(_securityToken, _polyAddress)\r\n    {\r\n        require(_implementation != address(0), \"Implementation address should not be 0x\");\r\n        _upgradeTo(_version, _implementation);\r\n    }\r\n\r\n}\r\n",
  "sourcePath": "C:\\mspace\\polymath-core\\contracts\\modules\\Checkpoint\\Dividend\\ERC20\\ERC20DividendCheckpointProxy.sol",
  "compiler": {
    "name": "solc",
    "version": "0.5.8+commit.23d335f2.Emscripten.clang"
  },
  "schemaVersion": "3.0.11",
  "updatedAt": "2019-08-05T22:52:46.751Z",
  "devdoc": {
    "methods": {
      "constructor": {
        "params": {
          "_implementation": "representing the address of the new implementation to be set\r",
          "_polyAddress": "Address of the polytoken\r",
          "_securityToken": "Address of the security token\r"
        }
      },
      "implementation()": {
        "details": "Tells the address of the current implementation\r",
        "return": "address of the current implementation\r"
      },
      "proxyOwner()": {
        "details": "Tells the address of the proxy owner\r",
        "return": "the address of the proxy owner\r"
      },
      "transferProxyOwnership(address)": {
        "details": "Allows the current owner to transfer control of the contract to a newOwner.\r",
        "params": {
          "_newOwner": "The address to transfer ownership to.\r"
        }
      },
      "upgradeTo(string,address)": {
        "details": "Allows the upgradeability owner to upgrade the current version of the proxy.\r",
        "params": {
          "_newImplementation": "representing the address of the new implementation to be set.\r",
          "_newVersion": "representing the version name of the new implementation to be set.\r"
        }
      },
      "upgradeToAndCall(string,address,bytes)": {
        "details": "Allows the upgradeability owner to upgrade the current version of the proxy and call the new implementation\r to initialize whatever is needed through a low level call.\r",
        "params": {
          "_data": "represents the msg.data to bet sent in the low level call. This parameter may include the function\r signature of the implementation to be called with the needed payload\r",
          "_newImplementation": "representing the address of the new implementation to be set.\r",
          "_newVersion": "representing the version name of the new implementation to be set.\r"
        }
      },
      "version()": {
        "details": "Tells the version name of the current implementation\r",
        "return": "string representing the name of the current version\r"
      }
    },
    "title": "Transfer Manager module for core transfer validation functionality\r"
  },
  "userdoc": {
    "methods": {
      "constructor": "Constructor\r"
    }
  }
}