{
  "contractName": "EternalStorage",
  "abi": [
    {
      "constant": true,
      "inputs": [
        {
          "name": "_key",
          "type": "bytes32"
        }
      ],
      "name": "getArrayAddress",
      "outputs": [
        {
          "name": "",
          "type": "address[]"
        }
      ],
      "payable": false,
      "stateMutability": "view",
      "type": "function"
    },
    {
      "constant": true,
      "inputs": [
        {
          "name": "_key",
          "type": "bytes32"
        }
      ],
      "name": "getArrayBytes32",
      "outputs": [
        {
          "name": "",
          "type": "bytes32[]"
        }
      ],
      "payable": false,
      "stateMutability": "view",
      "type": "function"
    },
    {
      "constant": true,
      "inputs": [
        {
          "name": "_key",
          "type": "bytes32"
        }
      ],
      "name": "getArrayUint",
      "outputs": [
        {
          "name": "",
          "type": "uint256[]"
        }
      ],
      "payable": false,
      "stateMutability": "view",
      "type": "function"
    },
    {
      "constant": true,
      "inputs": [
        {
          "name": "_variable",
          "type": "bytes32"
        }
      ],
      "name": "getUintValue",
      "outputs": [
        {
          "name": "",
          "type": "uint256"
        }
      ],
      "payable": false,
      "stateMutability": "view",
      "type": "function"
    },
    {
      "constant": true,
      "inputs": [
        {
          "name": "_variable",
          "type": "bytes32"
        }
      ],
      "name": "getBoolValue",
      "outputs": [
        {
          "name": "",
          "type": "bool"
        }
      ],
      "payable": false,
      "stateMutability": "view",
      "type": "function"
    },
    {
      "constant": true,
      "inputs": [
        {
          "name": "_variable",
          "type": "bytes32"
        }
      ],
      "name": "getStringValue",
      "outputs": [
        {
          "name": "",
          "type": "string"
        }
      ],
      "payable": false,
      "stateMutability": "view",
      "type": "function"
    },
    {
      "constant": true,
      "inputs": [
        {
          "name": "_variable",
          "type": "bytes32"
        }
      ],
      "name": "getAddressValue",
      "outputs": [
        {
          "name": "",
          "type": "address"
        }
      ],
      "payable": false,
      "stateMutability": "view",
      "type": "function"
    },
    {
      "constant": true,
      "inputs": [
        {
          "name": "_variable",
          "type": "bytes32"
        }
      ],
      "name": "getBytes32Value",
      "outputs": [
        {
          "name": "",
          "type": "bytes32"
        }
      ],
      "payable": false,
      "stateMutability": "view",
      "type": "function"
    },
    {
      "constant": true,
      "inputs": [
        {
          "name": "_variable",
          "type": "bytes32"
        }
      ],
      "name": "getBytesValue",
      "outputs": [
        {
          "name": "",
          "type": "bytes"
        }
      ],
      "payable": false,
      "stateMutability": "view",
      "type": "function"
    }
  ],
  "bytecode": "0x608060405234801561001057600080fd5b5061055a806100206000396000f3fe608060405234801561001057600080fd5b50600436106100935760003560e01c80638ffa9690116100665780638ffa9690146101ff578063a209a29c14610230578063a8f0d3a71461024d578063e82617fb1461026a578063f6fcbee11461028757610093565b8063025ec81a1461009857806344bfa56e146100c75780634c77e5ba146101595780636f3b8ce214610192575b600080fd5b6100b5600480360360208110156100ae57600080fd5b50356102a4565b60408051918252519081900360200190f35b6100e4600480360360208110156100dd57600080fd5b50356102b6565b6040805160208082528351818301528351919283929083019185019080838360005b8381101561011e578181015183820152602001610106565b50505050905090810190601f16801561014b5780820380516001836020036101000a031916815260200191505b509250505060405180910390f35b6101766004803603602081101561016f57600080fd5b5035610357565b604080516001600160a01b039092168252519081900360200190f35b6101af600480360360208110156101a857600080fd5b5035610372565b60408051602080825283518183015283519192839290830191858101910280838360005b838110156101eb5781810151838201526020016101d3565b505050509050019250505060405180910390f35b61021c6004803603602081101561021557600080fd5b50356103dd565b604080519115158252519081900360200190f35b6100e46004803603602081101561024657600080fd5b50356103f2565b6101af6004803603602081101561026357600080fd5b503561045b565b6100b56004803603602081101561028057600080fd5b50356104bc565b6101af6004803603602081101561029d57600080fd5b50356104ce565b60009081526006602052604090205490565b60008181526003602090815260409182902080548351601f600260001961010060018616150201909316929092049182018490048402810184019094528084526060939283018282801561034b5780601f106103205761010080835404028352916020019161034b565b820191906000526020600020905b81548152906001019060200180831161032e57829003601f168201915b50505050509050919050565b6000908152600260205260409020546001600160a01b031690565b60008181526009602090815260409182902080548351818402810184019094528084526060939283018282801561034b57602002820191906000526020600020905b81546001600160a01b031681526001909101906020018083116103b45750505050509050919050565b60009081526004602052604090205460ff1690565b60008181526001602081815260409283902080548451600294821615610100026000190190911693909304601f8101839004830284018301909452838352606093909183018282801561034b5780601f106103205761010080835404028352916020019161034b565b60008181526007602090815260409182902080548351818402810184019094528084526060939283018282801561034b57602002820191906000526020600020905b81548152602001906001019080831161049d5750505050509050919050565b60009081526020819052604090205490565b60008181526008602090815260409182902080548351818402810184019094528084526060939283018282801561034b576020028201919060005260206000209081548152602001906001019080831161049d575050505050905091905056fea165627a7a72305820687b05b1ff3fd130f435b08bf77f4959b2c51b10a320e31b232c650a3e03a71c0029",
  "source": "pragma solidity 0.5.8;\r\n\r\ncontract EternalStorage {\r\n    /// @notice Internal mappings used to store all kinds on data into the contract\r\n    mapping(bytes32 => uint256) internal uintStorage;\r\n    mapping(bytes32 => string) internal stringStorage;\r\n    mapping(bytes32 => address) internal addressStorage;\r\n    mapping(bytes32 => bytes) internal bytesStorage;\r\n    mapping(bytes32 => bool) internal boolStorage;\r\n    mapping(bytes32 => int256) internal intStorage;\r\n    mapping(bytes32 => bytes32) internal bytes32Storage;\r\n\r\n    /// @notice Internal mappings used to store arrays of different data types\r\n    mapping(bytes32 => bytes32[]) internal bytes32ArrayStorage;\r\n    mapping(bytes32 => uint256[]) internal uintArrayStorage;\r\n    mapping(bytes32 => address[]) internal addressArrayStorage;\r\n    mapping(bytes32 => string[]) internal stringArrayStorage;\r\n\r\n    //////////////////\r\n    //// set functions\r\n    //////////////////\r\n    /// @notice Set the key values using the Overloaded `set` functions\r\n    /// Ex- string version = \"0.0.1\"; replace to\r\n    /// set(keccak256(abi.encodePacked(\"version\"), \"0.0.1\");\r\n    /// same for the other variables as well some more example listed below\r\n    /// ex1 - address securityTokenAddress = 0x123; replace to\r\n    /// set(keccak256(abi.encodePacked(\"securityTokenAddress\"), 0x123);\r\n    /// ex2 - bytes32 tokenDetails = \"I am ST20\"; replace to\r\n    /// set(keccak256(abi.encodePacked(\"tokenDetails\"), \"I am ST20\");\r\n    /// ex3 - mapping(string => address) ownedToken;\r\n    /// set(keccak256(abi.encodePacked(\"ownedToken\", \"Chris\")), 0x123);\r\n    /// ex4 - mapping(string => uint) tokenIndex;\r\n    /// tokenIndex[\"TOKEN\"] = 1; replace to set(keccak256(abi.encodePacked(\"tokenIndex\", \"TOKEN\"), 1);\r\n    /// ex5 - mapping(string => SymbolDetails) registeredSymbols; where SymbolDetails is the structure having different type of values as\r\n    /// {uint256 date, string name, address owner} etc.\r\n    /// registeredSymbols[\"TOKEN\"].name = \"MyFristToken\"; replace to set(keccak256(abi.encodePacked(\"registeredSymbols_name\", \"TOKEN\"), \"MyFirstToken\");\r\n    /// More generalized- set(keccak256(abi.encodePacked(\"registeredSymbols_<struct variable>\", \"keyname\"), \"value\");\r\n\r\n    function set(bytes32 _key, uint256 _value) internal {\r\n        uintStorage[_key] = _value;\r\n    }\r\n\r\n    function set(bytes32 _key, address _value) internal {\r\n        addressStorage[_key] = _value;\r\n    }\r\n\r\n    function set(bytes32 _key, bool _value) internal {\r\n        boolStorage[_key] = _value;\r\n    }\r\n\r\n    function set(bytes32 _key, bytes32 _value) internal {\r\n        bytes32Storage[_key] = _value;\r\n    }\r\n\r\n    function set(bytes32 _key, string memory _value) internal {\r\n        stringStorage[_key] = _value;\r\n    }\r\n\r\n    function set(bytes32 _key, bytes memory _value) internal {\r\n        bytesStorage[_key] = _value;\r\n    }\r\n\r\n    ////////////////////////////\r\n    // deleteArray functions\r\n    ////////////////////////////\r\n    /// @notice Function used to delete the array element.\r\n    /// Ex1- mapping(address => bytes32[]) tokensOwnedByOwner;\r\n    /// For deleting the item from array developers needs to create a funtion for that similarly\r\n    /// in this case we have the helper function deleteArrayBytes32() which will do it for us\r\n    /// deleteArrayBytes32(keccak256(abi.encodePacked(\"tokensOwnedByOwner\", 0x1), 3); -- it will delete the index 3\r\n\r\n    //Deletes from mapping (bytes32 => array[]) at index _index\r\n    function deleteArrayAddress(bytes32 _key, uint256 _index) internal {\r\n        address[] storage array = addressArrayStorage[_key];\r\n        require(_index < array.length, \"Index should less than length of the array\");\r\n        array[_index] = array[array.length - 1];\r\n        array.length = array.length - 1;\r\n    }\r\n\r\n    //Deletes from mapping (bytes32 => bytes32[]) at index _index\r\n    function deleteArrayBytes32(bytes32 _key, uint256 _index) internal {\r\n        bytes32[] storage array = bytes32ArrayStorage[_key];\r\n        require(_index < array.length, \"Index should less than length of the array\");\r\n        array[_index] = array[array.length - 1];\r\n        array.length = array.length - 1;\r\n    }\r\n\r\n    //Deletes from mapping (bytes32 => uint[]) at index _index\r\n    function deleteArrayUint(bytes32 _key, uint256 _index) internal {\r\n        uint256[] storage array = uintArrayStorage[_key];\r\n        require(_index < array.length, \"Index should less than length of the array\");\r\n        array[_index] = array[array.length - 1];\r\n        array.length = array.length - 1;\r\n    }\r\n\r\n    //Deletes from mapping (bytes32 => string[]) at index _index\r\n    function deleteArrayString(bytes32 _key, uint256 _index) internal {\r\n        string[] storage array = stringArrayStorage[_key];\r\n        require(_index < array.length, \"Index should less than length of the array\");\r\n        array[_index] = array[array.length - 1];\r\n        array.length = array.length - 1;\r\n    }\r\n\r\n    ////////////////////////////\r\n    //// pushArray functions\r\n    ///////////////////////////\r\n    /// @notice Below are the helper functions to facilitate storing arrays of different data types.\r\n    /// Ex1- mapping(address => bytes32[]) tokensOwnedByTicker;\r\n    /// tokensOwnedByTicker[owner] = tokensOwnedByTicker[owner].push(\"xyz\"); replace with\r\n    /// pushArray(keccak256(abi.encodePacked(\"tokensOwnedByTicker\", owner), \"xyz\");\r\n\r\n    /// @notice use to store the values for the array\r\n    /// @param _key bytes32 type\r\n    /// @param _value [uint256, string, bytes32, address] any of the data type in array\r\n    function pushArray(bytes32 _key, address _value) internal {\r\n        addressArrayStorage[_key].push(_value);\r\n    }\r\n\r\n    function pushArray(bytes32 _key, bytes32 _value) internal {\r\n        bytes32ArrayStorage[_key].push(_value);\r\n    }\r\n\r\n    function pushArray(bytes32 _key, string memory _value) internal {\r\n        stringArrayStorage[_key].push(_value);\r\n    }\r\n\r\n    function pushArray(bytes32 _key, uint256 _value) internal {\r\n        uintArrayStorage[_key].push(_value);\r\n    }\r\n\r\n    /////////////////////////\r\n    //// Set Array functions\r\n    ////////////////////////\r\n    /// @notice used to intialize the array\r\n    /// Ex1- mapping (address => address[]) public reputation;\r\n    /// reputation[0x1] = new address[](0); It can be replaced as\r\n    /// setArray(hash('reputation', 0x1), new address[](0));\r\n\r\n    function setArray(bytes32 _key, address[] memory _value) internal {\r\n        addressArrayStorage[_key] = _value;\r\n    }\r\n\r\n    function setArray(bytes32 _key, uint256[] memory _value) internal {\r\n        uintArrayStorage[_key] = _value;\r\n    }\r\n\r\n    function setArray(bytes32 _key, bytes32[] memory _value) internal {\r\n        bytes32ArrayStorage[_key] = _value;\r\n    }\r\n\r\n    function setArray(bytes32 _key, string[] memory _value) internal {\r\n        stringArrayStorage[_key] = _value;\r\n    }\r\n\r\n    /////////////////////////\r\n    /// getArray functions\r\n    /////////////////////////\r\n    /// @notice Get functions to get the array of the required data type\r\n    /// Ex1- mapping(address => bytes32[]) tokensOwnedByOwner;\r\n    /// getArrayBytes32(keccak256(abi.encodePacked(\"tokensOwnedByOwner\", 0x1)); It return the bytes32 array\r\n    /// Ex2- uint256 _len =  tokensOwnedByOwner[0x1].length; replace with\r\n    /// getArrayBytes32(keccak256(abi.encodePacked(\"tokensOwnedByOwner\", 0x1)).length;\r\n\r\n    function getArrayAddress(bytes32 _key) public view returns(address[] memory) {\r\n        return addressArrayStorage[_key];\r\n    }\r\n\r\n    function getArrayBytes32(bytes32 _key) public view returns(bytes32[] memory) {\r\n        return bytes32ArrayStorage[_key];\r\n    }\r\n\r\n    function getArrayUint(bytes32 _key) public view returns(uint[] memory) {\r\n        return uintArrayStorage[_key];\r\n    }\r\n\r\n    ///////////////////////////////////\r\n    /// setArrayIndexValue() functions\r\n    ///////////////////////////////////\r\n    /// @notice set the value of particular index of the address array\r\n    /// Ex1- mapping(bytes32 => address[]) moduleList;\r\n    /// general way is -- moduleList[moduleType][index] = temp;\r\n    /// It can be re-write as -- setArrayIndexValue(keccak256(abi.encodePacked('moduleList', moduleType)), index, temp);\r\n\r\n    function setArrayIndexValue(bytes32 _key, uint256 _index, address _value) internal {\r\n        addressArrayStorage[_key][_index] = _value;\r\n    }\r\n\r\n    function setArrayIndexValue(bytes32 _key, uint256 _index, uint256 _value) internal {\r\n        uintArrayStorage[_key][_index] = _value;\r\n    }\r\n\r\n    function setArrayIndexValue(bytes32 _key, uint256 _index, bytes32 _value) internal {\r\n        bytes32ArrayStorage[_key][_index] = _value;\r\n    }\r\n\r\n    function setArrayIndexValue(bytes32 _key, uint256 _index, string memory _value) internal {\r\n        stringArrayStorage[_key][_index] = _value;\r\n    }\r\n\r\n    /// Public getters functions\r\n    /////////////////////// @notice Get function use to get the value of the singleton state variables\r\n    /// Ex1- string public version = \"0.0.1\";\r\n    /// string _version = getString(keccak256(abi.encodePacked(\"version\"));\r\n    /// Ex2 - assert(temp1 == temp2); replace to\r\n    /// assert(getUint(keccak256(abi.encodePacked(temp1)) == getUint(keccak256(abi.encodePacked(temp2));\r\n    /// Ex3 - mapping(string => SymbolDetails) registeredSymbols; where SymbolDetails is the structure having different type of values as\r\n    /// {uint256 date, string name, address owner} etc.\r\n    /// string _name = getString(keccak256(abi.encodePacked(\"registeredSymbols_name\", \"TOKEN\"));\r\n\r\n    function getUintValue(bytes32 _variable) public view returns(uint256) {\r\n        return uintStorage[_variable];\r\n    }\r\n\r\n    function getBoolValue(bytes32 _variable) public view returns(bool) {\r\n        return boolStorage[_variable];\r\n    }\r\n\r\n    function getStringValue(bytes32 _variable) public view returns(string memory) {\r\n        return stringStorage[_variable];\r\n    }\r\n\r\n    function getAddressValue(bytes32 _variable) public view returns(address) {\r\n        return addressStorage[_variable];\r\n    }\r\n\r\n    function getBytes32Value(bytes32 _variable) public view returns(bytes32) {\r\n        return bytes32Storage[_variable];\r\n    }\r\n\r\n    function getBytesValue(bytes32 _variable) public view returns(bytes memory) {\r\n        return bytesStorage[_variable];\r\n    }\r\n\r\n}\r\n",
  "sourcePath": "C:\\mspace\\polymath-core\\contracts\\storage\\EternalStorage.sol",
  "compiler": {
    "name": "solc",
    "version": "0.5.8+commit.23d335f2.Emscripten.clang"
  },
  "schemaVersion": "3.0.11",
  "updatedAt": "2019-08-05T22:52:46.951Z",
  "devdoc": {
    "methods": {}
  },
  "userdoc": {
    "methods": {
      "getArrayAddress(bytes32)": {
        "notice": "getArrayBytes32(keccak256(abi.encodePacked(\"tokensOwnedByOwner\", 0x1)).length;"
      },
      "getUintValue(bytes32)": {
        "notice": "string _name = getString(keccak256(abi.encodePacked(\"registeredSymbols_name\", \"TOKEN\"));"
      }
    }
  }
}