{
  "contractName": "EtherDividendCheckpointProxy",
  "abi": [
    {
      "constant": false,
      "inputs": [],
      "name": "proxyOwner",
      "outputs": [
        {
          "name": "",
          "type": "address"
        }
      ],
      "payable": false,
      "stateMutability": "nonpayable",
      "type": "function"
    },
    {
      "constant": true,
      "inputs": [],
      "name": "EXCLUDED_ADDRESS_LIMIT",
      "outputs": [
        {
          "name": "",
          "type": "uint256"
        }
      ],
      "payable": false,
      "stateMutability": "view",
      "type": "function"
    },
    {
      "constant": true,
      "inputs": [],
      "name": "ADMIN",
      "outputs": [
        {
          "name": "",
          "type": "bytes32"
        }
      ],
      "payable": false,
      "stateMutability": "view",
      "type": "function"
    },
    {
      "constant": true,
      "inputs": [
        {
          "name": "",
          "type": "address"
        }
      ],
      "name": "investorWithheld",
      "outputs": [
        {
          "name": "",
          "type": "uint256"
        }
      ],
      "payable": false,
      "stateMutability": "view",
      "type": "function"
    },
    {
      "constant": true,
      "inputs": [],
      "name": "wallet",
      "outputs": [
        {
          "name": "",
          "type": "address"
        }
      ],
      "payable": false,
      "stateMutability": "view",
      "type": "function"
    },
    {
      "constant": false,
      "inputs": [],
      "name": "version",
      "outputs": [
        {
          "name": "",
          "type": "string"
        }
      ],
      "payable": false,
      "stateMutability": "nonpayable",
      "type": "function"
    },
    {
      "constant": false,
      "inputs": [
        {
          "name": "_newVersion",
          "type": "string"
        },
        {
          "name": "_newImplementation",
          "type": "address"
        }
      ],
      "name": "upgradeTo",
      "outputs": [],
      "payable": false,
      "stateMutability": "nonpayable",
      "type": "function"
    },
    {
      "constant": false,
      "inputs": [],
      "name": "implementation",
      "outputs": [
        {
          "name": "",
          "type": "address"
        }
      ],
      "payable": false,
      "stateMutability": "nonpayable",
      "type": "function"
    },
    {
      "constant": true,
      "inputs": [],
      "name": "paused",
      "outputs": [
        {
          "name": "",
          "type": "bool"
        }
      ],
      "payable": false,
      "stateMutability": "view",
      "type": "function"
    },
    {
      "constant": true,
      "inputs": [],
      "name": "polyToken",
      "outputs": [
        {
          "name": "",
          "type": "address"
        }
      ],
      "payable": false,
      "stateMutability": "view",
      "type": "function"
    },
    {
      "constant": true,
      "inputs": [
        {
          "name": "",
          "type": "address"
        }
      ],
      "name": "withholdingTax",
      "outputs": [
        {
          "name": "",
          "type": "uint256"
        }
      ],
      "payable": false,
      "stateMutability": "view",
      "type": "function"
    },
    {
      "constant": true,
      "inputs": [
        {
          "name": "",
          "type": "uint256"
        }
      ],
      "name": "dividends",
      "outputs": [
        {
          "name": "checkpointId",
          "type": "uint256"
        },
        {
          "name": "created",
          "type": "uint256"
        },
        {
          "name": "maturity",
          "type": "uint256"
        },
        {
          "name": "expiry",
          "type": "uint256"
        },
        {
          "name": "amount",
          "type": "uint256"
        },
        {
          "name": "claimedAmount",
          "type": "uint256"
        },
        {
          "name": "totalSupply",
          "type": "uint256"
        },
        {
          "name": "reclaimed",
          "type": "bool"
        },
        {
          "name": "totalWithheld",
          "type": "uint256"
        },
        {
          "name": "totalWithheldWithdrawn",
          "type": "uint256"
        },
        {
          "name": "name",
          "type": "bytes32"
        }
      ],
      "payable": false,
      "stateMutability": "view",
      "type": "function"
    },
    {
      "constant": false,
      "inputs": [
        {
          "name": "_newVersion",
          "type": "string"
        },
        {
          "name": "_newImplementation",
          "type": "address"
        },
        {
          "name": "_data",
          "type": "bytes"
        }
      ],
      "name": "upgradeToAndCall",
      "outputs": [],
      "payable": true,
      "stateMutability": "payable",
      "type": "function"
    },
    {
      "constant": true,
      "inputs": [],
      "name": "OPERATOR",
      "outputs": [
        {
          "name": "",
          "type": "bytes32"
        }
      ],
      "payable": false,
      "stateMutability": "view",
      "type": "function"
    },
    {
      "constant": true,
      "inputs": [],
      "name": "securityToken",
      "outputs": [
        {
          "name": "",
          "type": "address"
        }
      ],
      "payable": false,
      "stateMutability": "view",
      "type": "function"
    },
    {
      "constant": true,
      "inputs": [
        {
          "name": "",
          "type": "uint256"
        }
      ],
      "name": "excluded",
      "outputs": [
        {
          "name": "",
          "type": "address"
        }
      ],
      "payable": false,
      "stateMutability": "view",
      "type": "function"
    },
    {
      "constant": true,
      "inputs": [],
      "name": "factory",
      "outputs": [
        {
          "name": "",
          "type": "address"
        }
      ],
      "payable": false,
      "stateMutability": "view",
      "type": "function"
    },
    {
      "constant": false,
      "inputs": [
        {
          "name": "_newOwner",
          "type": "address"
        }
      ],
      "name": "transferProxyOwnership",
      "outputs": [],
      "payable": false,
      "stateMutability": "nonpayable",
      "type": "function"
    },
    {
      "inputs": [
        {
          "name": "_version",
          "type": "string"
        },
        {
          "name": "_securityToken",
          "type": "address"
        },
        {
          "name": "_polyAddress",
          "type": "address"
        },
        {
          "name": "_implementation",
          "type": "address"
        }
      ],
      "payable": false,
      "stateMutability": "nonpayable",
      "type": "constructor"
    },
    {
      "payable": true,
      "stateMutability": "payable",
      "type": "fallback"
    },
    {
      "anonymous": false,
      "inputs": [
        {
          "indexed": false,
          "name": "_previousOwner",
          "type": "address"
        },
        {
          "indexed": false,
          "name": "_newOwner",
          "type": "address"
        }
      ],
      "name": "ProxyOwnershipTransferred",
      "type": "event"
    },
    {
      "anonymous": false,
      "inputs": [
        {
          "indexed": false,
          "name": "_newVersion",
          "type": "string"
        },
        {
          "indexed": true,
          "name": "_newImplementation",
          "type": "address"
        }
      ],
      "name": "Upgraded",
      "type": "event"
    },
    {
      "anonymous": false,
      "inputs": [
        {
          "indexed": false,
          "name": "account",
          "type": "address"
        }
      ],
      "name": "Pause",
      "type": "event"
    },
    {
      "anonymous": false,
      "inputs": [
        {
          "indexed": false,
          "name": "account",
          "type": "address"
        }
      ],
      "name": "Unpause",
      "type": "event"
    }
  ],
  "bytecode": "0x6080604052609660015560088054600160a01b60ff02191690553480156200002657600080fd5b506040516200170c3803806200170c833981018060405260808110156200004c57600080fd5b8101908080516401000000008111156200006557600080fd5b820160208101848111156200007957600080fd5b81516401000000008111828201871017156200009457600080fd5b50506020808301516040840151606090940151600780546001600160a01b038085166001600160a01b03199283161790925560068054821633908117909155600880549389169390921692909217905593965090945091620000fa9162000177811b901c565b6001600160a01b0381166200015b576040517f08c379a0000000000000000000000000000000000000000000000000000000008152600401808060200182810382526027815260200180620016646027913960400191505060405180910390fd5b6200016d84826200020f60201b60201c565b5050505062000631565b6001600160a01b038116620001ed57604080517f08c379a000000000000000000000000000000000000000000000000000000000815260206004820152601860248201527f416464726573732073686f756c64206e6f742062652030780000000000000000604482015290519081900360640190fd5b600b80546001600160a01b0319166001600160a01b0392909216919091179055565b600a546001600160a01b038281169116148015906200023657506001600160a01b03811615155b6200028d576040517f08c379a00000000000000000000000000000000000000000000000000000000081526004018080602001828103825260468152602001806200168b6046913960600191505060405180910390fd5b620002a3816200058660201b62000e5b1760201c565b620002fa576040517f08c379a000000000000000000000000000000000000000000000000000000000815260040180806020018281038252603b815260200180620016d1603b913960400191505060405180910390fd5b600082511162000356576040517f08c379a0000000000000000000000000000000000000000000000000000000008152600401808060200182810382526022815260200180620016426022913960400191505060405180910390fd5b816040516020018082805190602001908083835b602083106200038b5780518252601f1990920191602091820191016200036a565b6001836020036101000a03801982511681845116808217855250505050505090500191505060405160208183030381529060405280519060200120600960405160200180828054600181600116156101000203166002900480156200042a5780601f10620004075761010080835404028352918201916200042a565b820191906000526020600020905b81548152906001019060200180831162000415575b5050915050604051602081830303815290604052805190602001201415620004b357604080517f08c379a000000000000000000000000000000000000000000000000000000000815260206004820152601d60248201527f4e65772076657273696f6e20657175616c7320746f2063757272656e74000000604482015290519081900360640190fd5b8151620004c89060099060208501906200058c565b50600a80546001600160a01b0319166001600160a01b03831690811790915560408051602080825285518183015285517f8e05e0e35ff592971ca8b477d4285a33a61ded208d644042667b78693a472f5e938793928392918301919085019080838360005b83811015620005475781810151838201526020016200052d565b50505050905090810190601f168015620005755780820380516001836020036101000a031916815260200191505b509250505060405180910390a25050565b3b151590565b828054600181600116156101000203166002900490600052602060002090601f016020900481019282601f10620005cf57805160ff1916838001178555620005ff565b82800160010185558215620005ff579182015b82811115620005ff578251825591602001919060010190620005e2565b506200060d92915062000611565b5090565b6200062e91905b808211156200060d576000815560010162000618565b90565b61100180620006416000396000f3fe6080604052600436106101095760003560e01c80636faa22a511610095578063983d273711610064578063983d2737146104af578063b84dfbd2146104c4578063bee2ddc2146104d9578063c45a015514610503578063f1739cae1461051857610109565b80636faa22a5146103165780637a3e23fd1461032b578063814b3fe01461035e578063958a41dd146103e057610109565b8063521eb273116100dc578063521eb273146101b357806354fd4d50146101c85780635a8b1a9f146102525780635c60da1b146102d85780635c975abb146102ed57610109565b8063025313a2146101135780630a29f591146101445780632a0acc6a1461016b5780633f2e316514610180575b61011161054b565b005b34801561011f57600080fd5b5061012861055d565b604080516001600160a01b039092168252519081900360200190f35b34801561015057600080fd5b5061015961059a565b60408051918252519081900360200190f35b34801561017757600080fd5b506101596105a0565b34801561018c57600080fd5b50610159600480360360208110156101a357600080fd5b50356001600160a01b03166105af565b3480156101bf57600080fd5b506101286105c1565b3480156101d457600080fd5b506101dd6105d0565b6040805160208082528351818301528351919283929083019185019080838360005b838110156102175781810151838201526020016101ff565b50505050905090810190601f1680156102445780820380516001836020036101000a031916815260200191505b509250505060405180910390f35b34801561025e57600080fd5b506101116004803603604081101561027557600080fd5b81019060208101813564010000000081111561029057600080fd5b8201836020820111156102a257600080fd5b803590602001918460018302840111640100000000831117156102c457600080fd5b9193509150356001600160a01b0316610685565b3480156102e457600080fd5b506101286106f9565b3480156102f957600080fd5b50610302610724565b604080519115158252519081900360200190f35b34801561032257600080fd5b50610128610734565b34801561033757600080fd5b506101596004803603602081101561034e57600080fd5b50356001600160a01b0316610743565b34801561036a57600080fd5b506103886004803603602081101561038157600080fd5b5035610755565b604080519b8c5260208c019a909a528a8a019890985260608a0196909652608089019490945260a088019290925260c0870152151560e086015261010085015261012084015261014083015251908190036101600190f35b610111600480360360608110156103f657600080fd5b81019060208101813564010000000081111561041157600080fd5b82018360208201111561042357600080fd5b8035906020019184600183028401116401000000008311171561044557600080fd5b919390926001600160a01b038335169260408101906020013564010000000081111561047057600080fd5b82018360208201111561048257600080fd5b803590602001918460018302840111640100000000831117156104a457600080fd5b5090925090506107c1565b3480156104bb57600080fd5b5061015961086b565b3480156104d057600080fd5b5061012861087d565b3480156104e557600080fd5b50610128600480360360208110156104fc57600080fd5b503561088c565b34801561050f57600080fd5b506101286108b3565b34801561052457600080fd5b506101116004803603602081101561053b57600080fd5b50356001600160a01b03166108c2565b61055b6105566109a5565b6109b4565b565b60006105676109d8565b6001600160a01b0316336001600160a01b0316141561058f576105886109d8565b9050610597565b61059761054b565b90565b60015481565b600160d91b6420a226a4a70281565b60056020526000908152604090205481565b6000546001600160a01b031681565b60606105da6109d8565b6001600160a01b0316336001600160a01b0316141561058f576009805460408051602060026001851615610100026000190190941693909304601f810184900484028201840190925281815292918301828280156106795780601f1061064e57610100808354040283529160200191610679565b820191906000526020600020905b81548152906001019060200180831161065c57829003601f168201915b50505050509050610597565b61068d6109d8565b6001600160a01b0316336001600160a01b031614156106ec576106e783838080601f0160208091040260200160405190810160405280939291908181526020018383808284376000920191909152508592506109e7915050565b6106f4565b6106f461054b565b505050565b60006107036109d8565b6001600160a01b0316336001600160a01b0316141561058f576105886109a5565b600854600160a01b900460ff1681565b6008546001600160a01b031681565b60046020526000908152604090205481565b6002818154811061076257fe5b60009182526020909120600e9091020180546001820154600283015460038401546004850154600586015460068701546007880154600889015460098a0154600d909a0154989a5096989597949693959294919360ff9091169290918b565b6107c96109d8565b6001600160a01b0316336001600160a01b0316141561085c5761085785858080601f01602080910402602001604051908101604052809392919081815260200183838082843760009201919091525050604080516020601f880181900481028201810190925286815288935091508690869081908401838280828437600092019190915250610ce292505050565b610864565b61086461054b565b5050505050565b600160c11b6727a822a920aa27a90281565b6007546001600160a01b031681565b6003818154811061089957fe5b6000918252602090912001546001600160a01b0316905081565b6006546001600160a01b031681565b6108ca6109d8565b6001600160a01b0316336001600160a01b0316141561099a576001600160a01b0381166109415760408051600160e51b62461bcd02815260206004820152601860248201527f416464726573732073686f756c64206e6f742062652030780000000000000000604482015290519081900360640190fd5b7f5a3e66efaa1e445ebd894728a69d6959842ea1e97bd79b892797106e270efcd961096a6109d8565b604080516001600160a01b03928316815291841660208301528051918290030190a161099581610ddb565b6109a2565b6109a261054b565b50565b600a546001600160a01b031690565b3660008037600080366000845af43d6000803e8080156109d3573d6000f35b3d6000fd5b600b546001600160a01b031690565b600a546001600160a01b03828116911614801590610a0d57506001600160a01b03811615155b610a4b57604051600160e51b62461bcd028152600401808060200182810382526046815260200180610f556046913960600191505060405180910390fd5b610a5481610e5b565b610a9257604051600160e51b62461bcd02815260040180806020018281038252603b815260200180610f9b603b913960400191505060405180910390fd5b6000825111610ad557604051600160e51b62461bcd028152600401808060200182810382526022815260200180610efa6022913960400191505060405180910390fd5b816040516020018082805190602001908083835b60208310610b085780518252601f199092019160209182019101610ae9565b6001836020036101000a0380198251168184511680821785525050505050509050019150506040516020818303038152906040528051906020012060096040516020018082805460018160011615610100020316600290048015610ba35780601f10610b81576101008083540402835291820191610ba3565b820191906000526020600020905b815481529060010190602001808311610b8f575b5050915050604051602081830303815290604052805190602001201415610c145760408051600160e51b62461bcd02815260206004820152601d60248201527f4e65772076657273696f6e20657175616c7320746f2063757272656e74000000604482015290519081900360640190fd5b8151610c27906009906020850190610e61565b50600a80546001600160a01b0319166001600160a01b03831690811790915560408051602080825285518183015285517f8e05e0e35ff592971ca8b477d4285a33a61ded208d644042667b78693a472f5e938793928392918301919085019080838360005b83811015610ca4578181015183820152602001610c8c565b50505050905090810190601f168015610cd15780820380516001836020036101000a031916815260200191505b509250505060405180910390a25050565b610cec83836109e7565b6000306001600160a01b031634836040518082805190602001908083835b60208310610d295780518252601f199092019160209182019101610d0a565b6001836020036101000a03801982511681845116808217855250505050505090500191505060006040518083038185875af1925050503d8060008114610d8b576040519150601f19603f3d011682016040523d82523d6000602084013e610d90565b606091505b50508091505080610dd557604051600160e51b62461bcd028152600401808060200182810382526039815260200180610f1c6039913960400191505060405180910390fd5b50505050565b6001600160a01b038116610e395760408051600160e51b62461bcd02815260206004820152601860248201527f416464726573732073686f756c64206e6f742062652030780000000000000000604482015290519081900360640190fd5b600b80546001600160a01b0319166001600160a01b0392909216919091179055565b3b151590565b828054600181600116156101000203166002900490600052602060002090601f016020900481019282601f10610ea257805160ff1916838001178555610ecf565b82800160010185558215610ecf579182015b82811115610ecf578251825591602001919060010190610eb4565b50610edb929150610edf565b5090565b61059791905b80821115610edb5760008155600101610ee556fe56657273696f6e2073686f756c64206e6f7420626520656d70747920737472696e674661696c20696e20657865637574696e67207468652066756e6374696f6e206f6620696d706c656d656e746174696f6e20636f6e74726163744f6c642061646472657373206973206e6f7420616c6c6f77656420616e6420696d706c656d656e746174696f6e20616464726573732073686f756c64206e6f7420626520307843616e6e6f742073657420612070726f787920696d706c656d656e746174696f6e20746f2061206e6f6e2d636f6e74726163742061646472657373a165627a7a72305820b1b6f6ee5c2da5fdb6c5c2bd02b29f01c4eeff61d641914a5fd6d3025ad2c7fa002956657273696f6e2073686f756c64206e6f7420626520656d70747920737472696e67496d706c656d656e746174696f6e20616464726573732073686f756c64206e6f742062652030784f6c642061646472657373206973206e6f7420616c6c6f77656420616e6420696d706c656d656e746174696f6e20616464726573732073686f756c64206e6f7420626520307843616e6e6f742073657420612070726f787920696d706c656d656e746174696f6e20746f2061206e6f6e2d636f6e74726163742061646472657373",
  "source": "pragma solidity 0.5.8;\r\n\r\nimport \"../../../../proxy/OwnedUpgradeabilityProxy.sol\";\r\nimport \"../../../../storage/modules/Checkpoint/Dividend/DividendCheckpointStorage.sol\";\r\nimport \"../../../../Pausable.sol\";\r\nimport \"../../../../storage/modules/ModuleStorage.sol\";\r\n\r\n/**\r\n * @title Transfer Manager module for core transfer validation functionality\r\n */\r\ncontract EtherDividendCheckpointProxy is DividendCheckpointStorage, ModuleStorage, Pausable, OwnedUpgradeabilityProxy {\r\n    /**\r\n    * @notice Constructor\r\n    * @param _securityToken Address of the security token\r\n    * @param _polyAddress Address of the polytoken\r\n    * @param _implementation representing the address of the new implementation to be set\r\n    */\r\n    constructor (\r\n        string memory _version,\r\n        address _securityToken,\r\n        address _polyAddress,\r\n        address _implementation\r\n    )\r\n        public\r\n        ModuleStorage(_securityToken, _polyAddress)\r\n    {\r\n        require(_implementation != address(0), \"Implementation address should not be 0x\");\r\n        _upgradeTo(_version, _implementation);\r\n    }\r\n\r\n}\r\n",
  "sourcePath": "C:\\mspace\\polymath-core\\contracts\\modules\\Checkpoint\\Dividend\\Ether\\EtherDividendCheckpointProxy.sol",
  "compiler": {
    "name": "solc",
    "version": "0.5.8+commit.23d335f2.Emscripten.clang"
  },
  "schemaVersion": "3.0.11",
  "updatedAt": "2019-08-05T22:52:46.754Z",
  "devdoc": {
    "methods": {
      "constructor": {
        "params": {
          "_implementation": "representing the address of the new implementation to be set\r",
          "_polyAddress": "Address of the polytoken\r",
          "_securityToken": "Address of the security token\r"
        }
      },
      "implementation()": {
        "details": "Tells the address of the current implementation\r",
        "return": "address of the current implementation\r"
      },
      "proxyOwner()": {
        "details": "Tells the address of the proxy owner\r",
        "return": "the address of the proxy owner\r"
      },
      "transferProxyOwnership(address)": {
        "details": "Allows the current owner to transfer control of the contract to a newOwner.\r",
        "params": {
          "_newOwner": "The address to transfer ownership to.\r"
        }
      },
      "upgradeTo(string,address)": {
        "details": "Allows the upgradeability owner to upgrade the current version of the proxy.\r",
        "params": {
          "_newImplementation": "representing the address of the new implementation to be set.\r",
          "_newVersion": "representing the version name of the new implementation to be set.\r"
        }
      },
      "upgradeToAndCall(string,address,bytes)": {
        "details": "Allows the upgradeability owner to upgrade the current version of the proxy and call the new implementation\r to initialize whatever is needed through a low level call.\r",
        "params": {
          "_data": "represents the msg.data to bet sent in the low level call. This parameter may include the function\r signature of the implementation to be called with the needed payload\r",
          "_newImplementation": "representing the address of the new implementation to be set.\r",
          "_newVersion": "representing the version name of the new implementation to be set.\r"
        }
      },
      "version()": {
        "details": "Tells the version name of the current implementation\r",
        "return": "string representing the name of the current version\r"
      }
    },
    "title": "Transfer Manager module for core transfer validation functionality\r"
  },
  "userdoc": {
    "methods": {
      "constructor": "Constructor\r"
    }
  }
}