{
  "contractName": "FeatureRegistry",
  "abi": [
    {
      "constant": false,
      "inputs": [],
      "name": "renounceOwnership",
      "outputs": [],
      "payable": false,
      "stateMutability": "nonpayable",
      "type": "function"
    },
    {
      "constant": false,
      "inputs": [
        {
          "name": "_tokenContract",
          "type": "address"
        }
      ],
      "name": "reclaimERC20",
      "outputs": [],
      "payable": false,
      "stateMutability": "nonpayable",
      "type": "function"
    },
    {
      "constant": true,
      "inputs": [],
      "name": "owner",
      "outputs": [
        {
          "name": "",
          "type": "address"
        }
      ],
      "payable": false,
      "stateMutability": "view",
      "type": "function"
    },
    {
      "constant": true,
      "inputs": [],
      "name": "isOwner",
      "outputs": [
        {
          "name": "",
          "type": "bool"
        }
      ],
      "payable": false,
      "stateMutability": "view",
      "type": "function"
    },
    {
      "constant": true,
      "inputs": [
        {
          "name": "",
          "type": "bytes32"
        }
      ],
      "name": "featureStatus",
      "outputs": [
        {
          "name": "",
          "type": "bool"
        }
      ],
      "payable": false,
      "stateMutability": "view",
      "type": "function"
    },
    {
      "constant": false,
      "inputs": [
        {
          "name": "newOwner",
          "type": "address"
        }
      ],
      "name": "transferOwnership",
      "outputs": [],
      "payable": false,
      "stateMutability": "nonpayable",
      "type": "function"
    },
    {
      "anonymous": false,
      "inputs": [
        {
          "indexed": true,
          "name": "previousOwner",
          "type": "address"
        },
        {
          "indexed": true,
          "name": "newOwner",
          "type": "address"
        }
      ],
      "name": "OwnershipTransferred",
      "type": "event"
    },
    {
      "anonymous": false,
      "inputs": [
        {
          "indexed": false,
          "name": "_nameKey",
          "type": "string"
        },
        {
          "indexed": false,
          "name": "_newStatus",
          "type": "bool"
        }
      ],
      "name": "ChangeFeatureStatus",
      "type": "event"
    },
    {
      "constant": true,
      "inputs": [
        {
          "name": "_nameKey",
          "type": "string"
        }
      ],
      "name": "getFeatureStatus",
      "outputs": [
        {
          "name": "",
          "type": "bool"
        }
      ],
      "payable": false,
      "stateMutability": "view",
      "type": "function"
    },
    {
      "constant": false,
      "inputs": [
        {
          "name": "_nameKey",
          "type": "string"
        },
        {
          "name": "_newStatus",
          "type": "bool"
        }
      ],
      "name": "setFeatureStatus",
      "outputs": [],
      "payable": false,
      "stateMutability": "nonpayable",
      "type": "function"
    }
  ],
  "bytecode": "0x60806040819052600080546001600160a01b03191633178082556001600160a01b0316917f8be0079c531659141344cd1fd0a4f28419497f9722a3daafe3b4186f6b6457e0908290a36106a8806100576000396000f3fe608060405234801561001057600080fd5b50600436106100885760003560e01c80638f32d59b1161005b5780638f32d59b14610165578063e43c40831461016d578063f29832571461018a578063f2fde38b146101fc57610088565b80632f0019f21461008d578063715018a6146101115780638905fd4f1461011b5780638da5cb5b14610141575b600080fd5b6100fd600480360360208110156100a357600080fd5b8101906020810181356401000000008111156100be57600080fd5b8201836020820111156100d057600080fd5b803590602001918460018302840111640100000000831117156100f257600080fd5b509092509050610222565b604080519115158252519081900360200190f35b61011961025c565b005b6101196004803603602081101561013157600080fd5b50356001600160a01b03166102b7565b61014961048e565b604080516001600160a01b039092168252519081900360200190f35b6100fd61049d565b6100fd6004803603602081101561018357600080fd5b50356104ae565b610119600480360360408110156101a057600080fd5b8101906020810181356401000000008111156101bb57600080fd5b8201836020820111156101cd57600080fd5b803590602001918460018302840111640100000000831117156101ef57600080fd5b91935091503515156104c3565b6101196004803603602081101561021257600080fd5b50356001600160a01b03166105f1565b6000808383604051808383808284376040805191909301819003902060009081526001602052919091205460ff1698975050505050505050565b61026461049d565b61026d57600080fd5b600080546040516001600160a01b03909116907f8be0079c531659141344cd1fd0a4f28419497f9722a3daafe3b4186f6b6457e0908390a3600080546001600160a01b0319169055565b6102bf61049d565b6102c857600080fd5b6001600160a01b0381166103265760408051600160e51b62461bcd02815260206004820152600f60248201527f496e76616c696420616464726573730000000000000000000000000000000000604482015290519081900360640190fd5b60408051600160e01b6370a08231028152306004820152905182916000916001600160a01b038416916370a08231916024808301926020929190829003018186803b15801561037457600080fd5b505afa158015610388573d6000803e3d6000fd5b505050506040513d602081101561039e57600080fd5b505190506001600160a01b03821663a9059cbb6103b961048e565b836040518363ffffffff1660e01b815260040180836001600160a01b03166001600160a01b0316815260200182815260200192505050602060405180830381600087803b15801561040957600080fd5b505af115801561041d573d6000803e3d6000fd5b505050506040513d602081101561043357600080fd5b50516104895760408051600160e51b62461bcd02815260206004820152600f60248201527f5472616e73666572206661696c65640000000000000000000000000000000000604482015290519081900360640190fd5b505050565b6000546001600160a01b031690565b6000546001600160a01b0316331490565b60016020526000908152604090205460ff1681565b6104cb61049d565b6104d457600080fd5b600083836040518083838082843760408051939091018390039092206000818152600160205292909220549195505060ff161515851515141592506105669150505760408051600160e51b62461bcd02815260206004820152601060248201527f53746174757320756e6368616e67656400000000000000000000000000000000604482015290519081900360640190fd5b6040805183151560208201528181529081018490527fc4f204a5636d7eb3ef39174170beec580582233e28bc6c20a7458fd3209d08b8908590859085908060608101858580828437600083820152604051601f909101601f1916909201829003965090945050505050a16000908152600160205260409020805460ff19169115159190911790555050565b6105f961049d565b61060257600080fd5b61060b8161060e565b50565b6001600160a01b03811661062157600080fd5b600080546040516001600160a01b03808516939216917f8be0079c531659141344cd1fd0a4f28419497f9722a3daafe3b4186f6b6457e091a3600080546001600160a01b0319166001600160a01b039290921691909117905556fea165627a7a72305820a0e2660eae162157c5277771cd15d823e41e06860a6367b2e8626cdbbad337550029",
  "source": "pragma solidity 0.5.8;\r\n\r\nimport \"./ReclaimTokens.sol\";\r\nimport \"./interfaces/IFeatureRegistry.sol\";\r\n\r\n/**\r\n * @title Registry for managing polymath feature switches\r\n */\r\ncontract FeatureRegistry is IFeatureRegistry, ReclaimTokens {\r\n    mapping(bytes32 => bool) public featureStatus;\r\n\r\n    /**\r\n     * @notice Get the status of a feature\r\n     * @param _nameKey is the key for the feature status mapping\r\n     * @return bool\r\n     */\r\n    function getFeatureStatus(string calldata _nameKey) external view returns(bool) {\r\n        bytes32 key = keccak256(bytes(_nameKey));\r\n        return featureStatus[key];\r\n    }\r\n\r\n    /**\r\n     * @notice change a feature status\r\n     * @dev feature status is set to false by default\r\n     * @param _nameKey is the key for the feature status mapping\r\n     * @param _newStatus is the new feature status\r\n     */\r\n    function setFeatureStatus(string calldata _nameKey, bool _newStatus) external onlyOwner {\r\n        bytes32 key = keccak256(bytes(_nameKey));\r\n        require(featureStatus[key] != _newStatus, \"Status unchanged\");\r\n        emit ChangeFeatureStatus(_nameKey, _newStatus);\r\n        featureStatus[key] = _newStatus;\r\n    }\r\n\r\n}\r\n",
  "sourcePath": "C:/mspace/polymath-core/contracts/FeatureRegistry.sol",
  "compiler": {
    "name": "solc",
    "version": "0.5.8+commit.23d335f2.Emscripten.clang"
  },
  "schemaVersion": "3.0.11",
  "updatedAt": "2019-08-05T22:53:44.865Z",
  "devdoc": {
    "methods": {
      "getFeatureStatus(string)": {
        "params": {
          "_nameKey": "is the key for the feature status mapping\r"
        },
        "return": "bool\r"
      },
      "isOwner()": {
        "return": "true if `msg.sender` is the owner of the contract."
      },
      "owner()": {
        "return": "the address of the owner."
      },
      "reclaimERC20(address)": {
        "params": {
          "_tokenContract": "The address of the token contract\r"
        }
      },
      "renounceOwnership()": {
        "details": "Allows the current owner to relinquish control of the contract. It will not be possible to call the functions with the `onlyOwner` modifier anymore."
      },
      "setFeatureStatus(string,bool)": {
        "details": "feature status is set to false by default\r",
        "params": {
          "_nameKey": "is the key for the feature status mapping\r",
          "_newStatus": "is the new feature status\r"
        }
      },
      "transferOwnership(address)": {
        "details": "Allows the current owner to transfer control of the contract to a newOwner.",
        "params": {
          "newOwner": "The address to transfer ownership to."
        }
      }
    },
    "title": "Registry for managing polymath feature switches\r"
  },
  "userdoc": {
    "methods": {
      "getFeatureStatus(string)": {
        "notice": "Get the status of a feature\r"
      },
      "reclaimERC20(address)": {
        "notice": "Reclaim all ERC20Basic compatible tokens\r"
      },
      "renounceOwnership()": {
        "notice": "Renouncing ownership will leave the contract without an owner, thereby removing any functionality that is only available to the owner."
      },
      "setFeatureStatus(string,bool)": {
        "notice": "change a feature status\r"
      }
    }
  }
}