{
  "contractName": "GeneralPermissionManagerStorage",
  "abi": [
    {
      "constant": true,
      "inputs": [
        {
          "name": "",
          "type": "address"
        },
        {
          "name": "",
          "type": "address"
        },
        {
          "name": "",
          "type": "bytes32"
        }
      ],
      "name": "perms",
      "outputs": [
        {
          "name": "",
          "type": "bool"
        }
      ],
      "payable": false,
      "stateMutability": "view",
      "type": "function"
    },
    {
      "constant": true,
      "inputs": [
        {
          "name": "",
          "type": "uint256"
        }
      ],
      "name": "allDelegates",
      "outputs": [
        {
          "name": "",
          "type": "address"
        }
      ],
      "payable": false,
      "stateMutability": "view",
      "type": "function"
    },
    {
      "constant": true,
      "inputs": [
        {
          "name": "",
          "type": "address"
        }
      ],
      "name": "delegateDetails",
      "outputs": [
        {
          "name": "",
          "type": "bytes32"
        }
      ],
      "payable": false,
      "stateMutability": "view",
      "type": "function"
    }
  ],
  "bytecode": "0x608060405234801561001057600080fd5b5061018b806100206000396000f3fe608060405234801561001057600080fd5b50600436106100415760003560e01c80634e0a479214610046578063947dd6e514610090578063e380d343146100c9575b600080fd5b61007c6004803603606081101561005c57600080fd5b506001600160a01b03813581169160208101359091169060400135610101565b604080519115158252519081900360200190f35b6100ad600480360360208110156100a657600080fd5b5035610126565b604080516001600160a01b039092168252519081900360200190f35b6100ef600480360360208110156100df57600080fd5b50356001600160a01b031661014d565b60408051918252519081900360200190f35b6000602081815293815260408082208552928152828120909352825290205460ff1681565b6002818154811061013357fe5b6000918252602090912001546001600160a01b0316905081565b6001602052600090815260409020548156fea165627a7a72305820cbd397a71f680157738e401290030da5e41f1cc4bf6c875e37e9d6a773a7d0fc0029",
  "source": "pragma solidity 0.5.8;\r\n\r\n/**\r\n * @title Contract used to store layout for the GeneralPermissionManager storage\r\n */\r\ncontract GeneralPermissionManagerStorage {\r\n\r\n    // Mapping used to hold the permissions on the modules provided to delegate, module add => delegate add => permission bytes32 => bool\r\n    mapping (address => mapping (address => mapping (bytes32 => bool))) public perms;\r\n    // Mapping hold the delagate details\r\n    mapping (address => bytes32) public delegateDetails;\r\n    // Array to track all delegates\r\n    address[] public allDelegates;\r\n\r\n}\r\n",
  "sourcePath": "C:\\mspace\\polymath-core\\contracts\\modules\\PermissionManager\\GeneralPermissionManagerStorage.sol",
  "compiler": {
    "name": "solc",
    "version": "0.5.8+commit.23d335f2.Emscripten.clang"
  },
  "schemaVersion": "3.0.11",
  "updatedAt": "2019-08-05T22:52:46.823Z",
  "devdoc": {
    "methods": {},
    "title": "Contract used to store layout for the GeneralPermissionManager storage\r"
  },
  "userdoc": {
    "methods": {}
  }
}