{
  "contractName": "GeneralTransferManagerProxy",
  "abi": [
    {
      "constant": false,
      "inputs": [],
      "name": "proxyOwner",
      "outputs": [
        {
          "name": "",
          "type": "address"
        }
      ],
      "payable": false,
      "stateMutability": "nonpayable",
      "type": "function"
    },
    {
      "constant": true,
      "inputs": [],
      "name": "WHITELIST",
      "outputs": [
        {
          "name": "",
          "type": "bytes32"
        }
      ],
      "payable": false,
      "stateMutability": "view",
      "type": "function"
    },
    {
      "constant": true,
      "inputs": [],
      "name": "ADMIN",
      "outputs": [
        {
          "name": "",
          "type": "bytes32"
        }
      ],
      "payable": false,
      "stateMutability": "view",
      "type": "function"
    },
    {
      "constant": false,
      "inputs": [],
      "name": "version",
      "outputs": [
        {
          "name": "",
          "type": "string"
        }
      ],
      "payable": false,
      "stateMutability": "nonpayable",
      "type": "function"
    },
    {
      "constant": false,
      "inputs": [
        {
          "name": "_newVersion",
          "type": "string"
        },
        {
          "name": "_newImplementation",
          "type": "address"
        }
      ],
      "name": "upgradeTo",
      "outputs": [],
      "payable": false,
      "stateMutability": "nonpayable",
      "type": "function"
    },
    {
      "constant": false,
      "inputs": [],
      "name": "implementation",
      "outputs": [
        {
          "name": "",
          "type": "address"
        }
      ],
      "payable": false,
      "stateMutability": "nonpayable",
      "type": "function"
    },
    {
      "constant": true,
      "inputs": [],
      "name": "paused",
      "outputs": [
        {
          "name": "",
          "type": "bool"
        }
      ],
      "payable": false,
      "stateMutability": "view",
      "type": "function"
    },
    {
      "constant": true,
      "inputs": [],
      "name": "INVESTORFLAGS",
      "outputs": [
        {
          "name": "",
          "type": "bytes32"
        }
      ],
      "payable": false,
      "stateMutability": "view",
      "type": "function"
    },
    {
      "constant": true,
      "inputs": [],
      "name": "polyToken",
      "outputs": [
        {
          "name": "",
          "type": "address"
        }
      ],
      "payable": false,
      "stateMutability": "view",
      "type": "function"
    },
    {
      "constant": false,
      "inputs": [
        {
          "name": "_newVersion",
          "type": "string"
        },
        {
          "name": "_newImplementation",
          "type": "address"
        },
        {
          "name": "_data",
          "type": "bytes"
        }
      ],
      "name": "upgradeToAndCall",
      "outputs": [],
      "payable": true,
      "stateMutability": "payable",
      "type": "function"
    },
    {
      "constant": true,
      "inputs": [],
      "name": "OPERATOR",
      "outputs": [
        {
          "name": "",
          "type": "bytes32"
        }
      ],
      "payable": false,
      "stateMutability": "view",
      "type": "function"
    },
    {
      "constant": true,
      "inputs": [
        {
          "name": "",
          "type": "address"
        },
        {
          "name": "",
          "type": "uint256"
        }
      ],
      "name": "nonceMap",
      "outputs": [
        {
          "name": "",
          "type": "bool"
        }
      ],
      "payable": false,
      "stateMutability": "view",
      "type": "function"
    },
    {
      "constant": true,
      "inputs": [],
      "name": "issuanceAddress",
      "outputs": [
        {
          "name": "",
          "type": "address"
        }
      ],
      "payable": false,
      "stateMutability": "view",
      "type": "function"
    },
    {
      "constant": true,
      "inputs": [],
      "name": "securityToken",
      "outputs": [
        {
          "name": "",
          "type": "address"
        }
      ],
      "payable": false,
      "stateMutability": "view",
      "type": "function"
    },
    {
      "constant": true,
      "inputs": [],
      "name": "INVESTORSKEY",
      "outputs": [
        {
          "name": "",
          "type": "bytes32"
        }
      ],
      "payable": false,
      "stateMutability": "view",
      "type": "function"
    },
    {
      "constant": true,
      "inputs": [
        {
          "name": "",
          "type": "uint8"
        }
      ],
      "name": "transferRequirements",
      "outputs": [
        {
          "name": "fromValidKYC",
          "type": "bool"
        },
        {
          "name": "toValidKYC",
          "type": "bool"
        },
        {
          "name": "fromRestricted",
          "type": "bool"
        },
        {
          "name": "toRestricted",
          "type": "bool"
        }
      ],
      "payable": false,
      "stateMutability": "view",
      "type": "function"
    },
    {
      "constant": true,
      "inputs": [],
      "name": "factory",
      "outputs": [
        {
          "name": "",
          "type": "address"
        }
      ],
      "payable": false,
      "stateMutability": "view",
      "type": "function"
    },
    {
      "constant": true,
      "inputs": [],
      "name": "defaults",
      "outputs": [
        {
          "name": "canSendAfter",
          "type": "uint64"
        },
        {
          "name": "canReceiveAfter",
          "type": "uint64"
        }
      ],
      "payable": false,
      "stateMutability": "view",
      "type": "function"
    },
    {
      "constant": false,
      "inputs": [
        {
          "name": "_newOwner",
          "type": "address"
        }
      ],
      "name": "transferProxyOwnership",
      "outputs": [],
      "payable": false,
      "stateMutability": "nonpayable",
      "type": "function"
    },
    {
      "inputs": [
        {
          "name": "_version",
          "type": "string"
        },
        {
          "name": "_securityToken",
          "type": "address"
        },
        {
          "name": "_polyAddress",
          "type": "address"
        },
        {
          "name": "_implementation",
          "type": "address"
        }
      ],
      "payable": false,
      "stateMutability": "nonpayable",
      "type": "constructor"
    },
    {
      "payable": true,
      "stateMutability": "payable",
      "type": "fallback"
    },
    {
      "anonymous": false,
      "inputs": [
        {
          "indexed": false,
          "name": "_previousOwner",
          "type": "address"
        },
        {
          "indexed": false,
          "name": "_newOwner",
          "type": "address"
        }
      ],
      "name": "ProxyOwnershipTransferred",
      "type": "event"
    },
    {
      "anonymous": false,
      "inputs": [
        {
          "indexed": false,
          "name": "_newVersion",
          "type": "string"
        },
        {
          "indexed": true,
          "name": "_newImplementation",
          "type": "address"
        }
      ],
      "name": "Upgraded",
      "type": "event"
    },
    {
      "anonymous": false,
      "inputs": [
        {
          "indexed": false,
          "name": "account",
          "type": "address"
        }
      ],
      "name": "Pause",
      "type": "event"
    },
    {
      "anonymous": false,
      "inputs": [
        {
          "indexed": false,
          "name": "account",
          "type": "address"
        }
      ],
      "name": "Unpause",
      "type": "event"
    }
  ],
  "bytecode": "0x608060405260068054600160a01b60ff02191690553480156200002157600080fd5b50604051620018ca380380620018ca833981018060405260808110156200004757600080fd5b8101908080516401000000008111156200006057600080fd5b820160208101848111156200007457600080fd5b81516401000000008111828201871017156200008f57600080fd5b50506020808301516040840151606090940151600580546001600160a01b038085166001600160a01b03199283161790925560048054821633908117909155600680549389169390921692909217905593965090945091620000f59162000337811b901c565b6001600160a01b03811662000156576040517f08c379a0000000000000000000000000000000000000000000000000000000008152600401808060200182810382526027815260200180620018226027913960400191505060405180910390fd5b620001688482620003cf60201b60201c565b604080516080810182526001808252602082018190529181018290526060810191909152600360008060ff1681526020808201929092526040908101600090812084518154868601518786015160609889015160ff199093169315159390931761ff001916610100911515919091021762ff0000191662010000921515929092029190911763ff0000001916630100000091151591909102179055815160808101835281815260019381018490529182018190529281018390529160039160ff1681526020808201929092526040908101600090812084518154868601518786015160609889015160ff199093169315159390931761ff001916610100911515919091021762ff0000191662010000921515929092029190911763ff000000191663010000009115159190910217905581516080810183526001815292830181905290820181905291810182905290600390600260ff168152602080820192909252604090810160002083518154938501519285015160609095015160ff199094169015151761ff001916610100921515929092029190911762ff0000191662010000931515939093029290921763ff000000191663010000009115159190910217905550620007f192505050565b6001600160a01b038116620003ad57604080517f08c379a000000000000000000000000000000000000000000000000000000000815260206004820152601860248201527f416464726573732073686f756c64206e6f742062652030780000000000000000604482015290519081900360640190fd5b600980546001600160a01b0319166001600160a01b0392909216919091179055565b6008546001600160a01b03828116911614801590620003f657506001600160a01b03811615155b6200044d576040517f08c379a0000000000000000000000000000000000000000000000000000000008152600401808060200182810382526046815260200180620018496046913960600191505060405180910390fd5b62000463816200074660201b62000e591760201c565b620004ba576040517f08c379a000000000000000000000000000000000000000000000000000000000815260040180806020018281038252603b8152602001806200188f603b913960400191505060405180910390fd5b600082511162000516576040517f08c379a0000000000000000000000000000000000000000000000000000000008152600401808060200182810382526022815260200180620018006022913960400191505060405180910390fd5b816040516020018082805190602001908083835b602083106200054b5780518252601f1990920191602091820191016200052a565b6001836020036101000a0380198251168184511680821785525050505050509050019150506040516020818303038152906040528051906020012060076040516020018082805460018160011615610100020316600290048015620005ea5780601f10620005c7576101008083540402835291820191620005ea565b820191906000526020600020905b815481529060010190602001808311620005d5575b50509150506040516020818303038152906040528051906020012014156200067357604080517f08c379a000000000000000000000000000000000000000000000000000000000815260206004820152601d60248201527f4e65772076657273696f6e20657175616c7320746f2063757272656e74000000604482015290519081900360640190fd5b8151620006889060079060208501906200074c565b50600880546001600160a01b0319166001600160a01b03831690811790915560408051602080825285518183015285517f8e05e0e35ff592971ca8b477d4285a33a61ded208d644042667b78693a472f5e938793928392918301919085019080838360005b8381101562000707578181015183820152602001620006ed565b50505050905090810190601f168015620007355780820380516001836020036101000a031916815260200191505b509250505060405180910390a25050565b3b151590565b828054600181600116156101000203166002900490600052602060002090601f016020900481019282601f106200078f57805160ff1916838001178555620007bf565b82800160010185558215620007bf579182015b82811115620007bf578251825591602001919060010190620007a2565b50620007cd929150620007d1565b5090565b620007ee91905b80821115620007cd5760008155600101620007d8565b90565b610fff80620008016000396000f3fe6080604052600436106101145760003560e01c8063958a41dd116100a0578063bc29389711610064578063bc2938971461044a578063c449c1d91461045f578063c45a0155146104b6578063edb7a6fa146104cb578063f1739cae1461050757610114565b8063958a41dd14610303578063983d2737146103d25780639ba0b7c0146103e7578063b3fac8ce14610420578063b84dfbd21461043557610114565b80635a8b1a9f116100e75780635a8b1a9f146102155780635c60da1b1461029b5780635c975abb146102b057806365022eff146102d95780636faa22a5146102ee57610114565b8063025313a21461011e5780631bb7cc991461014f5780632a0acc6a1461017657806354fd4d501461018b575b61011c61053a565b005b34801561012a57600080fd5b5061013361054c565b604080516001600160a01b039092168252519081900360200190f35b34801561015b57600080fd5b50610164610589565b60408051918252519081900360200190f35b34801561018257600080fd5b5061016461059c565b34801561019757600080fd5b506101a06105ab565b6040805160208082528351818301528351919283929083019185019080838360005b838110156101da5781810151838201526020016101c2565b50505050905090810190601f1680156102075780820380516001836020036101000a031916815260200191505b509250505060405180910390f35b34801561022157600080fd5b5061011c6004803603604081101561023857600080fd5b81019060208101813564010000000081111561025357600080fd5b82018360208201111561026557600080fd5b8035906020019184600183028401116401000000008311171561028757600080fd5b9193509150356001600160a01b0316610660565b3480156102a757600080fd5b506101336106d4565b3480156102bc57600080fd5b506102c56106ff565b604080519115158252519081900360200190f35b3480156102e557600080fd5b5061016461070f565b3480156102fa57600080fd5b50610133610733565b61011c6004803603606081101561031957600080fd5b81019060208101813564010000000081111561033457600080fd5b82018360208201111561034657600080fd5b8035906020019184600183028401116401000000008311171561036857600080fd5b919390926001600160a01b038335169260408101906020013564010000000081111561039357600080fd5b8201836020820111156103a557600080fd5b803590602001918460018302840111640100000000831117156103c757600080fd5b509092509050610742565b3480156103de57600080fd5b506101646107ec565b3480156103f357600080fd5b506102c56004803603604081101561040a57600080fd5b506001600160a01b0381351690602001356107fe565b34801561042c57600080fd5b5061013361081e565b34801561044157600080fd5b5061013361082d565b34801561045657600080fd5b5061016461083c565b34801561046b57600080fd5b5061048c6004803603602081101561048257600080fd5b503560ff16610860565b60408051941515855292151560208501529015158383015215156060830152519081900360800190f35b3480156104c257600080fd5b50610133610891565b3480156104d757600080fd5b506104e06108a0565b6040805167ffffffffffffffff938416815291909216602082015281519081900390910190f35b34801561051357600080fd5b5061011c6004803603602081101561052a57600080fd5b50356001600160a01b03166108c0565b61054a6105456109a3565b6109b2565b565b60006105566109d6565b6001600160a01b0316336001600160a01b0316141561057e576105776109d6565b9050610586565b61058661053a565b90565b600160ba1b6815d2125511531254d50281565b600160d91b6420a226a4a70281565b60606105b56109d6565b6001600160a01b0316336001600160a01b0316141561057e576007805460408051602060026001851615610100026000190190941693909304601f810184900484028201840190925281815292918301828280156106545780601f1061062957610100808354040283529160200191610654565b820191906000526020600020905b81548152906001019060200180831161063757829003601f168201915b50505050509050610586565b6106686109d6565b6001600160a01b0316336001600160a01b031614156106c7576106c283838080601f0160208091040260200160405190810160405280939291908181526020018383808284376000920191909152508592506109e5915050565b6106cf565b6106cf61053a565b505050565b60006106de6109d6565b6001600160a01b0316336001600160a01b0316141561057e576105776109a3565b600654600160a01b900460ff1681565b7f494e564553544f52464c4147530000000000000000000000000000000000000081565b6006546001600160a01b031681565b61074a6109d6565b6001600160a01b0316336001600160a01b031614156107dd576107d885858080601f01602080910402602001604051908101604052809392919081815260200183838082843760009201919091525050604080516020601f880181900481028201810190925286815288935091508690869081908401838280828437600092019190915250610ce092505050565b6107e5565b6107e561053a565b5050505050565b600160c11b6727a822a920aa27a90281565b600260209081526000928352604080842090915290825290205460ff1681565b6000546001600160a01b031681565b6005546001600160a01b031681565b7fdf3a8dd24acdd05addfc6aeffef7574d2de3f844535ec91e8e0f3e45dba9673181565b60036020526000908152604090205460ff808216916101008104821691620100008204811691630100000090041684565b6004546001600160a01b031681565b60015467ffffffffffffffff808216916801000000000000000090041682565b6108c86109d6565b6001600160a01b0316336001600160a01b03161415610998576001600160a01b03811661093f5760408051600160e51b62461bcd02815260206004820152601860248201527f416464726573732073686f756c64206e6f742062652030780000000000000000604482015290519081900360640190fd5b7f5a3e66efaa1e445ebd894728a69d6959842ea1e97bd79b892797106e270efcd96109686109d6565b604080516001600160a01b03928316815291841660208301528051918290030190a161099381610dd9565b6109a0565b6109a061053a565b50565b6008546001600160a01b031690565b3660008037600080366000845af43d6000803e8080156109d1573d6000f35b3d6000fd5b6009546001600160a01b031690565b6008546001600160a01b03828116911614801590610a0b57506001600160a01b03811615155b610a4957604051600160e51b62461bcd028152600401808060200182810382526046815260200180610f536046913960600191505060405180910390fd5b610a5281610e59565b610a9057604051600160e51b62461bcd02815260040180806020018281038252603b815260200180610f99603b913960400191505060405180910390fd5b6000825111610ad357604051600160e51b62461bcd028152600401808060200182810382526022815260200180610ef86022913960400191505060405180910390fd5b816040516020018082805190602001908083835b60208310610b065780518252601f199092019160209182019101610ae7565b6001836020036101000a0380198251168184511680821785525050505050509050019150506040516020818303038152906040528051906020012060076040516020018082805460018160011615610100020316600290048015610ba15780601f10610b7f576101008083540402835291820191610ba1565b820191906000526020600020905b815481529060010190602001808311610b8d575b5050915050604051602081830303815290604052805190602001201415610c125760408051600160e51b62461bcd02815260206004820152601d60248201527f4e65772076657273696f6e20657175616c7320746f2063757272656e74000000604482015290519081900360640190fd5b8151610c25906007906020850190610e5f565b50600880546001600160a01b0319166001600160a01b03831690811790915560408051602080825285518183015285517f8e05e0e35ff592971ca8b477d4285a33a61ded208d644042667b78693a472f5e938793928392918301919085019080838360005b83811015610ca2578181015183820152602001610c8a565b50505050905090810190601f168015610ccf5780820380516001836020036101000a031916815260200191505b509250505060405180910390a25050565b610cea83836109e5565b6000306001600160a01b031634836040518082805190602001908083835b60208310610d275780518252601f199092019160209182019101610d08565b6001836020036101000a03801982511681845116808217855250505050505090500191505060006040518083038185875af1925050503d8060008114610d89576040519150601f19603f3d011682016040523d82523d6000602084013e610d8e565b606091505b50508091505080610dd357604051600160e51b62461bcd028152600401808060200182810382526039815260200180610f1a6039913960400191505060405180910390fd5b50505050565b6001600160a01b038116610e375760408051600160e51b62461bcd02815260206004820152601860248201527f416464726573732073686f756c64206e6f742062652030780000000000000000604482015290519081900360640190fd5b600980546001600160a01b0319166001600160a01b0392909216919091179055565b3b151590565b828054600181600116156101000203166002900490600052602060002090601f016020900481019282601f10610ea057805160ff1916838001178555610ecd565b82800160010185558215610ecd579182015b82811115610ecd578251825591602001919060010190610eb2565b50610ed9929150610edd565b5090565b61058691905b80821115610ed95760008155600101610ee356fe56657273696f6e2073686f756c64206e6f7420626520656d70747920737472696e674661696c20696e20657865637574696e67207468652066756e6374696f6e206f6620696d706c656d656e746174696f6e20636f6e74726163744f6c642061646472657373206973206e6f7420616c6c6f77656420616e6420696d706c656d656e746174696f6e20616464726573732073686f756c64206e6f7420626520307843616e6e6f742073657420612070726f787920696d706c656d656e746174696f6e20746f2061206e6f6e2d636f6e74726163742061646472657373a165627a7a7230582032c5588e425c381ee7f068355e5ed342329df2f7bc451c5b28972bd81430643d002956657273696f6e2073686f756c64206e6f7420626520656d70747920737472696e67496d706c656d656e746174696f6e20616464726573732073686f756c64206e6f742062652030784f6c642061646472657373206973206e6f7420616c6c6f77656420616e6420696d706c656d656e746174696f6e20616464726573732073686f756c64206e6f7420626520307843616e6e6f742073657420612070726f787920696d706c656d656e746174696f6e20746f2061206e6f6e2d636f6e74726163742061646472657373",
  "source": "pragma solidity 0.5.8;\r\n\r\nimport \"../../../proxy/OwnedUpgradeabilityProxy.sol\";\r\nimport \"./GeneralTransferManagerStorage.sol\";\r\nimport \"../../../Pausable.sol\";\r\nimport \"../../../storage/modules/ModuleStorage.sol\";\r\n\r\n/**\r\n * @title Transfer Manager module for core transfer validation functionality\r\n */\r\ncontract GeneralTransferManagerProxy is GeneralTransferManagerStorage, ModuleStorage, Pausable, OwnedUpgradeabilityProxy {\r\n    /**\r\n    * @notice Constructor\r\n    * @param _securityToken Address of the security token\r\n    * @param _polyAddress Address of the polytoken\r\n    * @param _implementation representing the address of the new implementation to be set\r\n    */\r\n    constructor(\r\n        string memory _version,\r\n        address _securityToken,\r\n        address _polyAddress,\r\n        address _implementation\r\n    )\r\n        public\r\n        ModuleStorage(_securityToken, _polyAddress)\r\n    {\r\n        require(_implementation != address(0), \"Implementation address should not be 0x\");\r\n        _upgradeTo(_version, _implementation);\r\n        transferRequirements[uint8(TransferType.GENERAL)] = TransferRequirements(true, true, true, true);\r\n        transferRequirements[uint8(TransferType.ISSUANCE)] = TransferRequirements(false, true, false, false);\r\n        transferRequirements[uint8(TransferType.REDEMPTION)] = TransferRequirements(true, false, false, false);\r\n    }\r\n\r\n}\r\n",
  "sourcePath": "C:\\mspace\\polymath-core\\contracts\\modules\\TransferManager\\GTM\\GeneralTransferManagerProxy.sol",
  "compiler": {
    "name": "solc",
    "version": "0.5.8+commit.23d335f2.Emscripten.clang"
  },
  "schemaVersion": "3.0.11",
  "updatedAt": "2019-08-05T22:52:46.860Z",
  "devdoc": {
    "methods": {
      "constructor": {
        "params": {
          "_implementation": "representing the address of the new implementation to be set\r",
          "_polyAddress": "Address of the polytoken\r",
          "_securityToken": "Address of the security token\r"
        }
      },
      "implementation()": {
        "details": "Tells the address of the current implementation\r",
        "return": "address of the current implementation\r"
      },
      "proxyOwner()": {
        "details": "Tells the address of the proxy owner\r",
        "return": "the address of the proxy owner\r"
      },
      "transferProxyOwnership(address)": {
        "details": "Allows the current owner to transfer control of the contract to a newOwner.\r",
        "params": {
          "_newOwner": "The address to transfer ownership to.\r"
        }
      },
      "upgradeTo(string,address)": {
        "details": "Allows the upgradeability owner to upgrade the current version of the proxy.\r",
        "params": {
          "_newImplementation": "representing the address of the new implementation to be set.\r",
          "_newVersion": "representing the version name of the new implementation to be set.\r"
        }
      },
      "upgradeToAndCall(string,address,bytes)": {
        "details": "Allows the upgradeability owner to upgrade the current version of the proxy and call the new implementation\r to initialize whatever is needed through a low level call.\r",
        "params": {
          "_data": "represents the msg.data to bet sent in the low level call. This parameter may include the function\r signature of the implementation to be called with the needed payload\r",
          "_newImplementation": "representing the address of the new implementation to be set.\r",
          "_newVersion": "representing the version name of the new implementation to be set.\r"
        }
      },
      "version()": {
        "details": "Tells the version name of the current implementation\r",
        "return": "string representing the name of the current version\r"
      }
    },
    "title": "Transfer Manager module for core transfer validation functionality\r"
  },
  "userdoc": {
    "methods": {
      "constructor": "Constructor\r"
    }
  }
}