{
  "contractName": "GeneralTransferManagerStorage",
  "abi": [
    {
      "constant": true,
      "inputs": [],
      "name": "WHITELIST",
      "outputs": [
        {
          "name": "",
          "type": "bytes32"
        }
      ],
      "payable": false,
      "stateMutability": "view",
      "type": "function"
    },
    {
      "constant": true,
      "inputs": [],
      "name": "INVESTORFLAGS",
      "outputs": [
        {
          "name": "",
          "type": "bytes32"
        }
      ],
      "payable": false,
      "stateMutability": "view",
      "type": "function"
    },
    {
      "constant": true,
      "inputs": [
        {
          "name": "",
          "type": "address"
        },
        {
          "name": "",
          "type": "uint256"
        }
      ],
      "name": "nonceMap",
      "outputs": [
        {
          "name": "",
          "type": "bool"
        }
      ],
      "payable": false,
      "stateMutability": "view",
      "type": "function"
    },
    {
      "constant": true,
      "inputs": [],
      "name": "issuanceAddress",
      "outputs": [
        {
          "name": "",
          "type": "address"
        }
      ],
      "payable": false,
      "stateMutability": "view",
      "type": "function"
    },
    {
      "constant": true,
      "inputs": [],
      "name": "INVESTORSKEY",
      "outputs": [
        {
          "name": "",
          "type": "bytes32"
        }
      ],
      "payable": false,
      "stateMutability": "view",
      "type": "function"
    },
    {
      "constant": true,
      "inputs": [
        {
          "name": "",
          "type": "uint8"
        }
      ],
      "name": "transferRequirements",
      "outputs": [
        {
          "name": "fromValidKYC",
          "type": "bool"
        },
        {
          "name": "toValidKYC",
          "type": "bool"
        },
        {
          "name": "fromRestricted",
          "type": "bool"
        },
        {
          "name": "toRestricted",
          "type": "bool"
        }
      ],
      "payable": false,
      "stateMutability": "view",
      "type": "function"
    },
    {
      "constant": true,
      "inputs": [],
      "name": "defaults",
      "outputs": [
        {
          "name": "canSendAfter",
          "type": "uint64"
        },
        {
          "name": "canReceiveAfter",
          "type": "uint64"
        }
      ],
      "payable": false,
      "stateMutability": "view",
      "type": "function"
    }
  ],
  "bytecode": "0x608060405234801561001057600080fd5b50610290806100206000396000f3fe608060405234801561001057600080fd5b506004361061007d5760003560e01c8063b3fac8ce1161005b578063b3fac8ce146100e4578063bc29389714610108578063c449c1d914610110578063edb7a6fa1461015a5761007d565b80631bb7cc991461008257806365022eff1461009c5780639ba0b7c0146100a4575b600080fd5b61008a610189565b60408051918252519081900360200190f35b61008a61019c565b6100d0600480360360408110156100ba57600080fd5b506001600160a01b0381351690602001356101c0565b604080519115158252519081900360200190f35b6100ec6101e0565b604080516001600160a01b039092168252519081900360200190f35b61008a6101ef565b6101306004803603602081101561012657600080fd5b503560ff16610213565b60408051941515855292151560208501529015158383015215156060830152519081900360800190f35b610162610244565b6040805167ffffffffffffffff938416815291909216602082015281519081900390910190f35b600160ba1b6815d2125511531254d50281565b7f494e564553544f52464c4147530000000000000000000000000000000000000081565b600260209081526000928352604080842090915290825290205460ff1681565b6000546001600160a01b031681565b7fdf3a8dd24acdd05addfc6aeffef7574d2de3f844535ec91e8e0f3e45dba9673181565b60036020526000908152604090205460ff808216916101008104821691620100008204811691630100000090041684565b60015467ffffffffffffffff80821691680100000000000000009004168256fea165627a7a72305820690af78b6d2db03e2e1a7908e6ba8a2012d22e85b383077df62683f564c86f530029",
  "source": "pragma solidity 0.5.8;\r\n\r\n/**\r\n * @title Transfer Manager module for core transfer validation functionality\r\n */\r\ncontract GeneralTransferManagerStorage {\r\n\r\n    bytes32 public constant WHITELIST = \"WHITELIST\";\r\n    bytes32 public constant INVESTORSKEY = 0xdf3a8dd24acdd05addfc6aeffef7574d2de3f844535ec91e8e0f3e45dba96731; //keccak256(abi.encodePacked(\"INVESTORS\"))\r\n    bytes32 public constant INVESTORFLAGS = \"INVESTORFLAGS\";\r\n    uint256 internal constant ONE = uint256(1);\r\n\r\n    enum TransferType { GENERAL, ISSUANCE, REDEMPTION }\r\n\r\n    //Address from which issuances come\r\n    address public issuanceAddress;\r\n\r\n    // Allows all TimeRestrictions to be offset\r\n    struct Defaults {\r\n        uint64 canSendAfter;\r\n        uint64 canReceiveAfter;\r\n    }\r\n\r\n    // Offset to be applied to all timings (except KYC expiry)\r\n    Defaults public defaults;\r\n\r\n    // Map of used nonces by customer\r\n    mapping(address => mapping(uint256 => bool)) public nonceMap;\r\n\r\n    struct TransferRequirements {\r\n        bool fromValidKYC;\r\n        bool toValidKYC;\r\n        bool fromRestricted;\r\n        bool toRestricted;\r\n    }\r\n\r\n    mapping(uint8 => TransferRequirements) public transferRequirements;\r\n    // General = 0, Issuance = 1, Redemption = 2\r\n}\r\n",
  "sourcePath": "C:\\mspace\\polymath-core\\contracts\\modules\\TransferManager\\GTM\\GeneralTransferManagerStorage.sol",
  "compiler": {
    "name": "solc",
    "version": "0.5.8+commit.23d335f2.Emscripten.clang"
  },
  "schemaVersion": "3.0.11",
  "updatedAt": "2019-08-05T22:52:46.864Z",
  "devdoc": {
    "methods": {},
    "title": "Transfer Manager module for core transfer validation functionality\r"
  },
  "userdoc": {
    "methods": {}
  }
}