{
  "contractName": "GeneralPermissionManagerProxy",
  "abi": [
    {
      "constant": false,
      "inputs": [],
      "name": "proxyOwner",
      "outputs": [
        {
          "name": "",
          "type": "address"
        }
      ],
      "payable": false,
      "stateMutability": "nonpayable",
      "type": "function"
    },
    {
      "constant": true,
      "inputs": [],
      "name": "ADMIN",
      "outputs": [
        {
          "name": "",
          "type": "bytes32"
        }
      ],
      "payable": false,
      "stateMutability": "view",
      "type": "function"
    },
    {
      "constant": true,
      "inputs": [
        {
          "name": "",
          "type": "address"
        },
        {
          "name": "",
          "type": "address"
        },
        {
          "name": "",
          "type": "bytes32"
        }
      ],
      "name": "perms",
      "outputs": [
        {
          "name": "",
          "type": "bool"
        }
      ],
      "payable": false,
      "stateMutability": "view",
      "type": "function"
    },
    {
      "constant": false,
      "inputs": [],
      "name": "version",
      "outputs": [
        {
          "name": "",
          "type": "string"
        }
      ],
      "payable": false,
      "stateMutability": "nonpayable",
      "type": "function"
    },
    {
      "constant": false,
      "inputs": [
        {
          "name": "_newVersion",
          "type": "string"
        },
        {
          "name": "_newImplementation",
          "type": "address"
        }
      ],
      "name": "upgradeTo",
      "outputs": [],
      "payable": false,
      "stateMutability": "nonpayable",
      "type": "function"
    },
    {
      "constant": false,
      "inputs": [],
      "name": "implementation",
      "outputs": [
        {
          "name": "",
          "type": "address"
        }
      ],
      "payable": false,
      "stateMutability": "nonpayable",
      "type": "function"
    },
    {
      "constant": true,
      "inputs": [],
      "name": "paused",
      "outputs": [
        {
          "name": "",
          "type": "bool"
        }
      ],
      "payable": false,
      "stateMutability": "view",
      "type": "function"
    },
    {
      "constant": true,
      "inputs": [],
      "name": "polyToken",
      "outputs": [
        {
          "name": "",
          "type": "address"
        }
      ],
      "payable": false,
      "stateMutability": "view",
      "type": "function"
    },
    {
      "constant": true,
      "inputs": [
        {
          "name": "",
          "type": "uint256"
        }
      ],
      "name": "allDelegates",
      "outputs": [
        {
          "name": "",
          "type": "address"
        }
      ],
      "payable": false,
      "stateMutability": "view",
      "type": "function"
    },
    {
      "constant": false,
      "inputs": [
        {
          "name": "_newVersion",
          "type": "string"
        },
        {
          "name": "_newImplementation",
          "type": "address"
        },
        {
          "name": "_data",
          "type": "bytes"
        }
      ],
      "name": "upgradeToAndCall",
      "outputs": [],
      "payable": true,
      "stateMutability": "payable",
      "type": "function"
    },
    {
      "constant": true,
      "inputs": [],
      "name": "OPERATOR",
      "outputs": [
        {
          "name": "",
          "type": "bytes32"
        }
      ],
      "payable": false,
      "stateMutability": "view",
      "type": "function"
    },
    {
      "constant": true,
      "inputs": [],
      "name": "securityToken",
      "outputs": [
        {
          "name": "",
          "type": "address"
        }
      ],
      "payable": false,
      "stateMutability": "view",
      "type": "function"
    },
    {
      "constant": true,
      "inputs": [],
      "name": "factory",
      "outputs": [
        {
          "name": "",
          "type": "address"
        }
      ],
      "payable": false,
      "stateMutability": "view",
      "type": "function"
    },
    {
      "constant": true,
      "inputs": [
        {
          "name": "",
          "type": "address"
        }
      ],
      "name": "delegateDetails",
      "outputs": [
        {
          "name": "",
          "type": "bytes32"
        }
      ],
      "payable": false,
      "stateMutability": "view",
      "type": "function"
    },
    {
      "constant": false,
      "inputs": [
        {
          "name": "_newOwner",
          "type": "address"
        }
      ],
      "name": "transferProxyOwnership",
      "outputs": [],
      "payable": false,
      "stateMutability": "nonpayable",
      "type": "function"
    },
    {
      "inputs": [
        {
          "name": "_version",
          "type": "string"
        },
        {
          "name": "_securityToken",
          "type": "address"
        },
        {
          "name": "_polyAddress",
          "type": "address"
        },
        {
          "name": "_implementation",
          "type": "address"
        }
      ],
      "payable": false,
      "stateMutability": "nonpayable",
      "type": "constructor"
    },
    {
      "payable": true,
      "stateMutability": "payable",
      "type": "fallback"
    },
    {
      "anonymous": false,
      "inputs": [
        {
          "indexed": false,
          "name": "_previousOwner",
          "type": "address"
        },
        {
          "indexed": false,
          "name": "_newOwner",
          "type": "address"
        }
      ],
      "name": "ProxyOwnershipTransferred",
      "type": "event"
    },
    {
      "anonymous": false,
      "inputs": [
        {
          "indexed": false,
          "name": "_newVersion",
          "type": "string"
        },
        {
          "indexed": true,
          "name": "_newImplementation",
          "type": "address"
        }
      ],
      "name": "Upgraded",
      "type": "event"
    },
    {
      "anonymous": false,
      "inputs": [
        {
          "indexed": false,
          "name": "account",
          "type": "address"
        }
      ],
      "name": "Pause",
      "type": "event"
    },
    {
      "anonymous": false,
      "inputs": [
        {
          "indexed": false,
          "name": "account",
          "type": "address"
        }
      ],
      "name": "Unpause",
      "type": "event"
    }
  ],
  "bytecode": "0x608060405260058054600160a01b60ff02191690553480156200002157600080fd5b50604051620015e1380380620015e1833981018060405260808110156200004757600080fd5b8101908080516401000000008111156200006057600080fd5b820160208101848111156200007457600080fd5b81516401000000008111828201871017156200008f57600080fd5b50506020808301516040840151606090940151600480546001600160a01b038085166001600160a01b031992831617909255600380548216339081179091556005805493891693909216929092179055600160065593965090945091620000fa9162000177811b901c565b6001600160a01b0381166200015b576040517f08c379a0000000000000000000000000000000000000000000000000000000008152600401808060200182810382526027815260200180620015396027913960400191505060405180910390fd5b6200016d84826200020f60201b60201c565b5050505062000631565b6001600160a01b038116620001ed57604080517f08c379a000000000000000000000000000000000000000000000000000000000815260206004820152601860248201527f416464726573732073686f756c64206e6f742062652030780000000000000000604482015290519081900360640190fd5b600980546001600160a01b0319166001600160a01b0392909216919091179055565b6008546001600160a01b038281169116148015906200023657506001600160a01b03811615155b6200028d576040517f08c379a0000000000000000000000000000000000000000000000000000000008152600401808060200182810382526046815260200180620015606046913960600191505060405180910390fd5b620002a3816200058660201b62000d301760201c565b620002fa576040517f08c379a000000000000000000000000000000000000000000000000000000000815260040180806020018281038252603b815260200180620015a6603b913960400191505060405180910390fd5b600082511162000356576040517f08c379a0000000000000000000000000000000000000000000000000000000008152600401808060200182810382526022815260200180620015176022913960400191505060405180910390fd5b816040516020018082805190602001908083835b602083106200038b5780518252601f1990920191602091820191016200036a565b6001836020036101000a03801982511681845116808217855250505050505090500191505060405160208183030381529060405280519060200120600760405160200180828054600181600116156101000203166002900480156200042a5780601f10620004075761010080835404028352918201916200042a565b820191906000526020600020905b81548152906001019060200180831162000415575b5050915050604051602081830303815290604052805190602001201415620004b357604080517f08c379a000000000000000000000000000000000000000000000000000000000815260206004820152601d60248201527f4e65772076657273696f6e20657175616c7320746f2063757272656e74000000604482015290519081900360640190fd5b8151620004c89060079060208501906200058c565b50600880546001600160a01b0319166001600160a01b03831690811790915560408051602080825285518183015285517f8e05e0e35ff592971ca8b477d4285a33a61ded208d644042667b78693a472f5e938793928392918301919085019080838360005b83811015620005475781810151838201526020016200052d565b50505050905090810190601f168015620005755780820380516001836020036101000a031916815260200191505b509250505060405180910390a25050565b3b151590565b828054600181600116156101000203166002900490600052602060002090601f016020900481019282601f10620005cf57805160ff1916838001178555620005ff565b82800160010185558215620005ff579182015b82811115620005ff578251825591602001919060010190620005e2565b506200060d92915062000611565b5090565b6200062e91905b808211156200060d576000815560010162000618565b90565b610ed680620006416000396000f3fe6080604052600436106100e85760003560e01c80636faa22a51161008a578063b84dfbd211610059578063b84dfbd2146103fe578063c45a015514610413578063e380d34314610428578063f1739cae1461045b576100e8565b80636faa22a5146102db578063947dd6e5146102f0578063958a41dd1461031a578063983d2737146103e9576100e8565b806354fd4d50116100c657806354fd4d50146101a15780635a8b1a9f1461022b5780635c60da1b146102b15780635c975abb146102c6576100e8565b8063025313a2146100f25780632a0acc6a146101235780634e0a47921461014a575b6100f061048e565b005b3480156100fe57600080fd5b506101076104a0565b604080516001600160a01b039092168252519081900360200190f35b34801561012f57600080fd5b506101386104dd565b60408051918252519081900360200190f35b34801561015657600080fd5b5061018d6004803603606081101561016d57600080fd5b506001600160a01b038135811691602081013590911690604001356104ec565b604080519115158252519081900360200190f35b3480156101ad57600080fd5b506101b6610511565b6040805160208082528351818301528351919283929083019185019080838360005b838110156101f05781810151838201526020016101d8565b50505050905090810190601f16801561021d5780820380516001836020036101000a031916815260200191505b509250505060405180910390f35b34801561023757600080fd5b506100f06004803603604081101561024e57600080fd5b81019060208101813564010000000081111561026957600080fd5b82018360208201111561027b57600080fd5b8035906020019184600183028401116401000000008311171561029d57600080fd5b9193509150356001600160a01b03166105c6565b3480156102bd57600080fd5b5061010761063a565b3480156102d257600080fd5b5061018d610665565b3480156102e757600080fd5b50610107610675565b3480156102fc57600080fd5b506101076004803603602081101561031357600080fd5b5035610684565b6100f06004803603606081101561033057600080fd5b81019060208101813564010000000081111561034b57600080fd5b82018360208201111561035d57600080fd5b8035906020019184600183028401116401000000008311171561037f57600080fd5b919390926001600160a01b03833516926040810190602001356401000000008111156103aa57600080fd5b8201836020820111156103bc57600080fd5b803590602001918460018302840111640100000000831117156103de57600080fd5b5090925090506106ab565b3480156103f557600080fd5b50610138610755565b34801561040a57600080fd5b50610107610767565b34801561041f57600080fd5b50610107610776565b34801561043457600080fd5b506101386004803603602081101561044b57600080fd5b50356001600160a01b0316610785565b34801561046757600080fd5b506100f06004803603602081101561047e57600080fd5b50356001600160a01b0316610797565b61049e61049961087a565b610889565b565b60006104aa6108ad565b6001600160a01b0316336001600160a01b031614156104d2576104cb6108ad565b90506104da565b6104da61048e565b90565b600160d91b6420a226a4a70281565b6000602081815293815260408082208552928152828120909352825290205460ff1681565b606061051b6108ad565b6001600160a01b0316336001600160a01b031614156104d2576007805460408051602060026001851615610100026000190190941693909304601f810184900484028201840190925281815292918301828280156105ba5780601f1061058f576101008083540402835291602001916105ba565b820191906000526020600020905b81548152906001019060200180831161059d57829003601f168201915b505050505090506104da565b6105ce6108ad565b6001600160a01b0316336001600160a01b0316141561062d5761062883838080601f0160208091040260200160405190810160405280939291908181526020018383808284376000920191909152508592506108bc915050565b610635565b61063561048e565b505050565b60006106446108ad565b6001600160a01b0316336001600160a01b031614156104d2576104cb61087a565b600554600160a01b900460ff1681565b6005546001600160a01b031681565b6002818154811061069157fe5b6000918252602090912001546001600160a01b0316905081565b6106b36108ad565b6001600160a01b0316336001600160a01b031614156107465761074185858080601f01602080910402602001604051908101604052809392919081815260200183838082843760009201919091525050604080516020601f880181900481028201810190925286815288935091508690869081908401838280828437600092019190915250610bb792505050565b61074e565b61074e61048e565b5050505050565b600160c11b6727a822a920aa27a90281565b6004546001600160a01b031681565b6003546001600160a01b031681565b60016020526000908152604090205481565b61079f6108ad565b6001600160a01b0316336001600160a01b0316141561086f576001600160a01b0381166108165760408051600160e51b62461bcd02815260206004820152601860248201527f416464726573732073686f756c64206e6f742062652030780000000000000000604482015290519081900360640190fd5b7f5a3e66efaa1e445ebd894728a69d6959842ea1e97bd79b892797106e270efcd961083f6108ad565b604080516001600160a01b03928316815291841660208301528051918290030190a161086a81610cb0565b610877565b61087761048e565b50565b6008546001600160a01b031690565b3660008037600080366000845af43d6000803e8080156108a8573d6000f35b3d6000fd5b6009546001600160a01b031690565b6008546001600160a01b038281169116148015906108e257506001600160a01b03811615155b61092057604051600160e51b62461bcd028152600401808060200182810382526046815260200180610e2a6046913960600191505060405180910390fd5b61092981610d30565b61096757604051600160e51b62461bcd02815260040180806020018281038252603b815260200180610e70603b913960400191505060405180910390fd5b60008251116109aa57604051600160e51b62461bcd028152600401808060200182810382526022815260200180610dcf6022913960400191505060405180910390fd5b816040516020018082805190602001908083835b602083106109dd5780518252601f1990920191602091820191016109be565b6001836020036101000a0380198251168184511680821785525050505050509050019150506040516020818303038152906040528051906020012060076040516020018082805460018160011615610100020316600290048015610a785780601f10610a56576101008083540402835291820191610a78565b820191906000526020600020905b815481529060010190602001808311610a64575b5050915050604051602081830303815290604052805190602001201415610ae95760408051600160e51b62461bcd02815260206004820152601d60248201527f4e65772076657273696f6e20657175616c7320746f2063757272656e74000000604482015290519081900360640190fd5b8151610afc906007906020850190610d36565b50600880546001600160a01b0319166001600160a01b03831690811790915560408051602080825285518183015285517f8e05e0e35ff592971ca8b477d4285a33a61ded208d644042667b78693a472f5e938793928392918301919085019080838360005b83811015610b79578181015183820152602001610b61565b50505050905090810190601f168015610ba65780820380516001836020036101000a031916815260200191505b509250505060405180910390a25050565b610bc183836108bc565b6000306001600160a01b031634836040518082805190602001908083835b60208310610bfe5780518252601f199092019160209182019101610bdf565b6001836020036101000a03801982511681845116808217855250505050505090500191505060006040518083038185875af1925050503d8060008114610c60576040519150601f19603f3d011682016040523d82523d6000602084013e610c65565b606091505b50508091505080610caa57604051600160e51b62461bcd028152600401808060200182810382526039815260200180610df16039913960400191505060405180910390fd5b50505050565b6001600160a01b038116610d0e5760408051600160e51b62461bcd02815260206004820152601860248201527f416464726573732073686f756c64206e6f742062652030780000000000000000604482015290519081900360640190fd5b600980546001600160a01b0319166001600160a01b0392909216919091179055565b3b151590565b828054600181600116156101000203166002900490600052602060002090601f016020900481019282601f10610d7757805160ff1916838001178555610da4565b82800160010185558215610da4579182015b82811115610da4578251825591602001919060010190610d89565b50610db0929150610db4565b5090565b6104da91905b80821115610db05760008155600101610dba56fe56657273696f6e2073686f756c64206e6f7420626520656d70747920737472696e674661696c20696e20657865637574696e67207468652066756e6374696f6e206f6620696d706c656d656e746174696f6e20636f6e74726163744f6c642061646472657373206973206e6f7420616c6c6f77656420616e6420696d706c656d656e746174696f6e20616464726573732073686f756c64206e6f7420626520307843616e6e6f742073657420612070726f787920696d706c656d656e746174696f6e20746f2061206e6f6e2d636f6e74726163742061646472657373a165627a7a72305820cd5c10163633586b20b2ada391b7336e5b0250c27bddb2eabd383b8dc07f48f5002956657273696f6e2073686f756c64206e6f7420626520656d70747920737472696e67496d706c656d656e746174696f6e20616464726573732073686f756c64206e6f742062652030784f6c642061646472657373206973206e6f7420616c6c6f77656420616e6420696d706c656d656e746174696f6e20616464726573732073686f756c64206e6f7420626520307843616e6e6f742073657420612070726f787920696d706c656d656e746174696f6e20746f2061206e6f6e2d636f6e74726163742061646472657373",
  "source": "pragma solidity 0.5.8;\r\n\r\nimport \"../../proxy/OwnedUpgradeabilityProxy.sol\";\r\nimport \"../../Pausable.sol\";\r\nimport \"openzeppelin-solidity/contracts/utils/ReentrancyGuard.sol\";\r\nimport \"../../storage/modules/ModuleStorage.sol\";\r\nimport \"./GeneralPermissionManagerStorage.sol\";\r\n\r\n/**\r\n * @title GeneralPermissionManager module Proxy\r\n */\r\ncontract GeneralPermissionManagerProxy is GeneralPermissionManagerStorage, ModuleStorage, Pausable, ReentrancyGuard, OwnedUpgradeabilityProxy {\r\n\r\n    /**\r\n    * @notice Constructor\r\n    * @param _securityToken Address of the security token\r\n    * @param _polyAddress Address of the polytoken\r\n    * @param _implementation representing the address of the new implementation to be set\r\n    */\r\n    constructor (\r\n        string memory _version,\r\n        address _securityToken,\r\n        address _polyAddress,\r\n        address _implementation\r\n    )\r\n        public\r\n        ModuleStorage(_securityToken, _polyAddress)\r\n    {\r\n        require(\r\n            _implementation != address(0),\r\n            \"Implementation address should not be 0x\"\r\n        );\r\n        _upgradeTo(_version, _implementation);\r\n    }\r\n\r\n}\r\n",
  "sourcePath": "C:\\mspace\\polymath-core\\contracts\\modules\\PermissionManager\\GeneralPermissionManagerProxy.sol",
  "compiler": {
    "name": "solc",
    "version": "0.5.8+commit.23d335f2.Emscripten.clang"
  },
  "schemaVersion": "3.0.11",
  "updatedAt": "2019-08-05T22:52:46.822Z",
  "devdoc": {
    "methods": {
      "constructor": {
        "params": {
          "_implementation": "representing the address of the new implementation to be set\r",
          "_polyAddress": "Address of the polytoken\r",
          "_securityToken": "Address of the security token\r"
        }
      },
      "implementation()": {
        "details": "Tells the address of the current implementation\r",
        "return": "address of the current implementation\r"
      },
      "proxyOwner()": {
        "details": "Tells the address of the proxy owner\r",
        "return": "the address of the proxy owner\r"
      },
      "transferProxyOwnership(address)": {
        "details": "Allows the current owner to transfer control of the contract to a newOwner.\r",
        "params": {
          "_newOwner": "The address to transfer ownership to.\r"
        }
      },
      "upgradeTo(string,address)": {
        "details": "Allows the upgradeability owner to upgrade the current version of the proxy.\r",
        "params": {
          "_newImplementation": "representing the address of the new implementation to be set.\r",
          "_newVersion": "representing the version name of the new implementation to be set.\r"
        }
      },
      "upgradeToAndCall(string,address,bytes)": {
        "details": "Allows the upgradeability owner to upgrade the current version of the proxy and call the new implementation\r to initialize whatever is needed through a low level call.\r",
        "params": {
          "_data": "represents the msg.data to bet sent in the low level call. This parameter may include the function\r signature of the implementation to be called with the needed payload\r",
          "_newImplementation": "representing the address of the new implementation to be set.\r",
          "_newVersion": "representing the version name of the new implementation to be set.\r"
        }
      },
      "version()": {
        "details": "Tells the version name of the current implementation\r",
        "return": "string representing the name of the current version\r"
      }
    },
    "title": "GeneralPermissionManager module Proxy\r"
  },
  "userdoc": {
    "methods": {
      "constructor": "Constructor\r"
    }
  }
}