{
  "contractName": "KYCTransferManagerFactory",
  "abi": [
    {
      "constant": true,
      "inputs": [],
      "name": "name",
      "outputs": [
        {
          "name": "",
          "type": "bytes32"
        }
      ],
      "payable": false,
      "stateMutability": "view",
      "type": "function"
    },
    {
      "constant": false,
      "inputs": [
        {
          "name": "_setupCost",
          "type": "uint256"
        }
      ],
      "name": "changeSetupCost",
      "outputs": [],
      "payable": false,
      "stateMutability": "nonpayable",
      "type": "function"
    },
    {
      "constant": false,
      "inputs": [
        {
          "name": "_tagsData",
          "type": "bytes32[]"
        }
      ],
      "name": "changeTags",
      "outputs": [],
      "payable": false,
      "stateMutability": "nonpayable",
      "type": "function"
    },
    {
      "constant": false,
      "inputs": [],
      "name": "setupCostInPoly",
      "outputs": [
        {
          "name": "",
          "type": "uint256"
        }
      ],
      "payable": false,
      "stateMutability": "nonpayable",
      "type": "function"
    },
    {
      "constant": false,
      "inputs": [
        {
          "name": "_title",
          "type": "string"
        }
      ],
      "name": "changeTitle",
      "outputs": [],
      "payable": false,
      "stateMutability": "nonpayable",
      "type": "function"
    },
    {
      "constant": true,
      "inputs": [],
      "name": "isCostInPoly",
      "outputs": [
        {
          "name": "",
          "type": "bool"
        }
      ],
      "payable": false,
      "stateMutability": "view",
      "type": "function"
    },
    {
      "constant": true,
      "inputs": [],
      "name": "title",
      "outputs": [
        {
          "name": "",
          "type": "string"
        }
      ],
      "payable": false,
      "stateMutability": "view",
      "type": "function"
    },
    {
      "constant": true,
      "inputs": [],
      "name": "version",
      "outputs": [
        {
          "name": "",
          "type": "string"
        }
      ],
      "payable": false,
      "stateMutability": "view",
      "type": "function"
    },
    {
      "constant": false,
      "inputs": [],
      "name": "renounceOwnership",
      "outputs": [],
      "payable": false,
      "stateMutability": "nonpayable",
      "type": "function"
    },
    {
      "constant": true,
      "inputs": [],
      "name": "description",
      "outputs": [
        {
          "name": "",
          "type": "string"
        }
      ],
      "payable": false,
      "stateMutability": "view",
      "type": "function"
    },
    {
      "constant": true,
      "inputs": [],
      "name": "polymathRegistry",
      "outputs": [
        {
          "name": "",
          "type": "address"
        }
      ],
      "payable": false,
      "stateMutability": "view",
      "type": "function"
    },
    {
      "constant": true,
      "inputs": [],
      "name": "setupCost",
      "outputs": [
        {
          "name": "",
          "type": "uint256"
        }
      ],
      "payable": false,
      "stateMutability": "view",
      "type": "function"
    },
    {
      "constant": true,
      "inputs": [],
      "name": "getLowerSTVersionBounds",
      "outputs": [
        {
          "name": "",
          "type": "uint8[]"
        }
      ],
      "payable": false,
      "stateMutability": "view",
      "type": "function"
    },
    {
      "constant": false,
      "inputs": [
        {
          "name": "_name",
          "type": "bytes32"
        }
      ],
      "name": "changeName",
      "outputs": [],
      "payable": false,
      "stateMutability": "nonpayable",
      "type": "function"
    },
    {
      "constant": true,
      "inputs": [],
      "name": "owner",
      "outputs": [
        {
          "name": "",
          "type": "address"
        }
      ],
      "payable": false,
      "stateMutability": "view",
      "type": "function"
    },
    {
      "constant": true,
      "inputs": [],
      "name": "isOwner",
      "outputs": [
        {
          "name": "",
          "type": "bool"
        }
      ],
      "payable": false,
      "stateMutability": "view",
      "type": "function"
    },
    {
      "constant": true,
      "inputs": [],
      "name": "getTags",
      "outputs": [
        {
          "name": "",
          "type": "bytes32[]"
        }
      ],
      "payable": false,
      "stateMutability": "view",
      "type": "function"
    },
    {
      "constant": true,
      "inputs": [],
      "name": "getTypes",
      "outputs": [
        {
          "name": "",
          "type": "uint8[]"
        }
      ],
      "payable": false,
      "stateMutability": "view",
      "type": "function"
    },
    {
      "constant": false,
      "inputs": [
        {
          "name": "_setupCost",
          "type": "uint256"
        },
        {
          "name": "_isCostInPoly",
          "type": "bool"
        }
      ],
      "name": "changeCostAndType",
      "outputs": [],
      "payable": false,
      "stateMutability": "nonpayable",
      "type": "function"
    },
    {
      "constant": false,
      "inputs": [
        {
          "name": "_description",
          "type": "string"
        }
      ],
      "name": "changeDescription",
      "outputs": [],
      "payable": false,
      "stateMutability": "nonpayable",
      "type": "function"
    },
    {
      "constant": false,
      "inputs": [
        {
          "name": "newOwner",
          "type": "address"
        }
      ],
      "name": "transferOwnership",
      "outputs": [],
      "payable": false,
      "stateMutability": "nonpayable",
      "type": "function"
    },
    {
      "constant": true,
      "inputs": [],
      "name": "getUpperSTVersionBounds",
      "outputs": [
        {
          "name": "",
          "type": "uint8[]"
        }
      ],
      "payable": false,
      "stateMutability": "view",
      "type": "function"
    },
    {
      "constant": false,
      "inputs": [
        {
          "name": "_boundType",
          "type": "string"
        },
        {
          "name": "_newVersion",
          "type": "uint8[]"
        }
      ],
      "name": "changeSTVersionBounds",
      "outputs": [],
      "payable": false,
      "stateMutability": "nonpayable",
      "type": "function"
    },
    {
      "inputs": [
        {
          "name": "_setupCost",
          "type": "uint256"
        },
        {
          "name": "_polymathRegistry",
          "type": "address"
        },
        {
          "name": "_isCostInPoly",
          "type": "bool"
        }
      ],
      "payable": false,
      "stateMutability": "nonpayable",
      "type": "constructor"
    },
    {
      "anonymous": false,
      "inputs": [
        {
          "indexed": true,
          "name": "previousOwner",
          "type": "address"
        },
        {
          "indexed": true,
          "name": "newOwner",
          "type": "address"
        }
      ],
      "name": "OwnershipTransferred",
      "type": "event"
    },
    {
      "anonymous": false,
      "inputs": [
        {
          "indexed": false,
          "name": "_oldSetupCost",
          "type": "uint256"
        },
        {
          "indexed": false,
          "name": "_newSetupCost",
          "type": "uint256"
        }
      ],
      "name": "ChangeSetupCost",
      "type": "event"
    },
    {
      "anonymous": false,
      "inputs": [
        {
          "indexed": false,
          "name": "_isOldCostInPoly",
          "type": "bool"
        },
        {
          "indexed": false,
          "name": "_isNewCostInPoly",
          "type": "bool"
        }
      ],
      "name": "ChangeCostType",
      "type": "event"
    },
    {
      "anonymous": false,
      "inputs": [
        {
          "indexed": false,
          "name": "_module",
          "type": "address"
        },
        {
          "indexed": true,
          "name": "_moduleName",
          "type": "bytes32"
        },
        {
          "indexed": true,
          "name": "_moduleFactory",
          "type": "address"
        },
        {
          "indexed": false,
          "name": "_creator",
          "type": "address"
        },
        {
          "indexed": false,
          "name": "_setupCost",
          "type": "uint256"
        },
        {
          "indexed": false,
          "name": "_setupCostInPoly",
          "type": "uint256"
        }
      ],
      "name": "GenerateModuleFromFactory",
      "type": "event"
    },
    {
      "anonymous": false,
      "inputs": [
        {
          "indexed": false,
          "name": "_boundType",
          "type": "string"
        },
        {
          "indexed": false,
          "name": "_major",
          "type": "uint8"
        },
        {
          "indexed": false,
          "name": "_minor",
          "type": "uint8"
        },
        {
          "indexed": false,
          "name": "_patch",
          "type": "uint8"
        }
      ],
      "name": "ChangeSTVersionBound",
      "type": "event"
    },
    {
      "constant": false,
      "inputs": [
        {
          "name": "_data",
          "type": "bytes"
        }
      ],
      "name": "deploy",
      "outputs": [
        {
          "name": "",
          "type": "address"
        }
      ],
      "payable": false,
      "stateMutability": "nonpayable",
      "type": "function"
    }
  ],
  "bytecode": "0x60806040523480156200001157600080fd5b5060405160608062003607833981018060405260608110156200003357600080fd5b5080516020820151604092830151600080546001600160a01b031916331780825594519394929391928592859285926001600160a01b0316917f8be0079c531659141344cd1fd0a4f28419497f9722a3daafe3b4186f6b6457e0908290a3600992909255600180546001600160a01b0319166001600160a01b03929092169190911790556008805460ff19169115159190911790556040805180820190915260058082527f332e302e3000000000000000000000000000000000000000000000000000000060209092019182526200010e91600291620003b5565b507f4b59435472616e736665724d616e6167657200000000000000000000000000006003556040805180820190915260148082527f4b5943205472616e73666572204d616e6167657200000000000000000000000060209092019182526200017991600491620003b5565b5060408051808201909152600b8082527f4d616e61676573204b59430000000000000000000000000000000000000000006020909201918252620001c091600591620003b5565b50600680546001818101835560208083047ff652222313e28459528d920b65115c16c04f3efc82aaedc97be59f3f377c0d3f9081018054601f95861661010090810a6002810260ff91820219909316929092179092558654808601885584810490930180549390961690910a958602950219169390931790915560078054808301825560008281527f4b594300000000000000000000000000000000000000000000000000000000007fa66cc928b5edb82af9bd49922954155ab7b0942694bea4ce44661d9a8736c6889283015582549384019092557f5472616e73666572205265737472696374696f6e000000000000000000000000920191909155620002d791600391908190620019e86200039d821b17901c565b604080517f6c6f776572426f756e64000000000000000000000000000000000000000000008152600a808201529051602a91819003919091019020805462ffffff191662ffffff929092169190911790556200034360036000806200039d602090811b620019e817901c565b604080517f7570706572426f756e64000000000000000000000000000000000000000000008152600a81810152905190819003602a019020805462ffffff9290921662ffffff19909216919091179055506200045a915050565b60ff90811691811660081b921660101b919091171790565b828054600181600116156101000203166002900490600052602060002090601f016020900481019282601f10620003f857805160ff191683800117855562000428565b8280016001018555821562000428579182015b82811115620004285782518255916020019190600101906200040b565b50620004369291506200043a565b5090565b6200045791905b8082111562000436576000815560010162000441565b90565b61319d806200046a6000396000f3fe608060405234801561001057600080fd5b50600436106101575760003560e01c80637e363ffa116100c3578063b4579d601161007c578063b4579d60146104ba578063c97767f0146104c2578063e6120413146104e7578063f2fde38b1461058b578063f7862999146105b1578063fb972456146105b957610157565b80637e363ffa146104255780638677768f1461042d578063898855ed146104855780638da5cb5b146104a25780638f32d59b146104aa578063995d9ab7146104b257610157565b8063436846b811610115578063436846b81461036c5780634a79d50c1461038857806354fd4d5014610405578063715018a61461040d5780637284e4161461041557806377282b701461041d57610157565b80627743601461015c57806306fdde03146101e65780630c4c2d8f14610200578063265a72181461021f5780632d0aa22e146102c05780632dbe07c7146102c8575b600080fd5b6101ca6004803603602081101561017257600080fd5b810190602081018135600160201b81111561018c57600080fd5b82018360208201111561019e57600080fd5b803590602001918460018302840111600160201b831117156101bf57600080fd5b509092509050610677565b604080516001600160a01b039092168252519081900360200190f35b6101ee61079e565b60408051918252519081900360200190f35b61021d6004803603602081101561021657600080fd5b50356107a4565b005b61021d6004803603602081101561023557600080fd5b810190602081018135600160201b81111561024f57600080fd5b82018360208201111561026157600080fd5b803590602001918460208302840111600160201b8311171561028257600080fd5b9190808060200260200160405190810160405280939291908181526020018383602002808284376000920191909152509295506107f7945050505050565b6101ee61086a565b61021d600480360360208110156102de57600080fd5b810190602081018135600160201b8111156102f857600080fd5b82018360208201111561030a57600080fd5b803590602001918460018302840111600160201b8311171561032b57600080fd5b91908080601f016020809104026020016040519081016040528093929190818152602001838380828437600092019190915250929550610a15945050505050565b610374610a84565b604080519115158252519081900360200190f35b610390610a8d565b6040805160208082528351818301528351919283929083019185019080838360005b838110156103ca5781810151838201526020016103b2565b50505050905090810190601f1680156103f75780820380516001836020036101000a031916815260200191505b509250505060405180910390f35b610390610b1b565b61021d610bae565b610390610c09565b6101ca610c64565b6101ee610c73565b610435610c79565b60408051602080825283518183015283519192839290830191858101910280838360005b83811015610471578181015183820152602001610459565b505050509050019250505060405180910390f35b61021d6004803603602081101561049b57600080fd5b5035610cb8565b6101ca610d15565b610374610d24565b610435610d35565b610435610d8c565b61021d600480360360408110156104d857600080fd5b50803590602001351515610e01565b61021d600480360360208110156104fd57600080fd5b810190602081018135600160201b81111561051757600080fd5b82018360208201111561052957600080fd5b803590602001918460018302840111600160201b8311171561054a57600080fd5b91908080601f016020809104026020016040519081016040528093929190818152602001838380828437600092019190915250929550610eac945050505050565b61021d600480360360208110156105a157600080fd5b50356001600160a01b0316610f1b565b610435610f38565b61021d600480360360408110156105cf57600080fd5b810190602081018135600160201b8111156105e957600080fd5b8201836020820111156105fb57600080fd5b803590602001918460018302840111600160201b8311171561061c57600080fd5b919390929091602081019035600160201b81111561063957600080fd5b82018360208201111561064b57600080fd5b803590602001918460208302840111600160201b8311171561066c57600080fd5b509092509050610f72565b60015460408051600160e01b63bf40fac102815260206004820181905260096024830152600160b91b682837b63caa37b5b2b70260448301529151600093849333936001600160a01b039092169263bf40fac1926064808201939291829003018186803b1580156106e757600080fd5b505afa1580156106fb573d6000803e3d6000fd5b505050506040513d602081101561071157600080fd5b505160405161071f90611c39565b6001600160a01b03928316815291166020820152604080519182900301906000f080158015610752573d6000803e3d6000fd5b5090506107958185858080601f01602080910402602001604051908101604052809392919081815260200183838082843760009201919091525061145192505050565b90505b92915050565b60035481565b6107ac610d24565b6107b557600080fd5b600954604080519182526020820183905280517f599b244d21db9af3e5c0ec6cd4af8b4c6085c9ac647c72f008f8c40d0d7cd1be9281900390910190a1600955565b6107ff610d24565b61080857600080fd5b60008151116108535760408051600160e51b62461bcd02815260206004820152600c6024820152600160a21b6b125b9d985b1a59081d195e1d02604482015290519081900360640190fd5b8051610866906007906020840190611c46565b5050565b60085460009060ff16156108815750600954610a12565b600154604080518082018252601381527f537461626c65506f6c795573644f7261636c650000000000000000000000000060208083019182529251600160e01b63bf40fac1028152600481019384528251602482015282516000956001600160a01b03169463bf40fac1949390928392604490910191908083838b5b838110156109155781810151838201526020016108fd565b50505050905090810190601f1680156109425780820380516001836020036101000a031916815260200191505b509250505060206040518083038186803b15801561095f57600080fd5b505afa158015610973573d6000803e3d6000fd5b505050506040513d602081101561098957600080fd5b505160408051600160e11b634c6afee502815290516001600160a01b03909216916398d5fdca916004808201926020929091908290030181600087803b1580156109d257600080fd5b505af11580156109e6573d6000803e3d6000fd5b505050506040513d60208110156109fc57600080fd5b5051600954909150610a0e90826116a6565b9150505b90565b610a1d610d24565b610a2657600080fd5b6000815111610a715760408051600160e51b62461bcd02815260206004820152600c6024820152600160a21b6b125b9d985b1a59081d195e1d02604482015290519081900360640190fd5b8051610866906004906020840190611c91565b60085460ff1681565b6004805460408051602060026001851615610100026000190190941693909304601f81018490048402820184019092528181529291830182828015610b135780601f10610ae857610100808354040283529160200191610b13565b820191906000526020600020905b815481529060010190602001808311610af657829003601f168201915b505050505081565b60028054604080516020601f6000196101006001871615020190941685900493840181900481028201810190925282815260609390929091830182828015610ba45780601f10610b7957610100808354040283529160200191610ba4565b820191906000526020600020905b815481529060010190602001808311610b8757829003601f168201915b5050505050905090565b610bb6610d24565b610bbf57600080fd5b600080546040516001600160a01b03909116907f8be0079c531659141344cd1fd0a4f28419497f9722a3daafe3b4186f6b6457e0908390a3600080546001600160a01b0319169055565b6005805460408051602060026001851615610100026000190190941693909304601f81018490048402820184019092528181529291830182828015610b135780601f10610ae857610100808354040283529160200191610b13565b6001546001600160a01b031681565b60095481565b60408051600160b21b691b1bddd95c909bdd5b99028152600a81810152905190819003602a01902054606090610cb39062ffffff166116d6565b905090565b610cc0610d24565b610cc957600080fd5b80610d105760408051600160e51b62461bcd02815260206004820152600c6024820152600160a21b6b125b9d985b1a59081d195e1d02604482015290519081900360640190fd5b600355565b6000546001600160a01b031690565b6000546001600160a01b0316331490565b60606007805480602002602001604051908101604052809291908181526020018280548015610ba457602002820191906000526020600020905b815481526020019060010190808311610d6f575050505050905090565b60606006805480602002602001604051908101604052809291908181526020018280548015610ba457602002820191906000526020600020906000905b825461010083900a900460ff16815260206001928301818104948501949093039092029101808411610dc95790505050505050905090565b610e09610d24565b610e1257600080fd5b600954604080519182526020820184905280517f599b244d21db9af3e5c0ec6cd4af8b4c6085c9ac647c72f008f8c40d0d7cd1be9281900390910190a16008546040805160ff90921615158252821515602083015280517f243562d4d8acd21cf96c899dfa0c26774212a5181e5e40f852c7e6b66b7b96db9281900390910190a16009919091556008805460ff1916911515919091179055565b610eb4610d24565b610ebd57600080fd5b6000815111610f085760408051600160e51b62461bcd02815260206004820152600c6024820152600160a21b6b125b9d985b1a59081d195e1d02604482015290519081900360640190fd5b8051610866906005906020840190611c91565b610f23610d24565b610f2c57600080fd5b610f3581611778565b50565b60408051600160b21b691d5c1c195c909bdd5b99028152600a81810152905190819003602a01902054606090610cb39062ffffff166116d6565b610f7a610d24565b610f8357600080fd5b6040516020018080600160b21b691b1bddd95c909bdd5b9902815250600a01905060405160208183030381529060405280519060200120848460405160200180838380828437808301925050509250505060405160208183030381529060405280519060200120148061105a57506040516020018080600160b21b691d5c1c195c909bdd5b9902815250600a01905060405160208183030381529060405280519060200120848460405160200180838380828437808301925050509250505060405160208183030381529060405280519060200120145b6110ae5760408051600160e51b62461bcd02815260206004820152601260248201527f496e76616c696420626f756e6420747970650000000000000000000000000000604482015290519081900360640190fd5b600381146110fb5760408051600160e51b62461bcd02815260206004820152600f6024820152600160891b6e24b73b30b634b2103b32b939b4b7b702604482015290519081900360640190fd5b600062ffffff16600a858560405180838380828437919091019485525050604051928390036020019092205462ffffff169290921491506112f49050576060611170600a868660405180838380828437919091019485525050604051928390036020019092205462ffffff1691506116d69050565b90506040516020018080600160b21b691b1bddd95c909bdd5b9902815250600a01905060405160208183030381529060405280519060200120858560405160200180838380828437808301925050509250505060405160208183030381529060405280519060200120141561126b5761121d8383808060200260200160405190810160405280939291908181526020018383602002808284376000920191909152508592506117e6915050565b6112665760408051600160e51b62461bcd02815260206004820152600f6024820152600160891b6e24b73b30b634b2103b32b939b4b7b702604482015290519081900360640190fd5b6112f2565b6112a98383808060200260200160405190810160405280939291908181526020018383602002808284376000920191909152508592506118ec915050565b6112f25760408051600160e51b62461bcd02815260206004820152600f6024820152600160891b6e24b73b30b634b2103b32b939b4b7b702604482015290519081900360640190fd5b505b6113418282600081811061130457fe5b9050602002013560ff168383600181811061131b57fe5b9050602002013560ff168484600281811061133257fe5b9050602002013560ff166119e8565b600a85856040518083838082843791909101948552505060405192839003602001909220805462ffffff9490941662ffffff1990941693909317909255507f5b67e16edaf7fc70c8d065ea6e70b97ed944d98fe593b04d682216615a3b04db9050848484846000816113af57fe5b9050602002013560ff16858560018181106113c657fe5b9050602002013560ff16868660028181106113dd57fe5b9050602002013560ff1660405180806020018560ff1660ff1681526020018460ff1660ff1681526020018360ff1660ff1681526020018281038252878782818152602001925080828437600083820152604051601f909101601f19169092018290039850909650505050505050a150505050565b600061145b611a00565b90506000836001600160a01b0316631613ec9d6040518163ffffffff1660e01b815260040160206040518083038186803b15801561149857600080fd5b505afa1580156114ac573d6000803e3d6000fd5b505050506040513d60208110156114c257600080fd5b505190506001600160e01b0319811615611647576001600160e01b031981166114ea84611ba0565b6001600160e01b031916146115495760408051600160e51b62461bcd02815260206004820152601a60248201527f50726f76696465642064617461206973206e6f742076616c6964000000000000604482015290519081900360640190fd5b6000846001600160a01b0316846040518082805190602001908083835b602083106115855780518252601f199092019160209182019101611566565b6001836020036101000a0380198251168184511680821785525050505050509050019150506000604051808303816000865af19150503d80600081146115e7576040519150601f19603f3d011682016040523d82523d6000602084013e6115ec565b606091505b50509050806116455760408051600160e51b62461bcd02815260206004820152601b60248201527f556e7375636365737366756c20696e697469616c697a6174696f6e0000000000604482015290519081900360640190fd5b505b600354600954604080516001600160a01b03881681523360208201528082019290925260608201859052513092917fb68b4973fbce93f056103272c1f3f53b607527138d7e323b7b94f7ac169ebf77919081900360800190a350505050565b6000816116c76116be85670de0b6b3a7640000611c00565b60028504611c27565b816116ce57fe5b049392505050565b6040805160038082526080820190925260609182919060208201838038833901905050905060108362ffffff16901c8160008151811061171257fe5b602002602001019060ff16908160ff168152505060088362ffffff16901c8160018151811061173d57fe5b602002602001019060ff16908160ff1681525050828160028151811061175f57fe5b60ff909216602092830291909101909101529050919050565b6001600160a01b03811661178b57600080fd5b600080546040516001600160a01b03808516939216917f8be0079c531659141344cd1fd0a4f28419497f9722a3daafe3b4186f6b6457e091a3600080546001600160a01b0319166001600160a01b0392909216919091179055565b600082516003146117f657600080fd5b815160031461180457600080fd5b60005b83518160ff1610156118e257828160ff168151811061182257fe5b602002602001015160ff16848260ff168151811061183c57fe5b602002602001015160ff161415611852576118da565b828160ff168151811061186157fe5b602002602001015160ff16848260ff168151811061187b57fe5b602002602001015160ff161015611896576001915050610798565b828160ff16815181106118a557fe5b602002602001015160ff16848260ff16815181106118bf57fe5b602002602001015160ff1611156118da576000915050610798565b600101611807565b5060019392505050565b600082516003146118fc57600080fd5b815160031461190a57600080fd5b60005b83518160ff1610156118e257828160ff168151811061192857fe5b602002602001015160ff16848260ff168151811061194257fe5b602002602001015160ff161415611958576119e0565b828160ff168151811061196757fe5b602002602001015160ff16848260ff168151811061198157fe5b602002602001015160ff16111561199c576001915050610798565b828160ff16815181106119ab57fe5b602002602001015160ff16848260ff16815181106119c557fe5b602002602001015160ff1610156119e0576000915050610798565b60010161190d565b60ff90811691811660081b921660101b919091171790565b600080611a0b61086a565b60015460408051600160e01b63bf40fac102815260206004820181905260096024830152600160b91b682837b63caa37b5b2b702604483015291519394506000936001600160a01b039093169263bf40fac192606480840193919291829003018186803b158015611a7b57600080fd5b505afa158015611a8f573d6000803e3d6000fd5b505050506040513d6020811015611aa557600080fd5b505190508115611b9a57806001600160a01b03166323b872dd33611ac7610d15565b856040518463ffffffff1660e01b815260040180846001600160a01b03166001600160a01b03168152602001836001600160a01b03166001600160a01b031681526020018281526020019350505050602060405180830381600087803b158015611b3057600080fd5b505af1158015611b44573d6000803e3d6000fd5b505050506040513d6020811015611b5a57600080fd5b5051611b9a57604051600160e51b62461bcd02815260040180806020018281038252602581526020018061314d6025913960400191505060405180910390fd5b50905090565b6000806004835110611bb3576004611bb6565b82515b905060005b81811015611bf95780600802848281518110611bd357fe5b01602001516001600160f81b031960f891821c90911b16901c9290921791600101611bbb565b5050919050565b600082611c0f57506000610798565b82820282848281611c1c57fe5b041461079557600080fd5b60008282018381101561079557600080fd5b61143480611d1983390190565b828054828255906000526020600020908101928215611c81579160200282015b82811115611c81578251825591602001919060010190611c66565b50611c8d929150611cfe565b5090565b828054600181600116156101000203166002900490600052602060002090601f016020900481019282601f10611cd257805160ff1916838001178555611c81565b82800160010185558215611c815791820182811115611c81578251825591602001919060010190611c66565b610a1291905b80821115611c8d5760008155600101611d0456fe608060405260028054600160a01b60ff021916905534801561002057600080fd5b506040516040806114348339810180604052604081101561004057600080fd5b508051602090910151600180546001600160a01b039384166001600160a01b03199182161790915560008054821633179055600280549390921692169190911790556113a3806100916000396000f3fe608060405234801561001057600080fd5b506004361061014d5760003560e01c80638846594b116100c3578063c3a07df61161007c578063c3a07df6146103c3578063c3c84cff146103cb578063c45a0155146103d3578063e9bbe2a7146103db578063f1d74b0f146103e3578063fe58265e146104d45761014d565b80638846594b146103075780638905fd4f1461032d578063983d2737146103535780639f91e4a71461035b578063a1422f69146103b3578063b84dfbd2146103bb5761014d565b80633f4ba83a116101155780633f4ba83a146102815780635c975abb14610289578063629ef8d6146102a55780636c2f0d53146102d35780636faa22a5146102db5780638456cb59146102ff5761014d565b80630f144a48146101525780631613ec9d1461015c5780632829e651146101815780632a0acc6a146101c55780633d321731146101cd575b600080fd5b61015a6104dc565b005b610164610514565b604080516001600160e01b03199092168252519081900360200190f35b6101b36004803603606081101561019757600080fd5b508035906001600160a01b036020820135169060400135610519565b60408051918252519081900360200190f35b6101b36105bf565b61025d600480360360808110156101e357600080fd5b6001600160a01b0382358116926020810135909116916040820135919081019060808101606082013564010000000081111561021e57600080fd5b82018360208201111561023057600080fd5b8035906020019184600183028401116401000000008311171561025257600080fd5b5090925090506105ce565b6040518082600381111561026d57fe5b60ff16815260200191505060405180910390f35b61015a61061f565b610291610631565b604080519115158252519081900360200190f35b61015a600480360360408110156102bb57600080fd5b506001600160a01b0381351690602001351515610641565b6101b36106ba565b6102e36106cc565b604080516001600160a01b039092168252519081900360200190f35b61015a6106db565b6102916004803603602081101561031d57600080fd5b50356001600160a01b03166106eb565b61015a6004803603602081101561034357600080fd5b50356001600160a01b0316610789565b6101b361093f565b610363610951565b60408051602080825283518183015283519192839290830191858101910280838360005b8381101561039f578181015183820152602001610387565b505050509050019250505060405180910390f35b6101b3610a43565b6102e3610a53565b610363610a62565b6101b3610ab0565b6102e3610ac3565b6101b3610ad2565b6104a9600480360360808110156103f957600080fd5b6001600160a01b0382358116926020810135909116916040820135919081019060808101606082013564010000000081111561043457600080fd5b82018360208201111561044657600080fd5b8035906020019184600183028401116401000000008311171561046857600080fd5b91908080601f016020809104026020016040519081016040528093929190818152602001838380828437600092019190915250929550610ae6945050505050565b604051808360038111156104b957fe5b60ff1681526020018281526020019250505060405180910390f35b6102e3610b2d565b6104e4610ba6565b6040513390303180156108fc02916000818181858888f19350505050158015610511573d6000803e3d6000fd5b50565b600090565b6000600160c21b6715539313d0d2d151028414156105b45760015460408051600160e01b6370a082310281526001600160a01b038681166004830152915191909216916370a08231916024808301926020929190829003018186803b15801561058157600080fd5b505afa158015610595573d6000803e3d6000fd5b505050506040513d60208110156105ab57600080fd5b505190506105b8565b5060005b9392505050565b600160d91b6420a226a4a70281565b60008061061387878787878080601f016020809104026020016040519081016040528093929190818152602001838380828437600092019190915250610ae692505050565b50979650505050505050565b610627610ba6565b61062f610c7f565b565b600254600160a01b900460ff1681565b600160d91b6420a226a4a7026106578133610d25565b6106ab5760408051600160e51b62461bcd02815260206004820152601260248201527f496e76616c6964207065726d697373696f6e0000000000000000000000000000604482015290519081900360640190fd5b6106b58383610e5b565b505050565b600160c21b6715539313d0d2d1510281565b6002546001600160a01b031681565b6106e3610ba6565b61062f61127f565b6000806106f78361132c565b90506000610703610b2d565b90506000816001600160a01b03166333598b00846040518263ffffffff1660e01b81526004018082815260200191505060206040518083038186803b15801561074b57600080fd5b505afa15801561075f573d6000803e3d6000fd5b505050506040513d602081101561077557600080fd5b5051111561078257600192505b5050919050565b610791610ba6565b6001600160a01b0381166107ef5760408051600160e51b62461bcd02815260206004820152600f60248201527f496e76616c696420616464726573730000000000000000000000000000000000604482015290519081900360640190fd5b60408051600160e01b6370a08231028152306004820152905182916000916001600160a01b038416916370a08231916024808301926020929190829003018186803b15801561083d57600080fd5b505afa158015610851573d6000803e3d6000fd5b505050506040513d602081101561086757600080fd5b505160408051600160e01b63a9059cbb0281523360048201526024810183905290519192506001600160a01b0384169163a9059cbb916044808201926020929091908290030181600087803b1580156108bf57600080fd5b505af11580156108d3573d6000803e3d6000fd5b505050506040513d60208110156108e957600080fd5b50516106b55760408051600160e51b62461bcd02815260206004820152600f60248201527f5472616e73666572206661696c65640000000000000000000000000000000000604482015290519081900360640190fd5b600160c11b6727a822a920aa27a90281565b6060600061095d610b2d565b9050806001600160a01b0316635948f733600160b81b684b59435f4152524159026040518263ffffffff1660e01b81526004018082815260200191505060006040518083038186803b1580156109b257600080fd5b505afa1580156109c6573d6000803e3d6000fd5b505050506040513d6000823e601f3d908101601f1916820160405260208110156109ef57600080fd5b810190808051640100000000811115610a0757600080fd5b82016020810184811115610a1a57600080fd5b8151856020820283011164010000000082111715610a3757600080fd5b50909550505050505090565b600160d21b651313d0d2d1510281565b6001546001600160a01b031681565b60408051600180825281830190925260609182919060208083019080388339019050509050600160d91b6420a226a4a70281600081518110610aa057fe5b6020908102919091010152905090565b600160b81b684b59435f41525241590281565b6000546001600160a01b031681565b600160b11b6925aca1afa72aa6a122a90281565b6002546000908190600160a01b900460ff16158015610b095750610b09856106eb565b15610b1c5750600290503060601b610b24565b506001905060005b94509492505050565b60015460408051600160e01b63660d0d6702815290516000926001600160a01b03169163660d0d67916004808301926020929190829003018186803b158015610b7557600080fd5b505afa158015610b89573d6000803e3d6000fd5b505050506040513d6020811015610b9f57600080fd5b5051905090565b600160009054906101000a90046001600160a01b03166001600160a01b0316638da5cb5b6040518163ffffffff1660e01b815260040160206040518083038186803b158015610bf457600080fd5b505afa158015610c08573d6000803e3d6000fd5b505050506040513d6020811015610c1e57600080fd5b50516001600160a01b0316331461062f5760408051600160e51b62461bcd02815260206004820152601360248201527f53656e646572206973206e6f74206f776e657200000000000000000000000000604482015290519081900360640190fd5b600254600160a01b900460ff16610ce05760408051600160e51b62461bcd02815260206004820152601660248201527f436f6e7472616374206973206e6f742070617573656400000000000000000000604482015290519081900360640190fd5b60028054600160a01b60ff02191690556040805133815290517faeb196d352664784d1900b0e7414a8face7d29f4dae8c4b0cf68ed477423bbf49181900360200190a1565b600080600160009054906101000a90046001600160a01b03166001600160a01b0316638da5cb5b6040518163ffffffff1660e01b815260040160206040518083038186803b158015610d7657600080fd5b505afa158015610d8a573d6000803e3d6000fd5b505050506040513d6020811015610da057600080fd5b50516000546001600160a01b038581169281168314935016148180610dc25750805b80610e52575060015460408051600160e01b638658b8b90281526001600160a01b0387811660048301523060248301526044820189905291519190921691638658b8b9916064808301926020929190829003018186803b158015610e2557600080fd5b505afa158015610e39573d6000803e3d6000fd5b505050506040513d6020811015610e4f57600080fd5b50515b95945050505050565b6000610e65610b2d565b90506000610e728461132c565b90506000826001600160a01b03166333598b00836040518263ffffffff1660e01b81526004018082815260200191505060206040518083038186803b158015610eba57600080fd5b505afa158015610ece573d6000803e3d6000fd5b505050506040513d6020811015610ee457600080fd5b505160408051600160e11b6317e4a5d3028152600160b81b684b59435f415252415902600482015290519192506000916001600160a01b03861691632fc94ba6916024808301926020929190829003018186803b158015610f4457600080fd5b505afa158015610f58573d6000803e3d6000fd5b505050506040513d6020811015610f6e57600080fd5b5051905084156110a7578115610fbe5760408051600160e51b62461bcd02815260206004820152600a6024820152600160b01b694b59432065786973747302604482015290519081900360640190fd5b836001600160a01b0316634f3029c284836001016040518363ffffffff1660e01b81526004018083815260200182815260200192505050600060405180830381600087803b15801561100f57600080fd5b505af1158015611023573d6000803e3d6000fd5b505060408051600160e01b6381d65b2d028152600160b81b684b59435f41525241590260048201526001600160a01b038a81166024830152915191881693506381d65b2d925060448082019260009290919082900301818387803b15801561108a57600080fd5b505af115801561109e573d6000803e3d6000fd5b50505050611277565b816110fc5760408051600160e51b62461bcd02815260206004820152601260248201527f4b594320646f6573206e6f742065786973740000000000000000000000000000604482015290519081900360640190fd5b6000846001600160a01b0316639d849203600160b81b684b59435f415252415902600185036040518363ffffffff1660e01b8152600401808381526020018281526020019250505060206040518083038186803b15801561115c57600080fd5b505afa158015611170573d6000803e3d6000fd5b505050506040513d602081101561118657600080fd5b505160408051600160e11b631b076641028152600160b81b684b59435f41525241590260048201526000198601602482015290519192506001600160a01b0387169163360ecc829160448082019260009290919082900301818387803b1580156111ef57600080fd5b505af1158015611203573d6000803e3d6000fd5b50505050846001600160a01b0316634f3029c261121f8361132c565b856040518363ffffffff1660e01b81526004018083815260200182815260200192505050600060405180830381600087803b15801561125d57600080fd5b505af1158015611271573d6000803e3d6000fd5b50505050505b505050505050565b600254600160a01b900460ff16156112e15760408051600160e51b62461bcd02815260206004820152601260248201527f436f6e7472616374206973207061757365640000000000000000000000000000604482015290519081900360640190fd5b60028054600160a01b60ff021916600160a01b1790556040805133815290517f5ee71a369c8672edded508e624ffc9257fa1ae6886ef32905c18e60196bca3999181900360200190a1565b60408051600160b11b6925aca1afa72aa6a122a9026020808301919091526001600160a01b03841660601b82840152825160348184030181526054909201909252805191012091905056fea165627a7a723058209fcd1b9833cd2c54713a3aede4614f28c4e6a3a6c3ca40302586caf6d9e7ebef0029496e73756666696369656e7420616c6c6f77616e636520666f72206d6f64756c6520666565a165627a7a72305820d7225ec4fe661b3aca1f34f95f6a715da4c473b27a5190098d4ed95655790df00029",
  "source": "pragma solidity 0.5.8;\r\n\r\nimport \"./KYCTransferManager.sol\";\r\nimport \"./../../ModuleFactory.sol\";\r\n\r\n\r\ncontract KYCTransferManagerFactory is ModuleFactory {\r\n\r\n    /**\r\n     * @notice Constructor\r\n     */\r\n    constructor(\r\n        uint256 _setupCost,\r\n        address _polymathRegistry,\r\n        bool _isCostInPoly\r\n    )\r\n        public ModuleFactory(_setupCost, _polymathRegistry, _isCostInPoly)\r\n    {\r\n        initialVersion = \"3.0.0\";\r\n        name = \"KYCTransferManager\";\r\n        title = \"KYC Transfer Manager\";\r\n        description = \"Manages KYC\";\r\n        typesData.push(2);\r\n        typesData.push(6);\r\n        tagsData.push(\"KYC\");\r\n        tagsData.push(\"Transfer Restriction\");\r\n        compatibleSTVersionRange[\"lowerBound\"] = VersionUtils.pack(uint8(3), uint8(0), uint8(0));\r\n        compatibleSTVersionRange[\"upperBound\"] = VersionUtils.pack(uint8(3), uint8(0), uint8(0));\r\n    }\r\n\r\n\r\n     /**\r\n     * @notice Used to launch the Module with the help of factory\r\n     * @return address Contract address of the Module\r\n     */\r\n    function deploy(bytes calldata _data) external returns(address) {\r\n        address kycTransferManager = address(new KYCTransferManager(msg.sender, polymathRegistry.getAddress(\"PolyToken\")));\r\n        _initializeModule(kycTransferManager, _data);\r\n        return kycTransferManager;\r\n    }\r\n\r\n}\r\n",
  "sourcePath": "C:/mspace/polymath-core/contracts/modules/Experimental/TransferManager/KYCTransferManagerFactory.sol",
  "compiler": {
    "name": "solc",
    "version": "0.5.8+commit.23d335f2.Emscripten.clang"
  },
  "schemaVersion": "3.0.11",
  "updatedAt": "2019-08-05T12:37:19.275Z",
  "devdoc": {
    "methods": {
      "changeCostAndType(uint256,bool)": {
        "params": {
          "_isCostInPoly": "new setup cost currency. USD or POLY\r",
          "_setupCost": "new setup cost\r"
        }
      },
      "changeDescription(string)": {
        "params": {
          "_description": "New description that will replace the old one.\r"
        }
      },
      "changeName(bytes32)": {
        "params": {
          "_name": "New name that will replace the old one.\r"
        }
      },
      "changeSTVersionBounds(string,uint8[])": {
        "params": {
          "_boundType": "Type of bound\r",
          "_newVersion": "new version array\r"
        }
      },
      "changeSetupCost(uint256)": {
        "params": {
          "_setupCost": "new setup cost\r"
        }
      },
      "changeTags(bytes32[])": {
        "params": {
          "_tagsData": "New list of tags\r"
        }
      },
      "changeTitle(string)": {
        "params": {
          "_title": "New Title that will replace the old one.\r"
        }
      },
      "deploy(bytes)": {
        "return": "address Contract address of the Module\r"
      },
      "getLowerSTVersionBounds()": {
        "return": "lower bound\r"
      },
      "getUpperSTVersionBounds()": {
        "return": "upper bound\r"
      },
      "isOwner()": {
        "return": "true if `msg.sender` is the owner of the contract."
      },
      "owner()": {
        "return": "the address of the owner."
      },
      "renounceOwnership()": {
        "details": "Allows the current owner to relinquish control of the contract. It will not be possible to call the functions with the `onlyOwner` modifier anymore."
      },
      "transferOwnership(address)": {
        "details": "Allows the current owner to transfer control of the contract to a newOwner.",
        "params": {
          "newOwner": "The address to transfer ownership to."
        }
      }
    }
  },
  "userdoc": {
    "methods": {
      "changeCostAndType(uint256,bool)": {
        "notice": "Used to change the currency and amount of setup cost\r"
      },
      "changeDescription(string)": {
        "notice": "Updates the description of the ModuleFactory\r"
      },
      "changeName(bytes32)": {
        "notice": "Updates the name of the ModuleFactory\r"
      },
      "changeSTVersionBounds(string,uint8[])": {
        "notice": "Function use to change the lower and upper bound of the compatible version st\r"
      },
      "changeSetupCost(uint256)": {
        "notice": "Used to change the fee of the setup cost\r"
      },
      "changeTags(bytes32[])": {
        "notice": "Updates the tags of the ModuleFactory\r"
      },
      "changeTitle(string)": {
        "notice": "Updates the title of the ModuleFactory\r"
      },
      "constructor": "Constructor\r",
      "deploy(bytes)": {
        "notice": "Used to launch the Module with the help of factory\r"
      },
      "getLowerSTVersionBounds()": {
        "notice": "Used to get the lower bound\r"
      },
      "getTags()": {
        "notice": "Get the tags related to the module factory\r"
      },
      "getTypes()": {
        "notice": "Type of the Module factory\r"
      },
      "getUpperSTVersionBounds()": {
        "notice": "Used to get the upper bound\r"
      },
      "renounceOwnership()": {
        "notice": "Renouncing ownership will leave the contract without an owner, thereby removing any functionality that is only available to the owner."
      },
      "setupCostInPoly()": {
        "notice": "Get the setup cost of the module\r"
      },
      "version()": {
        "notice": "Get the version related to the module factory\r"
      }
    }
  }
}