{
  "contractName": "KYCTransferManager",
  "abi": [
    {
      "constant": false,
      "inputs": [],
      "name": "reclaimETH",
      "outputs": [],
      "payable": false,
      "stateMutability": "nonpayable",
      "type": "function"
    },
    {
      "constant": true,
      "inputs": [
        {
          "name": "_partition",
          "type": "bytes32"
        },
        {
          "name": "_tokenHolder",
          "type": "address"
        },
        {
          "name": "",
          "type": "uint256"
        }
      ],
      "name": "getTokensByPartition",
      "outputs": [
        {
          "name": "",
          "type": "uint256"
        }
      ],
      "payable": false,
      "stateMutability": "view",
      "type": "function"
    },
    {
      "constant": true,
      "inputs": [],
      "name": "ADMIN",
      "outputs": [
        {
          "name": "",
          "type": "bytes32"
        }
      ],
      "payable": false,
      "stateMutability": "view",
      "type": "function"
    },
    {
      "constant": false,
      "inputs": [],
      "name": "unpause",
      "outputs": [],
      "payable": false,
      "stateMutability": "nonpayable",
      "type": "function"
    },
    {
      "constant": true,
      "inputs": [],
      "name": "paused",
      "outputs": [
        {
          "name": "",
          "type": "bool"
        }
      ],
      "payable": false,
      "stateMutability": "view",
      "type": "function"
    },
    {
      "constant": true,
      "inputs": [],
      "name": "UNLOCKED",
      "outputs": [
        {
          "name": "",
          "type": "bytes32"
        }
      ],
      "payable": false,
      "stateMutability": "view",
      "type": "function"
    },
    {
      "constant": true,
      "inputs": [],
      "name": "polyToken",
      "outputs": [
        {
          "name": "",
          "type": "address"
        }
      ],
      "payable": false,
      "stateMutability": "view",
      "type": "function"
    },
    {
      "constant": false,
      "inputs": [],
      "name": "pause",
      "outputs": [],
      "payable": false,
      "stateMutability": "nonpayable",
      "type": "function"
    },
    {
      "constant": false,
      "inputs": [
        {
          "name": "_tokenContract",
          "type": "address"
        }
      ],
      "name": "reclaimERC20",
      "outputs": [],
      "payable": false,
      "stateMutability": "nonpayable",
      "type": "function"
    },
    {
      "constant": true,
      "inputs": [],
      "name": "OPERATOR",
      "outputs": [
        {
          "name": "",
          "type": "bytes32"
        }
      ],
      "payable": false,
      "stateMutability": "view",
      "type": "function"
    },
    {
      "constant": true,
      "inputs": [],
      "name": "LOCKED",
      "outputs": [
        {
          "name": "",
          "type": "bytes32"
        }
      ],
      "payable": false,
      "stateMutability": "view",
      "type": "function"
    },
    {
      "constant": true,
      "inputs": [],
      "name": "securityToken",
      "outputs": [
        {
          "name": "",
          "type": "address"
        }
      ],
      "payable": false,
      "stateMutability": "view",
      "type": "function"
    },
    {
      "constant": true,
      "inputs": [],
      "name": "KYC_ARRAY",
      "outputs": [
        {
          "name": "",
          "type": "bytes32"
        }
      ],
      "payable": false,
      "stateMutability": "view",
      "type": "function"
    },
    {
      "constant": true,
      "inputs": [],
      "name": "factory",
      "outputs": [
        {
          "name": "",
          "type": "address"
        }
      ],
      "payable": false,
      "stateMutability": "view",
      "type": "function"
    },
    {
      "constant": true,
      "inputs": [],
      "name": "KYC_NUMBER",
      "outputs": [
        {
          "name": "",
          "type": "bytes32"
        }
      ],
      "payable": false,
      "stateMutability": "view",
      "type": "function"
    },
    {
      "constant": true,
      "inputs": [],
      "name": "getDataStore",
      "outputs": [
        {
          "name": "",
          "type": "address"
        }
      ],
      "payable": false,
      "stateMutability": "view",
      "type": "function"
    },
    {
      "inputs": [
        {
          "name": "_securityToken",
          "type": "address"
        },
        {
          "name": "_polyAddress",
          "type": "address"
        }
      ],
      "payable": false,
      "stateMutability": "nonpayable",
      "type": "constructor"
    },
    {
      "anonymous": false,
      "inputs": [
        {
          "indexed": false,
          "name": "account",
          "type": "address"
        }
      ],
      "name": "Pause",
      "type": "event"
    },
    {
      "anonymous": false,
      "inputs": [
        {
          "indexed": false,
          "name": "account",
          "type": "address"
        }
      ],
      "name": "Unpause",
      "type": "event"
    },
    {
      "constant": true,
      "inputs": [],
      "name": "getInitFunction",
      "outputs": [
        {
          "name": "",
          "type": "bytes4"
        }
      ],
      "payable": false,
      "stateMutability": "pure",
      "type": "function"
    },
    {
      "constant": false,
      "inputs": [
        {
          "name": "_from",
          "type": "address"
        },
        {
          "name": "_to",
          "type": "address"
        },
        {
          "name": "_amount",
          "type": "uint256"
        },
        {
          "name": "_data",
          "type": "bytes"
        }
      ],
      "name": "executeTransfer",
      "outputs": [
        {
          "name": "",
          "type": "uint8"
        }
      ],
      "payable": false,
      "stateMutability": "nonpayable",
      "type": "function"
    },
    {
      "constant": true,
      "inputs": [
        {
          "name": "",
          "type": "address"
        },
        {
          "name": "_to",
          "type": "address"
        },
        {
          "name": "",
          "type": "uint256"
        },
        {
          "name": "",
          "type": "bytes"
        }
      ],
      "name": "verifyTransfer",
      "outputs": [
        {
          "name": "",
          "type": "uint8"
        },
        {
          "name": "",
          "type": "bytes32"
        }
      ],
      "payable": false,
      "stateMutability": "view",
      "type": "function"
    },
    {
      "constant": false,
      "inputs": [
        {
          "name": "_investor",
          "type": "address"
        },
        {
          "name": "_kycStatus",
          "type": "bool"
        }
      ],
      "name": "modifyKYC",
      "outputs": [],
      "payable": false,
      "stateMutability": "nonpayable",
      "type": "function"
    },
    {
      "constant": true,
      "inputs": [],
      "name": "getKYCAddresses",
      "outputs": [
        {
          "name": "",
          "type": "address[]"
        }
      ],
      "payable": false,
      "stateMutability": "view",
      "type": "function"
    },
    {
      "constant": true,
      "inputs": [
        {
          "name": "_investor",
          "type": "address"
        }
      ],
      "name": "checkKYC",
      "outputs": [
        {
          "name": "kyc",
          "type": "bool"
        }
      ],
      "payable": false,
      "stateMutability": "view",
      "type": "function"
    },
    {
      "constant": true,
      "inputs": [],
      "name": "getPermissions",
      "outputs": [
        {
          "name": "",
          "type": "bytes32[]"
        }
      ],
      "payable": false,
      "stateMutability": "view",
      "type": "function"
    }
  ],
  "bytecode": "0x608060405260028054600160a01b60ff021916905534801561002057600080fd5b506040516040806114348339810180604052604081101561004057600080fd5b508051602090910151600180546001600160a01b039384166001600160a01b03199182161790915560008054821633179055600280549390921692169190911790556113a3806100916000396000f3fe608060405234801561001057600080fd5b506004361061014d5760003560e01c80638846594b116100c3578063c3a07df61161007c578063c3a07df6146103c3578063c3c84cff146103cb578063c45a0155146103d3578063e9bbe2a7146103db578063f1d74b0f146103e3578063fe58265e146104d45761014d565b80638846594b146103075780638905fd4f1461032d578063983d2737146103535780639f91e4a71461035b578063a1422f69146103b3578063b84dfbd2146103bb5761014d565b80633f4ba83a116101155780633f4ba83a146102815780635c975abb14610289578063629ef8d6146102a55780636c2f0d53146102d35780636faa22a5146102db5780638456cb59146102ff5761014d565b80630f144a48146101525780631613ec9d1461015c5780632829e651146101815780632a0acc6a146101c55780633d321731146101cd575b600080fd5b61015a6104dc565b005b610164610514565b604080516001600160e01b03199092168252519081900360200190f35b6101b36004803603606081101561019757600080fd5b508035906001600160a01b036020820135169060400135610519565b60408051918252519081900360200190f35b6101b36105bf565b61025d600480360360808110156101e357600080fd5b6001600160a01b0382358116926020810135909116916040820135919081019060808101606082013564010000000081111561021e57600080fd5b82018360208201111561023057600080fd5b8035906020019184600183028401116401000000008311171561025257600080fd5b5090925090506105ce565b6040518082600381111561026d57fe5b60ff16815260200191505060405180910390f35b61015a61061f565b610291610631565b604080519115158252519081900360200190f35b61015a600480360360408110156102bb57600080fd5b506001600160a01b0381351690602001351515610641565b6101b36106ba565b6102e36106cc565b604080516001600160a01b039092168252519081900360200190f35b61015a6106db565b6102916004803603602081101561031d57600080fd5b50356001600160a01b03166106eb565b61015a6004803603602081101561034357600080fd5b50356001600160a01b0316610789565b6101b361093f565b610363610951565b60408051602080825283518183015283519192839290830191858101910280838360005b8381101561039f578181015183820152602001610387565b505050509050019250505060405180910390f35b6101b3610a43565b6102e3610a53565b610363610a62565b6101b3610ab0565b6102e3610ac3565b6101b3610ad2565b6104a9600480360360808110156103f957600080fd5b6001600160a01b0382358116926020810135909116916040820135919081019060808101606082013564010000000081111561043457600080fd5b82018360208201111561044657600080fd5b8035906020019184600183028401116401000000008311171561046857600080fd5b91908080601f016020809104026020016040519081016040528093929190818152602001838380828437600092019190915250929550610ae6945050505050565b604051808360038111156104b957fe5b60ff1681526020018281526020019250505060405180910390f35b6102e3610b2d565b6104e4610ba6565b6040513390303180156108fc02916000818181858888f19350505050158015610511573d6000803e3d6000fd5b50565b600090565b6000600160c21b6715539313d0d2d151028414156105b45760015460408051600160e01b6370a082310281526001600160a01b038681166004830152915191909216916370a08231916024808301926020929190829003018186803b15801561058157600080fd5b505afa158015610595573d6000803e3d6000fd5b505050506040513d60208110156105ab57600080fd5b505190506105b8565b5060005b9392505050565b600160d91b6420a226a4a70281565b60008061061387878787878080601f016020809104026020016040519081016040528093929190818152602001838380828437600092019190915250610ae692505050565b50979650505050505050565b610627610ba6565b61062f610c7f565b565b600254600160a01b900460ff1681565b600160d91b6420a226a4a7026106578133610d25565b6106ab5760408051600160e51b62461bcd02815260206004820152601260248201527f496e76616c6964207065726d697373696f6e0000000000000000000000000000604482015290519081900360640190fd5b6106b58383610e5b565b505050565b600160c21b6715539313d0d2d1510281565b6002546001600160a01b031681565b6106e3610ba6565b61062f61127f565b6000806106f78361132c565b90506000610703610b2d565b90506000816001600160a01b03166333598b00846040518263ffffffff1660e01b81526004018082815260200191505060206040518083038186803b15801561074b57600080fd5b505afa15801561075f573d6000803e3d6000fd5b505050506040513d602081101561077557600080fd5b5051111561078257600192505b5050919050565b610791610ba6565b6001600160a01b0381166107ef5760408051600160e51b62461bcd02815260206004820152600f60248201527f496e76616c696420616464726573730000000000000000000000000000000000604482015290519081900360640190fd5b60408051600160e01b6370a08231028152306004820152905182916000916001600160a01b038416916370a08231916024808301926020929190829003018186803b15801561083d57600080fd5b505afa158015610851573d6000803e3d6000fd5b505050506040513d602081101561086757600080fd5b505160408051600160e01b63a9059cbb0281523360048201526024810183905290519192506001600160a01b0384169163a9059cbb916044808201926020929091908290030181600087803b1580156108bf57600080fd5b505af11580156108d3573d6000803e3d6000fd5b505050506040513d60208110156108e957600080fd5b50516106b55760408051600160e51b62461bcd02815260206004820152600f60248201527f5472616e73666572206661696c65640000000000000000000000000000000000604482015290519081900360640190fd5b600160c11b6727a822a920aa27a90281565b6060600061095d610b2d565b9050806001600160a01b0316635948f733600160b81b684b59435f4152524159026040518263ffffffff1660e01b81526004018082815260200191505060006040518083038186803b1580156109b257600080fd5b505afa1580156109c6573d6000803e3d6000fd5b505050506040513d6000823e601f3d908101601f1916820160405260208110156109ef57600080fd5b810190808051640100000000811115610a0757600080fd5b82016020810184811115610a1a57600080fd5b8151856020820283011164010000000082111715610a3757600080fd5b50909550505050505090565b600160d21b651313d0d2d1510281565b6001546001600160a01b031681565b60408051600180825281830190925260609182919060208083019080388339019050509050600160d91b6420a226a4a70281600081518110610aa057fe5b6020908102919091010152905090565b600160b81b684b59435f41525241590281565b6000546001600160a01b031681565b600160b11b6925aca1afa72aa6a122a90281565b6002546000908190600160a01b900460ff16158015610b095750610b09856106eb565b15610b1c5750600290503060601b610b24565b506001905060005b94509492505050565b60015460408051600160e01b63660d0d6702815290516000926001600160a01b03169163660d0d67916004808301926020929190829003018186803b158015610b7557600080fd5b505afa158015610b89573d6000803e3d6000fd5b505050506040513d6020811015610b9f57600080fd5b5051905090565b600160009054906101000a90046001600160a01b03166001600160a01b0316638da5cb5b6040518163ffffffff1660e01b815260040160206040518083038186803b158015610bf457600080fd5b505afa158015610c08573d6000803e3d6000fd5b505050506040513d6020811015610c1e57600080fd5b50516001600160a01b0316331461062f5760408051600160e51b62461bcd02815260206004820152601360248201527f53656e646572206973206e6f74206f776e657200000000000000000000000000604482015290519081900360640190fd5b600254600160a01b900460ff16610ce05760408051600160e51b62461bcd02815260206004820152601660248201527f436f6e7472616374206973206e6f742070617573656400000000000000000000604482015290519081900360640190fd5b60028054600160a01b60ff02191690556040805133815290517faeb196d352664784d1900b0e7414a8face7d29f4dae8c4b0cf68ed477423bbf49181900360200190a1565b600080600160009054906101000a90046001600160a01b03166001600160a01b0316638da5cb5b6040518163ffffffff1660e01b815260040160206040518083038186803b158015610d7657600080fd5b505afa158015610d8a573d6000803e3d6000fd5b505050506040513d6020811015610da057600080fd5b50516000546001600160a01b038581169281168314935016148180610dc25750805b80610e52575060015460408051600160e01b638658b8b90281526001600160a01b0387811660048301523060248301526044820189905291519190921691638658b8b9916064808301926020929190829003018186803b158015610e2557600080fd5b505afa158015610e39573d6000803e3d6000fd5b505050506040513d6020811015610e4f57600080fd5b50515b95945050505050565b6000610e65610b2d565b90506000610e728461132c565b90506000826001600160a01b03166333598b00836040518263ffffffff1660e01b81526004018082815260200191505060206040518083038186803b158015610eba57600080fd5b505afa158015610ece573d6000803e3d6000fd5b505050506040513d6020811015610ee457600080fd5b505160408051600160e11b6317e4a5d3028152600160b81b684b59435f415252415902600482015290519192506000916001600160a01b03861691632fc94ba6916024808301926020929190829003018186803b158015610f4457600080fd5b505afa158015610f58573d6000803e3d6000fd5b505050506040513d6020811015610f6e57600080fd5b5051905084156110a7578115610fbe5760408051600160e51b62461bcd02815260206004820152600a6024820152600160b01b694b59432065786973747302604482015290519081900360640190fd5b836001600160a01b0316634f3029c284836001016040518363ffffffff1660e01b81526004018083815260200182815260200192505050600060405180830381600087803b15801561100f57600080fd5b505af1158015611023573d6000803e3d6000fd5b505060408051600160e01b6381d65b2d028152600160b81b684b59435f41525241590260048201526001600160a01b038a81166024830152915191881693506381d65b2d925060448082019260009290919082900301818387803b15801561108a57600080fd5b505af115801561109e573d6000803e3d6000fd5b50505050611277565b816110fc5760408051600160e51b62461bcd02815260206004820152601260248201527f4b594320646f6573206e6f742065786973740000000000000000000000000000604482015290519081900360640190fd5b6000846001600160a01b0316639d849203600160b81b684b59435f415252415902600185036040518363ffffffff1660e01b8152600401808381526020018281526020019250505060206040518083038186803b15801561115c57600080fd5b505afa158015611170573d6000803e3d6000fd5b505050506040513d602081101561118657600080fd5b505160408051600160e11b631b076641028152600160b81b684b59435f41525241590260048201526000198601602482015290519192506001600160a01b0387169163360ecc829160448082019260009290919082900301818387803b1580156111ef57600080fd5b505af1158015611203573d6000803e3d6000fd5b50505050846001600160a01b0316634f3029c261121f8361132c565b856040518363ffffffff1660e01b81526004018083815260200182815260200192505050600060405180830381600087803b15801561125d57600080fd5b505af1158015611271573d6000803e3d6000fd5b50505050505b505050505050565b600254600160a01b900460ff16156112e15760408051600160e51b62461bcd02815260206004820152601260248201527f436f6e7472616374206973207061757365640000000000000000000000000000604482015290519081900360640190fd5b60028054600160a01b60ff021916600160a01b1790556040805133815290517f5ee71a369c8672edded508e624ffc9257fa1ae6886ef32905c18e60196bca3999181900360200190a1565b60408051600160b11b6925aca1afa72aa6a122a9026020808301919091526001600160a01b03841660601b82840152825160348184030181526054909201909252805191012091905056fea165627a7a723058209fcd1b9833cd2c54713a3aede4614f28c4e6a3a6c3ca40302586caf6d9e7ebef0029",
  "source": "pragma solidity 0.5.8;\r\n\r\nimport \"../../TransferManager/TransferManager.sol\";\r\nimport \"../../../interfaces/ISecurityToken.sol\";\r\nimport \"openzeppelin-solidity/contracts/math/SafeMath.sol\";\r\n\r\n/**\r\n * @title Transfer Manager module for core transfer validation functionality\r\n */\r\ncontract KYCTransferManager is TransferManager {\r\n\r\n    using SafeMath for uint256;\r\n\r\n    bytes32 public constant KYC_NUMBER = \"KYC_NUMBER\"; //We will standardize what key to use for what.\r\n\r\n    bytes32 public constant KYC_ARRAY = \"KYC_ARRAY\";\r\n\r\n    /**\r\n     * @notice Constructor\r\n     * @param _securityToken Address of the security token\r\n     * @param _polyAddress Address of the polytoken\r\n     */\r\n    constructor (address _securityToken, address _polyAddress)\r\n        public\r\n        Module(_securityToken, _polyAddress)\r\n    {\r\n    }\r\n\r\n    /**\r\n     * @notice This function returns the signature of configure function\r\n     */\r\n    function getInitFunction() public pure returns (bytes4) {\r\n        return bytes4(0);\r\n    }\r\n\r\n    function executeTransfer(address _from, address _to, uint256 _amount, bytes calldata _data)\r\n        external\r\n        returns (Result)\r\n    {\r\n        (Result success,)= verifyTransfer(_from, _to, _amount, _data);\r\n        return success;\r\n    }\r\n\r\n    function verifyTransfer(address /*_from*/, address _to, uint256 /*_amount*/, bytes memory /* _data */) public view returns(Result, bytes32) {\r\n        if (!paused && checkKYC(_to)) {\r\n            return (Result.VALID, bytes32(uint256(address(this)) << 96));\r\n        }\r\n        return (Result.NA, bytes32(0));\r\n    }\r\n\r\n    function modifyKYC( address _investor, bool _kycStatus) public withPerm(ADMIN) {\r\n        _modifyKYC(_investor, _kycStatus);\r\n    }\r\n\r\n    function _modifyKYC(address _investor, bool _kycStatus) internal {\r\n        IDataStore dataStore = getDataStore();\r\n        bytes32 key = _getKYCKey(_investor);\r\n        uint256 kycNumber = dataStore.getUint256(key); //index in address array + 1\r\n        uint256 kycTotal = dataStore.getAddressArrayLength(KYC_ARRAY);\r\n        if(_kycStatus) {\r\n            require(kycNumber == 0, \"KYC exists\");\r\n            dataStore.setUint256(key, kycTotal + 1);\r\n            dataStore.insertAddress(KYC_ARRAY, _investor);\r\n        } else {\r\n            require(kycNumber != 0, \"KYC does not exist\");\r\n            address lastAddress = dataStore.getAddressArrayElement(KYC_ARRAY, kycTotal - 1);\r\n            dataStore.deleteAddress(KYC_ARRAY, kycNumber - 1);\r\n\r\n            //Corrects the index of last element as delete fucntions move last element to index.\r\n            dataStore.setUint256(_getKYCKey(lastAddress), kycNumber);\r\n        }\r\n        //Alternatively, we can just emit an event and not maintain the KYC array on chain.\r\n        //I am maintaining the array to showcase how it can be done in cases where it might be needed.\r\n    }\r\n\r\n    function getKYCAddresses() public view returns(address[] memory) {\r\n        IDataStore dataStore = getDataStore();\r\n        return dataStore.getAddressArray(KYC_ARRAY);\r\n    }\r\n\r\n    function checkKYC(address _investor) public view returns (bool kyc) {\r\n        bytes32 key = _getKYCKey(_investor);\r\n        IDataStore dataStore = getDataStore();\r\n        if (dataStore.getUint256(key) > 0)\r\n            kyc = true;\r\n    }\r\n\r\n    function _getKYCKey(address _identity) internal pure returns(bytes32) {\r\n        return bytes32(keccak256(abi.encodePacked(KYC_NUMBER, _identity)));\r\n    }\r\n\r\n    /**\r\n     * @notice Return the permissions flag that are associated with this module\r\n     * @return bytes32 array\r\n     */\r\n    function getPermissions() public view returns(bytes32[] memory) {\r\n        bytes32[] memory allPermissions = new bytes32[](1);\r\n        allPermissions[0] = ADMIN;\r\n        return allPermissions;\r\n    }\r\n\r\n}\r\n",
  "sourcePath": "C:\\mspace\\polymath-core\\contracts\\modules\\Experimental\\TransferManager\\KYCTransferManager.sol",
  "compiler": {
    "name": "solc",
    "version": "0.5.8+commit.23d335f2.Emscripten.clang"
  },
  "schemaVersion": "3.0.11",
  "updatedAt": "2019-08-05T22:52:46.792Z",
  "devdoc": {
    "methods": {
      "constructor": {
        "params": {
          "_polyAddress": "Address of the polytoken\r",
          "_securityToken": "Address of the security token\r"
        }
      },
      "getPermissions()": {
        "return": "bytes32 array\r"
      },
      "getTokensByPartition(bytes32,address,uint256)": {
        "details": "returning the balance of token holder against the UNLOCKED partition. \r This condition is valid only when the base contract doesn't implement the\r `getTokensByPartition()` function.  \r"
      },
      "reclaimERC20(address)": {
        "details": "We duplicate here due to the overriden owner & onlyOwner\r",
        "params": {
          "_tokenContract": "The address of the token contract\r"
        }
      },
      "reclaimETH()": {
        "details": "We duplicate here due to the overriden owner & onlyOwner\r"
      }
    },
    "title": "Transfer Manager module for core transfer validation functionality\r"
  },
  "userdoc": {
    "methods": {
      "constructor": "Constructor\r",
      "getDataStore()": {
        "notice": "used to return the data store address of securityToken\r"
      },
      "getInitFunction()": {
        "notice": "This function returns the signature of configure function\r"
      },
      "getPermissions()": {
        "notice": "Return the permissions flag that are associated with this module\r"
      },
      "getTokensByPartition(bytes32,address,uint256)": {
        "notice": "return the amount of tokens for a given user as per the partition\r"
      },
      "pause()": {
        "notice": "Pause (overridden function)\r"
      },
      "reclaimERC20(address)": {
        "notice": "Reclaims ERC20Basic compatible tokens\r"
      },
      "reclaimETH()": {
        "notice": "Reclaims ETH\r"
      },
      "unpause()": {
        "notice": "Unpause (overridden function)\r"
      }
    }
  }
}