{
  "contractName": "LockUpTransferManagerStorage",
  "abi": [
    {
      "constant": true,
      "inputs": [
        {
          "name": "",
          "type": "bytes32"
        }
      ],
      "name": "lockups",
      "outputs": [
        {
          "name": "lockupAmount",
          "type": "uint256"
        },
        {
          "name": "startTime",
          "type": "uint256"
        },
        {
          "name": "lockUpPeriodSeconds",
          "type": "uint256"
        },
        {
          "name": "releaseFrequencySeconds",
          "type": "uint256"
        }
      ],
      "payable": false,
      "stateMutability": "view",
      "type": "function"
    }
  ],
  "bytecode": "0x6080604052348015600f57600080fd5b5060c08061001e6000396000f3fe6080604052348015600f57600080fd5b506004361060285760003560e01c8063346cfccc14602d575b600080fd5b604760048036036020811015604157600080fd5b5035606d565b604080519485526020850193909352838301919091526060830152519081900360800190f35b6000602081905290815260409020805460018201546002830154600390930154919290918456fea165627a7a72305820c953e14df713ad436b8b9cd63aa5f80ad5f406f25fe88ba4280784a32b95b1130029",
  "source": "pragma solidity 0.5.8;\r\n\r\n/**\r\n * @title Wallet for core vesting escrow functionality\r\n */\r\ncontract LockUpTransferManagerStorage {\r\n\r\n    // a per-user lockup\r\n    struct LockUp {\r\n        uint256 lockupAmount; // Amount to be locked\r\n        uint256 startTime; // when this lockup starts (seconds)\r\n        uint256 lockUpPeriodSeconds; // total period of lockup (seconds)\r\n        uint256 releaseFrequencySeconds; // how often to release a tranche of tokens (seconds)\r\n    }\r\n\r\n    // mapping use to store the lockup details corresponds to lockup name\r\n    mapping (bytes32 => LockUp) public lockups;\r\n    // mapping user addresses to an array of lockups name for that user\r\n    mapping (address => bytes32[]) internal userToLockups;\r\n    // get list of the addresses for a particular lockupName\r\n    mapping (bytes32 => address[]) internal lockupToUsers;\r\n    // holds lockup index corresponds to user address. userAddress => lockupName => lockupIndex\r\n    mapping (address => mapping(bytes32 => uint256)) internal userToLockupIndex;\r\n    // holds the user address index corresponds to the lockup. lockupName => userAddress => userIndex\r\n    mapping (bytes32 => mapping(address => uint256)) internal lockupToUserIndex;\r\n\r\n    bytes32[] lockupArray;\r\n\r\n}\r\n",
  "sourcePath": "C:\\mspace\\polymath-core\\contracts\\modules\\TransferManager\\LTM\\LockUpTransferManagerStorage.sol",
  "compiler": {
    "name": "solc",
    "version": "0.5.8+commit.23d335f2.Emscripten.clang"
  },
  "schemaVersion": "3.0.11",
  "updatedAt": "2019-08-05T22:52:46.898Z",
  "devdoc": {
    "methods": {},
    "title": "Wallet for core vesting escrow functionality\r"
  },
  "userdoc": {
    "methods": {}
  }
}