{
  "contractName": "LockUpTransferManager",
  "abi": [
    {
      "constant": false,
      "inputs": [],
      "name": "reclaimETH",
      "outputs": [],
      "payable": false,
      "stateMutability": "nonpayable",
      "type": "function"
    },
    {
      "constant": true,
      "inputs": [],
      "name": "ADMIN",
      "outputs": [
        {
          "name": "",
          "type": "bytes32"
        }
      ],
      "payable": false,
      "stateMutability": "view",
      "type": "function"
    },
    {
      "constant": true,
      "inputs": [
        {
          "name": "",
          "type": "bytes32"
        }
      ],
      "name": "lockups",
      "outputs": [
        {
          "name": "lockupAmount",
          "type": "uint256"
        },
        {
          "name": "startTime",
          "type": "uint256"
        },
        {
          "name": "lockUpPeriodSeconds",
          "type": "uint256"
        },
        {
          "name": "releaseFrequencySeconds",
          "type": "uint256"
        }
      ],
      "payable": false,
      "stateMutability": "view",
      "type": "function"
    },
    {
      "constant": false,
      "inputs": [],
      "name": "unpause",
      "outputs": [],
      "payable": false,
      "stateMutability": "nonpayable",
      "type": "function"
    },
    {
      "constant": true,
      "inputs": [],
      "name": "paused",
      "outputs": [
        {
          "name": "",
          "type": "bool"
        }
      ],
      "payable": false,
      "stateMutability": "view",
      "type": "function"
    },
    {
      "constant": true,
      "inputs": [],
      "name": "UNLOCKED",
      "outputs": [
        {
          "name": "",
          "type": "bytes32"
        }
      ],
      "payable": false,
      "stateMutability": "view",
      "type": "function"
    },
    {
      "constant": true,
      "inputs": [],
      "name": "polyToken",
      "outputs": [
        {
          "name": "",
          "type": "address"
        }
      ],
      "payable": false,
      "stateMutability": "view",
      "type": "function"
    },
    {
      "constant": false,
      "inputs": [],
      "name": "pause",
      "outputs": [],
      "payable": false,
      "stateMutability": "nonpayable",
      "type": "function"
    },
    {
      "constant": false,
      "inputs": [
        {
          "name": "_tokenContract",
          "type": "address"
        }
      ],
      "name": "reclaimERC20",
      "outputs": [],
      "payable": false,
      "stateMutability": "nonpayable",
      "type": "function"
    },
    {
      "constant": true,
      "inputs": [],
      "name": "OPERATOR",
      "outputs": [
        {
          "name": "",
          "type": "bytes32"
        }
      ],
      "payable": false,
      "stateMutability": "view",
      "type": "function"
    },
    {
      "constant": true,
      "inputs": [],
      "name": "LOCKED",
      "outputs": [
        {
          "name": "",
          "type": "bytes32"
        }
      ],
      "payable": false,
      "stateMutability": "view",
      "type": "function"
    },
    {
      "constant": true,
      "inputs": [],
      "name": "securityToken",
      "outputs": [
        {
          "name": "",
          "type": "address"
        }
      ],
      "payable": false,
      "stateMutability": "view",
      "type": "function"
    },
    {
      "constant": true,
      "inputs": [],
      "name": "factory",
      "outputs": [
        {
          "name": "",
          "type": "address"
        }
      ],
      "payable": false,
      "stateMutability": "view",
      "type": "function"
    },
    {
      "constant": true,
      "inputs": [],
      "name": "getDataStore",
      "outputs": [
        {
          "name": "",
          "type": "address"
        }
      ],
      "payable": false,
      "stateMutability": "view",
      "type": "function"
    },
    {
      "inputs": [
        {
          "name": "_securityToken",
          "type": "address"
        },
        {
          "name": "_polyAddress",
          "type": "address"
        }
      ],
      "payable": false,
      "stateMutability": "nonpayable",
      "type": "constructor"
    },
    {
      "anonymous": false,
      "inputs": [
        {
          "indexed": true,
          "name": "_userAddress",
          "type": "address"
        },
        {
          "indexed": true,
          "name": "_lockupName",
          "type": "bytes32"
        }
      ],
      "name": "AddLockUpToUser",
      "type": "event"
    },
    {
      "anonymous": false,
      "inputs": [
        {
          "indexed": true,
          "name": "_userAddress",
          "type": "address"
        },
        {
          "indexed": true,
          "name": "_lockupName",
          "type": "bytes32"
        }
      ],
      "name": "RemoveLockUpFromUser",
      "type": "event"
    },
    {
      "anonymous": false,
      "inputs": [
        {
          "indexed": false,
          "name": "_lockupAmount",
          "type": "uint256"
        },
        {
          "indexed": false,
          "name": "_startTime",
          "type": "uint256"
        },
        {
          "indexed": false,
          "name": "_lockUpPeriodSeconds",
          "type": "uint256"
        },
        {
          "indexed": false,
          "name": "_releaseFrequencySeconds",
          "type": "uint256"
        },
        {
          "indexed": true,
          "name": "_lockupName",
          "type": "bytes32"
        }
      ],
      "name": "ModifyLockUpType",
      "type": "event"
    },
    {
      "anonymous": false,
      "inputs": [
        {
          "indexed": true,
          "name": "_lockupName",
          "type": "bytes32"
        },
        {
          "indexed": false,
          "name": "_lockupAmount",
          "type": "uint256"
        },
        {
          "indexed": false,
          "name": "_startTime",
          "type": "uint256"
        },
        {
          "indexed": false,
          "name": "_lockUpPeriodSeconds",
          "type": "uint256"
        },
        {
          "indexed": false,
          "name": "_releaseFrequencySeconds",
          "type": "uint256"
        }
      ],
      "name": "AddNewLockUpType",
      "type": "event"
    },
    {
      "anonymous": false,
      "inputs": [
        {
          "indexed": true,
          "name": "_lockupName",
          "type": "bytes32"
        }
      ],
      "name": "RemoveLockUpType",
      "type": "event"
    },
    {
      "anonymous": false,
      "inputs": [
        {
          "indexed": false,
          "name": "account",
          "type": "address"
        }
      ],
      "name": "Pause",
      "type": "event"
    },
    {
      "anonymous": false,
      "inputs": [
        {
          "indexed": false,
          "name": "account",
          "type": "address"
        }
      ],
      "name": "Unpause",
      "type": "event"
    },
    {
      "constant": false,
      "inputs": [
        {
          "name": "_from",
          "type": "address"
        },
        {
          "name": "",
          "type": "address"
        },
        {
          "name": "_amount",
          "type": "uint256"
        },
        {
          "name": "",
          "type": "bytes"
        }
      ],
      "name": "executeTransfer",
      "outputs": [
        {
          "name": "",
          "type": "uint8"
        }
      ],
      "payable": false,
      "stateMutability": "nonpayable",
      "type": "function"
    },
    {
      "constant": true,
      "inputs": [
        {
          "name": "_from",
          "type": "address"
        },
        {
          "name": "",
          "type": "address"
        },
        {
          "name": "_amount",
          "type": "uint256"
        },
        {
          "name": "",
          "type": "bytes"
        }
      ],
      "name": "verifyTransfer",
      "outputs": [
        {
          "name": "",
          "type": "uint8"
        },
        {
          "name": "",
          "type": "bytes32"
        }
      ],
      "payable": false,
      "stateMutability": "view",
      "type": "function"
    },
    {
      "constant": false,
      "inputs": [
        {
          "name": "_lockupAmount",
          "type": "uint256"
        },
        {
          "name": "_startTime",
          "type": "uint256"
        },
        {
          "name": "_lockUpPeriodSeconds",
          "type": "uint256"
        },
        {
          "name": "_releaseFrequencySeconds",
          "type": "uint256"
        },
        {
          "name": "_lockupName",
          "type": "bytes32"
        }
      ],
      "name": "addNewLockUpType",
      "outputs": [],
      "payable": false,
      "stateMutability": "nonpayable",
      "type": "function"
    },
    {
      "constant": false,
      "inputs": [
        {
          "name": "_lockupAmounts",
          "type": "uint256[]"
        },
        {
          "name": "_startTimes",
          "type": "uint256[]"
        },
        {
          "name": "_lockUpPeriodsSeconds",
          "type": "uint256[]"
        },
        {
          "name": "_releaseFrequenciesSeconds",
          "type": "uint256[]"
        },
        {
          "name": "_lockupNames",
          "type": "bytes32[]"
        }
      ],
      "name": "addNewLockUpTypeMulti",
      "outputs": [],
      "payable": false,
      "stateMutability": "nonpayable",
      "type": "function"
    },
    {
      "constant": false,
      "inputs": [
        {
          "name": "_userAddress",
          "type": "address"
        },
        {
          "name": "_lockupName",
          "type": "bytes32"
        }
      ],
      "name": "addLockUpByName",
      "outputs": [],
      "payable": false,
      "stateMutability": "nonpayable",
      "type": "function"
    },
    {
      "constant": false,
      "inputs": [
        {
          "name": "_userAddresses",
          "type": "address[]"
        },
        {
          "name": "_lockupNames",
          "type": "bytes32[]"
        }
      ],
      "name": "addLockUpByNameMulti",
      "outputs": [],
      "payable": false,
      "stateMutability": "nonpayable",
      "type": "function"
    },
    {
      "constant": false,
      "inputs": [
        {
          "name": "_userAddress",
          "type": "address"
        },
        {
          "name": "_lockupAmount",
          "type": "uint256"
        },
        {
          "name": "_startTime",
          "type": "uint256"
        },
        {
          "name": "_lockUpPeriodSeconds",
          "type": "uint256"
        },
        {
          "name": "_releaseFrequencySeconds",
          "type": "uint256"
        },
        {
          "name": "_lockupName",
          "type": "bytes32"
        }
      ],
      "name": "addNewLockUpToUser",
      "outputs": [],
      "payable": false,
      "stateMutability": "nonpayable",
      "type": "function"
    },
    {
      "constant": false,
      "inputs": [
        {
          "name": "_userAddresses",
          "type": "address[]"
        },
        {
          "name": "_lockupAmounts",
          "type": "uint256[]"
        },
        {
          "name": "_startTimes",
          "type": "uint256[]"
        },
        {
          "name": "_lockUpPeriodsSeconds",
          "type": "uint256[]"
        },
        {
          "name": "_releaseFrequenciesSeconds",
          "type": "uint256[]"
        },
        {
          "name": "_lockupNames",
          "type": "bytes32[]"
        }
      ],
      "name": "addNewLockUpToUserMulti",
      "outputs": [],
      "payable": false,
      "stateMutability": "nonpayable",
      "type": "function"
    },
    {
      "constant": false,
      "inputs": [
        {
          "name": "_userAddress",
          "type": "address"
        },
        {
          "name": "_lockupName",
          "type": "bytes32"
        }
      ],
      "name": "removeLockUpFromUser",
      "outputs": [],
      "payable": false,
      "stateMutability": "nonpayable",
      "type": "function"
    },
    {
      "constant": false,
      "inputs": [
        {
          "name": "_lockupName",
          "type": "bytes32"
        }
      ],
      "name": "removeLockupType",
      "outputs": [],
      "payable": false,
      "stateMutability": "nonpayable",
      "type": "function"
    },
    {
      "constant": false,
      "inputs": [
        {
          "name": "_lockupNames",
          "type": "bytes32[]"
        }
      ],
      "name": "removeLockupTypeMulti",
      "outputs": [],
      "payable": false,
      "stateMutability": "nonpayable",
      "type": "function"
    },
    {
      "constant": false,
      "inputs": [
        {
          "name": "_userAddresses",
          "type": "address[]"
        },
        {
          "name": "_lockupNames",
          "type": "bytes32[]"
        }
      ],
      "name": "removeLockUpFromUserMulti",
      "outputs": [],
      "payable": false,
      "stateMutability": "nonpayable",
      "type": "function"
    },
    {
      "constant": false,
      "inputs": [
        {
          "name": "_lockupAmount",
          "type": "uint256"
        },
        {
          "name": "_startTime",
          "type": "uint256"
        },
        {
          "name": "_lockUpPeriodSeconds",
          "type": "uint256"
        },
        {
          "name": "_releaseFrequencySeconds",
          "type": "uint256"
        },
        {
          "name": "_lockupName",
          "type": "bytes32"
        }
      ],
      "name": "modifyLockUpType",
      "outputs": [],
      "payable": false,
      "stateMutability": "nonpayable",
      "type": "function"
    },
    {
      "constant": false,
      "inputs": [
        {
          "name": "_lockupAmounts",
          "type": "uint256[]"
        },
        {
          "name": "_startTimes",
          "type": "uint256[]"
        },
        {
          "name": "_lockUpPeriodsSeconds",
          "type": "uint256[]"
        },
        {
          "name": "_releaseFrequenciesSeconds",
          "type": "uint256[]"
        },
        {
          "name": "_lockupNames",
          "type": "bytes32[]"
        }
      ],
      "name": "modifyLockUpTypeMulti",
      "outputs": [],
      "payable": false,
      "stateMutability": "nonpayable",
      "type": "function"
    },
    {
      "constant": true,
      "inputs": [
        {
          "name": "_lockupName",
          "type": "bytes32"
        }
      ],
      "name": "getLockUp",
      "outputs": [
        {
          "name": "lockupAmount",
          "type": "uint256"
        },
        {
          "name": "startTime",
          "type": "uint256"
        },
        {
          "name": "lockUpPeriodSeconds",
          "type": "uint256"
        },
        {
          "name": "releaseFrequencySeconds",
          "type": "uint256"
        },
        {
          "name": "unlockedAmount",
          "type": "uint256"
        }
      ],
      "payable": false,
      "stateMutability": "view",
      "type": "function"
    },
    {
      "constant": true,
      "inputs": [],
      "name": "getAllLockupData",
      "outputs": [
        {
          "name": "lockupNames",
          "type": "bytes32[]"
        },
        {
          "name": "lockupAmounts",
          "type": "uint256[]"
        },
        {
          "name": "startTimes",
          "type": "uint256[]"
        },
        {
          "name": "lockUpPeriodSeconds",
          "type": "uint256[]"
        },
        {
          "name": "releaseFrequencySeconds",
          "type": "uint256[]"
        },
        {
          "name": "unlockedAmounts",
          "type": "uint256[]"
        }
      ],
      "payable": false,
      "stateMutability": "view",
      "type": "function"
    },
    {
      "constant": true,
      "inputs": [
        {
          "name": "_lockupName",
          "type": "bytes32"
        }
      ],
      "name": "getListOfAddresses",
      "outputs": [
        {
          "name": "",
          "type": "address[]"
        }
      ],
      "payable": false,
      "stateMutability": "view",
      "type": "function"
    },
    {
      "constant": true,
      "inputs": [],
      "name": "getAllLockups",
      "outputs": [
        {
          "name": "",
          "type": "bytes32[]"
        }
      ],
      "payable": false,
      "stateMutability": "view",
      "type": "function"
    },
    {
      "constant": true,
      "inputs": [
        {
          "name": "_user",
          "type": "address"
        }
      ],
      "name": "getLockupsNamesToUser",
      "outputs": [
        {
          "name": "",
          "type": "bytes32[]"
        }
      ],
      "payable": false,
      "stateMutability": "view",
      "type": "function"
    },
    {
      "constant": true,
      "inputs": [
        {
          "name": "_userAddress",
          "type": "address"
        }
      ],
      "name": "getLockedTokenToUser",
      "outputs": [
        {
          "name": "",
          "type": "uint256"
        }
      ],
      "payable": false,
      "stateMutability": "view",
      "type": "function"
    },
    {
      "constant": true,
      "inputs": [
        {
          "name": "_partition",
          "type": "bytes32"
        },
        {
          "name": "_tokenHolder",
          "type": "address"
        },
        {
          "name": "_additionalBalance",
          "type": "uint256"
        }
      ],
      "name": "getTokensByPartition",
      "outputs": [
        {
          "name": "",
          "type": "uint256"
        }
      ],
      "payable": false,
      "stateMutability": "view",
      "type": "function"
    },
    {
      "constant": true,
      "inputs": [],
      "name": "getInitFunction",
      "outputs": [
        {
          "name": "",
          "type": "bytes4"
        }
      ],
      "payable": false,
      "stateMutability": "pure",
      "type": "function"
    },
    {
      "constant": true,
      "inputs": [],
      "name": "getPermissions",
      "outputs": [
        {
          "name": "",
          "type": "bytes32[]"
        }
      ],
      "payable": false,
      "stateMutability": "view",
      "type": "function"
    }
  ],
  "bytecode": "0x608060405260088054600160a01b60ff021916905534801561002057600080fd5b506040516040806138b78339810180604052604081101561004057600080fd5b508051602090910151600780546001600160a01b039384166001600160a01b0319918216179091556006805482163317905560088054939092169216919091179055613826806100916000396000f3fe608060405234801561001057600080fd5b50600436106102275760003560e01c8063732cc8a511610130578063b84dfbd2116100b8578063d982fca51161007c578063d982fca514611312578063ee91f7f01461133e578063f1d74b0f1461136a578063fc9fe69014611459578063fe58265e1461147657610227565b8063b84dfbd214611281578063c3a07df614611289578063c45a015514611291578063c772b0f414611299578063d663ad1f146112dd57610227565b80638905fd4f116100ff5780638905fd4f1461121d5780638e55171214611243578063983d273714611269578063a1422f6914611271578063a8fe24b31461127957610227565b8063732cc8a514610d7f57806381e3b53c14610dc75780638456cb5914610eea57806386d74c8814610ef257610227565b8063346cfccc116101b35780635c975abb116101825780635c975abb146108d95780635d796406146108f55780635ec124a114610b9e5780636c2f0d5314610d535780636faa22a514610d5b57610227565b8063346cfccc1461073b5780633c7c92991461077e5780633d3217311461081f5780633f4ba83a146108d157610227565b806322d8067e116101fa57806322d8067e146102ee5780632829e6511461041157806329063d16146104555780632a0acc6a1461048a5780633353f8321461049257610227565b80630f144a481461022c57806311e0f35a146102365780631613ec9d146102a3578063185581ab146102c8575b600080fd5b61023461147e565b005b6102536004803603602081101561024c57600080fd5b50356114b6565b60408051602080825283518183015283519192839290830191858101910280838360005b8381101561028f578181015183820152602001610277565b505050509050019250505060405180910390f35b6102ab61152c565b604080516001600160e01b03199092168252519081900360200190f35b610253600480360360208110156102de57600080fd5b50356001600160a01b0316611532565b6102346004803603604081101561030457600080fd5b810190602081018135600160201b81111561031e57600080fd5b82018360208201111561033057600080fd5b803590602001918460208302840111600160201b8311171561035157600080fd5b9190808060200260200160405190810160405280939291908181526020018383602002808284376000920191909152509295949360208101935035915050600160201b8111156103a057600080fd5b8201836020820111156103b257600080fd5b803590602001918460208302840111600160201b831117156103d357600080fd5b91908080602002602001604051908101604052809392919081815260200183836020028082843760009201919091525092955061159d945050505050565b6104436004803603606081101561042757600080fd5b508035906001600160a01b03602082013516906040013561164b565b60408051918252519081900360200190f35b610234600480360360a081101561046b57600080fd5b5080359060208101359060408101359060608101359060800135611811565b61044361187e565b610234600480360360a08110156104a857600080fd5b810190602081018135600160201b8111156104c257600080fd5b8201836020820111156104d457600080fd5b803590602001918460208302840111600160201b831117156104f557600080fd5b9190808060200260200160405190810160405280939291908181526020018383602002808284376000920191909152509295949360208101935035915050600160201b81111561054457600080fd5b82018360208201111561055657600080fd5b803590602001918460208302840111600160201b8311171561057757600080fd5b9190808060200260200160405190810160405280939291908181526020018383602002808284376000920191909152509295949360208101935035915050600160201b8111156105c657600080fd5b8201836020820111156105d857600080fd5b803590602001918460208302840111600160201b831117156105f957600080fd5b9190808060200260200160405190810160405280939291908181526020018383602002808284376000920191909152509295949360208101935035915050600160201b81111561064857600080fd5b82018360208201111561065a57600080fd5b803590602001918460208302840111600160201b8311171561067b57600080fd5b9190808060200260200160405190810160405280939291908181526020018383602002808284376000920191909152509295949360208101935035915050600160201b8111156106ca57600080fd5b8201836020820111156106dc57600080fd5b803590602001918460208302840111600160201b831117156106fd57600080fd5b91908080602002602001604051908101604052809392919081815260200183836020028082843760009201919091525092955061188d945050505050565b6107586004803603602081101561075157600080fd5b50356119e3565b604080519485526020850193909352838301919091526060830152519081900360800190f35b6102346004803603602081101561079457600080fd5b810190602081018135600160201b8111156107ae57600080fd5b8201836020820111156107c057600080fd5b803590602001918460208302840111600160201b831117156107e157600080fd5b919080806020026020016040519081016040528093929190818152602001838360200280828437600092019190915250929550611a0a945050505050565b6108ad6004803603608081101561083557600080fd5b6001600160a01b03823581169260208101359091169160408201359190810190608081016060820135600160201b81111561086f57600080fd5b82018360208201111561088157600080fd5b803590602001918460018302840111600160201b831117156108a257600080fd5b509092509050611a97565b604051808260038111156108bd57fe5b60ff16815260200191505060405180910390f35b610234611ab0565b6108e1611ac2565b604080519115158252519081900360200190f35b610234600480360360a081101561090b57600080fd5b810190602081018135600160201b81111561092557600080fd5b82018360208201111561093757600080fd5b803590602001918460208302840111600160201b8311171561095857600080fd5b9190808060200260200160405190810160405280939291908181526020018383602002808284376000920191909152509295949360208101935035915050600160201b8111156109a757600080fd5b8201836020820111156109b957600080fd5b803590602001918460208302840111600160201b831117156109da57600080fd5b9190808060200260200160405190810160405280939291908181526020018383602002808284376000920191909152509295949360208101935035915050600160201b811115610a2957600080fd5b820183602082011115610a3b57600080fd5b803590602001918460208302840111600160201b83111715610a5c57600080fd5b9190808060200260200160405190810160405280939291908181526020018383602002808284376000920191909152509295949360208101935035915050600160201b811115610aab57600080fd5b820183602082011115610abd57600080fd5b803590602001918460208302840111600160201b83111715610ade57600080fd5b9190808060200260200160405190810160405280939291908181526020018383602002808284376000920191909152509295949360208101935035915050600160201b811115610b2d57600080fd5b820183602082011115610b3f57600080fd5b803590602001918460208302840111600160201b83111715610b6057600080fd5b919080806020026020016040519081016040528093929190818152602001838360200280828437600092019190915250929550611ad2945050505050565b610ba6611c1f565b6040518080602001806020018060200180602001806020018060200187810387528d818151815260200191508051906020019060200280838360005b83811015610bfa578181015183820152602001610be2565b5050505090500187810386528c818151815260200191508051906020019060200280838360005b83811015610c39578181015183820152602001610c21565b5050505090500187810385528b818151815260200191508051906020019060200280838360005b83811015610c78578181015183820152602001610c60565b5050505090500187810384528a818151815260200191508051906020019060200280838360005b83811015610cb7578181015183820152602001610c9f565b50505050905001878103835289818151815260200191508051906020019060200280838360005b83811015610cf6578181015183820152602001610cde565b50505050905001878103825288818151815260200191508051906020019060200280838360005b83811015610d35578181015183820152602001610d1d565b505050509050019c5050505050505050505050505060405180910390f35b610443611e20565b610d63611e32565b604080516001600160a01b039092168252519081900360200190f35b610d9c60048036036020811015610d9557600080fd5b5035611e41565b6040805195865260208601949094528484019290925260608401526080830152519081900360a00190f35b61023460048036036040811015610ddd57600080fd5b810190602081018135600160201b811115610df757600080fd5b820183602082011115610e0957600080fd5b803590602001918460208302840111600160201b83111715610e2a57600080fd5b9190808060200260200160405190810160405280939291908181526020018383602002808284376000920191909152509295949360208101935035915050600160201b811115610e7957600080fd5b820183602082011115610e8b57600080fd5b803590602001918460208302840111600160201b83111715610eac57600080fd5b919080806020026020016040519081016040528093929190818152602001838360200280828437600092019190915250929550611eb2945050505050565b610234611f5a565b610234600480360360c0811015610f0857600080fd5b810190602081018135600160201b811115610f2257600080fd5b820183602082011115610f3457600080fd5b803590602001918460208302840111600160201b83111715610f5557600080fd5b9190808060200260200160405190810160405280939291908181526020018383602002808284376000920191909152509295949360208101935035915050600160201b811115610fa457600080fd5b820183602082011115610fb657600080fd5b803590602001918460208302840111600160201b83111715610fd757600080fd5b9190808060200260200160405190810160405280939291908181526020018383602002808284376000920191909152509295949360208101935035915050600160201b81111561102657600080fd5b82018360208201111561103857600080fd5b803590602001918460208302840111600160201b8311171561105957600080fd5b9190808060200260200160405190810160405280939291908181526020018383602002808284376000920191909152509295949360208101935035915050600160201b8111156110a857600080fd5b8201836020820111156110ba57600080fd5b803590602001918460208302840111600160201b831117156110db57600080fd5b9190808060200260200160405190810160405280939291908181526020018383602002808284376000920191909152509295949360208101935035915050600160201b81111561112a57600080fd5b82018360208201111561113c57600080fd5b803590602001918460208302840111600160201b8311171561115d57600080fd5b9190808060200260200160405190810160405280939291908181526020018383602002808284376000920191909152509295949360208101935035915050600160201b8111156111ac57600080fd5b8201836020820111156111be57600080fd5b803590602001918460208302840111600160201b831117156111df57600080fd5b919080806020026020016040519081016040528093929190818152602001838360200280828437600092019190915250929550611f6a945050505050565b6102346004803603602081101561123357600080fd5b50356001600160a01b03166120e2565b6104436004803603602081101561125957600080fd5b50356001600160a01b031661228d565b61044361238c565b61044361239e565b6102536123ae565b610d63612406565b610253612415565b610d63612463565b610234600480360360c08110156112af57600080fd5b506001600160a01b038135169060208101359060408101359060608101359060808101359060a00135612472565b610234600480360360a08110156112f357600080fd5b50803590602081013590604081013590606081013590608001356124d8565b6102346004803603604081101561132857600080fd5b506001600160a01b03813516906020013561253d565b6102346004803603604081101561135457600080fd5b506001600160a01b03813516906020013561259f565b61142e6004803603608081101561138057600080fd5b6001600160a01b03823581169260208101359091169160408201359190810190608081016060820135600160201b8111156113ba57600080fd5b8201836020820111156113cc57600080fd5b803590602001918460018302840111600160201b831117156113ed57600080fd5b91908080601f016020809104026020016040519081016040528093929190818152602001838380828437600092019190915250929550612601945050505050565b6040518083600381111561143e57fe5b60ff1681526020018281526020019250505060405180910390f35b6102346004803603602081101561146f57600080fd5b503561261b565b610d63612680565b6114866126f9565b6040513390303180156108fc02916000818181858888f193505050501580156114b3573d6000803e3d6000fd5b50565b60606114c1826127d2565b6000828152600260209081526040918290208054835181840281018401909452808452909183018282801561151f57602002820191906000526020600020905b81546001600160a01b03168152600190910190602001808311611501575b505050505090505b919050565b60005b90565b6001600160a01b03811660009081526001602090815260409182902080548351818402810184019094528084526060939283018282801561151f57602002820191906000526020600020905b81548152602001906001019080831161157e5750505050509050919050565b600160d91b6420a226a4a7026115b38133612838565b6115f55760408051600160e51b62461bcd02815260206004820152601260248201526000805160206137db833981519152604482015290519081900360640190fd5b61160183518351612970565b60005b83518110156116455761163d84828151811061161c57fe5b602002602001015184838151811061163057fe5b60200260200101516129bc565b600101611604565b50505050565b60075460009081906001600160a01b031633146116e35760075460408051600160e01b6370a082310281526001600160a01b038781166004830152915191909216916370a08231916024808301926020929190829003018186803b1580156116b257600080fd5b505afa1580156116c6573d6000803e3d6000fd5b505050506040513d60208110156116dc57600080fd5b505161176e565b60075460408051600160e01b6370a082310281526001600160a01b038781166004830152915161176e93879316916370a08231916024808301926020929190829003018186803b15801561173657600080fd5b505afa15801561174a573d6000803e3d6000fd5b505050506040513d602081101561176057600080fd5b50519063ffffffff612d1816565b9050600061178461177e8661228d565b83612d2a565b600854909150600160a01b900460ff16156117c057600160c21b6715539313d0d2d1510286146117b55760006117b7565b815b9250505061180a565b600160d21b651313d0d2d151028614156117dd57915061180a9050565b600160c21b6715539313d0d2d15102861415611803576117b7828263ffffffff612d4016565b6000925050505b9392505050565b600160d91b6420a226a4a7026118278133612838565b6118695760408051600160e51b62461bcd02815260206004820152601260248201526000805160206137db833981519152604482015290519081900360640190fd5b6118768686868686612d55565b505050505050565b600160d91b6420a226a4a70281565b600160d91b6420a226a4a7026118a38133612838565b6118e55760408051600160e51b62461bcd02815260206004820152601260248201526000805160206137db833981519152604482015290519081900360640190fd5b835182511480156118f7575082518251145b8015611904575084518251145b8015611911575085518251145b61195a5760408051600160e51b62461bcd02815260206004820152600f60248201526001608b1b6e098cadccee8d040dad2e6dac2e8c6d02604482015290519081900360640190fd5b60005b82518110156119da576119d287828151811061197557fe5b602002602001015187838151811061198957fe5b602002602001015187848151811061199d57fe5b60200260200101518785815181106119b157fe5b60200260200101518786815181106119c557fe5b6020026020010151612d55565b60010161195d565b50505050505050565b60006020819052908152604090208054600182015460028301546003909301549192909184565b600160d91b6420a226a4a702611a208133612838565b611a625760408051600160e51b62461bcd02815260206004820152601260248201526000805160206137db833981519152604482015290519081900360640190fd5b60005b8251811015611a9257611a8a838281518110611a7d57fe5b6020026020010151612ea9565b600101611a65565b505050565b600080611aa48786612ff9565b50979650505050505050565b611ab86126f9565b611ac061306a565b565b600854600160a01b900460ff1681565b600160d91b6420a226a4a702611ae88133612838565b611b2a5760408051600160e51b62461bcd02815260206004820152601260248201526000805160206137db833981519152604482015290519081900360640190fd5b83518251148015611b3c575082518251145b8015611b49575084518251145b8015611b56575085518251145b611b9f5760408051600160e51b62461bcd02815260206004820152600f60248201526001608b1b6e098cadccee8d040dad2e6dac2e8c6d02604482015290519081900360640190fd5b60005b82518110156119da57611c17878281518110611bba57fe5b6020026020010151878381518110611bce57fe5b6020026020010151878481518110611be257fe5b6020026020010151878581518110611bf657fe5b6020026020010151878681518110611c0a57fe5b6020026020010151613110565b600101611ba2565b6060806060806060806000600580549050905080604051908082528060200260200182016040528015611c5c578160200160208202803883390190505b50955080604051908082528060200260200182016040528015611c89578160200160208202803883390190505b50945080604051908082528060200260200182016040528015611cb6578160200160208202803883390190505b50935080604051908082528060200260200182016040528015611ce3578160200160208202803883390190505b50925080604051908082528060200260200182016040528015611d10578160200160208202803883390190505b50915080604051908082528060200260200182016040528015611d3d578160200160208202803883390190505b50965060005b81811015611e1657611d6b60058281548110611d5b57fe5b9060005260206000200154611e41565b8b8681518110611d7757fe5b602002602001018b8781518110611d8a57fe5b602002602001018b8881518110611d9d57fe5b602002602001018b8981518110611db057fe5b602002602001018b8a81518110611dc357fe5b6020908102919091010194909452939092529290915291909152526005805482908110611dec57fe5b9060005260206000200154888281518110611e0357fe5b6020908102919091010152600101611d43565b5050909192939495565b600160c21b6715539313d0d2d1510281565b6008546001600160a01b031681565b600081815260208190526040812054819081908190819015611e9957600086815260208190526040902080546001820154600283015460039093015491929091611e8a8a6131cc565b94509450945094509450611ea9565b5060009350839250829150819050805b91939590929450565b600160d91b6420a226a4a702611ec88133612838565b611f0a5760408051600160e51b62461bcd02815260206004820152601260248201526000805160206137db833981519152604482015290519081900360640190fd5b611f1683518351612970565b60005b835181101561164557611f52848281518110611f3157fe5b6020026020010151848381518110611f4557fe5b60200260200101516132ce565b600101611f19565b611f626126f9565b611ac0613451565b600160d91b6420a226a4a702611f808133612838565b611fc25760408051600160e51b62461bcd02815260206004820152601260248201526000805160206137db833981519152604482015290519081900360640190fd5b83518751148015611fd4575082518751145b8015611fe1575084518751145b8015611fee575085518751145b8015611ffb575081518751145b6120445760408051600160e51b62461bcd02815260206004820152600f60248201526001608b1b6e098cadccee8d040dad2e6dac2e8c6d02604482015290519081900360640190fd5b60005b87518110156120d8576120d088828151811061205f57fe5b602002602001015188838151811061207357fe5b602002602001015188848151811061208757fe5b602002602001015188858151811061209b57fe5b60200260200101518886815181106120af57fe5b60200260200101518887815181106120c357fe5b60200260200101516134fe565b600101612047565b5050505050505050565b6120ea6126f9565b6001600160a01b03811661213d5760408051600160e51b62461bcd02815260206004820152600f6024820152600160881b6e496e76616c6964206164647265737302604482015290519081900360640190fd5b60408051600160e01b6370a08231028152306004820152905182916000916001600160a01b038416916370a08231916024808301926020929190829003018186803b15801561218b57600080fd5b505afa15801561219f573d6000803e3d6000fd5b505050506040513d60208110156121b557600080fd5b505160408051600160e01b63a9059cbb0281523360048201526024810183905290519192506001600160a01b0384169163a9059cbb916044808201926020929091908290030181600087803b15801561220d57600080fd5b505af1158015612221573d6000803e3d6000fd5b505050506040513d602081101561223757600080fd5b5051611a925760408051600160e51b62461bcd02815260206004820152600f60248201527f5472616e73666572206661696c65640000000000000000000000000000000000604482015290519081900360640190fd5b60006122988261351e565b6001600160a01b0382166000908152600160209081526040918290208054835181840281018401909452808452606093928301828280156122f857602002820191906000526020600020905b8154815260200190600101908083116122e4575b509394506000935083925050505b825181101561238457600061236761233085848151811061232357fe5b60200260200101516131cc565b60008087868151811061233f57fe5b6020026020010151815260200190815260200160002060000154612d4090919063ffffffff16565b9050612379838263ffffffff612d1816565b925050600101612306565b509392505050565b600160c11b6727a822a920aa27a90281565b600160d21b651313d0d2d1510281565b606060058054806020026020016040519081016040528092919081815260200182805480156123fc57602002820191906000526020600020905b8154815260200190600101908083116123e8575b5050505050905090565b6007546001600160a01b031681565b60408051600180825281830190925260609182919060208083019080388339019050509050600160d91b6420a226a4a7028160008151811061245357fe5b6020908102919091010152905090565b6006546001600160a01b031681565b600160d91b6420a226a4a7026124888133612838565b6124ca5760408051600160e51b62461bcd02815260206004820152601260248201526000805160206137db833981519152604482015290519081900360640190fd5b6119da8787878787876134fe565b600160d91b6420a226a4a7026124ee8133612838565b6125305760408051600160e51b62461bcd02815260206004820152601260248201526000805160206137db833981519152604482015290519081900360640190fd5b6118768686868686613110565b600160d91b6420a226a4a7026125538133612838565b6125955760408051600160e51b62461bcd02815260206004820152601260248201526000805160206137db833981519152604482015290519081900360640190fd5b611a9283836132ce565b600160d91b6420a226a4a7026125b58133612838565b6125f75760408051600160e51b62461bcd02815260206004820152601260248201526000805160206137db833981519152604482015290519081900360640190fd5b611a9283836129bc565b60008061260e8685612ff9565b9150915094509492505050565b600160d91b6420a226a4a7026126318133612838565b6126735760408051600160e51b62461bcd02815260206004820152601260248201526000805160206137db833981519152604482015290519081900360640190fd5b61267c82612ea9565b5050565b60075460408051600160e01b63660d0d6702815290516000926001600160a01b03169163660d0d67916004808301926020929190829003018186803b1580156126c857600080fd5b505afa1580156126dc573d6000803e3d6000fd5b505050506040513d60208110156126f257600080fd5b5051905090565b600760009054906101000a90046001600160a01b03166001600160a01b0316638da5cb5b6040518163ffffffff1660e01b815260040160206040518083038186803b15801561274757600080fd5b505afa15801561275b573d6000803e3d6000fd5b505050506040513d602081101561277157600080fd5b50516001600160a01b03163314611ac05760408051600160e51b62461bcd02815260206004820152601360248201527f53656e646572206973206e6f74206f776e657200000000000000000000000000604482015290519081900360640190fd5b6000818152602081905260409020600101546114b35760408051600160e51b62461bcd02815260206004820152600d60248201527f446f65736e277420657869737400000000000000000000000000000000000000604482015290519081900360640190fd5b600080600760009054906101000a90046001600160a01b03166001600160a01b0316638da5cb5b6040518163ffffffff1660e01b815260040160206040518083038186803b15801561288957600080fd5b505afa15801561289d573d6000803e3d6000fd5b505050506040513d60208110156128b357600080fd5b50516006546001600160a01b0385811692811683149350161481806128d55750805b80612965575060075460408051600160e01b638658b8b90281526001600160a01b0387811660048301523060248301526044820189905291519190921691638658b8b9916064808301926020929190829003018186803b15801561293857600080fd5b505afa15801561294c573d6000803e3d6000fd5b505050506040513d602081101561296257600080fd5b50515b925050505b92915050565b80821461267c5760408051600160e51b62461bcd02815260206004820152600f60248201526001608b1b6e098cadccee8d040dad2e6dac2e8c6d02604482015290519081900360640190fd5b6129c58261351e565b6129ce81613571565b6001600160a01b038216600090815260016020908152604080832060038352818420858552909252909120548154839291908110612a0857fe5b906000526020600020015414612a685760408051600160e51b62461bcd02815260206004820152601260248201527f55736572206e6f7420696e206c6f636b75700000000000000000000000000000604482015290519081900360640190fd5b60008181526004602090815260408083206001600160a01b038616845282528083205484845260029092529091205460001981018214612b6a57600083815260026020526040902080546000198301908110612ac057fe5b60009182526020808320909101548583526002909152604090912080546001600160a01b039092169184908110612af357fe5b600091825260208083209190910180546001600160a01b0319166001600160a01b039490941693909317909255848152600482526040808220600290935281208054859392919084908110612b4457fe5b60009182526020808320909101546001600160a01b031683528201929092526040019020555b6000838152600260205260409020805490612b8990600019830161379d565b505060008281526004602090815260408083206001600160a01b038716808552908352818420849055600383528184208685528352818420549084526001909252909120549060001982018114612c99576001600160a01b038516600090815260016020526040902080546000198401908110612c0257fe5b906000526020600020015460016000876001600160a01b03166001600160a01b031681526020019081526020016000208281548110612c3d57fe5b60009182526020808320909101929092556001600160a01b0387168152600382526040808220600190935281208054849392919084908110612c7b57fe5b90600052602060002001548152602001908152602001600020819055505b6001600160a01b0385166000908152600160205260409020805490612cc290600019830161379d565b506001600160a01b0385166000818152600360209081526040808320888452909152808220829055518692917f7e015c3eba27bdadcf5d6eb047426808ac067345c44487e8fe20c827a15b3e3291a35050505050565b60008282018381101561180a57600080fd5b6000818310612d39578161180a565b5090919050565b600082821115612d4f57600080fd5b50900390565b83612d5e574293505b612d6781613571565b60008181526020819052604090205415612dcb5760408051600160e51b62461bcd02815260206004820152600d60248201527f416c726561647920657869737400000000000000000000000000000000000000604482015290519081900360640190fd5b612dd4846135c6565b612ddf85848461361e565b604080516080808201835287825260208083018881528385018881526060808601898152600089815280865288812097518855935160018089019190915592516002880155516003909601959095556005805491820181559091527f036b6384b5eca791c62761152d0c79bb0604c104a5fb6f4eb0703f3154bb3db0018590558351898152908101889052808401879052918201859052915183927fb7f7150064f743670bc37ec864a18c2bb16976d157f9527a0ca27f4b5fb2dab8928290030190a25050505050565b612eb2816127d2565b60008181526002602052604090205415612f165760408051600160e51b62461bcd02815260206004820152601860248201527f557365727320617474616368656420746f206c6f636b75700000000000000000604482015290519081900360640190fd5b600081815260208190526040812081815560018101829055600281018290556003018190555b600554811015612f72578160058281548110612f5457fe5b90600052602060002001541415612f6a57612f72565b600101612f3c565b600554600019018114612fb657600580546000198101908110612f9157fe5b906000526020600020015460058281548110612fa957fe5b6000918252602090912001555b6005805490612fc990600019830161379d565b5060405182907f58b50ad0531e420e8588ef106091636b3e6d6deef2e5d975f16bebedd08a36e690600090a25050565b6008546000908190600160a01b900460ff1615801561302057506001600160a01b03841615155b801561304357506001600160a01b03841660009081526001602052604090205415155b1561305b57613052848461368b565b91509150613063565b506001905060005b9250929050565b600854600160a01b900460ff166130cb5760408051600160e51b62461bcd02815260206004820152601660248201527f436f6e7472616374206973206e6f742070617573656400000000000000000000604482015290519081900360640190fd5b60088054600160a01b60ff02191690556040805133815290517faeb196d352664784d1900b0e7414a8face7d29f4dae8c4b0cf68ed477423bbf49181900360200190a1565b83613119574293505b613122846135c6565b61312b816127d2565b61313685848461361e565b604080516080808201835287825260208083018881528385018881526060808601898152600089815280865288902096518755925160018701559051600286015590516003909401939093558351898152908101889052808401879052918201859052915183927ff6dd8145f3824e82ad83c088852835c2c806fec34a670ca146b2cc778584f7fa928290030190a25050505050565b6000818152602081905260408120600101544210156131ed57506000611527565b600082815260208190526040902060028101546001909101544291613218919063ffffffff612d1816565b116132325750600081815260208190526040902054611527565b6000828152602081905260408120600381015460029091015461325a9163ffffffff61375416565b60008481526020819052604081206003810154600190910154929350909161329a919061328e90429063ffffffff612d4016565b9063ffffffff61375416565b600085815260208190526040812054919250906132c390849061328e908563ffffffff61377616565b935061152792505050565b6132d78261351e565b6000818152602081905260409020600101546132f2906135c6565b6001600160a01b038216600090815260016020526040902054156133ab576001600160a01b03821660009081526001602090815260408083206003835281842085855290925290912054815483929190811061334a57fe5b906000526020600020015414156133ab5760408051600160e51b62461bcd02815260206004820152601660248201527f5573657220616c726561647920696e206c6f636b757000000000000000000000604482015290519081900360640190fd5b6001600160a01b0382166000818152600160208181526040808420805460038452828620888752845282862055600280845282862080546004865284882089895286528488205582548087018455928752848720909201889055835280549384018155845290832090910180546001600160a01b03191684179055518392917f4f5a1c0af08eb073ff1b227c4891b02246e8c359c2f887aa1e12e3a276f194e291a35050565b600854600160a01b900460ff16156134b35760408051600160e51b62461bcd02815260206004820152601260248201527f436f6e7472616374206973207061757365640000000000000000000000000000604482015290519081900360640190fd5b60088054600160a01b60ff021916600160a01b1790556040805133815290517f5ee71a369c8672edded508e624ffc9257fa1ae6886ef32905c18e60196bca3999181900360200190a1565b6135078661351e565b6135148585858585612d55565b61187686826132ce565b6001600160a01b0381166114b35760408051600160e51b62461bcd02815260206004820152600f6024820152600160881b6e496e76616c6964206164647265737302604482015290519081900360640190fd5b806114b35760408051600160e51b62461bcd02815260206004820152600c60248201527f496e76616c6964206e616d650000000000000000000000000000000000000000604482015290519081900360640190fd5b428110156114b35760408051600160e51b62461bcd02815260206004820152601c60248201527f496e76616c696420737461727454696d65206f72206578706972656400000000604482015290519081900360640190fd5b811580159061362c57508015155b801561363757508215155b611a925760408051600160e51b62461bcd02815260206004820152600e60248201527f43616e6e6f74206265207a65726f000000000000000000000000000000000000604482015290519081900360640190fd5b60008060006136998561228d565b60075460408051600160e01b6370a082310281526001600160a01b038981166004830152915193945060009391909216916370a08231916024808301926020929190829003018186803b1580156136ef57600080fd5b505afa158015613703573d6000803e3d6000fd5b505050506040513d602081101561371957600080fd5b505190508161372e828763ffffffff612d4016565b10613743575060019250600091506130639050565b506000953060601b95509350505050565b600080821161376257600080fd5b600082848161376d57fe5b04949350505050565b6000826137855750600061296a565b8282028284828161379257fe5b041461180a57600080fd5b815481835581811115611a9257600083815260209020611a9291810190830161152f91905b808211156137d657600081556001016137c2565b509056fe496e76616c6964207065726d697373696f6e0000000000000000000000000000a165627a7a723058205a44795716bea8d98a51ba573ceef76d28006ec86d6e644b2b4e257fb49f30aa0029",
  "source": "pragma solidity 0.5.8;\r\n\r\nimport \"../../TransferManager/TransferManager.sol\";\r\nimport \"./LockUpTransferManagerStorage.sol\";\r\nimport \"openzeppelin-solidity/contracts/math/SafeMath.sol\";\r\nimport \"openzeppelin-solidity/contracts/math/Math.sol\";\r\n\r\ncontract LockUpTransferManager is LockUpTransferManagerStorage, TransferManager {\r\n    using SafeMath for uint256;\r\n\r\n    event AddLockUpToUser(\r\n        address indexed _userAddress,\r\n        bytes32 indexed _lockupName\r\n    );\r\n\r\n    event RemoveLockUpFromUser(\r\n        address indexed _userAddress,\r\n        bytes32 indexed _lockupName\r\n    );\r\n\r\n    event ModifyLockUpType(\r\n        uint256 _lockupAmount,\r\n        uint256 _startTime,\r\n        uint256 _lockUpPeriodSeconds,\r\n        uint256 _releaseFrequencySeconds,\r\n        bytes32 indexed _lockupName\r\n    );\r\n\r\n    event AddNewLockUpType(\r\n        bytes32 indexed _lockupName,\r\n        uint256 _lockupAmount,\r\n        uint256 _startTime,\r\n        uint256 _lockUpPeriodSeconds,\r\n        uint256 _releaseFrequencySeconds\r\n    );\r\n\r\n    event RemoveLockUpType(bytes32 indexed _lockupName);\r\n\r\n    /**\r\n     * @notice Constructor\r\n     * @param _securityToken Address of the security token\r\n     * @param _polyAddress Address of the polytoken\r\n     */\r\n    constructor (address _securityToken, address _polyAddress)\r\n    public\r\n    Module(_securityToken, _polyAddress)\r\n    {\r\n    }\r\n\r\n    /** @notice Used to verify the transfer transaction and prevent locked up tokens from being transferred\r\n     * @param _from Address of the sender\r\n     * @param _amount The amount of tokens to transfer\r\n     */\r\n    function executeTransfer(address  _from, address /*_to*/, uint256  _amount, bytes calldata /*_data*/) external returns(Result) {\r\n        (Result success,) = _verifyTransfer(_from, _amount);\r\n        return success;\r\n    }\r\n\r\n    /** @notice Used to verify the transfer transaction and prevent locked up tokens from being transferred\r\n     * @param _from Address of the sender\r\n     * @param _amount The amount of tokens to transfer\r\n     */\r\n    function verifyTransfer(\r\n        address  _from,\r\n        address /* _to*/,\r\n        uint256  _amount,\r\n        bytes memory /* _data */\r\n    )\r\n        public\r\n        view\r\n        returns(Result, bytes32)\r\n    {\r\n        return _verifyTransfer(_from, _amount);\r\n    }\r\n\r\n    /** @notice Used to verify the transfer transaction and prevent locked up tokens from being transferred\r\n     * @param _from Address of the sender\r\n     * @param _amount The amount of tokens to transfer\r\n     */\r\n    function _verifyTransfer(\r\n        address  _from,\r\n        uint256  _amount\r\n    )\r\n        internal\r\n        view\r\n        returns(Result, bytes32)\r\n    {\r\n        // only attempt to verify the transfer if the token is unpaused, this isn't a mint txn, and there exists a lockup for this user\r\n        if (!paused && _from != address(0) && userToLockups[_from].length != 0) {\r\n            // check if this transfer is valid\r\n            return _checkIfValidTransfer(_from, _amount);\r\n        }\r\n        return (Result.NA, bytes32(0));\r\n    }\r\n\r\n\r\n    /**\r\n     * @notice Use to add the new lockup type\r\n     * @param _lockupAmount Amount of tokens that need to lock.\r\n     * @param _startTime When this lockup starts (seconds)\r\n     * @param _lockUpPeriodSeconds Total period of lockup (seconds)\r\n     * @param _releaseFrequencySeconds How often to release a tranche of tokens (seconds)\r\n     * @param _lockupName Name of the lockup\r\n     */\r\n    function addNewLockUpType(\r\n        uint256 _lockupAmount,\r\n        uint256 _startTime,\r\n        uint256 _lockUpPeriodSeconds,\r\n        uint256 _releaseFrequencySeconds,\r\n        bytes32 _lockupName\r\n    )\r\n        external\r\n        withPerm(ADMIN)\r\n    {\r\n        _addNewLockUpType(\r\n            _lockupAmount,\r\n            _startTime,\r\n            _lockUpPeriodSeconds,\r\n            _releaseFrequencySeconds,\r\n            _lockupName\r\n        );\r\n    }\r\n\r\n    /**\r\n     * @notice Use to add the new lockup type\r\n     * @param _lockupAmounts Array of amount of tokens that need to lock.\r\n     * @param _startTimes Array of startTimes when this lockup starts (seconds)\r\n     * @param _lockUpPeriodsSeconds Array of total period of lockup (seconds)\r\n     * @param _releaseFrequenciesSeconds Array of how often to release a tranche of tokens (seconds)\r\n     * @param _lockupNames Array of names of the lockup\r\n     */\r\n    function addNewLockUpTypeMulti(\r\n        uint256[] memory _lockupAmounts,\r\n        uint256[] memory _startTimes,\r\n        uint256[] memory _lockUpPeriodsSeconds,\r\n        uint256[] memory _releaseFrequenciesSeconds,\r\n        bytes32[] memory _lockupNames\r\n    )\r\n        public\r\n        withPerm(ADMIN)\r\n    {\r\n        require(\r\n            _lockupNames.length == _lockUpPeriodsSeconds.length && /*solium-disable-line operator-whitespace*/\r\n            _lockupNames.length == _releaseFrequenciesSeconds.length && /*solium-disable-line operator-whitespace*/\r\n            _lockupNames.length == _startTimes.length && /*solium-disable-line operator-whitespace*/\r\n            _lockupNames.length == _lockupAmounts.length,\r\n            \"Length mismatch\"\r\n        );\r\n        for (uint256 i = 0; i < _lockupNames.length; i++) {\r\n            _addNewLockUpType(\r\n                _lockupAmounts[i],\r\n                _startTimes[i],\r\n                _lockUpPeriodsSeconds[i],\r\n                _releaseFrequenciesSeconds[i],\r\n                _lockupNames[i]\r\n            );\r\n        }\r\n    }\r\n\r\n    /**\r\n     * @notice Add the lockup to a user\r\n     * @param _userAddress Address of the user\r\n     * @param _lockupName Name of the lockup\r\n     */\r\n    function addLockUpByName(\r\n        address _userAddress,\r\n        bytes32 _lockupName\r\n    )\r\n        external\r\n        withPerm(ADMIN)\r\n    {\r\n        _addLockUpByName(_userAddress, _lockupName);\r\n    }\r\n\r\n    /**\r\n     * @notice Add lockups to users\r\n     * @param _userAddresses Array of addresses of the users\r\n     * @param _lockupNames Array of names of the lockups\r\n     */\r\n    function addLockUpByNameMulti(\r\n        address[] memory _userAddresses,\r\n        bytes32[] memory _lockupNames\r\n    )\r\n        public\r\n        withPerm(ADMIN)\r\n    {\r\n        _checkLengthOfArray(_userAddresses.length, _lockupNames.length);\r\n        for (uint256 i = 0; i < _userAddresses.length; i++) {\r\n            _addLockUpByName(_userAddresses[i], _lockupNames[i]);\r\n        }\r\n    }\r\n\r\n    /**\r\n     * @notice Lets the admin create a volume restriction lockup for a given address.\r\n     * @param _userAddress Address of the user whose tokens should be locked up\r\n     * @param _lockupAmount Amount of tokens that need to lock.\r\n     * @param _startTime When this lockup starts (seconds)\r\n     * @param _lockUpPeriodSeconds Total period of lockup (seconds)\r\n     * @param _releaseFrequencySeconds How often to release a tranche of tokens (seconds)\r\n     * @param _lockupName Name of the lockup\r\n     */\r\n    function addNewLockUpToUser(\r\n        address _userAddress,\r\n        uint256 _lockupAmount,\r\n        uint256 _startTime,\r\n        uint256 _lockUpPeriodSeconds,\r\n        uint256 _releaseFrequencySeconds,\r\n        bytes32 _lockupName\r\n    )\r\n        external\r\n        withPerm(ADMIN)\r\n    {\r\n        _addNewLockUpToUser(\r\n            _userAddress,\r\n            _lockupAmount,\r\n            _startTime,\r\n            _lockUpPeriodSeconds,\r\n            _releaseFrequencySeconds,\r\n            _lockupName\r\n        );\r\n    }\r\n\r\n    /**\r\n     * @notice Lets the admin create multiple volume restriction lockups for multiple given addresses.\r\n     * @param _userAddresses Array of address of the user whose tokens should be locked up\r\n     * @param _lockupAmounts Array of the amounts that need to be locked for the different addresses.\r\n     * @param _startTimes Array of When this lockup starts (seconds)\r\n     * @param _lockUpPeriodsSeconds Array of total periods of lockup (seconds)\r\n     * @param _releaseFrequenciesSeconds Array of how often to release a tranche of tokens (seconds)\r\n     * @param _lockupNames Array of names of the lockup\r\n     */\r\n    function addNewLockUpToUserMulti(\r\n        address[] memory _userAddresses,\r\n        uint256[] memory _lockupAmounts,\r\n        uint256[] memory _startTimes,\r\n        uint256[] memory _lockUpPeriodsSeconds,\r\n        uint256[] memory _releaseFrequenciesSeconds,\r\n        bytes32[] memory _lockupNames\r\n    )\r\n        public\r\n        withPerm(ADMIN)\r\n    {\r\n        require(\r\n            _userAddresses.length == _lockUpPeriodsSeconds.length && /*solium-disable-line operator-whitespace*/\r\n            _userAddresses.length == _releaseFrequenciesSeconds.length && /*solium-disable-line operator-whitespace*/\r\n            _userAddresses.length == _startTimes.length && /*solium-disable-line operator-whitespace*/\r\n            _userAddresses.length == _lockupAmounts.length &&\r\n            _userAddresses.length == _lockupNames.length,\r\n            \"Length mismatch\"\r\n        );\r\n        for (uint256 i = 0; i < _userAddresses.length; i++) {\r\n            _addNewLockUpToUser(_userAddresses[i], _lockupAmounts[i], _startTimes[i], _lockUpPeriodsSeconds[i], _releaseFrequenciesSeconds[i], _lockupNames[i]);\r\n        }\r\n    }\r\n\r\n    /**\r\n     * @notice Lets the admin remove a user's lock up\r\n     * @param _userAddress Address of the user whose tokens are locked up\r\n     * @param _lockupName Name of the lockup need to be removed.\r\n     */\r\n    function removeLockUpFromUser(address _userAddress, bytes32 _lockupName) external withPerm(ADMIN) {\r\n        _removeLockUpFromUser(_userAddress, _lockupName);\r\n    }\r\n\r\n    /**\r\n     * @notice Used to remove the lockup type\r\n     * @param _lockupName Name of the lockup\r\n     */\r\n    function removeLockupType(bytes32 _lockupName) external withPerm(ADMIN) {\r\n        _removeLockupType(_lockupName);\r\n    }\r\n\r\n    /**\r\n     * @notice Used to remove the multiple lockup type\r\n     * @param _lockupNames Array of the lockup names.\r\n     */\r\n    function removeLockupTypeMulti(bytes32[] memory _lockupNames) public withPerm(ADMIN) {\r\n        for (uint256 i = 0; i < _lockupNames.length; i++) {\r\n            _removeLockupType(_lockupNames[i]);\r\n        }\r\n    }\r\n\r\n    /**\r\n     * @notice Use to remove the lockup for multiple users\r\n     * @param _userAddresses Array of addresses of the user whose tokens are locked up\r\n     * @param _lockupNames Array of the names of the lockup that needs to be removed.\r\n     */\r\n    function removeLockUpFromUserMulti(address[] memory _userAddresses, bytes32[] memory _lockupNames) public withPerm(ADMIN) {\r\n        _checkLengthOfArray(_userAddresses.length, _lockupNames.length);\r\n        for (uint256 i = 0; i < _userAddresses.length; i++) {\r\n            _removeLockUpFromUser(_userAddresses[i], _lockupNames[i]);\r\n        }\r\n    }\r\n\r\n    /**\r\n     * @notice Lets the admin modify a lockup.\r\n     * @param _lockupAmount Amount of tokens that needs to be locked\r\n     * @param _startTime When this lockup starts (seconds)\r\n     * @param _lockUpPeriodSeconds Total period of lockup (seconds)\r\n     * @param _releaseFrequencySeconds How often to release a tranche of tokens (seconds)\r\n     * @param _lockupName name of the lockup that needs to be modified.\r\n     */\r\n    function modifyLockUpType(\r\n        uint256 _lockupAmount,\r\n        uint256 _startTime,\r\n        uint256 _lockUpPeriodSeconds,\r\n        uint256 _releaseFrequencySeconds,\r\n        bytes32 _lockupName\r\n    )\r\n        external\r\n        withPerm(ADMIN)\r\n    {\r\n        _modifyLockUpType(\r\n            _lockupAmount,\r\n            _startTime,\r\n            _lockUpPeriodSeconds,\r\n            _releaseFrequencySeconds,\r\n            _lockupName\r\n        );\r\n    }\r\n\r\n    /**\r\n     * @notice Lets the admin modify a volume restriction lockup for a multiple address.\r\n     * @param _lockupAmounts Array of the amount of tokens that needs to be locked for the respective addresses.\r\n     * @param _startTimes Array of the start time of the lockups (seconds)\r\n     * @param _lockUpPeriodsSeconds Array of unix timestamp for the list of lockups (seconds).\r\n     * @param _releaseFrequenciesSeconds How often to release a tranche of tokens (seconds)\r\n     * @param _lockupNames Array of the lockup names that needs to be modified\r\n     */\r\n    function modifyLockUpTypeMulti(\r\n        uint256[] memory _lockupAmounts,\r\n        uint256[] memory _startTimes,\r\n        uint256[] memory _lockUpPeriodsSeconds,\r\n        uint256[] memory _releaseFrequenciesSeconds,\r\n        bytes32[] memory _lockupNames\r\n    )\r\n        public\r\n        withPerm(ADMIN)\r\n    {\r\n        require(\r\n            _lockupNames.length == _lockUpPeriodsSeconds.length && /*solium-disable-line operator-whitespace*/\r\n            _lockupNames.length == _releaseFrequenciesSeconds.length && /*solium-disable-line operator-whitespace*/\r\n            _lockupNames.length == _startTimes.length && /*solium-disable-line operator-whitespace*/\r\n            _lockupNames.length == _lockupAmounts.length,\r\n            \"Length mismatch\"\r\n        );\r\n        for (uint256 i = 0; i < _lockupNames.length; i++) {\r\n            _modifyLockUpType(\r\n                _lockupAmounts[i],\r\n                _startTimes[i],\r\n                _lockUpPeriodsSeconds[i],\r\n                _releaseFrequenciesSeconds[i],\r\n                _lockupNames[i]\r\n            );\r\n        }\r\n    }\r\n\r\n    /**\r\n     * @notice Get a specific element in a user's lockups array given the user's address and the element index\r\n     * @param _lockupName The name of the lockup\r\n     */\r\n    function getLockUp(bytes32 _lockupName) public view returns (\r\n        uint256 lockupAmount,\r\n        uint256 startTime,\r\n        uint256 lockUpPeriodSeconds,\r\n        uint256 releaseFrequencySeconds,\r\n        uint256 unlockedAmount\r\n    ) {\r\n        if (lockups[_lockupName].lockupAmount != 0) {\r\n            return (\r\n                lockups[_lockupName].lockupAmount,\r\n                lockups[_lockupName].startTime,\r\n                lockups[_lockupName].lockUpPeriodSeconds,\r\n                lockups[_lockupName].releaseFrequencySeconds,\r\n                _getUnlockedAmountForLockup(_lockupName)\r\n            );\r\n        }\r\n        return (uint256(0), uint256(0), uint256(0), uint256(0), uint256(0));\r\n    }\r\n\r\n    /**\r\n     * @notice Return the data of the lockups\r\n     */\r\n    function getAllLockupData() external view returns(\r\n        bytes32[] memory lockupNames,\r\n        uint256[] memory lockupAmounts,\r\n        uint256[] memory startTimes,\r\n        uint256[] memory lockUpPeriodSeconds,\r\n        uint256[] memory releaseFrequencySeconds,\r\n        uint256[] memory unlockedAmounts\r\n    )\r\n    {\r\n        uint256 length = lockupArray.length;\r\n        lockupAmounts = new uint256[](length);\r\n        startTimes = new uint256[](length);\r\n        lockUpPeriodSeconds = new uint256[](length);\r\n        releaseFrequencySeconds = new uint256[](length);\r\n        unlockedAmounts = new uint256[](length);\r\n        lockupNames = new bytes32[](length);\r\n        for (uint256 i = 0; i < length; i++) {\r\n            (lockupAmounts[i], startTimes[i], lockUpPeriodSeconds[i], releaseFrequencySeconds[i], unlockedAmounts[i]) = getLockUp(lockupArray[i]);\r\n            lockupNames[i] = lockupArray[i];\r\n        }\r\n    }\r\n\r\n   /**\r\n    * @notice get the list of the users of a lockup type\r\n    * @param _lockupName Name of the lockup type\r\n    * @return address List of users associated with the given lockup name\r\n    */\r\n    function getListOfAddresses(bytes32 _lockupName) external view returns(address[] memory) {\r\n        _validLockUpCheck(_lockupName);\r\n        return lockupToUsers[_lockupName];\r\n    }\r\n\r\n    /**\r\n     * @notice get the list of lockups names\r\n     * @return bytes32 Array of lockups names\r\n     */\r\n    function getAllLockups() external view returns(bytes32[] memory) {\r\n        return lockupArray;\r\n    }\r\n\r\n    /**\r\n     * @notice get the list of the lockups for a given user\r\n     * @param _user Address of the user\r\n     * @return bytes32 List of lockups names associated with the given address\r\n     */\r\n    function getLockupsNamesToUser(address _user) external view returns(bytes32[] memory) {\r\n        return userToLockups[_user];\r\n    }\r\n\r\n    /**\r\n     * @notice Use to get the total locked tokens for a given user\r\n     * @param _userAddress Address of the user\r\n     * @return uint256 Total locked tokens amount\r\n     */\r\n    function getLockedTokenToUser(address _userAddress) public view returns(uint256) {\r\n        _checkZeroAddress(_userAddress);\r\n        bytes32[] memory userLockupNames = userToLockups[_userAddress];\r\n        uint256 totalRemainingLockedAmount = 0;\r\n        for (uint256 i = 0; i < userLockupNames.length; i++) {\r\n            // Find out the remaining locked amount for a given lockup\r\n            uint256 remainingLockedAmount = lockups[userLockupNames[i]].lockupAmount.sub(_getUnlockedAmountForLockup(userLockupNames[i]));\r\n            // aggregating all the remaining locked amount for all the lockups for a given address\r\n            totalRemainingLockedAmount = totalRemainingLockedAmount.add(remainingLockedAmount);\r\n        }\r\n        return totalRemainingLockedAmount;\r\n    }\r\n\r\n    /**\r\n     * @notice Checks whether the transfer is allowed\r\n     * @param _userAddress Address of the user whose lock ups should be checked\r\n     * @param _amount Amount of tokens that need to transact\r\n     */\r\n    function _checkIfValidTransfer(address _userAddress, uint256 _amount) internal view returns (Result, bytes32) {\r\n        uint256 totalRemainingLockedAmount = getLockedTokenToUser(_userAddress);\r\n        // Present balance of the user\r\n        uint256 currentBalance = securityToken.balanceOf(_userAddress);\r\n        if ((currentBalance.sub(_amount)) >= totalRemainingLockedAmount) {\r\n            return (Result.NA, bytes32(0));\r\n        }\r\n        return (Result.INVALID, bytes32(uint256(address(this)) << 96));\r\n    }\r\n\r\n    /**\r\n     * @notice Provide the unlock amount for the given lockup for a particular user\r\n     */\r\n    function _getUnlockedAmountForLockup(bytes32 _lockupName) internal view returns (uint256) {\r\n        /*solium-disable-next-line security/no-block-members*/\r\n        if (lockups[_lockupName].startTime > now) {\r\n            return 0;\r\n        } else if (lockups[_lockupName].startTime.add(lockups[_lockupName].lockUpPeriodSeconds) <= now) {\r\n            return lockups[_lockupName].lockupAmount;\r\n        } else {\r\n            // Calculate the no. of periods for a lockup\r\n            uint256 noOfPeriods = (lockups[_lockupName].lockUpPeriodSeconds).div(lockups[_lockupName].releaseFrequencySeconds);\r\n            // Calculate the transaction time lies in which period\r\n            /*solium-disable-next-line security/no-block-members*/\r\n            uint256 elapsedPeriod = (now.sub(lockups[_lockupName].startTime)).div(lockups[_lockupName].releaseFrequencySeconds);\r\n            // Find out the unlocked amount for a given lockup\r\n            uint256 unLockedAmount = (lockups[_lockupName].lockupAmount.mul(elapsedPeriod)).div(noOfPeriods);\r\n            return unLockedAmount;\r\n        }\r\n    }\r\n\r\n    function _removeLockupType(bytes32 _lockupName) internal {\r\n        _validLockUpCheck(_lockupName);\r\n        require(lockupToUsers[_lockupName].length == 0, \"Users attached to lockup\");\r\n        // delete lockup type\r\n        delete(lockups[_lockupName]);\r\n        uint256 i = 0;\r\n        for (i = 0; i < lockupArray.length; i++) {\r\n            if (lockupArray[i] == _lockupName) {\r\n                break;\r\n            }\r\n        }\r\n        if (i != lockupArray.length -1) {\r\n            lockupArray[i] = lockupArray[lockupArray.length -1];\r\n        }\r\n        lockupArray.length--;\r\n        emit RemoveLockUpType(_lockupName);\r\n    }\r\n\r\n    function _modifyLockUpType(\r\n        uint256 _lockupAmount,\r\n        uint256 _startTime,\r\n        uint256 _lockUpPeriodSeconds,\r\n        uint256 _releaseFrequencySeconds,\r\n        bytes32 _lockupName\r\n    )\r\n        internal\r\n    {\r\n        /*solium-disable-next-line security/no-block-members*/\r\n        if (_startTime == 0) {\r\n            _startTime = now;\r\n        }\r\n        _checkValidStartTime(_startTime);\r\n        _validLockUpCheck(_lockupName);\r\n        _checkLockUpParams(\r\n            _lockupAmount,\r\n            _lockUpPeriodSeconds,\r\n            _releaseFrequencySeconds\r\n        );\r\n\r\n        lockups[_lockupName] =  LockUp(\r\n            _lockupAmount,\r\n            _startTime,\r\n            _lockUpPeriodSeconds,\r\n            _releaseFrequencySeconds\r\n        );\r\n\r\n        emit ModifyLockUpType(\r\n            _lockupAmount,\r\n            _startTime,\r\n            _lockUpPeriodSeconds,\r\n            _releaseFrequencySeconds,\r\n            _lockupName\r\n        );\r\n    }\r\n\r\n    function _removeLockUpFromUser(address _userAddress, bytes32 _lockupName) internal {\r\n        _checkZeroAddress(_userAddress);\r\n        _checkValidName(_lockupName);\r\n        require(\r\n            userToLockups[_userAddress][userToLockupIndex[_userAddress][_lockupName]] == _lockupName,\r\n            \"User not in lockup\"\r\n        );\r\n\r\n        // delete the user from the lockup type\r\n        uint256 _lockupIndex = lockupToUserIndex[_lockupName][_userAddress];\r\n        uint256 _len = lockupToUsers[_lockupName].length;\r\n        if ( _lockupIndex != _len - 1) {\r\n            lockupToUsers[_lockupName][_lockupIndex] = lockupToUsers[_lockupName][_len - 1];\r\n            lockupToUserIndex[_lockupName][lockupToUsers[_lockupName][_lockupIndex]] = _lockupIndex;\r\n        }\r\n        lockupToUsers[_lockupName].length--;\r\n        // delete the user index from the lockup\r\n        delete(lockupToUserIndex[_lockupName][_userAddress]);\r\n        // delete the lockup from the user\r\n        uint256 _userIndex = userToLockupIndex[_userAddress][_lockupName];\r\n        _len = userToLockups[_userAddress].length;\r\n        if ( _userIndex != _len - 1) {\r\n            userToLockups[_userAddress][_userIndex] = userToLockups[_userAddress][_len - 1];\r\n            userToLockupIndex[_userAddress][userToLockups[_userAddress][_userIndex]] = _userIndex;\r\n        }\r\n        userToLockups[_userAddress].length--;\r\n        // delete the lockup index from the user\r\n        delete(userToLockupIndex[_userAddress][_lockupName]);\r\n        emit RemoveLockUpFromUser(_userAddress, _lockupName);\r\n    }\r\n\r\n    function _addNewLockUpToUser(\r\n        address _userAddress,\r\n        uint256 _lockupAmount,\r\n        uint256 _startTime,\r\n        uint256 _lockUpPeriodSeconds,\r\n        uint256 _releaseFrequencySeconds,\r\n        bytes32 _lockupName\r\n    )\r\n        internal\r\n    {\r\n        _checkZeroAddress(_userAddress);\r\n        _addNewLockUpType(\r\n            _lockupAmount,\r\n            _startTime,\r\n            _lockUpPeriodSeconds,\r\n            _releaseFrequencySeconds,\r\n            _lockupName\r\n        );\r\n        _addLockUpByName(_userAddress, _lockupName);\r\n    }\r\n\r\n    function _addLockUpByName(\r\n        address _userAddress,\r\n        bytes32 _lockupName\r\n    )\r\n        internal\r\n    {\r\n        _checkZeroAddress(_userAddress);\r\n        _checkValidStartTime(lockups[_lockupName].startTime);\r\n        if(userToLockups[_userAddress].length > 0) {\r\n            require(\r\n                userToLockups[_userAddress][userToLockupIndex[_userAddress][_lockupName]] != _lockupName,\r\n                \"User already in lockup\"\r\n            );\r\n        }\r\n        userToLockupIndex[_userAddress][_lockupName] = userToLockups[_userAddress].length;\r\n        lockupToUserIndex[_lockupName][_userAddress] = lockupToUsers[_lockupName].length;\r\n        userToLockups[_userAddress].push(_lockupName);\r\n        lockupToUsers[_lockupName].push(_userAddress);\r\n        emit AddLockUpToUser(_userAddress, _lockupName);\r\n    }\r\n\r\n    function _addNewLockUpType(\r\n        uint256 _lockupAmount,\r\n        uint256 _startTime,\r\n        uint256 _lockUpPeriodSeconds,\r\n        uint256 _releaseFrequencySeconds,\r\n        bytes32 _lockupName\r\n    )\r\n        internal\r\n    {\r\n        /*solium-disable-next-line security/no-block-members*/\r\n        if (_startTime == 0) {\r\n            _startTime = now;\r\n        }\r\n        _checkValidName(_lockupName);\r\n        require(lockups[_lockupName].lockupAmount == 0, \"Already exist\");\r\n        _checkValidStartTime(_startTime);\r\n        _checkLockUpParams(_lockupAmount, _lockUpPeriodSeconds, _releaseFrequencySeconds);\r\n        lockups[_lockupName] = LockUp(_lockupAmount, _startTime, _lockUpPeriodSeconds, _releaseFrequencySeconds);\r\n        lockupArray.push(_lockupName);\r\n        emit AddNewLockUpType(_lockupName, _lockupAmount, _startTime, _lockUpPeriodSeconds, _releaseFrequencySeconds);\r\n    }\r\n\r\n    /**\r\n     * @notice Parameter checking function for creating or editing a lockup.\r\n     *  This function will cause an exception if any of the parameters are bad.\r\n     * @param _lockupAmount Amount that needs to be locked\r\n     * @param _lockUpPeriodSeconds Total period of lockup (seconds)\r\n     * @param _releaseFrequencySeconds How often to release a tranche of tokens (seconds)\r\n     */\r\n    function _checkLockUpParams(\r\n        uint256 _lockupAmount,\r\n        uint256 _lockUpPeriodSeconds,\r\n        uint256 _releaseFrequencySeconds\r\n    )\r\n        internal\r\n        pure\r\n    {\r\n        require(\r\n            _lockUpPeriodSeconds != 0 &&\r\n            _releaseFrequencySeconds != 0 &&\r\n            _lockupAmount != 0,\r\n            \"Cannot be zero\"\r\n        );\r\n    }\r\n\r\n    function _checkValidStartTime(uint256 _startTime) internal view {\r\n        require(_startTime >= now, \"Invalid startTime or expired\");\r\n    }\r\n\r\n    function _checkZeroAddress(address _userAddress) internal pure {\r\n        require(_userAddress != address(0), \"Invalid address\");\r\n    }\r\n\r\n    function _validLockUpCheck(bytes32 _lockupName) internal view {\r\n        require(lockups[_lockupName].startTime != 0, \"Doesn't exist\");\r\n    }\r\n\r\n    function _checkValidName(bytes32 _name) internal pure {\r\n        require(_name != bytes32(0), \"Invalid name\");\r\n    }\r\n\r\n    function _checkLengthOfArray(uint256 _length1, uint256 _length2) internal pure {\r\n        require(_length1 == _length2, \"Length mismatch\");\r\n    }\r\n\r\n    /**\r\n     * @notice return the amount of tokens for a given user as per the partition\r\n     * @param _partition Identifier\r\n     * @param _tokenHolder Whom token amount need to query\r\n     * @param _additionalBalance It is the `_value` that transfer during transfer/transferFrom function call\r\n     */\r\n    function getTokensByPartition(bytes32 _partition, address _tokenHolder, uint256 _additionalBalance) external view returns(uint256){\r\n        uint256 currentBalance = (msg.sender == address(securityToken)) ? (securityToken.balanceOf(_tokenHolder)).add(_additionalBalance) : securityToken.balanceOf(_tokenHolder);\r\n        uint256 lockedBalance = Math.min(getLockedTokenToUser(_tokenHolder), currentBalance);\r\n        if (paused) {\r\n            return (_partition == UNLOCKED ? currentBalance : uint256(0));\r\n        } else {\r\n            if (_partition == LOCKED)\r\n                return lockedBalance;\r\n            else if (_partition == UNLOCKED)\r\n                return currentBalance.sub(lockedBalance);\r\n        }\r\n        return uint256(0);\r\n    }\r\n\r\n    /**\r\n     * @notice This function returns the signature of configure function\r\n     */\r\n    function getInitFunction() public pure returns (bytes4) {\r\n        return bytes4(0);\r\n    }\r\n\r\n    /**\r\n     * @notice Returns the permissions flag that are associated with Percentage transfer Manager\r\n     */\r\n    function getPermissions() public view returns(bytes32[] memory) {\r\n        bytes32[] memory allPermissions = new bytes32[](1);\r\n        allPermissions[0] = ADMIN;\r\n        return allPermissions;\r\n    }\r\n}\r\n",
  "sourcePath": "C:\\mspace\\polymath-core\\contracts\\modules\\TransferManager\\LTM\\LockUpTransferManager.sol",
  "compiler": {
    "name": "solc",
    "version": "0.5.8+commit.23d335f2.Emscripten.clang"
  },
  "schemaVersion": "3.0.11",
  "updatedAt": "2019-08-05T22:52:46.881Z",
  "devdoc": {
    "methods": {
      "addLockUpByName(address,bytes32)": {
        "params": {
          "_lockupName": "Name of the lockup\r",
          "_userAddress": "Address of the user\r"
        }
      },
      "addLockUpByNameMulti(address[],bytes32[])": {
        "params": {
          "_lockupNames": "Array of names of the lockups\r",
          "_userAddresses": "Array of addresses of the users\r"
        }
      },
      "addNewLockUpToUser(address,uint256,uint256,uint256,uint256,bytes32)": {
        "params": {
          "_lockUpPeriodSeconds": "Total period of lockup (seconds)\r",
          "_lockupAmount": "Amount of tokens that need to lock.\r",
          "_lockupName": "Name of the lockup\r",
          "_releaseFrequencySeconds": "How often to release a tranche of tokens (seconds)\r",
          "_startTime": "When this lockup starts (seconds)\r",
          "_userAddress": "Address of the user whose tokens should be locked up\r"
        }
      },
      "addNewLockUpToUserMulti(address[],uint256[],uint256[],uint256[],uint256[],bytes32[])": {
        "params": {
          "_lockUpPeriodsSeconds": "Array of total periods of lockup (seconds)\r",
          "_lockupAmounts": "Array of the amounts that need to be locked for the different addresses.\r",
          "_lockupNames": "Array of names of the lockup\r",
          "_releaseFrequenciesSeconds": "Array of how often to release a tranche of tokens (seconds)\r",
          "_startTimes": "Array of When this lockup starts (seconds)\r",
          "_userAddresses": "Array of address of the user whose tokens should be locked up\r"
        }
      },
      "addNewLockUpType(uint256,uint256,uint256,uint256,bytes32)": {
        "params": {
          "_lockUpPeriodSeconds": "Total period of lockup (seconds)\r",
          "_lockupAmount": "Amount of tokens that need to lock.\r",
          "_lockupName": "Name of the lockup\r",
          "_releaseFrequencySeconds": "How often to release a tranche of tokens (seconds)\r",
          "_startTime": "When this lockup starts (seconds)\r"
        }
      },
      "addNewLockUpTypeMulti(uint256[],uint256[],uint256[],uint256[],bytes32[])": {
        "params": {
          "_lockUpPeriodsSeconds": "Array of total period of lockup (seconds)\r",
          "_lockupAmounts": "Array of amount of tokens that need to lock.\r",
          "_lockupNames": "Array of names of the lockup\r",
          "_releaseFrequenciesSeconds": "Array of how often to release a tranche of tokens (seconds)\r",
          "_startTimes": "Array of startTimes when this lockup starts (seconds)\r"
        }
      },
      "constructor": {
        "params": {
          "_polyAddress": "Address of the polytoken\r",
          "_securityToken": "Address of the security token\r"
        }
      },
      "executeTransfer(address,address,uint256,bytes)": {
        "params": {
          "_amount": "The amount of tokens to transfer\r",
          "_from": "Address of the sender\r"
        }
      },
      "getAllLockups()": {
        "return": "bytes32 Array of lockups names\r"
      },
      "getListOfAddresses(bytes32)": {
        "params": {
          "_lockupName": "Name of the lockup type\r"
        },
        "return": "address List of users associated with the given lockup name\r"
      },
      "getLockUp(bytes32)": {
        "params": {
          "_lockupName": "The name of the lockup\r"
        }
      },
      "getLockedTokenToUser(address)": {
        "params": {
          "_userAddress": "Address of the user\r"
        },
        "return": "uint256 Total locked tokens amount\r"
      },
      "getLockupsNamesToUser(address)": {
        "params": {
          "_user": "Address of the user\r"
        },
        "return": "bytes32 List of lockups names associated with the given address\r"
      },
      "getTokensByPartition(bytes32,address,uint256)": {
        "params": {
          "_additionalBalance": "It is the `_value` that transfer during transfer/transferFrom function call\r",
          "_partition": "Identifier\r",
          "_tokenHolder": "Whom token amount need to query\r"
        }
      },
      "modifyLockUpType(uint256,uint256,uint256,uint256,bytes32)": {
        "params": {
          "_lockUpPeriodSeconds": "Total period of lockup (seconds)\r",
          "_lockupAmount": "Amount of tokens that needs to be locked\r",
          "_lockupName": "name of the lockup that needs to be modified.\r",
          "_releaseFrequencySeconds": "How often to release a tranche of tokens (seconds)\r",
          "_startTime": "When this lockup starts (seconds)\r"
        }
      },
      "modifyLockUpTypeMulti(uint256[],uint256[],uint256[],uint256[],bytes32[])": {
        "params": {
          "_lockUpPeriodsSeconds": "Array of unix timestamp for the list of lockups (seconds).\r",
          "_lockupAmounts": "Array of the amount of tokens that needs to be locked for the respective addresses.\r",
          "_lockupNames": "Array of the lockup names that needs to be modified\r",
          "_releaseFrequenciesSeconds": "How often to release a tranche of tokens (seconds)\r",
          "_startTimes": "Array of the start time of the lockups (seconds)\r"
        }
      },
      "reclaimERC20(address)": {
        "details": "We duplicate here due to the overriden owner & onlyOwner\r",
        "params": {
          "_tokenContract": "The address of the token contract\r"
        }
      },
      "reclaimETH()": {
        "details": "We duplicate here due to the overriden owner & onlyOwner\r"
      },
      "removeLockUpFromUser(address,bytes32)": {
        "params": {
          "_lockupName": "Name of the lockup need to be removed.\r",
          "_userAddress": "Address of the user whose tokens are locked up\r"
        }
      },
      "removeLockUpFromUserMulti(address[],bytes32[])": {
        "params": {
          "_lockupNames": "Array of the names of the lockup that needs to be removed.\r",
          "_userAddresses": "Array of addresses of the user whose tokens are locked up\r"
        }
      },
      "removeLockupType(bytes32)": {
        "params": {
          "_lockupName": "Name of the lockup\r"
        }
      },
      "removeLockupTypeMulti(bytes32[])": {
        "params": {
          "_lockupNames": "Array of the lockup names.\r"
        }
      },
      "verifyTransfer(address,address,uint256,bytes)": {
        "params": {
          "_amount": "The amount of tokens to transfer\r",
          "_from": "Address of the sender\r"
        }
      }
    }
  },
  "userdoc": {
    "methods": {
      "addLockUpByName(address,bytes32)": {
        "notice": "Add the lockup to a user\r"
      },
      "addLockUpByNameMulti(address[],bytes32[])": {
        "notice": "Add lockups to users\r"
      },
      "addNewLockUpToUser(address,uint256,uint256,uint256,uint256,bytes32)": {
        "notice": "Lets the admin create a volume restriction lockup for a given address.\r"
      },
      "addNewLockUpToUserMulti(address[],uint256[],uint256[],uint256[],uint256[],bytes32[])": {
        "notice": "Lets the admin create multiple volume restriction lockups for multiple given addresses.\r"
      },
      "addNewLockUpType(uint256,uint256,uint256,uint256,bytes32)": {
        "notice": "Use to add the new lockup type\r"
      },
      "addNewLockUpTypeMulti(uint256[],uint256[],uint256[],uint256[],bytes32[])": {
        "notice": "Use to add the new lockup type\r"
      },
      "constructor": "Constructor\r",
      "executeTransfer(address,address,uint256,bytes)": {
        "notice": "Used to verify the transfer transaction and prevent locked up tokens from being transferred\r"
      },
      "getAllLockupData()": {
        "notice": "Return the data of the lockups\r"
      },
      "getAllLockups()": {
        "notice": "get the list of lockups names\r"
      },
      "getDataStore()": {
        "notice": "used to return the data store address of securityToken\r"
      },
      "getInitFunction()": {
        "notice": "This function returns the signature of configure function\r"
      },
      "getListOfAddresses(bytes32)": {
        "notice": "get the list of the users of a lockup type\r"
      },
      "getLockUp(bytes32)": {
        "notice": "Get a specific element in a user's lockups array given the user's address and the element index\r"
      },
      "getLockedTokenToUser(address)": {
        "notice": "Use to get the total locked tokens for a given user\r"
      },
      "getLockupsNamesToUser(address)": {
        "notice": "get the list of the lockups for a given user\r"
      },
      "getPermissions()": {
        "notice": "Returns the permissions flag that are associated with Percentage transfer Manager\r"
      },
      "getTokensByPartition(bytes32,address,uint256)": {
        "notice": "return the amount of tokens for a given user as per the partition\r"
      },
      "modifyLockUpType(uint256,uint256,uint256,uint256,bytes32)": {
        "notice": "Lets the admin modify a lockup.\r"
      },
      "modifyLockUpTypeMulti(uint256[],uint256[],uint256[],uint256[],bytes32[])": {
        "notice": "Lets the admin modify a volume restriction lockup for a multiple address.\r"
      },
      "pause()": {
        "notice": "Pause (overridden function)\r"
      },
      "reclaimERC20(address)": {
        "notice": "Reclaims ERC20Basic compatible tokens\r"
      },
      "reclaimETH()": {
        "notice": "Reclaims ETH\r"
      },
      "removeLockUpFromUser(address,bytes32)": {
        "notice": "Lets the admin remove a user's lock up\r"
      },
      "removeLockUpFromUserMulti(address[],bytes32[])": {
        "notice": "Use to remove the lockup for multiple users\r"
      },
      "removeLockupType(bytes32)": {
        "notice": "Used to remove the lockup type\r"
      },
      "removeLockupTypeMulti(bytes32[])": {
        "notice": "Used to remove the multiple lockup type\r"
      },
      "unpause()": {
        "notice": "Unpause (overridden function)\r"
      },
      "verifyTransfer(address,address,uint256,bytes)": {
        "notice": "Used to verify the transfer transaction and prevent locked up tokens from being transferred\r"
      }
    }
  }
}