{
  "contractName": "LockUpTransferManagerProxy",
  "abi": [
    {
      "constant": false,
      "inputs": [],
      "name": "proxyOwner",
      "outputs": [
        {
          "name": "",
          "type": "address"
        }
      ],
      "payable": false,
      "stateMutability": "nonpayable",
      "type": "function"
    },
    {
      "constant": true,
      "inputs": [],
      "name": "ADMIN",
      "outputs": [
        {
          "name": "",
          "type": "bytes32"
        }
      ],
      "payable": false,
      "stateMutability": "view",
      "type": "function"
    },
    {
      "constant": true,
      "inputs": [
        {
          "name": "",
          "type": "bytes32"
        }
      ],
      "name": "lockups",
      "outputs": [
        {
          "name": "lockupAmount",
          "type": "uint256"
        },
        {
          "name": "startTime",
          "type": "uint256"
        },
        {
          "name": "lockUpPeriodSeconds",
          "type": "uint256"
        },
        {
          "name": "releaseFrequencySeconds",
          "type": "uint256"
        }
      ],
      "payable": false,
      "stateMutability": "view",
      "type": "function"
    },
    {
      "constant": false,
      "inputs": [],
      "name": "version",
      "outputs": [
        {
          "name": "",
          "type": "string"
        }
      ],
      "payable": false,
      "stateMutability": "nonpayable",
      "type": "function"
    },
    {
      "constant": false,
      "inputs": [
        {
          "name": "_newVersion",
          "type": "string"
        },
        {
          "name": "_newImplementation",
          "type": "address"
        }
      ],
      "name": "upgradeTo",
      "outputs": [],
      "payable": false,
      "stateMutability": "nonpayable",
      "type": "function"
    },
    {
      "constant": false,
      "inputs": [],
      "name": "implementation",
      "outputs": [
        {
          "name": "",
          "type": "address"
        }
      ],
      "payable": false,
      "stateMutability": "nonpayable",
      "type": "function"
    },
    {
      "constant": true,
      "inputs": [],
      "name": "paused",
      "outputs": [
        {
          "name": "",
          "type": "bool"
        }
      ],
      "payable": false,
      "stateMutability": "view",
      "type": "function"
    },
    {
      "constant": true,
      "inputs": [],
      "name": "polyToken",
      "outputs": [
        {
          "name": "",
          "type": "address"
        }
      ],
      "payable": false,
      "stateMutability": "view",
      "type": "function"
    },
    {
      "constant": false,
      "inputs": [
        {
          "name": "_newVersion",
          "type": "string"
        },
        {
          "name": "_newImplementation",
          "type": "address"
        },
        {
          "name": "_data",
          "type": "bytes"
        }
      ],
      "name": "upgradeToAndCall",
      "outputs": [],
      "payable": true,
      "stateMutability": "payable",
      "type": "function"
    },
    {
      "constant": true,
      "inputs": [],
      "name": "OPERATOR",
      "outputs": [
        {
          "name": "",
          "type": "bytes32"
        }
      ],
      "payable": false,
      "stateMutability": "view",
      "type": "function"
    },
    {
      "constant": true,
      "inputs": [],
      "name": "securityToken",
      "outputs": [
        {
          "name": "",
          "type": "address"
        }
      ],
      "payable": false,
      "stateMutability": "view",
      "type": "function"
    },
    {
      "constant": true,
      "inputs": [],
      "name": "factory",
      "outputs": [
        {
          "name": "",
          "type": "address"
        }
      ],
      "payable": false,
      "stateMutability": "view",
      "type": "function"
    },
    {
      "constant": false,
      "inputs": [
        {
          "name": "_newOwner",
          "type": "address"
        }
      ],
      "name": "transferProxyOwnership",
      "outputs": [],
      "payable": false,
      "stateMutability": "nonpayable",
      "type": "function"
    },
    {
      "inputs": [
        {
          "name": "_version",
          "type": "string"
        },
        {
          "name": "_securityToken",
          "type": "address"
        },
        {
          "name": "_polyAddress",
          "type": "address"
        },
        {
          "name": "_implementation",
          "type": "address"
        }
      ],
      "payable": false,
      "stateMutability": "nonpayable",
      "type": "constructor"
    },
    {
      "payable": true,
      "stateMutability": "payable",
      "type": "fallback"
    },
    {
      "anonymous": false,
      "inputs": [
        {
          "indexed": false,
          "name": "_previousOwner",
          "type": "address"
        },
        {
          "indexed": false,
          "name": "_newOwner",
          "type": "address"
        }
      ],
      "name": "ProxyOwnershipTransferred",
      "type": "event"
    },
    {
      "anonymous": false,
      "inputs": [
        {
          "indexed": false,
          "name": "_newVersion",
          "type": "string"
        },
        {
          "indexed": true,
          "name": "_newImplementation",
          "type": "address"
        }
      ],
      "name": "Upgraded",
      "type": "event"
    },
    {
      "anonymous": false,
      "inputs": [
        {
          "indexed": false,
          "name": "account",
          "type": "address"
        }
      ],
      "name": "Pause",
      "type": "event"
    },
    {
      "anonymous": false,
      "inputs": [
        {
          "indexed": false,
          "name": "account",
          "type": "address"
        }
      ],
      "name": "Unpause",
      "type": "event"
    }
  ],
  "bytecode": "0x608060405260088054600160a01b60ff02191690553480156200002157600080fd5b506040516200152f3803806200152f833981018060405260808110156200004757600080fd5b8101908080516401000000008111156200006057600080fd5b820160208101848111156200007457600080fd5b81516401000000008111828201871017156200008f57600080fd5b50506020808301516040840151606090940151600780546001600160a01b038085166001600160a01b03199283161790925560068054821633908117909155600880549389169390921692909217905593965090945091620000f59162000172811b901c565b6001600160a01b03811662000156576040517f08c379a0000000000000000000000000000000000000000000000000000000008152600401808060200182810382526027815260200180620014876027913960400191505060405180910390fd5b6200016884826200020a60201b60201c565b505050506200062c565b6001600160a01b038116620001e857604080517f08c379a000000000000000000000000000000000000000000000000000000000815260206004820152601860248201527f416464726573732073686f756c64206e6f742062652030780000000000000000604482015290519081900360640190fd5b600b80546001600160a01b0319166001600160a01b0392909216919091179055565b600a546001600160a01b038281169116148015906200023157506001600160a01b03811615155b62000288576040517f08c379a0000000000000000000000000000000000000000000000000000000008152600401808060200182810382526046815260200180620014ae6046913960600191505060405180910390fd5b6200029e816200058160201b62000c831760201c565b620002f5576040517f08c379a000000000000000000000000000000000000000000000000000000000815260040180806020018281038252603b815260200180620014f4603b913960400191505060405180910390fd5b600082511162000351576040517f08c379a0000000000000000000000000000000000000000000000000000000008152600401808060200182810382526022815260200180620014656022913960400191505060405180910390fd5b816040516020018082805190602001908083835b60208310620003865780518252601f19909201916020918201910162000365565b6001836020036101000a0380198251168184511680821785525050505050509050019150506040516020818303038152906040528051906020012060096040516020018082805460018160011615610100020316600290048015620004255780601f106200040257610100808354040283529182019162000425565b820191906000526020600020905b81548152906001019060200180831162000410575b5050915050604051602081830303815290604052805190602001201415620004ae57604080517f08c379a000000000000000000000000000000000000000000000000000000000815260206004820152601d60248201527f4e65772076657273696f6e20657175616c7320746f2063757272656e74000000604482015290519081900360640190fd5b8151620004c390600990602085019062000587565b50600a80546001600160a01b0319166001600160a01b03831690811790915560408051602080825285518183015285517f8e05e0e35ff592971ca8b477d4285a33a61ded208d644042667b78693a472f5e938793928392918301919085019080838360005b838110156200054257818101518382015260200162000528565b50505050905090810190601f168015620005705780820380516001836020036101000a031916815260200191505b509250505060405180910390a25050565b3b151590565b828054600181600116156101000203166002900490600052602060002090601f016020900481019282601f10620005ca57805160ff1916838001178555620005fa565b82800160010185558215620005fa579182015b82811115620005fa578251825591602001919060010190620005dd565b50620006089291506200060c565b5090565b6200062991905b8082111562000608576000815560010162000613565b90565b610e29806200063c6000396000f3fe6080604052600436106100c25760003560e01c80635c975abb1161007f578063983d273711610059578063983d2737146103a6578063b84dfbd2146103bb578063c45a0155146103d0578063f1739cae146103e5576100c2565b80635c975abb146102995780636faa22a5146102c2578063958a41dd146102d7576100c2565b8063025313a2146100cc5780632a0acc6a146100fd578063346cfccc1461012457806354fd4d50146101745780635a8b1a9f146101fe5780635c60da1b14610284575b6100ca610418565b005b3480156100d857600080fd5b506100e161042a565b604080516001600160a01b039092168252519081900360200190f35b34801561010957600080fd5b50610112610467565b60408051918252519081900360200190f35b34801561013057600080fd5b5061014e6004803603602081101561014757600080fd5b5035610476565b604080519485526020850193909352838301919091526060830152519081900360800190f35b34801561018057600080fd5b5061018961049d565b6040805160208082528351818301528351919283929083019185019080838360005b838110156101c35781810151838201526020016101ab565b50505050905090810190601f1680156101f05780820380516001836020036101000a031916815260200191505b509250505060405180910390f35b34801561020a57600080fd5b506100ca6004803603604081101561022157600080fd5b81019060208101813564010000000081111561023c57600080fd5b82018360208201111561024e57600080fd5b8035906020019184600183028401116401000000008311171561027057600080fd5b9193509150356001600160a01b0316610552565b34801561029057600080fd5b506100e16105c6565b3480156102a557600080fd5b506102ae6105f1565b604080519115158252519081900360200190f35b3480156102ce57600080fd5b506100e1610601565b6100ca600480360360608110156102ed57600080fd5b81019060208101813564010000000081111561030857600080fd5b82018360208201111561031a57600080fd5b8035906020019184600183028401116401000000008311171561033c57600080fd5b919390926001600160a01b038335169260408101906020013564010000000081111561036757600080fd5b82018360208201111561037957600080fd5b8035906020019184600183028401116401000000008311171561039b57600080fd5b509092509050610610565b3480156103b257600080fd5b506101126106ba565b3480156103c757600080fd5b506100e16106cc565b3480156103dc57600080fd5b506100e16106db565b3480156103f157600080fd5b506100ca6004803603602081101561040857600080fd5b50356001600160a01b03166106ea565b6104286104236107cd565b6107dc565b565b6000610434610800565b6001600160a01b0316336001600160a01b0316141561045c57610455610800565b9050610464565b610464610418565b90565b600160d91b6420a226a4a70281565b60006020819052908152604090208054600182015460028301546003909301549192909184565b60606104a7610800565b6001600160a01b0316336001600160a01b0316141561045c576009805460408051602060026001851615610100026000190190941693909304601f810184900484028201840190925281815292918301828280156105465780601f1061051b57610100808354040283529160200191610546565b820191906000526020600020905b81548152906001019060200180831161052957829003601f168201915b50505050509050610464565b61055a610800565b6001600160a01b0316336001600160a01b031614156105b9576105b483838080601f01602080910402602001604051908101604052809392919081815260200183838082843760009201919091525085925061080f915050565b6105c1565b6105c1610418565b505050565b60006105d0610800565b6001600160a01b0316336001600160a01b0316141561045c576104556107cd565b600854600160a01b900460ff1681565b6008546001600160a01b031681565b610618610800565b6001600160a01b0316336001600160a01b031614156106ab576106a685858080601f01602080910402602001604051908101604052809392919081815260200183838082843760009201919091525050604080516020601f880181900481028201810190925286815288935091508690869081908401838280828437600092019190915250610b0a92505050565b6106b3565b6106b3610418565b5050505050565b600160c11b6727a822a920aa27a90281565b6007546001600160a01b031681565b6006546001600160a01b031681565b6106f2610800565b6001600160a01b0316336001600160a01b031614156107c2576001600160a01b0381166107695760408051600160e51b62461bcd02815260206004820152601860248201527f416464726573732073686f756c64206e6f742062652030780000000000000000604482015290519081900360640190fd5b7f5a3e66efaa1e445ebd894728a69d6959842ea1e97bd79b892797106e270efcd9610792610800565b604080516001600160a01b03928316815291841660208301528051918290030190a16107bd81610c03565b6107ca565b6107ca610418565b50565b600a546001600160a01b031690565b3660008037600080366000845af43d6000803e8080156107fb573d6000f35b3d6000fd5b600b546001600160a01b031690565b600a546001600160a01b0382811691161480159061083557506001600160a01b03811615155b61087357604051600160e51b62461bcd028152600401808060200182810382526046815260200180610d7d6046913960600191505060405180910390fd5b61087c81610c83565b6108ba57604051600160e51b62461bcd02815260040180806020018281038252603b815260200180610dc3603b913960400191505060405180910390fd5b60008251116108fd57604051600160e51b62461bcd028152600401808060200182810382526022815260200180610d226022913960400191505060405180910390fd5b816040516020018082805190602001908083835b602083106109305780518252601f199092019160209182019101610911565b6001836020036101000a03801982511681845116808217855250505050505090500191505060405160208183030381529060405280519060200120600960405160200180828054600181600116156101000203166002900480156109cb5780601f106109a95761010080835404028352918201916109cb565b820191906000526020600020905b8154815290600101906020018083116109b7575b5050915050604051602081830303815290604052805190602001201415610a3c5760408051600160e51b62461bcd02815260206004820152601d60248201527f4e65772076657273696f6e20657175616c7320746f2063757272656e74000000604482015290519081900360640190fd5b8151610a4f906009906020850190610c89565b50600a80546001600160a01b0319166001600160a01b03831690811790915560408051602080825285518183015285517f8e05e0e35ff592971ca8b477d4285a33a61ded208d644042667b78693a472f5e938793928392918301919085019080838360005b83811015610acc578181015183820152602001610ab4565b50505050905090810190601f168015610af95780820380516001836020036101000a031916815260200191505b509250505060405180910390a25050565b610b14838361080f565b6000306001600160a01b031634836040518082805190602001908083835b60208310610b515780518252601f199092019160209182019101610b32565b6001836020036101000a03801982511681845116808217855250505050505090500191505060006040518083038185875af1925050503d8060008114610bb3576040519150601f19603f3d011682016040523d82523d6000602084013e610bb8565b606091505b50508091505080610bfd57604051600160e51b62461bcd028152600401808060200182810382526039815260200180610d446039913960400191505060405180910390fd5b50505050565b6001600160a01b038116610c615760408051600160e51b62461bcd02815260206004820152601860248201527f416464726573732073686f756c64206e6f742062652030780000000000000000604482015290519081900360640190fd5b600b80546001600160a01b0319166001600160a01b0392909216919091179055565b3b151590565b828054600181600116156101000203166002900490600052602060002090601f016020900481019282601f10610cca57805160ff1916838001178555610cf7565b82800160010185558215610cf7579182015b82811115610cf7578251825591602001919060010190610cdc565b50610d03929150610d07565b5090565b61046491905b80821115610d035760008155600101610d0d56fe56657273696f6e2073686f756c64206e6f7420626520656d70747920737472696e674661696c20696e20657865637574696e67207468652066756e6374696f6e206f6620696d706c656d656e746174696f6e20636f6e74726163744f6c642061646472657373206973206e6f7420616c6c6f77656420616e6420696d706c656d656e746174696f6e20616464726573732073686f756c64206e6f7420626520307843616e6e6f742073657420612070726f787920696d706c656d656e746174696f6e20746f2061206e6f6e2d636f6e74726163742061646472657373a165627a7a72305820934cdbbbc97d2078e826e6fb271b177f0af1b35190b5c2ac7611dd51f92973f7002956657273696f6e2073686f756c64206e6f7420626520656d70747920737472696e67496d706c656d656e746174696f6e20616464726573732073686f756c64206e6f742062652030784f6c642061646472657373206973206e6f7420616c6c6f77656420616e6420696d706c656d656e746174696f6e20616464726573732073686f756c64206e6f7420626520307843616e6e6f742073657420612070726f787920696d706c656d656e746174696f6e20746f2061206e6f6e2d636f6e74726163742061646472657373",
  "source": "pragma solidity 0.5.8;\r\n\r\nimport \"./LockUpTransferManagerStorage.sol\";\r\nimport \"../../../proxy/OwnedUpgradeabilityProxy.sol\";\r\nimport \"../../../Pausable.sol\";\r\nimport \"../../../storage/modules/ModuleStorage.sol\";\r\n\r\n/**\r\n * @title CountTransferManager module Proxy\r\n */\r\ncontract LockUpTransferManagerProxy is LockUpTransferManagerStorage, ModuleStorage, Pausable, OwnedUpgradeabilityProxy {\r\n\r\n    /**\r\n    * @notice Constructor\r\n    * @param _securityToken Address of the security token\r\n    * @param _polyAddress Address of the polytoken\r\n    * @param _implementation representing the address of the new implementation to be set\r\n    */\r\n    constructor (\r\n        string memory _version,\r\n        address _securityToken,\r\n        address _polyAddress,\r\n        address _implementation\r\n    )\r\n        public\r\n        ModuleStorage(_securityToken, _polyAddress)\r\n    {\r\n        require(\r\n            _implementation != address(0),\r\n            \"Implementation address should not be 0x\"\r\n        );\r\n        _upgradeTo(_version, _implementation);\r\n    }\r\n\r\n}\r\n",
  "sourcePath": "C:\\mspace\\polymath-core\\contracts\\modules\\TransferManager\\LTM\\LockUpTransferManagerProxy.sol",
  "compiler": {
    "name": "solc",
    "version": "0.5.8+commit.23d335f2.Emscripten.clang"
  },
  "schemaVersion": "3.0.11",
  "updatedAt": "2019-08-05T22:52:46.897Z",
  "devdoc": {
    "methods": {
      "constructor": {
        "params": {
          "_implementation": "representing the address of the new implementation to be set\r",
          "_polyAddress": "Address of the polytoken\r",
          "_securityToken": "Address of the security token\r"
        }
      },
      "implementation()": {
        "details": "Tells the address of the current implementation\r",
        "return": "address of the current implementation\r"
      },
      "proxyOwner()": {
        "details": "Tells the address of the proxy owner\r",
        "return": "the address of the proxy owner\r"
      },
      "transferProxyOwnership(address)": {
        "details": "Allows the current owner to transfer control of the contract to a newOwner.\r",
        "params": {
          "_newOwner": "The address to transfer ownership to.\r"
        }
      },
      "upgradeTo(string,address)": {
        "details": "Allows the upgradeability owner to upgrade the current version of the proxy.\r",
        "params": {
          "_newImplementation": "representing the address of the new implementation to be set.\r",
          "_newVersion": "representing the version name of the new implementation to be set.\r"
        }
      },
      "upgradeToAndCall(string,address,bytes)": {
        "details": "Allows the upgradeability owner to upgrade the current version of the proxy and call the new implementation\r to initialize whatever is needed through a low level call.\r",
        "params": {
          "_data": "represents the msg.data to bet sent in the low level call. This parameter may include the function\r signature of the implementation to be called with the needed payload\r",
          "_newImplementation": "representing the address of the new implementation to be set.\r",
          "_newVersion": "representing the version name of the new implementation to be set.\r"
        }
      },
      "version()": {
        "details": "Tells the version name of the current implementation\r",
        "return": "string representing the name of the current version\r"
      }
    },
    "title": "CountTransferManager module Proxy\r"
  },
  "userdoc": {
    "methods": {
      "constructor": "Constructor\r"
    }
  }
}