{
  "contractName": "MakerDAOOracle",
  "abi": [
    {
      "constant": true,
      "inputs": [],
      "name": "medianizer",
      "outputs": [
        {
          "name": "",
          "type": "address"
        }
      ],
      "payable": false,
      "stateMutability": "view",
      "type": "function"
    },
    {
      "constant": true,
      "inputs": [],
      "name": "currencyAddress",
      "outputs": [
        {
          "name": "",
          "type": "address"
        }
      ],
      "payable": false,
      "stateMutability": "view",
      "type": "function"
    },
    {
      "constant": false,
      "inputs": [],
      "name": "renounceOwnership",
      "outputs": [],
      "payable": false,
      "stateMutability": "nonpayable",
      "type": "function"
    },
    {
      "constant": true,
      "inputs": [],
      "name": "owner",
      "outputs": [
        {
          "name": "",
          "type": "address"
        }
      ],
      "payable": false,
      "stateMutability": "view",
      "type": "function"
    },
    {
      "constant": true,
      "inputs": [],
      "name": "isOwner",
      "outputs": [
        {
          "name": "",
          "type": "bool"
        }
      ],
      "payable": false,
      "stateMutability": "view",
      "type": "function"
    },
    {
      "constant": true,
      "inputs": [],
      "name": "currencySymbol",
      "outputs": [
        {
          "name": "",
          "type": "bytes32"
        }
      ],
      "payable": false,
      "stateMutability": "view",
      "type": "function"
    },
    {
      "constant": true,
      "inputs": [],
      "name": "manualPrice",
      "outputs": [
        {
          "name": "",
          "type": "uint256"
        }
      ],
      "payable": false,
      "stateMutability": "view",
      "type": "function"
    },
    {
      "constant": true,
      "inputs": [],
      "name": "manualOverride",
      "outputs": [
        {
          "name": "",
          "type": "bool"
        }
      ],
      "payable": false,
      "stateMutability": "view",
      "type": "function"
    },
    {
      "constant": false,
      "inputs": [
        {
          "name": "newOwner",
          "type": "address"
        }
      ],
      "name": "transferOwnership",
      "outputs": [],
      "payable": false,
      "stateMutability": "nonpayable",
      "type": "function"
    },
    {
      "inputs": [
        {
          "name": "_medianizer",
          "type": "address"
        },
        {
          "name": "_currencyAddress",
          "type": "address"
        },
        {
          "name": "_currencySymbol",
          "type": "bytes32"
        }
      ],
      "payable": false,
      "stateMutability": "nonpayable",
      "type": "constructor"
    },
    {
      "anonymous": false,
      "inputs": [
        {
          "indexed": false,
          "name": "_newMedianizer",
          "type": "address"
        },
        {
          "indexed": false,
          "name": "_oldMedianizer",
          "type": "address"
        }
      ],
      "name": "ChangeMedianizer",
      "type": "event"
    },
    {
      "anonymous": false,
      "inputs": [
        {
          "indexed": false,
          "name": "_oldPrice",
          "type": "uint256"
        },
        {
          "indexed": false,
          "name": "_newPrice",
          "type": "uint256"
        }
      ],
      "name": "SetManualPrice",
      "type": "event"
    },
    {
      "anonymous": false,
      "inputs": [
        {
          "indexed": false,
          "name": "_override",
          "type": "bool"
        }
      ],
      "name": "SetManualOverride",
      "type": "event"
    },
    {
      "anonymous": false,
      "inputs": [
        {
          "indexed": true,
          "name": "previousOwner",
          "type": "address"
        },
        {
          "indexed": true,
          "name": "newOwner",
          "type": "address"
        }
      ],
      "name": "OwnershipTransferred",
      "type": "event"
    },
    {
      "constant": false,
      "inputs": [
        {
          "name": "_medianizer",
          "type": "address"
        }
      ],
      "name": "changeMedianier",
      "outputs": [],
      "payable": false,
      "stateMutability": "nonpayable",
      "type": "function"
    },
    {
      "constant": true,
      "inputs": [],
      "name": "getCurrencyAddress",
      "outputs": [
        {
          "name": "",
          "type": "address"
        }
      ],
      "payable": false,
      "stateMutability": "view",
      "type": "function"
    },
    {
      "constant": true,
      "inputs": [],
      "name": "getCurrencySymbol",
      "outputs": [
        {
          "name": "",
          "type": "bytes32"
        }
      ],
      "payable": false,
      "stateMutability": "view",
      "type": "function"
    },
    {
      "constant": true,
      "inputs": [],
      "name": "getCurrencyDenominated",
      "outputs": [
        {
          "name": "",
          "type": "bytes32"
        }
      ],
      "payable": false,
      "stateMutability": "view",
      "type": "function"
    },
    {
      "constant": false,
      "inputs": [],
      "name": "getPrice",
      "outputs": [
        {
          "name": "",
          "type": "uint256"
        }
      ],
      "payable": false,
      "stateMutability": "nonpayable",
      "type": "function"
    },
    {
      "constant": false,
      "inputs": [
        {
          "name": "_price",
          "type": "uint256"
        }
      ],
      "name": "setManualPrice",
      "outputs": [],
      "payable": false,
      "stateMutability": "nonpayable",
      "type": "function"
    },
    {
      "constant": false,
      "inputs": [
        {
          "name": "_override",
          "type": "bool"
        }
      ],
      "name": "setManualOverride",
      "outputs": [],
      "payable": false,
      "stateMutability": "nonpayable",
      "type": "function"
    }
  ],
  "bytecode": "0x608060405234801561001057600080fd5b5060405160608061070a8339810180604052606081101561003057600080fd5b5080516020820151604092830151600080546001600160a01b031916331780825594519394929391926001600160a01b0316917f8be0079c531659141344cd1fd0a4f28419497f9722a3daafe3b4186f6b6457e0908290a3600180546001600160a01b039485166001600160a01b0319918216179091556002805493909416921691909117909155600355610640806100ca6000396000f3fe608060405234801561001057600080fd5b50600436106101005760003560e01c806398d5fdca11610097578063d265421911610066578063d2654219146101c0578063d7a71868146101c8578063f15d775d146101e5578063f2fde38b1461020b57610100565b806398d5fdca146101a0578063a2c9d630146101a8578063bae6d62b146101b0578063bfe0c27e146101b857610100565b8063715018a6116100d3578063715018a61461016c5780638da5cb5b146101745780638f32d59b1461017c578063968c42091461019857610100565b8063053571e1146101055780631c1cb3231461012957806335967501146101315780635dfc09a414610152575b600080fd5b61010d610231565b604080516001600160a01b039092168252519081900360200190f35b61010d610240565b6101506004803603602081101561014757600080fd5b5035151561024f565b005b61015a6102a7565b60408051918252519081900360200190f35b6101506102ae565b61010d610309565b610184610318565b604080519115158252519081900360200190f35b61015a610329565b61015a61032f565b61015a61040b565b610184610411565b61010d61041a565b61015a610429565b610150600480360360208110156101de57600080fd5b5035610436565b610150600480360360208110156101fb57600080fd5b50356001600160a01b0316610489565b6101506004803603602081101561022157600080fd5b50356001600160a01b0316610562565b6001546001600160a01b031681565b6002546001600160a01b031681565b610257610318565b61026057600080fd5b6004805482151560ff19909116811790915560408051918252517f04baa8606d8ce0d9f3ff26f474e838ccfdb363859c901d90d3e6a28011e6a9319181900360200190a150565b6003545b90565b6102b6610318565b6102bf57600080fd5b600080546040516001600160a01b03909116907f8be0079c531659141344cd1fd0a4f28419497f9722a3daafe3b4186f6b6457e0908390a3600080546001600160a01b0319169055565b6000546001600160a01b031690565b6000546001600160a01b0316331490565b60035481565b60045460009060ff161561034657506005546102ab565b60015460408051600160e01b6359e02dd7028152815160009384936001600160a01b03909116926359e02dd79260048083019392829003018186803b15801561038e57600080fd5b505afa1580156103a2573d6000803e3d6000fd5b505050506040513d60408110156103b857600080fd5b50805160209091015190925090508061040557604051600160e51b62461bcd0281526004018080602001828103825260278152602001806105ee6027913960400191505060405180910390fd5b50905090565b60055481565b60045460ff1681565b6002546001600160a01b031690565b600160ea1b621554d10290565b61043e610318565b61044757600080fd5b600554604080519182526020820183905280517ff9343160604fb51d6335273e181102962862d3c22bd3b94394f0a6f5c6bebbcc9281900390910190a1600555565b610491610318565b61049a57600080fd5b6001600160a01b0381166104f85760408051600160e51b62461bcd02815260206004820152600e60248201527f3078206e6f7420616c6c6f776564000000000000000000000000000000000000604482015290519081900360640190fd5b600154604080516001600160a01b038085168252909216602083015280517f0eae8531a8a5c537ebe2400c5c091047153c373706ff90a50acf3bdf25891e5f9281900390910190a1600180546001600160a01b0319166001600160a01b0392909216919091179055565b61056a610318565b61057357600080fd5b61057c8161057f565b50565b6001600160a01b03811661059257600080fd5b600080546040516001600160a01b03808516939216917f8be0079c531659141344cd1fd0a4f28419497f9722a3daafe3b4186f6b6457e091a3600080546001600160a01b0319166001600160a01b039290921691909117905556fe4d616b657244414f204f7261636c652072657475726e696e6720696e76616c69642076616c7565a165627a7a7230582072503e7eddb6c556f42562ce15af64fab35b77934b93249ec9812821cd2a71ee0029",
  "source": "pragma solidity 0.5.8;\r\n\r\nimport \"../interfaces/IOracle.sol\";\r\nimport \"../external/IMedianizer.sol\";\r\nimport \"openzeppelin-solidity/contracts/ownership/Ownable.sol\";\r\n\r\ncontract MakerDAOOracle is IOracle, Ownable {\r\n    IMedianizer public medianizer;\r\n    address public currencyAddress;\r\n    bytes32 public currencySymbol;\r\n\r\n    bool public manualOverride;\r\n    uint256 public manualPrice;\r\n\r\n    /*solium-disable-next-line security/no-block-members*/\r\n    event ChangeMedianizer(address _newMedianizer, address _oldMedianizer);\r\n    event SetManualPrice(uint256 _oldPrice, uint256 _newPrice);\r\n    event SetManualOverride(bool _override);\r\n\r\n    /**\r\n      * @notice Creates a new Maker based oracle\r\n      * @param _medianizer Address of Maker medianizer\r\n      * @param _currencyAddress Address of currency (0x0 for ETH)\r\n      * @param _currencySymbol Symbol of currency\r\n      */\r\n    constructor(address _medianizer, address _currencyAddress, bytes32 _currencySymbol) public {\r\n        medianizer = IMedianizer(_medianizer);\r\n        currencyAddress = _currencyAddress;\r\n        currencySymbol = _currencySymbol;\r\n    }\r\n\r\n    /**\r\n      * @notice Updates medianizer address\r\n      * @param _medianizer Address of Maker medianizer\r\n      */\r\n    function changeMedianier(address _medianizer) public onlyOwner {\r\n        require(_medianizer != address(0), \"0x not allowed\");\r\n        /*solium-disable-next-line security/no-block-members*/\r\n        emit ChangeMedianizer(_medianizer, address(medianizer));\r\n        medianizer = IMedianizer(_medianizer);\r\n    }\r\n\r\n    /**\r\n    * @notice Returns address of oracle currency (0x0 for ETH)\r\n    */\r\n    function getCurrencyAddress() external view returns(address) {\r\n        return currencyAddress;\r\n    }\r\n\r\n    /**\r\n    * @notice Returns symbol of oracle currency (0x0 for ETH)\r\n    */\r\n    function getCurrencySymbol() external view returns(bytes32) {\r\n        return currencySymbol;\r\n    }\r\n\r\n    /**\r\n    * @notice Returns denomination of price\r\n    */\r\n    function getCurrencyDenominated() external view returns(bytes32) {\r\n        // All MakerDAO oracles are denominated in USD\r\n        return bytes32(\"USD\");\r\n    }\r\n\r\n    /**\r\n    * @notice Returns price - should throw if not valid\r\n    */\r\n    function getPrice() external returns(uint256) {\r\n        if (manualOverride) {\r\n            return manualPrice;\r\n        }\r\n        (bytes32 price, bool valid) = medianizer.peek();\r\n        require(valid, \"MakerDAO Oracle returning invalid value\");\r\n        return uint256(price);\r\n    }\r\n\r\n    /**\r\n      * @notice Set a manual price. NA - this will only be used if manualOverride == true\r\n      * @param _price Price to set\r\n      */\r\n    function setManualPrice(uint256 _price) public onlyOwner {\r\n        /*solium-disable-next-line security/no-block-members*/\r\n        emit SetManualPrice(manualPrice, _price);\r\n        manualPrice = _price;\r\n    }\r\n\r\n    /**\r\n      * @notice Determine whether manual price is used or not\r\n      * @param _override Whether to use the manual override price or not\r\n      */\r\n    function setManualOverride(bool _override) public onlyOwner {\r\n        manualOverride = _override;\r\n        /*solium-disable-next-line security/no-block-members*/\r\n        emit SetManualOverride(_override);\r\n    }\r\n\r\n}\r\n",
  "sourcePath": "C:/mspace/polymath-core/contracts/oracles/MakerDAOOracle.sol",
  "compiler": {
    "name": "solc",
    "version": "0.5.8+commit.23d335f2.Emscripten.clang"
  },
  "schemaVersion": "3.0.11",
  "updatedAt": "2019-08-05T12:37:19.616Z",
  "devdoc": {
    "methods": {
      "changeMedianier(address)": {
        "params": {
          "_medianizer": "Address of Maker medianizer\r"
        }
      },
      "constructor": {
        "params": {
          "_currencyAddress": "Address of currency (0x0 for ETH)\r",
          "_currencySymbol": "Symbol of currency\r",
          "_medianizer": "Address of Maker medianizer\r"
        }
      },
      "isOwner()": {
        "return": "true if `msg.sender` is the owner of the contract."
      },
      "owner()": {
        "return": "the address of the owner."
      },
      "renounceOwnership()": {
        "details": "Allows the current owner to relinquish control of the contract. It will not be possible to call the functions with the `onlyOwner` modifier anymore."
      },
      "setManualOverride(bool)": {
        "params": {
          "_override": "Whether to use the manual override price or not\r"
        }
      },
      "setManualPrice(uint256)": {
        "params": {
          "_price": "Price to set\r"
        }
      },
      "transferOwnership(address)": {
        "details": "Allows the current owner to transfer control of the contract to a newOwner.",
        "params": {
          "newOwner": "The address to transfer ownership to."
        }
      }
    }
  },
  "userdoc": {
    "methods": {
      "changeMedianier(address)": {
        "notice": "Updates medianizer address\r"
      },
      "constructor": "Creates a new Maker based oracle\r",
      "getCurrencyAddress()": {
        "notice": "Returns address of oracle currency (0x0 for ETH)\r"
      },
      "getCurrencyDenominated()": {
        "notice": "Returns denomination of price\r"
      },
      "getCurrencySymbol()": {
        "notice": "Returns symbol of oracle currency (0x0 for ETH)\r"
      },
      "getPrice()": {
        "notice": "Returns price - should throw if not valid\r"
      },
      "renounceOwnership()": {
        "notice": "Renouncing ownership will leave the contract without an owner, thereby removing any functionality that is only available to the owner."
      },
      "setManualOverride(bool)": {
        "notice": "Determine whether manual price is used or not\r"
      },
      "setManualPrice(uint256)": {
        "notice": "Set a manual price. NA - this will only be used if manualOverride == true\r"
      }
    }
  }
}