{
  "contractName": "ManualApprovalTransferManagerStorage",
  "abi": [
    {
      "constant": true,
      "inputs": [
        {
          "name": "",
          "type": "address"
        },
        {
          "name": "",
          "type": "address"
        }
      ],
      "name": "approvalIndex",
      "outputs": [
        {
          "name": "",
          "type": "uint256"
        }
      ],
      "payable": false,
      "stateMutability": "view",
      "type": "function"
    },
    {
      "constant": true,
      "inputs": [
        {
          "name": "",
          "type": "uint256"
        }
      ],
      "name": "approvals",
      "outputs": [
        {
          "name": "from",
          "type": "address"
        },
        {
          "name": "to",
          "type": "address"
        },
        {
          "name": "allowance",
          "type": "uint256"
        },
        {
          "name": "expiryTime",
          "type": "uint256"
        },
        {
          "name": "description",
          "type": "bytes32"
        }
      ],
      "payable": false,
      "stateMutability": "view",
      "type": "function"
    }
  ],
  "bytecode": "0x608060405234801561001057600080fd5b5061015f806100206000396000f3fe608060405234801561001057600080fd5b50600436106100365760003560e01c80635e6ebfc51461003b57806363035f661461007b575b600080fd5b6100696004803603604081101561005157600080fd5b506001600160a01b03813581169160200135166100cf565b60408051918252519081900360200190f35b6100986004803603602081101561009157600080fd5b50356100e9565b604080516001600160a01b039687168152949095166020850152838501929092526060830152608082015290519081900360a00190f35b600060208181529281526040808220909352908152205481565b600181815481106100f657fe5b6000918252602090912060059091020180546001820154600283015460038401546004909401546001600160a01b0393841695509190921692908556fea165627a7a723058206a7a6b96f2d43b7db9fb5cc77ffc556312b6cf967a936c35b033d49e47d24d670029",
  "source": "pragma solidity 0.5.8;\r\n\r\n/**\r\n * @title Contract used to store layout for the ManualApprovalTransferManager storage\r\n */\r\ncontract ManualApprovalTransferManagerStorage {\r\n\r\n    //Manual approval is an allowance (that has been approved) with an expiry time\r\n    struct ManualApproval {\r\n        address from;\r\n        address to;\r\n        uint256 allowance;\r\n        uint256 expiryTime;\r\n        bytes32 description;\r\n    }\r\n\r\n    mapping (address => mapping (address => uint256)) public approvalIndex;\r\n\r\n    // An array to track all approvals. It is an unbounded array but it's not a problem as\r\n    // it is never looped through in an onchain call. It is defined as an Array instead of mapping\r\n    // just to make it easier for users to fetch list of all approvals through constant functions.\r\n    ManualApproval[] public approvals;\r\n\r\n}\r\n",
  "sourcePath": "C:\\mspace\\polymath-core\\contracts\\modules\\TransferManager\\MATM\\ManualApprovalTransferManagerStorage.sol",
  "compiler": {
    "name": "solc",
    "version": "0.5.8+commit.23d335f2.Emscripten.clang"
  },
  "schemaVersion": "3.0.11",
  "updatedAt": "2019-08-05T22:52:46.902Z",
  "devdoc": {
    "methods": {},
    "title": "Contract used to store layout for the ManualApprovalTransferManager storage\r"
  },
  "userdoc": {
    "methods": {}
  }
}