{
  "contractName": "MockOracle",
  "abi": [
    {
      "constant": true,
      "inputs": [],
      "name": "denominatedCurrency",
      "outputs": [
        {
          "name": "",
          "type": "bytes32"
        }
      ],
      "payable": false,
      "stateMutability": "view",
      "type": "function"
    },
    {
      "constant": true,
      "inputs": [],
      "name": "currencySymbol",
      "outputs": [
        {
          "name": "",
          "type": "bytes32"
        }
      ],
      "payable": false,
      "stateMutability": "view",
      "type": "function"
    },
    {
      "constant": true,
      "inputs": [],
      "name": "price",
      "outputs": [
        {
          "name": "",
          "type": "uint256"
        }
      ],
      "payable": false,
      "stateMutability": "view",
      "type": "function"
    },
    {
      "constant": true,
      "inputs": [],
      "name": "currency",
      "outputs": [
        {
          "name": "",
          "type": "address"
        }
      ],
      "payable": false,
      "stateMutability": "view",
      "type": "function"
    },
    {
      "inputs": [
        {
          "name": "_currency",
          "type": "address"
        },
        {
          "name": "_currencySymbol",
          "type": "bytes32"
        },
        {
          "name": "_denominatedCurrency",
          "type": "bytes32"
        },
        {
          "name": "_price",
          "type": "uint256"
        }
      ],
      "payable": false,
      "stateMutability": "nonpayable",
      "type": "constructor"
    },
    {
      "constant": false,
      "inputs": [
        {
          "name": "_price",
          "type": "uint256"
        }
      ],
      "name": "changePrice",
      "outputs": [],
      "payable": false,
      "stateMutability": "nonpayable",
      "type": "function"
    },
    {
      "constant": true,
      "inputs": [],
      "name": "getCurrencyAddress",
      "outputs": [
        {
          "name": "",
          "type": "address"
        }
      ],
      "payable": false,
      "stateMutability": "view",
      "type": "function"
    },
    {
      "constant": true,
      "inputs": [],
      "name": "getCurrencySymbol",
      "outputs": [
        {
          "name": "",
          "type": "bytes32"
        }
      ],
      "payable": false,
      "stateMutability": "view",
      "type": "function"
    },
    {
      "constant": true,
      "inputs": [],
      "name": "getCurrencyDenominated",
      "outputs": [
        {
          "name": "",
          "type": "bytes32"
        }
      ],
      "payable": false,
      "stateMutability": "view",
      "type": "function"
    },
    {
      "constant": false,
      "inputs": [],
      "name": "getPrice",
      "outputs": [
        {
          "name": "",
          "type": "uint256"
        }
      ],
      "payable": false,
      "stateMutability": "nonpayable",
      "type": "function"
    }
  ],
  "bytecode": "0x608060405234801561001057600080fd5b506040516080806102188339810180604052608081101561003057600080fd5b50805160208201516040830151606090930151600080546001600160a01b039094166001600160a01b031990941693909317909255600155600291909155600355610198806100806000396000f3fe608060405234801561001057600080fd5b50600436106100935760003560e01c8063a035b1fe11610066578063a035b1fe146100ca578063a2b40d19146100d2578063bfe0c27e146100f1578063d265421914610115578063e5a6b10f1461011d57610093565b806325f4cead146100985780635dfc09a4146100b2578063968c4209146100ba57806398d5fdca146100c2575b600080fd5b6100a0610125565b60408051918252519081900360200190f35b6100a061012b565b6100a0610131565b6100a0610137565b6100a061013d565b6100ef600480360360208110156100e857600080fd5b5035610143565b005b6100f9610148565b604080516001600160a01b039092168252519081900360200190f35b6100a0610157565b6100f961015d565b60025481565b60015490565b60015481565b60035490565b60035481565b600355565b6000546001600160a01b031690565b60025490565b6000546001600160a01b03168156fea165627a7a723058205e81240245097bfb69e073c03c2159c469f4fa5ebdbe71754e42dacf199e43d50029",
  "source": "pragma solidity 0.5.8;\r\n\r\nimport \"../interfaces/IOracle.sol\";\r\n\r\ncontract MockOracle is IOracle {\r\n    address public currency;\r\n    bytes32 public currencySymbol;\r\n    bytes32 public denominatedCurrency;\r\n    uint256 public price;\r\n\r\n    constructor(address _currency, bytes32 _currencySymbol, bytes32 _denominatedCurrency, uint256 _price) public {\r\n        currency = _currency;\r\n        currencySymbol = _currencySymbol;\r\n        denominatedCurrency = _denominatedCurrency;\r\n        price = _price;\r\n    }\r\n\r\n    function changePrice(uint256 _price) external {\r\n        price = _price;\r\n    }\r\n\r\n    /**\r\n    * @notice Returns address of oracle currency (0x0 for ETH)\r\n    */\r\n    function getCurrencyAddress() external view returns(address) {\r\n        return currency;\r\n    }\r\n\r\n    /**\r\n    * @notice Returns symbol of oracle currency (0x0 for ETH)\r\n    */\r\n    function getCurrencySymbol() external view returns(bytes32) {\r\n        return currencySymbol;\r\n    }\r\n\r\n    /**\r\n    * @notice Returns denomination of price\r\n    */\r\n    function getCurrencyDenominated() external view returns(bytes32) {\r\n        return denominatedCurrency;\r\n    }\r\n\r\n    /**\r\n    * @notice Returns price - should throw if not valid\r\n    */\r\n    function getPrice() external returns(uint256) {\r\n        return price;\r\n    }\r\n\r\n}\r\n",
  "sourcePath": "C:/mspace/polymath-core/contracts/mocks/MockOracle.sol",
  "compiler": {
    "name": "solc",
    "version": "0.5.8+commit.23d335f2.Emscripten.clang"
  },
  "schemaVersion": "3.0.11",
  "updatedAt": "2019-08-05T22:53:44.895Z",
  "devdoc": {
    "methods": {}
  },
  "userdoc": {
    "methods": {
      "getCurrencyAddress()": {
        "notice": "Returns address of oracle currency (0x0 for ETH)\r"
      },
      "getCurrencyDenominated()": {
        "notice": "Returns denomination of price\r"
      },
      "getCurrencySymbol()": {
        "notice": "Returns symbol of oracle currency (0x0 for ETH)\r"
      },
      "getPrice()": {
        "notice": "Returns price - should throw if not valid\r"
      }
    }
  }
}