{
  "contractName": "MockSTRGetter",
  "abi": [
    {
      "constant": true,
      "inputs": [
        {
          "name": "_variable",
          "type": "bytes32"
        }
      ],
      "name": "getBytes32Value",
      "outputs": [
        {
          "name": "",
          "type": "bytes32"
        }
      ],
      "payable": false,
      "stateMutability": "view",
      "type": "function"
    },
    {
      "constant": true,
      "inputs": [],
      "name": "getExpiryLimit",
      "outputs": [
        {
          "name": "",
          "type": "uint256"
        }
      ],
      "payable": false,
      "stateMutability": "view",
      "type": "function"
    },
    {
      "constant": true,
      "inputs": [
        {
          "name": "_owner",
          "type": "address"
        }
      ],
      "name": "getTickersByOwner",
      "outputs": [
        {
          "name": "",
          "type": "bytes32[]"
        }
      ],
      "payable": false,
      "stateMutability": "view",
      "type": "function"
    },
    {
      "constant": true,
      "inputs": [
        {
          "name": "_ticker",
          "type": "string"
        }
      ],
      "name": "getTickerOwner",
      "outputs": [
        {
          "name": "",
          "type": "address"
        }
      ],
      "payable": false,
      "stateMutability": "view",
      "type": "function"
    },
    {
      "constant": true,
      "inputs": [
        {
          "name": "_owner",
          "type": "address"
        }
      ],
      "name": "getTokensByOwner",
      "outputs": [
        {
          "name": "",
          "type": "address[]"
        }
      ],
      "payable": false,
      "stateMutability": "view",
      "type": "function"
    },
    {
      "constant": true,
      "inputs": [
        {
          "name": "_variable",
          "type": "bytes32"
        }
      ],
      "name": "getBytesValue",
      "outputs": [
        {
          "name": "",
          "type": "bytes"
        }
      ],
      "payable": false,
      "stateMutability": "view",
      "type": "function"
    },
    {
      "constant": true,
      "inputs": [
        {
          "name": "_variable",
          "type": "bytes32"
        }
      ],
      "name": "getAddressValue",
      "outputs": [
        {
          "name": "",
          "type": "address"
        }
      ],
      "payable": false,
      "stateMutability": "view",
      "type": "function"
    },
    {
      "constant": true,
      "inputs": [
        {
          "name": "_ticker",
          "type": "string"
        }
      ],
      "name": "getTickerDetails",
      "outputs": [
        {
          "name": "",
          "type": "address"
        },
        {
          "name": "",
          "type": "uint256"
        },
        {
          "name": "",
          "type": "uint256"
        },
        {
          "name": "",
          "type": "string"
        },
        {
          "name": "",
          "type": "bool"
        }
      ],
      "payable": false,
      "stateMutability": "view",
      "type": "function"
    },
    {
      "constant": true,
      "inputs": [
        {
          "name": "_key",
          "type": "bytes32"
        }
      ],
      "name": "getArrayAddress",
      "outputs": [
        {
          "name": "",
          "type": "address[]"
        }
      ],
      "payable": false,
      "stateMutability": "view",
      "type": "function"
    },
    {
      "constant": true,
      "inputs": [
        {
          "name": "_ticker",
          "type": "string"
        }
      ],
      "name": "getTickerStatus",
      "outputs": [
        {
          "name": "",
          "type": "bool"
        }
      ],
      "payable": false,
      "stateMutability": "view",
      "type": "function"
    },
    {
      "constant": true,
      "inputs": [
        {
          "name": "_securityToken",
          "type": "address"
        }
      ],
      "name": "getSecurityTokenData",
      "outputs": [
        {
          "name": "",
          "type": "string"
        },
        {
          "name": "",
          "type": "address"
        },
        {
          "name": "",
          "type": "string"
        },
        {
          "name": "",
          "type": "uint256"
        }
      ],
      "payable": false,
      "stateMutability": "view",
      "type": "function"
    },
    {
      "constant": true,
      "inputs": [
        {
          "name": "_variable",
          "type": "bytes32"
        }
      ],
      "name": "getBoolValue",
      "outputs": [
        {
          "name": "",
          "type": "bool"
        }
      ],
      "payable": false,
      "stateMutability": "view",
      "type": "function"
    },
    {
      "constant": true,
      "inputs": [
        {
          "name": "_protocolVersion",
          "type": "uint256"
        }
      ],
      "name": "getSTFactoryAddressOfVersion",
      "outputs": [
        {
          "name": "",
          "type": "address"
        }
      ],
      "payable": false,
      "stateMutability": "view",
      "type": "function"
    },
    {
      "constant": true,
      "inputs": [
        {
          "name": "_variable",
          "type": "bytes32"
        }
      ],
      "name": "getStringValue",
      "outputs": [
        {
          "name": "",
          "type": "string"
        }
      ],
      "payable": false,
      "stateMutability": "view",
      "type": "function"
    },
    {
      "constant": true,
      "inputs": [
        {
          "name": "_key",
          "type": "bytes32"
        }
      ],
      "name": "getArrayBytes32",
      "outputs": [
        {
          "name": "",
          "type": "bytes32[]"
        }
      ],
      "payable": false,
      "stateMutability": "view",
      "type": "function"
    },
    {
      "constant": true,
      "inputs": [],
      "name": "getTokens",
      "outputs": [
        {
          "name": "",
          "type": "address[]"
        }
      ],
      "payable": false,
      "stateMutability": "view",
      "type": "function"
    },
    {
      "constant": true,
      "inputs": [],
      "name": "getLatestProtocolVersion",
      "outputs": [
        {
          "name": "",
          "type": "uint8[]"
        }
      ],
      "payable": false,
      "stateMutability": "view",
      "type": "function"
    },
    {
      "constant": true,
      "inputs": [
        {
          "name": "_delegate",
          "type": "address"
        }
      ],
      "name": "getTokensByDelegate",
      "outputs": [
        {
          "name": "",
          "type": "address[]"
        }
      ],
      "payable": false,
      "stateMutability": "view",
      "type": "function"
    },
    {
      "constant": true,
      "inputs": [
        {
          "name": "_variable",
          "type": "bytes32"
        }
      ],
      "name": "getUintValue",
      "outputs": [
        {
          "name": "",
          "type": "uint256"
        }
      ],
      "payable": false,
      "stateMutability": "view",
      "type": "function"
    },
    {
      "constant": true,
      "inputs": [],
      "name": "getSTFactoryAddress",
      "outputs": [
        {
          "name": "",
          "type": "address"
        }
      ],
      "payable": false,
      "stateMutability": "view",
      "type": "function"
    },
    {
      "constant": true,
      "inputs": [],
      "name": "getIsFeeInPoly",
      "outputs": [
        {
          "name": "",
          "type": "bool"
        }
      ],
      "payable": false,
      "stateMutability": "view",
      "type": "function"
    },
    {
      "constant": true,
      "inputs": [
        {
          "name": "_key",
          "type": "bytes32"
        }
      ],
      "name": "getArrayUint",
      "outputs": [
        {
          "name": "",
          "type": "uint256[]"
        }
      ],
      "payable": false,
      "stateMutability": "view",
      "type": "function"
    },
    {
      "constant": true,
      "inputs": [
        {
          "name": "_ticker",
          "type": "string"
        }
      ],
      "name": "getSecurityTokenAddress",
      "outputs": [
        {
          "name": "",
          "type": "address"
        }
      ],
      "payable": false,
      "stateMutability": "view",
      "type": "function"
    },
    {
      "constant": true,
      "inputs": [],
      "name": "newFunction",
      "outputs": [
        {
          "name": "",
          "type": "uint256"
        }
      ],
      "payable": false,
      "stateMutability": "pure",
      "type": "function"
    }
  ],
  "bytecode": "0x608060405234801561001057600080fd5b50611dc8806100206000396000f3fe608060405234801561001057600080fd5b50600436106101585760003560e01c80638ffa9690116100c3578063b70fb8b91161007c578063b70fb8b9146106fa578063e82617fb14610720578063ea4707581461073d578063f34f50b514610745578063f6fcbee11461074d578063fb621f141461076a57610158565b80638ffa969014610676578063a094a16614610693578063a209a29c146106b0578063a8f0d3a7146106cd578063aa6ca808146106ea578063af0b1a94146106f257610158565b806344bfa56e1161011557806344bfa56e146102f85780634c77e5ba1461038a57806363808bcb146103a75780636f3b8ce2146104bf5780637e388c54146104dc5780638f9bbf161461059457610158565b8063025ec81a1461015d578063165e694a1461018c5780631b28d63e1461019457806321c8ad0e1461019c578063344d7d3d1461021257806340398d67146102d2575b600080fd5b61017a6004803603602081101561017357600080fd5b50356107d8565b60408051918252519081900360200190f35b61017a6107ed565b61017a61081d565b6101c2600480360360208110156101b257600080fd5b50356001600160a01b0316610822565b60408051602080825283518183015283519192839290830191858101910280838360005b838110156101fe5781810151838201526020016101e6565b505050509050019250505060405180910390f35b6102b66004803603602081101561022857600080fd5b810190602081018135600160201b81111561024257600080fd5b82018360208201111561025457600080fd5b803590602001918460018302840111600160201b8311171561027557600080fd5b91908080601f01602080910402602001604051908101604052809392919081815260200183838082843760009201919091525092955061093e945050505050565b604080516001600160a01b039092168252519081900360200190f35b6101c2600480360360208110156102e857600080fd5b50356001600160a01b031661098d565b6103156004803603602081101561030e57600080fd5b503561099a565b6040805160208082528351818301528351919283929083019185019080838360005b8381101561034f578181015183820152602001610337565b50505050905090810190601f16801561037c5780820380516001836020036101000a031916815260200191505b509250505060405180910390f35b6102b6600480360360208110156103a057600080fd5b5035610a3b565b610415600480360360208110156103bd57600080fd5b810190602081018135600160201b8111156103d757600080fd5b8201836020820111156103e957600080fd5b803590602001918460018302840111600160201b8311171561040a57600080fd5b509092509050610a56565b60405180866001600160a01b03166001600160a01b031681526020018581526020018481526020018060200183151515158152602001828103825284818151815260200191508051906020019080838360005b83811015610480578181015183820152602001610468565b50505050905090810190601f1680156104ad5780820380516001836020036101000a031916815260200191505b50965050505050505060405180910390f35b6101c2600480360360208110156104d557600080fd5b5035610cae565b610580600480360360208110156104f257600080fd5b810190602081018135600160201b81111561050c57600080fd5b82018360208201111561051e57600080fd5b803590602001918460018302840111600160201b8311171561053f57600080fd5b91908080601f016020809104026020016040519081016040528093929190818152602001838380828437600092019190915250929550610d19945050505050565b604080519115158252519081900360200190f35b6105ba600480360360208110156105aa57600080fd5b50356001600160a01b0316610d62565b6040518080602001856001600160a01b03166001600160a01b0316815260200180602001848152602001838103835287818151815260200191508051906020019080838360005b83811015610619578181015183820152602001610601565b50505050905090810190601f1680156106465780820380516001836020036101000a031916815260200191505b50838103825285518152855160209182019187019080838360008315610480578181015183820152602001610468565b6105806004803603602081101561068c57600080fd5b5035610ea9565b6102b6600480360360208110156106a957600080fd5b5035610ebe565b610315600480360360208110156106c657600080fd5b5035610ef9565b6101c2600480360360208110156106e357600080fd5b5035610f62565b6101c2610fc3565b6101c2610fd1565b6101c26004803603602081101561071057600080fd5b50356001600160a01b031661100f565b61017a6004803603602081101561073657600080fd5b5035611107565b6102b6611119565b610580611187565b6101c26004803603602081101561076357600080fd5b50356111b2565b6102b66004803603602081101561078057600080fd5b810190602081018135600160201b81111561079a57600080fd5b8201836020820111156107ac57600080fd5b803590602001918460018302840111600160201b831117156107cd57600080fd5b509092509050611212565b6000818152600660205260409020545b919050565b60006108187f604268e9a73dfd777dcecb8a614493dd65c638bad2f5e7d709d378bd2fb0baee611107565b905090565b606390565b6060600080905060606108656108606040518060400160405280600d8152602001600160981b6c75736572546f5469636b657273028152508661129c565b610f62565b905060005b81518110156108a35761088f82828151811061088257fe5b6020026020010151611326565b1561089b576001909201915b60010161086a565b6060836040519080825280602002602001820160405280156108cf578160200160208202803883390190505b50905060009350600091505b8251821015610935576108f383838151811061088257fe5b1561092a5782828151811061090457fe5b602002602001015181858151811061091857fe5b60209081029190910101526001909301925b6001909101906108db565b95945050505050565b60006109876109826040518060400160405280601781526020017f726567697374657265645469636b6572735f6f776e6572000000000000000000815250846113da565b610a3b565b92915050565b606061098760008361149c565b60008181526003602090815260409182902080548351601f6002600019610100600186161502019093169290920491820184900484028101840190945280845260609392830182828015610a2f5780601f10610a0457610100808354040283529160200191610a2f565b820191906000526020600020905b815481529060010190602001808311610a1257829003601f168201915b50505050509050919050565b6000908152600260205260409020546001600160a01b031690565b6000806000606060006060610aa088888080601f01602080910402602001604051908101604052809392919081815260200183838082843760009201919091525061169192505050565b90506000610aad82610d19565b90506000610af8610af36040518060400160405280601c81526020017f726567697374657265645469636b6572735f6578706972794461746500000000815250856113da565b611107565b905060018215151480610b0a57504281115b15610c7e576000610b4e610982604051806040016040528060158152602001600160591b743a34b1b5b2b92a37a9b2b1bab934ba3caa37b5b2b702815250866113da565b905060606001600160a01b03821615610c2757816001600160a01b03166306fdde036040518163ffffffff1660e01b815260040160006040518083038186803b158015610b9a57600080fd5b505afa158015610bae573d6000803e3d6000fd5b505050506040513d6000823e601f3d908101601f191682016040526020811015610bd757600080fd5b810190808051600160201b811115610bee57600080fd5b82016020810184811115610c0157600080fd5b8151600160201b811182820187101715610c1a57600080fd5b5050929190505050610c38565b604051806020016040528060008152505b9050610c438561093e565b610c68610af3604051806060016040528060228152602001611d7b60229139886113da565b909a509850919650909450909250610ca4915050565b50506040805160208101909152600080825296508695508594509250839150610ca49050565b9295509295909350565b600081815260096020908152604091829020805483518184028101840190945280845260609392830182828015610a2f57602002820191906000526020600020905b81546001600160a01b03168152600190910190602001808311610cf05750505050509050919050565b6000610987610d5d6040518060400160405280601881526020017f726567697374657265645469636b6572735f7374617475730000000000000000815250846113da565b610ea9565b6060600060606000610db1610dac6040518060400160405280601581526020017f7365637572697479546f6b656e735f7469636b657200000000000000000000008152508761129c565b610ef9565b856001600160a01b0316638da5cb5b6040518163ffffffff1660e01b815260040160206040518083038186803b158015610dea57600080fd5b505afa158015610dfe573d6000803e3d6000fd5b505050506040513d6020811015610e1457600080fd5b505160408051808201909152601b81527f7365637572697479546f6b656e735f746f6b656e44657461696c7300000000006020820152610e5890610dac908961129c565b610e9a610af36040518060400160405280601981526020017f7365637572697479546f6b656e735f6465706c6f7965644174000000000000008152508a61129c565b93509350935093509193509193565b60009081526004602052604090205460ff1690565b60006109876109826040518060400160405280601181526020016001607a1b701c1c9bdd1bd8dbdb15995c9cda5bdb94d50281525084611733565b60008181526001602081815260409283902080548451600294821615610100026000190190911693909304601f81018390048302840183019094528383526060939091830182828015610a2f5780601f10610a0457610100808354040283529160200191610a2f565b600081815260076020908152604091829020805483518184028101840190945280845260609392830182828015610a2f57602002820191906000526020600020905b815481526020019060010190808311610fa45750505050509050919050565b60606108186001600061149c565b606061081861100a610af36040518060400160405280600d8152602001600160991b6c3630ba32b9ba2b32b939b4b7b7028152506117a8565b61181f565b60608061101a610fc3565b90506000805b825181101561105a5761104683828151811061103857fe5b6020026020010151866118c1565b15611052576001909101905b600101611020565b606082604051908082528060200260200182016040528015611086578160200160208202803883390190505b50905060009250600091505b8351821015610935576110b88483815181106110aa57fe5b6020026020010151876118c1565b156110fc578382815181106110c957fe5b60200260200101518184815181106110dd57fe5b6001600160a01b03909216602092830291909101909101526001909201915b600190910190611092565b60009081526020819052604090205490565b60006108186109826040518060400160405280601181526020016001607a1b701c1c9bdd1bd8dbdb15995c9cda5bdb94d502815250611182610af36040518060400160405280600d8152602001600160991b6c3630ba32b9ba2b32b939b4b7b7028152506117a8565b611733565b60006108187f7152e5426955da44af11ecd67fec5e2a3ba747be974678842afa9394b9a075b6610ea9565b600081815260086020908152604091829020805483518184028101840190945280845260609392830182828015610a2f5760200282019190600052602060002090815481526020019060010190808311610fa45750505050509050919050565b6000606061125584848080601f01602080910402602001604051908101604052809392919081815260200183838082843760009201919091525061169192505050565b9050611294610982604051806040016040528060158152602001600160591b743a34b1b5b2b92a37a9b2b1bab934ba3caa37b5b2b702815250836113da565b949350505050565b600082826040516020018083805190602001908083835b602083106112d25780518252601f1990920191602091820191016112b3565b51815160209384036101000a60001901801990921691161790526001600160a01b039590951660601b92019182525060408051808303600b1901815260149092019052805192019190912095945050505050565b6000606061133383611b87565b905042611378610af36040518060400160405280601c81526020017f726567697374657265645469636b6572735f6578706972794461746500000000815250846113da565b1015806113c257506113c2610d5d6040518060400160405280601881526020017f726567697374657265645469636b6572735f7374617475730000000000000000815250836113da565b156113d15760019150506107e8565b50600092915050565b600082826040516020018083805190602001908083835b602083106114105780518252601f1990920191602091820191016113f1565b51815160209384036101000a600019018019909216911617905285519190930192850191508083835b602083106114585780518252601f199092019160209182019101611439565b6001836020036101000a0380198251168184511680821785525050505050509050019250505060405160208183030381529060405280519060200120905092915050565b6060806114d66114d16040518060400160405280600b8152602001600160a81b6a6163746976655573657273028152506117a8565b610cae565b90506060600080805b8451821015611586576115306108606040518060400160405280600d8152602001600160981b6c75736572546f5469636b6572730281525087858151811061152357fe5b602002602001015161129c565b9350600090505b835181101561157b5761155e84828151811061154f57fe5b60200260200101518989611c87565b6001600160a01b031615611573576001909201915b600101611537565b6001909101906114df565b6060836040519080825280602002602001820160405280156115b2578160200160208202803883390190505b5090506000935060008093505b8651841015611684576116036108606040518060400160405280600d8152602001600160981b6c75736572546f5469636b6572730281525089878151811061152357fe5b9550600092505b85518310156116795761163186848151811061162257fe5b60200260200101518b8b611c87565b90506001600160a01b0381161561166e578082868151811061164f57fe5b6001600160a01b03909216602092830291909101909101526001909401935b60019092019161160a565b6001909301926115bf565b5098975050505050505050565b60608160005b815181101561172c5760008282815181106116ae57fe5b016020015160f890811c901b9050600160f81b6061026001600160f81b03198216108015906116ee5750600160f91b603d026001600160f81b0319821611155b156116ff57601f1960f891821c01901b5b8083838151811061170c57fe5b60200101906001600160f81b031916908160001a90535050600101611697565b5092915050565b600082826040516020018083805190602001908083835b602083106117695780518252601f19909201916020918201910161174a565b51815160209384036101000a60001901801990921691161790529201938452506040805180850381529382019052825192019190912095945050505050565b6000816040516020018082805190602001908083835b602083106117dd5780518252601f1990920191602091820191016117be565b6001836020036101000a038019825116818451168082178552505050505050905001915050604051602081830303815290604052805190602001209050919050565b6040805160038082526080820190925260609182919060208201838038833901905050905060108362ffffff16901c8160008151811061185b57fe5b602002602001019060ff16908160ff168152505060088362ffffff16901c8160018151811061188657fe5b602002602001019060ff16908160ff168152505082816002815181106118a857fe5b60ff909216602092830291909101909101529050919050565b6000806000905060606000856001600160a01b031663ac90b42260016040518263ffffffff1660e01b8152600401808260ff16815260200191505060006040518083038186803b15801561191457600080fd5b505afa158015611928573d6000803e3d6000fd5b505050506040513d6000823e601f3d908101601f19168201604052602081101561195157600080fd5b810190808051600160201b81111561196857600080fd5b8201602081018481111561197b57600080fd5b81518560208202830111600160201b8211171561199757600080fd5b5060009750909550505050505b8151831015611b7b57856001600160a01b031663b5de8d4c8385815181106119c857fe5b60200260200101516040518263ffffffff1660e01b815260040180826001600160a01b03166001600160a01b0316815260200191505060006040518083038186803b158015611a1657600080fd5b505afa158015611a2a573d6000803e3d6000fd5b505050506040513d6000823e601f3d908101601f1916820160405260c0811015611a5357600080fd5b815160208301516040840151606085015160808601805194969395929491939283019291600160201b811115611a8857600080fd5b82016020810184811115611a9b57600080fd5b81518560208202830111600160201b82111715611ab757600080fd5b50949850889750611b70965050505050505057818381518110611ad657fe5b60200260200101516001600160a01b03166362c90dc5866040518263ffffffff1660e01b815260040180826001600160a01b03166001600160a01b0316815260200191505060206040518083038186803b158015611b3357600080fd5b505afa158015611b47573d6000803e3d6000fd5b505050506040513d6020811015611b5d57600080fd5b505115611b705760019350505050610987565b6001909201916119a4565b50600095945050505050565b6040805160208082528183019092526060918291906020820181803883390190505090506000805b6020811015611c05576008810260020a85026001600160f81b0319811615611bfc5780848481518110611bde57fe5b60200101906001600160f81b031916908160001a9053506001909201915b50600101611baf565b6060826040519080825280601f01601f191660200182016040528015611c32576020820181803883390190505b509050600091505b8282101561093557838281518110611c4e57fe5b602001015160f81c60f81b818381518110611c6557fe5b60200101906001600160f81b031916908160001a905350600190910190611c3a565b600080611ccf610982604051806040016040528060158152602001600160591b743a34b1b5b2b92a37a9b2b1bab934ba3caa37b5b2b702815250611cca88611b87565b6113da565b90506001600160a01b03811615611d6d578380611d615750826001600160a01b0316816001600160a01b0316638da5cb5b6040518163ffffffff1660e01b815260040160206040518083038186803b158015611d2a57600080fd5b505afa158015611d3e573d6000803e3d6000fd5b505050506040513d6020811015611d5457600080fd5b50516001600160a01b0316145b15611d6d579050611d73565b60009150505b939250505056fe726567697374657265645469636b6572735f726567697374726174696f6e44617465a165627a7a72305820e6d2d2a60e98b85df93f057b6556643e331067a1dfa14c61730716946894d1820029",
  "source": "pragma solidity 0.5.8;\r\n\r\nimport \"../STRGetter.sol\";\r\n\r\n/**\r\n * @title Registry contract for issuers to register their security tokens\r\n */\r\ncontract MockSTRGetter is STRGetter {\r\n    /// @notice It is a dummy function\r\n    /// Alert! Alert! Do NOT use it for the mainnet release\r\n\r\n    function newFunction() public pure returns (uint256) {\r\n        return 99;\r\n    }\r\n\r\n}\r\n",
  "sourcePath": "C:/mspace/polymath-core/contracts/mocks/MockSTRGetter.sol",
  "compiler": {
    "name": "solc",
    "version": "0.5.8+commit.23d335f2.Emscripten.clang"
  },
  "schemaVersion": "3.0.11",
  "updatedAt": "2019-08-05T12:37:19.128Z",
  "devdoc": {
    "methods": {
      "getExpiryLimit()": {
        "return": "Expiry limit\r"
      },
      "getIsFeeInPoly()": {
        "return": "true = poly, false = usd\r"
      },
      "getSTFactoryAddressOfVersion(uint256)": {
        "params": {
          "_protocolVersion": "Packed protocol version\r"
        }
      },
      "getSecurityTokenAddress(string)": {
        "params": {
          "_ticker": "is the ticker of the security token\r"
        },
        "return": "address\r"
      },
      "getSecurityTokenData(address)": {
        "params": {
          "_securityToken": "is the address of the security token.\r"
        },
        "return": "string is the ticker of the security Token.\raddress is the issuer of the security Token.\rstring is the details of the security token.\ruint256 is the timestamp at which security Token was deployed.\r"
      },
      "getTickerDetails(string)": {
        "params": {
          "_ticker": "is the ticker symbol\r"
        },
        "return": "address\ruint256\ruint256\rstring\rbool\r"
      },
      "getTickerOwner(string)": {
        "params": {
          "_ticker": "Ticker whose owner need to determine\r"
        },
        "return": "address Address of the owner\r"
      },
      "getTickerStatus(string)": {
        "params": {
          "_ticker": "Ticker whose status need to determine\r"
        },
        "return": "bool\r"
      },
      "getTickersByOwner(address)": {
        "params": {
          "_owner": "is the address which owns the list of tickers\r"
        }
      },
      "getTokens()": {
        "details": "Intention is that this is called off-chain so block gas limit is not relevant\r"
      },
      "getTokensByDelegate(address)": {
        "details": "Intention is that this is called off-chain so block gas limit is not relevant\r",
        "params": {
          "_delegate": "is the address for the delegate\r"
        }
      },
      "getTokensByOwner(address)": {
        "details": "Intention is that this is called off-chain so block gas limit is not relevant\r",
        "params": {
          "_owner": "is the address which owns the list of tickers\r"
        }
      }
    },
    "title": "Registry contract for issuers to register their security tokens\r"
  },
  "userdoc": {
    "methods": {
      "getArrayAddress(bytes32)": {
        "notice": "getArrayBytes32(keccak256(abi.encodePacked(\"tokensOwnedByOwner\", 0x1)).length;"
      },
      "getExpiryLimit()": {
        "notice": "Gets the expiry limit\r"
      },
      "getIsFeeInPoly()": {
        "notice": "Gets the fee currency\r"
      },
      "getLatestProtocolVersion()": {
        "notice": "Gets Protocol version\r"
      },
      "getSTFactoryAddress()": {
        "notice": "Returns the current STFactory Address\r"
      },
      "getSTFactoryAddressOfVersion(uint256)": {
        "notice": "Returns the STFactory Address of a particular version\r"
      },
      "getSecurityTokenAddress(string)": {
        "notice": "Returns the security token address by ticker symbol\r"
      },
      "getSecurityTokenData(address)": {
        "notice": "Returns the security token data by address\r"
      },
      "getTickerDetails(string)": {
        "notice": "Returns the owner and timestamp for a given ticker\r"
      },
      "getTickerOwner(string)": {
        "notice": "Gets the owner of the ticker\r"
      },
      "getTickerStatus(string)": {
        "notice": "Gets the status of the ticker\r"
      },
      "getTickersByOwner(address)": {
        "notice": "Returns the list of tickers owned by the selected address\r"
      },
      "getTokens()": {
        "notice": "Returns the list of all tokens\r"
      },
      "getTokensByDelegate(address)": {
        "notice": "Returns the list of tokens to which the delegate has some access\r"
      },
      "getTokensByOwner(address)": {
        "notice": "Returns the list of tokens owned by the selected address\r"
      },
      "getUintValue(bytes32)": {
        "notice": "string _name = getString(keccak256(abi.encodePacked(\"registeredSymbols_name\", \"TOKEN\"));"
      },
      "newFunction()": {
        "notice": "Alert! Alert! Do NOT use it for the mainnet release"
      }
    }
  }
}