{
  "contractName": "MockSTGetter",
  "abi": [
    {
      "constant": true,
      "inputs": [],
      "name": "name",
      "outputs": [
        {
          "name": "",
          "type": "string"
        }
      ],
      "payable": false,
      "stateMutability": "view",
      "type": "function"
    },
    {
      "constant": true,
      "inputs": [],
      "name": "getVersion",
      "outputs": [
        {
          "name": "",
          "type": "uint8[]"
        }
      ],
      "payable": false,
      "stateMutability": "view",
      "type": "function"
    },
    {
      "constant": true,
      "inputs": [],
      "name": "initialized",
      "outputs": [
        {
          "name": "",
          "type": "bool"
        }
      ],
      "payable": false,
      "stateMutability": "view",
      "type": "function"
    },
    {
      "constant": true,
      "inputs": [],
      "name": "holderCount",
      "outputs": [
        {
          "name": "",
          "type": "uint256"
        }
      ],
      "payable": false,
      "stateMutability": "view",
      "type": "function"
    },
    {
      "constant": true,
      "inputs": [],
      "name": "getTreasuryWallet",
      "outputs": [
        {
          "name": "",
          "type": "address"
        }
      ],
      "payable": false,
      "stateMutability": "view",
      "type": "function"
    },
    {
      "constant": true,
      "inputs": [],
      "name": "isIssuable",
      "outputs": [
        {
          "name": "",
          "type": "bool"
        }
      ],
      "payable": false,
      "stateMutability": "view",
      "type": "function"
    },
    {
      "constant": true,
      "inputs": [],
      "name": "getterDelegate",
      "outputs": [
        {
          "name": "",
          "type": "address"
        }
      ],
      "payable": false,
      "stateMutability": "view",
      "type": "function"
    },
    {
      "constant": true,
      "inputs": [
        {
          "name": "_start",
          "type": "uint256"
        },
        {
          "name": "_end",
          "type": "uint256"
        }
      ],
      "name": "iterateInvestors",
      "outputs": [
        {
          "name": "",
          "type": "address[]"
        }
      ],
      "payable": false,
      "stateMutability": "view",
      "type": "function"
    },
    {
      "constant": true,
      "inputs": [],
      "name": "decimals",
      "outputs": [
        {
          "name": "",
          "type": "uint8"
        }
      ],
      "payable": false,
      "stateMutability": "view",
      "type": "function"
    },
    {
      "constant": true,
      "inputs": [
        {
          "name": "_checkpointId",
          "type": "uint256"
        }
      ],
      "name": "getInvestorsAt",
      "outputs": [
        {
          "name": "",
          "type": "address[]"
        }
      ],
      "payable": false,
      "stateMutability": "view",
      "type": "function"
    },
    {
      "constant": true,
      "inputs": [],
      "name": "getCheckpointTimes",
      "outputs": [
        {
          "name": "",
          "type": "uint256[]"
        }
      ],
      "payable": false,
      "stateMutability": "view",
      "type": "function"
    },
    {
      "constant": true,
      "inputs": [
        {
          "name": "_investor",
          "type": "address"
        },
        {
          "name": "_checkpointId",
          "type": "uint256"
        }
      ],
      "name": "balanceOfAt",
      "outputs": [
        {
          "name": "",
          "type": "uint256"
        }
      ],
      "payable": false,
      "stateMutability": "view",
      "type": "function"
    },
    {
      "constant": true,
      "inputs": [],
      "name": "currentCheckpointId",
      "outputs": [
        {
          "name": "",
          "type": "uint256"
        }
      ],
      "payable": false,
      "stateMutability": "view",
      "type": "function"
    },
    {
      "constant": true,
      "inputs": [],
      "name": "granularity",
      "outputs": [
        {
          "name": "",
          "type": "uint256"
        }
      ],
      "payable": false,
      "stateMutability": "view",
      "type": "function"
    },
    {
      "constant": true,
      "inputs": [],
      "name": "dataStore",
      "outputs": [
        {
          "name": "",
          "type": "address"
        }
      ],
      "payable": false,
      "stateMutability": "view",
      "type": "function"
    },
    {
      "constant": true,
      "inputs": [
        {
          "name": "_partition",
          "type": "bytes32"
        },
        {
          "name": "_operator",
          "type": "address"
        },
        {
          "name": "_tokenHolder",
          "type": "address"
        }
      ],
      "name": "isOperatorForPartition",
      "outputs": [
        {
          "name": "",
          "type": "bool"
        }
      ],
      "payable": false,
      "stateMutability": "view",
      "type": "function"
    },
    {
      "constant": true,
      "inputs": [],
      "name": "polyToken",
      "outputs": [
        {
          "name": "",
          "type": "address"
        }
      ],
      "payable": false,
      "stateMutability": "view",
      "type": "function"
    },
    {
      "constant": true,
      "inputs": [
        {
          "name": "",
          "type": "address"
        }
      ],
      "name": "partitionsOf",
      "outputs": [
        {
          "name": "",
          "type": "bytes32[]"
        }
      ],
      "payable": false,
      "stateMutability": "pure",
      "type": "function"
    },
    {
      "constant": true,
      "inputs": [
        {
          "name": "_name",
          "type": "bytes32"
        }
      ],
      "name": "getModulesByName",
      "outputs": [
        {
          "name": "",
          "type": "address[]"
        }
      ],
      "payable": false,
      "stateMutability": "view",
      "type": "function"
    },
    {
      "constant": true,
      "inputs": [],
      "name": "polymathRegistry",
      "outputs": [
        {
          "name": "",
          "type": "address"
        }
      ],
      "payable": false,
      "stateMutability": "view",
      "type": "function"
    },
    {
      "constant": true,
      "inputs": [],
      "name": "controllerDisabled",
      "outputs": [
        {
          "name": "",
          "type": "bool"
        }
      ],
      "payable": false,
      "stateMutability": "view",
      "type": "function"
    },
    {
      "constant": true,
      "inputs": [
        {
          "name": "_delegate",
          "type": "address"
        },
        {
          "name": "_module",
          "type": "address"
        },
        {
          "name": "_perm",
          "type": "bytes32"
        }
      ],
      "name": "checkPermission",
      "outputs": [
        {
          "name": "",
          "type": "bool"
        }
      ],
      "payable": false,
      "stateMutability": "view",
      "type": "function"
    },
    {
      "constant": true,
      "inputs": [],
      "name": "symbol",
      "outputs": [
        {
          "name": "",
          "type": "string"
        }
      ],
      "payable": false,
      "stateMutability": "view",
      "type": "function"
    },
    {
      "constant": true,
      "inputs": [],
      "name": "getInvestorCount",
      "outputs": [
        {
          "name": "",
          "type": "uint256"
        }
      ],
      "payable": false,
      "stateMutability": "view",
      "type": "function"
    },
    {
      "constant": true,
      "inputs": [
        {
          "name": "_checkpointId",
          "type": "uint256"
        }
      ],
      "name": "totalSupplyAt",
      "outputs": [
        {
          "name": "",
          "type": "uint256"
        }
      ],
      "payable": false,
      "stateMutability": "view",
      "type": "function"
    },
    {
      "constant": true,
      "inputs": [],
      "name": "getAllDocuments",
      "outputs": [
        {
          "name": "",
          "type": "bytes32[]"
        }
      ],
      "payable": false,
      "stateMutability": "view",
      "type": "function"
    },
    {
      "constant": true,
      "inputs": [
        {
          "name": "_checkpointId",
          "type": "uint256"
        },
        {
          "name": "_start",
          "type": "uint256"
        },
        {
          "name": "_end",
          "type": "uint256"
        }
      ],
      "name": "getInvestorsSubsetAt",
      "outputs": [
        {
          "name": "",
          "type": "address[]"
        }
      ],
      "payable": false,
      "stateMutability": "view",
      "type": "function"
    },
    {
      "constant": true,
      "inputs": [
        {
          "name": "_type",
          "type": "uint8"
        }
      ],
      "name": "getModulesByType",
      "outputs": [
        {
          "name": "",
          "type": "address[]"
        }
      ],
      "payable": false,
      "stateMutability": "view",
      "type": "function"
    },
    {
      "constant": true,
      "inputs": [
        {
          "name": "_name",
          "type": "bytes32"
        }
      ],
      "name": "getDocument",
      "outputs": [
        {
          "name": "",
          "type": "string"
        },
        {
          "name": "",
          "type": "bytes32"
        },
        {
          "name": "",
          "type": "uint256"
        }
      ],
      "payable": false,
      "stateMutability": "view",
      "type": "function"
    },
    {
      "constant": true,
      "inputs": [],
      "name": "getInvestors",
      "outputs": [
        {
          "name": "investors",
          "type": "address[]"
        }
      ],
      "payable": false,
      "stateMutability": "view",
      "type": "function"
    },
    {
      "constant": true,
      "inputs": [
        {
          "name": "_module",
          "type": "address"
        }
      ],
      "name": "getModule",
      "outputs": [
        {
          "name": "",
          "type": "bytes32"
        },
        {
          "name": "",
          "type": "address"
        },
        {
          "name": "",
          "type": "address"
        },
        {
          "name": "",
          "type": "bool"
        },
        {
          "name": "",
          "type": "uint8[]"
        },
        {
          "name": "",
          "type": "bytes32"
        }
      ],
      "payable": false,
      "stateMutability": "view",
      "type": "function"
    },
    {
      "constant": true,
      "inputs": [
        {
          "name": "_operator",
          "type": "address"
        },
        {
          "name": "_tokenHolder",
          "type": "address"
        }
      ],
      "name": "isOperator",
      "outputs": [
        {
          "name": "",
          "type": "bool"
        }
      ],
      "payable": false,
      "stateMutability": "view",
      "type": "function"
    },
    {
      "constant": true,
      "inputs": [],
      "name": "moduleRegistry",
      "outputs": [
        {
          "name": "",
          "type": "address"
        }
      ],
      "payable": false,
      "stateMutability": "view",
      "type": "function"
    },
    {
      "constant": true,
      "inputs": [],
      "name": "securityTokenRegistry",
      "outputs": [
        {
          "name": "",
          "type": "address"
        }
      ],
      "payable": false,
      "stateMutability": "view",
      "type": "function"
    },
    {
      "constant": true,
      "inputs": [],
      "name": "tokenDetails",
      "outputs": [
        {
          "name": "",
          "type": "string"
        }
      ],
      "payable": false,
      "stateMutability": "view",
      "type": "function"
    },
    {
      "constant": true,
      "inputs": [],
      "name": "transfersFrozen",
      "outputs": [
        {
          "name": "",
          "type": "bool"
        }
      ],
      "payable": false,
      "stateMutability": "view",
      "type": "function"
    },
    {
      "constant": true,
      "inputs": [],
      "name": "tokenFactory",
      "outputs": [
        {
          "name": "",
          "type": "address"
        }
      ],
      "payable": false,
      "stateMutability": "view",
      "type": "function"
    },
    {
      "constant": true,
      "inputs": [],
      "name": "controller",
      "outputs": [
        {
          "name": "",
          "type": "address"
        }
      ],
      "payable": false,
      "stateMutability": "view",
      "type": "function"
    },
    {
      "anonymous": false,
      "inputs": [
        {
          "indexed": false,
          "name": "_upgrade",
          "type": "uint256"
        }
      ],
      "name": "UpgradeEvent",
      "type": "event"
    },
    {
      "constant": false,
      "inputs": [
        {
          "name": "_upgrade",
          "type": "uint256"
        }
      ],
      "name": "newGetter",
      "outputs": [],
      "payable": false,
      "stateMutability": "nonpayable",
      "type": "function"
    }
  ],
  "bytecode": "0x60806040526012805460ff1990811690915560148054909116600117905534801561002957600080fd5b50611869806100396000396000f3fe608060405234801561001057600080fd5b506004361061023d5760003560e01c806377282b701161013b578063b2f5a54c116100b8578063d28a70471161007c578063d28a70471461071c578063d6abe1101461073b578063e45b813414610743578063e77772fe1461074b578063f77c4791146107535761023d565b8063b2f5a54c14610611578063b5de8d4c14610619578063b6363cf2146106de578063b95459e41461070c578063ce4dbdff146107145761023d565b8063981b24d0116100ff578063981b24d0146105005780639fa5f50b1461051d578063abe191c114610525578063ac90b4221461054e578063b10d6b411461056e5761023d565b806377282b70146104aa5780637a802c71146104b25780638658b8b9146104ba57806395d89b41146104f0578063960524e3146104f85761023d565b80633f553586116101c9578063660d0d671161018d578063660d0d67146104235780636d77cad61461042b5780636faa22a51461045f578063740ab8f414610467578063764387bd1461048d5761023d565b80633f553586146103c25780634c6041d3146103df5780634ee2cd7e146103e75780635488cc8014610413578063556f0dc71461041b5761023d565b80632c035b74116102105780632c035b741461034d5780632f1cae85146103715780632fb3b99d146103795780633052eed814610381578063313ce567146103a45761023d565b806306fdde03146102425780630d8e6e2c146102bf578063158ef93e146103175780631aab9a9f14610333575b600080fd5b61024a61075b565b6040805160208082528351818301528351919283929083019185019080838360005b8381101561028457818101518382015260200161026c565b50505050905090810190601f1680156102b15780820380516001836020036101000a031916815260200191505b509250505060405180910390f35b6102c76107e9565b60408051602080825283518183015283519192839290830191858101910280838360005b838110156103035781810151838201526020016102eb565b505050509050019250505060405180910390f35b61031f610892565b604080519115158252519081900360200190f35b61033b6108a2565b60408051918252519081900360200190f35b6103556108a8565b604080516001600160a01b039092168252519081900360200190f35b61031f610947565b610355610950565b6102c76004803603604081101561039757600080fd5b508035906020013561095f565b6103ac610a59565b6040805160ff9092168252519081900360200190f35b6102c7600480360360208110156103d857600080fd5b5035610a62565b6102c7610c88565b61033b600480360360408110156103fd57600080fd5b506001600160a01b038135169060200135610ce0565b61033b610da4565b61033b610daa565b610355610db0565b61031f6004803603606081101561044157600080fd5b508035906001600160a01b0360208201358116916040013516610dbf565b610355610df8565b6102c76004803603602081101561047d57600080fd5b50356001600160a01b0316610e07565b6102c7600480360360208110156104a357600080fd5b5035610e7e565b610355610eea565b61031f610ef9565b61031f600480360360608110156104d057600080fd5b506001600160a01b03813581169160208101359091169060400135610f02565b61024a611098565b61033b6110f3565b61033b6004803603602081101561051657600080fd5b503561114f565b6102c7611173565b6102c76004803603606081101561053b57600080fd5b50803590602081013590604001356111c9565b6102c76004803603602081101561056457600080fd5b503560ff166113ff565b61058b6004803603602081101561058457600080fd5b503561146d565b6040518080602001848152602001838152602001828103825285818151815260200191508051906020019080838360005b838110156105d45781810151838201526020016105bc565b50505050905090810190601f1680156106015780820380516001836020036101000a031916815260200191505b5094505050505060405180910390f35b6102c7611523565b61063f6004803603602081101561062f57600080fd5b50356001600160a01b031661160d565b60405180878152602001866001600160a01b03166001600160a01b03168152602001856001600160a01b03166001600160a01b031681526020018415151515815260200180602001838152602001828103825284818151815260200191508051906020019060200280838360005b838110156106c55781810151838201526020016106ad565b5050505090500197505050505050505060405180910390f35b61031f600480360360408110156106f457600080fd5b506001600160a01b03813581169160200135166116e0565b6103556116f7565b610355611706565b6107396004803603602081101561073257600080fd5b5035611715565b005b61024a61174b565b61031f6117a6565b6103556117b4565b6103556117c3565b6006805460408051602060026001851615610100026000190190941693909304601f810184900484028201840190925281815292918301828280156107e15780601f106107b6576101008083540402835291602001916107e1565b820191906000526020600020905b8154815290600101906020018083116107c457829003601f168201915b505050505081565b604080516003808252608082019092526060918291906020820183803883395050601754825192935060ff169183915060009061082257fe5b60ff92831660209182029290920101526017548251610100909104909116908290600190811061084e57fe5b60ff9283166020918202929092010152601754825162010000909104909116908290600290811061087b57fe5b60ff90921660209283029190910190910152905090565b600554600160a01b900460ff1681565b60135481565b600e5460408051600160e01b6321f8a7210281527faae8817359f3dcb67d050f44f3e49f982e0359d90ca4b5f18569926304aaece6600482015290516000926001600160a01b0316916321f8a721916024808301926020929190829003018186803b15801561091657600080fd5b505afa15801561092a573d6000803e3d6000fd5b505050506040513d602081101561094057600080fd5b5051905090565b60145460ff1690565b600d546001600160a01b031681565b600e5460408051600160e51b630755f5e702815260008051602061181e8339815191526004820152602481018590526044810184905290516060926001600160a01b03169163eabebce0916064808301926000929190829003018186803b1580156109c957600080fd5b505afa1580156109dd573d6000803e3d6000fd5b505050506040513d6000823e601f3d908101601f191682016040526020811015610a0657600080fd5b810190808051600160201b811115610a1d57600080fd5b82016020810184811115610a3057600080fd5b81518560208202830111600160201b82111715610a4c57600080fd5b5090979650505050505050565b60085460ff1681565b600e5460408051600160e01b635948f73302815260008051602061181e83398151915260048201529051606092600092839285926001600160a01b031691635948f7339160248083019287929190829003018186803b158015610ac457600080fd5b505afa158015610ad8573d6000803e3d6000fd5b505050506040513d6000823e601f3d908101601f191682016040526020811015610b0157600080fd5b810190808051600160201b811115610b1857600080fd5b82016020810184811115610b2b57600080fd5b81518560208202830111600160201b82111715610b4757600080fd5b5060009650909450505050505b8051821015610bc7576000610b7c828481518110610b6e57fe5b602002602001015187610ce0565b1115610b8d57600190920191610bbc565b6000818381518110610b9b57fe5b60200260200101906001600160a01b031690816001600160a01b0316815250505b600190910190610b54565b606083604051908082528060200260200182016040528015610bf3578160200160208202803883390190505b50905060009350600092505b8151831015610c7f5760006001600160a01b0316828481518110610c1f57fe5b60200260200101516001600160a01b031614610c7457818381518110610c4157fe5b6020026020010151818581518110610c5557fe5b6001600160a01b03909216602092830291909101909101526001909301925b600190920191610bff565b95945050505050565b60606016805480602002602001604051908101604052809291908181526020018280548015610cd657602002820191906000526020600020905b815481526020019060010190808311610cc2575b5050505050905090565b6000601054821115610cf157600080fd5b6001600160a01b0383166000908152601c6020526040902073__TokenLib______________________________9063cc90f5de9084610d2f876117d7565b6040518463ffffffff1660e01b815260040180848152602001838152602001828152602001935050505060206040518083038186803b158015610d7157600080fd5b505af4158015610d85573d6000803e3d6000fd5b505050506040513d6020811015610d9b57600080fd5b50519392505050565b60105481565b600f5481565b600e546001600160a01b031681565b6001600160a01b038082166000908152601f6020908152604080832087845282528083209386168352929052205460ff165b9392505050565b600c546001600160a01b031681565b604080516002808252606080830184529283929190602083019080388339019050509050600160c21b6715539313d0d2d1510281600081518110610e4757fe5b602002602001018181525050600160d21b651313d0d2d1510281600181518110610e6d57fe5b602090810291909101015292915050565b6000818152601a6020908152604091829020805483518184028101840190945280845260609392830182828015610ede57602002820191906000526020600020905b81546001600160a01b03168152600190910190602001808311610ec0575b50505050509050919050565b6009546001600160a01b031681565b60125460ff1681565b6000805b600160005260186020527ff3794665d3af9b6fb6f858b70185898134f96768ef31c325d52e04f0ac195a4d5481101561108d576001600090815260186020527ff3794665d3af9b6fb6f858b70185898134f96768ef31c325d52e04f0ac195a4d8054601992919084908110610f7757fe5b60009182526020808320909101546001600160a01b0316835282019290925260400190206002015460ff600160a01b9091041661108557600160005260186020527ff3794665d3af9b6fb6f858b70185898134f96768ef31c325d52e04f0ac195a4d805482908110610fe557fe5b6000918252602091829020015460408051600160e01b638658b8b90281526001600160a01b03898116600483015288811660248301526044820188905291519190921692638658b8b99260648082019391829003018186803b15801561104a57600080fd5b505afa15801561105e573d6000803e3d6000fd5b505050506040513d602081101561107457600080fd5b505115611085576001915050610df1565b600101610f06565b506000949350505050565b6007805460408051602060026001851615610100026000190190941693909304601f810184900484028201840190925281815292918301828280156107e15780601f106107b6576101008083540402835291602001916107e1565b600e5460408051600160e11b6317e4a5d302815260008051602061181e833981519152600482015290516000926001600160a01b031691632fc94ba6916024808301926020929190829003018186803b15801561091657600080fd5b600060105482111561116057600080fd5b506000908152601b602052604090205490565b60606015805480602002602001604051908101604052809291908181526020018280548015610cd65760200282019190600052602060002090815481526020019060010190808311610cc2575050505050905090565b600e5460408051600160e51b630755f5e702815260008051602061181e833981519152600482015260248101859052604481018490529051606092600092839285926001600160a01b03169163eabebce09160648083019287929190829003018186803b15801561123957600080fd5b505afa15801561124d573d6000803e3d6000fd5b505050506040513d6000823e601f3d908101601f19168201604052602081101561127657600080fd5b810190808051600160201b81111561128d57600080fd5b820160208101848111156112a057600080fd5b81518560208202830111600160201b821117156112bc57600080fd5b5060009650909450505050505b805182101561133c5760006112f18284815181106112e357fe5b602002602001015189610ce0565b111561130257600190920191611331565b600081838151811061131057fe5b60200260200101906001600160a01b031690816001600160a01b0316815250505b6001909101906112c9565b606083604051908082528060200260200182016040528015611368578160200160208202803883390190505b50905060009350600092505b81518310156113f45760006001600160a01b031682848151811061139457fe5b60200260200101516001600160a01b0316146113e9578183815181106113b657fe5b60200260200101518185815181106113ca57fe5b6001600160a01b03909216602092830291909101909101526001909301925b600190920191611374565b979650505050505050565b60ff8116600090815260186020908152604091829020805483518184028101840190945280845260609392830182828015610ede576020028201919060005260206000209081546001600160a01b03168152600190910190602001808311610ec05750505050509050919050565b6000818152601d6020908152604080832080546001808301546002938401805486519381161561010002600019011694909404601f8101879004870283018701909552848252606096958695919291859183018282801561150f5780601f106114e45761010080835404028352916020019161150f565b820191906000526020600020905b8154815290600101906020018083116114f257829003601f168201915b505050505092509250925092509193909250565b600e5460408051600160e01b635948f73302815260008051602061181e833981519152600482015290516060926001600160a01b031691635948f733916024808301926000929190829003018186803b15801561157f57600080fd5b505afa158015611593573d6000803e3d6000fd5b505050506040513d6000823e601f3d908101601f1916820160405260208110156115bc57600080fd5b810190808051600160201b8111156115d357600080fd5b820160208101848111156115e657600080fd5b81518560208202830111600160201b8211171561160257600080fd5b509095945050505050565b6001600160a01b03818116600090815260196020908152604080832080546001820154600283015460068401546003909401805486518189028101890190975280875297988998899889986060988a989785169694851695600160a01b90950460ff16949390928491908301828280156116c457602002820191906000526020600020906000905b825461010083900a900460ff168152602060019283018181049485019490930390920291018084116116955790505b5050505050915095509550955095509550955091939550919395565b60006000196116ef83856117f2565b149392505050565b600a546001600160a01b031681565b600b546001600160a01b031681565b6040805182815290517f7e54bc788db3f781250853aaf56a46415cdb0cd27c06a4ab3d144aeccfcb7b1d9181900360200190a150565b6011805460408051602060026001851615610100026000190190941693909304601f810184900484028201840190925281815292918301828280156107e15780601f106107b6576101008083540402835291602001916107e1565b601254610100900460ff1681565b6005546001600160a01b031681565b60085461010090046001600160a01b031681565b6001600160a01b031660009081526020819052604090205490565b6001600160a01b0391821660009081526001602090815260408083209390941682529190915220549056fedf3a8dd24acdd05addfc6aeffef7574d2de3f844535ec91e8e0f3e45dba96731a165627a7a72305820381672aa2de8a6fdd60920b9dba363080a23caf7b8b18749268987e61bb913bf0029",
  "source": "pragma solidity 0.5.8;\r\n\r\nimport \"../tokens/STGetter.sol\";\r\n\r\n/**\r\n * @title Security Token contract (mock)\r\n * @notice SecurityToken is an ERC1400 token with added capabilities:\r\n * @notice - Implements the ERC1400 Interface\r\n * @notice - Transfers are restricted\r\n * @notice - Modules can be attached to it to control its behaviour\r\n * @notice - ST should not be deployed directly, but rather the SecurityTokenRegistry should be used\r\n * @notice - ST does not inherit from ISecurityToken due to:\r\n * @notice - https://github.com/ethereum/solidity/issues/4847\r\n */\r\ncontract MockSTGetter is STGetter {\r\n    using SafeMath for uint256;\r\n\r\n    event UpgradeEvent(uint256 _upgrade);\r\n\r\n    function newGetter(uint256 _upgrade) public {\r\n        emit UpgradeEvent(_upgrade);\r\n    }\r\n\r\n}\r\n",
  "sourcePath": "C:/mspace/polymath-core/contracts/mocks/MockSTGetter.sol",
  "compiler": {
    "name": "solc",
    "version": "0.5.8+commit.23d335f2.Emscripten.clang"
  },
  "schemaVersion": "3.0.11",
  "updatedAt": "2019-08-05T22:53:45.016Z",
  "devdoc": {
    "methods": {
      "balanceOfAt(address,uint256)": {
        "params": {
          "_checkpointId": "Checkpoint ID to query as of\r",
          "_investor": "Investor to query balance for\r"
        }
      },
      "checkPermission(address,address,bytes32)": {
        "details": "Note that IModule withPerm will allow ST owner all permissions anyway\rthis allows individual modules to override this logic if needed (to not allow ST owner all permissions)\r",
        "params": {
          "_delegate": "address of delegate\r",
          "_module": "address of PermissionManager module\r",
          "_perm": "the permissions\r"
        },
        "return": "success\r"
      },
      "getAllDocuments()": {
        "return": "bytes32 List of all documents names present in the contract.\r"
      },
      "getCheckpointTimes()": {
        "return": "List of checkpoint times\r"
      },
      "getDocument(bytes32)": {
        "params": {
          "_name": "Name of the document\r"
        },
        "return": "string The URI associated with the document.\rbytes32 The hash (of the contents) of the document.\ruint256 the timestamp at which the document was last modified.\r"
      },
      "getInvestorCount()": {
        "return": "Investor count\r"
      },
      "getInvestors()": {
        "return": "list of addresses\r"
      },
      "getInvestorsAt(uint256)": {
        "params": {
          "_checkpointId": "Checkpoint id at which investor list is to be populated\r"
        },
        "return": "list of investors\r"
      },
      "getInvestorsSubsetAt(uint256,uint256,uint256)": {
        "params": {
          "_checkpointId": "Checkpoint id at which investor list is to be populated\r",
          "_end": "Position of investor to stop iteration at\r",
          "_start": "Position of investor to start iteration from\r"
        },
        "return": "list of investors\r"
      },
      "getModule(address)": {
        "params": {
          "_module": "address of the module\r"
        },
        "return": "bytes32 name\raddress module address\raddress module factory address\rbool module archived\ruint8 array of module types\rbytes32 module label\r"
      },
      "getModulesByName(bytes32)": {
        "params": {
          "_name": "name of the module\r"
        },
        "return": "address[] list of modules with this name\r"
      },
      "getModulesByType(uint8)": {
        "params": {
          "_type": "type of the module\r"
        },
        "return": "address[] list of modules with this type\r"
      },
      "isIssuable()": {
        "details": "If a token returns FALSE for `isIssuable()` then it MUST always return FALSE in the future.\r If a token returns FALSE for `isIssuable()` then it MUST never allow additional tokens to be issued.\r",
        "return": "bool `true` signifies the minting is allowed. While `false` denotes the end of minting\r"
      },
      "isOperator(address,address)": {
        "params": {
          "_operator": "The operator to check\r",
          "_tokenHolder": "The token holder to check\r"
        },
        "return": "Whether the `_operator` is an operator for all partitions of `_tokenHolder`\r"
      },
      "isOperatorForPartition(bytes32,address,address)": {
        "params": {
          "_operator": "The operator to check\r",
          "_partition": "The partition to check\r",
          "_tokenHolder": "The token holder to check\r"
        },
        "return": "Whether the `_operator` is an operator for a specified partition of `_tokenHolder`\r"
      },
      "iterateInvestors(uint256,uint256)": {
        "params": {
          "_end": "Position of investor to stop iteration at\r",
          "_start": "Position of investor to start iteration from\r"
        },
        "return": "list of investors\r"
      },
      "partitionsOf(address)": {
        "return": "List of partitions\r"
      },
      "totalSupplyAt(uint256)": {
        "params": {
          "_checkpointId": "Checkpoint ID to query\r"
        },
        "return": "uint256\r"
      }
    },
    "title": "Security Token contract (mock)\r"
  },
  "userdoc": {
    "methods": {
      "balanceOfAt(address,uint256)": {
        "notice": "Queries balances as of a defined checkpoint\r"
      },
      "checkPermission(address,address,bytes32)": {
        "notice": "Validate permissions with PermissionManager if it exists, If no Permission return false\r"
      },
      "getAllDocuments()": {
        "notice": "Used to retrieve a full list of documents attached to the smart contract.\r"
      },
      "getCheckpointTimes()": {
        "notice": "Gets list of times that checkpoints were created\r"
      },
      "getDocument(bytes32)": {
        "notice": "Used to return the details of a document with a known name (`bytes32`).\r"
      },
      "getInvestorCount()": {
        "notice": "Returns the count of address that were added as (potential) investors\r"
      },
      "getInvestors()": {
        "notice": "returns an array of investors\r NB - this length may differ from investorCount as it contains all investors that ever held tokens\r"
      },
      "getInvestorsAt(uint256)": {
        "notice": "returns an array of investors with non zero balance at a given checkpoint\r"
      },
      "getInvestorsSubsetAt(uint256,uint256,uint256)": {
        "notice": "returns an array of investors with non zero balance at a given checkpoint\r"
      },
      "getModule(address)": {
        "notice": "Returns the data associated to a module\r"
      },
      "getModulesByName(bytes32)": {
        "notice": "Returns a list of modules that match the provided name\r"
      },
      "getModulesByType(uint8)": {
        "notice": "Returns a list of modules that match the provided module type\r"
      },
      "getTreasuryWallet()": {
        "notice": "use to return the global treasury wallet\r"
      },
      "getVersion()": {
        "notice": "Returns the version of the SecurityToken\r"
      },
      "isIssuable()": {
        "notice": "A security token issuer can specify that issuance has finished for the token\r (i.e. no new tokens can be minted or issued).\r"
      },
      "isOperator(address,address)": {
        "notice": "Determines whether `_operator` is an operator for all partitions of `_tokenHolder`\r"
      },
      "isOperatorForPartition(bytes32,address,address)": {
        "notice": "Determines whether `_operator` is an operator for a specified partition of `_tokenHolder`\r"
      },
      "iterateInvestors(uint256,uint256)": {
        "notice": "generates subset of investors\r NB - can be used in batches if investor list is large. start and end both are included in array.\r"
      },
      "partitionsOf(address)": {
        "notice": "Return all partitions\r"
      },
      "totalSupplyAt(uint256)": {
        "notice": "Queries totalSupply as of a defined checkpoint\r"
      }
    },
    "notice": "SecurityToken is an ERC1400 token with added capabilities:\r- Implements the ERC1400 Interface\r- Transfers are restricted\r- Modules can be attached to it to control its behaviour\r- ST should not be deployed directly, but rather the SecurityTokenRegistry should be used\r- ST does not inherit from ISecurityToken due to:\r- https://github.com/ethereum/solidity/issues/4847\r"
  }
}