{
  "contractName": "MockPolyOracle",
  "abi": [
    {
      "constant": false,
      "inputs": [
        {
          "name": "_price",
          "type": "uint256"
        }
      ],
      "name": "setPOLYUSD",
      "outputs": [],
      "payable": false,
      "stateMutability": "nonpayable",
      "type": "function"
    },
    {
      "constant": false,
      "inputs": [
        {
          "name": "_requestId",
          "type": "bytes32"
        },
        {
          "name": "_result",
          "type": "string"
        }
      ],
      "name": "__callback",
      "outputs": [],
      "payable": false,
      "stateMutability": "nonpayable",
      "type": "function"
    },
    {
      "constant": true,
      "inputs": [],
      "name": "staleTime",
      "outputs": [
        {
          "name": "",
          "type": "uint256"
        }
      ],
      "payable": false,
      "stateMutability": "view",
      "type": "function"
    },
    {
      "constant": false,
      "inputs": [
        {
          "name": "_myid",
          "type": "bytes32"
        },
        {
          "name": "_result",
          "type": "string"
        },
        {
          "name": "_proof",
          "type": "bytes"
        }
      ],
      "name": "__callback",
      "outputs": [],
      "payable": false,
      "stateMutability": "nonpayable",
      "type": "function"
    },
    {
      "constant": true,
      "inputs": [
        {
          "name": "",
          "type": "bytes32"
        }
      ],
      "name": "ignoreRequestIds",
      "outputs": [
        {
          "name": "",
          "type": "bool"
        }
      ],
      "payable": false,
      "stateMutability": "view",
      "type": "function"
    },
    {
      "constant": false,
      "inputs": [
        {
          "name": "_admin",
          "type": "address"
        },
        {
          "name": "_valid",
          "type": "bool"
        }
      ],
      "name": "setAdmin",
      "outputs": [],
      "payable": false,
      "stateMutability": "nonpayable",
      "type": "function"
    },
    {
      "constant": true,
      "inputs": [],
      "name": "oracleURL",
      "outputs": [
        {
          "name": "",
          "type": "string"
        }
      ],
      "payable": false,
      "stateMutability": "view",
      "type": "function"
    },
    {
      "constant": false,
      "inputs": [
        {
          "name": "_oracleQueryType",
          "type": "string"
        }
      ],
      "name": "setOracleQueryType",
      "outputs": [],
      "payable": false,
      "stateMutability": "nonpayable",
      "type": "function"
    },
    {
      "constant": false,
      "inputs": [
        {
          "name": "_oraclizeTimeTolerance",
          "type": "uint256"
        }
      ],
      "name": "setOraclizeTimeTolerance",
      "outputs": [],
      "payable": false,
      "stateMutability": "nonpayable",
      "type": "function"
    },
    {
      "constant": true,
      "inputs": [],
      "name": "oraclizeTimeTolerance",
      "outputs": [
        {
          "name": "",
          "type": "uint256"
        }
      ],
      "payable": false,
      "stateMutability": "view",
      "type": "function"
    },
    {
      "constant": true,
      "inputs": [],
      "name": "getCurrencySymbol",
      "outputs": [
        {
          "name": "",
          "type": "bytes32"
        }
      ],
      "payable": false,
      "stateMutability": "view",
      "type": "function"
    },
    {
      "constant": true,
      "inputs": [
        {
          "name": "",
          "type": "address"
        }
      ],
      "name": "admin",
      "outputs": [
        {
          "name": "",
          "type": "bool"
        }
      ],
      "payable": false,
      "stateMutability": "view",
      "type": "function"
    },
    {
      "constant": true,
      "inputs": [],
      "name": "oracleQueryType",
      "outputs": [
        {
          "name": "",
          "type": "string"
        }
      ],
      "payable": false,
      "stateMutability": "view",
      "type": "function"
    },
    {
      "constant": false,
      "inputs": [],
      "name": "renounceOwnership",
      "outputs": [],
      "payable": false,
      "stateMutability": "nonpayable",
      "type": "function"
    },
    {
      "constant": false,
      "inputs": [
        {
          "name": "_staleTime",
          "type": "uint256"
        }
      ],
      "name": "setStaleTime",
      "outputs": [],
      "payable": false,
      "stateMutability": "nonpayable",
      "type": "function"
    },
    {
      "constant": true,
      "inputs": [
        {
          "name": "",
          "type": "bytes32"
        }
      ],
      "name": "requestIds",
      "outputs": [
        {
          "name": "",
          "type": "uint256"
        }
      ],
      "payable": false,
      "stateMutability": "view",
      "type": "function"
    },
    {
      "constant": false,
      "inputs": [
        {
          "name": "_requestIds",
          "type": "bytes32[]"
        },
        {
          "name": "_ignore",
          "type": "bool[]"
        }
      ],
      "name": "setIgnoreRequestIds",
      "outputs": [],
      "payable": false,
      "stateMutability": "nonpayable",
      "type": "function"
    },
    {
      "constant": true,
      "inputs": [],
      "name": "owner",
      "outputs": [
        {
          "name": "",
          "type": "address"
        }
      ],
      "payable": false,
      "stateMutability": "view",
      "type": "function"
    },
    {
      "constant": true,
      "inputs": [],
      "name": "isOwner",
      "outputs": [
        {
          "name": "",
          "type": "bool"
        }
      ],
      "payable": false,
      "stateMutability": "view",
      "type": "function"
    },
    {
      "constant": false,
      "inputs": [
        {
          "name": "_oracleURL",
          "type": "string"
        }
      ],
      "name": "setOracleURL",
      "outputs": [],
      "payable": false,
      "stateMutability": "nonpayable",
      "type": "function"
    },
    {
      "constant": false,
      "inputs": [],
      "name": "getPrice",
      "outputs": [
        {
          "name": "",
          "type": "uint256"
        }
      ],
      "payable": false,
      "stateMutability": "nonpayable",
      "type": "function"
    },
    {
      "constant": false,
      "inputs": [
        {
          "name": "_times",
          "type": "uint256[]"
        }
      ],
      "name": "schedulePriceUpdatesFixed",
      "outputs": [],
      "payable": true,
      "stateMutability": "payable",
      "type": "function"
    },
    {
      "constant": true,
      "inputs": [],
      "name": "sanityBounds",
      "outputs": [
        {
          "name": "",
          "type": "uint256"
        }
      ],
      "payable": false,
      "stateMutability": "view",
      "type": "function"
    },
    {
      "constant": true,
      "inputs": [],
      "name": "freezeOracle",
      "outputs": [
        {
          "name": "",
          "type": "bool"
        }
      ],
      "payable": false,
      "stateMutability": "view",
      "type": "function"
    },
    {
      "constant": false,
      "inputs": [
        {
          "name": "_frozen",
          "type": "bool"
        }
      ],
      "name": "setFreezeOracle",
      "outputs": [],
      "payable": false,
      "stateMutability": "nonpayable",
      "type": "function"
    },
    {
      "constant": false,
      "inputs": [
        {
          "name": "_gasPrice",
          "type": "uint256"
        }
      ],
      "name": "setGasPrice",
      "outputs": [],
      "payable": false,
      "stateMutability": "nonpayable",
      "type": "function"
    },
    {
      "constant": true,
      "inputs": [],
      "name": "getCurrencyAddress",
      "outputs": [
        {
          "name": "",
          "type": "address"
        }
      ],
      "payable": false,
      "stateMutability": "view",
      "type": "function"
    },
    {
      "constant": false,
      "inputs": [
        {
          "name": "_startTime",
          "type": "uint256"
        },
        {
          "name": "_interval",
          "type": "uint256"
        },
        {
          "name": "_iters",
          "type": "uint256"
        }
      ],
      "name": "schedulePriceUpdatesRolling",
      "outputs": [],
      "payable": true,
      "stateMutability": "payable",
      "type": "function"
    },
    {
      "constant": true,
      "inputs": [],
      "name": "latestScheduledUpdate",
      "outputs": [
        {
          "name": "",
          "type": "uint256"
        }
      ],
      "payable": false,
      "stateMutability": "view",
      "type": "function"
    },
    {
      "constant": false,
      "inputs": [],
      "name": "drainContract",
      "outputs": [],
      "payable": false,
      "stateMutability": "nonpayable",
      "type": "function"
    },
    {
      "constant": true,
      "inputs": [],
      "name": "getCurrencyDenominated",
      "outputs": [
        {
          "name": "",
          "type": "bytes32"
        }
      ],
      "payable": false,
      "stateMutability": "view",
      "type": "function"
    },
    {
      "constant": true,
      "inputs": [],
      "name": "getPriceAndTime",
      "outputs": [
        {
          "name": "",
          "type": "uint256"
        },
        {
          "name": "",
          "type": "uint256"
        }
      ],
      "payable": false,
      "stateMutability": "view",
      "type": "function"
    },
    {
      "constant": true,
      "inputs": [],
      "name": "latestUpdate",
      "outputs": [
        {
          "name": "",
          "type": "uint256"
        }
      ],
      "payable": false,
      "stateMutability": "view",
      "type": "function"
    },
    {
      "constant": false,
      "inputs": [
        {
          "name": "_gasLimit",
          "type": "uint256"
        }
      ],
      "name": "setGasLimit",
      "outputs": [],
      "payable": false,
      "stateMutability": "nonpayable",
      "type": "function"
    },
    {
      "constant": false,
      "inputs": [
        {
          "name": "newOwner",
          "type": "address"
        }
      ],
      "name": "transferOwnership",
      "outputs": [],
      "payable": false,
      "stateMutability": "nonpayable",
      "type": "function"
    },
    {
      "constant": true,
      "inputs": [],
      "name": "gasLimit",
      "outputs": [
        {
          "name": "",
          "type": "uint256"
        }
      ],
      "payable": false,
      "stateMutability": "view",
      "type": "function"
    },
    {
      "constant": false,
      "inputs": [
        {
          "name": "_sanityBounds",
          "type": "uint256"
        }
      ],
      "name": "setSanityBounds",
      "outputs": [],
      "payable": false,
      "stateMutability": "nonpayable",
      "type": "function"
    },
    {
      "inputs": [],
      "payable": true,
      "stateMutability": "payable",
      "type": "constructor"
    },
    {
      "anonymous": false,
      "inputs": [
        {
          "indexed": false,
          "name": "_price",
          "type": "uint256"
        },
        {
          "indexed": false,
          "name": "_oldPrice",
          "type": "uint256"
        },
        {
          "indexed": false,
          "name": "_queryId",
          "type": "bytes32"
        },
        {
          "indexed": false,
          "name": "_time",
          "type": "uint256"
        }
      ],
      "name": "PriceUpdated",
      "type": "event"
    },
    {
      "anonymous": false,
      "inputs": [
        {
          "indexed": false,
          "name": "_time",
          "type": "uint256"
        },
        {
          "indexed": false,
          "name": "_queryId",
          "type": "bytes32"
        },
        {
          "indexed": false,
          "name": "_query",
          "type": "string"
        }
      ],
      "name": "NewOraclizeQuery",
      "type": "event"
    },
    {
      "anonymous": false,
      "inputs": [
        {
          "indexed": false,
          "name": "_admin",
          "type": "address"
        },
        {
          "indexed": false,
          "name": "_valid",
          "type": "bool"
        }
      ],
      "name": "AdminSet",
      "type": "event"
    },
    {
      "anonymous": false,
      "inputs": [
        {
          "indexed": false,
          "name": "_queryId",
          "type": "bytes32"
        },
        {
          "indexed": false,
          "name": "_time",
          "type": "uint256"
        },
        {
          "indexed": false,
          "name": "_result",
          "type": "string"
        }
      ],
      "name": "StalePriceUpdate",
      "type": "event"
    },
    {
      "anonymous": false,
      "inputs": [
        {
          "indexed": true,
          "name": "previousOwner",
          "type": "address"
        },
        {
          "indexed": true,
          "name": "newOwner",
          "type": "address"
        }
      ],
      "name": "OwnershipTransferred",
      "type": "event"
    }
  ],
  "bytecode": "0x6101e060405261013760808181529062003c4860a03980516200002b91600691602090910190620006e7565b506040805180820190915260068082527f6e6573746564000000000000000000000000000000000000000000000000000060209092019182526200007291600791620006e7565b506702c68af0bb140000600855620186a060095561012c600a55615460600b55600580546001600160a01b0319163317908190556040516001600160a01b0391909116906000907f8be0079c531659141344cd1fd0a4f28419497f9722a3daafe3b4186f6b6457e0908290a3620000f4640ba43b74006200012060201b60201c565b600180546001600160a01b031916736f485c8bf6fc43ea212e93bbf8ce046c7f1cb47517905562000789565b6001546001600160a01b0316158062000154575060015462000152906001600160a01b031662000320602090811b901c565b155b156200016e576200016c60006200032460201b60201c565b505b600160009054906101000a90046001600160a01b03166001600160a01b03166338cc48316040518163ffffffff1660e01b8152600401602060405180830381600087803b158015620001bf57600080fd5b505af1158015620001d4573d6000803e3d6000fd5b505050506040513d6020811015620001eb57600080fd5b50516000546001600160a01b03908116911614620002a257600160009054906101000a90046001600160a01b03166001600160a01b03166338cc48316040518163ffffffff1660e01b8152600401602060405180830381600087803b1580156200025457600080fd5b505af115801562000269573d6000803e3d6000fd5b505050506040513d60208110156200028057600080fd5b5051600080546001600160a01b0319166001600160a01b039092169190911790555b60008054604080517fca6ad1e40000000000000000000000000000000000000000000000000000000081526004810185905290516001600160a01b039092169263ca6ad1e49260248084019382900301818387803b1580156200030457600080fd5b505af115801562000319573d6000803e3d6000fd5b5050505050565b3b90565b6000620003366200033c60201b60201c565b92915050565b60008062000364731d3b2638a7cc9f2cb3d298a3da7a90b67e5506ed6200032060201b60201c565b1115620003e257600180546001600160a01b031916731d3b2638a7cc9f2cb3d298a3da7a90b67e5506ed17905560408051808201909152600b81527f6574685f6d61696e6e6574000000000000000000000000000000000000000000602080830191909152620003d99190620006ce811b901c565b506001620006cb565b60006200040973c03a2615d5efaf5f49f60b7bb6583eaec212fdf16200032060201b60201c565b11156200047e57600180546001600160a01b03191673c03a2615d5efaf5f49f60b7bb6583eaec212fdf117905560408051808201909152600c81527f6574685f726f707374656e330000000000000000000000000000000000000000602080830191909152620003d99190620006ce811b901c565b6000620004a573b7a07bcf2ba2f2703b24c0691b5278999c59ac7e6200032060201b60201c565b11156200051a57600180546001600160a01b03191673b7a07bcf2ba2f2703b24c0691b5278999c59ac7e17905560408051808201909152600981527f6574685f6b6f76616e0000000000000000000000000000000000000000000000602080830191909152620003d99190620006ce811b901c565b60006200054173146500cfd35b22e4a392fe0adc06de1a1368ed486200032060201b60201c565b1115620005b657600180546001600160a01b03191673146500cfd35b22e4a392fe0adc06de1a1368ed4817905560408051808201909152600b81527f6574685f72696e6b656279000000000000000000000000000000000000000000602080830191909152620003d99190620006ce811b901c565b6000620005dd736f485c8bf6fc43ea212e93bbf8ce046c7f1cb4756200032060201b60201c565b1115620006115750600180546001600160a01b031916736f485c8bf6fc43ea212e93bbf8ce046c7f1cb475178155620006cb565b6000620006387320e12a1f859b3feae5fb2a0a32c18f5a65555bbf6200032060201b60201c565b11156200066c5750600180546001600160a01b0319167320e12a1f859b3feae5fb2a0a32c18f5a65555bbf178155620006cb565b6000620006937351efaf4c8b3c9afbd5ab9f4bbc82784ab6ef8faa6200032060201b60201c565b1115620006c75750600180546001600160a01b0319167351efaf4c8b3c9afbd5ab9f4bbc82784ab6ef8faa178155620006cb565b5060005b90565b8051620006e3906002906020840190620006e7565b5050565b828054600181600116156101000203166002900490600052602060002090601f016020900481019282601f106200072a57805160ff19168380011785556200075a565b828001600101855582156200075a579182015b828111156200075a5782518255916020019190600101906200073d565b50620007689291506200076c565b5090565b620006cb91905b8082111562000768576000815560010162000773565b6134af80620007996000396000f3fe60806040526004361061021a5760003560e01c80638f32d59b11610123578063c21afe12116100ab578063e360a49e1161006f578063e360a49e14610b28578063ee7d72b414610b3d578063f2fde38b14610b67578063f68016b714610b9a578063fed82ef314610baf5761021a565b8063c21afe1214610a92578063c434225214610abb578063d0360e5914610ad0578063d265421914610ae5578063e139e56914610afa5761021a565b8063a489a2c7116100f2578063a489a2c7146109fd578063af91e0bf14610a12578063b0cccbc314610a27578063bf1fe42014610a53578063bfe0c27e14610a7d5761021a565b80638f32d59b1461088157806396bc5ab71461089657806398d5fdca146109475780639b4bb9f01461095c5761021a565b80635cf6208a116101a6578063715018a611610175578063715018a6146106b75780637d14c8df146106cc5780638645f7a8146106f65780638a62e9e9146107205780638da5cb5b146108505761021a565b80635cf6208a146106455780635dfc09a41461065a57806363a846f81461066f57806370f4c18c146106a25761021a565b80633b30ef1c116101ed5780633b30ef1c146104675780634b0bddd2146104a55780634b6ea677146104e05780635525d87f1461056a578063554600fa1461061b5761021a565b80630f71590c1461021f57806327dc297e1461024b57806338b880521461030357806338bbfa501461032a575b600080fd5b34801561022b57600080fd5b506102496004803603602081101561024257600080fd5b5035610bd9565b005b34801561025757600080fd5b506102496004803603604081101561026e57600080fd5b81359190810190604081016020820135600160201b81111561028f57600080fd5b8201836020820111156102a157600080fd5b803590602001918460018302840111600160201b831117156102c257600080fd5b91908080601f016020809104026020016040519081016040528093929190818152602001838380828437600092019190915250929550610c3c945050505050565b34801561030f57600080fd5b50610318611089565b60408051918252519081900360200190f35b34801561033657600080fd5b506102496004803603606081101561034d57600080fd5b81359190810190604081016020820135600160201b81111561036e57600080fd5b82018360208201111561038057600080fd5b803590602001918460018302840111600160201b831117156103a157600080fd5b91908080601f0160208091040260200160405190810160405280939291908181526020018383808284376000920191909152509295949360208101935035915050600160201b8111156103f357600080fd5b82018360208201111561040557600080fd5b803590602001918460018302840111600160201b8311171561042657600080fd5b91908080601f01602080910402602001604051908101604052809392919081815260200183838082843760009201919091525092955061108f945050505050565b34801561047357600080fd5b506104916004803603602081101561048a57600080fd5b5035611094565b604080519115158252519081900360200190f35b3480156104b157600080fd5b50610249600480360360408110156104c857600080fd5b506001600160a01b03813516906020013515156110a9565b3480156104ec57600080fd5b506104f561111e565b6040805160208082528351818301528351919283929083019185019080838360005b8381101561052f578181015183820152602001610517565b50505050905090810190601f16801561055c5780820380516001836020036101000a031916815260200191505b509250505060405180910390f35b34801561057657600080fd5b506102496004803603602081101561058d57600080fd5b810190602081018135600160201b8111156105a757600080fd5b8201836020820111156105b957600080fd5b803590602001918460018302840111600160201b831117156105da57600080fd5b91908080601f0160208091040260200160405190810160405280939291908181526020018383808284376000920191909152509295506111ac945050505050565b34801561062757600080fd5b506102496004803603602081101561063e57600080fd5b50356111d0565b34801561065157600080fd5b506103186111e6565b34801561066657600080fd5b506103186111ec565b34801561067b57600080fd5b506104916004803603602081101561069257600080fd5b50356001600160a01b03166111fb565b3480156106ae57600080fd5b506104f5611210565b3480156106c357600080fd5b5061024961126b565b3480156106d857600080fd5b50610249600480360360208110156106ef57600080fd5b50356112c6565b34801561070257600080fd5b506103186004803603602081101561071957600080fd5b50356112dc565b34801561072c57600080fd5b506102496004803603604081101561074357600080fd5b810190602081018135600160201b81111561075d57600080fd5b82018360208201111561076f57600080fd5b803590602001918460208302840111600160201b8311171561079057600080fd5b9190808060200260200160405190810160405280939291908181526020018383602002808284376000920191909152509295949360208101935035915050600160201b8111156107df57600080fd5b8201836020820111156107f157600080fd5b803590602001918460208302840111600160201b8311171561081257600080fd5b9190808060200260200160405190810160405280939291908181526020018383602002808284376000920191909152509295506112ee945050505050565b34801561085c57600080fd5b506108656113b9565b604080516001600160a01b039092168252519081900360200190f35b34801561088d57600080fd5b506104916113c8565b3480156108a257600080fd5b50610249600480360360208110156108b957600080fd5b810190602081018135600160201b8111156108d357600080fd5b8201836020820111156108e557600080fd5b803590602001918460018302840111600160201b8311171561090657600080fd5b91908080601f0160208091040260200160405190810160405280939291908181526020018383808284376000920191909152509295506113d9945050505050565b34801561095357600080fd5b506103186113fd565b6102496004803603602081101561097257600080fd5b810190602081018135600160201b81111561098c57600080fd5b82018360208201111561099e57600080fd5b803590602001918460208302840111600160201b831117156109bf57600080fd5b919080806020026020016040519081016040528093929190818152602001838360200280828437600092019190915250929550611464945050505050565b348015610a0957600080fd5b50610318611b79565b348015610a1e57600080fd5b50610491611b7f565b348015610a3357600080fd5b5061024960048036036020811015610a4a57600080fd5b50351515611b88565b348015610a5f57600080fd5b5061024960048036036020811015610a7657600080fd5b5035611bac565b348015610a8957600080fd5b50610865611bc9565b61024960048036036060811015610aa857600080fd5b5080359060208101359060400135611be1565b348015610ac757600080fd5b50610318611f7a565b348015610adc57600080fd5b50610249611f80565b348015610af157600080fd5b50610318611fbe565b348015610b0657600080fd5b50610b0f611fcb565b6040805192835260208301919091528051918290030190f35b348015610b3457600080fd5b50610318611fd5565b348015610b4957600080fd5b5061024960048036036020811015610b6057600080fd5b5035611fdb565b348015610b7357600080fd5b5061024960048036036020811015610b8a57600080fd5b50356001600160a01b031661206a565b348015610ba657600080fd5b50610318612084565b348015610bbb57600080fd5b5061024960048036036020811015610bd257600080fd5b503561208a565b610be16113c8565b610bea57600080fd5b600c54604080518381526020810192909252600082820152426060830152517fe52718da4f73e5fde35b624cb3d709cfe788067792a6674b1d29fa27a9048e659181900360800190a1600c5542600d55565b610c446120a0565b6001600160a01b0316336001600160a01b031614610c9657604051600160e51b62461bcd0281526004018080602001828103825260248152602001806133d76024913960400191505060405180910390fd5b60125460ff1615610cf15760408051600160e51b62461bcd02815260206004820152601060248201527f4f7261636c652069732066726f7a656e00000000000000000000000000000000604482015290519081900360640190fd5b60008281526010602052604090205460ff1615610d585760408051600160e51b62461bcd02815260206004820152601260248201527f49676e6f72696e67207265717565737449640000000000000000000000000000604482015290519081900360640190fd5b600d546000838152600f60205260409020541015610e31577f4820bed4e4d2b00f579575dc54a8494614ba28b3c4509d60d9da296fc700eb6e82600f600085815260200190815260200160002054836040518084815260200183815260200180602001828103825283818151815260200191508051906020019080838360005b83811015610df0578181015183820152602001610dd8565b50505050905090810190601f168015610e1d5780820380516001836020036101000a031916815260200191505b5094505050505060405180910390a1611085565b600d546000838152600f60205260409020541015610e995760408051600160e51b62461bcd02815260206004820152600f60248201527f526573756c74206973207374616c650000000000000000000000000000000000604482015290519081900360640190fd5b600a546000838152600f6020526040902054429091011015610f055760408051600160e51b62461bcd02815260206004820152600f60248201527f526573756c74206973206561726c790000000000000000000000000000000000604482015290519081900360640190fd5b6000610f12826012612289565b90506000610f45670de0b6b3a7640000610f39600854600c5461237c90919063ffffffff16565b9063ffffffff6123aa16565b9050600d5460001461102557600c54610f64908263ffffffff6123cc16565b821115610fbb5760408051600160e51b62461bcd02815260206004820152601360248201527f526573756c7420697320746f6f206c6172676500000000000000000000000000604482015290519081900360640190fd5b600c54610fce908263ffffffff6123de16565b8210156110255760408051600160e51b62461bcd02815260206004820152601360248201527f526573756c7420697320746f6f20736d616c6c00000000000000000000000000604482015290519081900360640190fd5b6000848152600f602090815260409182902054600d819055600c54835186815292830152818301879052606082015290517fe52718da4f73e5fde35b624cb3d709cfe788067792a6674b1d29fa27a9048e659181900360800190a150600c555b5050565b600b5481565b505050565b60106020526000908152604090205460ff1681565b6110b16113c8565b6110ba57600080fd5b6001600160a01b038216600081815260116020908152604091829020805460ff191685151590811790915582519384529083015280517fe68d2c359a771606c400cf8b87000cf5864010363d6a736e98f5047b7bbe18e99281900390910190a15050565b6006805460408051602060026001851615610100026000190190941693909304601f810184900484028201840190925281815292918301828280156111a45780601f10611179576101008083540402835291602001916111a4565b820191906000526020600020905b81548152906001019060200180831161118757829003601f168201915b505050505081565b6111b46113c8565b6111bd57600080fd5b805161108590600790602084019061333e565b6111d86113c8565b6111e157600080fd5b600a55565b600a5481565b600160e01b63504f4c59025b90565b60116020526000908152604090205460ff1681565b6007805460408051602060026001851615610100026000190190941693909304601f810184900484028201840190925281815292918301828280156111a45780601f10611179576101008083540402835291602001916111a4565b6112736113c8565b61127c57600080fd5b6005546040516000916001600160a01b0316907f8be0079c531659141344cd1fd0a4f28419497f9722a3daafe3b4186f6b6457e0908390a3600580546001600160a01b0319169055565b6112ce6113c8565b6112d757600080fd5b600b55565b600f6020526000908152604090205481565b6112f66113c8565b6112ff57600080fd5b80518251146113585760408051600160e51b62461bcd02815260206004820152601b60248201527f496e636f727265637420706172616d65746572206c656e677468730000000000604482015290519081900360640190fd5b60005b825181101561108f5781818151811061137057fe5b60200260200101516010600085848151811061138857fe5b6020908102919091018101518252810191909152604001600020805460ff191691151591909117905560010161135b565b6005546001600160a01b031690565b6005546001600160a01b0316331490565b6113e16113c8565b6113ea57600080fd5b805161108590600690602084019061333e565b6000600b544203600d54101561145d5760408051600160e51b62461bcd02815260206004820152600d60248201527f496e76616c696420707269636500000000000000000000000000000000000000604482015290519081900360640190fd5b50600c5490565b3360009081526011602052604090205460ff168061149a57506114856113b9565b6001600160a01b0316336001600160a01b0316145b6114ee5760408051600160e51b62461bcd02815260206004820152601d60248201527f41646472657373206973206e6f742061646d696e206f72206f776e6572000000604482015290519081900360640190fd5b6000808251600014156117eb576007805460408051602060026001851615610100026000190190941693909304601f8101849004840282018401909252818152303193611597939192909183018282801561158a5780601f1061155f5761010080835404028352916020019161158a565b820191906000526020600020905b81548152906001019060200180831161156d57829003601f168201915b50505050506009546123f3565b11156115e55760408051600160e51b62461bcd0281526020600482015260126024820152600160701b71496e73756666696369656e742046756e647302604482015290519081900360640190fd5b60078054604080516020601f6002600019610100600188161502019095169490940493840181900481028201810190925282815261170d93909290918301828280156116725780601f1061164757610100808354040283529160200191611672565b820191906000526020600020905b81548152906001019060200180831161165557829003601f168201915b505060068054604080516020601f60026000196101006001881615020190951694909404938401819004810282018101909252828152955091935091508301828280156117005780601f106116d557610100808354040283529160200191611700565b820191906000526020600020905b8154815290600101906020018083116116e357829003601f168201915b505050505060095461264e565b6000818152600f602090815260409182902042908190558251818152918201849052606092820183815260068054600260001961010060018416150201909116049484018590529496509094507ee3eb546a464d4cd17c94e178affa19e7c26b6881450afc71626dbe9fb5c63593859387939192906080830190849080156117d65780601f106117ab576101008083540402835291602001916117d6565b820191906000526020600020905b8154815290600101906020018083116117b957829003601f168201915b505094505050505060405180910390a1611b68565b82516007805460408051602060026001851615610100026000190190941693909304601f810184900484028201840190925281815230319493611852939192909183018282801561158a5780601f1061155f5761010080835404028352916020019161158a565b0211156118a15760408051600160e51b62461bcd0281526020600482015260126024820152600160701b71496e73756666696369656e742046756e647302604482015290519081900360640190fd5b60005b8351811015611b6657428482815181106118ba57fe5b6020026020010151101561190257604051600160e51b62461bcd02815260040180806020018281038252604e815260200180613436604e913960600191505060405180910390fd5b611a3d84828151811061191157fe5b6020908102919091018101516007805460408051601f6002600019610100600187161502019094169390930492830186900486028101860190915281815292938301828280156119a25780601f10611977576101008083540402835291602001916119a2565b820191906000526020600020905b81548152906001019060200180831161198557829003601f168201915b505060068054604080516020601f6002600019610100600188161502019095169490940493840181900481028201810190925282815295509193509150830182828015611a305780601f10611a0557610100808354040283529160200191611a30565b820191906000526020600020905b815481529060010190602001808311611a1357829003601f168201915b5050505050600954612a1c565b9250838181518110611a4b57fe5b6020908102919091018101516000858152600f9092526040909120819055821015611a82576000838152600f602052604090205491505b7ee3eb546a464d4cd17c94e178affa19e7c26b6881450afc71626dbe9fb5c635848281518110611aae57fe5b60200260200101518460066040518084815260200183815260200180602001828103825283818154600181600116156101000203166002900481526020019150805460018160011615610100020316600290048015611b4e5780601f10611b2357610100808354040283529160200191611b4e565b820191906000526020600020905b815481529060010190602001808311611b3157829003601f168201915b505094505050505060405180910390a16001016118a4565b505b80600e54101561108f57600e555050565b60085481565b60125460ff1681565b611b906113c8565b611b9957600080fd5b6012805460ff1916911515919091179055565b611bb46113c8565b611bbd57600080fd5b611bc681612df6565b50565b739992ec3cf6a55b00978cddf2b27bc6882d88d1ec90565b3360009081526011602052604090205460ff1680611c175750611c026113b9565b6001600160a01b0316336001600160a01b0316145b611c6b5760408051600160e51b62461bcd02815260206004820152601d60248201527f41646472657373206973206e6f742061646d696e206f72206f776e6572000000604482015290519081900360640190fd5b6000808311611cae57604051600160e51b62461bcd02815260040180806020018281038252603b8152602001806133fb603b913960400191505060405180910390fd5b60008211611d065760408051600160e51b62461bcd02815260206004820152601760248201527f4e6f20697465726174696f6e7320737065636966696564000000000000000000604482015290519081900360640190fd5b42841015611d4857604051600160e51b62461bcd02815260040180806020018281038252604e815260200180613436604e913960600191505060405180910390fd5b60078054604080516020601f600260001961010060018816150201909516949094049384018190048102820181019092528281523031938693611dab9383018282801561158a5780601f1061155f5761010080835404028352916020019161158a565b021115611dfa5760408051600160e51b62461bcd0281526020600482015260126024820152600160701b71496e73756666696369656e742046756e647302604482015290519081900360640190fd5b60005b82811015611f485760078054604080516020601f60026000196101006001881615020190951694909404938401819004810282018101909252828152848802890193611e6b9385938301828280156119a25780601f10611977576101008083540402835291602001916119a2565b6000818152600f60209081526040918290208490558151848152908101839052606091810182815260068054600260001961010060018416150201909116049383018490529396507ee3eb546a464d4cd17c94e178affa19e7c26b6881450afc71626dbe9fb5c6359385938893919290608083019084908015611f2f5780601f10611f0457610100808354040283529160200191611f2f565b820191906000526020600020905b815481529060010190602001808311611f1257829003601f168201915b505094505050505060405180910390a150600101611dfd565b506000818152600f6020526040902054600e541015611f74576000818152600f6020526040902054600e555b50505050565b600e5481565b611f886113c8565b611f9157600080fd5b6040513390303180156108fc02916000818181858888f19350505050158015611bc6573d6000803e3d6000fd5b600160ea1b621554d10290565b600c54600d549091565b600d5481565b3360009081526011602052604090205460ff16806120115750611ffc6113b9565b6001600160a01b0316336001600160a01b0316145b6120655760408051600160e51b62461bcd02815260206004820152601d60248201527f41646472657373206973206e6f742061646d696e206f72206f776e6572000000604482015290519081900360640190fd5b600955565b6120726113c8565b61207b57600080fd5b611bc681612fc4565b60095481565b6120926113c8565b61209b57600080fd5b600855565b6001546000906001600160a01b031615806120cd57506001546120cb906001600160a01b0316613033565b155b156120de576120dc6000613037565b505b600160009054906101000a90046001600160a01b03166001600160a01b03166338cc48316040518163ffffffff1660e01b8152600401602060405180830381600087803b15801561212e57600080fd5b505af1158015612142573d6000803e3d6000fd5b505050506040513d602081101561215857600080fd5b50516000546001600160a01b0390811691161461220b57600160009054906101000a90046001600160a01b03166001600160a01b03166338cc48316040518163ffffffff1660e01b8152600401602060405180830381600087803b1580156121bf57600080fd5b505af11580156121d3573d6000803e3d6000fd5b505050506040513d60208110156121e957600080fd5b5051600080546001600160a01b0319166001600160a01b039092169190911790555b6000809054906101000a90046001600160a01b03166001600160a01b031663c281d19e6040518163ffffffff1660e01b815260040160206040518083038186803b15801561225857600080fd5b505afa15801561226c573d6000803e3d6000fd5b505050506040513d602081101561228257600080fd5b5051905090565b6000828180805b83518110156123615760308482815181106122a757fe5b602001015160f81c60f81b60f81c60ff16101580156122e3575060398482815181106122cf57fe5b602001015160f81c60f81b60f81c60ff1611155b1561232f57811561230057856122f857612361565b600019909501945b600a83029250603084828151811061231457fe5b602001015160f81c60f81b60f81c60ff160383019250612359565b83818151811061233b57fe5b602001015160f81c60f81b60f81c60ff16602e141561235957600191505b600101612290565b5084156123715784600a0a820291505b509150505b92915050565b60008261238b57506000612376565b8282028284828161239857fe5b04146123a357600080fd5b9392505050565b60008082116123b857600080fd5b60008284816123c357fe5b04949350505050565b6000828201838110156123a357600080fd5b6000828211156123ed57600080fd5b50900390565b6001546000906001600160a01b03161580612420575060015461241e906001600160a01b0316613033565b155b156124315761242f6000613037565b505b600160009054906101000a90046001600160a01b03166001600160a01b03166338cc48316040518163ffffffff1660e01b8152600401602060405180830381600087803b15801561248157600080fd5b505af1158015612495573d6000803e3d6000fd5b505050506040513d60208110156124ab57600080fd5b50516000546001600160a01b0390811691161461255e57600160009054906101000a90046001600160a01b03166001600160a01b03166338cc48316040518163ffffffff1660e01b8152600401602060405180830381600087803b15801561251257600080fd5b505af1158015612526573d6000803e3d6000fd5b505050506040513d602081101561253c57600080fd5b5051600080546001600160a01b0319166001600160a01b039092169190911790555b6000805460408051600160e21b630bbceb3302815260248101869052600481019182528651604482015286516001600160a01b0390931693632ef3accc93889388939092839260649092019160208701918190849084905b838110156125ce5781810151838201526020016125b6565b50505050905090810190601f1680156125fb5780820380516001836020036101000a031916815260200191505b509350505050602060405180830381600087803b15801561261b57600080fd5b505af115801561262f573d6000803e3d6000fd5b505050506040513d602081101561264557600080fd5b50519392505050565b6001546000906001600160a01b0316158061267b5750600154612679906001600160a01b0316613033565b155b1561268c5761268a6000613037565b505b600160009054906101000a90046001600160a01b03166001600160a01b03166338cc48316040518163ffffffff1660e01b8152600401602060405180830381600087803b1580156126dc57600080fd5b505af11580156126f0573d6000803e3d6000fd5b505050506040513d602081101561270657600080fd5b50516000546001600160a01b039081169116146127b957600160009054906101000a90046001600160a01b03166001600160a01b03166338cc48316040518163ffffffff1660e01b8152600401602060405180830381600087803b15801561276d57600080fd5b505af1158015612781573d6000803e3d6000fd5b505050506040513d602081101561279757600080fd5b5051600080546001600160a01b0319166001600160a01b039092169190911790555b6000805460408051600160e21b630bbceb3302815260248101869052600481019182528751604482015287516001600160a01b0390931692632ef3accc928992889282916064019060208601908083838c5b8381101561282357818101518382015260200161280b565b50505050905090810190601f1680156128505780820380516001836020036101000a031916815260200191505b509350505050602060405180830381600087803b15801561287057600080fd5b505af1158015612884573d6000803e3d6000fd5b505050506040513d602081101561289a57600080fd5b50519050670de0b6b3a76400003a8402018111156128bc5750600090506123a3565b60008054604051600160e01b63c51be90f02815260048101838152606482018790526080602483019081528951608484015289516001600160a01b039094169463c51be90f94879491938c938c938c93604482019160a4019060208801908083838c5b8381101561293757818101518382015260200161291f565b50505050905090810190601f1680156129645780820380516001836020036101000a031916815260200191505b50838103825285518152855160209182019187019080838360005b8381101561299757818101518382015260200161297f565b50505050905090810190601f1680156129c45780820380516001836020036101000a031916815260200191505b5096505050505050506020604051808303818588803b1580156129e657600080fd5b505af11580156129fa573d6000803e3d6000fd5b50505050506040513d6020811015612a1157600080fd5b505195945050505050565b6001546000906001600160a01b03161580612a495750600154612a47906001600160a01b0316613033565b155b15612a5a57612a586000613037565b505b600160009054906101000a90046001600160a01b03166001600160a01b03166338cc48316040518163ffffffff1660e01b8152600401602060405180830381600087803b158015612aaa57600080fd5b505af1158015612abe573d6000803e3d6000fd5b505050506040513d6020811015612ad457600080fd5b50516000546001600160a01b03908116911614612b8757600160009054906101000a90046001600160a01b03166001600160a01b03166338cc48316040518163ffffffff1660e01b8152600401602060405180830381600087803b158015612b3b57600080fd5b505af1158015612b4f573d6000803e3d6000fd5b505050506040513d6020811015612b6557600080fd5b5051600080546001600160a01b0319166001600160a01b039092169190911790555b6000805460408051600160e21b630bbceb3302815260248101869052600481019182528751604482015287516001600160a01b0390931692632ef3accc928992889282916064019060208601908083838c5b83811015612bf1578181015183820152602001612bd9565b50505050905090810190601f168015612c1e5780820380516001836020036101000a031916815260200191505b509350505050602060405180830381600087803b158015612c3e57600080fd5b505af1158015612c52573d6000803e3d6000fd5b505050506040513d6020811015612c6857600080fd5b50519050670de0b6b3a76400003a840201811115612c8a575060009050612dee565b6000809054906101000a90046001600160a01b03166001600160a01b031663c51be90f82888888886040518663ffffffff1660e01b8152600401808581526020018060200180602001848152602001838103835286818151815260200191508051906020019080838360005b83811015612d0e578181015183820152602001612cf6565b50505050905090810190601f168015612d3b5780820380516001836020036101000a031916815260200191505b50838103825285518152855160209182019187019080838360005b83811015612d6e578181015183820152602001612d56565b50505050905090810190601f168015612d9b5780820380516001836020036101000a031916815260200191505b5096505050505050506020604051808303818588803b158015612dbd57600080fd5b505af1158015612dd1573d6000803e3d6000fd5b50505050506040513d6020811015612de857600080fd5b50519150505b949350505050565b6001546001600160a01b03161580612e205750600154612e1e906001600160a01b0316613033565b155b15612e3157612e2f6000613037565b505b600160009054906101000a90046001600160a01b03166001600160a01b03166338cc48316040518163ffffffff1660e01b8152600401602060405180830381600087803b158015612e8157600080fd5b505af1158015612e95573d6000803e3d6000fd5b505050506040513d6020811015612eab57600080fd5b50516000546001600160a01b03908116911614612f5e57600160009054906101000a90046001600160a01b03166001600160a01b03166338cc48316040518163ffffffff1660e01b8152600401602060405180830381600087803b158015612f1257600080fd5b505af1158015612f26573d6000803e3d6000fd5b505050506040513d6020811015612f3c57600080fd5b5051600080546001600160a01b0319166001600160a01b039092169190911790555b6000805460408051600160e21b63329ab4790281526004810185905290516001600160a01b039092169263ca6ad1e49260248084019382900301818387803b158015612fa957600080fd5b505af1158015612fbd573d6000803e3d6000fd5b5050505050565b6001600160a01b038116612fd757600080fd5b6005546040516001600160a01b038084169216907f8be0079c531659141344cd1fd0a4f28419497f9722a3daafe3b4186f6b6457e090600090a3600580546001600160a01b0319166001600160a01b0392909216919091179055565b3b90565b600061237660008061305c731d3b2638a7cc9f2cb3d298a3da7a90b67e5506ed613033565b11156130be57600180546001600160a01b031916731d3b2638a7cc9f2cb3d298a3da7a90b67e5506ed17905560408051808201909152600b8152600160aa1b6a195d1a17db585a5b9b995d0260208201526130b69061332f565b5060016111f8565b60006130dd73c03a2615d5efaf5f49f60b7bb6583eaec212fdf1613033565b111561314657600180546001600160a01b03191673c03a2615d5efaf5f49f60b7bb6583eaec212fdf117905560408051808201909152600c81527f6574685f726f707374656e33000000000000000000000000000000000000000060208201526130b69061332f565b600061316573b7a07bcf2ba2f2703b24c0691b5278999c59ac7e613033565b11156131bd57600180546001600160a01b03191673b7a07bcf2ba2f2703b24c0691b5278999c59ac7e1790556040805180820190915260098152600160b91b6832ba342fb5b7bb30b70260208201526130b69061332f565b60006131dc73146500cfd35b22e4a392fe0adc06de1a1368ed48613033565b111561323657600180546001600160a01b03191673146500cfd35b22e4a392fe0adc06de1a1368ed4817905560408051808201909152600b8152600160a81b6a6574685f72696e6b6562790260208201526130b69061332f565b6000613255736f485c8bf6fc43ea212e93bbf8ce046c7f1cb475613033565b11156132875750600180546001600160a01b031916736f485c8bf6fc43ea212e93bbf8ce046c7f1cb4751781556111f8565b60006132a67320e12a1f859b3feae5fb2a0a32c18f5a65555bbf613033565b11156132d85750600180546001600160a01b0319167320e12a1f859b3feae5fb2a0a32c18f5a65555bbf1781556111f8565b60006132f77351efaf4c8b3c9afbd5ab9f4bbc82784ab6ef8faa613033565b11156133295750600180546001600160a01b0319167351efaf4c8b3c9afbd5ab9f4bbc82784ab6ef8faa1781556111f8565b50600090565b80516110859060029060208401905b828054600181600116156101000203166002900490600052602060002090601f016020900481019282601f1061337f57805160ff19168380011785556133ac565b828001600101855582156133ac579182015b828111156133ac578251825591602001919060010190613391565b506133b89291506133bc565b5090565b6111f891905b808211156133b857600081556001016133c256fe4f6e6c79204f7261636c697a652063616e206163636573732074686973206d6574686f64496e74657276616c206265747765656e207363686564756c65642074696d652073686f756c642062652067726561746572207468616e207a65726f50617374207363686564756c696e67206973206e6f7420616c6c6f77656420616e64207363686564756c65642074696d652073686f756c64206265206162736f6c7574652074696d657374616d70a165627a7a72305820f5e8b783480d8eb82ee5d4b839cd24554e28366dfd66e39ef4a76498ecc721fc00295b55524c5d206a736f6e2868747470733a2f2f70726f2d6170692e636f696e6d61726b65746361702e636f6d2f76312f63727970746f63757272656e63792f71756f7465732f6c61746573743f69643d3234393626636f6e766572743d55534426434d435f50524f5f4150495f4b45593d247b5b646563727970745d20424341304271786d6e336a6b53454e6570614878517630395a2f764764454f3961704f2b423952706c48795633714f4c2f647735496e646c656933686f5872476b394731344d79384d4670484a79634237556f566e6c2b346d6c7a45736a546c53325542415956726c3066416570666953794d33302f474d5a416f4a6d446167592b3059794e5a76706b67586e3836512f35394269343850574565747d292e646174612e2232343936222e71756f74652e5553442e7072696365",
  "source": "pragma solidity 0.5.8;\r\n\r\nimport \"../oracles/PolyOracle.sol\";\r\n\r\ncontract MockPolyOracle is PolyOracle {\r\n    constructor() public payable {\r\n        OAR = OraclizeAddrResolverI(0x6f485C8BF6fc43eA212E93BBF8ce046C7f1cb475);\r\n    }\r\n\r\n}\r\n",
  "sourcePath": "C:/mspace/polymath-core/contracts/mocks/MockPolyOracle.sol",
  "compiler": {
    "name": "solc",
    "version": "0.5.8+commit.23d335f2.Emscripten.clang"
  },
  "schemaVersion": "3.0.11",
  "updatedAt": "2019-08-05T12:37:19.119Z",
  "devdoc": {
    "methods": {
      "__callback(bytes32,string)": {
        "params": {
          "_requestId": "requestId corresponding to Oraclize query\r",
          "_result": "data returned by Oraclize URL query\r"
        }
      },
      "getPriceAndTime()": {
        "return": "latest POLYUSD price\rtimestamp of latest price update\r"
      },
      "isOwner()": {
        "return": "true if `msg.sender` is the owner of the contract."
      },
      "owner()": {
        "return": "the address of the owner."
      },
      "renounceOwnership()": {
        "details": "Allows the current owner to relinquish control of the contract. It will not be possible to call the functions with the `onlyOwner` modifier anymore."
      },
      "schedulePriceUpdatesFixed(uint256[])": {
        "params": {
          "_times": "UNIX timestamps to schedule Oraclize calls as of. Empty list means trigger an immediate query.\r"
        }
      },
      "schedulePriceUpdatesRolling(uint256,uint256,uint256)": {
        "params": {
          "_interval": "how long (in seconds) between each subsequent Oraclize query\r",
          "_iters": "the number of Oraclize queries to schedule.\r",
          "_startTime": "UNIX timestamp for the first scheduled Oraclize query\r"
        }
      },
      "setAdmin(address,bool)": {
        "params": {
          "_admin": "Admin address\r",
          "_valid": "Whether address should be added or removed from admin list\r"
        }
      },
      "setFreezeOracle(bool)": {
        "params": {
          "_frozen": "true to freeze updates, false to reenable updates\r"
        }
      },
      "setGasLimit(uint256)": {
        "params": {
          "_gasLimit": "gas limit to use for Oraclize callbacks\r"
        }
      },
      "setGasPrice(uint256)": {
        "params": {
          "_gasPrice": "gas price to use for Oraclize callbacks\r"
        }
      },
      "setIgnoreRequestIds(bytes32[],bool[])": {
        "params": {
          "_ignore": "whether or not they should be ignored\r",
          "_requestIds": "Oraclize queryIds (as logged out when Oraclize query is scheduled)\r"
        }
      },
      "setOracleQueryType(string)": {
        "params": {
          "_oracleQueryType": "to use\r"
        }
      },
      "setOracleURL(string)": {
        "params": {
          "_oracleURL": "URL to use\r"
        }
      },
      "setOraclizeTimeTolerance(uint256)": {
        "params": {
          "_oraclizeTimeTolerance": "amount of time in seconds that an Oraclize query can be early\r"
        }
      },
      "setPOLYUSD(uint256)": {
        "params": {
          "_price": "POLYUSD price\r"
        }
      },
      "setSanityBounds(uint256)": {
        "params": {
          "_sanityBounds": "sanity bounds as a percentage * 10**16\r"
        }
      },
      "setStaleTime(uint256)": {
        "params": {
          "_staleTime": "elapsed time after which price is considered stale\r"
        }
      },
      "transferOwnership(address)": {
        "details": "Allows the current owner to transfer control of the contract to a newOwner.",
        "params": {
          "newOwner": "The address to transfer ownership to."
        }
      }
    }
  },
  "userdoc": {
    "methods": {
      "__callback(bytes32,string)": {
        "notice": "Oraclize callback (triggered by Oraclize)\r"
      },
      "drainContract()": {
        "notice": "Returns balance to owner\r"
      },
      "getCurrencyAddress()": {
        "notice": "Returns address of oracle currency (0x0 for ETH)\r"
      },
      "getCurrencyDenominated()": {
        "notice": "Returns denomination of price\r"
      },
      "getCurrencySymbol()": {
        "notice": "Returns symbol of oracle currency (0x0 for ETH)\r"
      },
      "getPrice()": {
        "notice": "Returns price - should throw if not valid\r"
      },
      "getPriceAndTime()": {
        "notice": "Returns price and corresponding update time\r"
      },
      "renounceOwnership()": {
        "notice": "Renouncing ownership will leave the contract without an owner, thereby removing any functionality that is only available to the owner."
      },
      "schedulePriceUpdatesFixed(uint256[])": {
        "notice": "Allows owner to schedule future Oraclize calls\r"
      },
      "schedulePriceUpdatesRolling(uint256,uint256,uint256)": {
        "notice": "Allows owner to schedule future Oraclize calls on a rolling schedule\r"
      },
      "setAdmin(address,bool)": {
        "notice": "Allows owner to set up admin addresses that can schedule updates\r"
      },
      "setFreezeOracle(bool)": {
        "notice": "Allows owner to set oracle to ignore all Oraclize pricce updates\r"
      },
      "setGasLimit(uint256)": {
        "notice": "Allows owner to set new gas limit on Oraclize queries\rNB - this will only impact newly scheduled Oraclize queries, not future queries which have already been scheduled\r"
      },
      "setGasPrice(uint256)": {
        "notice": "Allows owner to set new gas price for future Oraclize queries\rNB - this will only impact newly scheduled Oraclize queries, not future queries which have already been scheduled\r"
      },
      "setIgnoreRequestIds(bytes32[],bool[])": {
        "notice": "Allows owner to ignore specific requestId results from Oraclize\r"
      },
      "setOracleQueryType(string)": {
        "notice": "Allows owner to set type used in Oraclize queries\r"
      },
      "setOracleURL(string)": {
        "notice": "Allows owner to set URL used in Oraclize queries\r"
      },
      "setOraclizeTimeTolerance(uint256)": {
        "notice": "Allows owner to set new time tolerance on Oraclize queries\r"
      },
      "setPOLYUSD(uint256)": {
        "notice": "Allows owner to manually set POLYUSD price\r"
      },
      "setSanityBounds(uint256)": {
        "notice": "Allows owner to set new sanity bounds for price updates\r"
      },
      "setStaleTime(uint256)": {
        "notice": "Allows owner to set time after which price is considered stale\r"
      }
    }
  }
}