{
  "contractName": "MockCountTransferManager",
  "abi": [
    {
      "constant": false,
      "inputs": [],
      "name": "reclaimETH",
      "outputs": [],
      "payable": false,
      "stateMutability": "nonpayable",
      "type": "function"
    },
    {
      "constant": true,
      "inputs": [],
      "name": "getInitFunction",
      "outputs": [
        {
          "name": "",
          "type": "bytes4"
        }
      ],
      "payable": false,
      "stateMutability": "pure",
      "type": "function"
    },
    {
      "constant": false,
      "inputs": [
        {
          "name": "_maxHolderCount",
          "type": "uint256"
        }
      ],
      "name": "configure",
      "outputs": [],
      "payable": false,
      "stateMutability": "nonpayable",
      "type": "function"
    },
    {
      "constant": true,
      "inputs": [
        {
          "name": "_partition",
          "type": "bytes32"
        },
        {
          "name": "_tokenHolder",
          "type": "address"
        },
        {
          "name": "",
          "type": "uint256"
        }
      ],
      "name": "getTokensByPartition",
      "outputs": [
        {
          "name": "",
          "type": "uint256"
        }
      ],
      "payable": false,
      "stateMutability": "view",
      "type": "function"
    },
    {
      "constant": true,
      "inputs": [],
      "name": "ADMIN",
      "outputs": [
        {
          "name": "",
          "type": "bytes32"
        }
      ],
      "payable": false,
      "stateMutability": "view",
      "type": "function"
    },
    {
      "constant": false,
      "inputs": [
        {
          "name": "_from",
          "type": "address"
        },
        {
          "name": "_to",
          "type": "address"
        },
        {
          "name": "_amount",
          "type": "uint256"
        },
        {
          "name": "",
          "type": "bytes"
        }
      ],
      "name": "executeTransfer",
      "outputs": [
        {
          "name": "",
          "type": "uint8"
        }
      ],
      "payable": false,
      "stateMutability": "nonpayable",
      "type": "function"
    },
    {
      "constant": false,
      "inputs": [],
      "name": "unpause",
      "outputs": [],
      "payable": false,
      "stateMutability": "nonpayable",
      "type": "function"
    },
    {
      "constant": true,
      "inputs": [],
      "name": "someValue",
      "outputs": [
        {
          "name": "",
          "type": "uint256"
        }
      ],
      "payable": false,
      "stateMutability": "view",
      "type": "function"
    },
    {
      "constant": true,
      "inputs": [],
      "name": "paused",
      "outputs": [
        {
          "name": "",
          "type": "bool"
        }
      ],
      "payable": false,
      "stateMutability": "view",
      "type": "function"
    },
    {
      "constant": true,
      "inputs": [],
      "name": "UNLOCKED",
      "outputs": [
        {
          "name": "",
          "type": "bytes32"
        }
      ],
      "payable": false,
      "stateMutability": "view",
      "type": "function"
    },
    {
      "constant": true,
      "inputs": [],
      "name": "polyToken",
      "outputs": [
        {
          "name": "",
          "type": "address"
        }
      ],
      "payable": false,
      "stateMutability": "view",
      "type": "function"
    },
    {
      "constant": false,
      "inputs": [],
      "name": "pause",
      "outputs": [],
      "payable": false,
      "stateMutability": "nonpayable",
      "type": "function"
    },
    {
      "constant": false,
      "inputs": [
        {
          "name": "_tokenContract",
          "type": "address"
        }
      ],
      "name": "reclaimERC20",
      "outputs": [],
      "payable": false,
      "stateMutability": "nonpayable",
      "type": "function"
    },
    {
      "constant": true,
      "inputs": [],
      "name": "OPERATOR",
      "outputs": [
        {
          "name": "",
          "type": "bytes32"
        }
      ],
      "payable": false,
      "stateMutability": "view",
      "type": "function"
    },
    {
      "constant": true,
      "inputs": [],
      "name": "LOCKED",
      "outputs": [
        {
          "name": "",
          "type": "bytes32"
        }
      ],
      "payable": false,
      "stateMutability": "view",
      "type": "function"
    },
    {
      "constant": true,
      "inputs": [],
      "name": "maxHolderCount",
      "outputs": [
        {
          "name": "",
          "type": "uint256"
        }
      ],
      "payable": false,
      "stateMutability": "view",
      "type": "function"
    },
    {
      "constant": true,
      "inputs": [],
      "name": "securityToken",
      "outputs": [
        {
          "name": "",
          "type": "address"
        }
      ],
      "payable": false,
      "stateMutability": "view",
      "type": "function"
    },
    {
      "constant": true,
      "inputs": [],
      "name": "getPermissions",
      "outputs": [
        {
          "name": "",
          "type": "bytes32[]"
        }
      ],
      "payable": false,
      "stateMutability": "view",
      "type": "function"
    },
    {
      "constant": true,
      "inputs": [],
      "name": "factory",
      "outputs": [
        {
          "name": "",
          "type": "address"
        }
      ],
      "payable": false,
      "stateMutability": "view",
      "type": "function"
    },
    {
      "constant": false,
      "inputs": [
        {
          "name": "_maxHolderCount",
          "type": "uint256"
        }
      ],
      "name": "changeHolderCount",
      "outputs": [],
      "payable": false,
      "stateMutability": "nonpayable",
      "type": "function"
    },
    {
      "constant": true,
      "inputs": [
        {
          "name": "_from",
          "type": "address"
        },
        {
          "name": "_to",
          "type": "address"
        },
        {
          "name": "_amount",
          "type": "uint256"
        },
        {
          "name": "",
          "type": "bytes"
        }
      ],
      "name": "verifyTransfer",
      "outputs": [
        {
          "name": "",
          "type": "uint8"
        },
        {
          "name": "",
          "type": "bytes32"
        }
      ],
      "payable": false,
      "stateMutability": "view",
      "type": "function"
    },
    {
      "constant": true,
      "inputs": [],
      "name": "getDataStore",
      "outputs": [
        {
          "name": "",
          "type": "address"
        }
      ],
      "payable": false,
      "stateMutability": "view",
      "type": "function"
    },
    {
      "inputs": [
        {
          "name": "_securityToken",
          "type": "address"
        },
        {
          "name": "_polyToken",
          "type": "address"
        }
      ],
      "payable": false,
      "stateMutability": "nonpayable",
      "type": "constructor"
    },
    {
      "anonymous": false,
      "inputs": [
        {
          "indexed": false,
          "name": "_someData",
          "type": "uint256"
        }
      ],
      "name": "Upgrader",
      "type": "event"
    },
    {
      "anonymous": false,
      "inputs": [
        {
          "indexed": false,
          "name": "_oldHolderCount",
          "type": "uint256"
        },
        {
          "indexed": false,
          "name": "_newHolderCount",
          "type": "uint256"
        }
      ],
      "name": "ModifyHolderCount",
      "type": "event"
    },
    {
      "anonymous": false,
      "inputs": [
        {
          "indexed": false,
          "name": "account",
          "type": "address"
        }
      ],
      "name": "Pause",
      "type": "event"
    },
    {
      "anonymous": false,
      "inputs": [
        {
          "indexed": false,
          "name": "account",
          "type": "address"
        }
      ],
      "name": "Unpause",
      "type": "event"
    },
    {
      "constant": false,
      "inputs": [
        {
          "name": "_someData",
          "type": "uint256"
        }
      ],
      "name": "initialize",
      "outputs": [],
      "payable": false,
      "stateMutability": "nonpayable",
      "type": "function"
    },
    {
      "constant": false,
      "inputs": [],
      "name": "newFunction",
      "outputs": [],
      "payable": false,
      "stateMutability": "nonpayable",
      "type": "function"
    }
  ],
  "bytecode": "0x608060405260038054600160a01b60ff021916905534801561002057600080fd5b5060405160408061128e8339810180604052604081101561004057600080fd5b508051602090910151600280546001600160a01b039384166001600160a01b03199182161790915560018054821633179055600380549390921692169190911790556111fd806100916000396000f3fe608060405234801561001057600080fd5b50600436106101585760003560e01c80638456cb59116100c3578063c3a07df61161007c578063c3a07df614610357578063c45a0155146103af578063ec8cae23146103b7578063f1d74b0f146103d4578063fe4b84df146104c5578063fe58265e146104e257610158565b80638456cb59146103095780638905fd4f14610311578063983d273714610337578063a1422f691461033f578063ae89a29e14610347578063b84dfbd21461034f57610158565b80633d321731116101155780633d321731146101fd5780633f4ba83a146102b15780634a627e61146102b95780635c975abb146102c15780636c2f0d53146102dd5780636faa22a5146102e557610158565b80630f144a481461015d5780631613ec9d146101675780631b28d63e1461018c5780631eb25e0a146101945780632829e651146101b15780632a0acc6a146101f5575b600080fd5b6101656104ea565b005b61016f610522565b604080516001600160e01b03199092168252519081900360200190f35b610165610530565b610165600480360360208110156101aa57600080fd5b5035610567565b6101e3600480360360608110156101c757600080fd5b508035906001600160a01b0360208201351690604001356105ce565b60408051918252519081900360200190f35b6101e3610674565b61028d6004803603608081101561021357600080fd5b6001600160a01b0382358116926020810135909116916040820135919081019060808101606082013564010000000081111561024e57600080fd5b82018360208201111561026057600080fd5b8035906020019184600183028401116401000000008311171561028257600080fd5b509092509050610683565b6040518082600381111561029d57fe5b60ff16815260200191505060405180910390f35b610165610717565b6101e3610729565b6102c961072f565b604080519115158252519081900360200190f35b6101e361073f565b6102ed610751565b604080516001600160a01b039092168252519081900360200190f35b610165610760565b6101656004803603602081101561032757600080fd5b50356001600160a01b0316610770565b6101e361092b565b6101e361093d565b6101e361094d565b6102ed610953565b61035f610962565b60408051602080825283518183015283519192839290830191858101910280838360005b8381101561039b578181015183820152602001610383565b505050509050019250505060405180910390f35b6102ed6109b0565b610165600480360360208110156103cd57600080fd5b50356109bf565b61049a600480360360808110156103ea57600080fd5b6001600160a01b0382358116926020810135909116916040820135919081019060808101606082013564010000000081111561042557600080fd5b82018360208201111561043757600080fd5b8035906020019184600183028401116401000000008311171561045957600080fd5b91908080601f016020809104026020016040519081016040528093929190818152602001838380828437600092019190915250929550610a6c945050505050565b604051808360038111156104aa57fe5b60ff1681526020018281526020019250505060405180910390f35b610165600480360360208110156104db57600080fd5b5035610c50565b6102ed610c97565b6104f2610d10565b6040513390303180156108fc02916000818181858888f1935050505015801561051f573d6000803e3d6000fd5b50565b600160e11b630f592f050290565b60005460408051918252517fbf3765749590e868cb7009aaa3187e4ea3d4a89beaaebbaf23727fa99b2427d39181900360200190a1565b6001546001600160a01b031633146105c95760408051600160e51b62461bcd02815260206004820152601560248201527f53656e646572206973206e6f7420666163746f72790000000000000000000000604482015290519081900360640190fd5b600055565b6000600160c21b6715539313d0d2d151028414156106695760025460408051600160e01b6370a082310281526001600160a01b038681166004830152915191909216916370a08231916024808301926020929190829003018186803b15801561063657600080fd5b505afa15801561064a573d6000803e3d6000fd5b505050506040513d602081101561066057600080fd5b5051905061066d565b5060005b9392505050565b600160d91b6420a226a4a70281565b60008061070b878787600260009054906101000a90046001600160a01b03166001600160a01b0316631aab9a9f6040518163ffffffff1660e01b815260040160206040518083038186803b1580156106da57600080fd5b505afa1580156106ee573d6000803e3d6000fd5b505050506040513d602081101561070457600080fd5b5051610de9565b50979650505050505050565b61071f610d10565b610727610f48565b565b60045481565b600354600160a01b900460ff1681565b600160c21b6715539313d0d2d1510281565b6003546001600160a01b031681565b610768610d10565b610727610fee565b610778610d10565b6001600160a01b0381166107d65760408051600160e51b62461bcd02815260206004820152600f60248201527f496e76616c696420616464726573730000000000000000000000000000000000604482015290519081900360640190fd5b60408051600160e01b6370a08231028152306004820152905182916000916001600160a01b038416916370a08231916024808301926020929190829003018186803b15801561082457600080fd5b505afa158015610838573d6000803e3d6000fd5b505050506040513d602081101561084e57600080fd5b505160408051600160e01b63a9059cbb0281523360048201526024810183905290519192506001600160a01b0384169163a9059cbb916044808201926020929091908290030181600087803b1580156108a657600080fd5b505af11580156108ba573d6000803e3d6000fd5b505050506040513d60208110156108d057600080fd5b50516109265760408051600160e51b62461bcd02815260206004820152600f60248201527f5472616e73666572206661696c65640000000000000000000000000000000000604482015290519081900360640190fd5b505050565b600160c11b6727a822a920aa27a90281565b600160d21b651313d0d2d1510281565b60005481565b6002546001600160a01b031681565b60408051600180825281830190925260609182919060208083019080388339019050509050600160d91b6420a226a4a702816000815181106109a057fe5b6020908102919091010152905090565b6001546001600160a01b031681565b600160d91b6420a226a4a7026109d5813361109b565b610a295760408051600160e51b62461bcd02815260206004820152601260248201527f496e76616c6964207065726d697373696f6e0000000000000000000000000000604482015290519081900360640190fd5b600054604080519182526020820184905280517f99457ea455e79a3ce66ecbb56191a2ec1f39507fdb6ec11d0497aaa9668c26249281900390910190a150600055565b6000806000600260009054906101000a90046001600160a01b03166001600160a01b0316631aab9a9f6040518163ffffffff1660e01b815260040160206040518083038186803b158015610abf57600080fd5b505afa158015610ad3573d6000803e3d6000fd5b505050506040513d6020811015610ae957600080fd5b505190508415801590610b0e5750856001600160a01b0316876001600160a01b031614155b15610c35576001600160a01b03861615801590610ba4575060025460408051600160e01b6370a082310281526001600160a01b038981166004830152915191909216916370a08231916024808301926020929190829003018186803b158015610b7657600080fd5b505afa158015610b8a573d6000803e3d6000fd5b505050506040513d6020811015610ba057600080fd5b5051155b15610bad576001015b60025460408051600160e01b6370a082310281526001600160a01b038a81166004830152915191909216916370a08231916024808301926020929190829003018186803b158015610bfd57600080fd5b505afa158015610c11573d6000803e3d6000fd5b505050506040513d6020811015610c2757600080fd5b5051851415610c3557600019015b610c4187878784610de9565b92509250505b94509492505050565b333014610c5c57600080fd5b60048190556040805182815290517fbf3765749590e868cb7009aaa3187e4ea3d4a89beaaebbaf23727fa99b2427d39181900360200190a150565b60025460408051600160e01b63660d0d6702815290516000926001600160a01b03169163660d0d67916004808301926020929190829003018186803b158015610cdf57600080fd5b505afa158015610cf3573d6000803e3d6000fd5b505050506040513d6020811015610d0957600080fd5b5051905090565b600260009054906101000a90046001600160a01b03166001600160a01b0316638da5cb5b6040518163ffffffff1660e01b815260040160206040518083038186803b158015610d5e57600080fd5b505afa158015610d72573d6000803e3d6000fd5b505050506040513d6020811015610d8857600080fd5b50516001600160a01b031633146107275760408051600160e51b62461bcd02815260206004820152601360248201527f53656e646572206973206e6f74206f776e657200000000000000000000000000604482015290519081900360640190fd5b6003546000908190600160a01b900460ff16610f3957826000541015610f2d5760025460408051600160e01b6370a082310281526001600160a01b038881166004830152915191909216916370a08231916024808301926020929190829003018186803b158015610e5957600080fd5b505afa158015610e6d573d6000803e3d6000fd5b505050506040513d6020811015610e8357600080fd5b5051151580610f0e575060025460408051600160e01b6370a082310281526001600160a01b0389811660048301529151879392909216916370a0823191602480820192602092909190829003018186803b158015610ee057600080fd5b505afa158015610ef4573d6000803e3d6000fd5b505050506040513d6020811015610f0a57600080fd5b5051145b15610f1f5750600190506000610c47565b50600090503060601b610c47565b50600190506000610c47565b50600195600095509350505050565b600354600160a01b900460ff16610fa95760408051600160e51b62461bcd02815260206004820152601660248201527f436f6e7472616374206973206e6f742070617573656400000000000000000000604482015290519081900360640190fd5b60038054600160a01b60ff02191690556040805133815290517faeb196d352664784d1900b0e7414a8face7d29f4dae8c4b0cf68ed477423bbf49181900360200190a1565b600354600160a01b900460ff16156110505760408051600160e51b62461bcd02815260206004820152601260248201527f436f6e7472616374206973207061757365640000000000000000000000000000604482015290519081900360640190fd5b60038054600160a01b60ff021916600160a01b1790556040805133815290517f5ee71a369c8672edded508e624ffc9257fa1ae6886ef32905c18e60196bca3999181900360200190a1565b600080600260009054906101000a90046001600160a01b03166001600160a01b0316638da5cb5b6040518163ffffffff1660e01b815260040160206040518083038186803b1580156110ec57600080fd5b505afa158015611100573d6000803e3d6000fd5b505050506040513d602081101561111657600080fd5b50516001546001600160a01b0385811692811683149350161481806111385750805b806111c8575060025460408051600160e01b638658b8b90281526001600160a01b0387811660048301523060248301526044820189905291519190921691638658b8b9916064808301926020929190829003018186803b15801561119b57600080fd5b505afa1580156111af573d6000803e3d6000fd5b505050506040513d60208110156111c557600080fd5b50515b9594505050505056fea165627a7a72305820868b505b9ca5997b8f89eac0ea73258cd2f0f967359008e822569dd2e6cfae3b0029",
  "source": "pragma solidity 0.5.8;\r\n\r\nimport \"../modules/TransferManager/CTM/CountTransferManager.sol\";\r\n\r\n/**\r\n * @title Transfer Manager for limiting maximum number of token holders\r\n */\r\ncontract MockCountTransferManager is CountTransferManager {\r\n\r\n    event Upgrader(uint256 _someData);\r\n    uint256 public someValue;\r\n\r\n    /**\r\n     * @notice Constructor\r\n     * @param _securityToken Address of the security token\r\n     */\r\n    constructor(address _securityToken, address _polyToken) public CountTransferManager(_securityToken, _polyToken) {\r\n\r\n    }\r\n\r\n    function initialize(uint256 _someData) public {\r\n        require(msg.sender == address(this));\r\n        someValue = _someData;\r\n        emit Upgrader(_someData);\r\n    }\r\n\r\n    function newFunction() external {\r\n        emit Upgrader(maxHolderCount);\r\n    }\r\n\r\n}\r\n",
  "sourcePath": "C:/mspace/polymath-core/contracts/mocks/MockCountTransferManager.sol",
  "compiler": {
    "name": "solc",
    "version": "0.5.8+commit.23d335f2.Emscripten.clang"
  },
  "schemaVersion": "3.0.11",
  "updatedAt": "2019-08-05T12:37:19.109Z",
  "devdoc": {
    "methods": {
      "changeHolderCount(uint256)": {
        "params": {
          "_maxHolderCount": "is the new maximum amount of token holders\r"
        }
      },
      "configure(uint256)": {
        "params": {
          "_maxHolderCount": "Maximum no. of holders this module allows the SecurityToken to have\r"
        }
      },
      "constructor": {
        "params": {
          "_securityToken": "Address of the security token\r"
        }
      },
      "executeTransfer(address,address,uint256,bytes)": {
        "params": {
          "_amount": "Amount to send\r",
          "_from": "Address of the sender\r",
          "_to": "Address of the receiver\r"
        }
      },
      "getTokensByPartition(bytes32,address,uint256)": {
        "details": "returning the balance of token holder against the UNLOCKED partition. \r This condition is valid only when the base contract doesn't implement the\r `getTokensByPartition()` function.  \r"
      },
      "reclaimERC20(address)": {
        "details": "We duplicate here due to the overriden owner & onlyOwner\r",
        "params": {
          "_tokenContract": "The address of the token contract\r"
        }
      },
      "reclaimETH()": {
        "details": "We duplicate here due to the overriden owner & onlyOwner\r"
      },
      "verifyTransfer(address,address,uint256,bytes)": {
        "details": "module.verifyTransfer is called by SecToken.canTransfer and does not receive the updated holderCount therefore\r     verifyTransfer has to manually account for pot. tokenholder changes (by mimicking TokenLib.adjustInvestorCount).\r     module.executeTransfer is called by SecToken.transfer|issue|others and receives an updated holderCount \r     as sectoken calls TokenLib.adjustInvestorCount before executeTransfer.\r",
        "params": {
          "_amount": "Amount to send\r",
          "_from": "Address of the sender\r",
          "_to": "Address of the receiver\r"
        }
      }
    },
    "title": "Transfer Manager for limiting maximum number of token holders\r"
  },
  "userdoc": {
    "methods": {
      "changeHolderCount(uint256)": {
        "notice": "Sets the cap for the amount of token holders there can be\r"
      },
      "configure(uint256)": {
        "notice": "Used to initialize the variables of the contract\r"
      },
      "constructor": "Constructor\r",
      "executeTransfer(address,address,uint256,bytes)": {
        "notice": "Used to verify the transfer transaction and prevent a transfer if it passes the allowed amount of token holders\r"
      },
      "getDataStore()": {
        "notice": "used to return the data store address of securityToken\r"
      },
      "getInitFunction()": {
        "notice": "This function returns the signature of configure function\r"
      },
      "getPermissions()": {
        "notice": "Returns the permissions flag that are associated with CountTransferManager\r"
      },
      "getTokensByPartition(bytes32,address,uint256)": {
        "notice": "return the amount of tokens for a given user as per the partition\r"
      },
      "pause()": {
        "notice": "Pause (overridden function)\r"
      },
      "reclaimERC20(address)": {
        "notice": "Reclaims ERC20Basic compatible tokens\r"
      },
      "reclaimETH()": {
        "notice": "Reclaims ETH\r"
      },
      "unpause()": {
        "notice": "Unpause (overridden function)\r"
      },
      "verifyTransfer(address,address,uint256,bytes)": {
        "notice": "Used to verify the transfer transaction and prevent a transfer if it passes the allowed amount of token holders\r"
      }
    }
  }
}