{
  "contractName": "MockRedemptionManager",
  "abi": [
    {
      "constant": false,
      "inputs": [],
      "name": "reclaimETH",
      "outputs": [],
      "payable": false,
      "stateMutability": "nonpayable",
      "type": "function"
    },
    {
      "constant": true,
      "inputs": [],
      "name": "getInitFunction",
      "outputs": [
        {
          "name": "",
          "type": "bytes4"
        }
      ],
      "payable": false,
      "stateMutability": "pure",
      "type": "function"
    },
    {
      "constant": true,
      "inputs": [],
      "name": "ADMIN",
      "outputs": [
        {
          "name": "",
          "type": "bytes32"
        }
      ],
      "payable": false,
      "stateMutability": "view",
      "type": "function"
    },
    {
      "constant": false,
      "inputs": [],
      "name": "unpause",
      "outputs": [],
      "payable": false,
      "stateMutability": "nonpayable",
      "type": "function"
    },
    {
      "constant": true,
      "inputs": [],
      "name": "paused",
      "outputs": [
        {
          "name": "",
          "type": "bool"
        }
      ],
      "payable": false,
      "stateMutability": "view",
      "type": "function"
    },
    {
      "constant": true,
      "inputs": [],
      "name": "polyToken",
      "outputs": [
        {
          "name": "",
          "type": "address"
        }
      ],
      "payable": false,
      "stateMutability": "view",
      "type": "function"
    },
    {
      "constant": false,
      "inputs": [],
      "name": "pause",
      "outputs": [],
      "payable": false,
      "stateMutability": "nonpayable",
      "type": "function"
    },
    {
      "constant": false,
      "inputs": [
        {
          "name": "_tokenContract",
          "type": "address"
        }
      ],
      "name": "reclaimERC20",
      "outputs": [],
      "payable": false,
      "stateMutability": "nonpayable",
      "type": "function"
    },
    {
      "constant": true,
      "inputs": [],
      "name": "OPERATOR",
      "outputs": [
        {
          "name": "",
          "type": "bytes32"
        }
      ],
      "payable": false,
      "stateMutability": "view",
      "type": "function"
    },
    {
      "constant": false,
      "inputs": [
        {
          "name": "_value",
          "type": "uint256"
        }
      ],
      "name": "redeemTokens",
      "outputs": [],
      "payable": false,
      "stateMutability": "nonpayable",
      "type": "function"
    },
    {
      "constant": true,
      "inputs": [],
      "name": "securityToken",
      "outputs": [
        {
          "name": "",
          "type": "address"
        }
      ],
      "payable": false,
      "stateMutability": "view",
      "type": "function"
    },
    {
      "constant": true,
      "inputs": [],
      "name": "getPermissions",
      "outputs": [
        {
          "name": "",
          "type": "bytes32[]"
        }
      ],
      "payable": false,
      "stateMutability": "view",
      "type": "function"
    },
    {
      "constant": true,
      "inputs": [],
      "name": "factory",
      "outputs": [
        {
          "name": "",
          "type": "address"
        }
      ],
      "payable": false,
      "stateMutability": "view",
      "type": "function"
    },
    {
      "constant": true,
      "inputs": [],
      "name": "getDataStore",
      "outputs": [
        {
          "name": "",
          "type": "address"
        }
      ],
      "payable": false,
      "stateMutability": "view",
      "type": "function"
    },
    {
      "inputs": [
        {
          "name": "_securityToken",
          "type": "address"
        },
        {
          "name": "_polyToken",
          "type": "address"
        }
      ],
      "payable": false,
      "stateMutability": "nonpayable",
      "type": "constructor"
    },
    {
      "anonymous": false,
      "inputs": [
        {
          "indexed": false,
          "name": "_investor",
          "type": "address"
        },
        {
          "indexed": false,
          "name": "_byWhoom",
          "type": "address"
        },
        {
          "indexed": false,
          "name": "_value",
          "type": "uint256"
        }
      ],
      "name": "RedeemedTokenByOwner",
      "type": "event"
    },
    {
      "anonymous": false,
      "inputs": [
        {
          "indexed": true,
          "name": "_investor",
          "type": "address"
        },
        {
          "indexed": true,
          "name": "_operator",
          "type": "address"
        },
        {
          "indexed": false,
          "name": "_partition",
          "type": "bytes32"
        },
        {
          "indexed": false,
          "name": "_value",
          "type": "uint256"
        },
        {
          "indexed": false,
          "name": "_data",
          "type": "bytes"
        },
        {
          "indexed": false,
          "name": "_operatorData",
          "type": "bytes"
        }
      ],
      "name": "RedeemedTokensByPartition",
      "type": "event"
    },
    {
      "anonymous": false,
      "inputs": [
        {
          "indexed": false,
          "name": "_investor",
          "type": "address"
        },
        {
          "indexed": false,
          "name": "_value",
          "type": "uint256"
        }
      ],
      "name": "Redeemed",
      "type": "event"
    },
    {
      "anonymous": false,
      "inputs": [
        {
          "indexed": false,
          "name": "account",
          "type": "address"
        }
      ],
      "name": "Pause",
      "type": "event"
    },
    {
      "anonymous": false,
      "inputs": [
        {
          "indexed": false,
          "name": "account",
          "type": "address"
        }
      ],
      "name": "Unpause",
      "type": "event"
    },
    {
      "constant": false,
      "inputs": [
        {
          "name": "_value",
          "type": "uint256"
        }
      ],
      "name": "transferToRedeem",
      "outputs": [],
      "payable": false,
      "stateMutability": "nonpayable",
      "type": "function"
    },
    {
      "constant": false,
      "inputs": [
        {
          "name": "_value",
          "type": "uint256"
        }
      ],
      "name": "redeemTokenByOwner",
      "outputs": [],
      "payable": false,
      "stateMutability": "nonpayable",
      "type": "function"
    },
    {
      "constant": false,
      "inputs": [
        {
          "name": "_value",
          "type": "uint256"
        },
        {
          "name": "_partition",
          "type": "bytes32"
        },
        {
          "name": "_data",
          "type": "bytes"
        }
      ],
      "name": "redeemTokensByPartition",
      "outputs": [],
      "payable": false,
      "stateMutability": "nonpayable",
      "type": "function"
    },
    {
      "constant": false,
      "inputs": [
        {
          "name": "_value",
          "type": "uint256"
        },
        {
          "name": "_partition",
          "type": "bytes32"
        },
        {
          "name": "_data",
          "type": "bytes"
        },
        {
          "name": "_operatorData",
          "type": "bytes"
        }
      ],
      "name": "operatorRedeemTokensByPartition",
      "outputs": [],
      "payable": false,
      "stateMutability": "nonpayable",
      "type": "function"
    },
    {
      "constant": false,
      "inputs": [
        {
          "name": "_value",
          "type": "uint256"
        },
        {
          "name": "_partition",
          "type": "bytes32"
        },
        {
          "name": "_data",
          "type": "bytes"
        },
        {
          "name": "_operatorData",
          "type": "bytes"
        }
      ],
      "name": "operatorTransferToRedeem",
      "outputs": [],
      "payable": false,
      "stateMutability": "nonpayable",
      "type": "function"
    }
  ],
  "bytecode": "0x608060405260028054600160a01b60ff021916905534801561002057600080fd5b506040516040806113cf8339810180604052604081101561004057600080fd5b508051602090910151600180546001600160a01b039384166001600160a01b031991821617909155600080548216331790556002805493909216921691909117905561133e806100916000396000f3fe608060405234801561001057600080fd5b50600436106101215760003560e01c80636faa22a5116100ad578063b3446a9311610071578063b3446a9314610388578063b84dfbd214610452578063c3a07df61461045a578063c45a0155146104b2578063fe58265e146104ba57610121565b80636faa22a5146103115780638456cb59146103355780638905fd4f1461033d578063983d273714610363578063a6e158f81461036b57610121565b80632a0acc6a116100f45780632a0acc6a146101ec5780633f4ba83a146102065780635a027c3b1461020e5780635c975abb146102d857806360d51103146102f457610121565b806304ed724d146101265780630f144a48146101a25780631613ec9d146101aa578063186651b6146101cf575b600080fd5b6101a06004803603606081101561013c57600080fd5b813591602081013591810190606081016040820135600160201b81111561016257600080fd5b82018360208201111561017457600080fd5b803590602001918460018302840111600160201b8311171561019557600080fd5b5090925090506104c2565b005b6101a06106dc565b6101b2610714565b604080516001600160e01b03199092168252519081900360200190f35b6101a0600480360360208110156101e557600080fd5b5035610719565b6101f4610893565b60408051918252519081900360200190f35b6101a06108a2565b6101a06004803603608081101561022457600080fd5b813591602081013591810190606081016040820135600160201b81111561024a57600080fd5b82018360208201111561025c57600080fd5b803590602001918460018302840111600160201b8311171561027d57600080fd5b919390929091602081019035600160201b81111561029a57600080fd5b8201836020820111156102ac57600080fd5b803590602001918460018302840111600160201b831117156102cd57600080fd5b5090925090506108b4565b6102e06109c7565b604080519115158252519081900360200190f35b6101a06004803603602081101561030a57600080fd5b50356109d7565b610319610ac6565b604080516001600160a01b039092168252519081900360200190f35b6101a0610ad5565b6101a06004803603602081101561035357600080fd5b50356001600160a01b0316610ae5565b6101f4610ca0565b6101a06004803603602081101561038157600080fd5b5035610cb2565b6101a06004803603608081101561039e57600080fd5b813591602081013591810190606081016040820135600160201b8111156103c457600080fd5b8201836020820111156103d657600080fd5b803590602001918460018302840111600160201b831117156103f757600080fd5b919390929091602081019035600160201b81111561041457600080fd5b82018360208201111561042657600080fd5b803590602001918460018302840111600160201b8311171561044757600080fd5b509092509050610da0565b61031961100f565b61046261101e565b60408051602080825283518183015283519192839290830191858101910280838360005b8381101561049e578181015183820152602001610486565b505050509050019250505060405180910390f35b610319611030565b61031961103f565b336000908152600460205260409020548411156105295760408051600160e51b62461bcd02815260206004820152601e60248201527f496e73756666696369656e7420746f6b656e732072656465656d61626c650000604482015290519081900360640190fd5b33600090815260046020526040902054610549908563ffffffff6110b816565b33600090815260046020908152604080832093909355600581528282208683529052205461057d908563ffffffff6110cd16565b33600090815260056020908152604080832087845290915290819020919091556001549051600160e31b630c5d600d0281526004810185815260248201879052606060448301908152606483018590526001600160a01b03909316926362eb00689287928992889288929190608401848480828437600081840152601f19601f82011690508083019250505095505050505050600060405180830381600087803b15801561062a57600080fd5b505af115801561063e573d6000803e3d6000fd5b5050505060006001600160a01b0316336001600160a01b03167fddcdd3167cbd88fe3fb12a6747b82349f30e7574224d209d1bff332a126d86578587868660405180858152602001848152602001806020018060200183810383528585828181526020019250808284376000838201819052601f909101601f191690920194850390925283525050604080519182900301945092505050a350505050565b6106e46110e6565b6040513390303180156108fc02916000818181858888f19350505050158015610711573d6000803e3d6000fd5b50565b600090565b336000908152600460205260409020548111156107805760408051600160e51b62461bcd02815260206004820152601e60248201527f496e73756666696369656e7420746f6b656e732072656465656d61626c650000604482015290519081900360640190fd5b336000908152600460205260409020546107a0908263ffffffff6110b816565b336000908152600460209081526040808320939093556003905220546107cc908263ffffffff6110cd16565b33600090815260036020526040808220929092556001548251600160e01b63e77c646d02815260048101859052602481018490526044810183905292516001600160a01b039091169263e77c646d92608480830193919282900301818387803b15801561083857600080fd5b505af115801561084c573d6000803e3d6000fd5b50506040805133815230602082015280820185905290517f04b96a375f6f53e83d526b058afde932cc6f52d0d337609f5858eacc807a987b9350908190036060019150a150565b600160d91b6420a226a4a70281565b6108aa6110e6565b6108b26111bf565b565b600154604051600160e21b6323037ba70281526004810187815233602483018190523060448401819052606484018b905260c06084850190815260c485018990526001600160a01b0390951694638c0dee9c948b948d928c928c928c928c9260a481019060e401878780828437600083820152601f01601f191690910184810383528581526020019050858580828437600081840152601f19601f8201169050808301925050509a5050505050505050505050602060405180830381600087803b15801561098157600080fd5b505af1158015610995573d6000803e3d6000fd5b505050506040513d60208110156109ab57600080fd5b5050336000908152600460205260409020959095555050505050565b600254600160a01b900460ff1681565b60015460408051600160e01b6323b872dd0281523360048201523060248201526044810184905290516001600160a01b03909216916323b872dd916064808201926020929091908290030181600087803b158015610a3457600080fd5b505af1158015610a48573d6000803e3d6000fd5b505050506040513d6020811015610a5e57600080fd5b5051610ab45760408051600160e51b62461bcd02815260206004820152601260248201527f496e73756666696369656e742066756e64730000000000000000000000000000604482015290519081900360640190fd5b33600090815260046020526040902055565b6002546001600160a01b031681565b610add6110e6565b6108b2611265565b610aed6110e6565b6001600160a01b038116610b4b5760408051600160e51b62461bcd02815260206004820152600f60248201527f496e76616c696420616464726573730000000000000000000000000000000000604482015290519081900360640190fd5b60408051600160e01b6370a08231028152306004820152905182916000916001600160a01b038416916370a08231916024808301926020929190829003018186803b158015610b9957600080fd5b505afa158015610bad573d6000803e3d6000fd5b505050506040513d6020811015610bc357600080fd5b505160408051600160e01b63a9059cbb0281523360048201526024810183905290519192506001600160a01b0384169163a9059cbb916044808201926020929091908290030181600087803b158015610c1b57600080fd5b505af1158015610c2f573d6000803e3d6000fd5b505050506040513d6020811015610c4557600080fd5b5051610c9b5760408051600160e51b62461bcd02815260206004820152600f60248201527f5472616e73666572206661696c65640000000000000000000000000000000000604482015290519081900360640190fd5b505050565b600160c11b6727a822a920aa27a90281565b60015460408051600160e21b63259d464f028152336004820152602481018490526060604482015260006064820181905291516001600160a01b0390931692639675193c9260a48084019391929182900301818387803b158015610d1557600080fd5b505af1158015610d29573d6000803e3d6000fd5b505033600090815260036020526040902054610d4e925090508263ffffffff6110cd16565b3360008181526003602090815260409182902093909355805191825291810183905281517f4896181ff8f4543cc00db9fe9b6fb7e6f032b7eb772c72ab1ec1b4d2e03b9369929181900390910190a150565b33600090815260046020526040902054861115610e075760408051600160e51b62461bcd02815260206004820152601e60248201527f496e73756666696369656e7420746f6b656e732072656465656d61626c650000604482015290519081900360640190fd5b33600090815260046020526040902054610e27908763ffffffff6110b816565b336000908152600460209081526040808320939093556005815282822088835290522054610e5b908763ffffffff6110cd16565b3360008181526005602090815260408083208a845290915290819020929092556001549151600160e21b6304f555ef0281526004810188815260248201839052604482018a905260a06064830190815260a483018890526001600160a01b03909416936313d557bc938a9390928c928b928b928b928b92608481019060c401878780828437600083820152601f01601f191690910184810383528581526020019050858580828437600081840152601f19601f8201169050808301925050509950505050505050505050600060405180830381600087803b158015610f3f57600080fd5b505af1158015610f53573d6000803e3d6000fd5b50505050306001600160a01b0316336001600160a01b03167fddcdd3167cbd88fe3fb12a6747b82349f30e7574224d209d1bff332a126d86578789888888886040518087815260200186815260200180602001806020018381038352878782818152602001925080828437600083820152601f01601f191690910184810383528581526020019050858580828437600083820152604051601f909101601f19169092018290039a509098505050505050505050a3505050505050565b6001546001600160a01b031681565b60408051600081526020810190915290565b6000546001600160a01b031681565b60015460408051600160e01b63660d0d6702815290516000926001600160a01b03169163660d0d67916004808301926020929190829003018186803b15801561108757600080fd5b505afa15801561109b573d6000803e3d6000fd5b505050506040513d60208110156110b157600080fd5b5051905090565b6000828211156110c757600080fd5b50900390565b6000828201838110156110df57600080fd5b9392505050565b600160009054906101000a90046001600160a01b03166001600160a01b0316638da5cb5b6040518163ffffffff1660e01b815260040160206040518083038186803b15801561113457600080fd5b505afa158015611148573d6000803e3d6000fd5b505050506040513d602081101561115e57600080fd5b50516001600160a01b031633146108b25760408051600160e51b62461bcd02815260206004820152601360248201527f53656e646572206973206e6f74206f776e657200000000000000000000000000604482015290519081900360640190fd5b600254600160a01b900460ff166112205760408051600160e51b62461bcd02815260206004820152601660248201527f436f6e7472616374206973206e6f742070617573656400000000000000000000604482015290519081900360640190fd5b60028054600160a01b60ff02191690556040805133815290517faeb196d352664784d1900b0e7414a8face7d29f4dae8c4b0cf68ed477423bbf49181900360200190a1565b600254600160a01b900460ff16156112c75760408051600160e51b62461bcd02815260206004820152601260248201527f436f6e7472616374206973207061757365640000000000000000000000000000604482015290519081900360640190fd5b60028054600160a01b60ff021916600160a01b1790556040805133815290517f5ee71a369c8672edded508e624ffc9257fa1ae6886ef32905c18e60196bca3999181900360200190a156fea165627a7a723058204abf00e164fac81f345e354d2fc3c93eae5bb0a42e907e57a2ee7133af0667900029",
  "source": "pragma solidity 0.5.8;\r\n\r\nimport \"../modules/Experimental/Burn/TrackedRedemption.sol\";\r\n\r\n/**\r\n * @title Burn module for burning tokens and keeping track of burnt amounts\r\n */\r\ncontract MockRedemptionManager is TrackedRedemption {\r\n    mapping(address => uint256) tokenToRedeem;\r\n    mapping(address => mapping(bytes32 => uint256)) redeemedTokensByPartition;\r\n\r\n    event RedeemedTokenByOwner(address _investor, address _byWhoom, uint256 _value);\r\n    event RedeemedTokensByPartition(address indexed _investor, address indexed _operator, bytes32 _partition, uint256 _value, bytes _data, bytes _operatorData);\r\n\r\n    /**\r\n     * @notice Constructor\r\n     * @param _securityToken Address of the security token\r\n     */\r\n    constructor(address _securityToken, address _polyToken) public TrackedRedemption(_securityToken, _polyToken) {\r\n\r\n    }\r\n\r\n    /**\r\n     * @notice Transfers tokens to Module to burn\r\n     * @param _value The number of tokens to redeem\r\n     */\r\n    function transferToRedeem(uint256 _value) public {\r\n        require(securityToken.transferFrom(msg.sender, address(this), _value), \"Insufficient funds\");\r\n        tokenToRedeem[msg.sender] = _value;\r\n    }\r\n\r\n    /**\r\n     * @notice Used to redeem tokens by the module\r\n     * @param _value The number of tokens to redeem\r\n     */\r\n    function redeemTokenByOwner(uint256 _value) public {\r\n        require(tokenToRedeem[msg.sender] >= _value, \"Insufficient tokens redeemable\");\r\n        tokenToRedeem[msg.sender] = tokenToRedeem[msg.sender].sub(_value);\r\n        redeemedTokens[msg.sender] = redeemedTokens[msg.sender].add(_value);\r\n        securityToken.redeem(_value, \"\");\r\n        /*solium-disable-next-line security/no-block-members*/\r\n        emit RedeemedTokenByOwner(msg.sender, address(this), _value);\r\n    }\r\n\r\n    /**\r\n     * @notice To redeem tokens and track redemptions\r\n     * @param _value The number of tokens to redeem\r\n     * @param _partition Partition from which balance will be deducted\r\n     * @param _data Extra data parmeter pass to do some offchain operation\r\n     */\r\n    function redeemTokensByPartition(uint256 _value, bytes32 _partition, bytes calldata _data) external {\r\n        require(tokenToRedeem[msg.sender] >= _value, \"Insufficient tokens redeemable\");\r\n        tokenToRedeem[msg.sender] = tokenToRedeem[msg.sender].sub(_value);\r\n        redeemedTokensByPartition[msg.sender][_partition] = redeemedTokensByPartition[msg.sender][_partition].add(_value);\r\n        securityToken.redeemByPartition(_partition, _value, _data);\r\n        /*solium-disable-next-line security/no-block-members*/\r\n        emit RedeemedTokensByPartition(msg.sender, address(0), _partition, _value, _data, \"\");\r\n    }\r\n\r\n    /**\r\n     * @notice To redeem tokens and track redemptions\r\n     * @param _value The number of tokens to redeem\r\n     * @param _partition Partition from which balance will be deducted\r\n     * @param _data Extra data parmeter pass to do some offchain operation\r\n     * @param _operatorData Data to log the operator call\r\n     */\r\n    function operatorRedeemTokensByPartition(uint256 _value, bytes32 _partition, bytes calldata _data, bytes calldata _operatorData) external {\r\n        require(tokenToRedeem[msg.sender] >= _value, \"Insufficient tokens redeemable\");\r\n        tokenToRedeem[msg.sender] = tokenToRedeem[msg.sender].sub(_value);\r\n        redeemedTokensByPartition[msg.sender][_partition] = redeemedTokensByPartition[msg.sender][_partition].add(_value);\r\n        securityToken.operatorRedeemByPartition(_partition, msg.sender, _value, _data, _operatorData);\r\n        /*solium-disable-next-line security/no-block-members*/\r\n        emit RedeemedTokensByPartition(msg.sender, address(this), _partition, _value, _data, _operatorData);\r\n    }\r\n\r\n    function operatorTransferToRedeem(uint256 _value, bytes32 _partition, bytes calldata _data, bytes calldata _operatorData) external {\r\n        securityToken.operatorTransferByPartition(_partition, msg.sender, address(this), _value, _data, _operatorData);\r\n        tokenToRedeem[msg.sender] = _value;\r\n    }\r\n\r\n\r\n}\r\n",
  "sourcePath": "C:\\mspace\\polymath-core\\contracts\\mocks\\MockRedemptionManager.sol",
  "compiler": {
    "name": "solc",
    "version": "0.5.8+commit.23d335f2.Emscripten.clang"
  },
  "schemaVersion": "3.0.11",
  "updatedAt": "2019-08-05T22:52:46.719Z",
  "devdoc": {
    "methods": {
      "constructor": {
        "params": {
          "_securityToken": "Address of the security token\r"
        }
      },
      "operatorRedeemTokensByPartition(uint256,bytes32,bytes,bytes)": {
        "params": {
          "_data": "Extra data parmeter pass to do some offchain operation\r",
          "_operatorData": "Data to log the operator call\r",
          "_partition": "Partition from which balance will be deducted\r",
          "_value": "The number of tokens to redeem\r"
        }
      },
      "reclaimERC20(address)": {
        "details": "We duplicate here due to the overriden owner & onlyOwner\r",
        "params": {
          "_tokenContract": "The address of the token contract\r"
        }
      },
      "reclaimETH()": {
        "details": "We duplicate here due to the overriden owner & onlyOwner\r"
      },
      "redeemTokenByOwner(uint256)": {
        "params": {
          "_value": "The number of tokens to redeem\r"
        }
      },
      "redeemTokens(uint256)": {
        "params": {
          "_value": "The number of tokens to redeem\r"
        }
      },
      "redeemTokensByPartition(uint256,bytes32,bytes)": {
        "params": {
          "_data": "Extra data parmeter pass to do some offchain operation\r",
          "_partition": "Partition from which balance will be deducted\r",
          "_value": "The number of tokens to redeem\r"
        }
      },
      "transferToRedeem(uint256)": {
        "params": {
          "_value": "The number of tokens to redeem\r"
        }
      }
    },
    "title": "Burn module for burning tokens and keeping track of burnt amounts\r"
  },
  "userdoc": {
    "methods": {
      "constructor": "Constructor\r",
      "getDataStore()": {
        "notice": "used to return the data store address of securityToken\r"
      },
      "getInitFunction()": {
        "notice": "This function returns the signature of configure function\r"
      },
      "getPermissions()": {
        "notice": "Returns the permissions flag that are associated with CountTransferManager\r"
      },
      "operatorRedeemTokensByPartition(uint256,bytes32,bytes,bytes)": {
        "notice": "To redeem tokens and track redemptions\r"
      },
      "pause()": {
        "notice": "Pause (overridden function)\r"
      },
      "reclaimERC20(address)": {
        "notice": "Reclaims ERC20Basic compatible tokens\r"
      },
      "reclaimETH()": {
        "notice": "Reclaims ETH\r"
      },
      "redeemTokenByOwner(uint256)": {
        "notice": "Used to redeem tokens by the module\r"
      },
      "redeemTokens(uint256)": {
        "notice": "To redeem tokens and track redemptions\r"
      },
      "redeemTokensByPartition(uint256,bytes32,bytes)": {
        "notice": "To redeem tokens and track redemptions\r"
      },
      "transferToRedeem(uint256)": {
        "notice": "Transfers tokens to Module to burn\r"
      },
      "unpause()": {
        "notice": "Unpause (overridden function)\r"
      }
    }
  }
}