{
  "contractName": "MockModuleRegistry",
  "abi": [
    {
      "constant": true,
      "inputs": [
        {
          "name": "_variable",
          "type": "bytes32"
        }
      ],
      "name": "getBytes32Value",
      "outputs": [
        {
          "name": "",
          "type": "bytes32"
        }
      ],
      "payable": false,
      "stateMutability": "view",
      "type": "function"
    },
    {
      "constant": true,
      "inputs": [
        {
          "name": "_moduleType",
          "type": "uint8"
        },
        {
          "name": "_securityToken",
          "type": "address"
        }
      ],
      "name": "getTagsByTypeAndToken",
      "outputs": [
        {
          "name": "",
          "type": "bytes32[]"
        },
        {
          "name": "",
          "type": "address[]"
        }
      ],
      "payable": false,
      "stateMutability": "view",
      "type": "function"
    },
    {
      "constant": true,
      "inputs": [
        {
          "name": "_moduleFactory",
          "type": "address"
        },
        {
          "name": "_securityToken",
          "type": "address"
        }
      ],
      "name": "isCompatibleModule",
      "outputs": [
        {
          "name": "",
          "type": "bool"
        }
      ],
      "payable": false,
      "stateMutability": "view",
      "type": "function"
    },
    {
      "constant": false,
      "inputs": [
        {
          "name": "_moduleFactory",
          "type": "address"
        }
      ],
      "name": "verifyModule",
      "outputs": [],
      "payable": false,
      "stateMutability": "nonpayable",
      "type": "function"
    },
    {
      "constant": false,
      "inputs": [
        {
          "name": "_moduleFactory",
          "type": "address"
        },
        {
          "name": "_isUpgrade",
          "type": "bool"
        }
      ],
      "name": "useModule",
      "outputs": [],
      "payable": false,
      "stateMutability": "nonpayable",
      "type": "function"
    },
    {
      "constant": false,
      "inputs": [],
      "name": "unpause",
      "outputs": [],
      "payable": false,
      "stateMutability": "nonpayable",
      "type": "function"
    },
    {
      "constant": true,
      "inputs": [
        {
          "name": "_variable",
          "type": "bytes32"
        }
      ],
      "name": "getBytesValue",
      "outputs": [
        {
          "name": "",
          "type": "bytes"
        }
      ],
      "payable": false,
      "stateMutability": "view",
      "type": "function"
    },
    {
      "constant": false,
      "inputs": [
        {
          "name": "_polymathRegistry",
          "type": "address"
        },
        {
          "name": "_owner",
          "type": "address"
        }
      ],
      "name": "initialize",
      "outputs": [],
      "payable": true,
      "stateMutability": "payable",
      "type": "function"
    },
    {
      "constant": true,
      "inputs": [
        {
          "name": "_moduleType",
          "type": "uint8"
        }
      ],
      "name": "getTagsByType",
      "outputs": [
        {
          "name": "",
          "type": "bytes32[]"
        },
        {
          "name": "",
          "type": "address[]"
        }
      ],
      "payable": false,
      "stateMutability": "view",
      "type": "function"
    },
    {
      "constant": true,
      "inputs": [
        {
          "name": "_variable",
          "type": "bytes32"
        }
      ],
      "name": "getAddressValue",
      "outputs": [
        {
          "name": "",
          "type": "address"
        }
      ],
      "payable": false,
      "stateMutability": "view",
      "type": "function"
    },
    {
      "constant": true,
      "inputs": [
        {
          "name": "_factoryAddress",
          "type": "address"
        }
      ],
      "name": "getFactoryDetails",
      "outputs": [
        {
          "name": "",
          "type": "bool"
        },
        {
          "name": "",
          "type": "address"
        },
        {
          "name": "",
          "type": "address[]"
        }
      ],
      "payable": false,
      "stateMutability": "view",
      "type": "function"
    },
    {
      "constant": true,
      "inputs": [
        {
          "name": "_key",
          "type": "bytes32"
        }
      ],
      "name": "getArrayAddress",
      "outputs": [
        {
          "name": "",
          "type": "address[]"
        }
      ],
      "payable": false,
      "stateMutability": "view",
      "type": "function"
    },
    {
      "constant": false,
      "inputs": [],
      "name": "pause",
      "outputs": [],
      "payable": false,
      "stateMutability": "nonpayable",
      "type": "function"
    },
    {
      "constant": false,
      "inputs": [
        {
          "name": "_tokenContract",
          "type": "address"
        }
      ],
      "name": "reclaimERC20",
      "outputs": [],
      "payable": false,
      "stateMutability": "nonpayable",
      "type": "function"
    },
    {
      "constant": true,
      "inputs": [],
      "name": "owner",
      "outputs": [
        {
          "name": "",
          "type": "address"
        }
      ],
      "payable": false,
      "stateMutability": "view",
      "type": "function"
    },
    {
      "constant": true,
      "inputs": [
        {
          "name": "_variable",
          "type": "bytes32"
        }
      ],
      "name": "getBoolValue",
      "outputs": [
        {
          "name": "",
          "type": "bool"
        }
      ],
      "payable": false,
      "stateMutability": "view",
      "type": "function"
    },
    {
      "constant": false,
      "inputs": [
        {
          "name": "_moduleFactory",
          "type": "address"
        }
      ],
      "name": "removeModule",
      "outputs": [],
      "payable": false,
      "stateMutability": "nonpayable",
      "type": "function"
    },
    {
      "constant": true,
      "inputs": [
        {
          "name": "_moduleType",
          "type": "uint8"
        }
      ],
      "name": "getAllModulesByType",
      "outputs": [
        {
          "name": "",
          "type": "address[]"
        }
      ],
      "payable": false,
      "stateMutability": "view",
      "type": "function"
    },
    {
      "constant": true,
      "inputs": [
        {
          "name": "_variable",
          "type": "bytes32"
        }
      ],
      "name": "getStringValue",
      "outputs": [
        {
          "name": "",
          "type": "string"
        }
      ],
      "payable": false,
      "stateMutability": "view",
      "type": "function"
    },
    {
      "constant": true,
      "inputs": [
        {
          "name": "_key",
          "type": "bytes32"
        }
      ],
      "name": "getArrayBytes32",
      "outputs": [
        {
          "name": "",
          "type": "bytes32[]"
        }
      ],
      "payable": false,
      "stateMutability": "view",
      "type": "function"
    },
    {
      "constant": true,
      "inputs": [
        {
          "name": "_moduleType",
          "type": "uint8"
        }
      ],
      "name": "getModulesByType",
      "outputs": [
        {
          "name": "",
          "type": "address[]"
        }
      ],
      "payable": false,
      "stateMutability": "view",
      "type": "function"
    },
    {
      "constant": false,
      "inputs": [
        {
          "name": "_moduleFactory",
          "type": "address"
        }
      ],
      "name": "registerModule",
      "outputs": [],
      "payable": false,
      "stateMutability": "nonpayable",
      "type": "function"
    },
    {
      "constant": true,
      "inputs": [],
      "name": "isPaused",
      "outputs": [
        {
          "name": "",
          "type": "bool"
        }
      ],
      "payable": false,
      "stateMutability": "view",
      "type": "function"
    },
    {
      "constant": false,
      "inputs": [
        {
          "name": "_moduleFactory",
          "type": "address"
        }
      ],
      "name": "unverifyModule",
      "outputs": [],
      "payable": false,
      "stateMutability": "nonpayable",
      "type": "function"
    },
    {
      "constant": false,
      "inputs": [
        {
          "name": "_moduleFactory",
          "type": "address"
        }
      ],
      "name": "useModule",
      "outputs": [],
      "payable": false,
      "stateMutability": "nonpayable",
      "type": "function"
    },
    {
      "constant": true,
      "inputs": [
        {
          "name": "_variable",
          "type": "bytes32"
        }
      ],
      "name": "getUintValue",
      "outputs": [
        {
          "name": "",
          "type": "uint256"
        }
      ],
      "payable": false,
      "stateMutability": "view",
      "type": "function"
    },
    {
      "constant": true,
      "inputs": [
        {
          "name": "_moduleType",
          "type": "uint8"
        },
        {
          "name": "_securityToken",
          "type": "address"
        }
      ],
      "name": "getModulesByTypeAndToken",
      "outputs": [
        {
          "name": "",
          "type": "address[]"
        }
      ],
      "payable": false,
      "stateMutability": "view",
      "type": "function"
    },
    {
      "constant": false,
      "inputs": [
        {
          "name": "_newOwner",
          "type": "address"
        }
      ],
      "name": "transferOwnership",
      "outputs": [],
      "payable": false,
      "stateMutability": "nonpayable",
      "type": "function"
    },
    {
      "constant": false,
      "inputs": [],
      "name": "updateFromRegistry",
      "outputs": [],
      "payable": false,
      "stateMutability": "nonpayable",
      "type": "function"
    },
    {
      "constant": true,
      "inputs": [
        {
          "name": "_key",
          "type": "bytes32"
        }
      ],
      "name": "getArrayUint",
      "outputs": [
        {
          "name": "",
          "type": "uint256[]"
        }
      ],
      "payable": false,
      "stateMutability": "view",
      "type": "function"
    },
    {
      "anonymous": false,
      "inputs": [
        {
          "indexed": false,
          "name": "account",
          "type": "address"
        }
      ],
      "name": "Pause",
      "type": "event"
    },
    {
      "anonymous": false,
      "inputs": [
        {
          "indexed": false,
          "name": "account",
          "type": "address"
        }
      ],
      "name": "Unpause",
      "type": "event"
    },
    {
      "anonymous": false,
      "inputs": [
        {
          "indexed": true,
          "name": "_moduleFactory",
          "type": "address"
        },
        {
          "indexed": true,
          "name": "_securityToken",
          "type": "address"
        }
      ],
      "name": "ModuleUsed",
      "type": "event"
    },
    {
      "anonymous": false,
      "inputs": [
        {
          "indexed": true,
          "name": "_moduleFactory",
          "type": "address"
        },
        {
          "indexed": true,
          "name": "_owner",
          "type": "address"
        }
      ],
      "name": "ModuleRegistered",
      "type": "event"
    },
    {
      "anonymous": false,
      "inputs": [
        {
          "indexed": true,
          "name": "_moduleFactory",
          "type": "address"
        }
      ],
      "name": "ModuleVerified",
      "type": "event"
    },
    {
      "anonymous": false,
      "inputs": [
        {
          "indexed": true,
          "name": "_moduleFactory",
          "type": "address"
        }
      ],
      "name": "ModuleUnverified",
      "type": "event"
    },
    {
      "anonymous": false,
      "inputs": [
        {
          "indexed": true,
          "name": "_moduleFactory",
          "type": "address"
        },
        {
          "indexed": true,
          "name": "_decisionMaker",
          "type": "address"
        }
      ],
      "name": "ModuleRemoved",
      "type": "event"
    },
    {
      "anonymous": false,
      "inputs": [
        {
          "indexed": true,
          "name": "previousOwner",
          "type": "address"
        },
        {
          "indexed": true,
          "name": "newOwner",
          "type": "address"
        }
      ],
      "name": "OwnershipTransferred",
      "type": "event"
    },
    {
      "constant": false,
      "inputs": [
        {
          "name": "_moduleFactory",
          "type": "address"
        },
        {
          "name": "_tokens",
          "type": "address[]"
        }
      ],
      "name": "addMoreReputation",
      "outputs": [],
      "payable": false,
      "stateMutability": "nonpayable",
      "type": "function"
    }
  ],
  "bytecode": "0x6080604052613c6a806100136000396000f3fe6080604052600436106101d85760003560e01c80638ffa969011610102578063cf5f591d11610095578063ea393b7511610064578063ea393b751461090e578063f2fde38b1461094a578063f433262f1461097d578063f6fcbee114610992576101d8565b8063cf5f591d146107c0578063dc659907146107f3578063e02592fd14610826578063e82617fb146108e4576101d8565b8063a8f0d3a7116100d1578063a8f0d3a714610721578063ac90b4221461074b578063ad64ae4b14610778578063b187bd26146107ab576101d8565b80638ffa96901461066d578063a063246114610697578063a1fe85dc146106ca578063a209a29c146106f7576101d8565b8063485cc9551161017a5780636f3b8ce2116101495780636f3b8ce2146105965780638456cb59146106105780638905fd4f146106255780638da5cb5b14610658576101d8565b8063485cc955146104615780634ac24a9a1461048f5780634c77e5ba146104bc5780636001f43414610502576101d8565b806330d88e1d116101b657806330d88e1d1461033d57806336ef22ce146103725780633f4ba83a146103ad57806344bfa56e146103c2576101d8565b8063025ec81a146101dd5780631a83bff014610219578063223a6580146102ee575b600080fd5b3480156101e957600080fd5b506102076004803603602081101561020057600080fd5b50356109bc565b60408051918252519081900360200190f35b34801561022557600080fd5b506102556004803603604081101561023c57600080fd5b50803560ff1690602001356001600160a01b03166109ce565b604051808060200180602001838103835285818151815260200191508051906020019060200280838360005b83811015610299578181015183820152602001610281565b50505050905001838103825284818151815260200191508051906020019060200280838360005b838110156102d85781810151838201526020016102c0565b5050505090500194505050505060405180910390f35b3480156102fa57600080fd5b506103296004803603604081101561031157600080fd5b506001600160a01b03813581169160200135166109f4565b604080519115158252519081900360200190f35b34801561034957600080fd5b506103706004803603602081101561036057600080fd5b50356001600160a01b0316610c82565b005b34801561037e57600080fd5b506103706004803603604081101561039557600080fd5b506001600160a01b0381351690602001351515610dc5565b3480156103b957600080fd5b5061037061116f565b3480156103ce57600080fd5b506103ec600480360360208110156103e557600080fd5b5035611277565b6040805160208082528351818301528351919283929083019185019080838360005b8381101561042657818101518382015260200161040e565b50505050905090810190601f1680156104535780820380516001836020036101000a031916815260200191505b509250505060405180910390f35b6103706004803603604081101561047757600080fd5b506001600160a01b0381358116916020013516611318565b34801561049b57600080fd5b50610255600480360360208110156104b257600080fd5b503560ff166114a6565b3480156104c857600080fd5b506104e6600480360360208110156104df57600080fd5b50356114c9565b604080516001600160a01b039092168252519081900360200190f35b34801561050e57600080fd5b506105356004803603602081101561052557600080fd5b50356001600160a01b03166114e4565b6040518084151515158152602001836001600160a01b03166001600160a01b031681526020018060200182810382528381815181526020019150805190602001906020028083836000838110156102d85781810151838201526020016102c0565b3480156105a257600080fd5b506105c0600480360360208110156105b957600080fd5b5035611591565b60408051602080825283518183015283519192839290830191858101910280838360005b838110156105fc5781810151838201526020016105e4565b505050509050019250505060405180910390f35b34801561061c57600080fd5b506103706115fc565b34801561063157600080fd5b506103706004803603602081101561064857600080fd5b50356001600160a01b0316611705565b34801561066457600080fd5b506104e6611924565b34801561067957600080fd5b506103296004803603602081101561069057600080fd5b5035611955565b3480156106a357600080fd5b50610370600480360360208110156106ba57600080fd5b50356001600160a01b031661196a565b3480156106d657600080fd5b506105c0600480360360208110156106ed57600080fd5b503560ff16611d64565b34801561070357600080fd5b506103ec6004803603602081101561071a57600080fd5b5035611d9b565b34801561072d57600080fd5b506105c06004803603602081101561074457600080fd5b5035611e04565b34801561075757600080fd5b506105c06004803603602081101561076e57600080fd5b503560ff16611e65565b34801561078457600080fd5b506103706004803603602081101561079b57600080fd5b50356001600160a01b0316611fcf565b3480156107b757600080fd5b50610329612598565b3480156107cc57600080fd5b50610370600480360360208110156107e357600080fd5b50356001600160a01b03166125b1565b3480156107ff57600080fd5b506103706004803603602081101561081657600080fd5b50356001600160a01b03166127c4565b34801561083257600080fd5b506103706004803603604081101561084957600080fd5b6001600160a01b038235169190810190604081016020820135600160201b81111561087357600080fd5b82018360208201111561088557600080fd5b803590602001918460208302840111600160201b831117156108a657600080fd5b9190808060200260200160405190810160405280939291908181526020018383602002808284376000920191909152509295506127d2945050505050565b3480156108f057600080fd5b506102076004803603602081101561090757600080fd5b5035612895565b34801561091a57600080fd5b506105c06004803603604081101561093157600080fd5b50803560ff1690602001356001600160a01b03166128a7565b34801561095657600080fd5b506103706004803603602081101561096d57600080fd5b50356001600160a01b0316612ccb565b34801561098957600080fd5b50610370612df8565b34801561099e57600080fd5b506105c0600480360360208110156109b557600080fd5b5035613079565b60009081526006602052604090205490565b60608060606109dd85856128a7565b90506109e8816130d9565b92509250509250929050565b60006060826001600160a01b0316630d8e6e2c6040518163ffffffff1660e01b815260040160006040518083038186803b158015610a3157600080fd5b505afa158015610a45573d6000803e3d6000fd5b505050506040513d6000823e601f3d908101601f191682016040526020811015610a6e57600080fd5b810190808051600160201b811115610a8557600080fd5b82016020810184811115610a9857600080fd5b81518560208202830111600160201b82111715610ab457600080fd5b505092919050505090506060846001600160a01b0316638677768f6040518163ffffffff1660e01b815260040160006040518083038186803b158015610af957600080fd5b505afa158015610b0d573d6000803e3d6000fd5b505050506040513d6000823e601f3d908101601f191682016040526020811015610b3657600080fd5b810190808051600160201b811115610b4d57600080fd5b82016020810184811115610b6057600080fd5b81518560208202830111600160201b82111715610b7c57600080fd5b505092919050505090506060856001600160a01b031663f78629996040518163ffffffff1660e01b815260040160006040518083038186803b158015610bc157600080fd5b505afa158015610bd5573d6000803e3d6000fd5b505050506040513d6000823e601f3d908101601f191682016040526020811015610bfe57600080fd5b810190808051600160201b811115610c1557600080fd5b82016020810184811115610c2857600080fd5b81518560208202830111600160201b82111715610c4457600080fd5b505092919050505090506000610c5a83856133b3565b90506000610c6883866134b9565b9050818015610c745750805b955050505050505b92915050565b610c8a611924565b6001600160a01b0316336001600160a01b031614610ce05760408051600160e51b62461bcd0281526020600482015260146024820152600080516020613ba7833981519152604482015290519081900360640190fd5b6000610d17610d12604051806040016040528060088152602001600160c01b67726567697374727902815250846135b5565b612895565b1415610d5757604051600160e51b62461bcd028152600401808060200182810382526021815260200180613b666021913960400191505060405180910390fd5b610d8e610d87604051806040016040528060088152602001600160c21b671d995c9a599a595902815250836135b5565b600161363f565b6040516001600160a01b038216907f6b4f33594281f0d3c33cb4efc71c1d349cc9614e44a6d44cf1f349e801ed9fd790600090a250565b610de8600080516020613b87833981519152610de081612895565b60010161365f565b6000610e01600080516020613b87833981519152612895565b9050610e0b613671565b15610f4357610e45610e40604051806040016040528060088152602001600160c21b671d995c9a599a595902815250856135b5565b611955565b80610f005750336001600160a01b0316638da5cb5b6040518163ffffffff1660e01b815260040160206040518083038186803b158015610e8457600080fd5b505afa158015610e98573d6000803e3d6000fd5b505050506040513d6020811015610eae57600080fd5b505160408051808201909152600c8152600160a11b6b3330b1ba37b93ca7bbb732b90260208201526001600160a01b0390911690610ef590610ef090866135b5565b6114c9565b6001600160a01b0316145b610f3e57604051600160e51b62461bcd028152600401808060200182810382526051815260200180613ad66051913960600191505060405180910390fd5b610fc7565b610f73610e40604051806040016040528060088152602001600160c21b671d995c9a599a595902815250856135b5565b610fc75760408051600160e51b62461bcd02815260206004820152601e60248201527f4d6f64756c65466163746f7279206d7573742062652076657269666965640000604482015290519081900360640190fd5b610ff07f12ada4f7ee6c2b7b933330be61fefa007a1f497dc8df1b349b48071a958d7a816114c9565b6001600160a01b031663d300a968336040518263ffffffff1660e01b815260040180826001600160a01b03166001600160a01b0316815260200191505060206040518083038186803b15801561104557600080fd5b505afa158015611059573d6000803e3d6000fd5b505050506040513d602081101561106f57600080fd5b5051156111485761108083336109f4565b6110d45760408051600160e51b62461bcd02815260206004820152601560248201527f496e636f6d70617469626c652076657273696f6e730000000000000000000000604482015290519081900360640190fd5b816111485761111161110b6040518060400160405280600a8152602001600160b11b693932b83aba30ba34b7b702815250856135b5565b33613741565b60405133906001600160a01b038516907ffd0013c5b822aafcc05b8cfdd6dfa336f40c31714b8bef8f2520e7036b9f079890600090a35b61115f600080516020613b87833981519152612895565b811461116a57600080fd5b505050565b611177612598565b6111cb5760408051600160e51b62461bcd02815260206004820152601460248201527f53686f756c64206e6f7420626520706175736564000000000000000000000000604482015290519081900360640190fd5b6111d3611924565b6001600160a01b0316336001600160a01b0316146112295760408051600160e51b62461bcd0281526020600482015260146024820152600080516020613ba7833981519152604482015290519081900360640190fd5b611242600080516020613ab6833981519152600061363f565b6040805133815290517faeb196d352664784d1900b0e7414a8face7d29f4dae8c4b0cf68ed477423bbf49181900360200190a1565b60008181526003602090815260409182902080548351601f600260001961010060018616150201909316929092049182018490048402810184019094528084526060939283018282801561130c5780601f106112e15761010080835404028352916020019161130c565b820191906000526020600020905b8154815290600101906020018083116112ef57829003601f168201915b50505050509050919050565b6113417f9ef7257c3339b099aacf96e55122ee78fb65a36bd2a6c19249882be9c98633bf611955565b156113965760408051600160e51b62461bcd02815260206004820152601360248201527f616c726561647920696e697469616c697a656400000000000000000000000000604482015290519081900360640190fd5b6001600160a01b038116158015906113b657506001600160a01b03821615155b61140a5760408051600160e51b62461bcd02815260206004820152601560248201527f3078206164647265737320697320696e76616c69640000000000000000000000604482015290519081900360640190fd5b6114347f90eeab7c36075577c7cc5ff366e389fefa8a18289b949bab3529ab4471139d4d83613780565b61145e7f02016836a56b71f0d02689e69e326f4f4c1b9057164ef592671cf0d37c8040c082613780565b611477600080516020613ab6833981519152600061363f565b6114a27f9ef7257c3339b099aacf96e55122ee78fb65a36bd2a6c19249882be9c98633bf600161363f565b5050565b60608060606114b484611e65565b90506114bf816130d9565b9250925050915091565b6000908152600260205260409020546001600160a01b031690565b6000806060611519610e40604051806040016040528060088152602001600160c21b671d995c9a599a595902815250866135b5565b61154d610ef06040518060400160405280600c8152602001600160a11b6b3330b1ba37b93ca7bbb732b902815250876135b5565b61158461157f6040518060400160405280600a8152602001600160b11b693932b83aba30ba34b7b702815250886135b5565b611591565b9250925092509193909250565b60008181526009602090815260409182902080548351818402810184019094528084526060939283018282801561130c57602002820191906000526020600020905b81546001600160a01b031681526001909101906020018083116115d35750505050509050919050565b611604612598565b156116595760408051600160e51b62461bcd02815260206004820152600e60248201527f416c726561647920706175736564000000000000000000000000000000000000604482015290519081900360640190fd5b611661611924565b6001600160a01b0316336001600160a01b0316146116b75760408051600160e51b62461bcd0281526020600482015260146024820152600080516020613ba7833981519152604482015290519081900360640190fd5b6116d0600080516020613ab6833981519152600161363f565b6040805133815290517f5ee71a369c8672edded508e624ffc9257fa1ae6886ef32905c18e60196bca3999181900360200190a1565b61170d611924565b6001600160a01b0316336001600160a01b0316146117635760408051600160e51b62461bcd0281526020600482015260146024820152600080516020613ba7833981519152604482015290519081900360640190fd5b6001600160a01b0381166117c15760408051600160e51b62461bcd02815260206004820152601560248201527f3078206164647265737320697320696e76616c69640000000000000000000000604482015290519081900360640190fd5b60408051600160e01b6370a08231028152306004820152905182916000916001600160a01b038416916370a08231916024808301926020929190829003018186803b15801561180f57600080fd5b505afa158015611823573d6000803e3d6000fd5b505050506040513d602081101561183957600080fd5b505190506001600160a01b03821663a9059cbb611854611924565b836040518363ffffffff1660e01b815260040180836001600160a01b03166001600160a01b0316815260200182815260200192505050602060405180830381600087803b1580156118a457600080fd5b505af11580156118b8573d6000803e3d6000fd5b505050506040513d60208110156118ce57600080fd5b505161116a5760408051600160e51b62461bcd02815260206004820152601560248201527f746f6b656e207472616e73666572206661696c65640000000000000000000000604482015290519081900360640190fd5b600061194f7f02016836a56b71f0d02689e69e326f4f4c1b9057164ef592671cf0d37c8040c06114c9565b90505b90565b60009081526004602052604090205460ff1690565b6119726137ae565b60006119a4610d12604051806040016040528060088152602001600160c01b67726567697374727902815250846135b5565b9050806119e557604051600160e51b62461bcd028152600401808060200182810382526023815260200180613bc76023913960400191505060405180910390fd5b6119ed611924565b6001600160a01b0316336001600160a01b03161480611a505750611a3b610ef06040518060400160405280600c8152602001600160a11b6b3330b1ba37b93ca7bbb732b902815250846135b5565b6001600160a01b0316336001600160a01b0316145b611a8e57604051600160e51b62461bcd02815260040180806020018281038252603f815260200180613b27603f913960400191505060405180910390fd5b6000611ac7610d126040518060400160405280600f81526020016001608b1b6e0dadec8ead8ca98d2e6e892dcc8caf02815250856135b5565b905060006001611aff61157f6040518060400160405280600a8152602001600160b21b691b5bd91d5b19531a5cdd0281525086613819565b510390506000611b3761157f6040518060400160405280600a8152602001600160b21b691b5bd91d5b19531a5cdd0281525086613819565b8281518110611b4257fe5b60200260200101519050818314611bc957611b8c611b856040518060400160405280600a8152602001600160b21b691b5bd91d5b19531a5cdd0281525086613819565b848361388e565b611bc9611bc36040518060400160405280600f81526020016001608b1b6e0dadec8ead8ca98d2e6e892dcc8caf02815250836135b5565b8461365f565b611c01611bfb6040518060400160405280600a8152602001600160b21b691b5bd91d5b19531a5cdd0281525086613819565b836138de565b611c38611c31604051806040016040528060088152602001600160c01b67726567697374727902815250876135b5565b600061365f565b611c7e611c6a6040518060400160405280600a8152602001600160b11b693932b83aba30ba34b7b702815250876135b5565b6040805160008152602081019091526139a9565b611cb5611cae604051806040016040528060088152602001600160c21b671d995c9a599a595902815250876135b5565b600061363f565b611cec611c316040518060400160405280600f81526020016001608b1b6e0dadec8ead8ca98d2e6e892dcc8caf02815250876135b5565b611d27611d206040518060400160405280600c8152602001600160a11b6b3330b1ba37b93ca7bbb732b902815250876135b5565b6000613780565b60405133906001600160a01b038716907fd66772358582078947c11fa70e2860b3ffa915277e6181a4aa293072cb57ed3c90600090a35050505050565b6060610c7c61157f6040518060400160405280600a8152602001600160b21b691b5bd91d5b19531a5cdd028152508460ff16613819565b60008181526001602081815260409283902080548451600294821615610100026000190190911693909304601f8101839004830284018301909452838352606093909183018282801561130c5780601f106112e15761010080835404028352916020019161130c565b60008181526007602090815260409182902080548351818402810184019094528084526060939283018282801561130c57602002820191906000526020600020905b815481526020019060010190808311611e465750505050509050919050565b606080611e9d61157f6040518060400160405280600a8152602001600160b21b691b5bd91d5b19531a5cdd028152508560ff16613819565b80519091506000805b82811015611f0557611ef1610e40604051806040016040528060088152602001600160c21b671d995c9a599a595902815250868481518110611ee457fe5b60200260200101516135b5565b15611efd576001909101905b600101611ea6565b50606081604051908082528060200260200182016040528015611f32578160200160208202803883390190505b50600092509050815b83811015611fc557611f79610e40604051806040016040528060088152602001600160c21b671d995c9a599a595902815250878481518110611ee457fe5b15611fbd57848181518110611f8a57fe5b6020026020010151828481518110611f9e57fe5b6001600160a01b03909216602092830291909101909101526001909201915b600101611f3b565b5095945050505050565b611fd76137ae565b611ff2600080516020613b87833981519152610de081612895565b600061200b600080516020613b87833981519152612895565b90506000826001600160a01b0316638da5cb5b6040518163ffffffff1660e01b815260040160206040518083038186803b15801561204857600080fd5b505afa15801561205c573d6000803e3d6000fd5b505050506040513d602081101561207257600080fd5b505160408051808201909152600c8152600160a11b6b3330b1ba37b93ca7bbb732b90260208201529091506120b1906120ab90856135b5565b82613780565b6120b9613671565b1561213057336001600160a01b03821614806120ed57506120d8611924565b6001600160a01b0316336001600160a01b0316145b61212b57604051600160e51b62461bcd02815260040180806020018281038252603f815260200180613b27603f913960400191505060405180910390fd5b61218a565b612138611924565b6001600160a01b0316336001600160a01b03161461218a57604051600160e51b62461bcd028152600401808060200182810382526026815260200180613a906026913960400191505060405180910390fd5b6121ba610d12604051806040016040528060088152602001600160c01b67726567697374727902815250856135b5565b156121f957604051600160e51b62461bcd02815260040180806020018281038252602b815260200180613bea602b913960400191505060405180910390fd5b60008390506000806060836001600160a01b031663b4579d606040518163ffffffff1660e01b815260040160006040518083038186803b15801561223c57600080fd5b505afa158015612250573d6000803e3d6000fd5b505050506040513d6000823e601f3d908101601f19168201604052602081101561227957600080fd5b810190808051600160201b81111561229057600080fd5b820160208101848111156122a357600080fd5b81518560208202830111600160201b821117156122bf57600080fd5b5060019750909450505050505b805183101561237c57600091505b82821015612371578082815181106122ee57fe5b602002602001015160ff1681848151811061230557fe5b602002602001015160ff1614156123665760408051600160e51b62461bcd02815260206004820152600d60248201527f54797065206d69736d6174636800000000000000000000000000000000000000604482015290519081900360640190fd5b6001909101906122da565b6001909201916122cc565b80516123d25760408051600160e51b62461bcd02815260206004820152601660248201527f466163746f7279206d7573742068617665207479706500000000000000000000604482015290519081900360640190fd5b6000816000815181106123e157fe5b602002602001015190508060ff16600014156124475760408051600160e51b62461bcd02815260206004820152600c60248201527f496e76616c696420747970650000000000000000000000000000000000000000604482015290519081900360640190fd5b612480612477604051806040016040528060088152602001600160c01b677265676973747279028152508a6135b5565b8260ff1661365f565b6124f26124b76040518060400160405280600f81526020016001608b1b6e0dadec8ead8ca98d2e6e892dcc8caf028152508a6135b5565b6124ec61157f6040518060400160405280600a8152602001600160b21b691b5bd91d5b19531a5cdd028152508560ff16613819565b5161365f565b61252d6125276040518060400160405280600a8152602001600160b21b691b5bd91d5b19531a5cdd028152508360ff16613819565b89613741565b856001600160a01b0316886001600160a01b03167f49220d7268f6ac850e2f0d39ce956e56f086a18cfda1383c05f9c859fdef901260405160405180910390a350505050505061258d600080516020613b8783398151915260001b612895565b81146114a257600080fd5b600061194f600080516020613ab6833981519152611955565b6125cc600080516020613b87833981519152610de081612895565b60006125e5600080516020613b87833981519152612895565b905060006125f1611924565b6001600160a01b0316336001600160a01b03161490506000836001600160a01b0316336001600160a01b03161490506000612656610ef06040518060400160405280600c8152602001600160a11b6b3330b1ba37b93ca7bbb732b902815250876135b5565b6001600160a01b0316336001600160a01b031614905082806126755750815b8061267d5750805b6126d15760408051600160e51b62461bcd02815260206004820152600e60248201527f4e6f7420617574686f7269736564000000000000000000000000000000000000604482015290519081900360640190fd5b6000612703610d12604051806040016040528060088152602001600160c01b67726567697374727902815250886135b5565b141561274357604051600160e51b62461bcd028152600401808060200182810382526021815260200180613b666021913960400191505060405180910390fd5b612773611cae604051806040016040528060088152602001600160c21b671d995c9a599a595902815250876135b5565b6040516001600160a01b038616907fbc7ce5f0f210af950fe3ce169a29ea85d52de86be246a738b2b5c11f6762b5f090600090a250505061258d600080516020613b8783398151915260001b612895565b6127cf816000610dc5565b50565b6127da611924565b6001600160a01b0316336001600160a01b0316146128305760408051600160e51b62461bcd0281526020600482015260146024820152600080516020613ba7833981519152604482015290519081900360640190fd5b60005b81518160ff16101561116a5761288d6128716040518060400160405280600a8152602001600160b11b693932b83aba30ba34b7b702815250856135b5565b838360ff168151811061288057fe5b6020026020010151613741565b600101612833565b60009081526020819052604090205490565b6060806128df61157f6040518060400160405280600a8152602001600160b21b691b5bd91d5b19531a5cdd028152508660ff16613819565b805190915060006128ee613671565b90506000805b83811015612a87578215612a2957612938610e40604051806040016040528060088152602001600160c21b671d995c9a599a595902815250878481518110611ee457fe5b806129f65750866001600160a01b0316638da5cb5b6040518163ffffffff1660e01b815260040160206040518083038186803b15801561297757600080fd5b505afa15801561298b573d6000803e3d6000fd5b505050506040513d60208110156129a157600080fd5b505160408051808201909152600c8152600160a11b6b3330b1ba37b93ca7bbb732b902602082015286516001600160a01b03909216916129eb91610ef091899086908110611ee457fe5b6001600160a01b0316145b15612a2457612a18858281518110612a0a57fe5b6020026020010151886109f4565b15612a24576001909101905b612a7f565b612a5f610e40604051806040016040528060088152602001600160c21b671d995c9a599a595902815250878481518110611ee457fe5b15612a7f57612a73858281518110612a0a57fe5b15612a7f576001909101905b6001016128f4565b50606081604051908082528060200260200182016040528015612ab4578160200160208202803883390190505b50600092509050815b84811015612cbf578315612c2957876001600160a01b0316638da5cb5b6040518163ffffffff1660e01b815260040160206040518083038186803b158015612b0457600080fd5b505afa158015612b18573d6000803e3d6000fd5b505050506040513d6020811015612b2e57600080fd5b505160408051808201909152600c8152600160a11b6b3330b1ba37b93ca7bbb732b902602082015287516001600160a01b0390921691612b7891610ef0918a9086908110611ee457fe5b6001600160a01b03161480612bbe5750612bbe610e40604051806040016040528060088152602001600160c21b671d995c9a599a595902815250888481518110611ee457fe5b15612c2457612be0868281518110612bd257fe5b6020026020010151896109f4565b15612c2457858181518110612bf157fe5b6020026020010151828481518110612c0557fe5b6001600160a01b03909216602092830291909101909101526001909201915b612cb7565b612c5f610e40604051806040016040528060088152602001600160c21b671d995c9a599a595902815250888481518110611ee457fe5b15612cb757612c73868281518110612bd257fe5b15612cb757858181518110612c8457fe5b6020026020010151828481518110612c9857fe5b6001600160a01b03909216602092830291909101909101526001909201915b600101612abd565b50979650505050505050565b612cd3611924565b6001600160a01b0316336001600160a01b031614612d295760408051600160e51b62461bcd0281526020600482015260146024820152600080516020613ba7833981519152604482015290519081900360640190fd5b6001600160a01b038116612d875760408051600160e51b62461bcd02815260206004820152600f60248201527f496e76616c696420616464726573730000000000000000000000000000000000604482015290519081900360640190fd5b806001600160a01b0316612d99611924565b6001600160a01b03167f8be0079c531659141344cd1fd0a4f28419497f9722a3daafe3b4186f6b6457e060405160405180910390a36127cf7f02016836a56b71f0d02689e69e326f4f4c1b9057164ef592671cf0d37c8040c082613780565b612e00611924565b6001600160a01b0316336001600160a01b031614612e565760408051600160e51b62461bcd0281526020600482015260146024820152600080516020613ba7833981519152604482015290519081900360640190fd5b6000612e817f90eeab7c36075577c7cc5ff366e389fefa8a18289b949bab3529ab4471139d4d6114c9565b60408051600160e01b63bf40fac1028152602060048201819052601560248301527f5365637572697479546f6b656e5265676973747279000000000000000000000060448301529151929350612f50927f12ada4f7ee6c2b7b933330be61fefa007a1f497dc8df1b349b48071a958d7a81926001600160a01b0386169263bf40fac19260648083019392829003018186803b158015612f1f57600080fd5b505afa158015612f33573d6000803e3d6000fd5b505050506040513d6020811015612f4957600080fd5b5051613780565b60408051600160e01b63bf40fac1028152602060048201819052600f60248301527f466561747572655265676973747279000000000000000000000000000000000060448301529151612fed927fed9ca06607835ad25ecacbcb97f2bc414d4a51ecf391b5ae42f15991227ab146926001600160a01b0386169263bf40fac192606480840193919291829003018186803b158015612f1f57600080fd5b60408051600160e01b63bf40fac102815260206004820181905260096024830152600160b91b682837b63caa37b5b2b702604483015291516127cf927facf8fbd51bb4b83ba426cdb12f63be74db97c412515797993d2a385542e311d7926001600160a01b0386169263bf40fac192606480840193919291829003018186803b158015612f1f57600080fd5b60008181526008602090815260409182902080548351818402810184019094528084526060939283018282801561130c5760200282019190600052602060002090815481526020019060010190808311611e465750505050509050919050565b606080600080805b85518210156131cf578582815181106130f657fe5b60200260200101516001600160a01b031663995d9ab76040518163ffffffff1660e01b815260040160006040518083038186803b15801561313657600080fd5b505afa15801561314a573d6000803e3d6000fd5b505050506040513d6000823e601f3d908101601f19168201604052602081101561317357600080fd5b810190808051600160201b81111561318a57600080fd5b8201602081018481111561319d57600080fd5b81518560208202830111600160201b821117156131b957600080fd5b50505195909501945050600190920191506130e1565b6060836040519080825280602002602001820160405280156131fb578160200160208202803883390190505b50905060608460405190808252806020026020018201604052801561322a578160200160208202803883390190505b509050606060009550600094505b88518510156133a55788858151811061324d57fe5b60200260200101516001600160a01b031663995d9ab76040518163ffffffff1660e01b815260040160006040518083038186803b15801561328d57600080fd5b505afa1580156132a1573d6000803e3d6000fd5b505050506040513d6000823e601f3d908101601f1916820160405260208110156132ca57600080fd5b810190808051600160201b8111156132e157600080fd5b820160208101848111156132f457600080fd5b81518560208202830111600160201b8211171561331057600080fd5b5060009850909450505050505b805184101561339a5780848151811061333257fe5b602002602001015183878151811061334657fe5b60200260200101818152505088858151811061335e57fe5b602002602001015182878151811061337257fe5b6001600160a01b0390921660209283029190910190910152600195860195939093019261331d565b600190940193613238565b509095509350505050915091565b600082516003146133c357600080fd5b81516003146133d157600080fd5b60005b83518160ff1610156134af57828160ff16815181106133ef57fe5b602002602001015160ff16848260ff168151811061340957fe5b602002602001015160ff16141561341f576134a7565b828160ff168151811061342e57fe5b602002602001015160ff16848260ff168151811061344857fe5b602002602001015160ff161015613463576001915050610c7c565b828160ff168151811061347257fe5b602002602001015160ff16848260ff168151811061348c57fe5b602002602001015160ff1611156134a7576000915050610c7c565b6001016133d4565b5060019392505050565b600082516003146134c957600080fd5b81516003146134d757600080fd5b60005b83518160ff1610156134af57828160ff16815181106134f557fe5b602002602001015160ff16848260ff168151811061350f57fe5b602002602001015160ff161415613525576135ad565b828160ff168151811061353457fe5b602002602001015160ff16848260ff168151811061354e57fe5b602002602001015160ff161115613569576001915050610c7c565b828160ff168151811061357857fe5b602002602001015160ff16848260ff168151811061359257fe5b602002602001015160ff1610156135ad576000915050610c7c565b6001016134da565b600082826040516020018083805190602001908083835b602083106135eb5780518252601f1990920191602091820191016135cc565b51815160209384036101000a60001901801990921691161790526001600160a01b039590951660601b92019182525060408051808303600b1901815260149092019052805192019190912095945050505050565b600091825260046020526040909120805460ff1916911515919091179055565b60009182526020829052604090912055565b600061369c7fed9ca06607835ad25ecacbcb97f2bc414d4a51ecf391b5ae42f15991227ab1466114c9565b6001600160a01b0316632f0019f26040518163ffffffff1660e01b81526004018080602001828103825260148152602001807f637573746f6d4d6f64756c6573416c6c6f77656400000000000000000000000081525060200191505060206040518083038186803b15801561371057600080fd5b505afa158015613724573d6000803e3d6000fd5b505050506040513d602081101561373a57600080fd5b5051905090565b600091825260096020908152604083208054600181018255908452922090910180546001600160a01b0319166001600160a01b03909216919091179055565b60009182526002602052604090912080546001600160a01b0319166001600160a01b03909216919091179055565b6137b6611924565b6001600160a01b0316336001600160a01b031614613817576137d6612598565b156138175760408051600160e51b62461bcd0281526020600482015260066024820152600160d21b6514185d5cd95902604482015290519081900360640190fd5b565b600082826040516020018083805190602001908083835b6020831061384f5780518252601f199092019160209182019101613830565b51815160209384036101000a60001901801990921691161790529201938452506040805180850381529382019052825192019190912095945050505050565b60008381526009602052604090208054829190849081106138ab57fe5b9060005260206000200160006101000a8154816001600160a01b0302191690836001600160a01b03160217905550505050565b60008281526009602052604090208054821061392e57604051600160e51b62461bcd02815260040180806020018281038252602a815260200180613c15602a913960400191505060405180910390fd5b80548190600019810190811061394057fe5b9060005260206000200160009054906101000a90046001600160a01b031681838154811061396a57fe5b600091825260209091200180546001600160a01b0319166001600160a01b03929092169190911790558054600019016139a382826139c8565b50505050565b6000828152600960209081526040909120825161116a928401906139ec565b81548183558181111561116a5760008381526020902061116a918101908301613a51565b828054828255906000526020600020908101928215613a41579160200282015b82811115613a4157825182546001600160a01b0319166001600160a01b03909116178255602090920191600190910190613a0c565b50613a4d929150613a6b565b5090565b61195291905b80821115613a4d5760008155600101613a57565b61195291905b80821115613a4d5780546001600160a01b0319168155600101613a7156fe4f6e6c79206f776e657220616c6c6f77656420746f207265676973746572206d6f64756c6573ee35723ac350a69d2a92d3703f17439cbaadf2f093a21ba5bf5f1a53eb2a14d94d6f64756c65466163746f7279206d757374206265207665726966696564206f72205365637572697479546f6b656e206f776e6572206d757374206265204d6f64756c65466163746f7279206f776e65726d73672e73656e646572206d75737420626520746865204d6f64756c6520466163746f7279206f776e6572206f722072656769737472792063757261746f724d6f64756c6520666163746f7279206d7573742062652072656769737465726564ab99c6d7581cbb37d2e578d3097bfdd3323e05447f1fd7670b6c3a3fb9d9ff7973656e646572206d757374206265206f776e65720000000000000000000000004d6f64756c6520666163746f72792073686f756c6420626520726567697374657265644d6f64756c6520666163746f72792073686f756c64206e6f74206265207072652d72656769737465726564496e6465782073686f756c64206c657373207468616e206c656e677468206f6620746865206172726179a165627a7a7230582002adfc7b4d6f74baf7432de4dbb46a7329724c59840e883b01f565a0912902cc0029",
  "source": "pragma solidity 0.5.8;\r\n\r\nimport \"../ModuleRegistry.sol\";\r\n\r\n/**\r\n * @title Registry contract for issuers to register their security tokens\r\n */\r\ncontract MockModuleRegistry is ModuleRegistry {\r\n    /// @notice It is dummy functionality\r\n    /// Alert! Alert! Do not use it for the mainnet release\r\n    function addMoreReputation(address _moduleFactory, address[] memory _tokens) public onlyOwner {\r\n        for (uint8 i = 0; i < _tokens.length; i++) {\r\n            pushArray(Encoder.getKey(\"reputation\", _moduleFactory), _tokens[i]);\r\n        }\r\n    }\r\n\r\n}\r\n",
  "sourcePath": "C:/mspace/polymath-core/contracts/mocks/MockModuleRegistry.sol",
  "compiler": {
    "name": "solc",
    "version": "0.5.8+commit.23d335f2.Emscripten.clang"
  },
  "schemaVersion": "3.0.11",
  "updatedAt": "2019-08-05T12:37:19.115Z",
  "devdoc": {
    "methods": {
      "getAllModulesByType(uint8)": {
        "params": {
          "_moduleType": "Type of Module\r"
        },
        "return": "address array that contains the list of addresses of module factory contracts.\r"
      },
      "getFactoryDetails(address)": {
        "params": {
          "_factoryAddress": "is the address of the module factory\r"
        },
        "return": "bool indicating whether module factory is verified\raddress of the factory owner\raddress array which contains the list of securityTokens that use that module factory\r"
      },
      "getModulesByType(uint8)": {
        "params": {
          "_moduleType": "Type of Module\r"
        },
        "return": "address array that contains the list of addresses of module factory contracts.\r"
      },
      "getModulesByTypeAndToken(uint8,address)": {
        "params": {
          "_moduleType": "is the module type to look for\r",
          "_securityToken": "is the address of SecurityToken\r"
        },
        "return": "address array that contains the list of available addresses of module factory contracts.\r"
      },
      "getTagsByType(uint8)": {
        "params": {
          "_moduleType": "is the module type\r"
        },
        "return": "list of tags\rcorresponding list of module factories\r"
      },
      "getTagsByTypeAndToken(uint8,address)": {
        "params": {
          "_moduleType": "is the module type\r",
          "_securityToken": "is the token\r"
        },
        "return": "list of tags\rcorresponding list of module factories\r"
      },
      "isCompatibleModule(address,address)": {
        "params": {
          "_moduleFactory": "is the address of the relevant module factory\r",
          "_securityToken": "is the address of the relevant security token\r"
        },
        "return": "bool whether module and token are compatible\r"
      },
      "isPaused()": {
        "return": "bool\r"
      },
      "owner()": {
        "return": "address owner\r"
      },
      "reclaimERC20(address)": {
        "params": {
          "_tokenContract": "The address of the token contract\r"
        }
      },
      "registerModule(address)": {
        "params": {
          "_moduleFactory": "is the address of the module factory to be registered\r"
        }
      },
      "removeModule(address)": {
        "params": {
          "_moduleFactory": "is the address of the module factory to be deleted from the registry\r"
        }
      },
      "transferOwnership(address)": {
        "details": "Allows the current owner to transfer control of the contract to a newOwner.\r",
        "params": {
          "_newOwner": "The address to transfer ownership to.\r"
        }
      },
      "unverifyModule(address)": {
        "params": {
          "_moduleFactory": "is the address of the module factory to be verified\r"
        }
      },
      "useModule(address)": {
        "details": "ModuleFactory reputation increases by one every time it is deployed(used) by a ST.\rAny module can be added during token creation without being registered if it is defined in the token proxy deployment contract\rThe feature switch for custom modules is labelled \"customModulesAllowed\"\r",
        "params": {
          "_moduleFactory": "is the address of the relevant module factory\r"
        }
      },
      "useModule(address,bool)": {
        "details": "ModuleFactory reputation increases by one every time it is deployed(used) by a ST.\rAny module can be added during token creation without being registered if it is defined in the token proxy deployment contract\rThe feature switch for custom modules is labelled \"customModulesAllowed\"\r",
        "params": {
          "_isUpgrade": "whether or not the function is being called as a result of an upgrade\r",
          "_moduleFactory": "is the address of the relevant module factory\r"
        }
      },
      "verifyModule(address)": {
        "params": {
          "_moduleFactory": "is the address of the module factory to be verified\r"
        }
      }
    },
    "title": "Registry contract for issuers to register their security tokens\r"
  },
  "userdoc": {
    "methods": {
      "addMoreReputation(address,address[])": {
        "notice": "Alert! Alert! Do not use it for the mainnet release"
      },
      "getAllModulesByType(uint8)": {
        "notice": "Returns the list of addresses of all Module Factory of a particular type\r"
      },
      "getArrayAddress(bytes32)": {
        "notice": "getArrayBytes32(keccak256(abi.encodePacked(\"tokensOwnedByOwner\", 0x1)).length;"
      },
      "getFactoryDetails(address)": {
        "notice": "Returns the verified status, and reputation of the entered Module Factory\r"
      },
      "getModulesByType(uint8)": {
        "notice": "Returns the list of addresses of verified Module Factory of a particular type\r"
      },
      "getModulesByTypeAndToken(uint8,address)": {
        "notice": "Returns the list of available Module factory addresses of a particular type for a given token.\r"
      },
      "getTagsByType(uint8)": {
        "notice": "Returns all the tags related to the a module type which are valid for the given token\r"
      },
      "getTagsByTypeAndToken(uint8,address)": {
        "notice": "Returns all the tags related to the a module type which are valid for the given token\r"
      },
      "getUintValue(bytes32)": {
        "notice": "string _name = getString(keccak256(abi.encodePacked(\"registeredSymbols_name\", \"TOKEN\"));"
      },
      "isCompatibleModule(address,address)": {
        "notice": "Check that a module and its factory are compatible\r"
      },
      "isPaused()": {
        "notice": "Checks whether the contract operations is paused or not\r"
      },
      "owner()": {
        "notice": "Gets the owner of the contract\r"
      },
      "pause()": {
        "notice": "Called by the owner to pause, triggers stopped state\r"
      },
      "reclaimERC20(address)": {
        "notice": "Reclaims all ERC20Basic compatible tokens\r"
      },
      "registerModule(address)": {
        "notice": "Called by the ModuleFactory owner to register new modules for SecurityTokens to use\r"
      },
      "removeModule(address)": {
        "notice": "Called by the ModuleFactory owner or registry curator to delete a ModuleFactory from the registry\r"
      },
      "unpause()": {
        "notice": "Called by the owner to unpause, returns to normal state\r"
      },
      "unverifyModule(address)": {
        "notice": "Called by Polymath to verify Module Factories for SecurityTokens to use.\rA module can not be used by an ST unless first approved/verified by Polymath\r(The only exception to this is that the author of the module is the owner of the ST)\r-> Only if Polymath enabled the feature.\r"
      },
      "updateFromRegistry()": {
        "notice": "Stores the contract addresses of other key contracts from the PolymathRegistry\r"
      },
      "useModule(address)": {
        "notice": "Called by a SecurityToken (2.x) to check if the ModuleFactory is verified or appropriate custom module\r"
      },
      "useModule(address,bool)": {
        "notice": "Called by a SecurityToken to check if the ModuleFactory is verified or appropriate custom module\r"
      },
      "verifyModule(address)": {
        "notice": "Called by Polymath to verify Module Factories for SecurityTokens to use.\rA module can not be used by an ST unless first approved/verified by Polymath\r(The only exception to this is that the author of the module is the owner of the ST)\r-> Only if Polymath enabled the feature.\r"
      }
    }
  }
}