{
  "contractName": "MockFactory",
  "abi": [
    {
      "constant": false,
      "inputs": [
        {
          "name": "_data",
          "type": "bytes"
        }
      ],
      "name": "deploy",
      "outputs": [
        {
          "name": "",
          "type": "address"
        }
      ],
      "payable": false,
      "stateMutability": "nonpayable",
      "type": "function"
    },
    {
      "constant": true,
      "inputs": [],
      "name": "name",
      "outputs": [
        {
          "name": "",
          "type": "bytes32"
        }
      ],
      "payable": false,
      "stateMutability": "view",
      "type": "function"
    },
    {
      "constant": false,
      "inputs": [
        {
          "name": "_module",
          "type": "address"
        }
      ],
      "name": "upgrade",
      "outputs": [],
      "payable": false,
      "stateMutability": "nonpayable",
      "type": "function"
    },
    {
      "constant": false,
      "inputs": [
        {
          "name": "_setupCost",
          "type": "uint256"
        }
      ],
      "name": "changeSetupCost",
      "outputs": [],
      "payable": false,
      "stateMutability": "nonpayable",
      "type": "function"
    },
    {
      "constant": false,
      "inputs": [
        {
          "name": "_tagsData",
          "type": "bytes32[]"
        }
      ],
      "name": "changeTags",
      "outputs": [],
      "payable": false,
      "stateMutability": "nonpayable",
      "type": "function"
    },
    {
      "constant": false,
      "inputs": [],
      "name": "setupCostInPoly",
      "outputs": [
        {
          "name": "",
          "type": "uint256"
        }
      ],
      "payable": false,
      "stateMutability": "nonpayable",
      "type": "function"
    },
    {
      "constant": false,
      "inputs": [
        {
          "name": "_title",
          "type": "string"
        }
      ],
      "name": "changeTitle",
      "outputs": [],
      "payable": false,
      "stateMutability": "nonpayable",
      "type": "function"
    },
    {
      "constant": false,
      "inputs": [
        {
          "name": "_version",
          "type": "string"
        },
        {
          "name": "_logicContract",
          "type": "address"
        },
        {
          "name": "_upgradeData",
          "type": "bytes"
        }
      ],
      "name": "setLogicContract",
      "outputs": [],
      "payable": false,
      "stateMutability": "nonpayable",
      "type": "function"
    },
    {
      "constant": true,
      "inputs": [],
      "name": "isCostInPoly",
      "outputs": [
        {
          "name": "",
          "type": "bool"
        }
      ],
      "payable": false,
      "stateMutability": "view",
      "type": "function"
    },
    {
      "constant": true,
      "inputs": [],
      "name": "title",
      "outputs": [
        {
          "name": "",
          "type": "string"
        }
      ],
      "payable": false,
      "stateMutability": "view",
      "type": "function"
    },
    {
      "constant": true,
      "inputs": [],
      "name": "version",
      "outputs": [
        {
          "name": "",
          "type": "string"
        }
      ],
      "payable": false,
      "stateMutability": "view",
      "type": "function"
    },
    {
      "constant": true,
      "inputs": [],
      "name": "latestUpgrade",
      "outputs": [
        {
          "name": "",
          "type": "uint256"
        }
      ],
      "payable": false,
      "stateMutability": "view",
      "type": "function"
    },
    {
      "constant": true,
      "inputs": [
        {
          "name": "",
          "type": "uint256"
        }
      ],
      "name": "logicContracts",
      "outputs": [
        {
          "name": "version",
          "type": "string"
        },
        {
          "name": "logicContract",
          "type": "address"
        },
        {
          "name": "upgradeData",
          "type": "bytes"
        }
      ],
      "payable": false,
      "stateMutability": "view",
      "type": "function"
    },
    {
      "constant": false,
      "inputs": [],
      "name": "renounceOwnership",
      "outputs": [],
      "payable": false,
      "stateMutability": "nonpayable",
      "type": "function"
    },
    {
      "constant": true,
      "inputs": [],
      "name": "description",
      "outputs": [
        {
          "name": "",
          "type": "string"
        }
      ],
      "payable": false,
      "stateMutability": "view",
      "type": "function"
    },
    {
      "constant": true,
      "inputs": [],
      "name": "polymathRegistry",
      "outputs": [
        {
          "name": "",
          "type": "address"
        }
      ],
      "payable": false,
      "stateMutability": "view",
      "type": "function"
    },
    {
      "constant": true,
      "inputs": [],
      "name": "typesSwitch",
      "outputs": [
        {
          "name": "",
          "type": "bool"
        }
      ],
      "payable": false,
      "stateMutability": "view",
      "type": "function"
    },
    {
      "constant": true,
      "inputs": [],
      "name": "setupCost",
      "outputs": [
        {
          "name": "",
          "type": "uint256"
        }
      ],
      "payable": false,
      "stateMutability": "view",
      "type": "function"
    },
    {
      "constant": true,
      "inputs": [],
      "name": "getLowerSTVersionBounds",
      "outputs": [
        {
          "name": "",
          "type": "uint8[]"
        }
      ],
      "payable": false,
      "stateMutability": "view",
      "type": "function"
    },
    {
      "constant": false,
      "inputs": [
        {
          "name": "_name",
          "type": "bytes32"
        }
      ],
      "name": "changeName",
      "outputs": [],
      "payable": false,
      "stateMutability": "nonpayable",
      "type": "function"
    },
    {
      "constant": true,
      "inputs": [],
      "name": "owner",
      "outputs": [
        {
          "name": "",
          "type": "address"
        }
      ],
      "payable": false,
      "stateMutability": "view",
      "type": "function"
    },
    {
      "constant": true,
      "inputs": [],
      "name": "isOwner",
      "outputs": [
        {
          "name": "",
          "type": "bool"
        }
      ],
      "payable": false,
      "stateMutability": "view",
      "type": "function"
    },
    {
      "constant": true,
      "inputs": [],
      "name": "getTags",
      "outputs": [
        {
          "name": "",
          "type": "bytes32[]"
        }
      ],
      "payable": false,
      "stateMutability": "view",
      "type": "function"
    },
    {
      "constant": true,
      "inputs": [
        {
          "name": "",
          "type": "address"
        },
        {
          "name": "",
          "type": "address"
        }
      ],
      "name": "modules",
      "outputs": [
        {
          "name": "",
          "type": "uint256"
        }
      ],
      "payable": false,
      "stateMutability": "view",
      "type": "function"
    },
    {
      "constant": true,
      "inputs": [
        {
          "name": "",
          "type": "address"
        }
      ],
      "name": "moduleToSecurityToken",
      "outputs": [
        {
          "name": "",
          "type": "address"
        }
      ],
      "payable": false,
      "stateMutability": "view",
      "type": "function"
    },
    {
      "constant": false,
      "inputs": [
        {
          "name": "_setupCost",
          "type": "uint256"
        },
        {
          "name": "_isCostInPoly",
          "type": "bool"
        }
      ],
      "name": "changeCostAndType",
      "outputs": [],
      "payable": false,
      "stateMutability": "nonpayable",
      "type": "function"
    },
    {
      "constant": false,
      "inputs": [
        {
          "name": "_upgrade",
          "type": "uint256"
        },
        {
          "name": "_version",
          "type": "string"
        },
        {
          "name": "_logicContract",
          "type": "address"
        },
        {
          "name": "_upgradeData",
          "type": "bytes"
        }
      ],
      "name": "updateLogicContract",
      "outputs": [],
      "payable": false,
      "stateMutability": "nonpayable",
      "type": "function"
    },
    {
      "constant": false,
      "inputs": [
        {
          "name": "_description",
          "type": "string"
        }
      ],
      "name": "changeDescription",
      "outputs": [],
      "payable": false,
      "stateMutability": "nonpayable",
      "type": "function"
    },
    {
      "constant": false,
      "inputs": [
        {
          "name": "newOwner",
          "type": "address"
        }
      ],
      "name": "transferOwnership",
      "outputs": [],
      "payable": false,
      "stateMutability": "nonpayable",
      "type": "function"
    },
    {
      "constant": true,
      "inputs": [],
      "name": "getUpperSTVersionBounds",
      "outputs": [
        {
          "name": "",
          "type": "uint8[]"
        }
      ],
      "payable": false,
      "stateMutability": "view",
      "type": "function"
    },
    {
      "constant": false,
      "inputs": [
        {
          "name": "_boundType",
          "type": "string"
        },
        {
          "name": "_newVersion",
          "type": "uint8[]"
        }
      ],
      "name": "changeSTVersionBounds",
      "outputs": [],
      "payable": false,
      "stateMutability": "nonpayable",
      "type": "function"
    },
    {
      "inputs": [
        {
          "name": "_setupCost",
          "type": "uint256"
        },
        {
          "name": "_logicContract",
          "type": "address"
        },
        {
          "name": "_polymathRegistry",
          "type": "address"
        },
        {
          "name": "_isFeeInPoly",
          "type": "bool"
        }
      ],
      "payable": false,
      "stateMutability": "nonpayable",
      "type": "constructor"
    },
    {
      "anonymous": false,
      "inputs": [
        {
          "indexed": false,
          "name": "_version",
          "type": "string"
        },
        {
          "indexed": false,
          "name": "_upgrade",
          "type": "uint256"
        },
        {
          "indexed": false,
          "name": "_logicContract",
          "type": "address"
        },
        {
          "indexed": false,
          "name": "_upgradeData",
          "type": "bytes"
        }
      ],
      "name": "LogicContractSet",
      "type": "event"
    },
    {
      "anonymous": false,
      "inputs": [
        {
          "indexed": true,
          "name": "_module",
          "type": "address"
        },
        {
          "indexed": true,
          "name": "_securityToken",
          "type": "address"
        },
        {
          "indexed": true,
          "name": "_version",
          "type": "uint256"
        }
      ],
      "name": "ModuleUpgraded",
      "type": "event"
    },
    {
      "anonymous": false,
      "inputs": [
        {
          "indexed": true,
          "name": "previousOwner",
          "type": "address"
        },
        {
          "indexed": true,
          "name": "newOwner",
          "type": "address"
        }
      ],
      "name": "OwnershipTransferred",
      "type": "event"
    },
    {
      "anonymous": false,
      "inputs": [
        {
          "indexed": false,
          "name": "_oldSetupCost",
          "type": "uint256"
        },
        {
          "indexed": false,
          "name": "_newSetupCost",
          "type": "uint256"
        }
      ],
      "name": "ChangeSetupCost",
      "type": "event"
    },
    {
      "anonymous": false,
      "inputs": [
        {
          "indexed": false,
          "name": "_isOldCostInPoly",
          "type": "bool"
        },
        {
          "indexed": false,
          "name": "_isNewCostInPoly",
          "type": "bool"
        }
      ],
      "name": "ChangeCostType",
      "type": "event"
    },
    {
      "anonymous": false,
      "inputs": [
        {
          "indexed": false,
          "name": "_module",
          "type": "address"
        },
        {
          "indexed": true,
          "name": "_moduleName",
          "type": "bytes32"
        },
        {
          "indexed": true,
          "name": "_moduleFactory",
          "type": "address"
        },
        {
          "indexed": false,
          "name": "_creator",
          "type": "address"
        },
        {
          "indexed": false,
          "name": "_setupCost",
          "type": "uint256"
        },
        {
          "indexed": false,
          "name": "_setupCostInPoly",
          "type": "uint256"
        }
      ],
      "name": "GenerateModuleFromFactory",
      "type": "event"
    },
    {
      "anonymous": false,
      "inputs": [
        {
          "indexed": false,
          "name": "_boundType",
          "type": "string"
        },
        {
          "indexed": false,
          "name": "_major",
          "type": "uint8"
        },
        {
          "indexed": false,
          "name": "_minor",
          "type": "uint8"
        },
        {
          "indexed": false,
          "name": "_patch",
          "type": "uint8"
        }
      ],
      "name": "ChangeSTVersionBound",
      "type": "event"
    },
    {
      "constant": true,
      "inputs": [],
      "name": "getTypes",
      "outputs": [
        {
          "name": "",
          "type": "uint8[]"
        }
      ],
      "payable": false,
      "stateMutability": "view",
      "type": "function"
    },
    {
      "constant": false,
      "inputs": [],
      "name": "switchTypes",
      "outputs": [],
      "payable": false,
      "stateMutability": "nonpayable",
      "type": "function"
    }
  ],
  "bytecode": "0x6080604052600f805460ff191690553480156200001b57600080fd5b5060405160808062004d4e833981018060405260808110156200003d57600080fd5b50805160208083015160408085015160609095015181518083018352600581527f332e302e3000000000000000000000000000000000000000000000000000000094810194909452600080546001600160a01b0319163317808255925195969395939491938793879387938793919287928792879287928692859285926001600160a01b039190911691907f8be0079c531659141344cd1fd0a4f28419497f9722a3daafe3b4186f6b6457e0908290a3600992909255600180546001600160a01b0319166001600160a01b039283161790556008805460ff19169215159290921790915583166200018f57604080517f08c379a000000000000000000000000000000000000000000000000000000000815260206004820152600f60248201527f496e76616c696420616464726573730000000000000000000000000000000000604482015290519081900360640190fd5b600e80546000908152600b6020908152604080832060010180546001600160a01b0319166001600160a01b038916179055925482529190208651620001d79288019062000487565b50507f44756d6d7953544f00000000000000000000000000000000000000000000000060035550506040805180820190915260098082527f44756d6d792053544f000000000000000000000000000000000000000000000060209092019182526200024793506004925062000487565b506040805180820190915260098082527f44756d6d792053544f000000000000000000000000000000000000000000000060209092019182526200028e9160059162000487565b5060068054600181810190925560208082047ff652222313e28459528d920b65115c16c04f3efc82aaedc97be59f3f377c0d3f018054601f9093166101000a600381810260ff9092021990941617905560078054808501825560008281527f44756d6d790000000000000000000000000000000000000000000000000000007fa66cc928b5edb82af9bd49922954155ab7b0942694bea4ce44661d9a8736c68892830155825480870184557f45544800000000000000000000000000000000000000000000000000000000009083015582549586019092557f53544f0000000000000000000000000000000000000000000000000000000000940193909355620003a49290819062002aa26200046f821b17901c565b604080517f6c6f776572426f756e64000000000000000000000000000000000000000000008152600a808201529051602a91819003919091019020805462ffffff191662ffffff929092169190911790556200041060036000806200046f602090811b62002aa217901c565b604080517f7570706572426f756e64000000000000000000000000000000000000000000008152600a81810152905190819003602a019020805462ffffff9290921662ffffff19909216919091179055506200052c9650505050505050565b60ff90811691811660081b921660101b919091171790565b828054600181600116156101000203166002900490600052602060002090601f016020900481019282601f10620004ca57805160ff1916838001178555620004fa565b82800160010185558215620004fa579182015b82811115620004fa578251825591602001919060010190620004dd565b50620005089291506200050c565b5090565b6200052991905b8082111562000508576000815560010162000513565b90565b614812806200053c6000396000f3fe60806040523480156200001157600080fd5b50600436106200022b5760003560e01c806377282b701162000135578063a01fe64611620000bd578063d26633e01162000087578063d26633e01462000889578063e61204131462000964578063f2fde38b1462000a0e578063f78629991462000a37578063fb9724561462000a41576200022b565b8063a01fe64614620007fd578063a76a0cad146200082e578063b4579d601462000857578063c97767f01462000861576200022b565b8063898855ed11620000ff578063898855ed14620007bf5780638da5cb5b14620007df5780638f32d59b14620007e9578063995d9ab714620007f3576200022b565b806377282b701462000745578063785ca9c8146200074f5780637e363ffa14620007595780638677768f1462000763576200022b565b8063436846b811620001b957806360fece01116200018357806360fece01146200060a5780636b68e1441462000614578063715018a614620007315780637284e416146200073b576200022b565b8063436846b8146200055657806348c7311014620005745780634a79d50c146200057e57806354fd4d501462000600576200022b565b8063265a721811620001fb578063265a721814620003275780632d0aa22e14620003ce5780632dbe07c714620003d85780633c1fdaa51462000482576200022b565b8062774360146200023057806306fdde0314620002c05780630900f01014620002dc5780630c4c2d8f1462000307575b600080fd5b620002a4600480360360208110156200024857600080fd5b810190602081018135600160201b8111156200026357600080fd5b8201836020820111156200027657600080fd5b803590602001918460018302840111600160201b831117156200029857600080fd5b50909250905062000b08565b604080516001600160a01b039092168252519081900360200190f35b620002ca62000cf1565b60408051918252519081900360200190f35b6200030560048036036020811015620002f457600080fd5b50356001600160a01b031662000cf7565b005b62000305600480360360208110156200031f57600080fd5b503562000fc5565b62000305600480360360208110156200033f57600080fd5b810190602081018135600160201b8111156200035a57600080fd5b8201836020820111156200036d57600080fd5b803590602001918460208302840111600160201b831117156200038f57600080fd5b9190808060200260200160405190810160405280939291908181526020018383602002808284376000920191909152509295506200101b945050505050565b620002ca62001094565b6200030560048036036020811015620003f057600080fd5b810190602081018135600160201b8111156200040b57600080fd5b8201836020820111156200041e57600080fd5b803590602001918460018302840111600160201b831117156200044057600080fd5b91908080601f0160208091040260200160405190810160405280939291908181526020018383808284376000920191909152509295506200124c945050505050565b62000305600480360360608110156200049a57600080fd5b810190602081018135600160201b811115620004b557600080fd5b820183602082011115620004c857600080fd5b803590602001918460018302840111600160201b83111715620004ea57600080fd5b919390926001600160a01b0383351692604081019060200135600160201b8111156200051557600080fd5b8201836020820111156200052857600080fd5b803590602001918460018302840111600160201b831117156200054a57600080fd5b509092509050620012c1565b620005606200152a565b604080519115158252519081900360200190f35b6200030562001533565b620005886200155b565b6040805160208082528351818301528351919283929083019185019080838360005b83811015620005c4578181015183820152602001620005aa565b50505050905090810190601f168015620005f25780820380516001836020036101000a031916815260200191505b509250505060405180910390f35b62000588620015ed565b620002ca62001693565b62000634600480360360208110156200062c57600080fd5b503562001699565b6040518080602001846001600160a01b03166001600160a01b0316815260200180602001838103835286818151815260200191508051906020019080838360005b838110156200068f57818101518382015260200162000675565b50505050905090810190601f168015620006bd5780820380516001836020036101000a031916815260200191505b50838103825284518152845160209182019186019080838360005b83811015620006f2578181015183820152602001620006d8565b50505050905090810190601f168015620007205780820380516001836020036101000a031916815260200191505b509550505050505060405180910390f35b62000305620017e6565b6200058862001844565b620002a4620018a2565b62000560620018b1565b620002ca620018ba565b6200076d620018c0565b60408051602080825283518183015283519192839290830191858101910280838360005b83811015620007ab57818101518382015260200162000791565b505050509050019250505060405180910390f35b6200030560048036036020811015620007d757600080fd5b503562001901565b620002a462001962565b6200056062001971565b6200076d62001982565b620002ca600480360360408110156200081557600080fd5b506001600160a01b0381358116916020013516620019db565b620002a4600480360360208110156200084657600080fd5b50356001600160a01b0316620019f8565b6200076d62001a13565b62000305600480360360408110156200087957600080fd5b5080359060200135151562001aa5565b6200030560048036036080811015620008a157600080fd5b81359190810190604081016020820135600160201b811115620008c357600080fd5b820183602082011115620008d657600080fd5b803590602001918460018302840111600160201b83111715620008f857600080fd5b919390926001600160a01b0383351692604081019060200135600160201b8111156200092357600080fd5b8201836020820111156200093657600080fd5b803590602001918460018302840111600160201b831117156200095857600080fd5b50909250905062001b53565b62000305600480360360208110156200097c57600080fd5b810190602081018135600160201b8111156200099757600080fd5b820183602082011115620009aa57600080fd5b803590602001918460018302840111600160201b83111715620009cc57600080fd5b91908080601f01602080910402602001604051908101604052809392919081815260200183838082843760009201919091525092955062001e72945050505050565b620003056004803603602081101562000a2657600080fd5b50356001600160a01b031662001ee7565b6200076d62001f09565b620003056004803603604081101562000a5957600080fd5b810190602081018135600160201b81111562000a7457600080fd5b82018360208201111562000a8757600080fd5b803590602001918460018302840111600160201b8311171562000aa957600080fd5b919390929091602081019035600160201b81111562000ac757600080fd5b82018360208201111562000ada57600080fd5b803590602001918460208302840111600160201b8311171562000afc57600080fd5b50909250905062001f45565b600e546000908152600b602090815260408083206001548251600160e01b63bf40fac10281526004810185905260096024820152600160b91b682837b63caa37b5b2b702604482015292518594929333936001600160a01b039093169263bf40fac192606480840193829003018186803b15801562000b8657600080fd5b505afa15801562000b9b573d6000803e3d6000fd5b505050506040513d602081101562000bb257600080fd5b5051600e546000908152600b6020526040908190206001015490516001600160a01b039091169062000be49062002f6d565b6001600160a01b0380851660208301528381166040830152821660608201526080808252855460026000196101006001841615020190911604908201819052819060a08201908790801562000c7d5780601f1062000c515761010080835404028352916020019162000c7d565b820191906000526020600020905b81548152906001019060200180831162000c5f57829003601f168201915b505095505050505050604051809103906000f08015801562000ca3573d6000803e3d6000fd5b50905062000ce88185858080601f0160208091040260200160405190810160405280939291908181526020018383808284376000920191909152506200243d92505050565b90505b92915050565b60035481565b6001600160a01b038181166000908152600d602052604090205416331462000d695760408051600160e51b62461bcd02815260206004820152601060248201527f496e636f72726563742063616c6c657200000000000000000000000000000000604482015290519081900360640190fd5b336000908152600c602090815260408083206001600160a01b0385168452909152902054600e5460019091019081111562000dee5760408051600160e51b62461bcd02815260206004820152601160248201527f496e636f72726563742076657273696f6e000000000000000000000000000000604482015290519081900360640190fd5b6000818152600b6020526040908190206001808201549251600160e01b63958a41dd0281526001600160a01b03938416602482018190526060600483019081528454600260001995821615610100029590950116849004606484018190529588169563958a41dd959492939285019282916044820191608401908790801562000ebb5780601f1062000e8f5761010080835404028352916020019162000ebb565b820191906000526020600020905b81548152906001019060200180831162000e9d57829003601f168201915b505083810382528454600260001961010060018416150201909116048082526020909101908590801562000f335780601f1062000f075761010080835404028352916020019162000f33565b820191906000526020600020905b81548152906001019060200180831162000f1557829003601f168201915b505095505050505050600060405180830381600087803b15801562000f5757600080fd5b505af115801562000f6c573d6000803e3d6000fd5b5050336000818152600c602090815260408083206001600160a01b038916808552925280832087905551869550929350917f6b272426dd4b3366b853f4e32bb7fce7392e461688b7a8bf942bd61f756f1d0f9190a45050565b62000fcf62001971565b62000fd957600080fd5b600954604080519182526020820183905280517f599b244d21db9af3e5c0ec6cd4af8b4c6085c9ac647c72f008f8c40d0d7cd1be9281900390910190a1600955565b6200102562001971565b6200102f57600080fd5b60008151116200107b5760408051600160e51b62461bcd02815260206004820152600c6024820152600160a21b6b125b9d985b1a59081d195e1d02604482015290519081900360640190fd5b80516200109090600790602084019062002f7b565b5050565b60085460009060ff1615620010ad575060095462001249565b600154604080518082018252601381527f537461626c65506f6c795573644f7261636c650000000000000000000000000060208083019182529251600160e01b63bf40fac1028152600481019384528251602482015282516000956001600160a01b03169463bf40fac1949390928392604490910191908083838b5b838110156200114357818101518382015260200162001129565b50505050905090810190601f168015620011715780820380516001836020036101000a031916815260200191505b509250505060206040518083038186803b1580156200118f57600080fd5b505afa158015620011a4573d6000803e3d6000fd5b505050506040513d6020811015620011bb57600080fd5b505160408051600160e11b634c6afee502815290516001600160a01b03909216916398d5fdca916004808201926020929091908290030181600087803b1580156200120557600080fd5b505af11580156200121a573d6000803e3d6000fd5b505050506040513d60208110156200123157600080fd5b505160095490915062001245908262002490565b9150505b90565b6200125662001971565b6200126057600080fd5b6000815111620012ac5760408051600160e51b62461bcd02815260206004820152600c6024820152600160a21b6b125b9d985b1a59081d195e1d02604482015290519081900360640190fd5b80516200109090600490602084019062002fcb565b620012cb62001971565b620012d557600080fd5b600b6000600e54815260200190815260200160002060000160405160200180828054600181600116156101000203166002900480156200134f5780601f106200132c5761010080835404028352918201916200134f565b820191906000526020600020905b8154815290600101906020018083116200133a575b5050915050604051602081830303815290604052805190602001208585604051602001808383808284378083019250505092505050604051602081830303815290604052805190602001201415620013e35760408051600160e51b62461bcd02815260206004820152600c6024820152600160a11b6b29b0b6b2903b32b939b4b7b702604482015290519081900360640190fd5b600e546000908152600b60205260409020600101546001600160a01b03848116911614156200144e5760408051600160e51b62461bcd02815260206004820152600c6024820152600160a11b6b29b0b6b2903b32b939b4b7b702604482015290519081900360640190fd5b6001600160a01b038316620014a25760408051600160e51b62461bcd02815260206004820152600f6024820152600160881b6e496e76616c6964206164647265737302604482015290519081900360640190fd5b600e805460010190819055604080516020601f8801819004810282018101909252868152620015239291889088908190840183828082843760009201919091525050604080516020601f890181900481028201810190925287815289935091508790879081908401838280828437600092019190915250620024c592505050565b5050505050565b60085460ff1681565b6200153d62001971565b6200154757600080fd5b600f805460ff19811660ff90911615179055565b6004805460408051602060026001851615610100026000190190941693909304601f81018490048402820184019092528181529291830182828015620015e55780601f10620015b957610100808354040283529160200191620015e5565b820191906000526020600020905b815481529060010190602001808311620015c757829003601f168201915b505050505081565b600e546000908152600b602090815260409182902080548351601f6002600019610100600186161502019093169290920491820184900484028101840190945280845260609392830182828015620016895780601f106200165d5761010080835404028352916020019162001689565b820191906000526020600020905b8154815290600101906020018083116200166b57829003601f168201915b5050505050905090565b600e5481565b600b6020908152600091825260409182902080548351601f60026000196101006001861615020190931692909204918201849004840281018401909452808452909291839190830182828015620017345780601f10620017085761010080835404028352916020019162001734565b820191906000526020600020905b8154815290600101906020018083116200171657829003601f168201915b505050506001838101546002808601805460408051602061010097841615979097026000190190921693909304601f810186900486028201860190935282815295966001600160a01b03909316959294509192830182828015620017dc5780601f10620017b057610100808354040283529160200191620017dc565b820191906000526020600020905b815481529060010190602001808311620017be57829003601f168201915b5050505050905083565b620017f062001971565b620017fa57600080fd5b600080546040516001600160a01b03909116907f8be0079c531659141344cd1fd0a4f28419497f9722a3daafe3b4186f6b6457e0908390a3600080546001600160a01b0319169055565b6005805460408051602060026001851615610100026000190190941693909304601f81018490048402820184019092528181529291830182828015620015e55780601f10620015b957610100808354040283529160200191620015e5565b6001546001600160a01b031681565b600f5460ff1681565b60095481565b60408051600160b21b691b1bddd95c909bdd5b99028152600a81810152905190819003602a01902054606090620018fc9062ffffff166200276c565b905090565b6200190b62001971565b6200191557600080fd5b806200195d5760408051600160e51b62461bcd02815260206004820152600c6024820152600160a21b6b125b9d985b1a59081d195e1d02604482015290519081900360640190fd5b600355565b6000546001600160a01b031690565b6000546001600160a01b0316331490565b606060078054806020026020016040519081016040528092919081815260200182805480156200168957602002820191906000526020600020905b815481526020019060010190808311620019bd575050505050905090565b600c60209081526000928352604080842090915290825290205481565b600d602052600090815260409020546001600160a01b031681565b600f5460609060ff1662001a37575060408051600081526020810190915262001249565b604080516002808252606080830184529260208301908038833901905050905060018160008151811062001a6757fe5b602002602001019060ff16908160ff168152505060018160018151811062001a8b57fe5b60ff90921660209283029190910190910152905062001249565b62001aaf62001971565b62001ab957600080fd5b600954604080519182526020820184905280517f599b244d21db9af3e5c0ec6cd4af8b4c6085c9ac647c72f008f8c40d0d7cd1be9281900390910190a16008546040805160ff90921615158252821515602083015280517f243562d4d8acd21cf96c899dfa0c26774212a5181e5e40f852c7e6b66b7b96db9281900390910190a16009919091556008805460ff1916911515919091179055565b62001b5d62001971565b62001b6757600080fd5b600e5486111562001bc25760408051600160e51b62461bcd02815260206004820152600f60248201527f496e76616c696420757067726164650000000000000000000000000000000000604482015290519081900360640190fd5b851562001d4557600b6000600188038152602001908152602001600020600001604051602001808280546001816001161561010002031660029004801562001c445780601f1062001c2157610100808354040283529182019162001c44565b820191906000526020600020905b81548152906001019060200180831162001c2f575b505091505060405160208183030381529060405280519060200120858560405160200180838380828437808301925050509250505060405160208183030381529060405280519060200120141562001cd85760408051600160e51b62461bcd02815260206004820152600c6024820152600160a11b6b29b0b6b2903b32b939b4b7b702604482015290519081900360640190fd5b60001986016000908152600b60205260409020600101546001600160a01b038481169116141562001d455760408051600160e51b62461bcd02815260206004820152600c6024820152600160a11b6b29b0b6b2903b32b939b4b7b702604482015290519081900360640190fd5b6001600160a01b03831662001d995760408051600160e51b62461bcd02815260206004820152600f6024820152600160881b6e496e76616c6964206164647265737302604482015290519081900360640190fd5b6004811162001df25760408051600160e51b62461bcd02815260206004820152600f60248201527f496e76616c696420557067726164650000000000000000000000000000000000604482015290519081900360640190fd5b62001e6a8686868080601f01602080910402602001604051908101604052809392919081815260200183838082843760009201919091525050604080516020601f890181900481028201810190925287815289935091508790879081908401838280828437600092019190915250620024c592505050565b505050505050565b62001e7c62001971565b62001e8657600080fd5b600081511162001ed25760408051600160e51b62461bcd02815260206004820152600c6024820152600160a21b6b125b9d985b1a59081d195e1d02604482015290519081900360640190fd5b80516200109090600590602084019062002fcb565b62001ef162001971565b62001efb57600080fd5b62001f068162002811565b50565b60408051600160b21b691d5c1c195c909bdd5b99028152600a81810152905190819003602a01902054606090620018fc9062ffffff166200276c565b62001f4f62001971565b62001f5957600080fd5b6040516020018080600160b21b691b1bddd95c909bdd5b9902815250600a0190506040516020818303038152906040528051906020012084846040516020018083838082843780830192505050925050506040516020818303038152906040528051906020012014806200203157506040516020018080600160b21b691d5c1c195c909bdd5b9902815250600a01905060405160208183030381529060405280519060200120848460405160200180838380828437808301925050509250505060405160208183030381529060405280519060200120145b620020865760408051600160e51b62461bcd02815260206004820152601260248201527f496e76616c696420626f756e6420747970650000000000000000000000000000604482015290519081900360640190fd5b60038114620020d45760408051600160e51b62461bcd02815260206004820152600f6024820152600160891b6e24b73b30b634b2103b32b939b4b7b702604482015290519081900360640190fd5b600062ffffff16600a858560405180838380828437919091019485525050604051928390036020019092205462ffffff16929092149150620022d890505760606200214c600a868660405180838380828437919091019485525050604051928390036020019092205462ffffff1691506200276c9050565b90506040516020018080600160b21b691b1bddd95c909bdd5b9902815250600a0190506040516020818303038152906040528051906020012085856040516020018083838082843780830192505050925050506040516020818303038152906040528051906020012014156200224c57620021fc83838080602002602001604051908101604052809392919081815260200183836020028082843760009201919091525085925062002880915050565b620022465760408051600160e51b62461bcd02815260206004820152600f6024820152600160891b6e24b73b30b634b2103b32b939b4b7b702604482015290519081900360640190fd5b620022d6565b6200228c83838080602002602001604051908101604052809392919081815260200183836020028082843760009201919091525085925062002996915050565b620022d65760408051600160e51b62461bcd02815260206004820152600f6024820152600160891b6e24b73b30b634b2103b32b939b4b7b702604482015290519081900360640190fd5b505b6200232a82826000818110620022ea57fe5b9050602002013560ff16838360018181106200230257fe5b9050602002013560ff16848460028181106200231a57fe5b9050602002013560ff1662002aa2565b600a85856040518083838082843791909101948552505060405192839003602001909220805462ffffff9490941662ffffff1990941693909317909255507f5b67e16edaf7fc70c8d065ea6e70b97ed944d98fe593b04d682216615a3b04db9050848484846000816200239957fe5b9050602002013560ff1685856001818110620023b157fe5b9050602002013560ff1686866002818110620023c957fe5b9050602002013560ff1660405180806020018560ff1660ff1681526020018460ff1660ff1681526020018360ff1660ff1681526020018281038252878782818152602001925080828437600083820152604051601f909101601f19169092018290039850909650505050505050a150505050565b62002449828262002aba565b506001600160a01b03166000818152600d6020908152604080832080546001600160a01b03191633908117909155600e54908452600c835281842094845293909152902055565b600081620024b5620024ab85670de0b6b3a764000062002d1d565b6002850462002d48565b81620024bd57fe5b049392505050565b6000848152600b602090815260409091208451620024e69286019062002fcb565b506000848152600b602090815260409091206001810180546001600160a01b0319166001600160a01b03861617905582516200252b9260029092019184019062002fcb565b5060015460408051600160e01b63bf40fac1028152602060048201819052600e60248301527f4d6f64756c655265676973747279000000000000000000000000000000000000604483015291516000936001600160a01b03169263bf40fac19260648082019391829003018186803b158015620025a757600080fd5b505afa158015620025bc573d6000803e3d6000fd5b505050506040513d6020811015620025d357600080fd5b505160408051600160e01b63cf5f591d02815230600482015290519192506001600160a01b0383169163cf5f591d9160248082019260009290919082900301818387803b1580156200262457600080fd5b505af115801562002639573d6000803e3d6000fd5b505050507fbcda874f53511fb6338990baf12d53b3bcef8cb0247ba5f7673450267395515a848685856040518080602001858152602001846001600160a01b03166001600160a01b0316815260200180602001838103835287818151815260200191508051906020019080838360005b83811015620026c3578181015183820152602001620026a9565b50505050905090810190601f168015620026f15780820380516001836020036101000a031916815260200191505b50838103825284518152845160209182019186019080838360005b83811015620027265781810151838201526020016200270c565b50505050905090810190601f168015620027545780820380516001836020036101000a031916815260200191505b50965050505050505060405180910390a15050505050565b6040805160038082526080820190925260609182919060208201838038833901905050905060108362ffffff16901c81600081518110620027a957fe5b602002602001019060ff16908160ff168152505060088362ffffff16901c81600181518110620027d557fe5b602002602001019060ff16908160ff16815250508281600281518110620027f857fe5b60ff909216602092830291909101909101529050919050565b6001600160a01b0381166200282557600080fd5b600080546040516001600160a01b03808516939216917f8be0079c531659141344cd1fd0a4f28419497f9722a3daafe3b4186f6b6457e091a3600080546001600160a01b0319166001600160a01b0392909216919091179055565b600082516003146200289157600080fd5b8151600314620028a057600080fd5b60005b83518160ff1610156200298c57828160ff1681518110620028c057fe5b602002602001015160ff16848260ff1681518110620028db57fe5b602002602001015160ff161415620028f35762002983565b828160ff16815181106200290357fe5b602002602001015160ff16848260ff16815181106200291e57fe5b602002602001015160ff1610156200293b57600191505062000ceb565b828160ff16815181106200294b57fe5b602002602001015160ff16848260ff16815181106200296657fe5b602002602001015160ff1611156200298357600091505062000ceb565b600101620028a3565b5060019392505050565b60008251600314620029a757600080fd5b8151600314620029b657600080fd5b60005b83518160ff1610156200298c57828160ff1681518110620029d657fe5b602002602001015160ff16848260ff1681518110620029f157fe5b602002602001015160ff16141562002a095762002a99565b828160ff168151811062002a1957fe5b602002602001015160ff16848260ff168151811062002a3457fe5b602002602001015160ff16111562002a5157600191505062000ceb565b828160ff168151811062002a6157fe5b602002602001015160ff16848260ff168151811062002a7c57fe5b602002602001015160ff16101562002a9957600091505062000ceb565b600101620029b9565b60ff90811691811660081b921660101b919091171790565b600062002ac662002d5b565b90506000836001600160a01b0316631613ec9d6040518163ffffffff1660e01b815260040160206040518083038186803b15801562002b0457600080fd5b505afa15801562002b19573d6000803e3d6000fd5b505050506040513d602081101562002b3057600080fd5b505190506001600160e01b031981161562002cbe576001600160e01b0319811662002b5b8462002f08565b6001600160e01b0319161462002bbb5760408051600160e51b62461bcd02815260206004820152601a60248201527f50726f76696465642064617461206973206e6f742076616c6964000000000000604482015290519081900360640190fd5b6000846001600160a01b0316846040518082805190602001908083835b6020831062002bf95780518252601f19909201916020918201910162002bd8565b6001836020036101000a0380198251168184511680821785525050505050509050019150506000604051808303816000865af19150503d806000811462002c5d576040519150601f19603f3d011682016040523d82523d6000602084013e62002c62565b606091505b505090508062002cbc5760408051600160e51b62461bcd02815260206004820152601b60248201527f556e7375636365737366756c20696e697469616c697a6174696f6e0000000000604482015290519081900360640190fd5b505b600354600954604080516001600160a01b03881681523360208201528082019290925260608201859052513092917fb68b4973fbce93f056103272c1f3f53b607527138d7e323b7b94f7ac169ebf77919081900360800190a350505050565b60008262002d2e5750600062000ceb565b8282028284828162002d3c57fe5b041462000ce857600080fd5b60008282018381101562000ce857600080fd5b60008062002d6862001094565b60015460408051600160e01b63bf40fac102815260206004820181905260096024830152600160b91b682837b63caa37b5b2b702604483015291519394506000936001600160a01b039093169263bf40fac192606480840193919291829003018186803b15801562002dd957600080fd5b505afa15801562002dee573d6000803e3d6000fd5b505050506040513d602081101562002e0557600080fd5b50519050811562002f0257806001600160a01b03166323b872dd3362002e2a62001962565b856040518463ffffffff1660e01b815260040180846001600160a01b03166001600160a01b03168152602001836001600160a01b03166001600160a01b031681526020018281526020019350505050602060405180830381600087803b15801562002e9457600080fd5b505af115801562002ea9573d6000803e3d6000fd5b505050506040513d602081101562002ec057600080fd5b505162002f0257604051600160e51b62461bcd028152600401808060200182810382526025815260200180620047c26025913960400191505060405180910390fd5b50905090565b600080600483511062002f1d57600462002f20565b82515b905060005b8181101562002f66578060080284828151811062002f3f57fe5b01602001516001600160f81b031960f891821c90911b16901c929092179160010162002f25565b5050919050565b611767806200305b83390190565b82805482825590600052602060002090810192821562002fb9579160200282015b8281111562002fb957825182559160200191906001019062002f9c565b5062002fc79291506200303d565b5090565b828054600181600116156101000203166002900490600052602060002090601f016020900481019282601f106200300e57805160ff191683800117855562002fb9565b8280016001018555821562002fb9579182018281111562002fb957825182559160200191906001019062002f9c565b6200124991905b8082111562002fc757600081556001016200304456fe6080604052600e8054600160a01b60ff02191690553480156200002157600080fd5b506040516200176738038062001767833981018060405260808110156200004757600080fd5b8101908080516401000000008111156200006057600080fd5b820160208101848111156200007457600080fd5b81516401000000008111828201871017156200008f57600080fd5b50506020808301516040840151606090940151600d80546001600160a01b038085166001600160a01b031992831617909255600c8054821633908117909155600e8054938916939092169290921790556001600f5593965090945091620000fa9162000177811b901c565b6001600160a01b0381166200015b576040517f08c379a0000000000000000000000000000000000000000000000000000000008152600401808060200182810382526027815260200180620016bf6027913960400191505060405180910390fd5b6200016d84826200020f60201b60201c565b5050505062000631565b6001600160a01b038116620001ed57604080517f08c379a000000000000000000000000000000000000000000000000000000000815260206004820152601860248201527f416464726573732073686f756c64206e6f742062652030780000000000000000604482015290519081900360640190fd5b601280546001600160a01b0319166001600160a01b0392909216919091179055565b6011546001600160a01b038281169116148015906200023657506001600160a01b03811615155b6200028d576040517f08c379a0000000000000000000000000000000000000000000000000000000008152600401808060200182810382526046815260200180620016e66046913960600191505060405180910390fd5b620002a3816200058660201b62000eb61760201c565b620002fa576040517f08c379a000000000000000000000000000000000000000000000000000000000815260040180806020018281038252603b8152602001806200172c603b913960400191505060405180910390fd5b600082511162000356576040517f08c379a00000000000000000000000000000000000000000000000000000000081526004018080602001828103825260228152602001806200169d6022913960400191505060405180910390fd5b816040516020018082805190602001908083835b602083106200038b5780518252601f1990920191602091820191016200036a565b6001836020036101000a03801982511681845116808217855250505050505090500191505060405160208183030381529060405280519060200120601060405160200180828054600181600116156101000203166002900480156200042a5780601f10620004075761010080835404028352918201916200042a565b820191906000526020600020905b81548152906001019060200180831162000415575b5050915050604051602081830303815290604052805190602001201415620004b357604080517f08c379a000000000000000000000000000000000000000000000000000000000815260206004820152601d60248201527f4e65772076657273696f6e20657175616c7320746f2063757272656e74000000604482015290519081900360640190fd5b8151620004c89060109060208501906200058c565b50601180546001600160a01b0319166001600160a01b03831690811790915560408051602080825285518183015285517f8e05e0e35ff592971ca8b477d4285a33a61ded208d644042667b78693a472f5e938793928392918301919085019080838360005b83811015620005475781810151838201526020016200052d565b50505050905090810190601f168015620005755780820380516001836020036101000a031916815260200191505b509250505060405180910390a25050565b3b151590565b828054600181600116156101000203166002900490600052602060002090601f016020900481019282601f10620005cf57805160ff1916838001178555620005ff565b82800160010185558215620005ff579182015b82811115620005ff578251825591602001919060010190620005e2565b506200060d92915062000611565b5090565b6200062e91905b808211156200060d576000815560010162000618565b90565b61105c80620006416000396000f3fe6080604052600436106101405760003560e01c80636faa22a5116100b6578063c45a01551161006f578063c45a0155146104af578063c4d2c6bd146104c4578063d143a379146104f1578063d7e64c001461051e578063e7a96f6d14610533578063f1739cae1461054857610140565b80636faa22a51461037757806378e979251461038c578063958a41dd146103a1578063983d273714610470578063b2cca39d14610485578063b84dfbd21461049a57610140565b806354fd4d501161010857806354fd4d50146101e15780635a8b1a9f1461026b5780635c60da1b146102f15780635c975abb1461030657806363b201171461032f5780636f7bc9be1461034457610140565b8063025313a21461014a5780632a0acc6a1461017b5780633197cbb6146101a2578063355274ea146101b7578063521eb273146101cc575b61014861057b565b005b34801561015657600080fd5b5061015f61058d565b604080516001600160a01b039092168252519081900360200190f35b34801561018757600080fd5b506101906105ca565b60408051918252519081900360200190f35b3480156101ae57600080fd5b506101906105d9565b3480156101c357600080fd5b506101906105df565b3480156101d857600080fd5b5061015f6105e5565b3480156101ed57600080fd5b506101f66105f4565b6040805160208082528351818301528351919283929083019185019080838360005b83811015610230578181015183820152602001610218565b50505050905090810190601f16801561025d5780820380516001836020036101000a031916815260200191505b509250505060405180910390f35b34801561027757600080fd5b506101486004803603604081101561028e57600080fd5b8101906020810181356401000000008111156102a957600080fd5b8201836020820111156102bb57600080fd5b803590602001918460018302840111640100000000831117156102dd57600080fd5b9193509150356001600160a01b03166106a9565b3480156102fd57600080fd5b5061015f61071d565b34801561031257600080fd5b5061031b610748565b604080519115158252519081900360200190f35b34801561033b57600080fd5b50610190610758565b34801561035057600080fd5b506101906004803603602081101561036757600080fd5b50356001600160a01b031661075e565b34801561038357600080fd5b5061015f610770565b34801561039857600080fd5b5061019061077f565b610148600480360360608110156103b757600080fd5b8101906020810181356401000000008111156103d257600080fd5b8201836020820111156103e457600080fd5b8035906020019184600183028401116401000000008311171561040657600080fd5b919390926001600160a01b038335169260408101906020013564010000000081111561043157600080fd5b82018360208201111561044357600080fd5b8035906020019184600183028401116401000000008311171561046557600080fd5b509092509050610785565b34801561047c57600080fd5b5061019061082f565b34801561049157600080fd5b50610190610841565b3480156104a657600080fd5b5061015f610847565b3480156104bb57600080fd5b5061015f610856565b3480156104d057600080fd5b50610190600480360360208110156104e757600080fd5b503560ff16610865565b3480156104fd57600080fd5b5061031b6004803603602081101561051457600080fd5b503560ff16610877565b34801561052a57600080fd5b5061019061088c565b34801561053f57600080fd5b506101f6610892565b34801561055457600080fd5b506101486004803603602081101561056b57600080fd5b50356001600160a01b031661091d565b61058b610586610a00565b610a0f565b565b6000610597610a33565b6001600160a01b0316336001600160a01b031614156105bf576105b8610a33565b90506105c7565b6105c761057b565b90565b600160d91b6420a226a4a70281565b60075481565b60015481565b600a546001600160a01b031681565b60606105fe610a33565b6001600160a01b0316336001600160a01b031614156105bf576010805460408051602060026001851615610100026000190190941693909304601f8101849004840282018401909252818152929183018282801561069d5780601f106106725761010080835404028352916020019161069d565b820191906000526020600020905b81548152906001019060200180831161068057829003601f168201915b505050505090506105c7565b6106b1610a33565b6001600160a01b0316336001600160a01b031614156107105761070b83838080601f016020809104026020016040519081016040528093929190818152602001838380828437600092019190915250859250610a42915050565b610718565b61071861057b565b505050565b6000610727610a33565b6001600160a01b0316336001600160a01b031614156105bf576105b8610a00565b600e54600160a01b900460ff1681565b600b5481565b60036020526000908152604090205481565b600e546001600160a01b031681565b60065481565b61078d610a33565b6001600160a01b0316336001600160a01b031614156108205761081b85858080601f01602080910402602001604051908101604052809392919081815260200183838082843760009201919091525050604080516020601f880181900481028201810190925286815288935091508690869081908401838280828437600092019190915250610d3d92505050565b610828565b61082861057b565b5050505050565b600160c11b6727a822a920aa27a90281565b60085481565b600d546001600160a01b031681565b600c546001600160a01b031681565b60056020526000908152604090205481565b60046020526000908152604090205460ff1681565b60095481565b6002805460408051602060018416156101000260001901909316849004601f810184900484028201840190925281815292918301828280156109155780601f106108ea57610100808354040283529160200191610915565b820191906000526020600020905b8154815290600101906020018083116108f857829003601f168201915b505050505081565b610925610a33565b6001600160a01b0316336001600160a01b031614156109f5576001600160a01b03811661099c5760408051600160e51b62461bcd02815260206004820152601860248201527f416464726573732073686f756c64206e6f742062652030780000000000000000604482015290519081900360640190fd5b7f5a3e66efaa1e445ebd894728a69d6959842ea1e97bd79b892797106e270efcd96109c5610a33565b604080516001600160a01b03928316815291841660208301528051918290030190a16109f081610e36565b6109fd565b6109fd61057b565b50565b6011546001600160a01b031690565b3660008037600080366000845af43d6000803e808015610a2e573d6000f35b3d6000fd5b6012546001600160a01b031690565b6011546001600160a01b03828116911614801590610a6857506001600160a01b03811615155b610aa657604051600160e51b62461bcd028152600401808060200182810382526046815260200180610fb06046913960600191505060405180910390fd5b610aaf81610eb6565b610aed57604051600160e51b62461bcd02815260040180806020018281038252603b815260200180610ff6603b913960400191505060405180910390fd5b6000825111610b3057604051600160e51b62461bcd028152600401808060200182810382526022815260200180610f556022913960400191505060405180910390fd5b816040516020018082805190602001908083835b60208310610b635780518252601f199092019160209182019101610b44565b6001836020036101000a0380198251168184511680821785525050505050509050019150506040516020818303038152906040528051906020012060106040516020018082805460018160011615610100020316600290048015610bfe5780601f10610bdc576101008083540402835291820191610bfe565b820191906000526020600020905b815481529060010190602001808311610bea575b5050915050604051602081830303815290604052805190602001201415610c6f5760408051600160e51b62461bcd02815260206004820152601d60248201527f4e65772076657273696f6e20657175616c7320746f2063757272656e74000000604482015290519081900360640190fd5b8151610c82906010906020850190610ebc565b50601180546001600160a01b0319166001600160a01b03831690811790915560408051602080825285518183015285517f8e05e0e35ff592971ca8b477d4285a33a61ded208d644042667b78693a472f5e938793928392918301919085019080838360005b83811015610cff578181015183820152602001610ce7565b50505050905090810190601f168015610d2c5780820380516001836020036101000a031916815260200191505b509250505060405180910390a25050565b610d478383610a42565b6000306001600160a01b031634836040518082805190602001908083835b60208310610d845780518252601f199092019160209182019101610d65565b6001836020036101000a03801982511681845116808217855250505050505090500191505060006040518083038185875af1925050503d8060008114610de6576040519150601f19603f3d011682016040523d82523d6000602084013e610deb565b606091505b50508091505080610e3057604051600160e51b62461bcd028152600401808060200182810382526039815260200180610f776039913960400191505060405180910390fd5b50505050565b6001600160a01b038116610e945760408051600160e51b62461bcd02815260206004820152601860248201527f416464726573732073686f756c64206e6f742062652030780000000000000000604482015290519081900360640190fd5b601280546001600160a01b0319166001600160a01b0392909216919091179055565b3b151590565b828054600181600116156101000203166002900490600052602060002090601f016020900481019282601f10610efd57805160ff1916838001178555610f2a565b82800160010185558215610f2a579182015b82811115610f2a578251825591602001919060010190610f0f565b50610f36929150610f3a565b5090565b6105c791905b80821115610f365760008155600101610f4056fe56657273696f6e2073686f756c64206e6f7420626520656d70747920737472696e674661696c20696e20657865637574696e67207468652066756e6374696f6e206f6620696d706c656d656e746174696f6e20636f6e74726163744f6c642061646472657373206973206e6f7420616c6c6f77656420616e6420696d706c656d656e746174696f6e20616464726573732073686f756c64206e6f7420626520307843616e6e6f742073657420612070726f787920696d706c656d656e746174696f6e20746f2061206e6f6e2d636f6e74726163742061646472657373a165627a7a7230582047412a03db801886cbeff60213a54a77cca57e55f55cc8f339e792466b601abc002956657273696f6e2073686f756c64206e6f7420626520656d70747920737472696e67496d706c656d656e746174696f6e20616464726573732073686f756c64206e6f742062652030784f6c642061646472657373206973206e6f7420616c6c6f77656420616e6420696d706c656d656e746174696f6e20616464726573732073686f756c64206e6f7420626520307843616e6e6f742073657420612070726f787920696d706c656d656e746174696f6e20746f2061206e6f6e2d636f6e74726163742061646472657373496e73756666696369656e7420616c6c6f77616e636520666f72206d6f64756c6520666565a165627a7a72305820404a41796aa7bafd595153b368c73288f72c306103d169c2ff9299a583637e4a0029",
  "source": "pragma solidity 0.5.8;\r\n\r\nimport \"./Dummy/DummySTOFactory.sol\";\r\n\r\n/**\r\n * @title Mock Contract Not fit for production environment\r\n */\r\n\r\ncontract MockFactory is DummySTOFactory {\r\n    bool public typesSwitch = false;\r\n\r\n    /**\r\n     * @notice Constructor\r\n     * @param _setupCost Setup cost of the module\r\n      * @param _logicContract Contract address that contains the logic related to `description`\r\n     * @param _polymathRegistry Address of the Polymath Registry\r\n     */\r\n    constructor(\r\n        uint256 _setupCost,\r\n        address _logicContract,\r\n        address _polymathRegistry,\r\n        bool _isFeeInPoly\r\n    )\r\n        public\r\n        DummySTOFactory(_setupCost, _logicContract, _polymathRegistry, _isFeeInPoly)\r\n    {\r\n    }\r\n\r\n    /**\r\n     * @notice Type of the Module factory\r\n     */\r\n    function getTypes() external view returns(uint8[] memory) {\r\n        if (!typesSwitch) {\r\n            uint8[] memory res = new uint8[](0);\r\n            return res;\r\n        } else {\r\n            uint8[] memory res = new uint8[](2);\r\n            res[0] = 1;\r\n            res[1] = 1;\r\n            return res;\r\n        }\r\n\r\n    }\r\n\r\n    function switchTypes() external onlyOwner {\r\n        typesSwitch = !typesSwitch;\r\n    }\r\n\r\n}\r\n",
  "sourcePath": "C:/mspace/polymath-core/contracts/mocks/MockFactory.sol",
  "compiler": {
    "name": "solc",
    "version": "0.5.8+commit.23d335f2.Emscripten.clang"
  },
  "schemaVersion": "3.0.11",
  "updatedAt": "2019-08-05T12:37:19.112Z",
  "devdoc": {
    "methods": {
      "changeCostAndType(uint256,bool)": {
        "params": {
          "_isCostInPoly": "new setup cost currency. USD or POLY\r",
          "_setupCost": "new setup cost\r"
        }
      },
      "changeDescription(string)": {
        "params": {
          "_description": "New description that will replace the old one.\r"
        }
      },
      "changeName(bytes32)": {
        "params": {
          "_name": "New name that will replace the old one.\r"
        }
      },
      "changeSTVersionBounds(string,uint8[])": {
        "params": {
          "_boundType": "Type of bound\r",
          "_newVersion": "new version array\r"
        }
      },
      "changeSetupCost(uint256)": {
        "params": {
          "_setupCost": "new setup cost\r"
        }
      },
      "changeTags(bytes32[])": {
        "params": {
          "_tagsData": "New list of tags\r"
        }
      },
      "changeTitle(string)": {
        "params": {
          "_title": "New Title that will replace the old one.\r"
        }
      },
      "constructor": {
        "params": {
          "_logicContract": "Contract address that contains the logic related to `description`\r",
          "_polymathRegistry": "Address of the Polymath Registry\r",
          "_setupCost": "Setup cost of the module\r"
        }
      },
      "deploy(bytes)": {
        "params": {
          "_data": "Data used for the intialization of the module factory variables\r"
        },
        "return": "address Contract address of the Module\r"
      },
      "getLowerSTVersionBounds()": {
        "return": "lower bound\r"
      },
      "getUpperSTVersionBounds()": {
        "return": "upper bound\r"
      },
      "isOwner()": {
        "return": "true if `msg.sender` is the owner of the contract."
      },
      "owner()": {
        "return": "the address of the owner."
      },
      "renounceOwnership()": {
        "details": "Allows the current owner to relinquish control of the contract. It will not be possible to call the functions with the `onlyOwner` modifier anymore."
      },
      "setLogicContract(string,address,bytes)": {
        "params": {
          "_logicContract": "Address of deployed module logic contract referenced from proxy\r",
          "_upgradeData": "Data to be passed in call to upgradeToAndCall when a token upgrades its module\r",
          "_version": "Version of upgraded module\r"
        }
      },
      "transferOwnership(address)": {
        "details": "Allows the current owner to transfer control of the contract to a newOwner.",
        "params": {
          "newOwner": "The address to transfer ownership to."
        }
      },
      "updateLogicContract(uint256,string,address,bytes)": {
        "params": {
          "_logicContract": "Address of deployed module logic contract referenced from proxy\r",
          "_upgrade": "logic contract to upgrade\r",
          "_upgradeData": "Data to be passed in call to upgradeToAndCall when a token upgrades its module\r",
          "_version": "Version of upgraded module\r"
        }
      },
      "upgrade(address)": {
        "params": {
          "_module": "Address of (proxy) module to be upgraded\r"
        }
      }
    },
    "title": "Mock Contract Not fit for production environment\r"
  },
  "userdoc": {
    "methods": {
      "changeCostAndType(uint256,bool)": {
        "notice": "Used to change the currency and amount of setup cost\r"
      },
      "changeDescription(string)": {
        "notice": "Updates the description of the ModuleFactory\r"
      },
      "changeName(bytes32)": {
        "notice": "Updates the name of the ModuleFactory\r"
      },
      "changeSTVersionBounds(string,uint8[])": {
        "notice": "Function use to change the lower and upper bound of the compatible version st\r"
      },
      "changeSetupCost(uint256)": {
        "notice": "Used to change the fee of the setup cost\r"
      },
      "changeTags(bytes32[])": {
        "notice": "Updates the tags of the ModuleFactory\r"
      },
      "changeTitle(string)": {
        "notice": "Updates the title of the ModuleFactory\r"
      },
      "constructor": "Constructor\r",
      "deploy(bytes)": {
        "notice": "Used to launch the Module with the help of factory\r"
      },
      "getLowerSTVersionBounds()": {
        "notice": "Used to get the lower bound\r"
      },
      "getTags()": {
        "notice": "Get the tags related to the module factory\r"
      },
      "getTypes()": {
        "notice": "Type of the Module factory\r"
      },
      "getUpperSTVersionBounds()": {
        "notice": "Used to get the upper bound\r"
      },
      "renounceOwnership()": {
        "notice": "Renouncing ownership will leave the contract without an owner, thereby removing any functionality that is only available to the owner."
      },
      "setLogicContract(string,address,bytes)": {
        "notice": "Used to upgrade the module factory\r"
      },
      "setupCostInPoly()": {
        "notice": "Get the setup cost of the module\r"
      },
      "updateLogicContract(uint256,string,address,bytes)": {
        "notice": "Used to update an existing token logic contract\r"
      },
      "upgrade(address)": {
        "notice": "Used by a security token to upgrade a given module\r"
      },
      "version()": {
        "notice": "Get the version related to the module factory\r"
      }
    }
  }
}