{
  "contractName": "ModuleStorage",
  "abi": [
    {
      "constant": true,
      "inputs": [],
      "name": "ADMIN",
      "outputs": [
        {
          "name": "",
          "type": "bytes32"
        }
      ],
      "payable": false,
      "stateMutability": "view",
      "type": "function"
    },
    {
      "constant": true,
      "inputs": [],
      "name": "polyToken",
      "outputs": [
        {
          "name": "",
          "type": "address"
        }
      ],
      "payable": false,
      "stateMutability": "view",
      "type": "function"
    },
    {
      "constant": true,
      "inputs": [],
      "name": "OPERATOR",
      "outputs": [
        {
          "name": "",
          "type": "bytes32"
        }
      ],
      "payable": false,
      "stateMutability": "view",
      "type": "function"
    },
    {
      "constant": true,
      "inputs": [],
      "name": "securityToken",
      "outputs": [
        {
          "name": "",
          "type": "address"
        }
      ],
      "payable": false,
      "stateMutability": "view",
      "type": "function"
    },
    {
      "constant": true,
      "inputs": [],
      "name": "factory",
      "outputs": [
        {
          "name": "",
          "type": "address"
        }
      ],
      "payable": false,
      "stateMutability": "view",
      "type": "function"
    },
    {
      "inputs": [
        {
          "name": "_securityToken",
          "type": "address"
        },
        {
          "name": "_polyAddress",
          "type": "address"
        }
      ],
      "payable": false,
      "stateMutability": "nonpayable",
      "type": "constructor"
    }
  ],
  "bytecode": "0x608060405234801561001057600080fd5b5060405160408061019c8339810180604052604081101561003057600080fd5b508051602090910151600180546001600160a01b039384166001600160a01b031991821617909155600080548216331790556002805493909216921691909117905561011b806100816000396000f3fe6080604052348015600f57600080fd5b506004361060505760003560e01c80632a0acc6a1460555780636faa22a514606d578063983d273714608f578063b84dfbd2146095578063c45a015514609b575b600080fd5b605b60a1565b60408051918252519081900360200190f35b607360b0565b604080516001600160a01b039092168252519081900360200190f35b605b60bf565b607360d1565b607360e0565b600160d91b6420a226a4a70281565b6002546001600160a01b031681565b600160c11b6727a822a920aa27a90281565b6001546001600160a01b031681565b6000546001600160a01b03168156fea165627a7a723058207f0eff89c811934a5aa36abf452a2d1e9876ff63281b5a90f4e4411b48c27b760029",
  "source": "pragma solidity 0.5.8;\r\n\r\nimport \"openzeppelin-solidity/contracts/token/ERC20/IERC20.sol\";\r\nimport \"../../interfaces/ISecurityToken.sol\";\r\n/**\r\n * @title Storage for Module contract\r\n * @notice Contract is abstract\r\n */\r\ncontract ModuleStorage {\r\n    address public factory;\r\n\r\n    ISecurityToken public securityToken;\r\n\r\n    // Permission flag\r\n    bytes32 public constant ADMIN = \"ADMIN\";\r\n    bytes32 public constant OPERATOR = \"OPERATOR\";\r\n\r\n    bytes32 internal constant TREASURY = 0xaae8817359f3dcb67d050f44f3e49f982e0359d90ca4b5f18569926304aaece6; // keccak256(abi.encodePacked(\"TREASURY_WALLET\"))\r\n\r\n    IERC20 public polyToken;\r\n\r\n    /**\r\n     * @notice Constructor\r\n     * @param _securityToken Address of the security token\r\n     * @param _polyAddress Address of the polytoken\r\n     */\r\n    constructor(address _securityToken, address _polyAddress) public {\r\n        securityToken = ISecurityToken(_securityToken);\r\n        factory = msg.sender;\r\n        polyToken = IERC20(_polyAddress);\r\n    }\r\n\r\n}\r\n",
  "sourcePath": "C:\\mspace\\polymath-core\\contracts\\storage\\modules\\ModuleStorage.sol",
  "compiler": {
    "name": "solc",
    "version": "0.5.8+commit.23d335f2.Emscripten.clang"
  },
  "schemaVersion": "3.0.11",
  "updatedAt": "2019-08-05T22:52:46.959Z",
  "devdoc": {
    "methods": {
      "constructor": {
        "params": {
          "_polyAddress": "Address of the polytoken\r",
          "_securityToken": "Address of the security token\r"
        }
      }
    },
    "title": "Storage for Module contract\r"
  },
  "userdoc": {
    "methods": {
      "constructor": "Constructor\r"
    },
    "notice": "Contract is abstract\r"
  }
}