{
  "contractName": "OwnedUpgradeabilityProxy",
  "abi": [
    {
      "inputs": [],
      "payable": false,
      "stateMutability": "nonpayable",
      "type": "constructor"
    },
    {
      "payable": true,
      "stateMutability": "payable",
      "type": "fallback"
    },
    {
      "anonymous": false,
      "inputs": [
        {
          "indexed": false,
          "name": "_previousOwner",
          "type": "address"
        },
        {
          "indexed": false,
          "name": "_newOwner",
          "type": "address"
        }
      ],
      "name": "ProxyOwnershipTransferred",
      "type": "event"
    },
    {
      "anonymous": false,
      "inputs": [
        {
          "indexed": false,
          "name": "_newVersion",
          "type": "string"
        },
        {
          "indexed": true,
          "name": "_newImplementation",
          "type": "address"
        }
      ],
      "name": "Upgraded",
      "type": "event"
    },
    {
      "constant": false,
      "inputs": [],
      "name": "proxyOwner",
      "outputs": [
        {
          "name": "",
          "type": "address"
        }
      ],
      "payable": false,
      "stateMutability": "nonpayable",
      "type": "function"
    },
    {
      "constant": false,
      "inputs": [],
      "name": "version",
      "outputs": [
        {
          "name": "",
          "type": "string"
        }
      ],
      "payable": false,
      "stateMutability": "nonpayable",
      "type": "function"
    },
    {
      "constant": false,
      "inputs": [],
      "name": "implementation",
      "outputs": [
        {
          "name": "",
          "type": "address"
        }
      ],
      "payable": false,
      "stateMutability": "nonpayable",
      "type": "function"
    },
    {
      "constant": false,
      "inputs": [
        {
          "name": "_newOwner",
          "type": "address"
        }
      ],
      "name": "transferProxyOwnership",
      "outputs": [],
      "payable": false,
      "stateMutability": "nonpayable",
      "type": "function"
    },
    {
      "constant": false,
      "inputs": [
        {
          "name": "_newVersion",
          "type": "string"
        },
        {
          "name": "_newImplementation",
          "type": "address"
        }
      ],
      "name": "upgradeTo",
      "outputs": [],
      "payable": false,
      "stateMutability": "nonpayable",
      "type": "function"
    },
    {
      "constant": false,
      "inputs": [
        {
          "name": "_newVersion",
          "type": "string"
        },
        {
          "name": "_newImplementation",
          "type": "address"
        },
        {
          "name": "_data",
          "type": "bytes"
        }
      ],
      "name": "upgradeToAndCall",
      "outputs": [],
      "payable": true,
      "stateMutability": "payable",
      "type": "function"
    }
  ],
  "bytecode": "0x608060405234801561001057600080fd5b506100203361002560201b60201c565b6100bc565b6001600160a01b03811661009a57604080517f08c379a000000000000000000000000000000000000000000000000000000000815260206004820152601860248201527f416464726573732073686f756c64206e6f742062652030780000000000000000604482015290519081900360640190fd5b600280546001600160a01b0319166001600160a01b0392909216919091179055565b610c43806100cb6000396000f3fe6080604052600436106100555760003560e01c8063025313a21461005f57806354fd4d50146100905780635a8b1a9f1461011a5780635c60da1b146101a0578063958a41dd146101b5578063f1739cae14610284575b61005d6102b7565b005b34801561006b57600080fd5b506100746102c9565b604080516001600160a01b039092168252519081900360200190f35b34801561009c57600080fd5b506100a5610306565b6040805160208082528351818301528351919283929083019185019080838360005b838110156100df5781810151838201526020016100c7565b50505050905090810190601f16801561010c5780820380516001836020036101000a031916815260200191505b509250505060405180910390f35b34801561012657600080fd5b5061005d6004803603604081101561013d57600080fd5b81019060208101813564010000000081111561015857600080fd5b82018360208201111561016a57600080fd5b8035906020019184600183028401116401000000008311171561018c57600080fd5b9193509150356001600160a01b03166103bb565b3480156101ac57600080fd5b5061007461042f565b61005d600480360360608110156101cb57600080fd5b8101906020810181356401000000008111156101e657600080fd5b8201836020820111156101f857600080fd5b8035906020019184600183028401116401000000008311171561021a57600080fd5b919390926001600160a01b038335169260408101906020013564010000000081111561024557600080fd5b82018360208201111561025757600080fd5b8035906020019184600183028401116401000000008311171561027957600080fd5b50909250905061045a565b34801561029057600080fd5b5061005d600480360360208110156102a757600080fd5b50356001600160a01b0316610504565b6102c76102c26105e7565b6105f6565b565b60006102d361061a565b6001600160a01b0316336001600160a01b031614156102fb576102f461061a565b9050610303565b6103036102b7565b90565b606061031061061a565b6001600160a01b0316336001600160a01b031614156102fb576000805460408051602060026001851615610100026000190190941693909304601f810184900484028201840190925281815292918301828280156103af5780601f10610384576101008083540402835291602001916103af565b820191906000526020600020905b81548152906001019060200180831161039257829003601f168201915b50505050509050610303565b6103c361061a565b6001600160a01b0316336001600160a01b031614156104225761041d83838080601f016020809104026020016040519081016040528093929190818152602001838380828437600092019190915250859250610629915050565b61042a565b61042a6102b7565b505050565b600061043961061a565b6001600160a01b0316336001600160a01b031614156102fb576102f46105e7565b61046261061a565b6001600160a01b0316336001600160a01b031614156104f5576104f085858080601f01602080910402602001604051908101604052809392919081815260200183838082843760009201919091525050604080516020601f88018190048102820181019092528681528893509150869086908190840183828082843760009201919091525061092492505050565b6104fd565b6104fd6102b7565b5050505050565b61050c61061a565b6001600160a01b0316336001600160a01b031614156105dc576001600160a01b0381166105835760408051600160e51b62461bcd02815260206004820152601860248201527f416464726573732073686f756c64206e6f742062652030780000000000000000604482015290519081900360640190fd5b7f5a3e66efaa1e445ebd894728a69d6959842ea1e97bd79b892797106e270efcd96105ac61061a565b604080516001600160a01b03928316815291841660208301528051918290030190a16105d781610a1d565b6105e4565b6105e46102b7565b50565b6001546001600160a01b031690565b3660008037600080366000845af43d6000803e808015610615573d6000f35b3d6000fd5b6002546001600160a01b031690565b6001546001600160a01b0382811691161480159061064f57506001600160a01b03811615155b61068d57604051600160e51b62461bcd028152600401808060200182810382526046815260200180610b976046913960600191505060405180910390fd5b61069681610a9d565b6106d457604051600160e51b62461bcd02815260040180806020018281038252603b815260200180610bdd603b913960400191505060405180910390fd5b600082511161071757604051600160e51b62461bcd028152600401808060200182810382526022815260200180610b3c6022913960400191505060405180910390fd5b816040516020018082805190602001908083835b6020831061074a5780518252601f19909201916020918201910161072b565b6001836020036101000a03801982511681845116808217855250505050505090500191505060405160208183030381529060405280519060200120600060405160200180828054600181600116156101000203166002900480156107e55780601f106107c35761010080835404028352918201916107e5565b820191906000526020600020905b8154815290600101906020018083116107d1575b50509150506040516020818303038152906040528051906020012014156108565760408051600160e51b62461bcd02815260206004820152601d60248201527f4e65772076657273696f6e20657175616c7320746f2063757272656e74000000604482015290519081900360640190fd5b8151610869906000906020850190610aa3565b50600180546001600160a01b0319166001600160a01b03831690811790915560408051602080825285518183015285517f8e05e0e35ff592971ca8b477d4285a33a61ded208d644042667b78693a472f5e938793928392918301919085019080838360005b838110156108e65781810151838201526020016108ce565b50505050905090810190601f1680156109135780820380516001836020036101000a031916815260200191505b509250505060405180910390a25050565b61092e8383610629565b6000306001600160a01b031634836040518082805190602001908083835b6020831061096b5780518252601f19909201916020918201910161094c565b6001836020036101000a03801982511681845116808217855250505050505090500191505060006040518083038185875af1925050503d80600081146109cd576040519150601f19603f3d011682016040523d82523d6000602084013e6109d2565b606091505b50508091505080610a1757604051600160e51b62461bcd028152600401808060200182810382526039815260200180610b5e6039913960400191505060405180910390fd5b50505050565b6001600160a01b038116610a7b5760408051600160e51b62461bcd02815260206004820152601860248201527f416464726573732073686f756c64206e6f742062652030780000000000000000604482015290519081900360640190fd5b600280546001600160a01b0319166001600160a01b0392909216919091179055565b3b151590565b828054600181600116156101000203166002900490600052602060002090601f016020900481019282601f10610ae457805160ff1916838001178555610b11565b82800160010185558215610b11579182015b82811115610b11578251825591602001919060010190610af6565b50610b1d929150610b21565b5090565b61030391905b80821115610b1d5760008155600101610b2756fe56657273696f6e2073686f756c64206e6f7420626520656d70747920737472696e674661696c20696e20657865637574696e67207468652066756e6374696f6e206f6620696d706c656d656e746174696f6e20636f6e74726163744f6c642061646472657373206973206e6f7420616c6c6f77656420616e6420696d706c656d656e746174696f6e20616464726573732073686f756c64206e6f7420626520307843616e6e6f742073657420612070726f787920696d706c656d656e746174696f6e20746f2061206e6f6e2d636f6e74726163742061646472657373a165627a7a72305820ba464db484fd919b958a1e35f22a7f20037c82f3ec55fc8c04b0a50c8b374dfc0029",
  "source": "pragma solidity 0.5.8;\r\n\r\nimport \"./UpgradeabilityProxy.sol\";\r\n\r\n/**\r\n * @title OwnedUpgradeabilityProxy\r\n * @dev This contract combines an upgradeability proxy with basic authorization control functionalities\r\n */\r\ncontract OwnedUpgradeabilityProxy is UpgradeabilityProxy {\r\n    // Owner of the contract\r\n    address private __upgradeabilityOwner;\r\n\r\n    /**\r\n    * @dev Event to show ownership has been transferred\r\n    * @param _previousOwner representing the address of the previous owner\r\n    * @param _newOwner representing the address of the new owner\r\n    */\r\n    event ProxyOwnershipTransferred(address _previousOwner, address _newOwner);\r\n\r\n    /**\r\n    * @dev Throws if called by any account other than the owner.\r\n    */\r\n    modifier ifOwner() {\r\n        if (msg.sender == _upgradeabilityOwner()) {\r\n            _;\r\n        } else {\r\n            _fallback();\r\n        }\r\n    }\r\n\r\n    /**\r\n    * @dev the constructor sets the original owner of the contract to the sender account.\r\n    */\r\n    constructor() public {\r\n        _setUpgradeabilityOwner(msg.sender);\r\n    }\r\n\r\n    /**\r\n    * @dev Tells the address of the owner\r\n    * @return the address of the owner\r\n    */\r\n    function _upgradeabilityOwner() internal view returns(address) {\r\n        return __upgradeabilityOwner;\r\n    }\r\n\r\n    /**\r\n    * @dev Sets the address of the owner\r\n    */\r\n    function _setUpgradeabilityOwner(address _newUpgradeabilityOwner) internal {\r\n        require(_newUpgradeabilityOwner != address(0), \"Address should not be 0x\");\r\n        __upgradeabilityOwner = _newUpgradeabilityOwner;\r\n    }\r\n\r\n    /**\r\n    * @notice Internal function to provide the address of the implementation contract\r\n    */\r\n    function _implementation() internal view returns(address) {\r\n        return __implementation;\r\n    }\r\n\r\n    /**\r\n    * @dev Tells the address of the proxy owner\r\n    * @return the address of the proxy owner\r\n    */\r\n    function proxyOwner() external ifOwner returns(address) {\r\n        return _upgradeabilityOwner();\r\n    }\r\n\r\n    /**\r\n    * @dev Tells the version name of the current implementation\r\n    * @return string representing the name of the current version\r\n    */\r\n    function version() external ifOwner returns(string memory) {\r\n        return __version;\r\n    }\r\n\r\n    /**\r\n    * @dev Tells the address of the current implementation\r\n    * @return address of the current implementation\r\n    */\r\n    function implementation() external ifOwner returns(address) {\r\n        return _implementation();\r\n    }\r\n\r\n    /**\r\n    * @dev Allows the current owner to transfer control of the contract to a newOwner.\r\n    * @param _newOwner The address to transfer ownership to.\r\n    */\r\n    function transferProxyOwnership(address _newOwner) external ifOwner {\r\n        require(_newOwner != address(0), \"Address should not be 0x\");\r\n        emit ProxyOwnershipTransferred(_upgradeabilityOwner(), _newOwner);\r\n        _setUpgradeabilityOwner(_newOwner);\r\n    }\r\n\r\n    /**\r\n    * @dev Allows the upgradeability owner to upgrade the current version of the proxy.\r\n    * @param _newVersion representing the version name of the new implementation to be set.\r\n    * @param _newImplementation representing the address of the new implementation to be set.\r\n    */\r\n    function upgradeTo(string calldata _newVersion, address _newImplementation) external ifOwner {\r\n        _upgradeTo(_newVersion, _newImplementation);\r\n    }\r\n\r\n    /**\r\n    * @dev Allows the upgradeability owner to upgrade the current version of the proxy and call the new implementation\r\n    * to initialize whatever is needed through a low level call.\r\n    * @param _newVersion representing the version name of the new implementation to be set.\r\n    * @param _newImplementation representing the address of the new implementation to be set.\r\n    * @param _data represents the msg.data to bet sent in the low level call. This parameter may include the function\r\n    * signature of the implementation to be called with the needed payload\r\n    */\r\n    function upgradeToAndCall(string calldata _newVersion, address _newImplementation, bytes calldata _data) external payable ifOwner {\r\n        _upgradeToAndCall(_newVersion, _newImplementation, _data);\r\n    }\r\n\r\n    function _upgradeToAndCall(string memory _newVersion, address _newImplementation, bytes memory _data) internal {\r\n        _upgradeTo(_newVersion, _newImplementation);\r\n        bool success;\r\n        /*solium-disable-next-line security/no-call-value*/\r\n        (success, ) = address(this).call.value(msg.value)(_data);\r\n        require(success, \"Fail in executing the function of implementation contract\");\r\n    }\r\n\r\n}\r\n",
  "sourcePath": "C:\\mspace\\polymath-core\\contracts\\proxy\\OwnedUpgradeabilityProxy.sol",
  "compiler": {
    "name": "solc",
    "version": "0.5.8+commit.23d335f2.Emscripten.clang"
  },
  "schemaVersion": "3.0.11",
  "updatedAt": "2019-08-05T22:52:46.941Z",
  "devdoc": {
    "details": "This contract combines an upgradeability proxy with basic authorization control functionalities\r",
    "methods": {
      "constructor": {
        "details": "the constructor sets the original owner of the contract to the sender account.\r"
      },
      "implementation()": {
        "details": "Tells the address of the current implementation\r",
        "return": "address of the current implementation\r"
      },
      "proxyOwner()": {
        "details": "Tells the address of the proxy owner\r",
        "return": "the address of the proxy owner\r"
      },
      "transferProxyOwnership(address)": {
        "details": "Allows the current owner to transfer control of the contract to a newOwner.\r",
        "params": {
          "_newOwner": "The address to transfer ownership to.\r"
        }
      },
      "upgradeTo(string,address)": {
        "details": "Allows the upgradeability owner to upgrade the current version of the proxy.\r",
        "params": {
          "_newImplementation": "representing the address of the new implementation to be set.\r",
          "_newVersion": "representing the version name of the new implementation to be set.\r"
        }
      },
      "upgradeToAndCall(string,address,bytes)": {
        "details": "Allows the upgradeability owner to upgrade the current version of the proxy and call the new implementation\r to initialize whatever is needed through a low level call.\r",
        "params": {
          "_data": "represents the msg.data to bet sent in the low level call. This parameter may include the function\r signature of the implementation to be called with the needed payload\r",
          "_newImplementation": "representing the address of the new implementation to be set.\r",
          "_newVersion": "representing the version name of the new implementation to be set.\r"
        }
      },
      "version()": {
        "details": "Tells the version name of the current implementation\r",
        "return": "string representing the name of the current version\r"
      }
    },
    "title": "OwnedUpgradeabilityProxy\r"
  },
  "userdoc": {
    "methods": {}
  }
}