{
  "contractName": "PercentageTransferManagerProxy",
  "abi": [
    {
      "constant": false,
      "inputs": [],
      "name": "proxyOwner",
      "outputs": [
        {
          "name": "",
          "type": "address"
        }
      ],
      "payable": false,
      "stateMutability": "nonpayable",
      "type": "function"
    },
    {
      "constant": true,
      "inputs": [],
      "name": "allowPrimaryIssuance",
      "outputs": [
        {
          "name": "",
          "type": "bool"
        }
      ],
      "payable": false,
      "stateMutability": "view",
      "type": "function"
    },
    {
      "constant": true,
      "inputs": [],
      "name": "ADMIN",
      "outputs": [
        {
          "name": "",
          "type": "bytes32"
        }
      ],
      "payable": false,
      "stateMutability": "view",
      "type": "function"
    },
    {
      "constant": true,
      "inputs": [],
      "name": "maxHolderPercentage",
      "outputs": [
        {
          "name": "",
          "type": "uint256"
        }
      ],
      "payable": false,
      "stateMutability": "view",
      "type": "function"
    },
    {
      "constant": false,
      "inputs": [],
      "name": "version",
      "outputs": [
        {
          "name": "",
          "type": "string"
        }
      ],
      "payable": false,
      "stateMutability": "nonpayable",
      "type": "function"
    },
    {
      "constant": false,
      "inputs": [
        {
          "name": "_newVersion",
          "type": "string"
        },
        {
          "name": "_newImplementation",
          "type": "address"
        }
      ],
      "name": "upgradeTo",
      "outputs": [],
      "payable": false,
      "stateMutability": "nonpayable",
      "type": "function"
    },
    {
      "constant": false,
      "inputs": [],
      "name": "implementation",
      "outputs": [
        {
          "name": "",
          "type": "address"
        }
      ],
      "payable": false,
      "stateMutability": "nonpayable",
      "type": "function"
    },
    {
      "constant": true,
      "inputs": [],
      "name": "paused",
      "outputs": [
        {
          "name": "",
          "type": "bool"
        }
      ],
      "payable": false,
      "stateMutability": "view",
      "type": "function"
    },
    {
      "constant": true,
      "inputs": [],
      "name": "polyToken",
      "outputs": [
        {
          "name": "",
          "type": "address"
        }
      ],
      "payable": false,
      "stateMutability": "view",
      "type": "function"
    },
    {
      "constant": false,
      "inputs": [
        {
          "name": "_newVersion",
          "type": "string"
        },
        {
          "name": "_newImplementation",
          "type": "address"
        },
        {
          "name": "_data",
          "type": "bytes"
        }
      ],
      "name": "upgradeToAndCall",
      "outputs": [],
      "payable": true,
      "stateMutability": "payable",
      "type": "function"
    },
    {
      "constant": true,
      "inputs": [],
      "name": "OPERATOR",
      "outputs": [
        {
          "name": "",
          "type": "bytes32"
        }
      ],
      "payable": false,
      "stateMutability": "view",
      "type": "function"
    },
    {
      "constant": true,
      "inputs": [
        {
          "name": "",
          "type": "address"
        }
      ],
      "name": "whitelist",
      "outputs": [
        {
          "name": "",
          "type": "bool"
        }
      ],
      "payable": false,
      "stateMutability": "view",
      "type": "function"
    },
    {
      "constant": true,
      "inputs": [],
      "name": "securityToken",
      "outputs": [
        {
          "name": "",
          "type": "address"
        }
      ],
      "payable": false,
      "stateMutability": "view",
      "type": "function"
    },
    {
      "constant": true,
      "inputs": [],
      "name": "factory",
      "outputs": [
        {
          "name": "",
          "type": "address"
        }
      ],
      "payable": false,
      "stateMutability": "view",
      "type": "function"
    },
    {
      "constant": false,
      "inputs": [
        {
          "name": "_newOwner",
          "type": "address"
        }
      ],
      "name": "transferProxyOwnership",
      "outputs": [],
      "payable": false,
      "stateMutability": "nonpayable",
      "type": "function"
    },
    {
      "inputs": [
        {
          "name": "_version",
          "type": "string"
        },
        {
          "name": "_securityToken",
          "type": "address"
        },
        {
          "name": "_polyAddress",
          "type": "address"
        },
        {
          "name": "_implementation",
          "type": "address"
        }
      ],
      "payable": false,
      "stateMutability": "nonpayable",
      "type": "constructor"
    },
    {
      "payable": true,
      "stateMutability": "payable",
      "type": "fallback"
    },
    {
      "anonymous": false,
      "inputs": [
        {
          "indexed": false,
          "name": "_previousOwner",
          "type": "address"
        },
        {
          "indexed": false,
          "name": "_newOwner",
          "type": "address"
        }
      ],
      "name": "ProxyOwnershipTransferred",
      "type": "event"
    },
    {
      "anonymous": false,
      "inputs": [
        {
          "indexed": false,
          "name": "_newVersion",
          "type": "string"
        },
        {
          "indexed": true,
          "name": "_newImplementation",
          "type": "address"
        }
      ],
      "name": "Upgraded",
      "type": "event"
    },
    {
      "anonymous": false,
      "inputs": [
        {
          "indexed": false,
          "name": "account",
          "type": "address"
        }
      ],
      "name": "Pause",
      "type": "event"
    },
    {
      "anonymous": false,
      "inputs": [
        {
          "indexed": false,
          "name": "account",
          "type": "address"
        }
      ],
      "name": "Unpause",
      "type": "event"
    }
  ],
  "bytecode": "0x60806040526001805460ff19168117905560058054600160a01b60ff02191690553480156200002d57600080fd5b506040516200156b3803806200156b833981018060405260808110156200005357600080fd5b8101908080516401000000008111156200006c57600080fd5b820160208101848111156200008057600080fd5b81516401000000008111828201871017156200009b57600080fd5b50506020808301516040840151606090940151600480546001600160a01b038085166001600160a01b0319928316179092556003805482163390811790915560058054938916939092169290921790559396509094509162000101916200017e811b901c565b6001600160a01b03811662000162576040517f08c379a0000000000000000000000000000000000000000000000000000000008152600401808060200182810382526027815260200180620014c36027913960400191505060405180910390fd5b6200017484826200021660201b60201c565b5050505062000638565b6001600160a01b038116620001f457604080517f08c379a000000000000000000000000000000000000000000000000000000000815260206004820152601860248201527f416464726573732073686f756c64206e6f742062652030780000000000000000604482015290519081900360640190fd5b600880546001600160a01b0319166001600160a01b0392909216919091179055565b6007546001600160a01b038281169116148015906200023d57506001600160a01b03811615155b62000294576040517f08c379a0000000000000000000000000000000000000000000000000000000008152600401808060200182810382526046815260200180620014ea6046913960600191505060405180910390fd5b620002aa816200058d60201b62000cb31760201c565b62000301576040517f08c379a000000000000000000000000000000000000000000000000000000000815260040180806020018281038252603b81526020018062001530603b913960400191505060405180910390fd5b60008251116200035d576040517f08c379a0000000000000000000000000000000000000000000000000000000008152600401808060200182810382526022815260200180620014a16022913960400191505060405180910390fd5b816040516020018082805190602001908083835b60208310620003925780518252601f19909201916020918201910162000371565b6001836020036101000a0380198251168184511680821785525050505050509050019150506040516020818303038152906040528051906020012060066040516020018082805460018160011615610100020316600290048015620004315780601f106200040e57610100808354040283529182019162000431565b820191906000526020600020905b8154815290600101906020018083116200041c575b5050915050604051602081830303815290604052805190602001201415620004ba57604080517f08c379a000000000000000000000000000000000000000000000000000000000815260206004820152601d60248201527f4e65772076657273696f6e20657175616c7320746f2063757272656e74000000604482015290519081900360640190fd5b8151620004cf90600690602085019062000593565b50600780546001600160a01b0319166001600160a01b03831690811790915560408051602080825285518183015285517f8e05e0e35ff592971ca8b477d4285a33a61ded208d644042667b78693a472f5e938793928392918301919085019080838360005b838110156200054e57818101518382015260200162000534565b50505050905090810190601f1680156200057c5780820380516001836020036101000a031916815260200191505b509250505060405180910390a25050565b3b151590565b828054600181600116156101000203166002900490600052602060002090601f016020900481019282601f10620005d657805160ff191683800117855562000606565b8280016001018555821562000606579182015b8281111562000606578251825591602001919060010190620005e9565b506200061492915062000618565b5090565b6200063591905b808211156200061457600081556001016200061f565b90565b610e5980620006486000396000f3fe6080604052600436106100e85760003560e01c80635c975abb1161008a5780639b19251a116100595780639b19251a146103bb578063b84dfbd2146103ee578063c45a015514610403578063f1739cae14610418576100e8565b80635c975abb146102ad5780636faa22a5146102c2578063958a41dd146102d7578063983d2737146103a6576100e8565b806334dee40f116100c657806334dee40f1461017357806354fd4d50146101885780635a8b1a9f146102125780635c60da1b14610298576100e8565b8063025313a2146100f257806321c4a69c146101235780632a0acc6a1461014c575b6100f061044b565b005b3480156100fe57600080fd5b5061010761045d565b604080516001600160a01b039092168252519081900360200190f35b34801561012f57600080fd5b5061013861049a565b604080519115158252519081900360200190f35b34801561015857600080fd5b506101616104a3565b60408051918252519081900360200190f35b34801561017f57600080fd5b506101616104b2565b34801561019457600080fd5b5061019d6104b8565b6040805160208082528351818301528351919283929083019185019080838360005b838110156101d75781810151838201526020016101bf565b50505050905090810190601f1680156102045780820380516001836020036101000a031916815260200191505b509250505060405180910390f35b34801561021e57600080fd5b506100f06004803603604081101561023557600080fd5b81019060208101813564010000000081111561025057600080fd5b82018360208201111561026257600080fd5b8035906020019184600183028401116401000000008311171561028457600080fd5b9193509150356001600160a01b031661056d565b3480156102a457600080fd5b506101076105e1565b3480156102b957600080fd5b5061013861060c565b3480156102ce57600080fd5b5061010761061c565b6100f0600480360360608110156102ed57600080fd5b81019060208101813564010000000081111561030857600080fd5b82018360208201111561031a57600080fd5b8035906020019184600183028401116401000000008311171561033c57600080fd5b919390926001600160a01b038335169260408101906020013564010000000081111561036757600080fd5b82018360208201111561037957600080fd5b8035906020019184600183028401116401000000008311171561039b57600080fd5b50909250905061062b565b3480156103b257600080fd5b506101616106d5565b3480156103c757600080fd5b50610138600480360360208110156103de57600080fd5b50356001600160a01b03166106e7565b3480156103fa57600080fd5b506101076106fc565b34801561040f57600080fd5b5061010761070b565b34801561042457600080fd5b506100f06004803603602081101561043b57600080fd5b50356001600160a01b031661071a565b61045b6104566107fd565b61080c565b565b6000610467610830565b6001600160a01b0316336001600160a01b0316141561048f57610488610830565b9050610497565b61049761044b565b90565b60015460ff1681565b600160d91b6420a226a4a70281565b60005481565b60606104c2610830565b6001600160a01b0316336001600160a01b0316141561048f576006805460408051602060026001851615610100026000190190941693909304601f810184900484028201840190925281815292918301828280156105615780601f1061053657610100808354040283529160200191610561565b820191906000526020600020905b81548152906001019060200180831161054457829003601f168201915b50505050509050610497565b610575610830565b6001600160a01b0316336001600160a01b031614156105d4576105cf83838080601f01602080910402602001604051908101604052809392919081815260200183838082843760009201919091525085925061083f915050565b6105dc565b6105dc61044b565b505050565b60006105eb610830565b6001600160a01b0316336001600160a01b0316141561048f576104886107fd565b600554600160a01b900460ff1681565b6005546001600160a01b031681565b610633610830565b6001600160a01b0316336001600160a01b031614156106c6576106c185858080601f01602080910402602001604051908101604052809392919081815260200183838082843760009201919091525050604080516020601f880181900481028201810190925286815288935091508690869081908401838280828437600092019190915250610b3a92505050565b6106ce565b6106ce61044b565b5050505050565b600160c11b6727a822a920aa27a90281565b60026020526000908152604090205460ff1681565b6004546001600160a01b031681565b6003546001600160a01b031681565b610722610830565b6001600160a01b0316336001600160a01b031614156107f2576001600160a01b0381166107995760408051600160e51b62461bcd02815260206004820152601860248201527f416464726573732073686f756c64206e6f742062652030780000000000000000604482015290519081900360640190fd5b7f5a3e66efaa1e445ebd894728a69d6959842ea1e97bd79b892797106e270efcd96107c2610830565b604080516001600160a01b03928316815291841660208301528051918290030190a16107ed81610c33565b6107fa565b6107fa61044b565b50565b6007546001600160a01b031690565b3660008037600080366000845af43d6000803e80801561082b573d6000f35b3d6000fd5b6008546001600160a01b031690565b6007546001600160a01b0382811691161480159061086557506001600160a01b03811615155b6108a357604051600160e51b62461bcd028152600401808060200182810382526046815260200180610dad6046913960600191505060405180910390fd5b6108ac81610cb3565b6108ea57604051600160e51b62461bcd02815260040180806020018281038252603b815260200180610df3603b913960400191505060405180910390fd5b600082511161092d57604051600160e51b62461bcd028152600401808060200182810382526022815260200180610d526022913960400191505060405180910390fd5b816040516020018082805190602001908083835b602083106109605780518252601f199092019160209182019101610941565b6001836020036101000a03801982511681845116808217855250505050505090500191505060405160208183030381529060405280519060200120600660405160200180828054600181600116156101000203166002900480156109fb5780601f106109d95761010080835404028352918201916109fb565b820191906000526020600020905b8154815290600101906020018083116109e7575b5050915050604051602081830303815290604052805190602001201415610a6c5760408051600160e51b62461bcd02815260206004820152601d60248201527f4e65772076657273696f6e20657175616c7320746f2063757272656e74000000604482015290519081900360640190fd5b8151610a7f906006906020850190610cb9565b50600780546001600160a01b0319166001600160a01b03831690811790915560408051602080825285518183015285517f8e05e0e35ff592971ca8b477d4285a33a61ded208d644042667b78693a472f5e938793928392918301919085019080838360005b83811015610afc578181015183820152602001610ae4565b50505050905090810190601f168015610b295780820380516001836020036101000a031916815260200191505b509250505060405180910390a25050565b610b44838361083f565b6000306001600160a01b031634836040518082805190602001908083835b60208310610b815780518252601f199092019160209182019101610b62565b6001836020036101000a03801982511681845116808217855250505050505090500191505060006040518083038185875af1925050503d8060008114610be3576040519150601f19603f3d011682016040523d82523d6000602084013e610be8565b606091505b50508091505080610c2d57604051600160e51b62461bcd028152600401808060200182810382526039815260200180610d746039913960400191505060405180910390fd5b50505050565b6001600160a01b038116610c915760408051600160e51b62461bcd02815260206004820152601860248201527f416464726573732073686f756c64206e6f742062652030780000000000000000604482015290519081900360640190fd5b600880546001600160a01b0319166001600160a01b0392909216919091179055565b3b151590565b828054600181600116156101000203166002900490600052602060002090601f016020900481019282601f10610cfa57805160ff1916838001178555610d27565b82800160010185558215610d27579182015b82811115610d27578251825591602001919060010190610d0c565b50610d33929150610d37565b5090565b61049791905b80821115610d335760008155600101610d3d56fe56657273696f6e2073686f756c64206e6f7420626520656d70747920737472696e674661696c20696e20657865637574696e67207468652066756e6374696f6e206f6620696d706c656d656e746174696f6e20636f6e74726163744f6c642061646472657373206973206e6f7420616c6c6f77656420616e6420696d706c656d656e746174696f6e20616464726573732073686f756c64206e6f7420626520307843616e6e6f742073657420612070726f787920696d706c656d656e746174696f6e20746f2061206e6f6e2d636f6e74726163742061646472657373a165627a7a72305820770dfa9c082f47960ce00d355587efaf12ab1f01c93e3b92e751fcbba780e24c002956657273696f6e2073686f756c64206e6f7420626520656d70747920737472696e67496d706c656d656e746174696f6e20616464726573732073686f756c64206e6f742062652030784f6c642061646472657373206973206e6f7420616c6c6f77656420616e6420696d706c656d656e746174696f6e20616464726573732073686f756c64206e6f7420626520307843616e6e6f742073657420612070726f787920696d706c656d656e746174696f6e20746f2061206e6f6e2d636f6e74726163742061646472657373",
  "source": "pragma solidity 0.5.8;\r\n\r\nimport \"../../../proxy/OwnedUpgradeabilityProxy.sol\";\r\nimport \"./PercentageTransferManagerStorage.sol\";\r\nimport \"../../../Pausable.sol\";\r\nimport \"../../../storage/modules/ModuleStorage.sol\";\r\n\r\n/**\r\n * @title PercentageTransferManager module Proxy\r\n */\r\ncontract PercentageTransferManagerProxy is PercentageTransferManagerStorage, ModuleStorage, Pausable, OwnedUpgradeabilityProxy {\r\n\r\n    /**\r\n    * @notice Constructor\r\n    * @param _securityToken Address of the security token\r\n    * @param _polyAddress Address of the polytoken\r\n    * @param _implementation representing the address of the new implementation to be set\r\n    */\r\n    constructor (string memory _version, address _securityToken, address _polyAddress, address _implementation)\r\n    public\r\n    ModuleStorage(_securityToken, _polyAddress)\r\n    {\r\n        require(\r\n            _implementation != address(0),\r\n            \"Implementation address should not be 0x\"\r\n        );\r\n        _upgradeTo(_version, _implementation);\r\n    }\r\n\r\n}\r\n",
  "sourcePath": "C:\\mspace\\polymath-core\\contracts\\modules\\TransferManager\\PTM\\PercentageTransferManagerProxy.sol",
  "compiler": {
    "name": "solc",
    "version": "0.5.8+commit.23d335f2.Emscripten.clang"
  },
  "schemaVersion": "3.0.11",
  "updatedAt": "2019-08-05T22:52:46.903Z",
  "devdoc": {
    "methods": {
      "constructor": {
        "params": {
          "_implementation": "representing the address of the new implementation to be set\r",
          "_polyAddress": "Address of the polytoken\r",
          "_securityToken": "Address of the security token\r"
        }
      },
      "implementation()": {
        "details": "Tells the address of the current implementation\r",
        "return": "address of the current implementation\r"
      },
      "proxyOwner()": {
        "details": "Tells the address of the proxy owner\r",
        "return": "the address of the proxy owner\r"
      },
      "transferProxyOwnership(address)": {
        "details": "Allows the current owner to transfer control of the contract to a newOwner.\r",
        "params": {
          "_newOwner": "The address to transfer ownership to.\r"
        }
      },
      "upgradeTo(string,address)": {
        "details": "Allows the upgradeability owner to upgrade the current version of the proxy.\r",
        "params": {
          "_newImplementation": "representing the address of the new implementation to be set.\r",
          "_newVersion": "representing the version name of the new implementation to be set.\r"
        }
      },
      "upgradeToAndCall(string,address,bytes)": {
        "details": "Allows the upgradeability owner to upgrade the current version of the proxy and call the new implementation\r to initialize whatever is needed through a low level call.\r",
        "params": {
          "_data": "represents the msg.data to bet sent in the low level call. This parameter may include the function\r signature of the implementation to be called with the needed payload\r",
          "_newImplementation": "representing the address of the new implementation to be set.\r",
          "_newVersion": "representing the version name of the new implementation to be set.\r"
        }
      },
      "version()": {
        "details": "Tells the version name of the current implementation\r",
        "return": "string representing the name of the current version\r"
      }
    },
    "title": "PercentageTransferManager module Proxy\r"
  },
  "userdoc": {
    "methods": {
      "constructor": "Constructor\r"
    }
  }
}