{
  "contractName": "PercentageTransferManagerStorage",
  "abi": [
    {
      "constant": true,
      "inputs": [],
      "name": "allowPrimaryIssuance",
      "outputs": [
        {
          "name": "",
          "type": "bool"
        }
      ],
      "payable": false,
      "stateMutability": "view",
      "type": "function"
    },
    {
      "constant": true,
      "inputs": [],
      "name": "maxHolderPercentage",
      "outputs": [
        {
          "name": "",
          "type": "uint256"
        }
      ],
      "payable": false,
      "stateMutability": "view",
      "type": "function"
    },
    {
      "constant": true,
      "inputs": [
        {
          "name": "",
          "type": "address"
        }
      ],
      "name": "whitelist",
      "outputs": [
        {
          "name": "",
          "type": "bool"
        }
      ],
      "payable": false,
      "stateMutability": "view",
      "type": "function"
    }
  ],
  "bytecode": "0x60806040526001805460ff19168117905534801561001c57600080fd5b5060e68061002b6000396000f3fe6080604052348015600f57600080fd5b5060043610603c5760003560e01c806321c4a69c14604157806334dee40f14605b5780639b19251a146073575b600080fd5b60476096565b604080519115158252519081900360200190f35b6061609f565b60408051918252519081900360200190f35b604760048036036020811015608757600080fd5b50356001600160a01b031660a5565b60015460ff1681565b60005481565b60026020526000908152604090205460ff168156fea165627a7a72305820e8c88bfcd11ef4d79b666cac0fdb421fe7e83eabd5477c07a346290713b97ab00029",
  "source": "pragma solidity 0.5.8;\r\n\r\n/**\r\n * @title Contract used to store layout for the PercentageTransferManager storage\r\n */\r\ncontract PercentageTransferManagerStorage {\r\n\r\n    // Maximum percentage that any holder can have, multiplied by 10**16 - e.g. 20% is 20 * 10**16\r\n    uint256 public maxHolderPercentage;\r\n\r\n    // Ignore transactions which are part of the primary issuance\r\n    bool public allowPrimaryIssuance = true;\r\n\r\n    // Addresses on this list are always able to send / receive tokens\r\n    mapping (address => bool) public whitelist;\r\n\r\n}\r\n",
  "sourcePath": "C:\\mspace\\polymath-core\\contracts\\modules\\TransferManager\\PTM\\PercentageTransferManagerStorage.sol",
  "compiler": {
    "name": "solc",
    "version": "0.5.8+commit.23d335f2.Emscripten.clang"
  },
  "schemaVersion": "3.0.11",
  "updatedAt": "2019-08-05T22:52:46.905Z",
  "devdoc": {
    "methods": {},
    "title": "Contract used to store layout for the PercentageTransferManager storage\r"
  },
  "userdoc": {
    "methods": {}
  }
}