{
  "contractName": "PLCRVotingCheckpoint",
  "abi": [
    {
      "constant": false,
      "inputs": [],
      "name": "reclaimETH",
      "outputs": [],
      "payable": false,
      "stateMutability": "nonpayable",
      "type": "function"
    },
    {
      "constant": false,
      "inputs": [
        {
          "name": "_voters",
          "type": "address[]"
        },
        {
          "name": "_exempts",
          "type": "bool[]"
        }
      ],
      "name": "changeDefaultExemptedVotersListMulti",
      "outputs": [],
      "payable": false,
      "stateMutability": "nonpayable",
      "type": "function"
    },
    {
      "constant": true,
      "inputs": [],
      "name": "ADMIN",
      "outputs": [
        {
          "name": "",
          "type": "bytes32"
        }
      ],
      "payable": false,
      "stateMutability": "view",
      "type": "function"
    },
    {
      "constant": false,
      "inputs": [],
      "name": "unpause",
      "outputs": [],
      "payable": false,
      "stateMutability": "nonpayable",
      "type": "function"
    },
    {
      "constant": true,
      "inputs": [],
      "name": "paused",
      "outputs": [
        {
          "name": "",
          "type": "bool"
        }
      ],
      "payable": false,
      "stateMutability": "view",
      "type": "function"
    },
    {
      "constant": true,
      "inputs": [],
      "name": "polyToken",
      "outputs": [
        {
          "name": "",
          "type": "address"
        }
      ],
      "payable": false,
      "stateMutability": "view",
      "type": "function"
    },
    {
      "constant": true,
      "inputs": [],
      "name": "getDefaultExemptionVotersList",
      "outputs": [
        {
          "name": "",
          "type": "address[]"
        }
      ],
      "payable": false,
      "stateMutability": "view",
      "type": "function"
    },
    {
      "constant": false,
      "inputs": [],
      "name": "pause",
      "outputs": [],
      "payable": false,
      "stateMutability": "nonpayable",
      "type": "function"
    },
    {
      "constant": false,
      "inputs": [
        {
          "name": "_tokenContract",
          "type": "address"
        }
      ],
      "name": "reclaimERC20",
      "outputs": [],
      "payable": false,
      "stateMutability": "nonpayable",
      "type": "function"
    },
    {
      "constant": true,
      "inputs": [],
      "name": "OPERATOR",
      "outputs": [
        {
          "name": "",
          "type": "bytes32"
        }
      ],
      "payable": false,
      "stateMutability": "view",
      "type": "function"
    },
    {
      "constant": true,
      "inputs": [],
      "name": "securityToken",
      "outputs": [
        {
          "name": "",
          "type": "address"
        }
      ],
      "payable": false,
      "stateMutability": "view",
      "type": "function"
    },
    {
      "constant": true,
      "inputs": [],
      "name": "factory",
      "outputs": [
        {
          "name": "",
          "type": "address"
        }
      ],
      "payable": false,
      "stateMutability": "view",
      "type": "function"
    },
    {
      "constant": false,
      "inputs": [
        {
          "name": "_voter",
          "type": "address"
        },
        {
          "name": "_exempt",
          "type": "bool"
        }
      ],
      "name": "changeDefaultExemptedVotersList",
      "outputs": [],
      "payable": false,
      "stateMutability": "nonpayable",
      "type": "function"
    },
    {
      "constant": true,
      "inputs": [],
      "name": "getDataStore",
      "outputs": [
        {
          "name": "",
          "type": "address"
        }
      ],
      "payable": false,
      "stateMutability": "view",
      "type": "function"
    },
    {
      "inputs": [
        {
          "name": "_securityToken",
          "type": "address"
        },
        {
          "name": "_polyAddress",
          "type": "address"
        }
      ],
      "payable": false,
      "stateMutability": "nonpayable",
      "type": "constructor"
    },
    {
      "anonymous": false,
      "inputs": [
        {
          "indexed": true,
          "name": "_voter",
          "type": "address"
        },
        {
          "indexed": false,
          "name": "_weight",
          "type": "uint256"
        },
        {
          "indexed": true,
          "name": "_ballotId",
          "type": "uint256"
        },
        {
          "indexed": false,
          "name": "_secretVote",
          "type": "bytes32"
        }
      ],
      "name": "VoteCommit",
      "type": "event"
    },
    {
      "anonymous": false,
      "inputs": [
        {
          "indexed": true,
          "name": "_voter",
          "type": "address"
        },
        {
          "indexed": false,
          "name": "_weight",
          "type": "uint256"
        },
        {
          "indexed": true,
          "name": "_ballotId",
          "type": "uint256"
        },
        {
          "indexed": false,
          "name": "_choiceOfProposal",
          "type": "uint256"
        },
        {
          "indexed": false,
          "name": "_salt",
          "type": "uint256"
        },
        {
          "indexed": false,
          "name": "_secretVote",
          "type": "bytes32"
        }
      ],
      "name": "VoteRevealed",
      "type": "event"
    },
    {
      "anonymous": false,
      "inputs": [
        {
          "indexed": true,
          "name": "_ballotId",
          "type": "uint256"
        },
        {
          "indexed": true,
          "name": "_checkpointId",
          "type": "uint256"
        },
        {
          "indexed": false,
          "name": "_startTime",
          "type": "uint256"
        },
        {
          "indexed": false,
          "name": "_commitDuration",
          "type": "uint256"
        },
        {
          "indexed": false,
          "name": "_revealDuration",
          "type": "uint256"
        },
        {
          "indexed": false,
          "name": "_noOfProposals",
          "type": "uint256"
        },
        {
          "indexed": false,
          "name": "_quorumPercentage",
          "type": "uint256"
        }
      ],
      "name": "BallotCreated",
      "type": "event"
    },
    {
      "anonymous": false,
      "inputs": [
        {
          "indexed": true,
          "name": "_ballotId",
          "type": "uint256"
        },
        {
          "indexed": false,
          "name": "_newStatus",
          "type": "bool"
        }
      ],
      "name": "BallotStatusChanged",
      "type": "event"
    },
    {
      "anonymous": false,
      "inputs": [
        {
          "indexed": true,
          "name": "_ballotId",
          "type": "uint256"
        },
        {
          "indexed": true,
          "name": "_voter",
          "type": "address"
        },
        {
          "indexed": false,
          "name": "_exempt",
          "type": "bool"
        }
      ],
      "name": "ChangedBallotExemptedVotersList",
      "type": "event"
    },
    {
      "anonymous": false,
      "inputs": [
        {
          "indexed": true,
          "name": "_voter",
          "type": "address"
        },
        {
          "indexed": false,
          "name": "_exempt",
          "type": "bool"
        }
      ],
      "name": "ChangedDefaultExemptedVotersList",
      "type": "event"
    },
    {
      "anonymous": false,
      "inputs": [
        {
          "indexed": false,
          "name": "account",
          "type": "address"
        }
      ],
      "name": "Pause",
      "type": "event"
    },
    {
      "anonymous": false,
      "inputs": [
        {
          "indexed": false,
          "name": "account",
          "type": "address"
        }
      ],
      "name": "Unpause",
      "type": "event"
    },
    {
      "constant": false,
      "inputs": [
        {
          "name": "_commitDuration",
          "type": "uint256"
        },
        {
          "name": "_revealDuration",
          "type": "uint256"
        },
        {
          "name": "_noOfProposals",
          "type": "uint256"
        },
        {
          "name": "_quorumPercentage",
          "type": "uint256"
        }
      ],
      "name": "createBallot",
      "outputs": [],
      "payable": false,
      "stateMutability": "nonpayable",
      "type": "function"
    },
    {
      "constant": false,
      "inputs": [
        {
          "name": "_commitDuration",
          "type": "uint256"
        },
        {
          "name": "_revealDuration",
          "type": "uint256"
        },
        {
          "name": "_noOfProposals",
          "type": "uint256"
        },
        {
          "name": "_quorumPercentage",
          "type": "uint256"
        },
        {
          "name": "_checkpointId",
          "type": "uint256"
        },
        {
          "name": "_startTime",
          "type": "uint256"
        }
      ],
      "name": "createCustomBallot",
      "outputs": [],
      "payable": false,
      "stateMutability": "nonpayable",
      "type": "function"
    },
    {
      "constant": false,
      "inputs": [
        {
          "name": "_ballotId",
          "type": "uint256"
        },
        {
          "name": "_secretVote",
          "type": "bytes32"
        }
      ],
      "name": "commitVote",
      "outputs": [],
      "payable": false,
      "stateMutability": "nonpayable",
      "type": "function"
    },
    {
      "constant": false,
      "inputs": [
        {
          "name": "_ballotId",
          "type": "uint256"
        },
        {
          "name": "_choiceOfProposal",
          "type": "uint256"
        },
        {
          "name": "_salt",
          "type": "uint256"
        }
      ],
      "name": "revealVote",
      "outputs": [],
      "payable": false,
      "stateMutability": "nonpayable",
      "type": "function"
    },
    {
      "constant": false,
      "inputs": [
        {
          "name": "_ballotId",
          "type": "uint256"
        },
        {
          "name": "_voter",
          "type": "address"
        },
        {
          "name": "_exempt",
          "type": "bool"
        }
      ],
      "name": "changeBallotExemptedVotersList",
      "outputs": [],
      "payable": false,
      "stateMutability": "nonpayable",
      "type": "function"
    },
    {
      "constant": false,
      "inputs": [
        {
          "name": "_ballotId",
          "type": "uint256"
        },
        {
          "name": "_voters",
          "type": "address[]"
        },
        {
          "name": "_exempts",
          "type": "bool[]"
        }
      ],
      "name": "changeBallotExemptedVotersListMulti",
      "outputs": [],
      "payable": false,
      "stateMutability": "nonpayable",
      "type": "function"
    },
    {
      "constant": true,
      "inputs": [
        {
          "name": "_ballotId",
          "type": "uint256"
        },
        {
          "name": "_voter",
          "type": "address"
        }
      ],
      "name": "isVoterAllowed",
      "outputs": [
        {
          "name": "",
          "type": "bool"
        }
      ],
      "payable": false,
      "stateMutability": "view",
      "type": "function"
    },
    {
      "constant": false,
      "inputs": [
        {
          "name": "_ballotId",
          "type": "uint256"
        },
        {
          "name": "_isActive",
          "type": "bool"
        }
      ],
      "name": "changeBallotStatus",
      "outputs": [],
      "payable": false,
      "stateMutability": "nonpayable",
      "type": "function"
    },
    {
      "constant": true,
      "inputs": [
        {
          "name": "_ballotId",
          "type": "uint256"
        }
      ],
      "name": "getCurrentBallotStage",
      "outputs": [
        {
          "name": "",
          "type": "uint8"
        }
      ],
      "payable": false,
      "stateMutability": "view",
      "type": "function"
    },
    {
      "constant": true,
      "inputs": [
        {
          "name": "_ballotId",
          "type": "uint256"
        }
      ],
      "name": "getBallotResults",
      "outputs": [
        {
          "name": "voteWeighting",
          "type": "uint256[]"
        },
        {
          "name": "tieWith",
          "type": "uint256[]"
        },
        {
          "name": "winningProposal",
          "type": "uint256"
        },
        {
          "name": "isVotingSucceed",
          "type": "bool"
        },
        {
          "name": "totalVotes",
          "type": "uint256"
        }
      ],
      "payable": false,
      "stateMutability": "view",
      "type": "function"
    },
    {
      "constant": true,
      "inputs": [
        {
          "name": "_ballotId",
          "type": "uint256"
        },
        {
          "name": "_voter",
          "type": "address"
        }
      ],
      "name": "getSelectedProposal",
      "outputs": [
        {
          "name": "proposalId",
          "type": "uint256"
        }
      ],
      "payable": false,
      "stateMutability": "view",
      "type": "function"
    },
    {
      "constant": true,
      "inputs": [
        {
          "name": "_ballotId",
          "type": "uint256"
        }
      ],
      "name": "getBallotDetails",
      "outputs": [
        {
          "name": "",
          "type": "uint256"
        },
        {
          "name": "",
          "type": "uint256"
        },
        {
          "name": "",
          "type": "uint256"
        },
        {
          "name": "",
          "type": "uint256"
        },
        {
          "name": "",
          "type": "uint256"
        },
        {
          "name": "",
          "type": "uint256"
        },
        {
          "name": "",
          "type": "uint256"
        },
        {
          "name": "",
          "type": "bool"
        }
      ],
      "payable": false,
      "stateMutability": "view",
      "type": "function"
    },
    {
      "constant": true,
      "inputs": [
        {
          "name": "_ballotId",
          "type": "uint256"
        }
      ],
      "name": "getBallotCommitRevealDuration",
      "outputs": [
        {
          "name": "",
          "type": "uint256"
        },
        {
          "name": "",
          "type": "uint256"
        }
      ],
      "payable": false,
      "stateMutability": "view",
      "type": "function"
    },
    {
      "constant": true,
      "inputs": [],
      "name": "getInitFunction",
      "outputs": [
        {
          "name": "",
          "type": "bytes4"
        }
      ],
      "payable": false,
      "stateMutability": "pure",
      "type": "function"
    },
    {
      "constant": true,
      "inputs": [],
      "name": "getPermissions",
      "outputs": [
        {
          "name": "",
          "type": "bytes32[]"
        }
      ],
      "payable": false,
      "stateMutability": "view",
      "type": "function"
    }
  ],
  "bytecode": "0x608060405260058054600160a01b60ff021916905534801561002057600080fd5b50604051604080612ea58339810180604052604081101561004057600080fd5b508051602090910151600480546001600160a01b039384166001600160a01b0319918216179091556003805482163317905560058054939092169216919091179055612e14806100916000396000f3fe608060405234801561001057600080fd5b50600436106101cf5760003560e01c80636ff7896b11610104578063b11d8bb8116100a2578063c795bb7911610071578063c795bb791461069d578063d71aae2b146106cb578063e97635fa14610796578063fe58265e146107c5576101cf565b8063b11d8bb81461065c578063b84dfbd214610685578063c3a07df61461068d578063c45a015514610695576101cf565b80638905fd4f116100de5780638905fd4f146105df5780638e40013214610605578063983d2737146106315780639da6918014610639576101cf565b80636ff7896b1461054957806374204347146105a15780638456cb59146105d7576101cf565b80633f4ba83a116101715780635c975abb1161014b5780635c975abb146104a9578063614437bf146104c5578063634616dd146104f95780636faa22a514610525576101cf565b80633f4ba83a146104065780634f8eb47f1461040e5780635564252a1461046e576101cf565b806328e0b667116101ad57806328e0b667146102285780632a0acc6a146102e65780633b051cf5146103005780633efb8993146103c5576101cf565b80630321a380146101d45780630f144a48146101fb5780631613ec9d14610203575b600080fd5b6101f9600480360360408110156101ea57600080fd5b508035906020013515156107cd565b005b6101f9610a33565b61020b610a6b565b604080516001600160e01b03199092168252519081900360200190f35b6101f96004803603604081101561023e57600080fd5b810190602081018135600160201b81111561025857600080fd5b82018360208201111561026a57600080fd5b803590602001918460208302840111600160201b8311171561028b57600080fd5b919390929091602081019035600160201b8111156102a857600080fd5b8201836020820111156102ba57600080fd5b803590602001918460208302840111600160201b831117156102db57600080fd5b509092509050610a71565b6102ee610b74565b60408051918252519081900360200190f35b6101f96004803603606081101561031657600080fd5b81359190810190604081016020820135600160201b81111561033757600080fd5b82018360208201111561034957600080fd5b803590602001918460208302840111600160201b8311171561036a57600080fd5b919390929091602081019035600160201b81111561038757600080fd5b82018360208201111561039957600080fd5b803590602001918460208302840111600160201b831117156103ba57600080fd5b509092509050610b83565b6103e2600480360360208110156103db57600080fd5b5035610c88565b604051808260038111156103f257fe5b60ff16815260200191505060405180910390f35b6101f9610df9565b61042b6004803603602081101561042457600080fd5b5035610e0b565b604080519889526020890197909752878701959095526060870193909352608086019190915260a085015260c0840152151560e083015251908190036101000190f35b6101f9600480360360c081101561048457600080fd5b5080359060208101359060408101359060608101359060808101359060a00135610fbf565b6104b16110ec565b604080519115158252519081900360200190f35b6101f9600480360360608110156104db57600080fd5b508035906001600160a01b03602082013516906040013515156110fc565b6104b16004803603604081101561050f57600080fd5b50803590602001356001600160a01b0316611165565b61052d6111ce565b604080516001600160a01b039092168252519081900360200190f35b6105516111dd565b60408051602080825283518183015283519192839290830191858101910280838360005b8381101561058d578181015183820152602001610575565b505050509050019250505060405180910390f35b6105be600480360360208110156105b757600080fd5b503561123f565b6040805192835260208301919091528051918290030190f35b6101f9611300565b6101f9600480360360208110156105f557600080fd5b50356001600160a01b0316611310565b6102ee6004803603604081101561061b57600080fd5b50803590602001356001600160a01b03166114c0565b6102ee611510565b6101f96004803603604081101561064f57600080fd5b5080359060200135611522565b6101f96004803603606081101561067257600080fd5b508035906020810135906040013561180d565b61052d611b81565b610551611b90565b61052d611bde565b6101f9600480360360408110156106b357600080fd5b506001600160a01b0381351690602001351515611bed565b6106e8600480360360208110156106e157600080fd5b5035611c4f565b6040805190810184905282151560608201526080810182905260a08082528651908201528551819060208083019160c08401918a8101910280838360005b8381101561073e578181015183820152602001610726565b50505050905001838103825287818151815260200191508051906020019060200280838360005b8381101561077d578181015183820152602001610765565b5050505090500197505050505050505060405180910390f35b6101f9600480360360808110156107ac57600080fd5b5080359060208101359060408101359060600135611f7a565b61052d61206c565b600160d91b6420a226a4a7026107e381336120ed565b6108255760408051600160e51b62461bcd0281526020600482015260126024820152600080516020612dc9833981519152604482015290519081900360640190fd5b61082e8361221d565b6108dc6108a56000858154811061084157fe5b906000526020600020906006020160020160089054906101000a90046001600160401b03166001600160401b03166000868154811061087c57fe5b60009182526020909120600260069092020101546001600160401b03169063ffffffff61227616565b600085815481106108b257fe5b6000918252602090912060069091020160020154600160801b90046001600160401b031690612276565b4211156109335760408051600160e51b62461bcd02815260206004820152600d60248201527f416c726561647920656e64656400000000000000000000000000000000000000604482015290519081900360640190fd5b8115156000848154811061094357fe5b9060005260206000209060060201600201601f9054906101000a900460ff16151514156109ba5760408051600160e51b62461bcd02815260206004820152601660248201527f41637469766520737461746520756e6368616e67656400000000000000000000604482015290519081900360640190fd5b81600084815481106109c857fe5b60009182526020918290206002600690920201018054921515600160f81b026001600160f81b0390931692909217909155604080518415158152905185927f80ae572a579745c7375800cf38cc2f3e7ac6f46992590aab83e90baa6e2d2096928290030190a2505050565b610a3b61228f565b6040513390303180156108fc02916000818181858888f19350505050158015610a68573d6000803e3d6000fd5b50565b60005b90565b600160d91b6420a226a4a702610a8781336120ed565b610ac95760408051600160e51b62461bcd0281526020600482015260126024820152600080516020612dc9833981519152604482015290519081900360640190fd5b838214610b205760408051600160e51b62461bcd02815260206004820152601560248201527f4172726179206c656e677468206d69736d617463680000000000000000000000604482015290519081900360640190fd5b60005b84811015610b6c57610b64868683818110610b3a57fe5b905060200201356001600160a01b0316858584818110610b5657fe5b90506020020135151561235f565b600101610b23565b505050505050565b600160d91b6420a226a4a70281565b600160d91b6420a226a4a702610b9981336120ed565b610bdb5760408051600160e51b62461bcd0281526020600482015260126024820152600080516020612dc9833981519152604482015290519081900360640190fd5b838214610c325760408051600160e51b62461bcd02815260206004820152601560248201527f4172726179206c656e677468206d69736d617463680000000000000000000000604482015290519081900360640190fd5b60005b84811015610c7f57610c7787878784818110610c4d57fe5b905060200201356001600160a01b0316868685818110610c6957fe5b9050602002013515156125ae565b600101610c35565b50505050505050565b6000610c92612d47565b60008381548110610c9f57fe5b600091825260208083206040805161010081018252600694909402909101805484526001810154928401929092526002909101546001600160401b03808216928401839052600160401b820481166060850152600160801b82041660808401819052600160c01b820462ffffff1660a0850152600160d81b820463ffffffff90811660c0860152600160f81b90920460ff16151560e0850152929450610d4792919061227616565b90506000610d6b83606001516001600160401b03168361227690919063ffffffff16565b905082608001516001600160401b0316421015610d8e5760009350505050610df4565b82608001516001600160401b03164210158015610dab5750814211155b15610dbc5760019350505050610df4565b8142118015610dcb5750804211155b15610ddc5760029350505050610df4565b80421115610df05760039350505050610df4565b5050505b919050565b610e0161228f565b610e09612711565b565b600080600080600080600080610e1f612d47565b60008a81548110610e2c57fe5b600091825260209182902060408051610100810182526006909302909101805480845260018201548486018190526002909201546001600160401b0380821686860152600160401b820481166060870152600160801b820416608086015262ffffff600160c01b82041660a086015263ffffffff600160d81b82041660c086015260ff600160f81b90910416151560e0850152600480548451600160e41b630981b24d02815291820192909252925193955090936001600160a01b039091169263981b24d0926024808201939291829003018186803b158015610f0e57600080fd5b505afa158015610f22573d6000803e3d6000fd5b505050506040513d6020811015610f3857600080fd5b50518251608084015160608501516040860151610f7b916001600160401b0390811691610f6f91808616911663ffffffff61227616565b9063ffffffff61227616565b60a086015160c087015160e090970151959e50939c50919a506001600160401b03169850965062ffffff16945063ffffffff90911692509050919395975091939597565b600160d91b6420a226a4a702610fd581336120ed565b6110175760408051600160e51b62461bcd0281526020600482015260126024820152600080516020612dc9833981519152604482015290519081900360640190fd5b6004805460408051600160e71b62a9119902815290516001600160a01b0390921692635488cc80928282019260209290829003018186803b15801561105b57600080fd5b505afa15801561106f573d6000803e3d6000fd5b505050506040513d602081101561108557600080fd5b50518311156110de5760408051600160e51b62461bcd02815260206004820152601560248201527f496e76616c696420636865636b706f696e742049640000000000000000000000604482015290519081900360640190fd5b610c7f8787878787876127b7565b600554600160a01b900460ff1681565b600160d91b6420a226a4a70261111281336120ed565b6111545760408051600160e51b62461bcd0281526020600482015260126024820152600080516020612dc9833981519152604482015290519081900360640190fd5b61115f8484846125ae565b50505050565b6000806000848154811061117557fe5b600091825260208083206001600160a01b03871684526005600690930201919091019052604090205460ff16806111c357506001600160a01b03831660009081526001602052604090205415155b159150505b92915050565b6005546001600160a01b031681565b6060600280548060200260200160405190810160405280929190818152602001828054801561123557602002820191906000526020600020905b81546001600160a01b03168152600190910190602001808311611217575b5050505050905090565b60008061124a612d47565b6000848154811061125757fe5b60009182526020918290206040805161010081018252600693909302909101805483526001810154938301939093526002909201546001600160401b03808216938301849052600160401b8204811660608401819052600160801b83049091166080840152600160c01b820462ffffff1660a0840152600160d81b820463ffffffff1660c0840152600160f81b90910460ff16151560e090920191909152909590945092505050565b61130861228f565b610e09612b80565b61131861228f565b6001600160a01b03811661136b5760408051600160e51b62461bcd02815260206004820152600f6024820152600160881b6e496e76616c6964206164647265737302604482015290519081900360640190fd5b60408051600160e01b6370a08231028152306004820152905182916000916001600160a01b038416916370a08231916024808301926020929190829003018186803b1580156113b957600080fd5b505afa1580156113cd573d6000803e3d6000fd5b505050506040513d60208110156113e357600080fd5b505160408051600160e01b63a9059cbb0281523360048201526024810183905290519192506001600160a01b0384169163a9059cbb916044808201926020929091908290030181600087803b15801561143b57600080fd5b505af115801561144f573d6000803e3d6000fd5b505050506040513d602081101561146557600080fd5b50516114bb5760408051600160e51b62461bcd02815260206004820152600f60248201527f5472616e73666572206661696c65640000000000000000000000000000000000604482015290519081900360640190fd5b505050565b6000805483106114d2575060006111c8565b600083815481106114df57fe5b600091825260208083206001600160a01b038616845260046006909302019190910190526040902054905092915050565b600160c11b6727a822a920aa27a90281565b61152b8261221d565b806115725760408051600160e51b62461bcd02815260206004820152600c6024820152600160a01b6b496e76616c696420766f746502604482015290519081900360640190fd5b61157d826001612c2d565b6115878233611165565b6115db5760408051600160e51b62461bcd02815260206004820152600d60248201527f496e76616c696420766f74657200000000000000000000000000000000000000604482015290519081900360640190fd5b60008083815481106115e957fe5b6000918252602080832033845260046006909302019182019052604090912060010154909150156116645760408051600160e51b62461bcd02815260206004820152600d60248201527f416c726561647920766f74656400000000000000000000000000000000000000604482015290519081900360640190fd5b6002810154600160f81b900460ff166116bc5760408051600160e51b62461bcd02815260206004820152600f60248201526001608a1b6e125b9858dd1a5d994818985b1b1bdd02604482015290519081900360640190fd5b60048054825460408051600160e11b63277166bf02815233948101949094526024840191909152516000926001600160a01b0390921691634ee2cd7e916044808301926020929190829003018186803b15801561171857600080fd5b505afa15801561172c573d6000803e3d6000fd5b505050506040513d602081101561174257600080fd5b505190508061179b5760408051600160e51b62461bcd02815260206004820152601a60248201527f5a65726f20776569676874206973206e6f7420616c6c6f776564000000000000604482015290519081900360640190fd5b604080518082018252600080825260208083018781523380845260048801835292859020935184555160019093019290925582518481529182018690528251879391927f9e0779b6b10265b94615da8047e410aefc37f80f2448de116beb21907b82429292908290030190a350505050565b6118168361221d565b611821836002612c2d565b600080848154811061182f57fe5b9060005260206000209060060201905080600201601f9054906101000a900460ff1661189a5760408051600160e51b62461bcd02815260206004820152600f60248201526001608a1b6e125b9858dd1a5d994818985b1b1bdd02604482015290519081900360640190fd5b3360009081526004820160205260409020600101546119035760408051600160e51b62461bcd02815260206004820152601960248201527f53656372657420766f7465206e6f7420617661696c61626c6500000000000000604482015290519081900360640190fd5b6002810154600160c01b900462ffffff1683118015906119235750600083115b6119775760408051600160e51b62461bcd02815260206004820152601760248201527f496e76616c69642070726f706f73616c2063686f696365000000000000000000604482015290519081900360640190fd5b33600090815260048201602090815260409182902060010154825180830187905280840186905283518082038501815260609091019093528251929091019190912014611a005760408051600160e51b62461bcd02815260206004820152600c6024820152600160a01b6b496e76616c696420766f746502604482015290519081900360640190fd5b60048054825460408051600160e11b63277166bf02815233948101949094526024840191909152516000926001600160a01b0390921691634ee2cd7e916044808301926020929190829003018186803b158015611a5c57600080fd5b505afa158015611a70573d6000803e3d6000fd5b505050506040513d6020811015611a8657600080fd5b5051336000908152600484016020908152604080832060010154888452600387019092529091205491925090611ac2908363ffffffff61227616565b6000868152600385016020908152604080832093909355600286018054600163ffffffff600160d81b8084048216830190911602600160d81b63ffffffff021990921691909117909155835180850185528981528083018481523380865260048a018552948690209151825551910155825185815290810188905280830187905260608101849052915188927fe31c5388d1d0be563dc1e0e1320f91db1121018c689c1c267e4cb3e4b2fc2683919081900360800190a3505050505050565b6004546001600160a01b031681565b60408051600180825281830190925260609182919060208083019080388339019050509050600160d91b6420a226a4a70281600081518110611bce57fe5b6020908102919091010152905090565b6003546001600160a01b031681565b600160d91b6420a226a4a702611c0381336120ed565b611c455760408051600160e51b62461bcd0281526020600482015260126024820152600080516020612dc9833981519152604482015290519081900360640190fd5b6114bb838361235f565b606080600080600080805490508610611c895750506040805160008082526020820181815282840190935290945090925090508080611f71565b6000808781548110611c9757fe5b60009182526020808320600480546006909402909101805460408051600160e41b630981b24d02815293840191909152519095508493849384936001600160a01b039092169263981b24d0926024808201939291829003018186803b158015611cff57600080fd5b505afa158015611d13573d6000803e3d6000fd5b505050506040513d6020811015611d2957600080fd5b50516001860154909150600090611d6190670de0b6b3a764000090611d5590859063ffffffff612ca616565b9063ffffffff612ccd16565b90508560020160189054906101000a900462ffffff1662ffffff16604051908082528060200260200182016040528015611da5578160200160208202803883390190505b509a50600094505b6002860154600160c01b900462ffffff16851015611e44576001850160009081526003870160205260409020548b518c9087908110611de857fe5b60200260200101818152505085600301600086600101815260200190815260200160002054831015611e39576001850160009081526003870160205260409020549250808310611e39578460010198505b600190940193611dad565b808310611ea95760019750600094505b6002860154600160c01b900462ffffff16851015611ea95760018501600090815260038701602052604090205483148015611e925750888560010114155b15611e9e576001909301925b600190940193611e54565b83604051908082528060200260200182016040528015611ed3578160200160208202803883390190505b5099508315611f555760009350600094505b6002860154600160c01b900462ffffff16851015611f555760018501600090815260038701602052604090205483148015611f235750888560010114155b15611f4a57846001018a8581518110611f3857fe5b60209081029190910101526001909301925b600190940193611ee5565b50505060029092015463ffffffff600160d81b90910416925050505b91939590929450565b600160d91b6420a226a4a702611f9081336120ed565b611fd25760408051600160e51b62461bcd0281526020600482015260126024820152600080516020612dc9833981519152604482015290519081900360640190fd5b60048054604080517fff0b9c90000000000000000000000000000000000000000000000000000000008152905142936000936001600160a01b03169263ff0b9c90928183019260209282900301818787803b15801561203057600080fd5b505af1158015612044573d6000803e3d6000fd5b505050506040513d602081101561205a57600080fd5b50519050610c7f8787878785876127b7565b6000600460009054906101000a90046001600160a01b03166001600160a01b031663660d0d676040518163ffffffff1660e01b815260040160206040518083038186803b1580156120bc57600080fd5b505afa1580156120d0573d6000803e3d6000fd5b505050506040513d60208110156120e657600080fd5b5051905090565b6004805460408051600160e01b638da5cb5b028152905160009384936001600160a01b031692638da5cb5b9281830192602092829003018186803b15801561213457600080fd5b505afa158015612148573d6000803e3d6000fd5b505050506040513d602081101561215e57600080fd5b50516003546001600160a01b0385811692811683149350161481806121805750805b8061221457506004805460408051600160e01b638658b8b90281526001600160a01b03888116948201949094523060248201526044810189905290519290911691638658b8b991606480820192602092909190829003018186803b1580156121e757600080fd5b505afa1580156121fb573d6000803e3d6000fd5b505050506040513d602081101561221157600080fd5b50515b95945050505050565b6000548110610a685760408051600160e51b62461bcd02815260206004820152601260248201527f496e646578206f7574206f6620626f756e640000000000000000000000000000604482015290519081900360640190fd5b60008282018381101561228857600080fd5b9392505050565b6004805460408051600160e01b638da5cb5b02815290516001600160a01b0390921692638da5cb5b928282019260209290829003018186803b1580156122d457600080fd5b505afa1580156122e8573d6000803e3d6000fd5b505050506040513d60208110156122fe57600080fd5b50516001600160a01b03163314610e095760408051600160e51b62461bcd02815260206004820152601360248201527f53656e646572206973206e6f74206f776e657200000000000000000000000000604482015290519081900360640190fd5b6001600160a01b0382166123b25760408051600160e51b62461bcd02815260206004820152600f6024820152600160881b6e496e76616c6964206164647265737302604482015290519081900360640190fd5b6001600160a01b03821660009081526001602052604090205415811515146123d957600080fd5b80156124425760028054600180820183557f405787fa12a823e0f2b7631cc41b3ba8828b3321ca811111fa75cd3aa3bb5ace90910180546001600160a01b0319166001600160a01b03861690811790915591546000928352602091909152604090912055612569565b6001600160a01b0382166000908152600160205260409020546002541461253b5760028054600019810190811061247557fe5b9060005260206000200160009054906101000a90046001600160a01b031660026001806000866001600160a01b03166001600160a01b031681526020019081526020016000205403815481106124c757fe5b600091825260208083209190910180546001600160a01b0319166001600160a01b03948516179055918416815260019182905260408120546002805491939291600019850190811061251557fe5b60009182526020808320909101546001600160a01b031683528201929092526040019020555b6001600160a01b0382166000908152600160205260408120556002805490612567906000198301612d8b565b505b60408051821515815290516001600160a01b038416917fb1170a171a18d650f44f0faa7b4106b781dd287316a9e155fe9bbb1d8c0a0c14919081900360200190a25050565b6125b78361221d565b6001600160a01b03821661260a5760408051600160e51b62461bcd02815260206004820152600f6024820152600160881b6e496e76616c6964206164647265737302604482015290519081900360640190fd5b8015156000848154811061261a57fe5b600091825260208083206001600160a01b03871684526005600690930201919091019052604090205460ff161515141561268d5760408051600160e51b62461bcd0281526020600482015260096024820152600160b81b684e6f206368616e676502604482015290519081900360640190fd5b806000848154811061269b57fe5b600091825260208083206001600160a01b038716808552600693909302016005018152604092839020805460ff191694151594909417909355815184151581529151909286927f0503f23c8ccfa4d5085847e7279510103d5cd6992091aec6b7e229f2a57969b3929081900390910190a3505050565b600554600160a01b900460ff166127725760408051600160e51b62461bcd02815260206004820152601660248201527f436f6e7472616374206973206e6f742070617573656400000000000000000000604482015290519081900360640190fd5b60058054600160a01b60ff02191690556040805133815290517faeb196d352664784d1900b0e7414a8face7d29f4dae8c4b0cf68ed477423bbf49181900360200190a1565b6127c086612cef565b6127c985612cef565b6127d283612cef565b670de0b6b3a76400008311156128325760408051600160e51b62461bcd02815260206004820152601960248201527f496e76616c69642071756f72756d2070657263656e7461676500000000000000604482015290519081900360640190fd5b85866001600160401b0316148015612852575084856001600160401b0316145b8015612866575080816001600160401b0316145b80156128765750838462ffffff16145b6128ca5760408051600160e51b62461bcd02815260206004820152601f60248201527f506172616d657465722076616c75657320676574206f766572666c6f77656400604482015290519081900360640190fd5b428110156129225760408051600160e51b62461bcd02815260206004820152601260248201527f496e76616c69642073746172742074696d650000000000000000000000000000604482015290519081900360640190fd5b6001841161297a5760408051600160e51b62461bcd02815260206004820152601b60248201527f496e76616c6964206e756d626572206f662070726f706f73616c730000000000604482015290519081900360640190fd5b6000808054905090506000604051806101000160405280858152602001868152602001896001600160401b03168152602001886001600160401b03168152602001846001600160401b031681526020018762ffffff168152602001600063ffffffff1681526020016001151581525090806001815401808255809150509060018203906000526020600020906006020160009091929091909150600082015181600001556020820151816001015560408201518160020160006101000a8154816001600160401b0302191690836001600160401b0316021790555060608201518160020160086101000a8154816001600160401b0302191690836001600160401b0316021790555060808201518160020160106101000a8154816001600160401b0302191690836001600160401b0316021790555060a08201518160020160186101000a81548162ffffff021916908362ffffff16021790555060c082015181600201601b6101000a81548163ffffffff021916908363ffffffff16021790555060e082015181600201601f6101000a81548160ff02191690831515021790555050505082817ff65e92b495e086b7d45bc23bed31168cc2f2608aa4490210140b5ac332f322ca848a8a8a8a604051808681526020018581526020018481526020018381526020018281526020019550505050505060405180910390a350505050505050565b600554600160a01b900460ff1615612be25760408051600160e51b62461bcd02815260206004820152601260248201527f436f6e7472616374206973207061757365640000000000000000000000000000604482015290519081900360640190fd5b60058054600160a01b60ff021916600160a01b1790556040805133815290517f5ee71a369c8672edded508e624ffc9257fa1ae6886ef32905c18e60196bca3999181900360200190a1565b806003811115612c3957fe5b612c4283610c88565b6003811115612c4d57fe5b14612ca25760408051600160e51b62461bcd02815260206004820152601460248201527f4e6f7420696e20612076616c6964207374616765000000000000000000000000604482015290519081900360640190fd5b5050565b600082612cb5575060006111c8565b82820282848281612cc257fe5b041461228857600080fd5b6000808211612cdb57600080fd5b6000828481612ce657fe5b04949350505050565b60008111610a685760408051600160e51b62461bcd02815260206004820152600d60248201527f496e76616c69642076616c756500000000000000000000000000000000000000604482015290519081900360640190fd5b6040805161010081018252600080825260208201819052918101829052606081018290526080810182905260a0810182905260c0810182905260e081019190915290565b8154818355818111156114bb576000838152602090206114bb918101908301610a6e91905b80821115612dc45760008155600101612db0565b509056fe496e76616c6964207065726d697373696f6e0000000000000000000000000000a165627a7a72305820a6bff402e3d88cd514bd421f090156516d07ad0658bb9ea5009f9c7d19e4ae4a0029",
  "source": "pragma solidity 0.5.8;\r\n\r\nimport \"../VotingCheckpoint.sol\";\r\nimport \"./PLCRVotingCheckpointStorage.sol\";\r\nimport \"openzeppelin-solidity/contracts/math/SafeMath.sol\";\r\n\r\ncontract PLCRVotingCheckpoint is PLCRVotingCheckpointStorage, VotingCheckpoint {\r\n\r\n    using SafeMath for uint256;\r\n\r\n    event VoteCommit(address indexed _voter, uint256 _weight, uint256 indexed _ballotId, bytes32 _secretVote);\r\n    event VoteRevealed(\r\n        address indexed _voter,\r\n        uint256 _weight,\r\n        uint256 indexed _ballotId,\r\n        uint256 _choiceOfProposal,\r\n        uint256 _salt,\r\n        bytes32 _secretVote\r\n    );\r\n    event BallotCreated(\r\n        uint256 indexed _ballotId,\r\n        uint256 indexed _checkpointId,\r\n        uint256 _startTime,\r\n        uint256 _commitDuration,\r\n        uint256 _revealDuration,\r\n        uint256 _noOfProposals,\r\n        uint256 _quorumPercentage\r\n    );\r\n    event BallotStatusChanged(uint256 indexed _ballotId, bool _newStatus);\r\n    event ChangedBallotExemptedVotersList(uint256 indexed _ballotId, address indexed _voter, bool _exempt);\r\n\r\n    constructor(address _securityToken, address _polyAddress)\r\n    public\r\n    Module(_securityToken, _polyAddress)\r\n    {\r\n\r\n    }\r\n\r\n    /**\r\n     * @notice Use to create the ballot\r\n     * @param _commitDuration Unix time period till the voters commit there vote\r\n     * @param _revealDuration Unix time period till the voters reveal there vote starts when commit duration ends\r\n     * @param _noOfProposals Total number of proposal used in the ballot. In general it is 2 (For & Against)\r\n     * @param _quorumPercentage Minimum number of weight vote percentage requires to win a election.\r\n     */\r\n    function createBallot(\r\n        uint256 _commitDuration,\r\n        uint256 _revealDuration,\r\n        uint256 _noOfProposals,\r\n        uint256 _quorumPercentage\r\n    )   \r\n        external\r\n        withPerm(ADMIN)\r\n    {\r\n        uint256 startTime = now;\r\n        uint256 checkpointId = securityToken.createCheckpoint();\r\n        _createBallotWithCheckpoint(_commitDuration, _revealDuration, _noOfProposals, _quorumPercentage, checkpointId, startTime);\r\n    }\r\n\r\n    /**\r\n     * @notice Use to create the ballot\r\n     * @param _commitDuration Unix time period till the voters commit there vote\r\n     * @param _revealDuration Unix time period till the voters reveal there vote starts when commit duration ends\r\n     * @param _noOfProposals Total number of proposal used in the ballot. In general it is 2 (For & Against)\r\n     * @param _quorumPercentage Minimum number of weight vote percentage requires to win a election.\r\n     * @param _checkpointId Valid checkpoint Id\r\n     * @param _startTime startTime of the ballot\r\n     */\r\n    function createCustomBallot(\r\n        uint256 _commitDuration,\r\n        uint256 _revealDuration,\r\n        uint256 _noOfProposals,\r\n        uint256 _quorumPercentage,\r\n        uint256 _checkpointId,\r\n        uint256 _startTime\r\n    )\r\n        external\r\n        withPerm(ADMIN)\r\n    {\r\n        // validate the checkpointId, It should be less than or equal to the current checkpointId of the securityToken\r\n        require(_checkpointId <= securityToken.currentCheckpointId(), \"Invalid checkpoint Id\");\r\n        _createBallotWithCheckpoint(_commitDuration, _revealDuration, _noOfProposals, _quorumPercentage, _checkpointId, _startTime);\r\n    }\r\n\r\n    function _createBallotWithCheckpoint(\r\n        uint256 _commitDuration,\r\n        uint256 _revealDuration,\r\n        uint256 _noOfProposals,\r\n        uint256 _quorumPercentage,\r\n        uint256 _checkpointId,\r\n        uint256 _startTime\r\n    )\r\n        internal\r\n    {\r\n        // Sanity checks\r\n        _isGreaterThanZero(_commitDuration);\r\n        _isGreaterThanZero(_revealDuration);\r\n        _isGreaterThanZero(_quorumPercentage);\r\n        require(_quorumPercentage <= 100 * 10 ** 16, \"Invalid quorum percentage\"); // not more than 100 %\r\n        // Overflow check\r\n        require(\r\n            uint64(_commitDuration) == _commitDuration &&\r\n            uint64(_revealDuration) == _revealDuration &&\r\n            uint64(_startTime) == _startTime &&\r\n            uint24(_noOfProposals) == _noOfProposals,\r\n            \"Parameter values get overflowed\"\r\n        );\r\n        require(_startTime >= now, \"Invalid start time\");\r\n        // Valid proposal Id range should be 1 to `_noOfProposals`.\r\n        require(_noOfProposals > 1, \"Invalid number of proposals\");\r\n        uint256 _ballotId = ballots.length;\r\n        ballots.push(Ballot(\r\n            _checkpointId,\r\n            _quorumPercentage,\r\n            uint64(_commitDuration),\r\n            uint64(_revealDuration),\r\n            uint64(_startTime),\r\n            uint24(_noOfProposals),\r\n            uint32(0),\r\n            true\r\n        ));\r\n        emit BallotCreated(_ballotId, _checkpointId, _startTime, _commitDuration, _revealDuration, _noOfProposals, _quorumPercentage);\r\n    }\r\n\r\n    /**\r\n     * @notice Used to commit the vote\r\n     * @param _ballotId Given ballot Id\r\n     * @param _secretVote It is secret hash value (hashed offchain)\r\n     */\r\n    function commitVote(uint256 _ballotId, bytes32 _secretVote) external {\r\n        // Check for the ballots array out of bound\r\n        _checkIndexOutOfBound(_ballotId);\r\n        require(_secretVote != bytes32(0), \"Invalid vote\");\r\n        // Check for the valid stage. Whether that ballot is in the COMMIT state or not.\r\n        _checkValidStage(_ballotId, Stage.COMMIT);\r\n        // Check whether the msg.sender is allowed to vote for a given ballotId or not. \r\n        require(isVoterAllowed(_ballotId, msg.sender), \"Invalid voter\");\r\n        // validate the storage values\r\n        Ballot storage ballot = ballots[_ballotId];\r\n        require(ballot.investorToProposal[msg.sender].secretVote == bytes32(0), \"Already voted\");\r\n        require(ballot.isActive, \"Inactive ballot\");\r\n        // Get the balance of the voter (i.e `msg.sender`) at the checkpoint on which ballot was created.\r\n        uint256 weight = securityToken.balanceOfAt(msg.sender, ballot.checkpointId);\r\n        require(weight > 0, \"Zero weight is not allowed\");\r\n        // Update the storage value. Assigned `0` as vote option it will be updated when voter reveals its vote.\r\n        ballot.investorToProposal[msg.sender] = Vote(0, _secretVote);\r\n        emit VoteCommit(msg.sender, weight, _ballotId, _secretVote);\r\n    }\r\n\r\n    /**\r\n     * @notice Used to reveal the vote\r\n     * @param _ballotId Given ballot Id\r\n     * @param _choiceOfProposal Proposal chossed by the voter. It varies from (1 to totalProposals)\r\n     * @param _salt used salt for hashing (unique for each user)\r\n     */\r\n    function revealVote(uint256 _ballotId, uint256 _choiceOfProposal, uint256 _salt) external {\r\n        // Check for the ballots array out of bound\r\n        _checkIndexOutOfBound(_ballotId);\r\n        // Check for the valid stage. Whether that ballot is in the REVEAL state or not.\r\n        _checkValidStage(_ballotId, Stage.REVEAL);\r\n        Ballot storage ballot = ballots[_ballotId];\r\n        // validate the storage values \r\n        require(ballot.isActive, \"Inactive ballot\");\r\n        require(ballot.investorToProposal[msg.sender].secretVote != bytes32(0), \"Secret vote not available\");\r\n        require(ballot.totalProposals >= _choiceOfProposal && _choiceOfProposal > 0, \"Invalid proposal choice\");\r\n\r\n        // validate the secret vote\r\n        require(\r\n            bytes32(keccak256(abi.encodePacked(_choiceOfProposal, _salt))) == ballot.investorToProposal[msg.sender].secretVote,\r\n            \"Invalid vote\"\r\n        );\r\n        // Get the balance of the voter (i.e `msg.sender`) at the checkpoint on which ballot was created.\r\n        uint256 weight = securityToken.balanceOfAt(msg.sender, ballot.checkpointId);\r\n        bytes32 secretVote = ballot.investorToProposal[msg.sender].secretVote;\r\n        // update the storage values\r\n        ballot.proposalToVotes[_choiceOfProposal] = ballot.proposalToVotes[_choiceOfProposal].add(weight);\r\n        ballot.totalVoters = ballot.totalVoters + 1;\r\n        ballot.investorToProposal[msg.sender] = Vote(_choiceOfProposal, bytes32(0));\r\n        emit VoteRevealed(msg.sender, weight, _ballotId, _choiceOfProposal, _salt, secretVote);\r\n    }\r\n\r\n    /**\r\n     * Change the given ballot exempted list\r\n     * @param _ballotId Given ballot Id\r\n     * @param _voter Address of the voter\r\n     * @param _exempt Whether it is exempted or not\r\n     */\r\n    function changeBallotExemptedVotersList(uint256 _ballotId, address _voter, bool _exempt) external withPerm(ADMIN) {\r\n        _changeBallotExemptedVotersList(_ballotId, _voter, _exempt);\r\n    }\r\n\r\n    /**\r\n     * Change the given ballot exempted list (Multi)\r\n     * @param _ballotId Given ballot Id\r\n     * @param _voters Address of the voter\r\n     * @param _exempts Whether it is exempted or not\r\n     */\r\n    function changeBallotExemptedVotersListMulti(uint256 _ballotId, address[] calldata _voters, bool[] calldata _exempts) external withPerm(ADMIN) {\r\n        require(_voters.length == _exempts.length, \"Array length mismatch\");\r\n        for (uint256 i = 0; i < _voters.length; i++) {\r\n            _changeBallotExemptedVotersList(_ballotId, _voters[i], _exempts[i]);\r\n        }\r\n    }\r\n\r\n    function _changeBallotExemptedVotersList(uint256 _ballotId, address _voter, bool _exempt) internal {\r\n        // Check for the ballots array out of bound\r\n        _checkIndexOutOfBound(_ballotId);\r\n        require(_voter != address(0), \"Invalid address\");\r\n        require(ballots[_ballotId].exemptedVoters[_voter] != _exempt, \"No change\");\r\n        ballots[_ballotId].exemptedVoters[_voter] = _exempt;\r\n        emit ChangedBallotExemptedVotersList(_ballotId, _voter, _exempt);\r\n    }\r\n\r\n    /**\r\n     * Use to check whether the voter is allowed to vote or not\r\n     * @param _ballotId The index of the target ballot\r\n     * @param _voter Address of the voter\r\n     * @return bool\r\n     */\r\n    function isVoterAllowed(uint256 _ballotId, address _voter) public view returns(bool) {\r\n        bool allowed = (ballots[_ballotId].exemptedVoters[_voter] || (defaultExemptIndex[_voter] != 0));\r\n        return !allowed;\r\n    }\r\n\r\n    /**\r\n     * @notice Allows the token issuer to set the active stats of a ballot\r\n     * @param _ballotId The index of the target ballot\r\n     * @param _isActive The bool value of the active stats of the ballot\r\n     */\r\n    function changeBallotStatus(uint256 _ballotId, bool _isActive) external withPerm(ADMIN) {\r\n        // Check for the ballots array out of bound\r\n        _checkIndexOutOfBound(_ballotId);\r\n        require(\r\n            now <= uint256(ballots[_ballotId].startTime)\r\n            .add(uint256(ballots[_ballotId].commitDuration)\r\n            .add(uint256(ballots[_ballotId].revealDuration))),\r\n            \"Already ended\"\r\n        );\r\n        require(ballots[_ballotId].isActive != _isActive, \"Active state unchanged\");\r\n        ballots[_ballotId].isActive = _isActive;\r\n        emit BallotStatusChanged(_ballotId, _isActive);\r\n    }\r\n\r\n    /**\r\n     * @notice Used to get the current stage of the ballot\r\n     * @param _ballotId Given ballot Id\r\n     */\r\n    function getCurrentBallotStage(uint256 _ballotId) public view returns (Stage) {\r\n        Ballot memory ballot = ballots[_ballotId];\r\n        uint256 commitTimeEnd = uint256(ballot.startTime).add(uint256(ballot.commitDuration));\r\n        uint256 revealTimeEnd = commitTimeEnd.add(uint256(ballot.revealDuration));\r\n\r\n        if (now < ballot.startTime)\r\n            return Stage.PREP;\r\n        else if (now >= ballot.startTime && now <= commitTimeEnd) \r\n            return Stage.COMMIT;\r\n        else if ( now > commitTimeEnd && now <= revealTimeEnd)\r\n            return Stage.REVEAL;\r\n        else if (now > revealTimeEnd)\r\n            return Stage.RESOLVED;\r\n    }\r\n\r\n    /**\r\n     * @notice Queries the result of a given ballot\r\n     * @param _ballotId Id of the target ballot\r\n     * @return uint256 voteWeighting\r\n     * @return uint256 tieWith\r\n     * @return uint256 winningProposal\r\n     * @return bool isVotingSucceed\r\n     * @return uint256 totalVoters\r\n     */\r\n    function getBallotResults(uint256 _ballotId) external view returns(\r\n        uint256[] memory voteWeighting,\r\n        uint256[] memory tieWith,\r\n        uint256 winningProposal,\r\n        bool isVotingSucceed,\r\n        uint256 totalVotes\r\n    ) {\r\n        if (_ballotId >= ballots.length)\r\n            return (new uint256[](0), new uint256[](0), 0, false, 0);\r\n\r\n        Ballot storage ballot = ballots[_ballotId];\r\n        uint256 i = 0;\r\n        uint256 counter = 0;\r\n        uint256 maxWeight = 0;\r\n        uint256 supplyAtCheckpoint = securityToken.totalSupplyAt(ballot.checkpointId);\r\n        uint256 quorumWeight = (supplyAtCheckpoint.mul(ballot.quorum)).div(10 ** 18);\r\n        voteWeighting = new uint256[](ballot.totalProposals);\r\n        for (i = 0; i < ballot.totalProposals; i++) {\r\n            voteWeighting[i] = ballot.proposalToVotes[i + 1];\r\n            if (maxWeight < ballot.proposalToVotes[i + 1]) {\r\n                maxWeight = ballot.proposalToVotes[i + 1];\r\n                if (maxWeight >= quorumWeight)\r\n                    winningProposal = i + 1;\r\n            }\r\n        }\r\n        if (maxWeight >= quorumWeight) {\r\n            isVotingSucceed = true;\r\n            for (i = 0; i < ballot.totalProposals; i++) {\r\n                if (maxWeight == ballot.proposalToVotes[i + 1] && (i + 1) != winningProposal)\r\n                    counter ++;\r\n            }\r\n        }\r\n\r\n        tieWith = new uint256[](counter);\r\n        if (counter > 0) {\r\n            counter = 0;\r\n            for (i = 0; i < ballot.totalProposals; i++) {\r\n                if (maxWeight == ballot.proposalToVotes[i + 1] && (i + 1) != winningProposal) {\r\n                    tieWith[counter] = i + 1;\r\n                    counter ++;\r\n                }\r\n            }\r\n        }\r\n        totalVotes = uint256(ballot.totalVoters);\r\n    }\r\n\r\n    /**\r\n     * @notice Get the voted proposal\r\n     * @param _ballotId Id of the ballot\r\n     * @param _voter Address of the voter\r\n     */\r\n    function getSelectedProposal(uint256 _ballotId, address _voter) external view returns(uint256 proposalId) {\r\n        if (_ballotId >= ballots.length)\r\n            return 0;\r\n        return (ballots[_ballotId].investorToProposal[_voter].voteOption);\r\n    }\r\n\r\n    /**\r\n     * @notice Get the details of the ballot\r\n     * @param _ballotId The index of the target ballot\r\n     * @return uint256 quorum\r\n     * @return uint256 totalSupplyAtCheckpoint\r\n     * @return uint256 checkpointId\r\n     * @return uint256 startTime\r\n     * @return uint256 endTime\r\n     * @return uint256 totalProposals\r\n     * @return uint256 totalVoters\r\n     * @return bool isActive\r\n     */\r\n    function getBallotDetails(uint256 _ballotId) external view returns(uint256, uint256, uint256, uint256, uint256, uint256, uint256, bool) {\r\n        Ballot memory ballot = ballots[_ballotId];\r\n        return (\r\n            ballot.quorum,\r\n            securityToken.totalSupplyAt(ballot.checkpointId),\r\n            ballot.checkpointId,\r\n            ballot.startTime,\r\n            (uint256(ballot.startTime).add(uint256(ballot.commitDuration))).add(uint256(ballot.revealDuration)),\r\n            ballot.totalProposals,\r\n            ballot.totalVoters,\r\n            ballot.isActive\r\n        );\r\n    }\r\n\r\n    /**\r\n     * Return the commit relveal time duration of ballot\r\n     * @param _ballotId Id of a ballot\r\n     */\r\n    function getBallotCommitRevealDuration(uint256 _ballotId) external view returns(uint256, uint256) {\r\n        Ballot memory ballot = ballots[_ballotId];\r\n        return (\r\n            ballot.commitDuration,\r\n            ballot.revealDuration\r\n        );\r\n    }\r\n\r\n    /**\r\n     * @notice This function returns the signature of configure function\r\n     */\r\n    function getInitFunction() external pure returns(bytes4) {\r\n        return bytes4(0);\r\n    }\r\n\r\n    /**\r\n     * @notice Return the permissions flag that are associated with CountTransferManager\r\n     */\r\n    function getPermissions() external view returns(bytes32[] memory) {\r\n        bytes32[] memory allPermissions = new bytes32[](1);\r\n        allPermissions[0] = ADMIN;\r\n        return allPermissions;\r\n    }\r\n\r\n    function _isGreaterThanZero(uint256 _value) internal pure {\r\n        require(_value > 0, \"Invalid value\");\r\n    }\r\n\r\n    function _checkIndexOutOfBound(uint256 _ballotId) internal view {\r\n        require(ballots.length > _ballotId, \"Index out of bound\");\r\n    }\r\n\r\n    function _checkValidStage(uint256 _ballotId, Stage _stage) internal view {\r\n        require(getCurrentBallotStage(_ballotId) == _stage, \"Not in a valid stage\");\r\n    }\r\n\r\n}\r\n",
  "sourcePath": "C:/mspace/polymath-core/contracts/modules/Checkpoint/Voting/PLCR/PLCRVotingCheckpoint.sol",
  "compiler": {
    "name": "solc",
    "version": "0.5.8+commit.23d335f2.Emscripten.clang"
  },
  "schemaVersion": "3.0.11",
  "updatedAt": "2019-08-05T12:37:19.204Z",
  "devdoc": {
    "methods": {
      "changeBallotExemptedVotersList(uint256,address,bool)": {
        "params": {
          "_ballotId": "Given ballot Id\r",
          "_exempt": "Whether it is exempted or not\r",
          "_voter": "Address of the voter\r"
        }
      },
      "changeBallotExemptedVotersListMulti(uint256,address[],bool[])": {
        "params": {
          "_ballotId": "Given ballot Id\r",
          "_exempts": "Whether it is exempted or not\r",
          "_voters": "Address of the voter\r"
        }
      },
      "changeBallotStatus(uint256,bool)": {
        "params": {
          "_ballotId": "The index of the target ballot\r",
          "_isActive": "The bool value of the active stats of the ballot\r"
        }
      },
      "changeDefaultExemptedVotersList(address,bool)": {
        "params": {
          "_exempt": "Whether it is exempted or not\r",
          "_voter": "Address of the voter\r"
        }
      },
      "changeDefaultExemptedVotersListMulti(address[],bool[])": {
        "params": {
          "_exempts": "Whether it is exempted or not\r",
          "_voters": "Address of the voter\r"
        }
      },
      "commitVote(uint256,bytes32)": {
        "params": {
          "_ballotId": "Given ballot Id\r",
          "_secretVote": "It is secret hash value (hashed offchain)\r"
        }
      },
      "createBallot(uint256,uint256,uint256,uint256)": {
        "params": {
          "_commitDuration": "Unix time period till the voters commit there vote\r",
          "_noOfProposals": "Total number of proposal used in the ballot. In general it is 2 (For & Against)\r",
          "_quorumPercentage": "Minimum number of weight vote percentage requires to win a election.\r",
          "_revealDuration": "Unix time period till the voters reveal there vote starts when commit duration ends\r"
        }
      },
      "createCustomBallot(uint256,uint256,uint256,uint256,uint256,uint256)": {
        "params": {
          "_checkpointId": "Valid checkpoint Id\r",
          "_commitDuration": "Unix time period till the voters commit there vote\r",
          "_noOfProposals": "Total number of proposal used in the ballot. In general it is 2 (For & Against)\r",
          "_quorumPercentage": "Minimum number of weight vote percentage requires to win a election.\r",
          "_revealDuration": "Unix time period till the voters reveal there vote starts when commit duration ends\r",
          "_startTime": "startTime of the ballot\r"
        }
      },
      "getBallotCommitRevealDuration(uint256)": {
        "params": {
          "_ballotId": "Id of a ballot\r"
        }
      },
      "getBallotDetails(uint256)": {
        "params": {
          "_ballotId": "The index of the target ballot\r"
        },
        "return": "uint256 quorum\ruint256 totalSupplyAtCheckpoint\ruint256 checkpointId\ruint256 startTime\ruint256 endTime\ruint256 totalProposals\ruint256 totalVoters\rbool isActive\r"
      },
      "getBallotResults(uint256)": {
        "params": {
          "_ballotId": "Id of the target ballot\r"
        },
        "return": "uint256 voteWeighting\ruint256 tieWith\ruint256 winningProposal\rbool isVotingSucceed\ruint256 totalVoters\r"
      },
      "getCurrentBallotStage(uint256)": {
        "params": {
          "_ballotId": "Given ballot Id\r"
        }
      },
      "getSelectedProposal(uint256,address)": {
        "params": {
          "_ballotId": "Id of the ballot\r",
          "_voter": "Address of the voter\r"
        }
      },
      "isVoterAllowed(uint256,address)": {
        "params": {
          "_ballotId": "The index of the target ballot\r",
          "_voter": "Address of the voter\r"
        },
        "return": "bool\r"
      },
      "reclaimERC20(address)": {
        "details": "We duplicate here due to the overriden owner & onlyOwner\r",
        "params": {
          "_tokenContract": "The address of the token contract\r"
        }
      },
      "reclaimETH()": {
        "details": "We duplicate here due to the overriden owner & onlyOwner\r"
      },
      "revealVote(uint256,uint256,uint256)": {
        "params": {
          "_ballotId": "Given ballot Id\r",
          "_choiceOfProposal": "Proposal chossed by the voter. It varies from (1 to totalProposals)\r",
          "_salt": "used salt for hashing (unique for each user)\r"
        }
      }
    }
  },
  "userdoc": {
    "methods": {
      "changeBallotExemptedVotersList(uint256,address,bool)": {
        "notice": "Change the given ballot exempted list\r"
      },
      "changeBallotExemptedVotersListMulti(uint256,address[],bool[])": {
        "notice": "Change the given ballot exempted list (Multi)\r"
      },
      "changeBallotStatus(uint256,bool)": {
        "notice": "Allows the token issuer to set the active stats of a ballot\r"
      },
      "changeDefaultExemptedVotersList(address,bool)": {
        "notice": "Change the global exempted voters list\r"
      },
      "changeDefaultExemptedVotersListMulti(address[],bool[])": {
        "notice": "Change the global exempted voters list\r"
      },
      "commitVote(uint256,bytes32)": {
        "notice": "Used to commit the vote\r"
      },
      "createBallot(uint256,uint256,uint256,uint256)": {
        "notice": "Use to create the ballot\r"
      },
      "createCustomBallot(uint256,uint256,uint256,uint256,uint256,uint256)": {
        "notice": "Use to create the ballot\r"
      },
      "getBallotCommitRevealDuration(uint256)": {
        "notice": "Return the commit relveal time duration of ballot\r"
      },
      "getBallotDetails(uint256)": {
        "notice": "Get the details of the ballot\r"
      },
      "getBallotResults(uint256)": {
        "notice": "Queries the result of a given ballot\r"
      },
      "getCurrentBallotStage(uint256)": {
        "notice": "Used to get the current stage of the ballot\r"
      },
      "getDataStore()": {
        "notice": "used to return the data store address of securityToken\r"
      },
      "getDefaultExemptionVotersList()": {
        "notice": "Return the default exemption list\r"
      },
      "getInitFunction()": {
        "notice": "This function returns the signature of configure function\r"
      },
      "getPermissions()": {
        "notice": "Return the permissions flag that are associated with CountTransferManager\r"
      },
      "getSelectedProposal(uint256,address)": {
        "notice": "Get the voted proposal\r"
      },
      "isVoterAllowed(uint256,address)": {
        "notice": "Use to check whether the voter is allowed to vote or not\r"
      },
      "pause()": {
        "notice": "Pause (overridden function)\r"
      },
      "reclaimERC20(address)": {
        "notice": "Reclaims ERC20Basic compatible tokens\r"
      },
      "reclaimETH()": {
        "notice": "Reclaims ETH\r"
      },
      "revealVote(uint256,uint256,uint256)": {
        "notice": "Used to reveal the vote\r"
      },
      "unpause()": {
        "notice": "Unpause (overridden function)\r"
      }
    }
  }
}