{
  "contractName": "PLCRVotingCheckpointProxy",
  "abi": [
    {
      "constant": false,
      "inputs": [],
      "name": "proxyOwner",
      "outputs": [
        {
          "name": "",
          "type": "address"
        }
      ],
      "payable": false,
      "stateMutability": "nonpayable",
      "type": "function"
    },
    {
      "constant": true,
      "inputs": [],
      "name": "ADMIN",
      "outputs": [
        {
          "name": "",
          "type": "bytes32"
        }
      ],
      "payable": false,
      "stateMutability": "view",
      "type": "function"
    },
    {
      "constant": false,
      "inputs": [],
      "name": "version",
      "outputs": [
        {
          "name": "",
          "type": "string"
        }
      ],
      "payable": false,
      "stateMutability": "nonpayable",
      "type": "function"
    },
    {
      "constant": false,
      "inputs": [
        {
          "name": "_newVersion",
          "type": "string"
        },
        {
          "name": "_newImplementation",
          "type": "address"
        }
      ],
      "name": "upgradeTo",
      "outputs": [],
      "payable": false,
      "stateMutability": "nonpayable",
      "type": "function"
    },
    {
      "constant": false,
      "inputs": [],
      "name": "implementation",
      "outputs": [
        {
          "name": "",
          "type": "address"
        }
      ],
      "payable": false,
      "stateMutability": "nonpayable",
      "type": "function"
    },
    {
      "constant": true,
      "inputs": [],
      "name": "paused",
      "outputs": [
        {
          "name": "",
          "type": "bool"
        }
      ],
      "payable": false,
      "stateMutability": "view",
      "type": "function"
    },
    {
      "constant": true,
      "inputs": [],
      "name": "polyToken",
      "outputs": [
        {
          "name": "",
          "type": "address"
        }
      ],
      "payable": false,
      "stateMutability": "view",
      "type": "function"
    },
    {
      "constant": false,
      "inputs": [
        {
          "name": "_newVersion",
          "type": "string"
        },
        {
          "name": "_newImplementation",
          "type": "address"
        },
        {
          "name": "_data",
          "type": "bytes"
        }
      ],
      "name": "upgradeToAndCall",
      "outputs": [],
      "payable": true,
      "stateMutability": "payable",
      "type": "function"
    },
    {
      "constant": true,
      "inputs": [],
      "name": "OPERATOR",
      "outputs": [
        {
          "name": "",
          "type": "bytes32"
        }
      ],
      "payable": false,
      "stateMutability": "view",
      "type": "function"
    },
    {
      "constant": true,
      "inputs": [],
      "name": "securityToken",
      "outputs": [
        {
          "name": "",
          "type": "address"
        }
      ],
      "payable": false,
      "stateMutability": "view",
      "type": "function"
    },
    {
      "constant": true,
      "inputs": [],
      "name": "factory",
      "outputs": [
        {
          "name": "",
          "type": "address"
        }
      ],
      "payable": false,
      "stateMutability": "view",
      "type": "function"
    },
    {
      "constant": false,
      "inputs": [
        {
          "name": "_newOwner",
          "type": "address"
        }
      ],
      "name": "transferProxyOwnership",
      "outputs": [],
      "payable": false,
      "stateMutability": "nonpayable",
      "type": "function"
    },
    {
      "inputs": [
        {
          "name": "_version",
          "type": "string"
        },
        {
          "name": "_securityToken",
          "type": "address"
        },
        {
          "name": "_polyAddress",
          "type": "address"
        },
        {
          "name": "_implementation",
          "type": "address"
        }
      ],
      "payable": false,
      "stateMutability": "nonpayable",
      "type": "constructor"
    },
    {
      "payable": true,
      "stateMutability": "payable",
      "type": "fallback"
    },
    {
      "anonymous": false,
      "inputs": [
        {
          "indexed": false,
          "name": "_previousOwner",
          "type": "address"
        },
        {
          "indexed": false,
          "name": "_newOwner",
          "type": "address"
        }
      ],
      "name": "ProxyOwnershipTransferred",
      "type": "event"
    },
    {
      "anonymous": false,
      "inputs": [
        {
          "indexed": false,
          "name": "_newVersion",
          "type": "string"
        },
        {
          "indexed": true,
          "name": "_newImplementation",
          "type": "address"
        }
      ],
      "name": "Upgraded",
      "type": "event"
    },
    {
      "anonymous": false,
      "inputs": [
        {
          "indexed": false,
          "name": "account",
          "type": "address"
        }
      ],
      "name": "Pause",
      "type": "event"
    },
    {
      "anonymous": false,
      "inputs": [
        {
          "indexed": false,
          "name": "account",
          "type": "address"
        }
      ],
      "name": "Unpause",
      "type": "event"
    }
  ],
  "bytecode": "0x608060405260058054600160a01b60ff02191690553480156200002157600080fd5b506040516200149d3803806200149d833981018060405260808110156200004757600080fd5b8101908080516401000000008111156200006057600080fd5b820160208101848111156200007457600080fd5b81516401000000008111828201871017156200008f57600080fd5b50506020808301516040840151606090940151600480546001600160a01b038085166001600160a01b03199283161790925560038054821633908117909155600580549389169390921692909217905593965090945091620000f59162000172811b901c565b6001600160a01b03811662000156576040517f08c379a0000000000000000000000000000000000000000000000000000000008152600401808060200182810382526027815260200180620013f56027913960400191505060405180910390fd5b6200016884826200020a60201b60201c565b505050506200062c565b6001600160a01b038116620001e857604080517f08c379a000000000000000000000000000000000000000000000000000000000815260206004820152601860248201527f416464726573732073686f756c64206e6f742062652030780000000000000000604482015290519081900360640190fd5b600880546001600160a01b0319166001600160a01b0392909216919091179055565b6007546001600160a01b038281169116148015906200023157506001600160a01b03811615155b62000288576040517f08c379a00000000000000000000000000000000000000000000000000000000081526004018080602001828103825260468152602001806200141c6046913960600191505060405180910390fd5b6200029e816200058160201b62000bf11760201c565b620002f5576040517f08c379a000000000000000000000000000000000000000000000000000000000815260040180806020018281038252603b81526020018062001462603b913960400191505060405180910390fd5b600082511162000351576040517f08c379a0000000000000000000000000000000000000000000000000000000008152600401808060200182810382526022815260200180620013d36022913960400191505060405180910390fd5b816040516020018082805190602001908083835b60208310620003865780518252601f19909201916020918201910162000365565b6001836020036101000a0380198251168184511680821785525050505050509050019150506040516020818303038152906040528051906020012060066040516020018082805460018160011615610100020316600290048015620004255780601f106200040257610100808354040283529182019162000425565b820191906000526020600020905b81548152906001019060200180831162000410575b5050915050604051602081830303815290604052805190602001201415620004ae57604080517f08c379a000000000000000000000000000000000000000000000000000000000815260206004820152601d60248201527f4e65772076657273696f6e20657175616c7320746f2063757272656e74000000604482015290519081900360640190fd5b8151620004c390600690602085019062000587565b50600780546001600160a01b0319166001600160a01b03831690811790915560408051602080825285518183015285517f8e05e0e35ff592971ca8b477d4285a33a61ded208d644042667b78693a472f5e938793928392918301919085019080838360005b838110156200054257818101518382015260200162000528565b50505050905090810190601f168015620005705780820380516001836020036101000a031916815260200191505b509250505060405180910390a25050565b3b151590565b828054600181600116156101000203166002900490600052602060002090601f016020900481019282601f10620005ca57805160ff1916838001178555620005fa565b82800160010185558215620005fa579182015b82811115620005fa578251825591602001919060010190620005dd565b50620006089291506200060c565b5090565b6200062991905b8082111562000608576000815560010162000613565b90565b610d97806200063c6000396000f3fe6080604052600436106100a75760003560e01c80636faa22a5116100645780636faa22a514610257578063958a41dd1461026c578063983d27371461033b578063b84dfbd214610350578063c45a015514610365578063f1739cae1461037a576100a7565b8063025313a2146100b15780632a0acc6a146100e257806354fd4d50146101095780635a8b1a9f146101935780635c60da1b146102195780635c975abb1461022e575b6100af6103ad565b005b3480156100bd57600080fd5b506100c66103bf565b604080516001600160a01b039092168252519081900360200190f35b3480156100ee57600080fd5b506100f76103fc565b60408051918252519081900360200190f35b34801561011557600080fd5b5061011e61040b565b6040805160208082528351818301528351919283929083019185019080838360005b83811015610158578181015183820152602001610140565b50505050905090810190601f1680156101855780820380516001836020036101000a031916815260200191505b509250505060405180910390f35b34801561019f57600080fd5b506100af600480360360408110156101b657600080fd5b8101906020810181356401000000008111156101d157600080fd5b8201836020820111156101e357600080fd5b8035906020019184600183028401116401000000008311171561020557600080fd5b9193509150356001600160a01b03166104c0565b34801561022557600080fd5b506100c6610534565b34801561023a57600080fd5b5061024361055f565b604080519115158252519081900360200190f35b34801561026357600080fd5b506100c661056f565b6100af6004803603606081101561028257600080fd5b81019060208101813564010000000081111561029d57600080fd5b8201836020820111156102af57600080fd5b803590602001918460018302840111640100000000831117156102d157600080fd5b919390926001600160a01b03833516926040810190602001356401000000008111156102fc57600080fd5b82018360208201111561030e57600080fd5b8035906020019184600183028401116401000000008311171561033057600080fd5b50909250905061057e565b34801561034757600080fd5b506100f7610628565b34801561035c57600080fd5b506100c661063a565b34801561037157600080fd5b506100c6610649565b34801561038657600080fd5b506100af6004803603602081101561039d57600080fd5b50356001600160a01b0316610658565b6103bd6103b861073b565b61074a565b565b60006103c961076e565b6001600160a01b0316336001600160a01b031614156103f1576103ea61076e565b90506103f9565b6103f96103ad565b90565b600160d91b6420a226a4a70281565b606061041561076e565b6001600160a01b0316336001600160a01b031614156103f1576006805460408051602060026001851615610100026000190190941693909304601f810184900484028201840190925281815292918301828280156104b45780601f10610489576101008083540402835291602001916104b4565b820191906000526020600020905b81548152906001019060200180831161049757829003601f168201915b505050505090506103f9565b6104c861076e565b6001600160a01b0316336001600160a01b031614156105275761052283838080601f01602080910402602001604051908101604052809392919081815260200183838082843760009201919091525085925061077d915050565b61052f565b61052f6103ad565b505050565b600061053e61076e565b6001600160a01b0316336001600160a01b031614156103f1576103ea61073b565b600554600160a01b900460ff1681565b6005546001600160a01b031681565b61058661076e565b6001600160a01b0316336001600160a01b031614156106195761061485858080601f01602080910402602001604051908101604052809392919081815260200183838082843760009201919091525050604080516020601f880181900481028201810190925286815288935091508690869081908401838280828437600092019190915250610a7892505050565b610621565b6106216103ad565b5050505050565b600160c11b6727a822a920aa27a90281565b6004546001600160a01b031681565b6003546001600160a01b031681565b61066061076e565b6001600160a01b0316336001600160a01b03161415610730576001600160a01b0381166106d75760408051600160e51b62461bcd02815260206004820152601860248201527f416464726573732073686f756c64206e6f742062652030780000000000000000604482015290519081900360640190fd5b7f5a3e66efaa1e445ebd894728a69d6959842ea1e97bd79b892797106e270efcd961070061076e565b604080516001600160a01b03928316815291841660208301528051918290030190a161072b81610b71565b610738565b6107386103ad565b50565b6007546001600160a01b031690565b3660008037600080366000845af43d6000803e808015610769573d6000f35b3d6000fd5b6008546001600160a01b031690565b6007546001600160a01b038281169116148015906107a357506001600160a01b03811615155b6107e157604051600160e51b62461bcd028152600401808060200182810382526046815260200180610ceb6046913960600191505060405180910390fd5b6107ea81610bf1565b61082857604051600160e51b62461bcd02815260040180806020018281038252603b815260200180610d31603b913960400191505060405180910390fd5b600082511161086b57604051600160e51b62461bcd028152600401808060200182810382526022815260200180610c906022913960400191505060405180910390fd5b816040516020018082805190602001908083835b6020831061089e5780518252601f19909201916020918201910161087f565b6001836020036101000a03801982511681845116808217855250505050505090500191505060405160208183030381529060405280519060200120600660405160200180828054600181600116156101000203166002900480156109395780601f10610917576101008083540402835291820191610939565b820191906000526020600020905b815481529060010190602001808311610925575b50509150506040516020818303038152906040528051906020012014156109aa5760408051600160e51b62461bcd02815260206004820152601d60248201527f4e65772076657273696f6e20657175616c7320746f2063757272656e74000000604482015290519081900360640190fd5b81516109bd906006906020850190610bf7565b50600780546001600160a01b0319166001600160a01b03831690811790915560408051602080825285518183015285517f8e05e0e35ff592971ca8b477d4285a33a61ded208d644042667b78693a472f5e938793928392918301919085019080838360005b83811015610a3a578181015183820152602001610a22565b50505050905090810190601f168015610a675780820380516001836020036101000a031916815260200191505b509250505060405180910390a25050565b610a82838361077d565b6000306001600160a01b031634836040518082805190602001908083835b60208310610abf5780518252601f199092019160209182019101610aa0565b6001836020036101000a03801982511681845116808217855250505050505090500191505060006040518083038185875af1925050503d8060008114610b21576040519150601f19603f3d011682016040523d82523d6000602084013e610b26565b606091505b50508091505080610b6b57604051600160e51b62461bcd028152600401808060200182810382526039815260200180610cb26039913960400191505060405180910390fd5b50505050565b6001600160a01b038116610bcf5760408051600160e51b62461bcd02815260206004820152601860248201527f416464726573732073686f756c64206e6f742062652030780000000000000000604482015290519081900360640190fd5b600880546001600160a01b0319166001600160a01b0392909216919091179055565b3b151590565b828054600181600116156101000203166002900490600052602060002090601f016020900481019282601f10610c3857805160ff1916838001178555610c65565b82800160010185558215610c65579182015b82811115610c65578251825591602001919060010190610c4a565b50610c71929150610c75565b5090565b6103f991905b80821115610c715760008155600101610c7b56fe56657273696f6e2073686f756c64206e6f7420626520656d70747920737472696e674661696c20696e20657865637574696e67207468652066756e6374696f6e206f6620696d706c656d656e746174696f6e20636f6e74726163744f6c642061646472657373206973206e6f7420616c6c6f77656420616e6420696d706c656d656e746174696f6e20616464726573732073686f756c64206e6f7420626520307843616e6e6f742073657420612070726f787920696d706c656d656e746174696f6e20746f2061206e6f6e2d636f6e74726163742061646472657373a165627a7a72305820013681671d6929ab79f57ae747387919b215fc830544a7fc1cd1ff257d2911af002956657273696f6e2073686f756c64206e6f7420626520656d70747920737472696e67496d706c656d656e746174696f6e20616464726573732073686f756c64206e6f742062652030784f6c642061646472657373206973206e6f7420616c6c6f77656420616e6420696d706c656d656e746174696f6e20616464726573732073686f756c64206e6f7420626520307843616e6e6f742073657420612070726f787920696d706c656d656e746174696f6e20746f2061206e6f6e2d636f6e74726163742061646472657373",
  "source": "pragma solidity 0.5.8;\r\n\r\nimport \"../../../../Pausable.sol\";\r\nimport \"./PLCRVotingCheckpointStorage.sol\";\r\nimport \"../../../../storage/modules/ModuleStorage.sol\";\r\nimport \"../../../../proxy/OwnedUpgradeabilityProxy.sol\";\r\nimport \"../../../../storage/modules/Checkpoint/Voting/VotingCheckpointStorage.sol\";\r\n\r\n/**\r\n * @title Voting module for governance\r\n */\r\ncontract PLCRVotingCheckpointProxy is PLCRVotingCheckpointStorage, VotingCheckpointStorage, ModuleStorage, Pausable, OwnedUpgradeabilityProxy {\r\n    /**\r\n    * @notice Constructor\r\n    * @param _securityToken Address of the security token\r\n    * @param _polyAddress Address of the polytoken\r\n    * @param _implementation representing the address of the new implementation to be set\r\n    */\r\n    constructor(\r\n        string memory _version,\r\n        address _securityToken,\r\n        address _polyAddress,\r\n        address _implementation\r\n    )\r\n        public\r\n        ModuleStorage(_securityToken, _polyAddress)\r\n    {\r\n        require(_implementation != address(0), \"Implementation address should not be 0x\");\r\n        _upgradeTo(_version, _implementation);\r\n    }\r\n\r\n}\r\n",
  "sourcePath": "C:\\mspace\\polymath-core\\contracts\\modules\\Checkpoint\\Voting\\PLCR\\PLCRVotingCheckpointProxy.sol",
  "compiler": {
    "name": "solc",
    "version": "0.5.8+commit.23d335f2.Emscripten.clang"
  },
  "schemaVersion": "3.0.11",
  "updatedAt": "2019-08-05T22:52:46.758Z",
  "devdoc": {
    "methods": {
      "constructor": {
        "params": {
          "_implementation": "representing the address of the new implementation to be set\r",
          "_polyAddress": "Address of the polytoken\r",
          "_securityToken": "Address of the security token\r"
        }
      },
      "implementation()": {
        "details": "Tells the address of the current implementation\r",
        "return": "address of the current implementation\r"
      },
      "proxyOwner()": {
        "details": "Tells the address of the proxy owner\r",
        "return": "the address of the proxy owner\r"
      },
      "transferProxyOwnership(address)": {
        "details": "Allows the current owner to transfer control of the contract to a newOwner.\r",
        "params": {
          "_newOwner": "The address to transfer ownership to.\r"
        }
      },
      "upgradeTo(string,address)": {
        "details": "Allows the upgradeability owner to upgrade the current version of the proxy.\r",
        "params": {
          "_newImplementation": "representing the address of the new implementation to be set.\r",
          "_newVersion": "representing the version name of the new implementation to be set.\r"
        }
      },
      "upgradeToAndCall(string,address,bytes)": {
        "details": "Allows the upgradeability owner to upgrade the current version of the proxy and call the new implementation\r to initialize whatever is needed through a low level call.\r",
        "params": {
          "_data": "represents the msg.data to bet sent in the low level call. This parameter may include the function\r signature of the implementation to be called with the needed payload\r",
          "_newImplementation": "representing the address of the new implementation to be set.\r",
          "_newVersion": "representing the version name of the new implementation to be set.\r"
        }
      },
      "version()": {
        "details": "Tells the version name of the current implementation\r",
        "return": "string representing the name of the current version\r"
      }
    },
    "title": "Voting module for governance\r"
  },
  "userdoc": {
    "methods": {
      "constructor": "Constructor\r"
    }
  }
}