{
  "contractName": "PolymathRegistry",
  "abi": [
    {
      "constant": true,
      "inputs": [
        {
          "name": "",
          "type": "bytes32"
        }
      ],
      "name": "storedAddresses",
      "outputs": [
        {
          "name": "",
          "type": "address"
        }
      ],
      "payable": false,
      "stateMutability": "view",
      "type": "function"
    },
    {
      "constant": false,
      "inputs": [],
      "name": "renounceOwnership",
      "outputs": [],
      "payable": false,
      "stateMutability": "nonpayable",
      "type": "function"
    },
    {
      "constant": false,
      "inputs": [
        {
          "name": "_tokenContract",
          "type": "address"
        }
      ],
      "name": "reclaimERC20",
      "outputs": [],
      "payable": false,
      "stateMutability": "nonpayable",
      "type": "function"
    },
    {
      "constant": true,
      "inputs": [],
      "name": "owner",
      "outputs": [
        {
          "name": "",
          "type": "address"
        }
      ],
      "payable": false,
      "stateMutability": "view",
      "type": "function"
    },
    {
      "constant": true,
      "inputs": [],
      "name": "isOwner",
      "outputs": [
        {
          "name": "",
          "type": "bool"
        }
      ],
      "payable": false,
      "stateMutability": "view",
      "type": "function"
    },
    {
      "constant": false,
      "inputs": [
        {
          "name": "newOwner",
          "type": "address"
        }
      ],
      "name": "transferOwnership",
      "outputs": [],
      "payable": false,
      "stateMutability": "nonpayable",
      "type": "function"
    },
    {
      "anonymous": false,
      "inputs": [
        {
          "indexed": false,
          "name": "_nameKey",
          "type": "string"
        },
        {
          "indexed": true,
          "name": "_oldAddress",
          "type": "address"
        },
        {
          "indexed": true,
          "name": "_newAddress",
          "type": "address"
        }
      ],
      "name": "ChangeAddress",
      "type": "event"
    },
    {
      "anonymous": false,
      "inputs": [
        {
          "indexed": true,
          "name": "previousOwner",
          "type": "address"
        },
        {
          "indexed": true,
          "name": "newOwner",
          "type": "address"
        }
      ],
      "name": "OwnershipTransferred",
      "type": "event"
    },
    {
      "constant": true,
      "inputs": [
        {
          "name": "_nameKey",
          "type": "string"
        }
      ],
      "name": "getAddress",
      "outputs": [
        {
          "name": "",
          "type": "address"
        }
      ],
      "payable": false,
      "stateMutability": "view",
      "type": "function"
    },
    {
      "constant": false,
      "inputs": [
        {
          "name": "_nameKey",
          "type": "string"
        },
        {
          "name": "_newAddress",
          "type": "address"
        }
      ],
      "name": "changeAddress",
      "outputs": [],
      "payable": false,
      "stateMutability": "nonpayable",
      "type": "function"
    }
  ],
  "bytecode": "0x60806040819052600080546001600160a01b03191633178082556001600160a01b0316917f8be0079c531659141344cd1fd0a4f28419497f9722a3daafe3b4186f6b6457e0908290a36106cc806100576000396000f3fe608060405234801561001057600080fd5b50600436106100885760003560e01c80638f32d59b1161005b5780638f32d59b146100fe578063a7dbb4021461011a578063bf40fac114610193578063f2fde38b1461020357610088565b80636c47e36f1461008d578063715018a6146100c65780638905fd4f146100d05780638da5cb5b146100f6575b600080fd5b6100aa600480360360208110156100a357600080fd5b5035610229565b604080516001600160a01b039092168252519081900360200190f35b6100ce610244565b005b6100ce600480360360208110156100e657600080fd5b50356001600160a01b031661029f565b6100aa610476565b610106610485565b604080519115158252519081900360200190f35b6100ce6004803603604081101561013057600080fd5b81019060208101813564010000000081111561014b57600080fd5b82018360208201111561015d57600080fd5b8035906020019184600183028401116401000000008311171561017f57600080fd5b9193509150356001600160a01b0316610496565b6100aa600480360360208110156101a957600080fd5b8101906020810181356401000000008111156101c457600080fd5b8201836020820111156101d657600080fd5b803590602001918460018302840111640100000000831117156101f857600080fd5b509092509050610572565b6100ce6004803603602081101561021957600080fd5b50356001600160a01b0316610615565b6001602052600090815260409020546001600160a01b031681565b61024c610485565b61025557600080fd5b600080546040516001600160a01b03909116907f8be0079c531659141344cd1fd0a4f28419497f9722a3daafe3b4186f6b6457e0908390a3600080546001600160a01b0319169055565b6102a7610485565b6102b057600080fd5b6001600160a01b03811661030e5760408051600160e51b62461bcd02815260206004820152600f60248201527f496e76616c696420616464726573730000000000000000000000000000000000604482015290519081900360640190fd5b60408051600160e01b6370a08231028152306004820152905182916000916001600160a01b038416916370a08231916024808301926020929190829003018186803b15801561035c57600080fd5b505afa158015610370573d6000803e3d6000fd5b505050506040513d602081101561038657600080fd5b505190506001600160a01b03821663a9059cbb6103a1610476565b836040518363ffffffff1660e01b815260040180836001600160a01b03166001600160a01b0316815260200182815260200192505050602060405180830381600087803b1580156103f157600080fd5b505af1158015610405573d6000803e3d6000fd5b505050506040513d602081101561041b57600080fd5b50516104715760408051600160e51b62461bcd02815260206004820152600f60248201527f5472616e73666572206661696c65640000000000000000000000000000000000604482015290519081900360640190fd5b505050565b6000546001600160a01b031690565b6000546001600160a01b0316331490565b61049e610485565b6104a757600080fd5b60008383604051808383808284376040805191909301819003812060008181526001602090815290859020548184529083018b90529097506001600160a01b0389811697501694507f685cb9667751e0a0d68e0ab5e737963ad9d2c743b0191f9aedfe037e723db0ad9350899289925081908101848480828437600083820152604051601f909101601f19169092018290039550909350505050a3600090815260016020526040902080546001600160a01b0319166001600160a01b03929092169190911790555050565b60008083836040518083838082843760408051919093018190039020600081815260016020529290922054919550506001600160a01b0316151592506105f69150505760408051600160e51b62461bcd02815260206004820152600b6024820152600160a81b6a496e76616c6964206b657902604482015290519081900360640190fd5b6000908152600160205260409020546001600160a01b03169392505050565b61061d610485565b61062657600080fd5b61062f81610632565b50565b6001600160a01b03811661064557600080fd5b600080546040516001600160a01b03808516939216917f8be0079c531659141344cd1fd0a4f28419497f9722a3daafe3b4186f6b6457e091a3600080546001600160a01b0319166001600160a01b039290921691909117905556fea165627a7a72305820cf69bfac88b3ca15d01328047aec6767c2b8b76d47f0734f15bfe0f0d9f1841d0029",
  "source": "pragma solidity 0.5.8;\r\n\r\nimport \"./ReclaimTokens.sol\";\r\nimport \"./interfaces/IPolymathRegistry.sol\";\r\n\r\n/**\r\n * @title Core functionality for registry upgradability\r\n */\r\ncontract PolymathRegistry is ReclaimTokens, IPolymathRegistry {\r\n    mapping(bytes32 => address) public storedAddresses;\r\n\r\n    /**\r\n     * @notice Gets the contract address\r\n     * @param _nameKey is the key for the contract address mapping\r\n     * @return address\r\n     */\r\n    function getAddress(string calldata _nameKey) external view returns(address) {\r\n        bytes32 key = keccak256(bytes(_nameKey));\r\n        require(storedAddresses[key] != address(0), \"Invalid key\");\r\n        return storedAddresses[key];\r\n    }\r\n\r\n    /**\r\n     * @notice Changes the contract address\r\n     * @param _nameKey is the key for the contract address mapping\r\n     * @param _newAddress is the new contract address\r\n     */\r\n    function changeAddress(string calldata _nameKey, address _newAddress) external onlyOwner {\r\n        bytes32 key = keccak256(bytes(_nameKey));\r\n        emit ChangeAddress(_nameKey, storedAddresses[key], _newAddress);\r\n        storedAddresses[key] = _newAddress;\r\n    }\r\n\r\n}\r\n",
  "sourcePath": "C:/mspace/polymath-core/contracts/PolymathRegistry.sol",
  "compiler": {
    "name": "solc",
    "version": "0.5.8+commit.23d335f2.Emscripten.clang"
  },
  "schemaVersion": "3.0.11",
  "updatedAt": "2019-08-05T22:53:44.408Z",
  "devdoc": {
    "methods": {
      "changeAddress(string,address)": {
        "params": {
          "_nameKey": "is the key for the contract address mapping\r",
          "_newAddress": "is the new contract address\r"
        }
      },
      "getAddress(string)": {
        "params": {
          "_nameKey": "is the key for the contract address mapping\r"
        },
        "return": "address\r"
      },
      "isOwner()": {
        "return": "true if `msg.sender` is the owner of the contract."
      },
      "owner()": {
        "return": "the address of the owner."
      },
      "reclaimERC20(address)": {
        "params": {
          "_tokenContract": "The address of the token contract\r"
        }
      },
      "renounceOwnership()": {
        "details": "Allows the current owner to relinquish control of the contract. It will not be possible to call the functions with the `onlyOwner` modifier anymore."
      },
      "transferOwnership(address)": {
        "details": "Allows the current owner to transfer control of the contract to a newOwner.",
        "params": {
          "newOwner": "The address to transfer ownership to."
        }
      }
    },
    "title": "Core functionality for registry upgradability\r"
  },
  "userdoc": {
    "methods": {
      "changeAddress(string,address)": {
        "notice": "Changes the contract address\r"
      },
      "getAddress(string)": {
        "notice": "Gets the contract address\r"
      },
      "reclaimERC20(address)": {
        "notice": "Reclaim all ERC20Basic compatible tokens\r"
      },
      "renounceOwnership()": {
        "notice": "Renouncing ownership will leave the contract without an owner, thereby removing any functionality that is only available to the owner."
      }
    }
  }
}