{
  "contractName": "PreSaleSTOStorage",
  "abi": [
    {
      "constant": true,
      "inputs": [
        {
          "name": "",
          "type": "address"
        }
      ],
      "name": "investors",
      "outputs": [
        {
          "name": "",
          "type": "uint256"
        }
      ],
      "payable": false,
      "stateMutability": "view",
      "type": "function"
    }
  ],
  "bytecode": "0x6080604052348015600f57600080fd5b5060a08061001e6000396000f3fe6080604052348015600f57600080fd5b506004361060285760003560e01c80636f7bc9be14602d575b600080fd5b605060048036036020811015604157600080fd5b50356001600160a01b03166062565b60408051918252519081900360200190f35b6000602081905290815260409020548156fea165627a7a7230582012edb7a90ee36042f198a75e77ecb9c193bce3ade8b2a6bee984a7c4ebf7822f0029",
  "source": "pragma solidity 0.5.8;\r\n\r\n/**\r\n * @title Contract used to store layout for the PreSaleSTO storage\r\n */\r\ncontract PreSaleSTOStorage {\r\n\r\n    mapping (address => uint256) public investors;\r\n\r\n}\r\n",
  "sourcePath": "C:\\mspace\\polymath-core\\contracts\\modules\\STO\\PreSale\\PreSaleSTOStorage.sol",
  "compiler": {
    "name": "solc",
    "version": "0.5.8+commit.23d335f2.Emscripten.clang"
  },
  "schemaVersion": "3.0.11",
  "updatedAt": "2019-08-05T22:52:46.832Z",
  "devdoc": {
    "methods": {},
    "title": "Contract used to store layout for the PreSaleSTO storage\r"
  },
  "userdoc": {
    "methods": {}
  }
}