{
  "contractName": "PreSaleSTO",
  "abi": [
    {
      "constant": false,
      "inputs": [],
      "name": "reclaimETH",
      "outputs": [],
      "payable": false,
      "stateMutability": "nonpayable",
      "type": "function"
    },
    {
      "constant": true,
      "inputs": [],
      "name": "ADMIN",
      "outputs": [
        {
          "name": "",
          "type": "bytes32"
        }
      ],
      "payable": false,
      "stateMutability": "view",
      "type": "function"
    },
    {
      "constant": true,
      "inputs": [],
      "name": "endTime",
      "outputs": [
        {
          "name": "",
          "type": "uint256"
        }
      ],
      "payable": false,
      "stateMutability": "view",
      "type": "function"
    },
    {
      "constant": false,
      "inputs": [],
      "name": "unpause",
      "outputs": [],
      "payable": false,
      "stateMutability": "nonpayable",
      "type": "function"
    },
    {
      "constant": true,
      "inputs": [],
      "name": "wallet",
      "outputs": [
        {
          "name": "",
          "type": "address"
        }
      ],
      "payable": false,
      "stateMutability": "view",
      "type": "function"
    },
    {
      "constant": true,
      "inputs": [],
      "name": "paused",
      "outputs": [
        {
          "name": "",
          "type": "bool"
        }
      ],
      "payable": false,
      "stateMutability": "view",
      "type": "function"
    },
    {
      "constant": true,
      "inputs": [],
      "name": "totalTokensSold",
      "outputs": [
        {
          "name": "",
          "type": "uint256"
        }
      ],
      "payable": false,
      "stateMutability": "view",
      "type": "function"
    },
    {
      "constant": true,
      "inputs": [
        {
          "name": "",
          "type": "address"
        }
      ],
      "name": "investors",
      "outputs": [
        {
          "name": "",
          "type": "uint256"
        }
      ],
      "payable": false,
      "stateMutability": "view",
      "type": "function"
    },
    {
      "constant": true,
      "inputs": [],
      "name": "polyToken",
      "outputs": [
        {
          "name": "",
          "type": "address"
        }
      ],
      "payable": false,
      "stateMutability": "view",
      "type": "function"
    },
    {
      "constant": true,
      "inputs": [],
      "name": "startTime",
      "outputs": [
        {
          "name": "",
          "type": "uint256"
        }
      ],
      "payable": false,
      "stateMutability": "view",
      "type": "function"
    },
    {
      "constant": false,
      "inputs": [],
      "name": "pause",
      "outputs": [],
      "payable": false,
      "stateMutability": "nonpayable",
      "type": "function"
    },
    {
      "constant": false,
      "inputs": [
        {
          "name": "_tokenContract",
          "type": "address"
        }
      ],
      "name": "reclaimERC20",
      "outputs": [],
      "payable": false,
      "stateMutability": "nonpayable",
      "type": "function"
    },
    {
      "constant": true,
      "inputs": [],
      "name": "OPERATOR",
      "outputs": [
        {
          "name": "",
          "type": "bytes32"
        }
      ],
      "payable": false,
      "stateMutability": "view",
      "type": "function"
    },
    {
      "constant": true,
      "inputs": [
        {
          "name": "_fundRaiseType",
          "type": "uint8"
        }
      ],
      "name": "getRaised",
      "outputs": [
        {
          "name": "",
          "type": "uint256"
        }
      ],
      "payable": false,
      "stateMutability": "view",
      "type": "function"
    },
    {
      "constant": true,
      "inputs": [],
      "name": "pausedTime",
      "outputs": [
        {
          "name": "",
          "type": "uint256"
        }
      ],
      "payable": false,
      "stateMutability": "view",
      "type": "function"
    },
    {
      "constant": true,
      "inputs": [],
      "name": "securityToken",
      "outputs": [
        {
          "name": "",
          "type": "address"
        }
      ],
      "payable": false,
      "stateMutability": "view",
      "type": "function"
    },
    {
      "constant": true,
      "inputs": [],
      "name": "factory",
      "outputs": [
        {
          "name": "",
          "type": "address"
        }
      ],
      "payable": false,
      "stateMutability": "view",
      "type": "function"
    },
    {
      "constant": true,
      "inputs": [
        {
          "name": "",
          "type": "uint8"
        }
      ],
      "name": "fundsRaised",
      "outputs": [
        {
          "name": "",
          "type": "uint256"
        }
      ],
      "payable": false,
      "stateMutability": "view",
      "type": "function"
    },
    {
      "constant": true,
      "inputs": [
        {
          "name": "",
          "type": "uint8"
        }
      ],
      "name": "fundRaiseTypes",
      "outputs": [
        {
          "name": "",
          "type": "bool"
        }
      ],
      "payable": false,
      "stateMutability": "view",
      "type": "function"
    },
    {
      "constant": true,
      "inputs": [],
      "name": "investorCount",
      "outputs": [
        {
          "name": "",
          "type": "uint256"
        }
      ],
      "payable": false,
      "stateMutability": "view",
      "type": "function"
    },
    {
      "constant": true,
      "inputs": [],
      "name": "getDataStore",
      "outputs": [
        {
          "name": "",
          "type": "address"
        }
      ],
      "payable": false,
      "stateMutability": "view",
      "type": "function"
    },
    {
      "inputs": [
        {
          "name": "_securityToken",
          "type": "address"
        },
        {
          "name": "_polyToken",
          "type": "address"
        }
      ],
      "payable": false,
      "stateMutability": "nonpayable",
      "type": "constructor"
    },
    {
      "anonymous": false,
      "inputs": [
        {
          "indexed": false,
          "name": "_investor",
          "type": "address"
        },
        {
          "indexed": false,
          "name": "_amount",
          "type": "uint256"
        }
      ],
      "name": "TokensAllocated",
      "type": "event"
    },
    {
      "anonymous": false,
      "inputs": [
        {
          "indexed": false,
          "name": "account",
          "type": "address"
        }
      ],
      "name": "Pause",
      "type": "event"
    },
    {
      "anonymous": false,
      "inputs": [
        {
          "indexed": false,
          "name": "account",
          "type": "address"
        }
      ],
      "name": "Unpause",
      "type": "event"
    },
    {
      "anonymous": false,
      "inputs": [
        {
          "indexed": false,
          "name": "_fundRaiseTypes",
          "type": "uint8[]"
        }
      ],
      "name": "SetFundRaiseTypes",
      "type": "event"
    },
    {
      "constant": false,
      "inputs": [
        {
          "name": "_endTime",
          "type": "uint256"
        }
      ],
      "name": "configure",
      "outputs": [],
      "payable": false,
      "stateMutability": "nonpayable",
      "type": "function"
    },
    {
      "constant": true,
      "inputs": [],
      "name": "getInitFunction",
      "outputs": [
        {
          "name": "",
          "type": "bytes4"
        }
      ],
      "payable": false,
      "stateMutability": "pure",
      "type": "function"
    },
    {
      "constant": true,
      "inputs": [],
      "name": "getNumberInvestors",
      "outputs": [
        {
          "name": "",
          "type": "uint256"
        }
      ],
      "payable": false,
      "stateMutability": "view",
      "type": "function"
    },
    {
      "constant": true,
      "inputs": [],
      "name": "getTokensSold",
      "outputs": [
        {
          "name": "",
          "type": "uint256"
        }
      ],
      "payable": false,
      "stateMutability": "view",
      "type": "function"
    },
    {
      "constant": true,
      "inputs": [],
      "name": "getPermissions",
      "outputs": [
        {
          "name": "",
          "type": "bytes32[]"
        }
      ],
      "payable": false,
      "stateMutability": "view",
      "type": "function"
    },
    {
      "constant": false,
      "inputs": [
        {
          "name": "_investor",
          "type": "address"
        },
        {
          "name": "_amount",
          "type": "uint256"
        },
        {
          "name": "_etherContributed",
          "type": "uint256"
        },
        {
          "name": "_polyContributed",
          "type": "uint256"
        }
      ],
      "name": "allocateTokens",
      "outputs": [],
      "payable": false,
      "stateMutability": "nonpayable",
      "type": "function"
    },
    {
      "constant": false,
      "inputs": [
        {
          "name": "_investors",
          "type": "address[]"
        },
        {
          "name": "_amounts",
          "type": "uint256[]"
        },
        {
          "name": "_etherContributed",
          "type": "uint256[]"
        },
        {
          "name": "_polyContributed",
          "type": "uint256[]"
        }
      ],
      "name": "allocateTokensMulti",
      "outputs": [],
      "payable": false,
      "stateMutability": "nonpayable",
      "type": "function"
    }
  ],
  "bytecode": "0x6080604052600b8054600160a01b60ff021916905534801561002057600080fd5b5060405160408061159c8339810180604052604081101561004057600080fd5b508051602090910151600a80546001600160a01b039384166001600160a01b03199182161790915560098054821633179055600b805493909216921691909117905561150b806100916000396000f3fe608060405234801561001057600080fd5b50600436106101c45760003560e01c80638456cb59116100f9578063c3a07df611610097578063d143a37911610071578063d143a3791461060a578063d7e64c001461062a578063ee7c0db014610632578063fe58265e1461063a576101c4565b8063c3a07df61461058a578063c45a0155146105e2578063c4d2c6bd146105ea576101c4565b80639a7cc135116100d35780639a7cc135146105225780639a903ca714610542578063b2cca39d1461057a578063b84dfbd214610582576101c4565b80638456cb59146104ec5780638905fd4f146104f4578063983d27371461051a576101c4565b80633f4ba83a1161016657806363b201171161014057806363b20117146104ae5780636f7bc9be146104b65780636faa22a5146104dc57806378e97925146104e4576101c4565b80633f4ba83a14610466578063521eb2731461046e5780635c975abb14610492576101c4565b80631eb25e0a116101a25780631eb25e0a1461041f5780632a0acc6a1461043c5780633197cbb61461045657806338c59de91461045e576101c4565b80630f144a48146101c95780631613ec9d146101d35780631903fe4f146101f8575b600080fd5b6101d1610642565b005b6101db61067a565b604080516001600160e01b03199092168252519081900360200190f35b6101d16004803603608081101561020e57600080fd5b810190602081018135600160201b81111561022857600080fd5b82018360208201111561023a57600080fd5b803590602001918460208302840111600160201b8311171561025b57600080fd5b9190808060200260200160405190810160405280939291908181526020018383602002808284376000920191909152509295949360208101935035915050600160201b8111156102aa57600080fd5b8201836020820111156102bc57600080fd5b803590602001918460208302840111600160201b831117156102dd57600080fd5b9190808060200260200160405190810160405280939291908181526020018383602002808284376000920191909152509295949360208101935035915050600160201b81111561032c57600080fd5b82018360208201111561033e57600080fd5b803590602001918460208302840111600160201b8311171561035f57600080fd5b9190808060200260200160405190810160405280939291908181526020018383602002808284376000920191909152509295949360208101935035915050600160201b8111156103ae57600080fd5b8201836020820111156103c057600080fd5b803590602001918460208302840111600160201b831117156103e157600080fd5b919080806020026020016040519081016040528093929190818152602001838360200280828437600092019190915250929550610688945050505050565b6101d16004803603602081101561043557600080fd5b5035610827565b6104446108e3565b60408051918252519081900360200190f35b6104446108f2565b6104446108f8565b6101d16108fe565b610476610910565b604080516001600160a01b039092168252519081900360200190f35b61049a61091f565b604080519115158252519081900360200190f35b61044461092f565b610444600480360360208110156104cc57600080fd5b50356001600160a01b0316610935565b610476610947565b610444610956565b6101d161095c565b6101d16004803603602081101561050a57600080fd5b50356001600160a01b03166109bd565b610444610b78565b6104446004803603602081101561053857600080fd5b503560ff16610b8a565b6101d16004803603608081101561055857600080fd5b506001600160a01b038135169060208101359060408101359060600135610bb6565b610444610ef7565b610476610efd565b610592610f0c565b60408051602080825283518183015283519192839290830191858101910280838360005b838110156105ce5781810151838201526020016105b6565b505050509050019250505060405180910390f35b610476610f5a565b6104446004803603602081101561060057600080fd5b503560ff16610f69565b61049a6004803603602081101561062057600080fd5b503560ff16610f7b565b610444610f90565b610444610f96565b610476610f9c565b61064a611015565b6040513390303180156108fc02916000818181858888f19350505050158015610677573d6000803e3d6000fd5b50565b600160e11b630f592f050290565b600160d91b6420a226a4a70261069e81336110ee565b6106ea5760408051600160e51b62461bcd0281526020600482015260126024820152600160711b7124b73b30b634b2103832b936b4b9b9b4b7b702604482015290519081900360640190fd5b835185511461072d57604051600160e51b62461bcd02815260040180806020018281038252602181526020018061148e6021913960400191505060405180910390fd5b815183511461077057604051600160e51b62461bcd02815260040180806020018281038252602181526020018061148e6021913960400191505060405180910390fd5b84518351146107b357604051600160e51b62461bcd02815260040180806020018281038252602181526020018061148e6021913960400191505060405180910390fd5b60005b855181101561081f576108178682815181106107ce57fe5b60200260200101518683815181106107e257fe5b60200260200101518684815181106107f657fe5b602002602001015186858151811061080a57fe5b6020026020010151610bb6565b6001016107b6565b505050505050565b6009546001600160a01b031633146108895760408051600160e51b62461bcd02815260206004820152601560248201527f53656e646572206973206e6f7420666163746f72790000000000000000000000604482015290519081900360640190fd5b806108de5760408051600160e51b62461bcd02815260206004820152601760248201527f656e6454696d652073686f756c64206e6f742062652030000000000000000000604482015290519081900360640190fd5b600455565b600160d91b6420a226a4a70281565b60045481565b60065490565b610906611015565b61090e611224565b565b6007546001600160a01b031681565b600b54600160a01b900460ff1681565b60085481565b60006020819052908152604090205481565b600b546001600160a01b031681565b60035481565b60045442106109b55760408051600160e51b62461bcd02815260206004820152601660248201527f53544f20686173206265656e2066696e616c697a656400000000000000000000604482015290519081900360640190fd5b61090e6112ca565b6109c5611015565b6001600160a01b038116610a235760408051600160e51b62461bcd02815260206004820152600f60248201527f496e76616c696420616464726573730000000000000000000000000000000000604482015290519081900360640190fd5b60408051600160e01b6370a08231028152306004820152905182916000916001600160a01b038416916370a08231916024808301926020929190829003018186803b158015610a7157600080fd5b505afa158015610a85573d6000803e3d6000fd5b505050506040513d6020811015610a9b57600080fd5b505160408051600160e01b63a9059cbb0281523360048201526024810183905290519192506001600160a01b0384169163a9059cbb916044808201926020929091908290030181600087803b158015610af357600080fd5b505af1158015610b07573d6000803e3d6000fd5b505050506040513d6020811015610b1d57600080fd5b5051610b735760408051600160e51b62461bcd02815260206004820152600f60248201527f5472616e73666572206661696c65640000000000000000000000000000000000604482015290519081900360640190fd5b505050565b600160c11b6727a822a920aa27a90281565b600060026000836002811115610b9c57fe5b60ff16815260208101919091526040016000205492915050565b600160d91b6420a226a4a702610bcc81336110ee565b610c185760408051600160e51b62461bcd0281526020600482015260126024820152600160711b7124b73b30b634b2103832b936b4b9b9b4b7b702604482015290519081900360640190fd5b600454421115610c725760408051600160e51b62461bcd02815260206004820152601660248201527f416c72656164792070617373656420456e6474696d6500000000000000000000604482015290519081900360640190fd5b60008411610cb457604051600160e51b62461bcd0281526004018080602001828103825260318152602001806114af6031913960400191505060405180910390fd5b610cbd856112da565b610d115760408051600160e51b62461bcd02815260206004820152600c60248201527f556e617574686f72697a65640000000000000000000000000000000000000000604482015290519081900360640190fd5b600a5460408051600160e01b63bb3acde90281526001600160a01b0388811660048301526024820188905260606044830152600060648301819052925193169263bb3acde99260a48084019391929182900301818387803b158015610d7557600080fd5b505af1158015610d89573d6000803e3d6000fd5b505050506001600160a01b038516600090815260208190526040902054610dc257600654610dbe90600163ffffffff61138e16565b6006555b6001600160a01b038516600090815260208190526040902054610deb908563ffffffff61138e16565b6001600160a01b038616600090815260208190526040812091909155610e32908490600290805b60ff1681526020810191909152604001600020549063ffffffff61138e16565b6000808052600260208190527fac33ff75c19e70fe83507db0d683fd3465c996598dc972688b7ace676c89077b92909255610e709184916001610e12565b600160005260026020527fe90b7bceb6e7df5418fb78d8ee546e97c83a08bbccc01a0644d599ccd2a7c2e055600854610ea9908561138e565b600855604080516001600160a01b03871681526020810186905281517f3b87361b8a201c697d51aaa7a509f6dfb3870db9e5c5501d22d3e9fae858f725929181900390910190a15050505050565b60055481565b600a546001600160a01b031681565b60408051600180825281830190925260609182919060208083019080388339019050509050600160d91b6420a226a4a70281600081518110610f4a57fe5b6020908102919091010152905090565b6009546001600160a01b031681565b60026020526000908152604090205481565b60016020526000908152604090205460ff1681565b60065481565b60085490565b600a5460408051600160e01b63660d0d6702815290516000926001600160a01b03169163660d0d67916004808301926020929190829003018186803b158015610fe457600080fd5b505afa158015610ff8573d6000803e3d6000fd5b505050506040513d602081101561100e57600080fd5b5051905090565b600a60009054906101000a90046001600160a01b03166001600160a01b0316638da5cb5b6040518163ffffffff1660e01b815260040160206040518083038186803b15801561106357600080fd5b505afa158015611077573d6000803e3d6000fd5b505050506040513d602081101561108d57600080fd5b50516001600160a01b0316331461090e5760408051600160e51b62461bcd02815260206004820152601360248201527f53656e646572206973206e6f74206f776e657200000000000000000000000000604482015290519081900360640190fd5b600080600a60009054906101000a90046001600160a01b03166001600160a01b0316638da5cb5b6040518163ffffffff1660e01b815260040160206040518083038186803b15801561113f57600080fd5b505afa158015611153573d6000803e3d6000fd5b505050506040513d602081101561116957600080fd5b50516009546001600160a01b03858116928116831493501614818061118b5750805b8061121b5750600a5460408051600160e01b638658b8b90281526001600160a01b0387811660048301523060248301526044820189905291519190921691638658b8b9916064808301926020929190829003018186803b1580156111ee57600080fd5b505afa158015611202573d6000803e3d6000fd5b505050506040513d602081101561121857600080fd5b50515b95945050505050565b600b54600160a01b900460ff166112855760408051600160e51b62461bcd02815260206004820152601660248201527f436f6e7472616374206973206e6f742070617573656400000000000000000000604482015290519081900360640190fd5b600b8054600160a01b60ff02191690556040805133815290517faeb196d352664784d1900b0e7414a8face7d29f4dae8c4b0cf68ed477423bbf49181900360200190a1565b6112d2611015565b61090e6113a7565b6000806112e5610f9c565b90506000816001600160a01b03166333598b006113227f494e564553544f52464c4147530000000000000000000000000000000000000087611454565b6040518263ffffffff1660e01b81526004018082815260200191505060206040518083038186803b15801561135657600080fd5b505afa15801561136a573d6000803e3d6000fd5b505050506040513d602081101561138057600080fd5b505160021615949350505050565b6000828201838110156113a057600080fd5b9392505050565b600b54600160a01b900460ff16156114095760408051600160e51b62461bcd02815260206004820152601260248201527f436f6e7472616374206973207061757365640000000000000000000000000000604482015290519081900360640190fd5b600b8054600160a01b60ff021916600160a01b1790556040805133815290517f5ee71a369c8672edded508e624ffc9257fa1ae6886ef32905c18e60196bca3999181900360200190a1565b604080516020808201949094526001600160a01b039290921660601b82820152805180830360340181526054909201905280519101209056fe4d69732d6d6174636820696e206c656e677468206f6620746865206172726179734e6f2e206f6620746f6b656e732070726f76696465642073686f756c64206265206772656174657220746865207a65726fa165627a7a7230582066eee128abc848692f4b4948079fd4b02409fac05cb4979668cfd7585515a4c20029",
  "source": "pragma solidity 0.5.8;\r\n\r\nimport \"../STO.sol\";\r\nimport \"openzeppelin-solidity/contracts/math/SafeMath.sol\";\r\nimport \"./PreSaleSTOStorage.sol\";\r\n\r\n/**\r\n * @title STO module for private presales\r\n */\r\ncontract PreSaleSTO is PreSaleSTOStorage, STO {\r\n    using SafeMath for uint256;\r\n\r\n    event TokensAllocated(address _investor, uint256 _amount);\r\n\r\n    /**\r\n     * @notice Constructor\r\n     * @param _securityToken Address of the security token\r\n     */\r\n    constructor(address _securityToken, address _polyToken) public Module(_securityToken, _polyToken) {\r\n\r\n    }\r\n\r\n    /**\r\n     * @notice Function used to initialize the different variables\r\n     * @param _endTime Unix timestamp at which offering ends\r\n     */\r\n    function configure(uint256 _endTime) public onlyFactory {\r\n        require(_endTime != 0, \"endTime should not be 0\");\r\n        endTime = _endTime;\r\n    }\r\n\r\n    /**\r\n     * @notice This function returns the signature of the configure function\r\n     */\r\n    function getInitFunction() public pure returns(bytes4) {\r\n        return this.configure.selector;\r\n    }\r\n\r\n    /**\r\n     * @notice Returns the total no. of investors\r\n     */\r\n    function getNumberInvestors() public view returns(uint256) {\r\n        return investorCount;\r\n    }\r\n\r\n    /**\r\n     * @notice Returns the total no. of tokens sold\r\n     */\r\n    function getTokensSold() external view returns(uint256) {\r\n        return totalTokensSold;\r\n    }\r\n\r\n    /**\r\n     * @notice Returns the permissions flag that are associated with STO\r\n     */\r\n    function getPermissions() public view returns(bytes32[] memory) {\r\n        bytes32[] memory allPermissions = new bytes32[](1);\r\n        allPermissions[0] = ADMIN;\r\n        return allPermissions;\r\n    }\r\n\r\n    /**\r\n     * @notice Function used to allocate tokens to the investor\r\n     * @param _investor Address of the investor\r\n     * @param _amount No. of tokens to be transferred to the investor\r\n     * @param _etherContributed How much ETH was contributed\r\n     * @param _polyContributed How much POLY was contributed\r\n     */\r\n    function allocateTokens(\r\n        address _investor,\r\n        uint256 _amount,\r\n        uint256 _etherContributed,\r\n        uint256 _polyContributed\r\n    )\r\n        public\r\n        withPerm(ADMIN)\r\n    {\r\n        /*solium-disable-next-line security/no-block-members*/\r\n        require(now <= endTime, \"Already passed Endtime\");\r\n        require(_amount > 0, \"No. of tokens provided should be greater the zero\");\r\n        require(_canBuy(_investor), \"Unauthorized\");\r\n        securityToken.issue(_investor, _amount, \"\");\r\n        if (investors[_investor] == uint256(0)) {\r\n            investorCount = investorCount.add(1);\r\n        }\r\n        investors[_investor] = investors[_investor].add(_amount);\r\n        fundsRaised[uint8(FundRaiseType.ETH)] = fundsRaised[uint8(FundRaiseType.ETH)].add(_etherContributed);\r\n        fundsRaised[uint8(FundRaiseType.POLY)] = fundsRaised[uint8(FundRaiseType.POLY)].add(_polyContributed);\r\n        totalTokensSold = totalTokensSold.add(_amount);\r\n        emit TokensAllocated(_investor, _amount);\r\n    }\r\n\r\n    /**\r\n     * @notice Function used to allocate tokens to multiple investors\r\n     * @param _investors Array of address of the investors\r\n     * @param _amounts Array of no. of tokens to be transferred to the investors\r\n     * @param _etherContributed Array of amount of ETH contributed by each investor\r\n     * @param _polyContributed Array of amount of POLY contributed by each investor\r\n     */\r\n    function allocateTokensMulti(\r\n        address[] memory _investors,\r\n        uint256[] memory _amounts,\r\n        uint256[] memory _etherContributed,\r\n        uint256[] memory _polyContributed\r\n    )\r\n        public\r\n        withPerm(ADMIN)\r\n    {\r\n        require(_investors.length == _amounts.length, \"Mis-match in length of the arrays\");\r\n        require(_etherContributed.length == _polyContributed.length, \"Mis-match in length of the arrays\");\r\n        require(_etherContributed.length == _investors.length, \"Mis-match in length of the arrays\");\r\n        for (uint256 i = 0; i < _investors.length; i++) {\r\n            allocateTokens(_investors[i], _amounts[i], _etherContributed[i], _polyContributed[i]);\r\n        }\r\n    }\r\n}\r\n",
  "sourcePath": "C:/mspace/polymath-core/contracts/modules/STO/PreSale/PreSaleSTO.sol",
  "compiler": {
    "name": "solc",
    "version": "0.5.8+commit.23d335f2.Emscripten.clang"
  },
  "schemaVersion": "3.0.11",
  "updatedAt": "2019-08-05T12:37:19.335Z",
  "devdoc": {
    "methods": {
      "allocateTokens(address,uint256,uint256,uint256)": {
        "params": {
          "_amount": "No. of tokens to be transferred to the investor\r",
          "_etherContributed": "How much ETH was contributed\r",
          "_investor": "Address of the investor\r",
          "_polyContributed": "How much POLY was contributed\r"
        }
      },
      "allocateTokensMulti(address[],uint256[],uint256[],uint256[])": {
        "params": {
          "_amounts": "Array of no. of tokens to be transferred to the investors\r",
          "_etherContributed": "Array of amount of ETH contributed by each investor\r",
          "_investors": "Array of address of the investors\r",
          "_polyContributed": "Array of amount of POLY contributed by each investor\r"
        }
      },
      "configure(uint256)": {
        "params": {
          "_endTime": "Unix timestamp at which offering ends\r"
        }
      },
      "constructor": {
        "params": {
          "_securityToken": "Address of the security token\r"
        }
      },
      "pause()": {
        "details": "Only securityToken owner restriction applied on the super function\r"
      },
      "reclaimERC20(address)": {
        "details": "We duplicate here due to the overriden owner & onlyOwner\r",
        "params": {
          "_tokenContract": "The address of the token contract\r"
        }
      },
      "reclaimETH()": {
        "details": "We duplicate here due to the overriden owner & onlyOwner\r"
      }
    },
    "title": "STO module for private presales\r"
  },
  "userdoc": {
    "methods": {
      "allocateTokens(address,uint256,uint256,uint256)": {
        "notice": "Function used to allocate tokens to the investor\r"
      },
      "allocateTokensMulti(address[],uint256[],uint256[],uint256[])": {
        "notice": "Function used to allocate tokens to multiple investors\r"
      },
      "configure(uint256)": {
        "notice": "Function used to initialize the different variables\r"
      },
      "constructor": "Constructor\r",
      "getDataStore()": {
        "notice": "used to return the data store address of securityToken\r"
      },
      "getInitFunction()": {
        "notice": "This function returns the signature of the configure function\r"
      },
      "getNumberInvestors()": {
        "notice": "Returns the total no. of investors\r"
      },
      "getPermissions()": {
        "notice": "Returns the permissions flag that are associated with STO\r"
      },
      "getRaised(uint8)": {
        "notice": "Returns funds raised by the STO\r"
      },
      "getTokensSold()": {
        "notice": "Returns the total no. of tokens sold\r"
      },
      "pause()": {
        "notice": "Pause (overridden function)\r"
      },
      "reclaimERC20(address)": {
        "notice": "Reclaims ERC20Basic compatible tokens\r"
      },
      "reclaimETH()": {
        "notice": "Reclaims ETH\r"
      },
      "unpause()": {
        "notice": "Unpause (overridden function)\r"
      }
    }
  }
}