{
  "contractName": "ScheduledCheckpoint",
  "abi": [
    {
      "constant": false,
      "inputs": [],
      "name": "reclaimETH",
      "outputs": [],
      "payable": false,
      "stateMutability": "nonpayable",
      "type": "function"
    },
    {
      "constant": true,
      "inputs": [
        {
          "name": "_partition",
          "type": "bytes32"
        },
        {
          "name": "_tokenHolder",
          "type": "address"
        },
        {
          "name": "",
          "type": "uint256"
        }
      ],
      "name": "getTokensByPartition",
      "outputs": [
        {
          "name": "",
          "type": "uint256"
        }
      ],
      "payable": false,
      "stateMutability": "view",
      "type": "function"
    },
    {
      "constant": true,
      "inputs": [],
      "name": "ADMIN",
      "outputs": [
        {
          "name": "",
          "type": "bytes32"
        }
      ],
      "payable": false,
      "stateMutability": "view",
      "type": "function"
    },
    {
      "constant": false,
      "inputs": [],
      "name": "unpause",
      "outputs": [],
      "payable": false,
      "stateMutability": "nonpayable",
      "type": "function"
    },
    {
      "constant": true,
      "inputs": [
        {
          "name": "",
          "type": "uint256"
        }
      ],
      "name": "names",
      "outputs": [
        {
          "name": "",
          "type": "bytes32"
        }
      ],
      "payable": false,
      "stateMutability": "view",
      "type": "function"
    },
    {
      "constant": true,
      "inputs": [],
      "name": "paused",
      "outputs": [
        {
          "name": "",
          "type": "bool"
        }
      ],
      "payable": false,
      "stateMutability": "view",
      "type": "function"
    },
    {
      "constant": true,
      "inputs": [],
      "name": "UNLOCKED",
      "outputs": [
        {
          "name": "",
          "type": "bytes32"
        }
      ],
      "payable": false,
      "stateMutability": "view",
      "type": "function"
    },
    {
      "constant": true,
      "inputs": [],
      "name": "polyToken",
      "outputs": [
        {
          "name": "",
          "type": "address"
        }
      ],
      "payable": false,
      "stateMutability": "view",
      "type": "function"
    },
    {
      "constant": false,
      "inputs": [],
      "name": "pause",
      "outputs": [],
      "payable": false,
      "stateMutability": "nonpayable",
      "type": "function"
    },
    {
      "constant": false,
      "inputs": [
        {
          "name": "_tokenContract",
          "type": "address"
        }
      ],
      "name": "reclaimERC20",
      "outputs": [],
      "payable": false,
      "stateMutability": "nonpayable",
      "type": "function"
    },
    {
      "constant": true,
      "inputs": [],
      "name": "OPERATOR",
      "outputs": [
        {
          "name": "",
          "type": "bytes32"
        }
      ],
      "payable": false,
      "stateMutability": "view",
      "type": "function"
    },
    {
      "constant": true,
      "inputs": [],
      "name": "LOCKED",
      "outputs": [
        {
          "name": "",
          "type": "bytes32"
        }
      ],
      "payable": false,
      "stateMutability": "view",
      "type": "function"
    },
    {
      "constant": true,
      "inputs": [],
      "name": "securityToken",
      "outputs": [
        {
          "name": "",
          "type": "address"
        }
      ],
      "payable": false,
      "stateMutability": "view",
      "type": "function"
    },
    {
      "constant": true,
      "inputs": [],
      "name": "factory",
      "outputs": [
        {
          "name": "",
          "type": "address"
        }
      ],
      "payable": false,
      "stateMutability": "view",
      "type": "function"
    },
    {
      "constant": true,
      "inputs": [
        {
          "name": "",
          "type": "bytes32"
        }
      ],
      "name": "schedules",
      "outputs": [
        {
          "name": "name",
          "type": "bytes32"
        },
        {
          "name": "startTime",
          "type": "uint256"
        },
        {
          "name": "nextTime",
          "type": "uint256"
        },
        {
          "name": "interval",
          "type": "uint256"
        },
        {
          "name": "timeUnit",
          "type": "uint8"
        },
        {
          "name": "index",
          "type": "uint256"
        },
        {
          "name": "totalPeriods",
          "type": "uint256"
        }
      ],
      "payable": false,
      "stateMutability": "view",
      "type": "function"
    },
    {
      "constant": true,
      "inputs": [],
      "name": "getDataStore",
      "outputs": [
        {
          "name": "",
          "type": "address"
        }
      ],
      "payable": false,
      "stateMutability": "view",
      "type": "function"
    },
    {
      "inputs": [
        {
          "name": "_securityToken",
          "type": "address"
        },
        {
          "name": "_polyToken",
          "type": "address"
        }
      ],
      "payable": false,
      "stateMutability": "nonpayable",
      "type": "constructor"
    },
    {
      "anonymous": false,
      "inputs": [
        {
          "indexed": false,
          "name": "_name",
          "type": "bytes32"
        },
        {
          "indexed": false,
          "name": "_startTime",
          "type": "uint256"
        },
        {
          "indexed": false,
          "name": "_interval",
          "type": "uint256"
        },
        {
          "indexed": false,
          "name": "_timeUint",
          "type": "uint8"
        }
      ],
      "name": "AddSchedule",
      "type": "event"
    },
    {
      "anonymous": false,
      "inputs": [
        {
          "indexed": false,
          "name": "_name",
          "type": "bytes32"
        }
      ],
      "name": "RemoveSchedule",
      "type": "event"
    },
    {
      "anonymous": false,
      "inputs": [
        {
          "indexed": false,
          "name": "account",
          "type": "address"
        }
      ],
      "name": "Pause",
      "type": "event"
    },
    {
      "anonymous": false,
      "inputs": [
        {
          "indexed": false,
          "name": "account",
          "type": "address"
        }
      ],
      "name": "Unpause",
      "type": "event"
    },
    {
      "constant": true,
      "inputs": [],
      "name": "getInitFunction",
      "outputs": [
        {
          "name": "",
          "type": "bytes4"
        }
      ],
      "payable": false,
      "stateMutability": "pure",
      "type": "function"
    },
    {
      "constant": false,
      "inputs": [
        {
          "name": "_name",
          "type": "bytes32"
        },
        {
          "name": "_startTime",
          "type": "uint256"
        },
        {
          "name": "_interval",
          "type": "uint256"
        },
        {
          "name": "_timeUnit",
          "type": "uint8"
        }
      ],
      "name": "addSchedule",
      "outputs": [],
      "payable": false,
      "stateMutability": "nonpayable",
      "type": "function"
    },
    {
      "constant": false,
      "inputs": [
        {
          "name": "_name",
          "type": "bytes32"
        }
      ],
      "name": "removeSchedule",
      "outputs": [],
      "payable": false,
      "stateMutability": "nonpayable",
      "type": "function"
    },
    {
      "constant": false,
      "inputs": [
        {
          "name": "",
          "type": "address"
        },
        {
          "name": "",
          "type": "address"
        },
        {
          "name": "",
          "type": "uint256"
        },
        {
          "name": "",
          "type": "bytes"
        }
      ],
      "name": "executeTransfer",
      "outputs": [
        {
          "name": "",
          "type": "uint8"
        }
      ],
      "payable": false,
      "stateMutability": "nonpayable",
      "type": "function"
    },
    {
      "constant": true,
      "inputs": [
        {
          "name": "",
          "type": "address"
        },
        {
          "name": "",
          "type": "address"
        },
        {
          "name": "",
          "type": "uint256"
        },
        {
          "name": "",
          "type": "bytes"
        }
      ],
      "name": "verifyTransfer",
      "outputs": [
        {
          "name": "",
          "type": "uint8"
        },
        {
          "name": "",
          "type": "bytes32"
        }
      ],
      "payable": false,
      "stateMutability": "view",
      "type": "function"
    },
    {
      "constant": true,
      "inputs": [
        {
          "name": "_name",
          "type": "bytes32"
        }
      ],
      "name": "getSchedule",
      "outputs": [
        {
          "name": "",
          "type": "bytes32"
        },
        {
          "name": "",
          "type": "uint256"
        },
        {
          "name": "",
          "type": "uint256"
        },
        {
          "name": "",
          "type": "uint256"
        },
        {
          "name": "",
          "type": "uint8"
        },
        {
          "name": "",
          "type": "uint256[]"
        },
        {
          "name": "",
          "type": "uint256[]"
        },
        {
          "name": "",
          "type": "uint256[]"
        },
        {
          "name": "",
          "type": "uint256"
        }
      ],
      "payable": false,
      "stateMutability": "view",
      "type": "function"
    },
    {
      "constant": false,
      "inputs": [
        {
          "name": "_name",
          "type": "bytes32"
        }
      ],
      "name": "update",
      "outputs": [],
      "payable": false,
      "stateMutability": "nonpayable",
      "type": "function"
    },
    {
      "constant": false,
      "inputs": [],
      "name": "updateAll",
      "outputs": [],
      "payable": false,
      "stateMutability": "nonpayable",
      "type": "function"
    },
    {
      "constant": true,
      "inputs": [],
      "name": "getPermissions",
      "outputs": [
        {
          "name": "",
          "type": "bytes32[]"
        }
      ],
      "payable": false,
      "stateMutability": "view",
      "type": "function"
    }
  ],
  "bytecode": "0x608060405260028054600160a01b60ff021916905534801561002057600080fd5b50604051604080611b6b8339810180604052604081101561004057600080fd5b508051602090910151600180546001600160a01b039384166001600160a01b0319918216179091556000805482163317905560028054939092169216919091179055611ada806100916000396000f3fe608060405234801561001057600080fd5b50600436106101735760003560e01c80636c2f0d53116100de578063a1422f6911610097578063c45a015511610071578063c45a015514610559578063d1e16bfa14610561578063f1d74b0f146105cc578063fe58265e146106bd57610173565b8063a1422f69146104f1578063b84dfbd2146104f9578063c3a07df61461050157610173565b80636c2f0d53146104725780636faa22a51461047a5780638456cb591461049e5780638905fd4f146104a65780638b147245146104cc578063983d2737146104e957610173565b80633d321731116101305780633d321731146103585780633f4ba83a1461040c5780634622ab031461041457806353d78693146104315780635c975abb1461043957806362e233cb1461045557610173565b80630f144a48146101785780631613ec9d146101825780632829e651146101a75780632a0acc6a146101eb578063321b0f2d146101f35780633adc277a14610225575b600080fd5b6101806106c5565b005b61018a6106fd565b604080516001600160e01b03199092168252519081900360200190f35b6101d9600480360360608110156101bd57600080fd5b508035906001600160a01b036020820135169060400135610703565b60408051918252519081900360200190f35b6101d96107a9565b6101806004803603608081101561020957600080fd5b508035906020810135906040810135906060013560ff166107b8565b6102426004803603602081101561023b57600080fd5b50356109be565b604051808a815260200189815260200188815260200187815260200186600481111561026a57fe5b60ff168152602001806020018060200180602001858152602001848103845288818151815260200191508051906020019060200280838360005b838110156102bc5781810151838201526020016102a4565b50505050905001848103835287818151815260200191508051906020019060200280838360005b838110156102fb5781810151838201526020016102e3565b50505050905001848103825286818151815260200191508051906020019060200280838360005b8381101561033a578181015183820152602001610322565b505050509050019c5050505050505050505050505060405180910390f35b6103e86004803603608081101561036e57600080fd5b6001600160a01b038235811692602081013590911691604082013591908101906080810160608201356401000000008111156103a957600080fd5b8201836020820111156103bb57600080fd5b803590602001918460018302840111640100000000831117156103dd57600080fd5b509092509050610b30565b604051808260038111156103f857fe5b60ff16815260200191505060405180910390f35b610180610bba565b6101d96004803603602081101561042a57600080fd5b5035610bcc565b610180610bea565b610441610bfa565b604080519115158252519081900360200190f35b6101806004803603602081101561046b57600080fd5b5035610c0a565b6101d9610df9565b610482610e0b565b604080516001600160a01b039092168252519081900360200190f35b610180610e1a565b610180600480360360208110156104bc57600080fd5b50356001600160a01b0316610e2a565b610180600480360360208110156104e257600080fd5b5035610fe5565b6101d9610ff6565b6101d9611008565b610482611018565b610509611027565b60408051602080825283518183015283519192839290830191858101910280838360005b8381101561054557818101518382015260200161052d565b505050509050019250505060405180910390f35b610482611039565b61057e6004803603602081101561057757600080fd5b5035611048565b604051808881526020018781526020018681526020018581526020018460048111156105a657fe5b60ff16815260200183815260200182815260200197505050505050505060405180910390f35b610692600480360360808110156105e257600080fd5b6001600160a01b0382358116926020810135909116916040820135919081019060808101606082013564010000000081111561061d57600080fd5b82018360208201111561062f57600080fd5b8035906020019184600183028401116401000000008311171561065157600080fd5b91908080601f016020809104026020016040519081016040528093929190818152602001838380828437600092019190915250929550611089945050505050565b604051808360038111156106a257fe5b60ff1681526020018281526020019250505060405180910390f35b610482611096565b6106cd61110f565b6040513390303180156108fc02916000818181858888f193505050501580156106fa573d6000803e3d6000fd5b50565b60005b90565b6000600160c21b6715539313d0d2d1510284141561079e5760015460408051600160e01b6370a082310281526001600160a01b038681166004830152915191909216916370a08231916024808301926020929190829003018186803b15801561076b57600080fd5b505afa15801561077f573d6000803e3d6000fd5b505050506040513d602081101561079557600080fd5b505190506107a2565b5060005b9392505050565b600160d91b6420a226a4a70281565b6107c061110f565b836108055760408051600160e51b62461bcd02815260206004820152600a6024820152600160b01b69456d707479206e616d6502604482015290519081900360640190fd5b42831161085c5760408051600160e51b62461bcd02815260206004820181905260248201527f53746172742074696d65206d75737420626520696e2074686520667574757265604482015290519081900360640190fd5b600084815260046020526040902054156108c05760408051600160e51b62461bcd02815260206004820152601360248201527f4e616d6520616c726561647920696e2075736500000000000000000000000000604482015290519081900360640190fd5b60008481526004602081905260409091208581556001808201869055600282018690556003820185905590820180548493919260ff1990911691849081111561090557fe5b0217905550600380546000868152600460208181526040808420600501859055600185018655949092527fc2575a0e9e593c00f959f8c92f12db2869c3395a3b0502d05e2516446f71f85b90920187905582518781529081018690529182018490527f1b1876485e7f2b22c5bafe16e8fa1ea003ead35b068855016d8f640f3b49ac1a91869186918691869190606082019083908111156109a257fe5b60ff16815260200194505050505060405180910390a150505050565b60008060008060006060806060600080600460008c8152602001908152602001600020905080600001548160010154826002015483600301548460040160009054906101000a900460ff16856006018660070187600801886009015483805480602002602001604051908101604052809291908181526020018280548015610a6557602002820191906000526020600020905b815481526020019060010190808311610a51575b5050505050935082805480602002602001604051908101604052809291908181526020018280548015610ab757602002820191906000526020600020905b815481526020019060010190808311610aa3575b5050505050925081805480602002602001604051908101604052809291908181526020018280548015610b0957602002820191906000526020600020905b815481526020019060010190808311610af5575b50505050509150995099509950995099509950995099509950509193959799909294969850565b6001546000906001600160a01b03163314610b955760408051600160e51b62461bcd02815260206004820152601360248201527f53656e646572206973206e6f74206f776e657200000000000000000000000000604482015290519081900360640190fd5b600254600160a01b900460ff16610bae57610bae6111e8565b50600195945050505050565b610bc261110f565b610bca61121d565b565b60038181548110610bd957fe5b600091825260209091200154905081565b610bf261110f565b610bca6111e8565b600254600160a01b900460ff1681565b610c1261110f565b80610c575760408051600160e51b62461bcd02815260206004820152600a6024820152600160b01b69456d707479206e616d6502604482015290519081900360640190fd5b6000818152600460205260409020548114610cbc5760408051600160e51b62461bcd02815260206004820152601360248201527f4e616d6520646f6573206e6f7420657869737400000000000000000000000000604482015290519081900360640190fd5b600081815260046020526040902060050154600380546000198101908110610ce057fe5b906000526020600020015460038281548110610cf857fe5b6000918252602090912001556003805490610d17906000198301611a52565b506003548114610d5457806004600060038481548110610d3357fe5b90600052602060002001548152602001908152602001600020600501819055505b60008281526004602081905260408220828155600181018390556002810183905560038101839055908101805460ff191690556005810182905590610d9c6006830182611a76565b610daa600783016000611a76565b610db8600883016000611a76565b506000600991909101556040805183815290517f7fc0331d39c9da9f7bbbbfef88ca6d16e8d4a1824039f7109dcd2f8831b3a3529181900360200190a15050565b600160c21b6715539313d0d2d1510281565b6002546001600160a01b031681565b610e2261110f565b610bca6112c3565b610e3261110f565b6001600160a01b038116610e905760408051600160e51b62461bcd02815260206004820152600f60248201527f496e76616c696420616464726573730000000000000000000000000000000000604482015290519081900360640190fd5b60408051600160e01b6370a08231028152306004820152905182916000916001600160a01b038416916370a08231916024808301926020929190829003018186803b158015610ede57600080fd5b505afa158015610ef2573d6000803e3d6000fd5b505050506040513d6020811015610f0857600080fd5b505160408051600160e01b63a9059cbb0281523360048201526024810183905290519192506001600160a01b0384169163a9059cbb916044808201926020929091908290030181600087803b158015610f6057600080fd5b505af1158015610f74573d6000803e3d6000fd5b505050506040513d6020811015610f8a57600080fd5b5051610fe05760408051600160e51b62461bcd02815260206004820152600f60248201527f5472616e73666572206661696c65640000000000000000000000000000000000604482015290519081900360640190fd5b505050565b610fed61110f565b6106fa81611370565b600160c11b6727a822a920aa27a90281565b600160d21b651313d0d2d1510281565b6001546001600160a01b031681565b60408051600081526020810190915290565b6000546001600160a01b031681565b6004602081905260009182526040909120805460018201546002830154600384015494840154600585015460099095015493959294919360ff909116919087565b6001600094509492505050565b60015460408051600160e01b63660d0d6702815290516000926001600160a01b03169163660d0d67916004808301926020929190829003018186803b1580156110de57600080fd5b505afa1580156110f2573d6000803e3d6000fd5b505050506040513d602081101561110857600080fd5b5051905090565b600160009054906101000a90046001600160a01b03166001600160a01b0316638da5cb5b6040518163ffffffff1660e01b815260040160206040518083038186803b15801561115d57600080fd5b505afa158015611171573d6000803e3d6000fd5b505050506040513d602081101561118757600080fd5b50516001600160a01b03163314610bca5760408051600160e51b62461bcd02815260206004820152601360248201527f53656e646572206973206e6f74206f776e657200000000000000000000000000604482015290519081900360640190fd5b60005b6003548110156106fa576112156003828154811061120557fe5b9060005260206000200154611370565b6001016111eb565b600254600160a01b900460ff1661127e5760408051600160e51b62461bcd02815260206004820152601660248201527f436f6e7472616374206973206e6f742070617573656400000000000000000000604482015290519081900360640190fd5b60028054600160a01b60ff02191690556040805133815290517faeb196d352664784d1900b0e7414a8face7d29f4dae8c4b0cf68ed477423bbf49181900360200190a1565b600254600160a01b900460ff16156113255760408051600160e51b62461bcd02815260206004820152601260248201527f436f6e7472616374206973207061757365640000000000000000000000000000604482015290519081900360640190fd5b60028054600160a01b60ff021916600160a01b1790556040805133815290517f5ee71a369c8672edded508e624ffc9257fa1ae6886ef32905c18e60196bca3999181900360200190a1565b6000818152600460205260409020600281015442106116ab57600154604080517fff0b9c9000000000000000000000000000000000000000000000000000000000815290516000926001600160a01b03169163ff0b9c9091600480830192602092919082900301818787803b1580156113e857600080fd5b505af11580156113fc573d6000803e3d6000fd5b505050506040513d602081101561141257600080fd5b5051600683018054600181810183556000928352602080842090920184905560028601546007870180549283018155845291832001559091508060048085015460ff169081111561145f57fe5b14156114cc576114a1600161149585600301546114898760020154426116af90919063ffffffff16565b9063ffffffff6116c916565b9063ffffffff6116eb16565b90506114c283600201546114958560030154846116fd90919063ffffffff16565b6002840155611677565b600160048085015460ff16908111156114e157fe5b14156115285761150260016114958560030154611489876002015442611724565b90506114c283600201546115238560030154846116fd90919063ffffffff16565b61173f565b600260048085015460ff169081111561153d57fe5b141561159557611563600161149585600301546114896007611489896002015442611724565b90506114c2836002015461152360076115898760030154866116fd90919063ffffffff16565b9063ffffffff6116fd16565b600360048085015460ff16908111156115aa57fe5b1415611617576115cb60016114958560030154611489876002015442611754565b905060006115e68285600901546116eb90919063ffffffff16565b905061160c84600101546116078660030154846116fd90919063ffffffff16565b6117ab565b600285015550611677565b60048381015460ff168181111561162a57fe5b14156116775761164b60016114958560030154611489876002015442611825565b9050611671836002015461166c8560030154846116fd90919063ffffffff16565b61186e565b60028401555b600983015461168c908263ffffffff6116eb16565b6009840155600883018054600181018255600091825260209091200155505b5050565b6000828211156116be57600080fd5b508082035b92915050565b60008082116116d757600080fd5b60008284816116e257fe5b04949350505050565b6000828201838110156107a257600080fd5b60008261170c575060006116c3565b8282028284828161171957fe5b04146107a257600080fd5b60008183111561173357600080fd5b50620151809190030490565b6201518081028201828110156116c357600080fd5b60008183111561176357600080fd5b60008080808080611779620151808a5b04611895565b9197509550935061178d6201518089611773565b50600c97880297909102019590950393909303979650505050505050565b60008080806117bd6201518087611773565b600c9188016000198101838104949094019650945092509006600101915060006117e7848461192b565b9050808211156117f5578091505b6201518087066201518061180a8686866119b1565b020194508685101561181b57600080fd5b5050505092915050565b60008183111561183457600080fd5b60008080808080611848620151808a611773565b9197509550935061185c6201518089611773565b50509590950398975050505050505050565b60008080806118806201518087611773565b91870194509250905060006117e7848461192b565b60008080836226496581018262023ab1600483020590506004600362023ab18302010590910390600062164b09610fa0600185010205905060046105b58202058303601f019250600061098f84605002816118ec57fe5b0590506000605061098f83020585039050600b820560301994909401606402929092018301996002600c90940290910392909201975095509350505050565b6000816001148061193c5750816003145b806119475750816005145b806119525750816007145b8061195d5750816008145b80611968575081600a145b80611973575081600c145b156119805750601f6116c3565b816002146119905750601e6116c3565b61199983611a2d565b6119a457601c6119a7565b601d5b60ff169392505050565b60006107b28410156119c257600080fd5b838383600062253d8c600460036064611324600c600d19890105890101050205600c80600d19870105600c02600287030361016f02816119fe57fe5b0560046105b5600c600d1989010589016112c0010205617d4b8603010103039050809450505050509392505050565b600060048206158015611a4257506064820615155b806116c357505061019090061590565b815481835581811115610fe057600083815260209020610fe0918101908301611a90565b50805460008255906000526020600020908101906106fa91905b61070091905b80821115611aaa5760008155600101611a96565b509056fea165627a7a7230582067b783976d6820a50cea66b2b88b291e727277fae12665a08343a80c99d5dad10029",
  "source": "pragma solidity 0.5.8;\r\n\r\nimport \"./../../Checkpoint/ICheckpoint.sol\";\r\nimport \"../../TransferManager/TransferManager.sol\";\r\nimport \"openzeppelin-solidity/contracts/math/SafeMath.sol\";\r\nimport \"../../../libraries/BokkyPooBahsDateTimeLibrary.sol\";\r\n\r\n/**\r\n * @title Burn module for burning tokens and keeping track of burnt amounts\r\n */\r\ncontract ScheduledCheckpoint is ICheckpoint, TransferManager {\r\n    using SafeMath for uint256;\r\n\r\n    enum TimeUnit {SECONDS, DAYS, WEEKS, MONTHS, YEARS}\r\n\r\n    struct Schedule {\r\n        bytes32 name;\r\n        uint256 startTime;\r\n        uint256 nextTime;\r\n        uint256 interval;\r\n        TimeUnit timeUnit;\r\n        uint256 index;\r\n        uint256[] checkpointIds;\r\n        uint256[] timestamps;\r\n        uint256[] periods;\r\n        uint256 totalPeriods;\r\n    }\r\n\r\n    bytes32[] public names;\r\n\r\n    mapping(bytes32 => Schedule) public schedules;\r\n\r\n    event AddSchedule(bytes32 _name, uint256 _startTime, uint256 _interval, TimeUnit _timeUint);\r\n    event RemoveSchedule(bytes32 _name);\r\n\r\n    /**\r\n     * @notice Constructor\r\n     * @param _securityToken Address of the security token\r\n     */\r\n    constructor(address _securityToken, address _polyToken) public Module(_securityToken, _polyToken) {\r\n\r\n    }\r\n\r\n    /**\r\n     * @notice This function returns the signature of configure function\r\n     */\r\n    function getInitFunction() public pure returns(bytes4) {\r\n        return bytes4(0);\r\n    }\r\n\r\n    /**\r\n     * @notice adds a new schedule for checkpoints\r\n     * @param _name name of the new schedule (must be unused)\r\n     * @param _startTime start time of the schedule (first checkpoint)\r\n     * @param _interval interval at which checkpoints should be created\r\n     * @param _timeUnit unit of time at which checkpoints should be created\r\n     */\r\n    function addSchedule(bytes32 _name, uint256 _startTime, uint256 _interval, TimeUnit _timeUnit) external {\r\n        _onlySecurityTokenOwner();\r\n        require(_name != bytes32(\"\"), \"Empty name\");\r\n        require(_startTime > now, \"Start time must be in the future\");\r\n        require(schedules[_name].name == bytes32(0), \"Name already in use\");\r\n        schedules[_name].name = _name;\r\n        schedules[_name].startTime = _startTime;\r\n        schedules[_name].nextTime = _startTime;\r\n        schedules[_name].interval = _interval;\r\n        schedules[_name].timeUnit = _timeUnit;\r\n        schedules[_name].index = names.length;\r\n        names.push(_name);\r\n        emit AddSchedule(_name, _startTime, _interval, _timeUnit);\r\n    }\r\n\r\n    /**\r\n     * @notice removes a schedule for checkpoints\r\n     * @param _name name of the schedule to be removed\r\n     */\r\n    function removeSchedule(bytes32 _name) external {\r\n        _onlySecurityTokenOwner();\r\n        require(_name != bytes32(\"\"), \"Empty name\");\r\n        require(schedules[_name].name == _name, \"Name does not exist\");\r\n        uint256 index = schedules[_name].index;\r\n        names[index] = names[names.length - 1];\r\n        names.length--;\r\n        if (index != names.length) {\r\n            schedules[names[index]].index = index;\r\n        }\r\n        delete schedules[_name];\r\n        emit RemoveSchedule(_name);\r\n    }\r\n\r\n    /**\r\n     * @notice Used to create checkpoints that correctly reflect balances\r\n     * @return always returns Result.NA\r\n     */\r\n    function executeTransfer(\r\n        address, /* _from */\r\n        address, /* _to */\r\n        uint256, /* _amount */\r\n        bytes calldata /* _data */\r\n    )\r\n        external\r\n        onlySecurityToken\r\n        returns(Result)\r\n    {\r\n        if (!paused) {\r\n            _updateAll();\r\n        }\r\n        return (Result.NA);\r\n    }\r\n\r\n    /**\r\n     * @notice Used to create checkpoints that correctly reflect balances\r\n     * @return always returns Result.NA\r\n     */\r\n    function verifyTransfer(\r\n        address, /* _from */\r\n        address, /* _to */\r\n        uint256, /* _amount */\r\n        bytes memory /* _data */\r\n    )\r\n        public\r\n        view\r\n        returns(Result, bytes32)\r\n    {\r\n        return (Result.NA, bytes32(0));\r\n    }\r\n\r\n    /**\r\n     * @notice gets schedule details\r\n     * @param _name name of the schedule\r\n     */\r\n    function getSchedule(bytes32 _name) external view returns(\r\n        bytes32,\r\n        uint256,\r\n        uint256,\r\n        uint256,\r\n        TimeUnit,\r\n        uint256[] memory,\r\n        uint256[] memory,\r\n        uint256[] memory,\r\n        uint256\r\n    ){\r\n        Schedule storage schedule = schedules[_name];\r\n        return (schedule.name, schedule.startTime, schedule.nextTime, schedule.interval, schedule.timeUnit, schedule.checkpointIds, schedule.timestamps, schedule.periods, schedule.totalPeriods);\r\n    }\r\n\r\n    /**\r\n     * @notice manually triggers update outside of transfer request for named schedule (can be used to reduce user gas costs)\r\n     * @param _name name of the schedule\r\n     */\r\n    function update(bytes32 _name) external {\r\n        _onlySecurityTokenOwner();\r\n        _update(_name);\r\n    }\r\n\r\n    function _update(bytes32 _name) internal {\r\n        Schedule storage schedule = schedules[_name];\r\n        if (schedule.nextTime <= now) {\r\n            uint256 checkpointId = securityToken.createCheckpoint();\r\n            schedule.checkpointIds.push(checkpointId);\r\n            schedule.timestamps.push(schedule.nextTime);\r\n            uint256 periods;\r\n            if (schedule.timeUnit == TimeUnit.SECONDS ) {\r\n                periods = now.sub(schedule.nextTime).div(schedule.interval).add(1);\r\n                schedule.nextTime = periods.mul(schedule.interval).add(schedule.nextTime);\r\n            } else if (schedule.timeUnit == TimeUnit.DAYS ) {\r\n                periods = BokkyPooBahsDateTimeLibrary.diffDays(schedule.nextTime, now).div(schedule.interval).add(1);\r\n                schedule.nextTime = BokkyPooBahsDateTimeLibrary.addDays(schedule.nextTime, periods.mul(schedule.interval));\r\n            } else if (schedule.timeUnit == TimeUnit.WEEKS ) {\r\n                periods = BokkyPooBahsDateTimeLibrary.diffDays(schedule.nextTime, now).div(7).div(schedule.interval).add(1);\r\n                schedule.nextTime = BokkyPooBahsDateTimeLibrary.addDays(schedule.nextTime, periods.mul(schedule.interval).mul(7));\r\n            } else if (schedule.timeUnit == TimeUnit.MONTHS ) {\r\n                periods = BokkyPooBahsDateTimeLibrary.diffMonths(schedule.nextTime, now).div(schedule.interval).add(1);\r\n                uint256 totalPeriods = schedule.totalPeriods.add(periods);\r\n                schedule.nextTime = BokkyPooBahsDateTimeLibrary.addMonths(schedule.startTime, totalPeriods.mul(schedule.interval));\r\n            } else if (schedule.timeUnit == TimeUnit.YEARS ) {\r\n                periods = BokkyPooBahsDateTimeLibrary.diffYears(schedule.nextTime, now).div(schedule.interval).add(1);\r\n                schedule.nextTime = BokkyPooBahsDateTimeLibrary.addYears(schedule.nextTime, periods.mul(schedule.interval));\r\n            }\r\n            schedule.totalPeriods = schedule.totalPeriods.add(periods);\r\n            schedule.periods.push(periods);\r\n        }\r\n    }\r\n\r\n    /**\r\n     * @notice manually triggers update outside of transfer request for all schedules (can be used to reduce user gas costs)\r\n     */\r\n    function updateAll() external {\r\n        _onlySecurityTokenOwner();\r\n        _updateAll();\r\n    }\r\n\r\n    function _updateAll() internal {\r\n        uint256 i;\r\n        for (i = 0; i < names.length; i++) {\r\n            _update(names[i]);\r\n        }\r\n    }\r\n\r\n    /**\r\n     * @notice Return the permissions flag that are associated with CountTransferManager\r\n     */\r\n    function getPermissions() external view returns(bytes32[] memory) {\r\n        bytes32[] memory allPermissions = new bytes32[](0);\r\n        return allPermissions;\r\n    }\r\n}\r\n",
  "sourcePath": "C:\\mspace\\polymath-core\\contracts\\modules\\Experimental\\Mixed\\ScheduledCheckpoint.sol",
  "compiler": {
    "name": "solc",
    "version": "0.5.8+commit.23d335f2.Emscripten.clang"
  },
  "schemaVersion": "3.0.11",
  "updatedAt": "2019-08-05T22:52:46.781Z",
  "devdoc": {
    "methods": {
      "addSchedule(bytes32,uint256,uint256,uint8)": {
        "params": {
          "_interval": "interval at which checkpoints should be created\r",
          "_name": "name of the new schedule (must be unused)\r",
          "_startTime": "start time of the schedule (first checkpoint)\r",
          "_timeUnit": "unit of time at which checkpoints should be created\r"
        }
      },
      "constructor": {
        "params": {
          "_securityToken": "Address of the security token\r"
        }
      },
      "executeTransfer(address,address,uint256,bytes)": {
        "return": "always returns Result.NA\r"
      },
      "getSchedule(bytes32)": {
        "params": {
          "_name": "name of the schedule\r"
        }
      },
      "getTokensByPartition(bytes32,address,uint256)": {
        "details": "returning the balance of token holder against the UNLOCKED partition. \r This condition is valid only when the base contract doesn't implement the\r `getTokensByPartition()` function.  \r"
      },
      "reclaimERC20(address)": {
        "details": "We duplicate here due to the overriden owner & onlyOwner\r",
        "params": {
          "_tokenContract": "The address of the token contract\r"
        }
      },
      "reclaimETH()": {
        "details": "We duplicate here due to the overriden owner & onlyOwner\r"
      },
      "removeSchedule(bytes32)": {
        "params": {
          "_name": "name of the schedule to be removed\r"
        }
      },
      "update(bytes32)": {
        "params": {
          "_name": "name of the schedule\r"
        }
      },
      "verifyTransfer(address,address,uint256,bytes)": {
        "return": "always returns Result.NA\r"
      }
    },
    "title": "Burn module for burning tokens and keeping track of burnt amounts\r"
  },
  "userdoc": {
    "methods": {
      "addSchedule(bytes32,uint256,uint256,uint8)": {
        "notice": "adds a new schedule for checkpoints\r"
      },
      "constructor": "Constructor\r",
      "executeTransfer(address,address,uint256,bytes)": {
        "notice": "Used to create checkpoints that correctly reflect balances\r"
      },
      "getDataStore()": {
        "notice": "used to return the data store address of securityToken\r"
      },
      "getInitFunction()": {
        "notice": "This function returns the signature of configure function\r"
      },
      "getPermissions()": {
        "notice": "Return the permissions flag that are associated with CountTransferManager\r"
      },
      "getSchedule(bytes32)": {
        "notice": "gets schedule details\r"
      },
      "getTokensByPartition(bytes32,address,uint256)": {
        "notice": "return the amount of tokens for a given user as per the partition\r"
      },
      "pause()": {
        "notice": "Pause (overridden function)\r"
      },
      "reclaimERC20(address)": {
        "notice": "Reclaims ERC20Basic compatible tokens\r"
      },
      "reclaimETH()": {
        "notice": "Reclaims ETH\r"
      },
      "removeSchedule(bytes32)": {
        "notice": "removes a schedule for checkpoints\r"
      },
      "unpause()": {
        "notice": "Unpause (overridden function)\r"
      },
      "update(bytes32)": {
        "notice": "manually triggers update outside of transfer request for named schedule (can be used to reduce user gas costs)\r"
      },
      "updateAll()": {
        "notice": "manually triggers update outside of transfer request for all schedules (can be used to reduce user gas costs)\r"
      },
      "verifyTransfer(address,address,uint256,bytes)": {
        "notice": "Used to create checkpoints that correctly reflect balances\r"
      }
    }
  }
}