{
  "contractName": "SecurityTokenRegistryProxy",
  "abi": [
    {
      "constant": false,
      "inputs": [],
      "name": "proxyOwner",
      "outputs": [
        {
          "name": "",
          "type": "address"
        }
      ],
      "payable": false,
      "stateMutability": "nonpayable",
      "type": "function"
    },
    {
      "constant": true,
      "inputs": [
        {
          "name": "_variable",
          "type": "bytes32"
        }
      ],
      "name": "getBytes32Value",
      "outputs": [
        {
          "name": "",
          "type": "bytes32"
        }
      ],
      "payable": false,
      "stateMutability": "view",
      "type": "function"
    },
    {
      "constant": true,
      "inputs": [
        {
          "name": "_variable",
          "type": "bytes32"
        }
      ],
      "name": "getBytesValue",
      "outputs": [
        {
          "name": "",
          "type": "bytes"
        }
      ],
      "payable": false,
      "stateMutability": "view",
      "type": "function"
    },
    {
      "constant": true,
      "inputs": [
        {
          "name": "_variable",
          "type": "bytes32"
        }
      ],
      "name": "getAddressValue",
      "outputs": [
        {
          "name": "",
          "type": "address"
        }
      ],
      "payable": false,
      "stateMutability": "view",
      "type": "function"
    },
    {
      "constant": false,
      "inputs": [],
      "name": "version",
      "outputs": [
        {
          "name": "",
          "type": "string"
        }
      ],
      "payable": false,
      "stateMutability": "nonpayable",
      "type": "function"
    },
    {
      "constant": false,
      "inputs": [
        {
          "name": "_newVersion",
          "type": "string"
        },
        {
          "name": "_newImplementation",
          "type": "address"
        }
      ],
      "name": "upgradeTo",
      "outputs": [],
      "payable": false,
      "stateMutability": "nonpayable",
      "type": "function"
    },
    {
      "constant": false,
      "inputs": [],
      "name": "implementation",
      "outputs": [
        {
          "name": "",
          "type": "address"
        }
      ],
      "payable": false,
      "stateMutability": "nonpayable",
      "type": "function"
    },
    {
      "constant": true,
      "inputs": [
        {
          "name": "_key",
          "type": "bytes32"
        }
      ],
      "name": "getArrayAddress",
      "outputs": [
        {
          "name": "",
          "type": "address[]"
        }
      ],
      "payable": false,
      "stateMutability": "view",
      "type": "function"
    },
    {
      "constant": true,
      "inputs": [
        {
          "name": "_variable",
          "type": "bytes32"
        }
      ],
      "name": "getBoolValue",
      "outputs": [
        {
          "name": "",
          "type": "bool"
        }
      ],
      "payable": false,
      "stateMutability": "view",
      "type": "function"
    },
    {
      "constant": false,
      "inputs": [
        {
          "name": "_newVersion",
          "type": "string"
        },
        {
          "name": "_newImplementation",
          "type": "address"
        },
        {
          "name": "_data",
          "type": "bytes"
        }
      ],
      "name": "upgradeToAndCall",
      "outputs": [],
      "payable": true,
      "stateMutability": "payable",
      "type": "function"
    },
    {
      "constant": true,
      "inputs": [
        {
          "name": "_variable",
          "type": "bytes32"
        }
      ],
      "name": "getStringValue",
      "outputs": [
        {
          "name": "",
          "type": "string"
        }
      ],
      "payable": false,
      "stateMutability": "view",
      "type": "function"
    },
    {
      "constant": true,
      "inputs": [
        {
          "name": "_key",
          "type": "bytes32"
        }
      ],
      "name": "getArrayBytes32",
      "outputs": [
        {
          "name": "",
          "type": "bytes32[]"
        }
      ],
      "payable": false,
      "stateMutability": "view",
      "type": "function"
    },
    {
      "constant": true,
      "inputs": [
        {
          "name": "_variable",
          "type": "bytes32"
        }
      ],
      "name": "getUintValue",
      "outputs": [
        {
          "name": "",
          "type": "uint256"
        }
      ],
      "payable": false,
      "stateMutability": "view",
      "type": "function"
    },
    {
      "constant": false,
      "inputs": [
        {
          "name": "_newOwner",
          "type": "address"
        }
      ],
      "name": "transferProxyOwnership",
      "outputs": [],
      "payable": false,
      "stateMutability": "nonpayable",
      "type": "function"
    },
    {
      "constant": true,
      "inputs": [
        {
          "name": "_key",
          "type": "bytes32"
        }
      ],
      "name": "getArrayUint",
      "outputs": [
        {
          "name": "",
          "type": "uint256[]"
        }
      ],
      "payable": false,
      "stateMutability": "view",
      "type": "function"
    },
    {
      "payable": true,
      "stateMutability": "payable",
      "type": "fallback"
    },
    {
      "anonymous": false,
      "inputs": [
        {
          "indexed": false,
          "name": "_previousOwner",
          "type": "address"
        },
        {
          "indexed": false,
          "name": "_newOwner",
          "type": "address"
        }
      ],
      "name": "ProxyOwnershipTransferred",
      "type": "event"
    },
    {
      "anonymous": false,
      "inputs": [
        {
          "indexed": false,
          "name": "_newVersion",
          "type": "string"
        },
        {
          "indexed": true,
          "name": "_newImplementation",
          "type": "address"
        }
      ],
      "name": "Upgraded",
      "type": "event"
    }
  ],
  "bytecode": "0x60806040526100133361001860201b60201c565b6100af565b6001600160a01b03811661008d57604080517f08c379a000000000000000000000000000000000000000000000000000000000815260206004820152601860248201527f416464726573732073686f756c64206e6f742062652030780000000000000000604482015290519081900360640190fd5b600d80546001600160a01b0319166001600160a01b0392909216919091179055565b611150806100be6000396000f3fe6080604052600436106100e85760003560e01c80636f3b8ce21161008a578063a8f0d3a711610059578063a8f0d3a714610489578063e82617fb146104b3578063f1739cae146104dd578063f6fcbee114610510576100e8565b80636f3b8ce2146102d85780638ffa969014610352578063958a41dd14610390578063a209a29c1461045f576100e8565b80634c77e5ba116100c65780634c77e5ba146101fe57806354fd4d50146102285780635a8b1a9f1461023d5780635c60da1b146102c3576100e8565b8063025313a2146100f2578063025ec81a1461012357806344bfa56e1461015f575b6100f061053a565b005b3480156100fe57600080fd5b5061010761054c565b604080516001600160a01b039092168252519081900360200190f35b34801561012f57600080fd5b5061014d6004803603602081101561014657600080fd5b5035610589565b60408051918252519081900360200190f35b34801561016b57600080fd5b506101896004803603602081101561018257600080fd5b503561059b565b6040805160208082528351818301528351919283929083019185019080838360005b838110156101c35781810151838201526020016101ab565b50505050905090810190601f1680156101f05780820380516001836020036101000a031916815260200191505b509250505060405180910390f35b34801561020a57600080fd5b506101076004803603602081101561022157600080fd5b503561063c565b34801561023457600080fd5b50610189610657565b34801561024957600080fd5b506100f06004803603604081101561026057600080fd5b81019060208101813564010000000081111561027b57600080fd5b82018360208201111561028d57600080fd5b803590602001918460018302840111640100000000831117156102af57600080fd5b9193509150356001600160a01b031661070c565b3480156102cf57600080fd5b50610107610780565b3480156102e457600080fd5b50610302600480360360208110156102fb57600080fd5b50356107ab565b60408051602080825283518183015283519192839290830191858101910280838360005b8381101561033e578181015183820152602001610326565b505050509050019250505060405180910390f35b34801561035e57600080fd5b5061037c6004803603602081101561037557600080fd5b5035610816565b604080519115158252519081900360200190f35b6100f0600480360360608110156103a657600080fd5b8101906020810181356401000000008111156103c157600080fd5b8201836020820111156103d357600080fd5b803590602001918460018302840111640100000000831117156103f557600080fd5b919390926001600160a01b038335169260408101906020013564010000000081111561042057600080fd5b82018360208201111561043257600080fd5b8035906020019184600183028401116401000000008311171561045457600080fd5b50909250905061082b565b34801561046b57600080fd5b506101896004803603602081101561048257600080fd5b50356108d5565b34801561049557600080fd5b50610302600480360360208110156104ac57600080fd5b503561093e565b3480156104bf57600080fd5b5061014d600480360360208110156104d657600080fd5b503561099f565b3480156104e957600080fd5b506100f06004803603602081101561050057600080fd5b50356001600160a01b03166109b1565b34801561051c57600080fd5b506103026004803603602081101561053357600080fd5b5035610a94565b61054a610545610af4565b610b03565b565b6000610556610b27565b6001600160a01b0316336001600160a01b0316141561057e57610577610b27565b9050610586565b61058661053a565b90565b60009081526006602052604090205490565b60008181526003602090815260409182902080548351601f60026000196101006001861615020190931692909204918201849004840281018401909452808452606093928301828280156106305780601f1061060557610100808354040283529160200191610630565b820191906000526020600020905b81548152906001019060200180831161061357829003601f168201915b50505050509050919050565b6000908152600260205260409020546001600160a01b031690565b6060610661610b27565b6001600160a01b0316336001600160a01b0316141561057e57600b805460408051602060026001851615610100026000190190941693909304601f810184900484028201840190925281815292918301828280156107005780601f106106d557610100808354040283529160200191610700565b820191906000526020600020905b8154815290600101906020018083116106e357829003601f168201915b50505050509050610586565b610714610b27565b6001600160a01b0316336001600160a01b031614156107735761076e83838080601f016020809104026020016040519081016040528093929190818152602001838380828437600092019190915250859250610b36915050565b61077b565b61077b61053a565b505050565b600061078a610b27565b6001600160a01b0316336001600160a01b0316141561057e57610577610af4565b60008181526009602090815260409182902080548351818402810184019094528084526060939283018282801561063057602002820191906000526020600020905b81546001600160a01b031681526001909101906020018083116107ed5750505050509050919050565b60009081526004602052604090205460ff1690565b610833610b27565b6001600160a01b0316336001600160a01b031614156108c6576108c185858080601f01602080910402602001604051908101604052809392919081815260200183838082843760009201919091525050604080516020601f880181900481028201810190925286815288935091508690869081908401838280828437600092019190915250610e3192505050565b6108ce565b6108ce61053a565b5050505050565b60008181526001602081815260409283902080548451600294821615610100026000190190911693909304601f810183900483028401830190945283835260609390918301828280156106305780601f1061060557610100808354040283529160200191610630565b60008181526007602090815260409182902080548351818402810184019094528084526060939283018282801561063057602002820191906000526020600020905b8154815260200190600101908083116109805750505050509050919050565b60009081526020819052604090205490565b6109b9610b27565b6001600160a01b0316336001600160a01b03161415610a89576001600160a01b038116610a305760408051600160e51b62461bcd02815260206004820152601860248201527f416464726573732073686f756c64206e6f742062652030780000000000000000604482015290519081900360640190fd5b7f5a3e66efaa1e445ebd894728a69d6959842ea1e97bd79b892797106e270efcd9610a59610b27565b604080516001600160a01b03928316815291841660208301528051918290030190a1610a8481610f2a565b610a91565b610a9161053a565b50565b60008181526008602090815260409182902080548351818402810184019094528084526060939283018282801561063057602002820191906000526020600020908154815260200190600101908083116109805750505050509050919050565b600c546001600160a01b031690565b3660008037600080366000845af43d6000803e808015610b22573d6000f35b3d6000fd5b600d546001600160a01b031690565b600c546001600160a01b03828116911614801590610b5c57506001600160a01b03811615155b610b9a57604051600160e51b62461bcd0281526004018080602001828103825260468152602001806110a46046913960600191505060405180910390fd5b610ba381610faa565b610be157604051600160e51b62461bcd02815260040180806020018281038252603b8152602001806110ea603b913960400191505060405180910390fd5b6000825111610c2457604051600160e51b62461bcd0281526004018080602001828103825260228152602001806110496022913960400191505060405180910390fd5b816040516020018082805190602001908083835b60208310610c575780518252601f199092019160209182019101610c38565b6001836020036101000a03801982511681845116808217855250505050505090500191505060405160208183030381529060405280519060200120600b6040516020018082805460018160011615610100020316600290048015610cf25780601f10610cd0576101008083540402835291820191610cf2565b820191906000526020600020905b815481529060010190602001808311610cde575b5050915050604051602081830303815290604052805190602001201415610d635760408051600160e51b62461bcd02815260206004820152601d60248201527f4e65772076657273696f6e20657175616c7320746f2063757272656e74000000604482015290519081900360640190fd5b8151610d7690600b906020850190610fb0565b50600c80546001600160a01b0319166001600160a01b03831690811790915560408051602080825285518183015285517f8e05e0e35ff592971ca8b477d4285a33a61ded208d644042667b78693a472f5e938793928392918301919085019080838360005b83811015610df3578181015183820152602001610ddb565b50505050905090810190601f168015610e205780820380516001836020036101000a031916815260200191505b509250505060405180910390a25050565b610e3b8383610b36565b6000306001600160a01b031634836040518082805190602001908083835b60208310610e785780518252601f199092019160209182019101610e59565b6001836020036101000a03801982511681845116808217855250505050505090500191505060006040518083038185875af1925050503d8060008114610eda576040519150601f19603f3d011682016040523d82523d6000602084013e610edf565b606091505b50508091505080610f2457604051600160e51b62461bcd02815260040180806020018281038252603981526020018061106b6039913960400191505060405180910390fd5b50505050565b6001600160a01b038116610f885760408051600160e51b62461bcd02815260206004820152601860248201527f416464726573732073686f756c64206e6f742062652030780000000000000000604482015290519081900360640190fd5b600d80546001600160a01b0319166001600160a01b0392909216919091179055565b3b151590565b828054600181600116156101000203166002900490600052602060002090601f016020900481019282601f10610ff157805160ff191683800117855561101e565b8280016001018555821561101e579182015b8281111561101e578251825591602001919060010190611003565b5061102a92915061102e565b5090565b61058691905b8082111561102a576000815560010161103456fe56657273696f6e2073686f756c64206e6f7420626520656d70747920737472696e674661696c20696e20657865637574696e67207468652066756e6374696f6e206f6620696d706c656d656e746174696f6e20636f6e74726163744f6c642061646472657373206973206e6f7420616c6c6f77656420616e6420696d706c656d656e746174696f6e20616464726573732073686f756c64206e6f7420626520307843616e6e6f742073657420612070726f787920696d706c656d656e746174696f6e20746f2061206e6f6e2d636f6e74726163742061646472657373a165627a7a7230582036e793cb8604503e61dc39a1ca527ff3686bc5f44ab4782e233e2c14ab4843210029",
  "source": "pragma solidity 0.5.8;\r\n\r\nimport \"../storage/EternalStorage.sol\";\r\nimport \"./OwnedUpgradeabilityProxy.sol\";\r\n\r\n/**\r\n * @title SecurityTokenRegistryProxy\r\n * @dev This proxy holds the storage of the SecurityTokenRegistry contract and delegates every call to the current implementation set.\r\n * Besides, it allows to upgrade the SecurityTokenRegistry's behaviour towards further implementations, and provides basic\r\n * authorization control functionalities\r\n */\r\n/*solium-disable-next-line no-empty-blocks*/\r\ncontract SecurityTokenRegistryProxy is EternalStorage, OwnedUpgradeabilityProxy {\r\n\r\n}\r\n",
  "sourcePath": "C:/mspace/polymath-core/contracts/proxy/SecurityTokenRegistryProxy.sol",
  "compiler": {
    "name": "solc",
    "version": "0.5.8+commit.23d335f2.Emscripten.clang"
  },
  "schemaVersion": "3.0.11",
  "updatedAt": "2019-08-05T22:53:44.863Z",
  "devdoc": {
    "details": "This proxy holds the storage of the SecurityTokenRegistry contract and delegates every call to the current implementation set.\r Besides, it allows to upgrade the SecurityTokenRegistry's behaviour towards further implementations, and provides basic\r authorization control functionalities\r",
    "methods": {
      "implementation()": {
        "details": "Tells the address of the current implementation\r",
        "return": "address of the current implementation\r"
      },
      "proxyOwner()": {
        "details": "Tells the address of the proxy owner\r",
        "return": "the address of the proxy owner\r"
      },
      "transferProxyOwnership(address)": {
        "details": "Allows the current owner to transfer control of the contract to a newOwner.\r",
        "params": {
          "_newOwner": "The address to transfer ownership to.\r"
        }
      },
      "upgradeTo(string,address)": {
        "details": "Allows the upgradeability owner to upgrade the current version of the proxy.\r",
        "params": {
          "_newImplementation": "representing the address of the new implementation to be set.\r",
          "_newVersion": "representing the version name of the new implementation to be set.\r"
        }
      },
      "upgradeToAndCall(string,address,bytes)": {
        "details": "Allows the upgradeability owner to upgrade the current version of the proxy and call the new implementation\r to initialize whatever is needed through a low level call.\r",
        "params": {
          "_data": "represents the msg.data to bet sent in the low level call. This parameter may include the function\r signature of the implementation to be called with the needed payload\r",
          "_newImplementation": "representing the address of the new implementation to be set.\r",
          "_newVersion": "representing the version name of the new implementation to be set.\r"
        }
      },
      "version()": {
        "details": "Tells the version name of the current implementation\r",
        "return": "string representing the name of the current version\r"
      }
    },
    "title": "SecurityTokenRegistryProxy\r"
  },
  "userdoc": {
    "methods": {
      "getArrayAddress(bytes32)": {
        "notice": "getArrayBytes32(keccak256(abi.encodePacked(\"tokensOwnedByOwner\", 0x1)).length;"
      },
      "getUintValue(bytes32)": {
        "notice": "string _name = getString(keccak256(abi.encodePacked(\"registeredSymbols_name\", \"TOKEN\"));"
      }
    }
  }
}