{
  "contractName": "SecurityTokenMock",
  "abi": [
    {
      "constant": false,
      "inputs": [
        {
          "name": "_name",
          "type": "bytes32"
        },
        {
          "name": "_uri",
          "type": "string"
        },
        {
          "name": "_documentHash",
          "type": "bytes32"
        }
      ],
      "name": "setDocument",
      "outputs": [],
      "payable": false,
      "stateMutability": "nonpayable",
      "type": "function"
    },
    {
      "constant": false,
      "inputs": [],
      "name": "freezeTransfers",
      "outputs": [],
      "payable": false,
      "stateMutability": "nonpayable",
      "type": "function"
    },
    {
      "constant": true,
      "inputs": [],
      "name": "name",
      "outputs": [
        {
          "name": "",
          "type": "string"
        }
      ],
      "payable": false,
      "stateMutability": "view",
      "type": "function"
    },
    {
      "constant": false,
      "inputs": [
        {
          "name": "spender",
          "type": "address"
        },
        {
          "name": "value",
          "type": "uint256"
        }
      ],
      "name": "approve",
      "outputs": [
        {
          "name": "",
          "type": "bool"
        }
      ],
      "payable": false,
      "stateMutability": "nonpayable",
      "type": "function"
    },
    {
      "constant": false,
      "inputs": [],
      "name": "upgradeToken",
      "outputs": [],
      "payable": false,
      "stateMutability": "nonpayable",
      "type": "function"
    },
    {
      "constant": false,
      "inputs": [
        {
          "name": "_partition",
          "type": "bytes32"
        },
        {
          "name": "_operator",
          "type": "address"
        }
      ],
      "name": "authorizeOperatorByPartition",
      "outputs": [],
      "payable": false,
      "stateMutability": "nonpayable",
      "type": "function"
    },
    {
      "constant": true,
      "inputs": [
        {
          "name": "_from",
          "type": "address"
        },
        {
          "name": "_to",
          "type": "address"
        },
        {
          "name": "_value",
          "type": "uint256"
        },
        {
          "name": "_data",
          "type": "bytes"
        }
      ],
      "name": "canTransferFrom",
      "outputs": [
        {
          "name": "reasonCode",
          "type": "bytes1"
        },
        {
          "name": "appCode",
          "type": "bytes32"
        }
      ],
      "payable": false,
      "stateMutability": "view",
      "type": "function"
    },
    {
      "constant": false,
      "inputs": [
        {
          "name": "_module",
          "type": "address"
        }
      ],
      "name": "unarchiveModule",
      "outputs": [],
      "payable": false,
      "stateMutability": "nonpayable",
      "type": "function"
    },
    {
      "constant": false,
      "inputs": [
        {
          "name": "_partition",
          "type": "bytes32"
        },
        {
          "name": "_tokenHolder",
          "type": "address"
        },
        {
          "name": "_value",
          "type": "uint256"
        },
        {
          "name": "_data",
          "type": "bytes"
        },
        {
          "name": "_operatorData",
          "type": "bytes"
        }
      ],
      "name": "operatorRedeemByPartition",
      "outputs": [],
      "payable": false,
      "stateMutability": "nonpayable",
      "type": "function"
    },
    {
      "constant": true,
      "inputs": [],
      "name": "initialized",
      "outputs": [
        {
          "name": "",
          "type": "bool"
        }
      ],
      "payable": false,
      "stateMutability": "view",
      "type": "function"
    },
    {
      "constant": false,
      "inputs": [
        {
          "name": "_partition",
          "type": "bytes32"
        },
        {
          "name": "_operator",
          "type": "address"
        }
      ],
      "name": "revokeOperatorByPartition",
      "outputs": [],
      "payable": false,
      "stateMutability": "nonpayable",
      "type": "function"
    },
    {
      "constant": true,
      "inputs": [],
      "name": "totalSupply",
      "outputs": [
        {
          "name": "",
          "type": "uint256"
        }
      ],
      "payable": false,
      "stateMutability": "view",
      "type": "function"
    },
    {
      "constant": true,
      "inputs": [],
      "name": "holderCount",
      "outputs": [
        {
          "name": "",
          "type": "uint256"
        }
      ],
      "payable": false,
      "stateMutability": "view",
      "type": "function"
    },
    {
      "constant": true,
      "inputs": [
        {
          "name": "_to",
          "type": "address"
        },
        {
          "name": "_value",
          "type": "uint256"
        },
        {
          "name": "_data",
          "type": "bytes"
        }
      ],
      "name": "canTransfer",
      "outputs": [
        {
          "name": "",
          "type": "bytes1"
        },
        {
          "name": "",
          "type": "bytes32"
        }
      ],
      "payable": false,
      "stateMutability": "view",
      "type": "function"
    },
    {
      "constant": false,
      "inputs": [
        {
          "name": "_moduleFactory",
          "type": "address"
        },
        {
          "name": "_data",
          "type": "bytes"
        },
        {
          "name": "_maxCost",
          "type": "uint256"
        },
        {
          "name": "_budget",
          "type": "uint256"
        },
        {
          "name": "_label",
          "type": "bytes32"
        },
        {
          "name": "_archived",
          "type": "bool"
        }
      ],
      "name": "addModuleWithLabel",
      "outputs": [],
      "payable": false,
      "stateMutability": "nonpayable",
      "type": "function"
    },
    {
      "constant": false,
      "inputs": [
        {
          "name": "_granularity",
          "type": "uint256"
        }
      ],
      "name": "changeGranularity",
      "outputs": [],
      "payable": false,
      "stateMutability": "nonpayable",
      "type": "function"
    },
    {
      "constant": false,
      "inputs": [
        {
          "name": "_from",
          "type": "address"
        },
        {
          "name": "_to",
          "type": "address"
        },
        {
          "name": "_value",
          "type": "uint256"
        }
      ],
      "name": "transferFrom",
      "outputs": [
        {
          "name": "",
          "type": "bool"
        }
      ],
      "payable": false,
      "stateMutability": "nonpayable",
      "type": "function"
    },
    {
      "constant": false,
      "inputs": [
        {
          "name": "_to",
          "type": "address"
        },
        {
          "name": "_value",
          "type": "uint256"
        },
        {
          "name": "_data",
          "type": "bytes"
        }
      ],
      "name": "transferWithData",
      "outputs": [],
      "payable": false,
      "stateMutability": "nonpayable",
      "type": "function"
    },
    {
      "constant": false,
      "inputs": [
        {
          "name": "_tokenHolder",
          "type": "address"
        },
        {
          "name": "_value",
          "type": "uint256"
        },
        {
          "name": "_data",
          "type": "bytes"
        },
        {
          "name": "_operatorData",
          "type": "bytes"
        }
      ],
      "name": "controllerRedeem",
      "outputs": [],
      "payable": false,
      "stateMutability": "nonpayable",
      "type": "function"
    },
    {
      "constant": true,
      "inputs": [],
      "name": "getterDelegate",
      "outputs": [
        {
          "name": "",
          "type": "address"
        }
      ],
      "payable": false,
      "stateMutability": "view",
      "type": "function"
    },
    {
      "constant": true,
      "inputs": [
        {
          "name": "_partition",
          "type": "bytes32"
        },
        {
          "name": "_tokenHolder",
          "type": "address"
        }
      ],
      "name": "balanceOfByPartition",
      "outputs": [
        {
          "name": "",
          "type": "uint256"
        }
      ],
      "payable": false,
      "stateMutability": "view",
      "type": "function"
    },
    {
      "constant": true,
      "inputs": [],
      "name": "decimals",
      "outputs": [
        {
          "name": "",
          "type": "uint8"
        }
      ],
      "payable": false,
      "stateMutability": "view",
      "type": "function"
    },
    {
      "constant": false,
      "inputs": [],
      "name": "unfreezeTransfers",
      "outputs": [],
      "payable": false,
      "stateMutability": "nonpayable",
      "type": "function"
    },
    {
      "constant": false,
      "inputs": [
        {
          "name": "_module",
          "type": "address"
        }
      ],
      "name": "archiveModule",
      "outputs": [],
      "payable": false,
      "stateMutability": "nonpayable",
      "type": "function"
    },
    {
      "constant": false,
      "inputs": [
        {
          "name": "spender",
          "type": "address"
        },
        {
          "name": "addedValue",
          "type": "uint256"
        }
      ],
      "name": "increaseAllowance",
      "outputs": [
        {
          "name": "",
          "type": "bool"
        }
      ],
      "payable": false,
      "stateMutability": "nonpayable",
      "type": "function"
    },
    {
      "constant": true,
      "inputs": [],
      "name": "isControllable",
      "outputs": [
        {
          "name": "",
          "type": "bool"
        }
      ],
      "payable": false,
      "stateMutability": "view",
      "type": "function"
    },
    {
      "constant": true,
      "inputs": [
        {
          "name": "_module",
          "type": "address"
        },
        {
          "name": "_type",
          "type": "uint8"
        }
      ],
      "name": "isModule",
      "outputs": [
        {
          "name": "",
          "type": "bool"
        }
      ],
      "payable": false,
      "stateMutability": "view",
      "type": "function"
    },
    {
      "constant": false,
      "inputs": [
        {
          "name": "_name",
          "type": "string"
        }
      ],
      "name": "changeName",
      "outputs": [],
      "payable": false,
      "stateMutability": "nonpayable",
      "type": "function"
    },
    {
      "constant": false,
      "inputs": [
        {
          "name": "_wallet",
          "type": "address"
        }
      ],
      "name": "changeTreasuryWallet",
      "outputs": [],
      "payable": false,
      "stateMutability": "nonpayable",
      "type": "function"
    },
    {
      "constant": true,
      "inputs": [],
      "name": "currentCheckpointId",
      "outputs": [
        {
          "name": "",
          "type": "uint256"
        }
      ],
      "payable": false,
      "stateMutability": "view",
      "type": "function"
    },
    {
      "constant": true,
      "inputs": [],
      "name": "granularity",
      "outputs": [
        {
          "name": "",
          "type": "uint256"
        }
      ],
      "payable": false,
      "stateMutability": "view",
      "type": "function"
    },
    {
      "constant": false,
      "inputs": [
        {
          "name": "_module",
          "type": "address"
        },
        {
          "name": "_change",
          "type": "uint256"
        },
        {
          "name": "_increase",
          "type": "bool"
        }
      ],
      "name": "changeModuleBudget",
      "outputs": [],
      "payable": false,
      "stateMutability": "nonpayable",
      "type": "function"
    },
    {
      "constant": false,
      "inputs": [
        {
          "name": "_partition",
          "type": "bytes32"
        },
        {
          "name": "_value",
          "type": "uint256"
        },
        {
          "name": "_data",
          "type": "bytes"
        }
      ],
      "name": "redeemByPartition",
      "outputs": [],
      "payable": false,
      "stateMutability": "nonpayable",
      "type": "function"
    },
    {
      "constant": true,
      "inputs": [],
      "name": "dataStore",
      "outputs": [
        {
          "name": "",
          "type": "address"
        }
      ],
      "payable": false,
      "stateMutability": "view",
      "type": "function"
    },
    {
      "constant": false,
      "inputs": [
        {
          "name": "_partition",
          "type": "bytes32"
        },
        {
          "name": "_tokenHolder",
          "type": "address"
        },
        {
          "name": "_value",
          "type": "uint256"
        },
        {
          "name": "_data",
          "type": "bytes"
        }
      ],
      "name": "issueByPartition",
      "outputs": [],
      "payable": false,
      "stateMutability": "nonpayable",
      "type": "function"
    },
    {
      "constant": true,
      "inputs": [],
      "name": "polyToken",
      "outputs": [
        {
          "name": "",
          "type": "address"
        }
      ],
      "payable": false,
      "stateMutability": "view",
      "type": "function"
    },
    {
      "constant": true,
      "inputs": [
        {
          "name": "owner",
          "type": "address"
        }
      ],
      "name": "balanceOf",
      "outputs": [
        {
          "name": "",
          "type": "uint256"
        }
      ],
      "payable": false,
      "stateMutability": "view",
      "type": "function"
    },
    {
      "constant": false,
      "inputs": [
        {
          "name": "_newTokenDetails",
          "type": "string"
        }
      ],
      "name": "updateTokenDetails",
      "outputs": [],
      "payable": false,
      "stateMutability": "nonpayable",
      "type": "function"
    },
    {
      "constant": false,
      "inputs": [
        {
          "name": "_tokenHolders",
          "type": "address[]"
        },
        {
          "name": "_values",
          "type": "uint256[]"
        }
      ],
      "name": "issueMulti",
      "outputs": [],
      "payable": false,
      "stateMutability": "nonpayable",
      "type": "function"
    },
    {
      "constant": false,
      "inputs": [
        {
          "name": "_signature",
          "type": "bytes"
        }
      ],
      "name": "disableController",
      "outputs": [],
      "payable": false,
      "stateMutability": "nonpayable",
      "type": "function"
    },
    {
      "constant": true,
      "inputs": [],
      "name": "polymathRegistry",
      "outputs": [
        {
          "name": "",
          "type": "address"
        }
      ],
      "payable": false,
      "stateMutability": "view",
      "type": "function"
    },
    {
      "constant": true,
      "inputs": [],
      "name": "controllerDisabled",
      "outputs": [
        {
          "name": "",
          "type": "bool"
        }
      ],
      "payable": false,
      "stateMutability": "view",
      "type": "function"
    },
    {
      "constant": false,
      "inputs": [
        {
          "name": "_partition",
          "type": "bytes32"
        },
        {
          "name": "_from",
          "type": "address"
        },
        {
          "name": "_to",
          "type": "address"
        },
        {
          "name": "_value",
          "type": "uint256"
        },
        {
          "name": "_data",
          "type": "bytes"
        },
        {
          "name": "_operatorData",
          "type": "bytes"
        }
      ],
      "name": "operatorTransferByPartition",
      "outputs": [
        {
          "name": "",
          "type": "bytes32"
        }
      ],
      "payable": false,
      "stateMutability": "nonpayable",
      "type": "function"
    },
    {
      "constant": true,
      "inputs": [],
      "name": "owner",
      "outputs": [
        {
          "name": "",
          "type": "address"
        }
      ],
      "payable": false,
      "stateMutability": "view",
      "type": "function"
    },
    {
      "constant": true,
      "inputs": [],
      "name": "isOwner",
      "outputs": [
        {
          "name": "",
          "type": "bool"
        }
      ],
      "payable": false,
      "stateMutability": "view",
      "type": "function"
    },
    {
      "constant": false,
      "inputs": [
        {
          "name": "_controller",
          "type": "address"
        }
      ],
      "name": "setController",
      "outputs": [],
      "payable": false,
      "stateMutability": "nonpayable",
      "type": "function"
    },
    {
      "constant": false,
      "inputs": [
        {
          "name": "_dataStore",
          "type": "address"
        }
      ],
      "name": "changeDataStore",
      "outputs": [],
      "payable": false,
      "stateMutability": "nonpayable",
      "type": "function"
    },
    {
      "constant": false,
      "inputs": [
        {
          "name": "_operator",
          "type": "address"
        }
      ],
      "name": "authorizeOperator",
      "outputs": [],
      "payable": false,
      "stateMutability": "nonpayable",
      "type": "function"
    },
    {
      "constant": true,
      "inputs": [],
      "name": "symbol",
      "outputs": [
        {
          "name": "",
          "type": "string"
        }
      ],
      "payable": false,
      "stateMutability": "view",
      "type": "function"
    },
    {
      "constant": false,
      "inputs": [
        {
          "name": "_tokenHolder",
          "type": "address"
        },
        {
          "name": "_value",
          "type": "uint256"
        },
        {
          "name": "_data",
          "type": "bytes"
        }
      ],
      "name": "redeemFrom",
      "outputs": [],
      "payable": false,
      "stateMutability": "nonpayable",
      "type": "function"
    },
    {
      "constant": true,
      "inputs": [
        {
          "name": "_from",
          "type": "address"
        },
        {
          "name": "_to",
          "type": "address"
        },
        {
          "name": "_partition",
          "type": "bytes32"
        },
        {
          "name": "_value",
          "type": "uint256"
        },
        {
          "name": "_data",
          "type": "bytes"
        }
      ],
      "name": "canTransferByPartition",
      "outputs": [
        {
          "name": "reasonCode",
          "type": "bytes1"
        },
        {
          "name": "appStatusCode",
          "type": "bytes32"
        },
        {
          "name": "toPartition",
          "type": "bytes32"
        }
      ],
      "payable": false,
      "stateMutability": "view",
      "type": "function"
    },
    {
      "constant": false,
      "inputs": [
        {
          "name": "_module",
          "type": "address"
        }
      ],
      "name": "removeModule",
      "outputs": [],
      "payable": false,
      "stateMutability": "nonpayable",
      "type": "function"
    },
    {
      "constant": false,
      "inputs": [
        {
          "name": "_module",
          "type": "address"
        }
      ],
      "name": "upgradeModule",
      "outputs": [],
      "payable": false,
      "stateMutability": "nonpayable",
      "type": "function"
    },
    {
      "constant": false,
      "inputs": [
        {
          "name": "_tokenContract",
          "type": "address"
        },
        {
          "name": "_value",
          "type": "uint256"
        }
      ],
      "name": "withdrawERC20",
      "outputs": [],
      "payable": false,
      "stateMutability": "nonpayable",
      "type": "function"
    },
    {
      "constant": false,
      "inputs": [
        {
          "name": "spender",
          "type": "address"
        },
        {
          "name": "subtractedValue",
          "type": "uint256"
        }
      ],
      "name": "decreaseAllowance",
      "outputs": [
        {
          "name": "",
          "type": "bool"
        }
      ],
      "payable": false,
      "stateMutability": "nonpayable",
      "type": "function"
    },
    {
      "constant": false,
      "inputs": [
        {
          "name": "_to",
          "type": "address"
        },
        {
          "name": "_value",
          "type": "uint256"
        }
      ],
      "name": "transfer",
      "outputs": [
        {
          "name": "success",
          "type": "bool"
        }
      ],
      "payable": false,
      "stateMutability": "nonpayable",
      "type": "function"
    },
    {
      "constant": false,
      "inputs": [
        {
          "name": "_moduleFactory",
          "type": "address"
        },
        {
          "name": "_data",
          "type": "bytes"
        },
        {
          "name": "_maxCost",
          "type": "uint256"
        },
        {
          "name": "_budget",
          "type": "uint256"
        },
        {
          "name": "_archived",
          "type": "bool"
        }
      ],
      "name": "addModule",
      "outputs": [],
      "payable": false,
      "stateMutability": "nonpayable",
      "type": "function"
    },
    {
      "constant": true,
      "inputs": [],
      "name": "moduleRegistry",
      "outputs": [
        {
          "name": "",
          "type": "address"
        }
      ],
      "payable": false,
      "stateMutability": "view",
      "type": "function"
    },
    {
      "constant": false,
      "inputs": [
        {
          "name": "_tokenHolder",
          "type": "address"
        },
        {
          "name": "_value",
          "type": "uint256"
        },
        {
          "name": "_data",
          "type": "bytes"
        }
      ],
      "name": "issue",
      "outputs": [],
      "payable": false,
      "stateMutability": "nonpayable",
      "type": "function"
    },
    {
      "constant": false,
      "inputs": [
        {
          "name": "_name",
          "type": "bytes32"
        }
      ],
      "name": "removeDocument",
      "outputs": [],
      "payable": false,
      "stateMutability": "nonpayable",
      "type": "function"
    },
    {
      "constant": true,
      "inputs": [],
      "name": "securityTokenRegistry",
      "outputs": [
        {
          "name": "",
          "type": "address"
        }
      ],
      "payable": false,
      "stateMutability": "view",
      "type": "function"
    },
    {
      "constant": true,
      "inputs": [],
      "name": "tokenDetails",
      "outputs": [
        {
          "name": "",
          "type": "string"
        }
      ],
      "payable": false,
      "stateMutability": "view",
      "type": "function"
    },
    {
      "constant": false,
      "inputs": [
        {
          "name": "_signature",
          "type": "bytes"
        }
      ],
      "name": "freezeIssuance",
      "outputs": [],
      "payable": false,
      "stateMutability": "nonpayable",
      "type": "function"
    },
    {
      "constant": true,
      "inputs": [
        {
          "name": "owner",
          "type": "address"
        },
        {
          "name": "spender",
          "type": "address"
        }
      ],
      "name": "allowance",
      "outputs": [
        {
          "name": "",
          "type": "uint256"
        }
      ],
      "payable": false,
      "stateMutability": "view",
      "type": "function"
    },
    {
      "constant": true,
      "inputs": [],
      "name": "transfersFrozen",
      "outputs": [
        {
          "name": "",
          "type": "bool"
        }
      ],
      "payable": false,
      "stateMutability": "view",
      "type": "function"
    },
    {
      "constant": true,
      "inputs": [],
      "name": "tokenFactory",
      "outputs": [
        {
          "name": "",
          "type": "address"
        }
      ],
      "payable": false,
      "stateMutability": "view",
      "type": "function"
    },
    {
      "constant": false,
      "inputs": [
        {
          "name": "_value",
          "type": "uint256"
        },
        {
          "name": "_data",
          "type": "bytes"
        }
      ],
      "name": "redeem",
      "outputs": [],
      "payable": false,
      "stateMutability": "nonpayable",
      "type": "function"
    },
    {
      "constant": false,
      "inputs": [
        {
          "name": "_from",
          "type": "address"
        },
        {
          "name": "_to",
          "type": "address"
        },
        {
          "name": "_value",
          "type": "uint256"
        },
        {
          "name": "_data",
          "type": "bytes"
        }
      ],
      "name": "transferFromWithData",
      "outputs": [],
      "payable": false,
      "stateMutability": "nonpayable",
      "type": "function"
    },
    {
      "constant": false,
      "inputs": [
        {
          "name": "_from",
          "type": "address"
        },
        {
          "name": "_to",
          "type": "address"
        },
        {
          "name": "_value",
          "type": "uint256"
        },
        {
          "name": "_data",
          "type": "bytes"
        },
        {
          "name": "_operatorData",
          "type": "bytes"
        }
      ],
      "name": "controllerTransfer",
      "outputs": [],
      "payable": false,
      "stateMutability": "nonpayable",
      "type": "function"
    },
    {
      "constant": false,
      "inputs": [
        {
          "name": "newOwner",
          "type": "address"
        }
      ],
      "name": "transferOwnership",
      "outputs": [],
      "payable": false,
      "stateMutability": "nonpayable",
      "type": "function"
    },
    {
      "constant": false,
      "inputs": [
        {
          "name": "_partition",
          "type": "bytes32"
        },
        {
          "name": "_to",
          "type": "address"
        },
        {
          "name": "_value",
          "type": "uint256"
        },
        {
          "name": "_data",
          "type": "bytes"
        }
      ],
      "name": "transferByPartition",
      "outputs": [
        {
          "name": "",
          "type": "bytes32"
        }
      ],
      "payable": false,
      "stateMutability": "nonpayable",
      "type": "function"
    },
    {
      "constant": false,
      "inputs": [],
      "name": "updateFromRegistry",
      "outputs": [],
      "payable": false,
      "stateMutability": "nonpayable",
      "type": "function"
    },
    {
      "constant": true,
      "inputs": [],
      "name": "controller",
      "outputs": [
        {
          "name": "",
          "type": "address"
        }
      ],
      "payable": false,
      "stateMutability": "view",
      "type": "function"
    },
    {
      "constant": false,
      "inputs": [
        {
          "name": "_operator",
          "type": "address"
        }
      ],
      "name": "revokeOperator",
      "outputs": [],
      "payable": false,
      "stateMutability": "nonpayable",
      "type": "function"
    },
    {
      "constant": false,
      "inputs": [],
      "name": "createCheckpoint",
      "outputs": [
        {
          "name": "",
          "type": "uint256"
        }
      ],
      "payable": false,
      "stateMutability": "nonpayable",
      "type": "function"
    },
    {
      "payable": true,
      "stateMutability": "payable",
      "type": "fallback"
    },
    {
      "anonymous": false,
      "inputs": [
        {
          "indexed": false,
          "name": "_types",
          "type": "uint8[]"
        },
        {
          "indexed": true,
          "name": "_name",
          "type": "bytes32"
        },
        {
          "indexed": true,
          "name": "_moduleFactory",
          "type": "address"
        },
        {
          "indexed": false,
          "name": "_module",
          "type": "address"
        },
        {
          "indexed": false,
          "name": "_moduleCost",
          "type": "uint256"
        },
        {
          "indexed": false,
          "name": "_budget",
          "type": "uint256"
        },
        {
          "indexed": false,
          "name": "_label",
          "type": "bytes32"
        },
        {
          "indexed": false,
          "name": "_archived",
          "type": "bool"
        }
      ],
      "name": "ModuleAdded",
      "type": "event"
    },
    {
      "anonymous": false,
      "inputs": [
        {
          "indexed": false,
          "name": "_types",
          "type": "uint8[]"
        },
        {
          "indexed": false,
          "name": "_module",
          "type": "address"
        }
      ],
      "name": "ModuleUpgraded",
      "type": "event"
    },
    {
      "anonymous": false,
      "inputs": [
        {
          "indexed": false,
          "name": "_oldDetails",
          "type": "string"
        },
        {
          "indexed": false,
          "name": "_newDetails",
          "type": "string"
        }
      ],
      "name": "UpdateTokenDetails",
      "type": "event"
    },
    {
      "anonymous": false,
      "inputs": [
        {
          "indexed": false,
          "name": "_oldName",
          "type": "string"
        },
        {
          "indexed": false,
          "name": "_newName",
          "type": "string"
        }
      ],
      "name": "UpdateTokenName",
      "type": "event"
    },
    {
      "anonymous": false,
      "inputs": [
        {
          "indexed": false,
          "name": "_oldGranularity",
          "type": "uint256"
        },
        {
          "indexed": false,
          "name": "_newGranularity",
          "type": "uint256"
        }
      ],
      "name": "GranularityChanged",
      "type": "event"
    },
    {
      "anonymous": false,
      "inputs": [],
      "name": "FreezeIssuance",
      "type": "event"
    },
    {
      "anonymous": false,
      "inputs": [
        {
          "indexed": false,
          "name": "_status",
          "type": "bool"
        }
      ],
      "name": "FreezeTransfers",
      "type": "event"
    },
    {
      "anonymous": false,
      "inputs": [
        {
          "indexed": true,
          "name": "_checkpointId",
          "type": "uint256"
        },
        {
          "indexed": false,
          "name": "_investorLength",
          "type": "uint256"
        }
      ],
      "name": "CheckpointCreated",
      "type": "event"
    },
    {
      "anonymous": false,
      "inputs": [
        {
          "indexed": true,
          "name": "_oldController",
          "type": "address"
        },
        {
          "indexed": true,
          "name": "_newController",
          "type": "address"
        }
      ],
      "name": "SetController",
      "type": "event"
    },
    {
      "anonymous": false,
      "inputs": [
        {
          "indexed": false,
          "name": "_oldTreasuryWallet",
          "type": "address"
        },
        {
          "indexed": false,
          "name": "_newTreasuryWallet",
          "type": "address"
        }
      ],
      "name": "TreasuryWalletChanged",
      "type": "event"
    },
    {
      "anonymous": false,
      "inputs": [],
      "name": "DisableController",
      "type": "event"
    },
    {
      "anonymous": false,
      "inputs": [
        {
          "indexed": true,
          "name": "previousOwner",
          "type": "address"
        },
        {
          "indexed": true,
          "name": "newOwner",
          "type": "address"
        }
      ],
      "name": "OwnershipTransferred",
      "type": "event"
    },
    {
      "anonymous": false,
      "inputs": [
        {
          "indexed": false,
          "name": "_major",
          "type": "uint8"
        },
        {
          "indexed": false,
          "name": "_minor",
          "type": "uint8"
        },
        {
          "indexed": false,
          "name": "_patch",
          "type": "uint8"
        }
      ],
      "name": "TokenUpgraded",
      "type": "event"
    },
    {
      "anonymous": false,
      "inputs": [
        {
          "indexed": false,
          "name": "_types",
          "type": "uint8[]"
        },
        {
          "indexed": false,
          "name": "_module",
          "type": "address"
        }
      ],
      "name": "ModuleArchived",
      "type": "event"
    },
    {
      "anonymous": false,
      "inputs": [
        {
          "indexed": false,
          "name": "_types",
          "type": "uint8[]"
        },
        {
          "indexed": false,
          "name": "_module",
          "type": "address"
        }
      ],
      "name": "ModuleUnarchived",
      "type": "event"
    },
    {
      "anonymous": false,
      "inputs": [
        {
          "indexed": false,
          "name": "_types",
          "type": "uint8[]"
        },
        {
          "indexed": false,
          "name": "_module",
          "type": "address"
        }
      ],
      "name": "ModuleRemoved",
      "type": "event"
    },
    {
      "anonymous": false,
      "inputs": [
        {
          "indexed": false,
          "name": "_moduleTypes",
          "type": "uint8[]"
        },
        {
          "indexed": false,
          "name": "_module",
          "type": "address"
        },
        {
          "indexed": false,
          "name": "_oldBudget",
          "type": "uint256"
        },
        {
          "indexed": false,
          "name": "_budget",
          "type": "uint256"
        }
      ],
      "name": "ModuleBudgetChanged",
      "type": "event"
    },
    {
      "anonymous": false,
      "inputs": [
        {
          "indexed": true,
          "name": "_fromPartition",
          "type": "bytes32"
        },
        {
          "indexed": false,
          "name": "_operator",
          "type": "address"
        },
        {
          "indexed": true,
          "name": "_from",
          "type": "address"
        },
        {
          "indexed": true,
          "name": "_to",
          "type": "address"
        },
        {
          "indexed": false,
          "name": "_value",
          "type": "uint256"
        },
        {
          "indexed": false,
          "name": "_data",
          "type": "bytes"
        },
        {
          "indexed": false,
          "name": "_operatorData",
          "type": "bytes"
        }
      ],
      "name": "TransferByPartition",
      "type": "event"
    },
    {
      "anonymous": false,
      "inputs": [
        {
          "indexed": true,
          "name": "operator",
          "type": "address"
        },
        {
          "indexed": true,
          "name": "tokenHolder",
          "type": "address"
        }
      ],
      "name": "AuthorizedOperator",
      "type": "event"
    },
    {
      "anonymous": false,
      "inputs": [
        {
          "indexed": true,
          "name": "operator",
          "type": "address"
        },
        {
          "indexed": true,
          "name": "tokenHolder",
          "type": "address"
        }
      ],
      "name": "RevokedOperator",
      "type": "event"
    },
    {
      "anonymous": false,
      "inputs": [
        {
          "indexed": true,
          "name": "partition",
          "type": "bytes32"
        },
        {
          "indexed": true,
          "name": "operator",
          "type": "address"
        },
        {
          "indexed": true,
          "name": "tokenHolder",
          "type": "address"
        }
      ],
      "name": "AuthorizedOperatorByPartition",
      "type": "event"
    },
    {
      "anonymous": false,
      "inputs": [
        {
          "indexed": true,
          "name": "partition",
          "type": "bytes32"
        },
        {
          "indexed": true,
          "name": "operator",
          "type": "address"
        },
        {
          "indexed": true,
          "name": "tokenHolder",
          "type": "address"
        }
      ],
      "name": "RevokedOperatorByPartition",
      "type": "event"
    },
    {
      "anonymous": false,
      "inputs": [
        {
          "indexed": true,
          "name": "partition",
          "type": "bytes32"
        },
        {
          "indexed": true,
          "name": "to",
          "type": "address"
        },
        {
          "indexed": false,
          "name": "value",
          "type": "uint256"
        },
        {
          "indexed": false,
          "name": "data",
          "type": "bytes"
        }
      ],
      "name": "IssuedByPartition",
      "type": "event"
    },
    {
      "anonymous": false,
      "inputs": [
        {
          "indexed": true,
          "name": "partition",
          "type": "bytes32"
        },
        {
          "indexed": true,
          "name": "operator",
          "type": "address"
        },
        {
          "indexed": true,
          "name": "from",
          "type": "address"
        },
        {
          "indexed": false,
          "name": "value",
          "type": "uint256"
        },
        {
          "indexed": false,
          "name": "data",
          "type": "bytes"
        },
        {
          "indexed": false,
          "name": "operatorData",
          "type": "bytes"
        }
      ],
      "name": "RedeemedByPartition",
      "type": "event"
    },
    {
      "anonymous": false,
      "inputs": [
        {
          "indexed": false,
          "name": "_controller",
          "type": "address"
        },
        {
          "indexed": true,
          "name": "_from",
          "type": "address"
        },
        {
          "indexed": true,
          "name": "_to",
          "type": "address"
        },
        {
          "indexed": false,
          "name": "_value",
          "type": "uint256"
        },
        {
          "indexed": false,
          "name": "_data",
          "type": "bytes"
        },
        {
          "indexed": false,
          "name": "_operatorData",
          "type": "bytes"
        }
      ],
      "name": "ControllerTransfer",
      "type": "event"
    },
    {
      "anonymous": false,
      "inputs": [
        {
          "indexed": false,
          "name": "_controller",
          "type": "address"
        },
        {
          "indexed": true,
          "name": "_tokenHolder",
          "type": "address"
        },
        {
          "indexed": false,
          "name": "_value",
          "type": "uint256"
        },
        {
          "indexed": false,
          "name": "_data",
          "type": "bytes"
        },
        {
          "indexed": false,
          "name": "_operatorData",
          "type": "bytes"
        }
      ],
      "name": "ControllerRedemption",
      "type": "event"
    },
    {
      "anonymous": false,
      "inputs": [
        {
          "indexed": true,
          "name": "_name",
          "type": "bytes32"
        },
        {
          "indexed": false,
          "name": "_uri",
          "type": "string"
        },
        {
          "indexed": false,
          "name": "_documentHash",
          "type": "bytes32"
        }
      ],
      "name": "DocumentRemoved",
      "type": "event"
    },
    {
      "anonymous": false,
      "inputs": [
        {
          "indexed": true,
          "name": "_name",
          "type": "bytes32"
        },
        {
          "indexed": false,
          "name": "_uri",
          "type": "string"
        },
        {
          "indexed": false,
          "name": "_documentHash",
          "type": "bytes32"
        }
      ],
      "name": "DocumentUpdated",
      "type": "event"
    },
    {
      "anonymous": false,
      "inputs": [
        {
          "indexed": true,
          "name": "_operator",
          "type": "address"
        },
        {
          "indexed": true,
          "name": "_to",
          "type": "address"
        },
        {
          "indexed": false,
          "name": "_value",
          "type": "uint256"
        },
        {
          "indexed": false,
          "name": "_data",
          "type": "bytes"
        }
      ],
      "name": "Issued",
      "type": "event"
    },
    {
      "anonymous": false,
      "inputs": [
        {
          "indexed": true,
          "name": "_operator",
          "type": "address"
        },
        {
          "indexed": true,
          "name": "_from",
          "type": "address"
        },
        {
          "indexed": false,
          "name": "_value",
          "type": "uint256"
        },
        {
          "indexed": false,
          "name": "_data",
          "type": "bytes"
        }
      ],
      "name": "Redeemed",
      "type": "event"
    },
    {
      "anonymous": false,
      "inputs": [
        {
          "indexed": true,
          "name": "from",
          "type": "address"
        },
        {
          "indexed": true,
          "name": "to",
          "type": "address"
        },
        {
          "indexed": false,
          "name": "value",
          "type": "uint256"
        }
      ],
      "name": "Transfer",
      "type": "event"
    },
    {
      "anonymous": false,
      "inputs": [
        {
          "indexed": true,
          "name": "owner",
          "type": "address"
        },
        {
          "indexed": true,
          "name": "spender",
          "type": "address"
        },
        {
          "indexed": false,
          "name": "value",
          "type": "uint256"
        }
      ],
      "name": "Approval",
      "type": "event"
    },
    {
      "constant": false,
      "inputs": [
        {
          "name": "_getterDelegate",
          "type": "address"
        }
      ],
      "name": "initialize",
      "outputs": [],
      "payable": false,
      "stateMutability": "nonpayable",
      "type": "function"
    }
  ],
  "bytecode": "0x60806040526012805460ff1990811690915560148054909116600190811790915560035560058054600160a01b60ff02191674010000000000000000000000000000000000000000179055615c01806100596000396000f3fe6080604052600436106104475760003560e01c806374c9637211610234578063b95459e41161012e578063e77772fe116100b6578063f3d490db1161007a578063f3d490db14611bb0578063f433262f14611c7d578063f77c479114611c92578063fad8b32a14611ca7578063ff0b9c9014611cda57610447565b8063e77772fe1461192a578063e77c646d1461193f578063ee532f31146119c1578063f282527a14611a92578063f2fde38b14611b7d57610447565b8063ce4dbdff116100fd578063ce4dbdff14611835578063d6abe1101461184a578063dc722e3a1461185f578063dd62ed3e146118da578063e45b81341461191557610447565b8063b95459e4146116fd578063bb3acde914611712578063c3501848146117d8578063c4d66de81461180257610447565b8063959b8c3f116101bc578063a16c3a0911610180578063a16c3a0914611586578063a1db9782146115b9578063a457c2d7146115f2578063a9059cbb1461162b578063a9f86e2c1461166457610447565b8063959b8c3f146113b257806395d89b41146113e55780639675193c146113fa5780639945e70e1461148a578063a06324611461155357610447565b80638c0dee9c116102035780638c0dee9c146112325780638da5cb5b146113225780638f32d59b1461133757806392eefe9b1461134c578063942df3251461137f57610447565b806374c963721461105d57806374fee0c01461118d57806377282b70146112085780637a802c711461121d57610447565b80632fb3b99d11610345578063537c1ac7116102cd578063660d0d6711610291578063660d0d6714610eee57806367c8491914610f035780636faa22a514610f9a57806370a0823114610faf57806373826a9314610fe257610447565b8063537c1ac714610dc95780635488cc8014610dfc578063556f0dc714610e1157806362b348c314610e2657806362eb006814610e6757610447565b80633576857e116103145780633576857e14610c915780633950935114610cc45780634c783bf514610cfd57806352cfe56314610d125780635353a2d814610d4e57610447565b80632fb3b99d14610be757806330e8280314610c18578063313ce56714610c5157806331c420d414610c7c57610447565b8063158ef93e116103d35780631e6f20f8116103975780631e6f20f814610900578063210a8d0e146109d457806323b872dd146109fe5780632535f76214610a415780632bc6acc314610b0757610447565b8063158ef93e146107e6578063168ecec5146107fb57806318160ddd146108345780631aab9a9f1461085b5780631badb25c1461087057610447565b80630c9125551161041a5780630c912555146105bf578063103ef9e1146105d4578063122eb5751461060d57806312ef7fe2146106cc57806313d557bc146106ff57610447565b8063010648ca1461045157806301502460146104d357806306fdde03146104e8578063095ea7b314610572575b61044f611cef565b005b34801561045d57600080fd5b5061044f6004803603606081101561047457600080fd5b81359190810190604081016020820135600160201b81111561049557600080fd5b8201836020820111156104a757600080fd5b803590602001918460018302840111600160201b831117156104c857600080fd5b919350915035611d01565b3480156104df57600080fd5b5061044f611dcd565b3480156104f457600080fd5b506104fd611e2f565b6040805160208082528351818301528351919283929083019185019080838360005b8381101561053757818101518382015260200161051f565b50505050905090810190601f1680156105645780820380516001836020036101000a031916815260200191505b509250505060405180910390f35b34801561057e57600080fd5b506105ab6004803603604081101561059557600080fd5b506001600160a01b038135169060200135611ebd565b604080519115158252519081900360200190f35b3480156105cb57600080fd5b5061044f611ed4565b3480156105e057600080fd5b5061044f600480360360408110156105f757600080fd5b50803590602001356001600160a01b0316611f9a565b34801561061957600080fd5b506106a86004803603608081101561063057600080fd5b6001600160a01b03823581169260208101359091169160408201359190810190608081016060820135600160201b81111561066a57600080fd5b82018360208201111561067c57600080fd5b803590602001918460018302840111600160201b8311171561069d57600080fd5b509092509050612007565b604080516001600160f81b0319909316835260208301919091528051918290030190f35b3480156106d857600080fd5b5061044f600480360360208110156106ef57600080fd5b50356001600160a01b031661208e565b34801561070b57600080fd5b5061044f600480360360a081101561072257600080fd5b8135916001600160a01b036020820135169160408201359190810190608081016060820135600160201b81111561075857600080fd5b82018360208201111561076a57600080fd5b803590602001918460018302840111600160201b8311171561078b57600080fd5b919390929091602081019035600160201b8111156107a857600080fd5b8201836020820111156107ba57600080fd5b803590602001918460018302840111600160201b831117156107db57600080fd5b509092509050612127565b3480156107f257600080fd5b506105ab6121f6565b34801561080757600080fd5b5061044f6004803603604081101561081e57600080fd5b50803590602001356001600160a01b0316612206565b34801561084057600080fd5b50610849612270565b60408051918252519081900360200190f35b34801561086757600080fd5b50610849612277565b34801561087c57600080fd5b506106a86004803603606081101561089357600080fd5b6001600160a01b0382351691602081013591810190606081016040820135600160201b8111156108c257600080fd5b8201836020820111156108d457600080fd5b803590602001918460018302840111600160201b831117156108f557600080fd5b50909250905061227d565b34801561090c57600080fd5b5061044f600480360360c081101561092357600080fd5b6001600160a01b038235169190810190604081016020820135600160201b81111561094d57600080fd5b82018360208201111561095f57600080fd5b803590602001918460018302840111600160201b8311171561098057600080fd5b91908080601f016020809104026020016040519081016040528093929190818152602001838380828437600092019190915250929550508235935050506020810135906040810135906060013515156122d0565b3480156109e057600080fd5b5061044f600480360360208110156109f757600080fd5b503561275c565b348015610a0a57600080fd5b506105ab60048036036060811015610a2157600080fd5b506001600160a01b038135811691602081013590911690604001356127fb565b348015610a4d57600080fd5b5061044f60048036036060811015610a6457600080fd5b6001600160a01b0382351691602081013591810190606081016040820135600160201b811115610a9357600080fd5b820183602082011115610aa557600080fd5b803590602001918460018302840111600160201b83111715610ac657600080fd5b91908080601f016020809104026020016040519081016040528093929190818152602001838380828437600092019190915250929550612822945050505050565b348015610b1357600080fd5b5061044f60048036036080811015610b2a57600080fd5b6001600160a01b0382351691602081013591810190606081016040820135600160201b811115610b5957600080fd5b820183602082011115610b6b57600080fd5b803590602001918460018302840111600160201b83111715610b8c57600080fd5b919390929091602081019035600160201b811115610ba957600080fd5b820183602082011115610bbb57600080fd5b803590602001918460018302840111600160201b83111715610bdc57600080fd5b509092509050612833565b348015610bf357600080fd5b50610bfc61293d565b604080516001600160a01b039092168252519081900360200190f35b348015610c2457600080fd5b5061084960048036036040811015610c3b57600080fd5b50803590602001356001600160a01b031661294c565b348015610c5d57600080fd5b50610c66612961565b6040805160ff9092168252519081900360200190f35b348015610c8857600080fd5b5061044f61296a565b348015610c9d57600080fd5b5061044f60048036036020811015610cb457600080fd5b50356001600160a01b03166129c7565b348015610cd057600080fd5b506105ab60048036036040811015610ce757600080fd5b506001600160a01b038135169060200135612a38565b348015610d0957600080fd5b506105ab612a79565b348015610d1e57600080fd5b506105ab60048036036040811015610d3557600080fd5b5080356001600160a01b0316906020013560ff16612a83565b348015610d5a57600080fd5b5061044f60048036036020811015610d7157600080fd5b810190602081018135600160201b811115610d8b57600080fd5b820183602082011115610d9d57600080fd5b803590602001918460018302840111600160201b83111715610dbe57600080fd5b509092509050612b74565b348015610dd557600080fd5b5061044f60048036036020811015610dec57600080fd5b50356001600160a01b0316612c70565b348015610e0857600080fd5b50610849612de7565b348015610e1d57600080fd5b50610849612ded565b348015610e3257600080fd5b5061044f60048036036060811015610e4957600080fd5b506001600160a01b0381351690602081013590604001351515612df3565b348015610e7357600080fd5b5061044f60048036036060811015610e8a57600080fd5b813591602081013591810190606081016040820135600160201b811115610eb057600080fd5b820183602082011115610ec257600080fd5b803590602001918460018302840111600160201b83111715610ee357600080fd5b509092509050612e8d565b348015610efa57600080fd5b50610bfc612ef8565b348015610f0f57600080fd5b5061044f60048036036080811015610f2657600080fd5b8135916001600160a01b036020820135169160408201359190810190608081016060820135600160201b811115610f5c57600080fd5b820183602082011115610f6e57600080fd5b803590602001918460018302840111600160201b83111715610f8f57600080fd5b509092509050612f07565b348015610fa657600080fd5b50610bfc612fcb565b348015610fbb57600080fd5b5061084960048036036020811015610fd257600080fd5b50356001600160a01b0316612fda565b348015610fee57600080fd5b5061044f6004803603602081101561100557600080fd5b810190602081018135600160201b81111561101f57600080fd5b82018360208201111561103157600080fd5b803590602001918460018302840111600160201b8311171561105257600080fd5b509092509050612ff5565b34801561106957600080fd5b5061044f6004803603604081101561108057600080fd5b810190602081018135600160201b81111561109a57600080fd5b8201836020820111156110ac57600080fd5b803590602001918460208302840111600160201b831117156110cd57600080fd5b9190808060200260200160405190810160405280939291908181526020018383602002808284376000920191909152509295949360208101935035915050600160201b81111561111c57600080fd5b82018360208201111561112e57600080fd5b803590602001918460208302840111600160201b8311171561114f57600080fd5b9190808060200260200160405190810160405280939291908181526020018383602002808284376000920191909152509295506130e7945050505050565b34801561119957600080fd5b5061044f600480360360208110156111b057600080fd5b810190602081018135600160201b8111156111ca57600080fd5b8201836020820111156111dc57600080fd5b803590602001918460018302840111600160201b831117156111fd57600080fd5b50909250905061315b565b34801561121457600080fd5b50610bfc61328d565b34801561122957600080fd5b506105ab61329c565b34801561123e57600080fd5b50610849600480360360c081101561125557600080fd5b8135916001600160a01b03602082013581169260408301359091169160608101359181019060a081016080820135600160201b81111561129457600080fd5b8201836020820111156112a657600080fd5b803590602001918460018302840111600160201b831117156112c757600080fd5b919390929091602081019035600160201b8111156112e457600080fd5b8201836020820111156112f657600080fd5b803590602001918460018302840111600160201b8311171561131757600080fd5b5090925090506132a5565b34801561132e57600080fd5b50610bfc613369565b34801561134357600080fd5b506105ab613378565b34801561135857600080fd5b5061044f6004803603602081101561136f57600080fd5b50356001600160a01b0316613389565b34801561138b57600080fd5b5061044f600480360360208110156113a257600080fd5b50356001600160a01b0316613409565b3480156113be57600080fd5b5061044f600480360360208110156113d557600080fd5b50356001600160a01b031661343c565b3480156113f157600080fd5b506104fd613482565b34801561140657600080fd5b5061044f6004803603606081101561141d57600080fd5b6001600160a01b0382351691602081013591810190606081016040820135600160201b81111561144c57600080fd5b82018360208201111561145e57600080fd5b803590602001918460018302840111600160201b8311171561147f57600080fd5b5090925090506134dd565b34801561149657600080fd5b5061152a600480360360a08110156114ad57600080fd5b6001600160a01b03823581169260208101359091169160408201359160608101359181019060a081016080820135600160201b8111156114ec57600080fd5b8201836020820111156114fe57600080fd5b803590602001918460018302840111600160201b8311171561151f57600080fd5b5090925090506135be565b604080516001600160f81b03199094168452602084019290925282820152519081900360600190f35b34801561155f57600080fd5b5061044f6004803603602081101561157657600080fd5b50356001600160a01b031661369a565b34801561159257600080fd5b5061044f600480360360208110156115a957600080fd5b50356001600160a01b0316613714565b3480156115c557600080fd5b5061044f600480360360408110156115dc57600080fd5b506001600160a01b038135169060200135613792565b3480156115fe57600080fd5b506105ab6004803603604081101561161557600080fd5b506001600160a01b038135169060200135613837565b34801561163757600080fd5b506105ab6004803603604081101561164e57600080fd5b506001600160a01b038135169060200135613873565b34801561167057600080fd5b5061044f600480360360a081101561168757600080fd5b6001600160a01b038235169190810190604081016020820135600160201b8111156116b157600080fd5b8201836020820111156116c357600080fd5b803590602001918460018302840111600160201b831117156116e457600080fd5b9193509150803590602081013590604001351515613890565b34801561170957600080fd5b50610bfc6138dc565b34801561171e57600080fd5b5061044f6004803603606081101561173557600080fd5b6001600160a01b0382351691602081013591810190606081016040820135600160201b81111561176457600080fd5b82018360208201111561177657600080fd5b803590602001918460018302840111600160201b8311171561179757600080fd5b91908080601f0160208091040260200160405190810160405280939291908181526020018383808284376000920191909152509295506138eb945050505050565b3480156117e457600080fd5b5061044f600480360360208110156117fb57600080fd5b5035613908565b34801561180e57600080fd5b5061044f6004803603602081101561182557600080fd5b50356001600160a01b031661397a565b34801561184157600080fd5b50610bfc6139bf565b34801561185657600080fd5b506104fd6139ce565b34801561186b57600080fd5b5061044f6004803603602081101561188257600080fd5b810190602081018135600160201b81111561189c57600080fd5b8201836020820111156118ae57600080fd5b803590602001918460018302840111600160201b831117156118cf57600080fd5b509092509050613a29565b3480156118e657600080fd5b50610849600480360360408110156118fd57600080fd5b506001600160a01b0381358116916020013516613af2565b34801561192157600080fd5b506105ab613b1d565b34801561193657600080fd5b50610bfc613b2b565b34801561194b57600080fd5b5061044f6004803603604081101561196257600080fd5b81359190810190604081016020820135600160201b81111561198357600080fd5b82018360208201111561199557600080fd5b803590602001918460018302840111600160201b831117156119b657600080fd5b509092509050613b3a565b3480156119cd57600080fd5b5061044f600480360360808110156119e457600080fd5b6001600160a01b03823581169260208101359091169160408201359190810190608081016060820135600160201b811115611a1e57600080fd5b820183602082011115611a3057600080fd5b803590602001918460018302840111600160201b83111715611a5157600080fd5b91908080601f016020809104026020016040519081016040528093929190818152602001838380828437600092019190915250929550613b85945050505050565b348015611a9e57600080fd5b5061044f600480360360a0811015611ab557600080fd5b6001600160a01b03823581169260208101359091169160408201359190810190608081016060820135600160201b811115611aef57600080fd5b820183602082011115611b0157600080fd5b803590602001918460018302840111600160201b83111715611b2257600080fd5b919390929091602081019035600160201b811115611b3f57600080fd5b820183602082011115611b5157600080fd5b803590602001918460018302840111600160201b83111715611b7257600080fd5b509092509050613bad565b348015611b8957600080fd5b5061044f60048036036020811015611ba057600080fd5b50356001600160a01b0316613cce565b348015611bbc57600080fd5b5061084960048036036080811015611bd357600080fd5b8135916001600160a01b036020820135169160408201359190810190608081016060820135600160201b811115611c0957600080fd5b820183602082011115611c1b57600080fd5b803590602001918460018302840111600160201b83111715611c3c57600080fd5b91908080601f016020809104026020016040519081016040528093929190818152602001838380828437600092019190915250929550613ce2945050505050565b348015611c8957600080fd5b5061044f613d0c565b348015611c9e57600080fd5b50610bfc613f42565b348015611cb357600080fd5b5061044f60048036036020811015611cca57600080fd5b50356001600160a01b0316613f56565b348015611ce657600080fd5b50610849613f9b565b611cff611cfa6140d9565b6140e8565b565b611d0961410c565b73__TokenLib______________________________63e8f20292601d6015601e888888886040518863ffffffff1660e01b815260040180888152602001878152602001868152602001858152602001806020018381526020018281038252858582818152602001925080828437600081840152601f19601f8201169050808301925050509850505050505050505060006040518083038186803b158015611daf57600080fd5b505af4158015611dc3573d6000803e3d6000fd5b5050505050505050565b611dd561410c565b601254610100900460ff1615611dea57600080fd5b6012805461ff001916610100179055604080516001815290517fac199452244e92d1343195dfad0a5347b229c861e3a8f2fbf08ab519b1d55bc99181900360200190a1565b6006805460408051602060026001851615610100026000190190941693909304601f81018490048402820184019092528181529291830182828015611eb55780601f10611e8a57610100808354040283529160200191611eb5565b820191906000526020600020905b815481529060010190602001808311611e9857829003601f168201915b505050505081565b6000611eca33848461411d565b5060015b92915050565b611edc61410c565b60055460408051600160e01b63a62d3a45028152600a600482015290516001600160a01b039092169163a62d3a459160248082019260009290919082900301818387803b158015611f2c57600080fd5b505af1158015611f40573d6000803e3d6000fd5b50506017546040805160ff80841682526101008404811660208301526201000090930490921682820152517f23af9b477abf9645be8a074be19ae4a47e11abc43bd1aa47b16de7eb856093029350908190036060019150a1565b611fa3826141a5565b336000818152601f6020908152604080832086845282528083206001600160a01b0386168085529252808320805460ff1916600117905551909185917f3646a897c70797ecc134b0adc32f471b07bf1d6f451133b0384badab531e3fd69190a45050565b60008061204c87878787878080601f01602080910402602001604051908101604052809392919081815260200183838082843760009201919091525061420a92505050565b909250905061205a82614460565b801561206e575061206b8733613af2565b85115b156120845761207d6003614472565b9150600090505b9550959350505050565b61209661410c565b600a546001600160a01b038281166000908152601960205260408082208151600160e41b63097137350281529390941660048401526024830193909352915173__TokenLib______________________________9263971373509260448082019391829003018186803b15801561210c57600080fd5b505af4158015612120573d6000803e3d6000fd5b5050505050565b612131600561448c565b8181600081811061213e57fe5b9050013560f81c60f81b6001600160f81b031916600060f81b141561216257600080fd5b61216b8661449f565b6121768787336144fd565b6121ed8787873388888080601f01602080910402602001604051908101604052809392919081815260200183838082843760009201919091525050604080516020601f8c018190048102820181019092528a815292508a915089908190840183828082843760009201919091525061451192505050565b50505050505050565b600554600160a01b900460ff1681565b61220f826141a5565b336000818152601f6020908152604080832086845282528083206001600160a01b0386168085529252808320805460ff1916905551909185917f3b287c4f1bab4df949b33bceacef984f544dc5d5479930d00e4ee8c9d8dd96f29190a45050565b6002545b90565b60135481565b6000806122c233878787878080601f01602080910402602001604051908101604052809392919081815260200183838082843760009201919091525061420a92505050565b915091505b94509492505050565b60038054600101908190556122e361410c565b600a5460408051600160e11b631b7791670281526001600160a01b038a8116600483015260006024830181905292519316926336ef22ce9260448084019391929182900301818387803b15801561233957600080fd5b505af115801561234d573d6000803e3d6000fd5b5050505060008790506060816001600160a01b031663b4579d606040518163ffffffff1660e01b815260040160006040518083038186803b15801561239157600080fd5b505afa1580156123a5573d6000803e3d6000fd5b505050506040513d6000823e601f3d908101601f1916820160405260208110156123ce57600080fd5b810190808051600160201b8111156123e557600080fd5b820160208101848111156123f857600080fd5b81518560208202830111600160201b8211171561241457600080fd5b505092919050505090506000826001600160a01b0316632d0aa22e6040518163ffffffff1660e01b8152600401602060405180830381600087803b15801561245b57600080fd5b505af115801561246f573d6000803e3d6000fd5b505050506040513d602081101561248557600080fd5b50519050878111156124e15760408051600160e51b62461bcd02815260206004820152600c60248201527f496e76616c696420636f73740000000000000000000000000000000000000000604482015290519081900360640190fd5b600c5460408051600160e01b63095ea7b30281526001600160a01b038d81166004830152602482018590529151919092169163095ea7b39160448083019260209291908290030181600087803b15801561253a57600080fd5b505af115801561254e573d6000803e3d6000fd5b505050506040513d602081101561256457600080fd5b5050604051600160e51b6203ba1b0281526020600482018181528b5160248401528b516000936001600160a01b0388169362774360938f9390928392604490910191908501908083838b5b838110156125c75781810151838201526020016125af565b50505050905090810190601f1680156125f45780820380516001836020036101000a031916815260200191505b5092505050602060405180830381600087803b15801561261357600080fd5b505af1158015612627573d6000803e3d6000fd5b505050506040513d602081101561263d57600080fd5b50516001600160a01b0380821660009081526019602052604090206001015491925016156126b55760408051600160e51b62461bcd02815260206004820152600d60248201527f4d6f64756c652065786973747300000000000000000000000000000000000000604482015290519081900360640190fd5b600c5460408051600160e01b63095ea7b30281526001600160a01b038481166004830152602482018c90529151919092169163095ea7b39160448083019260209291908290030181600087803b15801561270e57600080fd5b505af1158015612722573d6000803e3d6000fd5b505050506040513d602081101561273857600080fd5b5061274a9050838c83858c8c8c614641565b5050505060035481146121ed57600080fd5b61276461410c565b806127b95760408051600160e51b62461bcd02815260206004820152601360248201527f496e76616c6964206772616e756c617269747900000000000000000000000000604482015290519081900360640190fd5b600f54604080519182526020820183905280517f7728e5c461dd94b32a33e149f4ef6b674a7eff704cac77b26937eaced90f00389281900390910190a1600f55565b600061281884848460405180602001604052806000815250613b85565b5060019392505050565b61282e33848484614a16565b505050565b61283b614a30565b61287c868686868080601f016020809104026020016040519081016040528093929190818152602001838380828437600092019190915250614a5b92505050565b50856001600160a01b03167f876b7cb47aa150b3a5516188b19ed308752ad4d0ae9a702543353b78163f758933878787878760405180876001600160a01b03166001600160a01b0316815260200186815260200180602001806020018381038352878782818152602001925080828437600083820152601f01601f191690910184810383528581526020019050858580828437600083820152604051601f909101601f19169092018290039a509098505050505050505050a2505050505050565b600d546001600160a01b031681565b600061295a83836000614b33565b9392505050565b60085460ff1681565b61297261410c565b601254610100900460ff1661298657600080fd5b6012805461ff0019169055604080516000815290517fac199452244e92d1343195dfad0a5347b229c861e3a8f2fbf08ab519b1d55bc99181900360200190a1565b6129cf61410c565b6001600160a01b0381166000908152601960205260408082208151600160e01b63ad2426150281526004810191909152905173__TokenLib______________________________9263ad2426159260248082019391829003018186803b15801561210c57600080fd5b3360008181526001602090815260408083206001600160a01b03871684529091528120549091611eca918590612a74908663ffffffff614cc216565b61411d565b60125460ff161590565b6001600160a01b03808316600081815260196020526040812060010154909216141580612ad257506001600160a01b038316600090815260196020526040902060020154600160a01b900460ff165b15612adf57506000611ece565b60005b6001600160a01b038416600090815260196020526040902060030154811015612b6a576001600160a01b0384166000908152601960205260409020600301805460ff8516919083908110612b3257fe5b60009182526020918290209181049091015460ff601f9092166101000a9004161415612b62576001915050611ece565b600101612ae2565b5060009392505050565b612b7c61410c565b80612b8657600080fd5b6040805181815260068054600260001961010060018416150201909116049282018390527f99b81fd13cfa16f6b748b388ac4e3059f0d9e1166c6c99b07ff0f4aa308ca43c929091859185919081906020820190606083019087908015612c2e5780601f10612c0357610100808354040283529160200191612c2e565b820191906000526020600020905b815481529060010190602001808311612c1157829003601f168201915b50508381038252848152602001858580828437600083820152604051601f909101601f191690920182900397509095505050505050a161282e60068383615a42565b612c7861410c565b612c818161449f565b600e5460408051600160e01b6321f8a7210281527faae8817359f3dcb67d050f44f3e49f982e0359d90ca4b5f18569926304aaece6600482015290517f419d718138b0b65d09976f881eed8b8d7075d4b6092f74af0a0ec9b3417cdd12926001600160a01b0316916321f8a721916024808301926020929190829003018186803b158015612d0e57600080fd5b505afa158015612d22573d6000803e3d6000fd5b505050506040513d6020811015612d3857600080fd5b5051604080516001600160a01b03928316815291841660208301528051918290030190a1600e5460408051600160e01b63ca446dd90281527faae8817359f3dcb67d050f44f3e49f982e0359d90ca4b5f18569926304aaece660048201526001600160a01b0384811660248301529151919092169163ca446dd991604480830192600092919082900301818387803b158015612dd357600080fd5b505af1158015612120573d6000803e3d6000fd5b60105481565b600f5481565b612dfb61410c565b600c5460408051600160e01b63dfb1f4110281526001600160a01b0380871660048301526024820186905284151560448301529092166064830152601960848301525173__TokenLib______________________________9163dfb1f4119160a4808301926000929190829003018186803b158015612e7957600080fd5b505af41580156121ed573d6000803e3d6000fd5b612e97600561448c565b612ea0846141a5565b612ef2843385600086868080601f016020809104026020016040519081016040528093929190818152602001838380828437600092018290525060408051602081019091529081529250614511915050565b50505050565b600e546001600160a01b031681565b612f10856141a5565b612f51848484848080601f0160208091040260200160405190810160405280939291908181526020018383808284376000920191909152506138eb92505050565b836001600160a01b0316857f6032e2468b0f94dfa63c61d6c8a84842a99c049263eae408a52b945020b6578d85858560405180848152602001806020018281038252848482818152602001925080828437600083820152604051601f909101601f1916909201829003965090945050505050a35050505050565b600c546001600160a01b031681565b6001600160a01b031660009081526020819052604090205490565b612ffd61410c565b6040805181815260118054600260001961010060018416150201909116049282018390527f4f5dc3feea8c186b1481cfe57c28df8871a61e3be16f7d65c60504cfd63440679290918591859190819060208201906060830190879080156130a55780601f1061307a576101008083540402835291602001916130a5565b820191906000526020600020905b81548152906001019060200180831161308857829003601f168201915b50508381038252848152602001858580828437600083820152604051601f909101601f191690920182900397509095505050505050a161282e60118383615a42565b6130ef614cd4565b6130f96003614d2e565b805182511461310757600080fd5b60005b825181101561282e5761315383828151811061312257fe5b602002602001015183838151811061313657fe5b602002602001015160405180602001604052806000815250614d58565b60010161310a565b61316361410c565b604051600160e01b635a34d4d9028152602060048201908152602482018390526132319173__TokenLib______________________________91635a34d4d991869186918190604401848480828437600083820152604051601f909101601f191690920195506020945090925050508083038186803b1580156131e557600080fd5b505af41580156131f9573d6000803e3d6000fd5b505050506040513d602081101561320f57600080fd5b50516001600160a01b0316613222613369565b6001600160a01b031614614e2c565b613239612a79565b61324257600080fd5b6012805460ff1916600117905560088054610100600160a81b03191690556040517ff7ec83c37617f91085fc1725f4839e41a03238811eaebd2dbc4a405354cc958e90600090a15050565b6009546001600160a01b031681565b60125460ff1681565b60006132b28989336144fd565b828260008181106132bf57fe5b9050013560f81c60f81b6001600160f81b031916600060f81b14156132e357600080fd5b61335c8888888c89898080601f01602080910402602001604051908101604052809392919081815260200183838082843760009201919091525050604080516020601f8d018190048102820181019092528b815233935091508b908b9081908401838280828437600092019190915250614e8192505050565b9998505050505050505050565b6004546001600160a01b031690565b6004546001600160a01b0316331490565b61339161410c565b613399612a79565b6133a257600080fd5b6008546040516001600160a01b0380841692610100900416907f9fdb07212c6f92fd298affc4000712177664bc3c4cae5f61098d42da6d05be1e90600090a3600880546001600160a01b0390921661010002610100600160a81b0319909216919091179055565b61341161410c565b61341a8161449f565b600e80546001600160a01b0319166001600160a01b0392909216919091179055565b613449338260001961411d565b60405133906001600160a01b038316907ff4caeb2d6ca8932a215a353d0703c326ec2d81fc68170f320eb2ab49e9df61f990600090a350565b6007805460408051602060026001851615610100026000190190941693909304601f81018490048402820184019092528181529291830182828015611eb55780601f10611e8a57610100808354040283529160200191611eb5565b6134e7600561448c565b61353261352d8560008686868080601f01602080910402602001604051908101604052809392919081815260200183838082843760009201919091525061502192505050565b615071565b61353c84846150c6565b836001600160a01b0316336001600160a01b03167fb7d0d6b60740753e9f16692a2f479472a1385aec2420fa43225b02f2ffa1afe785858560405180848152602001806020018281038252848482818152602001925080828437600083820152604051601f909101601f1916909201829003965090945050505050a350505050565b6000806000600160c21b6715539313d0d2d1510287141561367a5761361b89898888888080601f01602080910402602001604051908101604052809392919081815260200183838082843760009201919091525061420a92505050565b909350915061362983614460565b15613675576000613648600160d21b651313d0d2d151028a6000614b33565b90506000613663600160d21b651313d0d2d151028b8a614b33565b905061367082828a61510f565b925050505b61368e565b6136846000614472565b9250600091508190505b96509650969350505050565b6136a261410c565b60408051600160e01b63c38890e10281526001600160a01b03831660048201526018602482015260196044820152601a6064820152905173__TokenLib______________________________9163c38890e1916084808301926000929190829003018186803b15801561210c57600080fd5b61371c61410c565b600a546001600160a01b038281166000908152601960205260408082208151600160e11b63250114070281529390941660048401526024830193909352915173__TokenLib______________________________92634a02280e9260448082019391829003018186803b15801561210c57600080fd5b61379a61410c565b816001600160a01b03811663a9059cbb6137b2613369565b846040518363ffffffff1660e01b815260040180836001600160a01b03166001600160a01b0316815260200182815260200192505050602060405180830381600087803b15801561380257600080fd5b505af1158015613816573d6000803e3d6000fd5b505050506040513d602081101561382c57600080fd5b505161282e57600080fd5b3360008181526001602090815260408083206001600160a01b03871684529091528120549091611eca918590612a74908663ffffffff61515116565b6000611eca33848460405180602001604052806000815250614a16565b6138d48686868080601f01602080910402602001604051908101604052809392919081815260200183838082843760009201829052508993508892509050866122d0565b505050505050565b600a546001600160a01b031681565b6138f3614cd4565b6138fd6003614d2e565b61282e838383614d58565b61391061410c565b60408051600160e01b63b7e2c789028152601d600482015260156024820152601e604482015260648101839052905173__TokenLib______________________________9163b7e2c789916084808301926000929190829003018186803b15801561210c57600080fd5b61398381615166565b5060408051606081018252600280825260208201819052600091909201526017805460ff191690911761ff0019166102001762ff000019169055565b600b546001600160a01b031681565b6011805460408051602060026001851615610100026000190190941693909304601f81018490048402820184019092528181529291830182828015611eb55780601f10611e8a57610100808354040283529160200191611eb5565b613a3161410c565b613a39614cd4565b604051600160e11b633b89841f02815260206004820190815260248201839052613abb9173__TokenLib______________________________91637713083e91869186918190604401848480828437600083820152604051601f909101601f191690920195506020945090925050508083038186803b1580156131e557600080fd5b6014805460ff191690556040517f9ea7d0a14bc31ddf4821c86966910e35bd82b51f74bde7d3704498e0fb92e1f190600090a15050565b6001600160a01b03918216600090815260016020908152604080832093909416825291909152205490565b601254610100900460ff1681565b6005546001600160a01b031681565b613b44600561448c565b61282e338484848080601f01602080910402602001604051908101604052809392919081815260200183838082843760009201919091525061525092505050565b613b99613b9485858585615021565b61525e565b613ba48484846152b3565b612ef257600080fd5b613bb5614a30565b613bf787878787878080601f01602080910402602001604051908101604052809392919081815260200183838082843760009201919091525061502192505050565b50613c038787876152fb565b856001600160a01b0316876001600160a01b03167f6bf62b4b9c7b768275122bf70d429efc398a056d669b1efdf6c3976346246d7d33888888888860405180876001600160a01b03166001600160a01b0316815260200186815260200180602001806020018381038352878782818152602001925080828437600083820152601f01601f191690910184810383528581526020019050858580828437600083820152604051601f909101601f19169092018290039a509098505050505050505050a350505050505050565b613cd661410c565b613cdf816153c6565b50565b6000613d033385858886600060405180602001604052806000815250614e81565b95945050505050565b613d1461410c565b60095460408051600160e01b63bf40fac1028152602060048201819052600e60248301527f4d6f64756c655265676973747279000000000000000000000000000000000000604483015291516001600160a01b039093169263bf40fac192606480840193919291829003018186803b158015613d8f57600080fd5b505afa158015613da3573d6000803e3d6000fd5b505050506040513d6020811015613db957600080fd5b5051600a80546001600160a01b0319166001600160a01b0392831617905560095460408051600160e01b63bf40fac1028152602060048201819052601560248301527f5365637572697479546f6b656e5265676973747279000000000000000000000060448301529151929093169263bf40fac19260648083019392829003018186803b158015613e4957600080fd5b505afa158015613e5d573d6000803e3d6000fd5b505050506040513d6020811015613e7357600080fd5b5051600b80546001600160a01b0319166001600160a01b039283161790556009805460408051600160e01b63bf40fac10281526020600482018190526024820194909452600160b91b682837b63caa37b5b2b70260448201529051919093169263bf40fac1926064808301939192829003018186803b158015613ef557600080fd5b505afa158015613f09573d6000803e3d6000fd5b505050506040513d6020811015613f1f57600080fd5b5051600c80546001600160a01b0319166001600160a01b03909216919091179055565b60085461010090046001600160a01b031681565b613f623382600061411d565b60405133906001600160a01b038316907f50546e66e5f44d728365dc3908c63bc5cfeeab470722c1677e3073a6ac294aa190600090a350565b6000613fa76004614d2e565b601080546001908101909155601680549182018155600052427fd833147d7dc355ba459fc788f669e58cfaf9dc25ddcd0702e87d69c7b512428990910155613fed612270565b601080546000908152601b6020908152604091829020939093559054600e548251600160e11b6317e4a5d30281527fdf3a8dd24acdd05addfc6aeffef7574d2de3f844535ec91e8e0f3e45dba967316004820152925191937f624ea167e477f9d39f7f4094b9dfe2e6346eb4a7aada54338db51abd554c4b9f936001600160a01b0390921692632fc94ba6926024808201939291829003018186803b15801561409557600080fd5b505afa1580156140a9573d6000803e3d6000fd5b505050506040513d60208110156140bf57600080fd5b505160408051918252519081900360200190a25060105490565b600d546001600160a01b031690565b3660008037600080366000845af43d6000803e808015614107573d6000f35b3d6000fd5b614114613378565b611cff57600080fd5b6001600160a01b03821661413057600080fd5b6001600160a01b03831661414357600080fd5b6001600160a01b03808416600081815260016020908152604080832094871680845294825291829020859055815185815291517f8c5be1e5ebec7d5bd14f71427d1e84f3dd0314c0f7b2291e5b200ac8c7c3b9259281900390910190a3505050565b600160c21b6715539313d0d2d151028114613cdf5760408051600160e51b62461bcd02815260206004820152601160248201527f496e76616c696420706172746974696f6e000000000000000000000000000000604482015290519081900360640190fd5b600080600080600f54868161421b57fe5b06156142395761422b6000614472565b9350600092506122c7915050565b73__TokenLib______________________________631658f46a60186000600260ff1660ff16815260200190815260200160002060198b8b8b8b601260019054906101000a900460ff166040518863ffffffff1660e01b815260040180888152602001878152602001866001600160a01b03166001600160a01b03168152602001856001600160a01b03166001600160a01b031681526020018481526020018060200183151515158152602001828103825284818151815260200191508051906020019080838360005b8381101561431b578181015183820152602001614303565b50505050905090810190601f1680156143485780820380516001836020036101000a031916815260200191505b5098505050505050505050604080518083038186803b15801561436a57600080fd5b505af415801561437e573d6000803e3d6000fd5b505050506040513d604081101561439457600080fd5b5080516020909101519250905073__TokenLib______________________________632c94d97b82848a8a6143c88e612fda565b6040805163ffffffff881660e01b8152951515600487015260248601949094526001600160a01b03909216604485015260648401526084830152805160a480840193829003018186803b15801561441e57600080fd5b505af4158015614432573d6000803e3d6000fd5b505050506040513d604081101561444857600080fd5b50805160209091015190999098509650505050505050565b600160f81b600f0216600160f81b1490565b600081600881111561448057fe5b60500160f81b92915050565b6144963382612a83565b613cdf57600080fd5b6001600160a01b038116613cdf5760408051600160e51b62461bcd02815260206004820152600f60248201527f496e76616c696420616464726573730000000000000000000000000000000000604482015290519081900360640190fd5b614506836141a5565b61282e828285615435565b61451c858584615250565b846001600160a01b0316836001600160a01b0316877fa4f62471c9bdf88115b97203943c74c59b655913ee5ee592706d84ef53fb6be2878686604051808481526020018060200180602001838103835285818151815260200191508051906020019080838360005b8381101561459c578181015183820152602001614584565b50505050905090810190601f1680156145c95780820380516001836020036101000a031916815260200191505b50838103825284518152845160209182019186019080838360005b838110156145fc5781810151838201526020016145e4565b50505050905090810190601f1680156146295780820380516001836020036101000a031916815260200191505b509550505050505060405180910390a4505050505050565b6000866001600160a01b03166306fdde036040518163ffffffff1660e01b815260040160206040518083038186803b15801561467c57600080fd5b505afa158015614690573d6000803e3d6000fd5b505050506040513d60208110156146a657600080fd5b505188516040805182815260208381028201019091529192506060919080156146d9578160200160208202803883390190505b50905060005b895181101561479257601860008b83815181106146f857fe5b602002602001015160ff1660ff1681526020019081526020016000208054905082828151811061472457fe5b602002602001018181525050601860008b838151811061474057fe5b60209081029190910181015160ff1682528181019290925260400160009081208054600180820183559183529290912090910180546001600160a01b0319166001600160a01b038b16179055016146df565b604051806101000160405280848152602001896001600160a01b031681526020018a6001600160a01b0316815260200185151581526020018b8152602001838152602001601a600086815260200190815260200160002080549050815260200186815250601960008a6001600160a01b03166001600160a01b031681526020019081526020016000206000820151816000015560208201518160010160006101000a8154816001600160a01b0302191690836001600160a01b0316021790555060408201518160020160006101000a8154816001600160a01b0302191690836001600160a01b0316021790555060608201518160020160146101000a81548160ff02191690831515021790555060808201518160030190805190602001906148bb929190615ac0565b5060a082015180516148d7916004840191602090910190615b62565b5060c0820151816005015560e08201518160060155905050601a60008481526020019081526020016000208890806001815401808255809150509060018203906000526020600020016000909192909190916101000a8154816001600160a01b0302191690836001600160a01b0316021790555050886001600160a01b0316837ffa9cc8faf0fe9bebcaababb6b67c5a679d4fdec88527e4ca823ee0f91e9c09288c8b8b8b8b8b6040518080602001876001600160a01b03166001600160a01b0316815260200186815260200185815260200184815260200183151515158152602001828103825288818151815260200191508051906020019060200280838360005b838110156149f25781810151838201526020016149da565b5050505090500197505050505050505060405180910390a350505050505050505050565b614a25613b9485858585615021565b612ef28484846152fb565b600854611cff9061010090046001600160a01b031633148015614a565750614a56612a79565b61547e565b6000614a6a8460008585615021565b9050614a7684846154d3565b336001600160a01b031660006001600160a01b03167fb7d0d6b60740753e9f16692a2f479472a1385aec2420fa43225b02f2ffa1afe785856040518083815260200180602001828103825283818151815260200191508051906020019080838360005b83811015614af1578181015183820152602001614ad9565b50505050905090810190601f168015614b1e5780820380516001836020036101000a031916815260200191505b50935050505060405180910390a39392505050565b60026000908152601860209081527f2bacf7cca723d030d12aee795132f2c5f2d14ad131f16f3f27eeba3e79d18b8c8054604080518285028101850190915281815260609390929190830182828015614bb557602002820191906000526020600020905b81546001600160a01b03168152600190910190602001808311614b97575b50505050509050600080600090505b8251811015614cb857828181518110614bd957fe5b60200260200101516001600160a01b0316632829e6518888886040518463ffffffff1660e01b815260040180848152602001836001600160a01b03166001600160a01b03168152602001828152602001935050505060206040518083038186803b158015614c4657600080fd5b505afa158015614c5a573d6000803e3d6000fd5b505050506040513d6020811015614c7057600080fd5b50519150600160c21b6715539313d0d2d15102871415614ca45783821080614c96575080155b15614c9f578193505b614cb0565b81841015614cb0578193505b600101614bc4565b5050509392505050565b60008282018381101561295a57600080fd5b60145460ff16611cff5760408051600160e51b62461bcd02815260206004820152600f60248201527f49737375616e63652066726f7a656e0000000000000000000000000000000000604482015290519081900360640190fd5b614d36613369565b6001600160a01b0316336001600160a01b031614613cdf576144963382612a83565b614d68613b946000858585615021565b614d72838361557a565b826001600160a01b0316336001600160a01b03167f0e9905d62635f049c2f4e11678ebf9dc3d1f8c4a653e290759b772e47ba00d0084846040518083815260200180602001828103825283818151815260200191508051906020019080838360005b83811015614dec578181015183820152602001614dd4565b50505050905090810190601f168015614e195780820380516001836020036101000a031916815260200191505b50935050505060405180910390a3505050565b80613cdf5760408051600160e51b62461bcd02815260206004820152601260248201527f4f776e657220646964206e6f74207369676e0000000000000000000000000000604482015290519081900360640190fd5b6000614e8c856141a5565b6000614ea6600160d21b651313d0d2d15102896000614b33565b9050614eb489898988614a16565b6000614ece600160d21b651313d0d2d151028a6000614b33565b9050614edb82828a61510f565b9250886001600160a01b03168a6001600160a01b0316887fff4e9a26af4eb73b8bacfaa4abd4fea03d9448e7b912dc5ff4019048875aa2d4888c8b8a60405180856001600160a01b03166001600160a01b031681526020018481526020018060200180602001838103835285818151815260200191508051906020019080838360005b83811015614f76578181015183820152602001614f5e565b50505050905090810190601f168015614fa35780820380516001836020036101000a031916815260200191505b50838103825284518152845160209182019186019080838360005b83811015614fd6578181015183820152602001614fbe565b50505050905090810190601f1680156150035780820380516001836020036101000a031916815260200191505b50965050505050505060405180910390a45050979650505050505050565b600380546001019081905560009061503a868686615622565b615046868686866156f9565b9150615051866159c0565b61505a856159c0565b600354811461506857600080fd5b50949350505050565b80613cdf5760408051600160e51b62461bcd02815260206004820152600e60248201527f496e76616c69642072656465656d000000000000000000000000000000000000604482015290519081900360640190fd5b6150d082826154d3565b6001600160a01b03821660009081526001602090815260408083203380855292529091205461510b918491612a74908563ffffffff61515116565b5050565b600081615122848663ffffffff61515116565b1461513b57600160c21b6715539313d0d2d15102615149565b600160d21b651313d0d2d151025b949350505050565b60008282111561516057600080fd5b50900390565b600554600160a01b900460ff16156151c85760408051600160e51b62461bcd02815260206004820152601360248201527f416c726561647920696e697469616c697a656400000000000000000000000000604482015290519081900360640190fd5b600d80546001600160a01b0319166001600160a01b03831617905560408051606081018252600380825260006020830181905291909201526017805460ff191690911762ffff001916905561521b613d0c565b506005805474ff0000000000000000000000000000000000000000196001600160a01b0319909116331716600160a01b179055565b61282e61352d848484614a5b565b80613cdf5760408051600160e51b62461bcd02815260206004820152601060248201527f5472616e7366657220496e76616c696400000000000000000000000000000000604482015290519081900360640190fd5b60006152c08484846152fb565b6001600160a01b038416600090815260016020908152604080832033808552925290912054612818918691612a74908663ffffffff61515116565b6001600160a01b03821661530e57600080fd5b6001600160a01b038316600090815260208190526040902054615337908263ffffffff61515116565b6001600160a01b03808516600090815260208190526040808220939093559084168152205461536c908263ffffffff614cc216565b6001600160a01b038084166000818152602081815260409182902094909455805185815290519193928716927fddf252ad1be2c89b69c2b068fc378daa952ba7f163c4a11628f55a4df523b3ef92918290030190a3505050565b6001600160a01b0381166153d957600080fd5b6004546040516001600160a01b038084169216907f8be0079c531659141344cd1fd0a4f28419497f9722a3daafe3b4186f6b6457e090600090a3600480546001600160a01b0319166001600160a01b0392909216919091179055565b61282e6000196154458585613af2565b1480614a5657506001600160a01b038085166000908152601f6020908152604080832086845282528083209387168352929052205460ff165b80613cdf5760408051600160e51b62461bcd02815260206004820152600e60248201527f4e6f7420417574686f7269736564000000000000000000000000000000000000604482015290519081900360640190fd5b6001600160a01b0382166154e657600080fd5b6002546154f9908263ffffffff61515116565b6002556001600160a01b038216600090815260208190526040902054615525908263ffffffff61515116565b6001600160a01b038316600081815260208181526040808320949094558351858152935191937fddf252ad1be2c89b69c2b068fc378daa952ba7f163c4a11628f55a4df523b3ef929081900390910190a35050565b6001600160a01b03821661558d57600080fd5b6002546155a0908263ffffffff614cc216565b6002556001600160a01b0382166000908152602081905260409020546155cc908263ffffffff614cc216565b6001600160a01b0383166000818152602081815260408083209490945583518581529351929391927fddf252ad1be2c89b69c2b068fc378daa952ba7f163c4a11628f55a4df523b3ef9281900390910190a35050565b73__TokenLib______________________________63943aef7b60135485858561564b88612fda565b6156548a612fda565b600e546040805163ffffffff8a1660e01b815260048101989098526001600160a01b03968716602489015294861660448801526064870193909352608486019190915260a48501529190911660c48301525160e4808301926020929190829003018186803b1580156156c557600080fd5b505af41580156156d9573d6000803e3d6000fd5b505050506040513d60208110156156ef57600080fd5b5051601355505050565b600082600f54818161570757fe5b061561575d5760408051600160e51b62461bcd02815260206004820152601360248201527f496e76616c6964206772616e756c617269747900000000000000000000000000604482015290519081900360640190fd5b601254610100900460ff166159b4576002600090815260186020527f2bacf7cca723d030d12aee795132f2c5f2d14ad131f16f3f27eeba3e79d18b8c54819081908190815b8181101561598c57600260005260186020527f2bacf7cca723d030d12aee795132f2c5f2d14ad131f16f3f27eeba3e79d18b8c8054829081106157e157fe5b60009182526020808320909101546001600160a01b0316808352601990915260409091206002015490935060ff600160a01b90910416615984576000836001600160a01b0316633d3217318e8e8e8e6040518563ffffffff1660e01b815260040180856001600160a01b03166001600160a01b03168152602001846001600160a01b03166001600160a01b0316815260200183815260200180602001828103825283818151815260200191508051906020019080838360005b838110156158b257818101518382015260200161589a565b50505050905090810190601f1680156158df5780820380516001836020036101000a031916815260200191505b5095505050505050602060405180830381600087803b15801561590157600080fd5b505af1158015615915573d6000803e3d6000fd5b505050506040513d602081101561592b57600080fd5b50519050600081600381111561593d57fe5b141561594c5760019650615982565b600281600381111561595a57fe5b14156159695760019550615982565b600381600381111561597757fe5b141561598257600194505b505b6001016157a2565b50826159a5578461599d57836159a0565b60005b6159a8565b60015b96505050505050615068565b50600095945050505050565b6001600160a01b0381166000908152601c6020526040902073__TokenLib______________________________906309def7ee906159fd84612fda565b6010546040518463ffffffff1660e01b815260040180848152602001838152602001828152602001935050505060006040518083038186803b15801561210c57600080fd5b828054600181600116156101000203166002900490600052602060002090601f016020900481019282601f10615a835782800160ff19823516178555615ab0565b82800160010185558215615ab0579182015b82811115615ab0578235825591602001919060010190615a95565b50615abc929150615b9d565b5090565b82805482825590600052602060002090601f01602090048101928215615b565791602002820160005b83821115615b2757835183826101000a81548160ff021916908360ff1602179055509260200192600101602081600001049283019260010302615ae9565b8015615b545782816101000a81549060ff0219169055600101602081600001049283019260010302615b27565b505b50615abc929150615bb7565b828054828255906000526020600020908101928215615ab0579160200282015b82811115615ab0578251825591602001919060010190615b82565b61227491905b80821115615abc5760008155600101615ba3565b61227491905b80821115615abc57805460ff19168155600101615bbd56fea165627a7a723058204c6dbe0df4fc0d504d4235a8a4eb1154386d712ed6893690ff29ec4539074e8b0029",
  "source": "pragma solidity 0.5.8;\r\n\r\nimport \"../tokens/SecurityToken.sol\";\r\n\r\ncontract SecurityTokenMock is SecurityToken {\r\n\r\n    /**\r\n     * @notice Initialization function\r\n     * @dev Expected to be called atomically with the proxy being created, by the owner of the token\r\n     * @dev Can only be called once\r\n     */\r\n    function initialize(address _getterDelegate) public {\r\n        super.initialize(_getterDelegate);\r\n        securityTokenVersion = SemanticVersion(2, 2, 0);\r\n    }\r\n}\r\n",
  "sourcePath": "C:/mspace/polymath-core/contracts/mocks/SecurityTokenMock.sol",
  "compiler": {
    "name": "solc",
    "version": "0.5.8+commit.23d335f2.Emscripten.clang"
  },
  "schemaVersion": "3.0.11",
  "updatedAt": "2019-08-05T12:37:19.143Z",
  "devdoc": {
    "methods": {
      "addModuleWithLabel(address,bytes,uint256,uint256,bytes32,bool)": {
        "details": "E.G.: On deployment (through the STR) ST gets a TransferManager module attached to it\rto control restrictions on transfers.\r",
        "params": {
          "_budget": "max amount of ongoing POLY willing to assign to the module.\r",
          "_data": "is data packed into bytes used to further configure the module (See STO usage)\r",
          "_label": "custom module label.\r",
          "_maxCost": "max amount of POLY willing to pay to the module.\r",
          "_moduleFactory": "is the address of the module factory to be added\r"
        }
      },
      "allowance(address,address)": {
        "details": "Function to check the amount of tokens that an owner allowed to a spender.",
        "params": {
          "owner": "address The address which owns the funds.",
          "spender": "address The address which will spend the funds."
        },
        "return": "A uint256 specifying the amount of tokens still available for the spender."
      },
      "approve(address,uint256)": {
        "details": "Approve the passed address to spend the specified amount of tokens on behalf of msg.sender. Beware that changing an allowance with this method brings the risk that someone may use both the old and the new allowance by unfortunate transaction ordering. One possible solution to mitigate this race condition is to first reduce the spender's allowance to 0 and set the desired value afterwards: https://github.com/ethereum/EIPs/issues/20#issuecomment-263524729",
        "params": {
          "spender": "The address which will spend the funds.",
          "value": "The amount of tokens to be spent."
        }
      },
      "archiveModule(address)": {
        "params": {
          "_module": "address of module to archive\r"
        }
      },
      "authorizeOperator(address)": {
        "params": {
          "_operator": "An address which is being authorised.\r"
        }
      },
      "authorizeOperatorByPartition(bytes32,address)": {
        "params": {
          "_operator": "An address which is being authorised\r",
          "_partition": "The partition to which the operator is authorised\r"
        }
      },
      "balanceOf(address)": {
        "details": "Gets the balance of the specified address.",
        "params": {
          "owner": "The address to query the balance of."
        },
        "return": "A uint256 representing the amount owned by the passed address."
      },
      "balanceOfByPartition(bytes32,address)": {
        "params": {
          "_partition": "Partition which differentiate the tokens.\r",
          "_tokenHolder": "Whom balance need to queried\r"
        },
        "return": "Amount of tokens as per the given partitions\r"
      },
      "canTransfer(address,uint256,bytes)": {
        "params": {
          "_data": "The `bytes _data` allows arbitrary data to be submitted alongside the transfer.\r",
          "_to": "address The address which you want to transfer to\r",
          "_value": "uint256 the amount of tokens to be transferred\r"
        },
        "return": "byte Ethereum status code (ESC)\rbytes32 Application specific reason code\r"
      },
      "canTransferByPartition(address,address,bytes32,uint256,bytes)": {
        "params": {
          "_data": "Additional data attached to the transfer of tokens\r",
          "_from": "The address from whom the tokens get transferred.\r",
          "_partition": "The partition from which to transfer tokens\r",
          "_to": "The address to which to transfer tokens to.\r",
          "_value": "The amount of tokens to transfer from `_partition`\r"
        },
        "return": "ESC (Ethereum Status Code) following the EIP-1066 standard\rApplication specific reason codes with additional details\rThe partition to which the transferred tokens were allocated for the _to address\r"
      },
      "canTransferFrom(address,address,uint256,bytes)": {
        "params": {
          "_data": "The `bytes _data` allows arbitrary data to be submitted alongside the transfer.\r",
          "_from": "address The address which you want to send tokens from\r",
          "_to": "address The address which you want to transfer to\r",
          "_value": "uint256 the amount of tokens to be transferred\r"
        },
        "return": "byte Ethereum status code (ESC)\rbytes32 Application specific reason code\r"
      },
      "changeDataStore(address)": {
        "params": {
          "_dataStore": "Address of the token data store\r"
        }
      },
      "changeGranularity(uint256)": {
        "params": {
          "_granularity": "granularity level of the token\r"
        }
      },
      "changeModuleBudget(address,uint256,bool)": {
        "params": {
          "_change": "change in allowance\r",
          "_increase": "true if budget has to be increased, false if decrease\r",
          "_module": "module address\r"
        }
      },
      "changeName(string)": {
        "params": {
          "_name": "new name of the token\r"
        }
      },
      "changeTreasuryWallet(address)": {
        "params": {
          "_wallet": "Ethereum address of the treasury wallet\r"
        }
      },
      "controllerRedeem(address,uint256,bytes,bytes)": {
        "details": "This function can only be executed by the `controller` address.\r",
        "params": {
          "_data": "data to validate the transfer. (It is not used in this reference implementation\r because use of `_data` parameter is implementation specific).\r",
          "_operatorData": "data attached to the transfer by controller to emit in event. (It is more like a reason string\r for calling this function (aka force transfer) which provides the transparency on-chain).\r",
          "_tokenHolder": "The account whose tokens will be redeemed.\r",
          "_value": "uint256 the amount of tokens need to be redeemed.\r"
        }
      },
      "controllerTransfer(address,address,uint256,bytes,bytes)": {
        "details": "This function can only be executed by the `controller` address.\r",
        "params": {
          "_data": "data to validate the transfer. (It is not used in this reference implementation\r because use of `_data` parameter is implementation specific).\r",
          "_from": "Address The address which you want to send tokens from\r",
          "_operatorData": "data attached to the transfer by controller to emit in event. (It is more like a reason string\r for calling this function (aka force transfer) which provides the transparency on-chain).\r",
          "_to": "Address The address which you want to transfer to\r",
          "_value": "uint256 the amount of tokens to be transferred\r"
        }
      },
      "createCheckpoint()": {
        "return": "uint256\r"
      },
      "decreaseAllowance(address,uint256)": {
        "details": "Decrease the amount of tokens that an owner allowed to a spender. approve should be called when _allowed[msg.sender][spender] == 0. To decrement allowed value is better to use this function to avoid 2 calls (and wait until the first transaction is mined) From MonolithDAO Token.sol Emits an Approval event.",
        "params": {
          "spender": "The address which will spend the funds.",
          "subtractedValue": "The amount of tokens to decrease the allowance by."
        }
      },
      "disableController(bytes)": {
        "details": "enabled via feature switch \"disableControllerAllowed\"\r"
      },
      "freezeIssuance(bytes)": {
        "details": "It MUST NOT be possible to increase `totalSuppy` after this function is called.\r"
      },
      "increaseAllowance(address,uint256)": {
        "details": "Increase the amount of tokens that an owner allowed to a spender. approve should be called when _allowed[msg.sender][spender] == 0. To increment allowed value is better to use this function to avoid 2 calls (and wait until the first transaction is mined) From MonolithDAO Token.sol Emits an Approval event.",
        "params": {
          "addedValue": "The amount of tokens to increase the allowance by.",
          "spender": "The address which will spend the funds."
        }
      },
      "initialize(address)": {
        "details": "Expected to be called atomically with the proxy being created, by the owner of the token\rCan only be called once\r"
      },
      "isControllable()": {
        "details": "If `isControllable` returns `false` then it always return `false` and\r `controllerTransfer` / `controllerRedeem` will always revert.\r",
        "return": "bool `true` when controller address is non-zero otherwise return `false`.\r"
      },
      "isModule(address,uint8)": {
        "params": {
          "_module": "Address to check\r",
          "_type": "type to check against\r"
        }
      },
      "isOwner()": {
        "return": "true if `msg.sender` is the owner of the contract.\r"
      },
      "issue(address,uint256,bytes)": {
        "details": "It only be called by the token issuer or the operator defined by the issuer. ERC1594 doesn't have\r have the any logic related to operator but its superset ERC1400 have the operator logic and this function\r is allowed to call by the operator.\r",
        "params": {
          "_data": "The `bytes _data` allows arbitrary data to be submitted alongside the transfer.\r",
          "_tokenHolder": "The account that will receive the created tokens (account should be whitelisted or KYCed).\r",
          "_value": "The amount of tokens need to be issued\r"
        }
      },
      "issueByPartition(bytes32,address,uint256,bytes)": {
        "params": {
          "_data": "Additional data attached to the minting of tokens\r",
          "_partition": "The partition to allocate the increase in balance\r",
          "_tokenHolder": "The token holder whose balance should be increased\r",
          "_value": "The amount by which to increase the balance\r"
        }
      },
      "issueMulti(address[],uint256[])": {
        "details": "Can only be called by the issuer or STO attached to the token.\r",
        "params": {
          "_tokenHolders": "A list of addresses to whom the minted tokens will be dilivered\r",
          "_values": "A list of number of tokens get minted and transfer to corresponding address of the investor from _tokenHolders[] list\r"
        },
        "return": "success\r"
      },
      "operatorRedeemByPartition(bytes32,address,uint256,bytes,bytes)": {
        "details": "This function can only be called by the authorised operator.\r",
        "params": {
          "_data": "Additional data attached to the burning of tokens\r",
          "_operatorData": "Additional data attached to the transfer of tokens by the operator\r",
          "_partition": "The partition to allocate the decrease in balance.\r",
          "_tokenHolder": "The token holder whose balance should be decreased\r",
          "_value": "The amount by which to decrease the balance\r"
        }
      },
      "operatorTransferByPartition(bytes32,address,address,uint256,bytes,bytes)": {
        "params": {
          "_data": "Additional data attached to the transfer of tokens\r",
          "_from": "The address from which to transfer tokens from\r",
          "_operatorData": "Additional data attached to the transfer of tokens by the operator\r",
          "_partition": "The partition from which to transfer tokens.\r",
          "_to": "The address to which to transfer tokens to\r",
          "_value": "The amount of tokens to transfer from `_partition`\r"
        },
        "return": "The partition to which the transferred tokens were allocated for the _to address\r"
      },
      "owner()": {
        "return": "the address of the owner.\r"
      },
      "redeem(uint256,bytes)": {
        "params": {
          "_data": "The `bytes _data` it can be used in the token contract to authenticate the redemption.\r",
          "_value": "The amount of tokens need to be redeemed\r"
        }
      },
      "redeemByPartition(bytes32,uint256,bytes)": {
        "params": {
          "_data": "Additional data attached to the burning of tokens\r",
          "_partition": "The partition to allocate the decrease in balance\r",
          "_value": "The amount by which to decrease the balance\r"
        }
      },
      "redeemFrom(address,uint256,bytes)": {
        "details": "It is analogy to `transferFrom`\r",
        "params": {
          "_data": "The `bytes _data` it can be used in the token contract to authenticate the redemption.\r",
          "_tokenHolder": "The account whose tokens gets redeemed.\r",
          "_value": "The amount of tokens need to be redeemed\r"
        }
      },
      "removeDocument(bytes32)": {
        "details": "Can only be executed by the owner of the contract.\r",
        "params": {
          "_name": "Name of the document. It should be unique always\r"
        }
      },
      "removeModule(address)": {
        "params": {
          "_module": "address of module to unarchive\r"
        }
      },
      "revokeOperator(address)": {
        "params": {
          "_operator": "An address which is being de-authorised\r"
        }
      },
      "revokeOperatorByPartition(bytes32,address)": {
        "params": {
          "_operator": "An address which is being de-authorised\r",
          "_partition": "The partition to which the operator is de-authorised\r"
        }
      },
      "setController(address)": {
        "params": {
          "_controller": "address of the controller\r"
        }
      },
      "setDocument(bytes32,string,bytes32)": {
        "details": "Can only be executed by the owner of the contract.\r",
        "params": {
          "_documentHash": "hash (of the contents) of the document.\r",
          "_name": "Name of the document. It should be unique always\r",
          "_uri": "Off-chain uri of the document from where it is accessible to investors/advisors to read.\r"
        }
      },
      "totalSupply()": {
        "details": "Total number of tokens in existence"
      },
      "transfer(address,uint256)": {
        "params": {
          "_to": "receiver of transfer\r",
          "_value": "value of transfer\r"
        },
        "return": "bool success\r"
      },
      "transferByPartition(bytes32,address,uint256,bytes)": {
        "params": {
          "_data": "Additional data attached to the transfer of tokens\r",
          "_partition": "The partition from which to transfer tokens\r",
          "_to": "The address to which to transfer tokens to\r",
          "_value": "The amount of tokens to transfer from `_partition`\r"
        },
        "return": "The partition to which the transferred tokens were allocated for the _to address\r"
      },
      "transferFrom(address,address,uint256)": {
        "params": {
          "_from": "sender of transfer\r",
          "_to": "receiver of transfer\r",
          "_value": "value of transfer\r"
        },
        "return": "bool success\r"
      },
      "transferFromWithData(address,address,uint256,bytes)": {
        "details": "`msg.sender` MUST have a sufficient `allowance` set and this `allowance` must be debited by the `_value`.\r",
        "params": {
          "_data": "The `bytes _data` allows arbitrary data to be submitted alongside the transfer.\r for the token contract to interpret or record. This could be signed data authorising the transfer\r (e.g. a dynamic whitelist) but is flexible enough to accomadate other use-cases.\r",
          "_from": "address The address which you want to send tokens from\r",
          "_to": "address The address which you want to transfer to\r",
          "_value": "uint256 the amount of tokens to be transferred\r"
        }
      },
      "transferOwnership(address)": {
        "details": "Allows the current owner to transfer control of the contract to a newOwner.\r",
        "params": {
          "newOwner": "The address to transfer ownership to.\r"
        }
      },
      "transferWithData(address,uint256,bytes)": {
        "params": {
          "_data": "The `bytes _data` allows arbitrary data to be submitted alongside the transfer.\r for the token contract to interpret or record. This could be signed data authorising the transfer\r (e.g. a dynamic whitelist) but is flexible enough to accomadate other use-cases.\r",
          "_to": "address The address which you want to transfer to\r",
          "_value": "uint256 the amount of tokens to be transferred\r"
        }
      },
      "unarchiveModule(address)": {
        "params": {
          "_module": "address of module to unarchive\r"
        }
      },
      "updateTokenDetails(string)": {
        "params": {
          "_newTokenDetails": "New token details\r"
        }
      },
      "upgradeModule(address)": {
        "params": {
          "_module": "address of module to archive\r"
        }
      },
      "withdrawERC20(address,uint256)": {
        "details": "Owner can transfer POLY to the ST which will be used to pay for modules that require a POLY fee.\r",
        "params": {
          "_tokenContract": "Address of the ERC20Basic compliance token\r",
          "_value": "amount of POLY to withdraw\r"
        }
      }
    }
  },
  "userdoc": {
    "methods": {
      "addModule(address,bytes,uint256,uint256,bool)": {
        "notice": "addModule function will call addModuleWithLabel() with an empty label for backward compatible\r"
      },
      "addModuleWithLabel(address,bytes,uint256,uint256,bytes32,bool)": {
        "notice": "Attachs a module to the SecurityToken\r"
      },
      "archiveModule(address)": {
        "notice": "Archives a module attached to the SecurityToken\r"
      },
      "authorizeOperator(address)": {
        "notice": "Authorises an operator for all partitions of `msg.sender`.\r NB - Allowing investors to authorize an investor to be an operator of all partitions\r but it doesn't mean we operator is allowed to transfer the LOCKED partition values.\r Logic for this restriction is written in `operatorTransferByPartition()` function.\r"
      },
      "authorizeOperatorByPartition(bytes32,address)": {
        "notice": "Authorises an operator for a given partition of `msg.sender`\r"
      },
      "balanceOfByPartition(bytes32,address)": {
        "notice": "Get the balance according to the provided partitions\r"
      },
      "canTransfer(address,uint256,bytes)": {
        "notice": "Transfers of securities may fail for a number of reasons. So this function will used to understand the\r cause of failure by getting the byte value. Which will be the ESC that follows the EIP 1066. ESC can be mapped\r with a reson string to understand the failure cause, table of Ethereum status code will always reside off-chain\r"
      },
      "canTransferByPartition(address,address,bytes32,uint256,bytes)": {
        "notice": "The standard provides an on-chain function to determine whether a transfer will succeed,\r and return details indicating the reason if the transfer is not valid.\r"
      },
      "canTransferFrom(address,address,uint256,bytes)": {
        "notice": "Transfers of securities may fail for a number of reasons. So this function will used to understand the\r cause of failure by getting the byte value. Which will be the ESC that follows the EIP 1066. ESC can be mapped\r with a reson string to understand the failure cause, table of Ethereum status code will always reside off-chain\r"
      },
      "changeDataStore(address)": {
        "notice": "Allows owner to change data store\r"
      },
      "changeGranularity(uint256)": {
        "notice": "Allows owner to change token granularity\r"
      },
      "changeModuleBudget(address,uint256,bool)": {
        "notice": "allows owner to increase/decrease POLY approval of one of the modules\r"
      },
      "changeName(string)": {
        "notice": "Allows owner to change token name\r"
      },
      "changeTreasuryWallet(address)": {
        "notice": "Allows to change the treasury wallet address\r"
      },
      "controllerRedeem(address,uint256,bytes,bytes)": {
        "notice": "This function allows an authorised address to redeem tokens for any token holder.\r The redemption must still respect the balances of the token holder (so the redemption must be for at most\r `balanceOf(_tokenHolder)` tokens) and potentially also need to respect other transfer restrictions.\r"
      },
      "controllerTransfer(address,address,uint256,bytes,bytes)": {
        "notice": "This function allows an authorised address to transfer tokens between any two token holders.\r The transfer must still respect the balances of the token holders (so the transfer must be for at most\r `balanceOf(_from)` tokens) and potentially also need to respect other transfer restrictions.\r"
      },
      "createCheckpoint()": {
        "notice": "Creates a checkpoint that can be used to query historical balances / totalSuppy\r"
      },
      "disableController(bytes)": {
        "notice": "Used by the issuer to permanently disable controller functionality\r"
      },
      "freezeIssuance(bytes)": {
        "notice": "Permanently freeze issuance of this security token.\r"
      },
      "freezeTransfers()": {
        "notice": "freezes transfers\r"
      },
      "initialize(address)": {
        "notice": "Initialization function\r"
      },
      "isControllable()": {
        "notice": "In order to provide transparency over whether `controllerTransfer` / `controllerRedeem` are useable\r or not `isControllable` function will be used.\r"
      },
      "isModule(address,uint8)": {
        "notice": "Checks if an address is a module of certain type\r"
      },
      "issue(address,uint256,bytes)": {
        "notice": "This function must be called to increase the total supply (Corresponds to mint function of ERC20).\r"
      },
      "issueByPartition(bytes32,address,uint256,bytes)": {
        "notice": "Increases totalSupply and the corresponding amount of the specified owners partition\r"
      },
      "issueMulti(address[],uint256[])": {
        "notice": "issue new tokens and assigns them to the target _tokenHolder.\r"
      },
      "operatorRedeemByPartition(bytes32,address,uint256,bytes,bytes)": {
        "notice": "Decreases totalSupply and the corresponding amount of the specified partition of tokenHolder\r"
      },
      "operatorTransferByPartition(bytes32,address,address,uint256,bytes,bytes)": {
        "notice": "Transfers the ownership of tokens from a specified partition from one address to another address\r"
      },
      "redeem(uint256,bytes)": {
        "notice": "This function redeem an amount of the token of a msg.sender. For doing so msg.sender may incentivize\r using different ways that could be implemented with in the `redeem` function definition. But those implementations\r are out of the scope of the ERC1594.\r"
      },
      "redeemByPartition(bytes32,uint256,bytes)": {
        "notice": "Decreases totalSupply and the corresponding amount of the specified partition of msg.sender\r"
      },
      "redeemFrom(address,uint256,bytes)": {
        "notice": "This function redeem an amount of the token of a msg.sender. For doing so msg.sender may incentivize\r using different ways that could be implemented with in the `redeem` function definition. But those implementations\r are out of the scope of the ERC1594.\r"
      },
      "removeDocument(bytes32)": {
        "notice": "Used to remove an existing document from the contract by giving the name of the document.\r"
      },
      "removeModule(address)": {
        "notice": "Removes a module attached to the SecurityToken\r"
      },
      "revokeOperator(address)": {
        "notice": "Revokes authorisation of an operator previously given for all partitions of `msg.sender`.\r NB - Allowing investors to authorize an investor to be an operator of all partitions\r but it doesn't mean we operator is allowed to transfer the LOCKED partition values.\r Logic for this restriction is written in `operatorTransferByPartition()` function.\r"
      },
      "revokeOperatorByPartition(bytes32,address)": {
        "notice": "Revokes authorisation of an operator previously given for a specified partition of `msg.sender`\r"
      },
      "setController(address)": {
        "notice": "Used by the issuer to set the controller addresses\r"
      },
      "setDocument(bytes32,string,bytes32)": {
        "notice": "Used to attach a new document to the contract, or update the URI or hash of an existing attached document\r"
      },
      "transfer(address,uint256)": {
        "notice": "Overloaded version of the transfer function\r"
      },
      "transferByPartition(bytes32,address,uint256,bytes)": {
        "notice": "Transfers the ownership of tokens from a specified partition from one address to another address\r"
      },
      "transferFrom(address,address,uint256)": {
        "notice": "Overloaded version of the transferFrom function\r"
      },
      "transferFromWithData(address,address,uint256,bytes)": {
        "notice": "Transfer restrictions can take many forms and typically involve on-chain rules or whitelists.\r However for many types of approved transfers, maintaining an on-chain list of approved transfers can be\r cumbersome and expensive. An alternative is the co-signing approach, where in addition to the token holder\r approving a token transfer, and authorised entity provides signed data which further validates the transfer.\r"
      },
      "transferWithData(address,uint256,bytes)": {
        "notice": "Transfer restrictions can take many forms and typically involve on-chain rules or whitelists.\r However for many types of approved transfers, maintaining an on-chain list of approved transfers can be\r cumbersome and expensive. An alternative is the co-signing approach, where in addition to the token holder\r approving a token transfer, and authorised entity provides signed data which further validates the transfer.\r"
      },
      "unarchiveModule(address)": {
        "notice": "Unarchives a module attached to the SecurityToken\r"
      },
      "unfreezeTransfers()": {
        "notice": "Unfreeze transfers\r"
      },
      "updateTokenDetails(string)": {
        "notice": "updates the tokenDetails associated with the token\r"
      },
      "upgradeModule(address)": {
        "notice": "Upgrades a module attached to the SecurityToken\r"
      },
      "upgradeToken()": {
        "notice": "Upgrades security token\r"
      },
      "withdrawERC20(address,uint256)": {
        "notice": "Allows the owner to withdraw unspent POLY stored by them on the ST or any ERC20 token.\r"
      }
    }
  }
}