{
  "contractName": "SecurityTokenStorage",
  "abi": [
    {
      "constant": true,
      "inputs": [],
      "name": "name",
      "outputs": [
        {
          "name": "",
          "type": "string"
        }
      ],
      "payable": false,
      "stateMutability": "view",
      "type": "function"
    },
    {
      "constant": true,
      "inputs": [],
      "name": "initialized",
      "outputs": [
        {
          "name": "",
          "type": "bool"
        }
      ],
      "payable": false,
      "stateMutability": "view",
      "type": "function"
    },
    {
      "constant": true,
      "inputs": [],
      "name": "holderCount",
      "outputs": [
        {
          "name": "",
          "type": "uint256"
        }
      ],
      "payable": false,
      "stateMutability": "view",
      "type": "function"
    },
    {
      "constant": true,
      "inputs": [],
      "name": "getterDelegate",
      "outputs": [
        {
          "name": "",
          "type": "address"
        }
      ],
      "payable": false,
      "stateMutability": "view",
      "type": "function"
    },
    {
      "constant": true,
      "inputs": [],
      "name": "decimals",
      "outputs": [
        {
          "name": "",
          "type": "uint8"
        }
      ],
      "payable": false,
      "stateMutability": "view",
      "type": "function"
    },
    {
      "constant": true,
      "inputs": [],
      "name": "currentCheckpointId",
      "outputs": [
        {
          "name": "",
          "type": "uint256"
        }
      ],
      "payable": false,
      "stateMutability": "view",
      "type": "function"
    },
    {
      "constant": true,
      "inputs": [],
      "name": "granularity",
      "outputs": [
        {
          "name": "",
          "type": "uint256"
        }
      ],
      "payable": false,
      "stateMutability": "view",
      "type": "function"
    },
    {
      "constant": true,
      "inputs": [],
      "name": "dataStore",
      "outputs": [
        {
          "name": "",
          "type": "address"
        }
      ],
      "payable": false,
      "stateMutability": "view",
      "type": "function"
    },
    {
      "constant": true,
      "inputs": [],
      "name": "polyToken",
      "outputs": [
        {
          "name": "",
          "type": "address"
        }
      ],
      "payable": false,
      "stateMutability": "view",
      "type": "function"
    },
    {
      "constant": true,
      "inputs": [],
      "name": "polymathRegistry",
      "outputs": [
        {
          "name": "",
          "type": "address"
        }
      ],
      "payable": false,
      "stateMutability": "view",
      "type": "function"
    },
    {
      "constant": true,
      "inputs": [],
      "name": "controllerDisabled",
      "outputs": [
        {
          "name": "",
          "type": "bool"
        }
      ],
      "payable": false,
      "stateMutability": "view",
      "type": "function"
    },
    {
      "constant": true,
      "inputs": [],
      "name": "symbol",
      "outputs": [
        {
          "name": "",
          "type": "string"
        }
      ],
      "payable": false,
      "stateMutability": "view",
      "type": "function"
    },
    {
      "constant": true,
      "inputs": [],
      "name": "moduleRegistry",
      "outputs": [
        {
          "name": "",
          "type": "address"
        }
      ],
      "payable": false,
      "stateMutability": "view",
      "type": "function"
    },
    {
      "constant": true,
      "inputs": [],
      "name": "securityTokenRegistry",
      "outputs": [
        {
          "name": "",
          "type": "address"
        }
      ],
      "payable": false,
      "stateMutability": "view",
      "type": "function"
    },
    {
      "constant": true,
      "inputs": [],
      "name": "tokenDetails",
      "outputs": [
        {
          "name": "",
          "type": "string"
        }
      ],
      "payable": false,
      "stateMutability": "view",
      "type": "function"
    },
    {
      "constant": true,
      "inputs": [],
      "name": "transfersFrozen",
      "outputs": [
        {
          "name": "",
          "type": "bool"
        }
      ],
      "payable": false,
      "stateMutability": "view",
      "type": "function"
    },
    {
      "constant": true,
      "inputs": [],
      "name": "tokenFactory",
      "outputs": [
        {
          "name": "",
          "type": "address"
        }
      ],
      "payable": false,
      "stateMutability": "view",
      "type": "function"
    },
    {
      "constant": true,
      "inputs": [],
      "name": "controller",
      "outputs": [
        {
          "name": "",
          "type": "address"
        }
      ],
      "payable": false,
      "stateMutability": "view",
      "type": "function"
    }
  ],
  "bytecode": "0x6080604052600e805460ff1990811690915560108054909116600117905534801561002957600080fd5b506104a4806100396000396000f3fe608060405234801561001057600080fd5b50600436106101165760003560e01c806377282b70116100a2578063ce4dbdff11610071578063ce4dbdff14610250578063d6abe11014610258578063e45b813414610260578063e77772fe14610268578063f77c47911461027057610116565b806377282b70146102305780637a802c711461023857806395d89b4114610240578063b95459e41461024857610116565b8063313ce567116100e9578063313ce567146101f25780635488cc8014610210578063556f0dc714610218578063660d0d67146102205780636faa22a51461022857610116565b806306fdde031461011b578063158ef93e146101985780631aab9a9f146101b45780632fb3b99d146101ce575b600080fd5b610123610278565b6040805160208082528351818301528351919283929083019185019080838360005b8381101561015d578181015183820152602001610145565b50505050905090810190601f16801561018a5780820380516001836020036101000a031916815260200191505b509250505060405180910390f35b6101a0610303565b604080519115158252519081900360200190f35b6101bc610313565b60408051918252519081900360200190f35b6101d6610319565b604080516001600160a01b039092168252519081900360200190f35b6101fa610328565b6040805160ff9092168252519081900360200190f35b6101bc610331565b6101bc610337565b6101d661033d565b6101d661034c565b6101d661035b565b6101a061036a565b610123610373565b6101d66103ce565b6101d66103dd565b6101236103ec565b6101a0610447565b6101d6610455565b6101d6610464565b6002805460408051602060018416156101000260001901909316849004601f810184900484028201840190925281815292918301828280156102fb5780601f106102d0576101008083540402835291602001916102fb565b820191906000526020600020905b8154815290600101906020018083116102de57829003601f168201915b505050505081565b600154600160a01b900460ff1681565b600f5481565b6009546001600160a01b031681565b60045460ff1681565b600c5481565b600b5481565b600a546001600160a01b031681565b6008546001600160a01b031681565b6005546001600160a01b031681565b600e5460ff1681565b6003805460408051602060026001851615610100026000190190941693909304601f810184900484028201840190925281815292918301828280156102fb5780601f106102d0576101008083540402835291602001916102fb565b6006546001600160a01b031681565b6007546001600160a01b031681565b600d805460408051602060026001851615610100026000190190941693909304601f810184900484028201840190925281815292918301828280156102fb5780601f106102d0576101008083540402835291602001916102fb565b600e54610100900460ff1681565b6001546001600160a01b031681565b60045461010090046001600160a01b03168156fea165627a7a723058202abfc7ebc911adb7254bff9f9f7b52e2bafd4620655b21656d1f2bf46c9dd1160029",
  "source": "pragma solidity 0.5.8;\r\n\r\nimport \"../interfaces/IDataStore.sol\";\r\nimport \"../interfaces/IModuleRegistry.sol\";\r\nimport \"../interfaces/IPolymathRegistry.sol\";\r\nimport \"../interfaces/ISecurityTokenRegistry.sol\";\r\nimport \"openzeppelin-solidity/contracts/token/ERC20/IERC20.sol\";\r\n\r\ncontract SecurityTokenStorage {\r\n\r\n    uint8 internal constant PERMISSION_KEY = 1;\r\n    uint8 internal constant TRANSFER_KEY = 2;\r\n    uint8 internal constant MINT_KEY = 3;\r\n    uint8 internal constant CHECKPOINT_KEY = 4;\r\n    uint8 internal constant BURN_KEY = 5;\r\n    uint8 internal constant DATA_KEY = 6;\r\n    uint8 internal constant WALLET_KEY = 7;\r\n\r\n    bytes32 internal constant INVESTORSKEY = 0xdf3a8dd24acdd05addfc6aeffef7574d2de3f844535ec91e8e0f3e45dba96731; //keccak256(abi.encodePacked(\"INVESTORS\"))\r\n    bytes32 internal constant TREASURY = 0xaae8817359f3dcb67d050f44f3e49f982e0359d90ca4b5f18569926304aaece6; //keccak256(abi.encodePacked(\"TREASURY_WALLET\"))\r\n    bytes32 internal constant LOCKED = \"LOCKED\";\r\n    bytes32 internal constant UNLOCKED = \"UNLOCKED\";\r\n\r\n    //////////////////////////\r\n    /// Document datastructure\r\n    //////////////////////////\r\n\r\n    struct Document {\r\n        bytes32 docHash; // Hash of the document\r\n        uint256 lastModified; // Timestamp at which document details was last modified\r\n        string uri; // URI of the document that exist off-chain\r\n    }\r\n\r\n    // Used to hold the semantic version data\r\n    struct SemanticVersion {\r\n        uint8 major;\r\n        uint8 minor;\r\n        uint8 patch;\r\n    }\r\n\r\n    // Struct for module data\r\n    struct ModuleData {\r\n        bytes32 name;\r\n        address module;\r\n        address moduleFactory;\r\n        bool isArchived;\r\n        uint8[] moduleTypes;\r\n        uint256[] moduleIndexes;\r\n        uint256 nameIndex;\r\n        bytes32 label;\r\n    }\r\n\r\n    // Structures to maintain checkpoints of balances for governance / dividends\r\n    struct Checkpoint {\r\n        uint256 checkpointId;\r\n        uint256 value;\r\n    }\r\n\r\n    //Naming scheme to match Ownable\r\n    address internal _owner;\r\n    address public tokenFactory;\r\n    bool public initialized;\r\n\r\n    // ERC20 Details\r\n    string public name;\r\n    string public symbol;\r\n    uint8 public decimals;\r\n\r\n    // Address of the controller which is a delegated entity\r\n    // set by the issuer/owner of the token\r\n    address public controller;\r\n\r\n    IPolymathRegistry public polymathRegistry;\r\n    IModuleRegistry public moduleRegistry;\r\n    ISecurityTokenRegistry public securityTokenRegistry;\r\n    IERC20 public polyToken;\r\n    address public getterDelegate;\r\n    // Address of the data store used to store shared data\r\n    IDataStore public dataStore;\r\n\r\n    uint256 public granularity;\r\n\r\n    // Value of current checkpoint\r\n    uint256 public currentCheckpointId;\r\n\r\n    // off-chain data\r\n    string public tokenDetails;\r\n\r\n    // Used to permanently halt controller actions\r\n    bool public controllerDisabled = false;\r\n\r\n    // Used to temporarily halt all transactions\r\n    bool public transfersFrozen;\r\n\r\n    // Number of investors with non-zero balance\r\n    uint256 public holderCount;\r\n\r\n    // Variable which tells whether issuance is ON or OFF forever\r\n    // Implementers need to implement one more function to reset the value of `issuance` variable\r\n    // to false. That function is not a part of the standard (EIP-1594) as it is depend on the various factors\r\n    // issuer, followed compliance rules etc. So issuers have the choice how they want to close the issuance.\r\n    bool internal issuance = true;\r\n\r\n    // Array use to store all the document name present in the contracts\r\n    bytes32[] _docNames;\r\n\r\n    // Times at which each checkpoint was created\r\n    uint256[] checkpointTimes;\r\n\r\n    SemanticVersion securityTokenVersion;\r\n\r\n    // Records added modules - module list should be order agnostic!\r\n    mapping(uint8 => address[]) modules;\r\n\r\n    // Records information about the module\r\n    mapping(address => ModuleData) modulesToData;\r\n\r\n    // Records added module names - module list should be order agnostic!\r\n    mapping(bytes32 => address[]) names;\r\n\r\n    // Mapping of checkpoints that relate to total supply\r\n    mapping (uint256 => uint256) checkpointTotalSupply;\r\n\r\n    // Map each investor to a series of checkpoints\r\n    mapping(address => Checkpoint[]) checkpointBalances;\r\n\r\n    // mapping to store the documents details in the document\r\n    mapping(bytes32 => Document) internal _documents;\r\n    // mapping to store the document name indexes\r\n    mapping(bytes32 => uint256) internal _docIndexes;\r\n    // Mapping from (investor, partition, operator) to approved status\r\n    mapping (address => mapping (bytes32 => mapping (address => bool))) partitionApprovals;\r\n\r\n}\r\n",
  "sourcePath": "C:\\mspace\\polymath-core\\contracts\\tokens\\SecurityTokenStorage.sol",
  "compiler": {
    "name": "solc",
    "version": "0.5.8+commit.23d335f2.Emscripten.clang"
  },
  "schemaVersion": "3.0.11",
  "updatedAt": "2019-08-05T22:52:47.030Z",
  "devdoc": {
    "methods": {}
  },
  "userdoc": {
    "methods": {}
  }
}