{
  "contractName": "SecurityTokenProxy",
  "abi": [
    {
      "constant": false,
      "inputs": [],
      "name": "proxyOwner",
      "outputs": [
        {
          "name": "",
          "type": "address"
        }
      ],
      "payable": false,
      "stateMutability": "nonpayable",
      "type": "function"
    },
    {
      "constant": true,
      "inputs": [],
      "name": "name",
      "outputs": [
        {
          "name": "",
          "type": "string"
        }
      ],
      "payable": false,
      "stateMutability": "view",
      "type": "function"
    },
    {
      "constant": true,
      "inputs": [],
      "name": "initialized",
      "outputs": [
        {
          "name": "",
          "type": "bool"
        }
      ],
      "payable": false,
      "stateMutability": "view",
      "type": "function"
    },
    {
      "constant": true,
      "inputs": [],
      "name": "holderCount",
      "outputs": [
        {
          "name": "",
          "type": "uint256"
        }
      ],
      "payable": false,
      "stateMutability": "view",
      "type": "function"
    },
    {
      "constant": true,
      "inputs": [],
      "name": "getterDelegate",
      "outputs": [
        {
          "name": "",
          "type": "address"
        }
      ],
      "payable": false,
      "stateMutability": "view",
      "type": "function"
    },
    {
      "constant": true,
      "inputs": [],
      "name": "decimals",
      "outputs": [
        {
          "name": "",
          "type": "uint8"
        }
      ],
      "payable": false,
      "stateMutability": "view",
      "type": "function"
    },
    {
      "constant": true,
      "inputs": [],
      "name": "currentCheckpointId",
      "outputs": [
        {
          "name": "",
          "type": "uint256"
        }
      ],
      "payable": false,
      "stateMutability": "view",
      "type": "function"
    },
    {
      "constant": false,
      "inputs": [],
      "name": "version",
      "outputs": [
        {
          "name": "",
          "type": "string"
        }
      ],
      "payable": false,
      "stateMutability": "nonpayable",
      "type": "function"
    },
    {
      "constant": true,
      "inputs": [],
      "name": "granularity",
      "outputs": [
        {
          "name": "",
          "type": "uint256"
        }
      ],
      "payable": false,
      "stateMutability": "view",
      "type": "function"
    },
    {
      "constant": false,
      "inputs": [
        {
          "name": "_newVersion",
          "type": "string"
        },
        {
          "name": "_newImplementation",
          "type": "address"
        }
      ],
      "name": "upgradeTo",
      "outputs": [],
      "payable": false,
      "stateMutability": "nonpayable",
      "type": "function"
    },
    {
      "constant": false,
      "inputs": [],
      "name": "implementation",
      "outputs": [
        {
          "name": "",
          "type": "address"
        }
      ],
      "payable": false,
      "stateMutability": "nonpayable",
      "type": "function"
    },
    {
      "constant": true,
      "inputs": [],
      "name": "dataStore",
      "outputs": [
        {
          "name": "",
          "type": "address"
        }
      ],
      "payable": false,
      "stateMutability": "view",
      "type": "function"
    },
    {
      "constant": true,
      "inputs": [],
      "name": "polyToken",
      "outputs": [
        {
          "name": "",
          "type": "address"
        }
      ],
      "payable": false,
      "stateMutability": "view",
      "type": "function"
    },
    {
      "constant": true,
      "inputs": [],
      "name": "polymathRegistry",
      "outputs": [
        {
          "name": "",
          "type": "address"
        }
      ],
      "payable": false,
      "stateMutability": "view",
      "type": "function"
    },
    {
      "constant": true,
      "inputs": [],
      "name": "controllerDisabled",
      "outputs": [
        {
          "name": "",
          "type": "bool"
        }
      ],
      "payable": false,
      "stateMutability": "view",
      "type": "function"
    },
    {
      "constant": false,
      "inputs": [
        {
          "name": "_newVersion",
          "type": "string"
        },
        {
          "name": "_newImplementation",
          "type": "address"
        },
        {
          "name": "_data",
          "type": "bytes"
        }
      ],
      "name": "upgradeToAndCall",
      "outputs": [],
      "payable": true,
      "stateMutability": "payable",
      "type": "function"
    },
    {
      "constant": true,
      "inputs": [],
      "name": "symbol",
      "outputs": [
        {
          "name": "",
          "type": "string"
        }
      ],
      "payable": false,
      "stateMutability": "view",
      "type": "function"
    },
    {
      "constant": true,
      "inputs": [],
      "name": "moduleRegistry",
      "outputs": [
        {
          "name": "",
          "type": "address"
        }
      ],
      "payable": false,
      "stateMutability": "view",
      "type": "function"
    },
    {
      "constant": true,
      "inputs": [],
      "name": "securityTokenRegistry",
      "outputs": [
        {
          "name": "",
          "type": "address"
        }
      ],
      "payable": false,
      "stateMutability": "view",
      "type": "function"
    },
    {
      "constant": true,
      "inputs": [],
      "name": "tokenDetails",
      "outputs": [
        {
          "name": "",
          "type": "string"
        }
      ],
      "payable": false,
      "stateMutability": "view",
      "type": "function"
    },
    {
      "constant": true,
      "inputs": [],
      "name": "transfersFrozen",
      "outputs": [
        {
          "name": "",
          "type": "bool"
        }
      ],
      "payable": false,
      "stateMutability": "view",
      "type": "function"
    },
    {
      "constant": true,
      "inputs": [],
      "name": "tokenFactory",
      "outputs": [
        {
          "name": "",
          "type": "address"
        }
      ],
      "payable": false,
      "stateMutability": "view",
      "type": "function"
    },
    {
      "constant": false,
      "inputs": [
        {
          "name": "_newOwner",
          "type": "address"
        }
      ],
      "name": "transferProxyOwnership",
      "outputs": [],
      "payable": false,
      "stateMutability": "nonpayable",
      "type": "function"
    },
    {
      "constant": true,
      "inputs": [],
      "name": "controller",
      "outputs": [
        {
          "name": "",
          "type": "address"
        }
      ],
      "payable": false,
      "stateMutability": "view",
      "type": "function"
    },
    {
      "inputs": [
        {
          "name": "_name",
          "type": "string"
        },
        {
          "name": "_symbol",
          "type": "string"
        },
        {
          "name": "_decimals",
          "type": "uint8"
        },
        {
          "name": "_granularity",
          "type": "uint256"
        },
        {
          "name": "_tokenDetails",
          "type": "string"
        },
        {
          "name": "_polymathRegistry",
          "type": "address"
        }
      ],
      "payable": false,
      "stateMutability": "nonpayable",
      "type": "constructor"
    },
    {
      "payable": true,
      "stateMutability": "payable",
      "type": "fallback"
    },
    {
      "anonymous": false,
      "inputs": [
        {
          "indexed": false,
          "name": "_previousOwner",
          "type": "address"
        },
        {
          "indexed": false,
          "name": "_newOwner",
          "type": "address"
        }
      ],
      "name": "ProxyOwnershipTransferred",
      "type": "event"
    },
    {
      "anonymous": false,
      "inputs": [
        {
          "indexed": false,
          "name": "_newVersion",
          "type": "string"
        },
        {
          "indexed": true,
          "name": "_newImplementation",
          "type": "address"
        }
      ],
      "name": "Upgraded",
      "type": "event"
    }
  ],
  "bytecode": "0x60806040526012805460ff199081169091556014805490911660011790553480156200002a57600080fd5b506040516200149d3803806200149d833981018060405260c08110156200005057600080fd5b8101908080516401000000008111156200006957600080fd5b820160208101848111156200007d57600080fd5b81516401000000008111828201871017156200009857600080fd5b50509291906020018051640100000000811115620000b557600080fd5b82016020810184811115620000c957600080fd5b8151640100000000811182820187101715620000e457600080fd5b505060208201516040830151606090930180519295919491926401000000008111156200011057600080fd5b820160208101848111156200012457600080fd5b81516401000000008111828201871017156200013f57600080fd5b505060209182015190935091506200015d9033906200025f811b901c565b6001600160a01b038116620001d357604080517f08c379a000000000000000000000000000000000000000000000000000000000815260206004820152600f60248201527f496e76616c696420416464726573730000000000000000000000000000000000604482015290519081900360640190fd5b8551620001e8906006906020890190620002f7565b508451620001fe906007906020880190620002f7565b506008805460ff191660ff8616179055600980546001600160a01b0319166001600160a01b03831617905581516200023e906011906020850190620002f7565b505050600f555050600480546001600160a01b03191633179055506200039c565b6001600160a01b038116620002d557604080517f08c379a000000000000000000000000000000000000000000000000000000000815260206004820152601860248201527f416464726573732073686f756c64206e6f742062652030780000000000000000604482015290519081900360640190fd5b602280546001600160a01b0319166001600160a01b0392909216919091179055565b828054600181600116156101000203166002900490600052602060002090601f016020900481019282601f106200033a57805160ff19168380011785556200036a565b828001600101855582156200036a579182015b828111156200036a5782518255916020019190600101906200034d565b50620003789291506200037c565b5090565b6200039991905b8082111562000378576000815560010162000383565b90565b6110f180620003ac6000396000f3fe60806040526004361061014b5760003560e01c80636faa22a5116100b6578063ce4dbdff1161006f578063ce4dbdff146104c7578063d6abe110146104dc578063e45b8134146104f1578063e77772fe14610506578063f1739cae1461051b578063f77c47911461054e5761014b565b80636faa22a51461038f57806377282b70146103a45780637a802c71146103b9578063958a41dd146103ce57806395d89b411461049d578063b95459e4146104b25761014b565b80635488cc80116101085780635488cc80146102a057806354fd4d50146102b5578063556f0dc7146102ca5780635a8b1a9f146102df5780635c60da1b14610365578063660d0d671461037a5761014b565b8063025313a21461015557806306fdde0314610186578063158ef93e146102105780631aab9a9f146102395780632fb3b99d14610260578063313ce56714610275575b610153610563565b005b34801561016157600080fd5b5061016a610575565b604080516001600160a01b039092168252519081900360200190f35b34801561019257600080fd5b5061019b6105b2565b6040805160208082528351818301528351919283929083019185019080838360005b838110156101d55781810151838201526020016101bd565b50505050905090810190601f1680156102025780820380516001836020036101000a031916815260200191505b509250505060405180910390f35b34801561021c57600080fd5b50610225610640565b604080519115158252519081900360200190f35b34801561024557600080fd5b5061024e610650565b60408051918252519081900360200190f35b34801561026c57600080fd5b5061016a610656565b34801561028157600080fd5b5061028a610665565b6040805160ff9092168252519081900360200190f35b3480156102ac57600080fd5b5061024e61066e565b3480156102c157600080fd5b5061019b610674565b3480156102d657600080fd5b5061024e610729565b3480156102eb57600080fd5b506101536004803603604081101561030257600080fd5b81019060208101813564010000000081111561031d57600080fd5b82018360208201111561032f57600080fd5b8035906020019184600183028401116401000000008311171561035157600080fd5b9193509150356001600160a01b031661072f565b34801561037157600080fd5b5061016a6107a3565b34801561038657600080fd5b5061016a6107ce565b34801561039b57600080fd5b5061016a6107dd565b3480156103b057600080fd5b5061016a6107ec565b3480156103c557600080fd5b506102256107fb565b610153600480360360608110156103e457600080fd5b8101906020810181356401000000008111156103ff57600080fd5b82018360208201111561041157600080fd5b8035906020019184600183028401116401000000008311171561043357600080fd5b919390926001600160a01b038335169260408101906020013564010000000081111561045e57600080fd5b82018360208201111561047057600080fd5b8035906020019184600183028401116401000000008311171561049257600080fd5b509092509050610804565b3480156104a957600080fd5b5061019b6108ae565b3480156104be57600080fd5b5061016a610909565b3480156104d357600080fd5b5061016a610918565b3480156104e857600080fd5b5061019b610927565b3480156104fd57600080fd5b50610225610982565b34801561051257600080fd5b5061016a610990565b34801561052757600080fd5b506101536004803603602081101561053e57600080fd5b50356001600160a01b031661099f565b34801561055a57600080fd5b5061016a610a82565b61057361056e610a96565b610aa5565b565b600061057f610ac9565b6001600160a01b0316336001600160a01b031614156105a7576105a0610ac9565b90506105af565b6105af610563565b90565b6006805460408051602060026001851615610100026000190190941693909304601f810184900484028201840190925281815292918301828280156106385780601f1061060d57610100808354040283529160200191610638565b820191906000526020600020905b81548152906001019060200180831161061b57829003601f168201915b505050505081565b600554600160a01b900460ff1681565b60135481565b600d546001600160a01b031681565b60085460ff1681565b60105481565b606061067e610ac9565b6001600160a01b0316336001600160a01b031614156105a7576020805460408051601f6002600019610100600187161502019094169390930492830184900484028101840190915281815291908282018282801561071d5780601f106106f25761010080835404028352916020019161071d565b820191906000526020600020905b81548152906001019060200180831161070057829003601f168201915b505050505090506105af565b600f5481565b610737610ac9565b6001600160a01b0316336001600160a01b031614156107965761079183838080601f016020809104026020016040519081016040528093929190818152602001838380828437600092019190915250859250610ad8915050565b61079e565b61079e610563565b505050565b60006107ad610ac9565b6001600160a01b0316336001600160a01b031614156105a7576105a0610a96565b600e546001600160a01b031681565b600c546001600160a01b031681565b6009546001600160a01b031681565b60125460ff1681565b61080c610ac9565b6001600160a01b0316336001600160a01b0316141561089f5761089a85858080601f01602080910402602001604051908101604052809392919081815260200183838082843760009201919091525050604080516020601f880181900481028201810190925286815288935091508690869081908401838280828437600092019190915250610dd292505050565b6108a7565b6108a7610563565b5050505050565b6007805460408051602060026001851615610100026000190190941693909304601f810184900484028201840190925281815292918301828280156106385780601f1061060d57610100808354040283529160200191610638565b600a546001600160a01b031681565b600b546001600160a01b031681565b6011805460408051602060026001851615610100026000190190941693909304601f810184900484028201840190925281815292918301828280156106385780601f1061060d57610100808354040283529160200191610638565b601254610100900460ff1681565b6005546001600160a01b031681565b6109a7610ac9565b6001600160a01b0316336001600160a01b03161415610a77576001600160a01b038116610a1e5760408051600160e51b62461bcd02815260206004820152601860248201527f416464726573732073686f756c64206e6f742062652030780000000000000000604482015290519081900360640190fd5b7f5a3e66efaa1e445ebd894728a69d6959842ea1e97bd79b892797106e270efcd9610a47610ac9565b604080516001600160a01b03928316815291841660208301528051918290030190a1610a7281610ecb565b610a7f565b610a7f610563565b50565b60085461010090046001600160a01b031681565b6021546001600160a01b031690565b3660008037600080366000845af43d6000803e808015610ac4573d6000f35b3d6000fd5b6022546001600160a01b031690565b6021546001600160a01b03828116911614801590610afe57506001600160a01b03811615155b610b3c57604051600160e51b62461bcd0281526004018080602001828103825260468152602001806110456046913960600191505060405180910390fd5b610b4581610f4b565b610b8357604051600160e51b62461bcd02815260040180806020018281038252603b81526020018061108b603b913960400191505060405180910390fd5b6000825111610bc657604051600160e51b62461bcd028152600401808060200182810382526022815260200180610fea6022913960400191505060405180910390fd5b816040516020018082805190602001908083835b60208310610bf95780518252601f199092019160209182019101610bda565b6001836020036101000a0380198251168184511680821785525050505050509050019150506040516020818303038152906040528051906020012060206040516020018082805460018160011615610100020316600290048015610c945780601f10610c72576101008083540402835291820191610c94565b820191906000526020600020905b815481529060010190602001808311610c80575b5050915050604051602081830303815290604052805190602001201415610d055760408051600160e51b62461bcd02815260206004820152601d60248201527f4e65772076657273696f6e20657175616c7320746f2063757272656e74000000604482015290519081900360640190fd5b8151610d179060209081850190610f51565b50602180546001600160a01b0319166001600160a01b03831690811790915560408051602080825285518183015285517f8e05e0e35ff592971ca8b477d4285a33a61ded208d644042667b78693a472f5e938793928392918301919085019080838360005b83811015610d94578181015183820152602001610d7c565b50505050905090810190601f168015610dc15780820380516001836020036101000a031916815260200191505b509250505060405180910390a25050565b610ddc8383610ad8565b6000306001600160a01b031634836040518082805190602001908083835b60208310610e195780518252601f199092019160209182019101610dfa565b6001836020036101000a03801982511681845116808217855250505050505090500191505060006040518083038185875af1925050503d8060008114610e7b576040519150601f19603f3d011682016040523d82523d6000602084013e610e80565b606091505b50508091505080610ec557604051600160e51b62461bcd02815260040180806020018281038252603981526020018061100c6039913960400191505060405180910390fd5b50505050565b6001600160a01b038116610f295760408051600160e51b62461bcd02815260206004820152601860248201527f416464726573732073686f756c64206e6f742062652030780000000000000000604482015290519081900360640190fd5b602280546001600160a01b0319166001600160a01b0392909216919091179055565b3b151590565b828054600181600116156101000203166002900490600052602060002090601f016020900481019282601f10610f9257805160ff1916838001178555610fbf565b82800160010185558215610fbf579182015b82811115610fbf578251825591602001919060010190610fa4565b50610fcb929150610fcf565b5090565b6105af91905b80821115610fcb5760008155600101610fd556fe56657273696f6e2073686f756c64206e6f7420626520656d70747920737472696e674661696c20696e20657865637574696e67207468652066756e6374696f6e206f6620696d706c656d656e746174696f6e20636f6e74726163744f6c642061646472657373206973206e6f7420616c6c6f77656420616e6420696d706c656d656e746174696f6e20616464726573732073686f756c64206e6f7420626520307843616e6e6f742073657420612070726f787920696d706c656d656e746174696f6e20746f2061206e6f6e2d636f6e74726163742061646472657373a165627a7a72305820c24e2defbc18a0d1081ce7a6a967c4dc6401669defa162555d1fb25fb7f7173e0029",
  "source": "pragma solidity 0.5.8;\r\n\r\nimport \"../proxy/OwnedUpgradeabilityProxy.sol\";\r\nimport \"./OZStorage.sol\";\r\nimport \"./SecurityTokenStorage.sol\";\r\n\r\n/**\r\n * @title USDTiered STO module Proxy\r\n */\r\ncontract SecurityTokenProxy is OZStorage, SecurityTokenStorage, OwnedUpgradeabilityProxy {\r\n\r\n    /**\r\n     * @notice constructor\r\n     * @param _name Name of the SecurityToken\r\n     * @param _symbol Symbol of the Token\r\n     * @param _decimals Decimals for the securityToken\r\n     * @param _granularity granular level of the token\r\n     * @param _tokenDetails Details of the token that are stored off-chain\r\n     * @param _polymathRegistry Contract address of the polymath registry\r\n     */\r\n    constructor(\r\n        string memory _name,\r\n        string memory _symbol,\r\n        uint8 _decimals,\r\n        uint256 _granularity,\r\n        string memory _tokenDetails,\r\n        address _polymathRegistry\r\n    )\r\n        public\r\n    {\r\n        //Set storage variables - NB implementation not yet set\r\n        require(_polymathRegistry != address(0), \"Invalid Address\");\r\n        name = _name;\r\n        symbol = _symbol;\r\n        decimals = _decimals;\r\n        polymathRegistry = IPolymathRegistry(_polymathRegistry);\r\n        tokenDetails = _tokenDetails;\r\n        granularity = _granularity;\r\n        _owner = msg.sender;\r\n    }\r\n\r\n}\r\n",
  "sourcePath": "C:\\mspace\\polymath-core\\contracts\\tokens\\SecurityTokenProxy.sol",
  "compiler": {
    "name": "solc",
    "version": "0.5.8+commit.23d335f2.Emscripten.clang"
  },
  "schemaVersion": "3.0.11",
  "updatedAt": "2019-08-05T22:52:47.027Z",
  "devdoc": {
    "methods": {
      "constructor": {
        "params": {
          "_decimals": "Decimals for the securityToken\r",
          "_granularity": "granular level of the token\r",
          "_name": "Name of the SecurityToken\r",
          "_polymathRegistry": "Contract address of the polymath registry\r",
          "_symbol": "Symbol of the Token\r",
          "_tokenDetails": "Details of the token that are stored off-chain\r"
        }
      },
      "implementation()": {
        "details": "Tells the address of the current implementation\r",
        "return": "address of the current implementation\r"
      },
      "proxyOwner()": {
        "details": "Tells the address of the proxy owner\r",
        "return": "the address of the proxy owner\r"
      },
      "transferProxyOwnership(address)": {
        "details": "Allows the current owner to transfer control of the contract to a newOwner.\r",
        "params": {
          "_newOwner": "The address to transfer ownership to.\r"
        }
      },
      "upgradeTo(string,address)": {
        "details": "Allows the upgradeability owner to upgrade the current version of the proxy.\r",
        "params": {
          "_newImplementation": "representing the address of the new implementation to be set.\r",
          "_newVersion": "representing the version name of the new implementation to be set.\r"
        }
      },
      "upgradeToAndCall(string,address,bytes)": {
        "details": "Allows the upgradeability owner to upgrade the current version of the proxy and call the new implementation\r to initialize whatever is needed through a low level call.\r",
        "params": {
          "_data": "represents the msg.data to bet sent in the low level call. This parameter may include the function\r signature of the implementation to be called with the needed payload\r",
          "_newImplementation": "representing the address of the new implementation to be set.\r",
          "_newVersion": "representing the version name of the new implementation to be set.\r"
        }
      },
      "version()": {
        "details": "Tells the version name of the current implementation\r",
        "return": "string representing the name of the current version\r"
      }
    },
    "title": "USDTiered STO module Proxy\r"
  },
  "userdoc": {
    "methods": {
      "constructor": "constructor\r"
    }
  }
}