{
  "contractName": "SecurityTokenRegistryMock",
  "abi": [
    {
      "constant": false,
      "inputs": [
        {
          "name": "_STFactoryAddress",
          "type": "address"
        },
        {
          "name": "_major",
          "type": "uint8"
        },
        {
          "name": "_minor",
          "type": "uint8"
        },
        {
          "name": "_patch",
          "type": "uint8"
        }
      ],
      "name": "setProtocolFactory",
      "outputs": [],
      "payable": false,
      "stateMutability": "nonpayable",
      "type": "function"
    },
    {
      "constant": true,
      "inputs": [
        {
          "name": "_variable",
          "type": "bytes32"
        }
      ],
      "name": "getBytes32Value",
      "outputs": [
        {
          "name": "",
          "type": "bytes32"
        }
      ],
      "payable": false,
      "stateMutability": "view",
      "type": "function"
    },
    {
      "constant": false,
      "inputs": [
        {
          "name": "_polymathRegistry",
          "type": "address"
        },
        {
          "name": "_stLaunchFee",
          "type": "uint256"
        },
        {
          "name": "_tickerRegFee",
          "type": "uint256"
        },
        {
          "name": "_owner",
          "type": "address"
        },
        {
          "name": "_getterContract",
          "type": "address"
        }
      ],
      "name": "initialize",
      "outputs": [],
      "payable": false,
      "stateMutability": "nonpayable",
      "type": "function"
    },
    {
      "constant": false,
      "inputs": [
        {
          "name": "_owner",
          "type": "address"
        },
        {
          "name": "_ticker",
          "type": "string"
        },
        {
          "name": "_registrationDate",
          "type": "uint256"
        },
        {
          "name": "_expiryDate",
          "type": "uint256"
        },
        {
          "name": "_status",
          "type": "bool"
        }
      ],
      "name": "modifyExistingTicker",
      "outputs": [],
      "payable": false,
      "stateMutability": "nonpayable",
      "type": "function"
    },
    {
      "constant": false,
      "inputs": [
        {
          "name": "_ticker",
          "type": "string"
        },
        {
          "name": "_owner",
          "type": "address"
        },
        {
          "name": "_securityToken",
          "type": "address"
        },
        {
          "name": "_tokenDetails",
          "type": "string"
        },
        {
          "name": "_deployedAt",
          "type": "uint256"
        }
      ],
      "name": "modifyExistingSecurityToken",
      "outputs": [],
      "payable": false,
      "stateMutability": "nonpayable",
      "type": "function"
    },
    {
      "constant": false,
      "inputs": [
        {
          "name": "_newExpiry",
          "type": "uint256"
        }
      ],
      "name": "changeExpiryLimit",
      "outputs": [],
      "payable": false,
      "stateMutability": "nonpayable",
      "type": "function"
    },
    {
      "constant": false,
      "inputs": [
        {
          "name": "_owner",
          "type": "address"
        },
        {
          "name": "_ticker",
          "type": "string"
        },
        {
          "name": "_tokenName",
          "type": "string"
        }
      ],
      "name": "registerTicker",
      "outputs": [],
      "payable": false,
      "stateMutability": "nonpayable",
      "type": "function"
    },
    {
      "constant": false,
      "inputs": [],
      "name": "unpause",
      "outputs": [],
      "payable": false,
      "stateMutability": "nonpayable",
      "type": "function"
    },
    {
      "constant": false,
      "inputs": [
        {
          "name": "_name",
          "type": "string"
        },
        {
          "name": "_ticker",
          "type": "string"
        },
        {
          "name": "_tokenDetails",
          "type": "string"
        },
        {
          "name": "_divisible",
          "type": "bool"
        },
        {
          "name": "_treasuryWallet",
          "type": "address"
        },
        {
          "name": "_protocolVersion",
          "type": "uint256"
        }
      ],
      "name": "generateNewSecurityToken",
      "outputs": [],
      "payable": false,
      "stateMutability": "nonpayable",
      "type": "function"
    },
    {
      "constant": false,
      "inputs": [
        {
          "name": "_stLaunchFee",
          "type": "uint256"
        }
      ],
      "name": "changeSecurityLaunchFee",
      "outputs": [],
      "payable": false,
      "stateMutability": "nonpayable",
      "type": "function"
    },
    {
      "constant": true,
      "inputs": [
        {
          "name": "_variable",
          "type": "bytes32"
        }
      ],
      "name": "getBytesValue",
      "outputs": [
        {
          "name": "",
          "type": "bytes"
        }
      ],
      "payable": false,
      "stateMutability": "view",
      "type": "function"
    },
    {
      "constant": true,
      "inputs": [],
      "name": "someValue",
      "outputs": [
        {
          "name": "",
          "type": "uint256"
        }
      ],
      "payable": false,
      "stateMutability": "view",
      "type": "function"
    },
    {
      "constant": true,
      "inputs": [
        {
          "name": "_variable",
          "type": "bytes32"
        }
      ],
      "name": "getAddressValue",
      "outputs": [
        {
          "name": "",
          "type": "address"
        }
      ],
      "payable": false,
      "stateMutability": "view",
      "type": "function"
    },
    {
      "constant": false,
      "inputs": [
        {
          "name": "_getterContract",
          "type": "address"
        }
      ],
      "name": "setGetterRegistry",
      "outputs": [],
      "payable": false,
      "stateMutability": "nonpayable",
      "type": "function"
    },
    {
      "constant": false,
      "inputs": [
        {
          "name": "",
          "type": "string"
        },
        {
          "name": "_ticker",
          "type": "string"
        },
        {
          "name": "_owner",
          "type": "address"
        },
        {
          "name": "_securityToken",
          "type": "address"
        },
        {
          "name": "_tokenDetails",
          "type": "string"
        },
        {
          "name": "_deployedAt",
          "type": "uint256"
        }
      ],
      "name": "modifySecurityToken",
      "outputs": [],
      "payable": false,
      "stateMutability": "nonpayable",
      "type": "function"
    },
    {
      "constant": true,
      "inputs": [
        {
          "name": "_key",
          "type": "bytes32"
        }
      ],
      "name": "getArrayAddress",
      "outputs": [
        {
          "name": "",
          "type": "address[]"
        }
      ],
      "payable": false,
      "stateMutability": "view",
      "type": "function"
    },
    {
      "constant": false,
      "inputs": [
        {
          "name": "_name",
          "type": "string"
        },
        {
          "name": "_ticker",
          "type": "string"
        },
        {
          "name": "_tokenDetails",
          "type": "string"
        },
        {
          "name": "_divisible",
          "type": "bool"
        },
        {
          "name": "_treasuryWallet",
          "type": "address"
        }
      ],
      "name": "refreshSecurityToken",
      "outputs": [
        {
          "name": "",
          "type": "address"
        }
      ],
      "payable": false,
      "stateMutability": "nonpayable",
      "type": "function"
    },
    {
      "constant": false,
      "inputs": [],
      "name": "pause",
      "outputs": [],
      "payable": false,
      "stateMutability": "nonpayable",
      "type": "function"
    },
    {
      "constant": false,
      "inputs": [
        {
          "name": "_tokenContract",
          "type": "address"
        }
      ],
      "name": "reclaimERC20",
      "outputs": [],
      "payable": false,
      "stateMutability": "nonpayable",
      "type": "function"
    },
    {
      "constant": true,
      "inputs": [],
      "name": "owner",
      "outputs": [
        {
          "name": "",
          "type": "address"
        }
      ],
      "payable": false,
      "stateMutability": "view",
      "type": "function"
    },
    {
      "constant": true,
      "inputs": [
        {
          "name": "_variable",
          "type": "bytes32"
        }
      ],
      "name": "getBoolValue",
      "outputs": [
        {
          "name": "",
          "type": "bool"
        }
      ],
      "payable": false,
      "stateMutability": "view",
      "type": "function"
    },
    {
      "constant": false,
      "inputs": [
        {
          "name": "_owner",
          "type": "address"
        },
        {
          "name": "_ticker",
          "type": "string"
        },
        {
          "name": "_tokenName",
          "type": "string"
        },
        {
          "name": "_registrationDate",
          "type": "uint256"
        },
        {
          "name": "_expiryDate",
          "type": "uint256"
        },
        {
          "name": "_status",
          "type": "bool"
        }
      ],
      "name": "modifyTicker",
      "outputs": [],
      "payable": false,
      "stateMutability": "nonpayable",
      "type": "function"
    },
    {
      "constant": false,
      "inputs": [
        {
          "name": "_tickerRegFee",
          "type": "uint256"
        }
      ],
      "name": "changeTickerRegistrationFee",
      "outputs": [],
      "payable": false,
      "stateMutability": "nonpayable",
      "type": "function"
    },
    {
      "constant": false,
      "inputs": [
        {
          "name": "_ticker",
          "type": "string"
        }
      ],
      "name": "removeTicker",
      "outputs": [],
      "payable": false,
      "stateMutability": "nonpayable",
      "type": "function"
    },
    {
      "constant": true,
      "inputs": [
        {
          "name": "_variable",
          "type": "bytes32"
        }
      ],
      "name": "getStringValue",
      "outputs": [
        {
          "name": "",
          "type": "string"
        }
      ],
      "payable": false,
      "stateMutability": "view",
      "type": "function"
    },
    {
      "constant": true,
      "inputs": [
        {
          "name": "_key",
          "type": "bytes32"
        }
      ],
      "name": "getArrayBytes32",
      "outputs": [
        {
          "name": "",
          "type": "bytes32[]"
        }
      ],
      "payable": false,
      "stateMutability": "view",
      "type": "function"
    },
    {
      "constant": true,
      "inputs": [
        {
          "name": "_ticker",
          "type": "string"
        }
      ],
      "name": "tickerAvailable",
      "outputs": [
        {
          "name": "",
          "type": "bool"
        }
      ],
      "payable": false,
      "stateMutability": "view",
      "type": "function"
    },
    {
      "constant": false,
      "inputs": [
        {
          "name": "_major",
          "type": "uint8"
        },
        {
          "name": "_minor",
          "type": "uint8"
        },
        {
          "name": "_patch",
          "type": "uint8"
        }
      ],
      "name": "removeProtocolFactory",
      "outputs": [],
      "payable": false,
      "stateMutability": "nonpayable",
      "type": "function"
    },
    {
      "constant": true,
      "inputs": [],
      "name": "isPaused",
      "outputs": [
        {
          "name": "",
          "type": "bool"
        }
      ],
      "payable": false,
      "stateMutability": "view",
      "type": "function"
    },
    {
      "constant": false,
      "inputs": [
        {
          "name": "_major",
          "type": "uint8"
        },
        {
          "name": "_minor",
          "type": "uint8"
        },
        {
          "name": "_patch",
          "type": "uint8"
        }
      ],
      "name": "setLatestVersion",
      "outputs": [],
      "payable": false,
      "stateMutability": "nonpayable",
      "type": "function"
    },
    {
      "constant": false,
      "inputs": [
        {
          "name": "_owner",
          "type": "address"
        },
        {
          "name": "_ticker",
          "type": "string"
        }
      ],
      "name": "registerNewTicker",
      "outputs": [],
      "payable": false,
      "stateMutability": "nonpayable",
      "type": "function"
    },
    {
      "constant": false,
      "inputs": [
        {
          "name": "_feeType",
          "type": "bytes32"
        }
      ],
      "name": "getFees",
      "outputs": [
        {
          "name": "usdFee",
          "type": "uint256"
        },
        {
          "name": "polyFee",
          "type": "uint256"
        }
      ],
      "payable": false,
      "stateMutability": "nonpayable",
      "type": "function"
    },
    {
      "constant": false,
      "inputs": [
        {
          "name": "_name",
          "type": "string"
        },
        {
          "name": "_ticker",
          "type": "string"
        },
        {
          "name": "_tokenDetails",
          "type": "string"
        },
        {
          "name": "_divisible",
          "type": "bool"
        }
      ],
      "name": "generateSecurityToken",
      "outputs": [],
      "payable": false,
      "stateMutability": "nonpayable",
      "type": "function"
    },
    {
      "constant": false,
      "inputs": [],
      "name": "getSecurityTokenLaunchFee",
      "outputs": [
        {
          "name": "polyFee",
          "type": "uint256"
        }
      ],
      "payable": false,
      "stateMutability": "nonpayable",
      "type": "function"
    },
    {
      "constant": false,
      "inputs": [
        {
          "name": "_newOwner",
          "type": "address"
        },
        {
          "name": "_ticker",
          "type": "string"
        }
      ],
      "name": "transferTickerOwnership",
      "outputs": [],
      "payable": false,
      "stateMutability": "nonpayable",
      "type": "function"
    },
    {
      "constant": true,
      "inputs": [
        {
          "name": "_securityToken",
          "type": "address"
        }
      ],
      "name": "isSecurityToken",
      "outputs": [
        {
          "name": "",
          "type": "bool"
        }
      ],
      "payable": false,
      "stateMutability": "view",
      "type": "function"
    },
    {
      "constant": false,
      "inputs": [
        {
          "name": "_tickerRegFee",
          "type": "uint256"
        },
        {
          "name": "_stLaunchFee",
          "type": "uint256"
        },
        {
          "name": "_isFeeInPoly",
          "type": "bool"
        }
      ],
      "name": "changeFeesAmountAndCurrency",
      "outputs": [],
      "payable": false,
      "stateMutability": "nonpayable",
      "type": "function"
    },
    {
      "constant": false,
      "inputs": [],
      "name": "getTickerRegistrationFee",
      "outputs": [
        {
          "name": "polyFee",
          "type": "uint256"
        }
      ],
      "payable": false,
      "stateMutability": "nonpayable",
      "type": "function"
    },
    {
      "constant": false,
      "inputs": [
        {
          "name": "_newAddress",
          "type": "address"
        }
      ],
      "name": "updatePolyTokenAddress",
      "outputs": [],
      "payable": false,
      "stateMutability": "nonpayable",
      "type": "function"
    },
    {
      "constant": true,
      "inputs": [
        {
          "name": "_variable",
          "type": "bytes32"
        }
      ],
      "name": "getUintValue",
      "outputs": [
        {
          "name": "",
          "type": "uint256"
        }
      ],
      "payable": false,
      "stateMutability": "view",
      "type": "function"
    },
    {
      "constant": false,
      "inputs": [
        {
          "name": "_newOwner",
          "type": "address"
        }
      ],
      "name": "transferOwnership",
      "outputs": [],
      "payable": false,
      "stateMutability": "nonpayable",
      "type": "function"
    },
    {
      "constant": false,
      "inputs": [],
      "name": "updateFromRegistry",
      "outputs": [],
      "payable": false,
      "stateMutability": "nonpayable",
      "type": "function"
    },
    {
      "constant": true,
      "inputs": [
        {
          "name": "_key",
          "type": "bytes32"
        }
      ],
      "name": "getArrayUint",
      "outputs": [
        {
          "name": "",
          "type": "uint256[]"
        }
      ],
      "payable": false,
      "stateMutability": "view",
      "type": "function"
    },
    {
      "payable": true,
      "stateMutability": "payable",
      "type": "fallback"
    },
    {
      "anonymous": false,
      "inputs": [
        {
          "indexed": false,
          "name": "account",
          "type": "address"
        }
      ],
      "name": "Pause",
      "type": "event"
    },
    {
      "anonymous": false,
      "inputs": [
        {
          "indexed": false,
          "name": "account",
          "type": "address"
        }
      ],
      "name": "Unpause",
      "type": "event"
    },
    {
      "anonymous": false,
      "inputs": [
        {
          "indexed": false,
          "name": "_ticker",
          "type": "string"
        },
        {
          "indexed": false,
          "name": "_removedBy",
          "type": "address"
        }
      ],
      "name": "TickerRemoved",
      "type": "event"
    },
    {
      "anonymous": false,
      "inputs": [
        {
          "indexed": false,
          "name": "_oldExpiry",
          "type": "uint256"
        },
        {
          "indexed": false,
          "name": "_newExpiry",
          "type": "uint256"
        }
      ],
      "name": "ChangeExpiryLimit",
      "type": "event"
    },
    {
      "anonymous": false,
      "inputs": [
        {
          "indexed": false,
          "name": "_oldFee",
          "type": "uint256"
        },
        {
          "indexed": false,
          "name": "_newFee",
          "type": "uint256"
        }
      ],
      "name": "ChangeSecurityLaunchFee",
      "type": "event"
    },
    {
      "anonymous": false,
      "inputs": [
        {
          "indexed": false,
          "name": "_oldFee",
          "type": "uint256"
        },
        {
          "indexed": false,
          "name": "_newFee",
          "type": "uint256"
        }
      ],
      "name": "ChangeTickerRegistrationFee",
      "type": "event"
    },
    {
      "anonymous": false,
      "inputs": [
        {
          "indexed": false,
          "name": "_isFeeInPoly",
          "type": "bool"
        }
      ],
      "name": "ChangeFeeCurrency",
      "type": "event"
    },
    {
      "anonymous": false,
      "inputs": [
        {
          "indexed": true,
          "name": "previousOwner",
          "type": "address"
        },
        {
          "indexed": true,
          "name": "newOwner",
          "type": "address"
        }
      ],
      "name": "OwnershipTransferred",
      "type": "event"
    },
    {
      "anonymous": false,
      "inputs": [
        {
          "indexed": false,
          "name": "_ticker",
          "type": "string"
        },
        {
          "indexed": true,
          "name": "_oldOwner",
          "type": "address"
        },
        {
          "indexed": true,
          "name": "_newOwner",
          "type": "address"
        }
      ],
      "name": "ChangeTickerOwnership",
      "type": "event"
    },
    {
      "anonymous": false,
      "inputs": [
        {
          "indexed": false,
          "name": "_ticker",
          "type": "string"
        },
        {
          "indexed": false,
          "name": "_name",
          "type": "string"
        },
        {
          "indexed": true,
          "name": "_securityTokenAddress",
          "type": "address"
        },
        {
          "indexed": true,
          "name": "_owner",
          "type": "address"
        },
        {
          "indexed": false,
          "name": "_addedAt",
          "type": "uint256"
        },
        {
          "indexed": false,
          "name": "_registrant",
          "type": "address"
        },
        {
          "indexed": false,
          "name": "_fromAdmin",
          "type": "bool"
        },
        {
          "indexed": false,
          "name": "_usdFee",
          "type": "uint256"
        },
        {
          "indexed": false,
          "name": "_polyFee",
          "type": "uint256"
        },
        {
          "indexed": false,
          "name": "_protocolVersion",
          "type": "uint256"
        }
      ],
      "name": "NewSecurityToken",
      "type": "event"
    },
    {
      "anonymous": false,
      "inputs": [
        {
          "indexed": false,
          "name": "_ticker",
          "type": "string"
        },
        {
          "indexed": false,
          "name": "_name",
          "type": "string"
        },
        {
          "indexed": true,
          "name": "_securityTokenAddress",
          "type": "address"
        },
        {
          "indexed": true,
          "name": "_owner",
          "type": "address"
        },
        {
          "indexed": false,
          "name": "_addedAt",
          "type": "uint256"
        },
        {
          "indexed": false,
          "name": "_registrant",
          "type": "address"
        },
        {
          "indexed": false,
          "name": "_fromAdmin",
          "type": "bool"
        },
        {
          "indexed": false,
          "name": "_registrationFee",
          "type": "uint256"
        }
      ],
      "name": "NewSecurityToken",
      "type": "event"
    },
    {
      "anonymous": false,
      "inputs": [
        {
          "indexed": true,
          "name": "_owner",
          "type": "address"
        },
        {
          "indexed": false,
          "name": "_ticker",
          "type": "string"
        },
        {
          "indexed": true,
          "name": "_registrationDate",
          "type": "uint256"
        },
        {
          "indexed": true,
          "name": "_expiryDate",
          "type": "uint256"
        },
        {
          "indexed": false,
          "name": "_fromAdmin",
          "type": "bool"
        },
        {
          "indexed": false,
          "name": "_registrationFeePoly",
          "type": "uint256"
        },
        {
          "indexed": false,
          "name": "_registrationFeeUsd",
          "type": "uint256"
        }
      ],
      "name": "RegisterTicker",
      "type": "event"
    },
    {
      "anonymous": false,
      "inputs": [
        {
          "indexed": true,
          "name": "_owner",
          "type": "address"
        },
        {
          "indexed": false,
          "name": "_ticker",
          "type": "string"
        },
        {
          "indexed": false,
          "name": "_name",
          "type": "string"
        },
        {
          "indexed": true,
          "name": "_registrationDate",
          "type": "uint256"
        },
        {
          "indexed": true,
          "name": "_expiryDate",
          "type": "uint256"
        },
        {
          "indexed": false,
          "name": "_fromAdmin",
          "type": "bool"
        },
        {
          "indexed": false,
          "name": "_registrationFee",
          "type": "uint256"
        }
      ],
      "name": "RegisterTicker",
      "type": "event"
    },
    {
      "anonymous": false,
      "inputs": [
        {
          "indexed": false,
          "name": "_ticker",
          "type": "string"
        },
        {
          "indexed": false,
          "name": "_name",
          "type": "string"
        },
        {
          "indexed": true,
          "name": "_securityTokenAddress",
          "type": "address"
        },
        {
          "indexed": true,
          "name": "_owner",
          "type": "address"
        },
        {
          "indexed": false,
          "name": "_addedAt",
          "type": "uint256"
        },
        {
          "indexed": false,
          "name": "_registrant",
          "type": "address"
        },
        {
          "indexed": false,
          "name": "_protocolVersion",
          "type": "uint256"
        }
      ],
      "name": "SecurityTokenRefreshed",
      "type": "event"
    },
    {
      "anonymous": false,
      "inputs": [
        {
          "indexed": true,
          "name": "_STFactory",
          "type": "address"
        },
        {
          "indexed": false,
          "name": "_major",
          "type": "uint8"
        },
        {
          "indexed": false,
          "name": "_minor",
          "type": "uint8"
        },
        {
          "indexed": false,
          "name": "_patch",
          "type": "uint8"
        }
      ],
      "name": "ProtocolFactorySet",
      "type": "event"
    },
    {
      "anonymous": false,
      "inputs": [
        {
          "indexed": false,
          "name": "_major",
          "type": "uint8"
        },
        {
          "indexed": false,
          "name": "_minor",
          "type": "uint8"
        },
        {
          "indexed": false,
          "name": "_patch",
          "type": "uint8"
        }
      ],
      "name": "LatestVersionSet",
      "type": "event"
    },
    {
      "anonymous": false,
      "inputs": [
        {
          "indexed": true,
          "name": "_STFactory",
          "type": "address"
        },
        {
          "indexed": false,
          "name": "_major",
          "type": "uint8"
        },
        {
          "indexed": false,
          "name": "_minor",
          "type": "uint8"
        },
        {
          "indexed": false,
          "name": "_patch",
          "type": "uint8"
        }
      ],
      "name": "ProtocolFactoryRemoved",
      "type": "event"
    },
    {
      "constant": false,
      "inputs": [
        {
          "name": "_newFee",
          "type": "uint256"
        }
      ],
      "name": "changeTheFee",
      "outputs": [],
      "payable": false,
      "stateMutability": "nonpayable",
      "type": "function"
    },
    {
      "constant": false,
      "inputs": [
        {
          "name": "_someValue",
          "type": "uint256"
        }
      ],
      "name": "configure",
      "outputs": [],
      "payable": false,
      "stateMutability": "nonpayable",
      "type": "function"
    }
  ],
  "bytecode": "0x60806040526200003a7f9ef7257c3339b099aacf96e55122ee78fb65a36bd2a6c19249882be9c98633bf60001b60016200004060201b60201c565b62000060565b600091825260046020526040909120805460ff1916911515919091179055565b615a0880620000706000396000f3fe6080604052600436106102725760003560e01c806392042aee1161014f578063c37792b5116100c1578063e6ff950b1161007a578063e6ff950b146114c9578063e82617fb146114fc578063eff937f314611526578063f2fde38b14611550578063f433262f14611583578063f6fcbee11461159857610272565b8063c37792b514611256578063c75948f514611373578063d0f6fe4214611388578063d300a96814611449578063d6b5db441461147c578063e1ecae9e146114b457610272565b8063a92a822611610113578063a92a82261461100e578063aa33e945146110bf578063b187bd26146110fe578063b68116db14611113578063b9caf05a14611152578063bb011bf91461121357610272565b806392042aee14610df6578063959346ae14610edf578063972b3ab514610f09578063a209a29c14610fba578063a8f0d3a714610fe457610272565b806344bfa56e116101e85780636f3b8ce2116101ac5780636f3b8ce214610b1657806381e79e3114610b905780638456cb5914610d5b5780638905fd4f14610d705780638da5cb5b14610da35780638ffa969014610db857610272565b806344bfa56e146108b55780634a627e61146109545780634c77e5ba146109695780635a0b2213146109af5780636658076c146109e257610272565b80631f9fbf2e1161023a5780631f9fbf2e1461044f578063208b080f146105a0578063321dff17146105ca5780633f4ba83a146106a557806342799f07146106ba57806342c2e5511461088b57610272565b8063013702331461027c578063025ec81a146102ca57806303b54d521461030657806316034bf4146103575780631eb25e0a14610425575b61027a6115c2565b005b34801561028857600080fd5b5061027a6004803603608081101561029f57600080fd5b506001600160a01b038135169060ff60208201358116916040810135821691606090910135166115d4565b3480156102d657600080fd5b506102f4600480360360208110156102ed57600080fd5b50356115ee565b60408051918252519081900360200190f35b34801561031257600080fd5b5061027a600480360360a081101561032957600080fd5b506001600160a01b038135811691602081013591604082013591606081013582169160809091013516611603565b34801561036357600080fd5b5061027a600480360360a081101561037a57600080fd5b6001600160a01b038235169190810190604081016020820135600160201b8111156103a457600080fd5b8201836020820111156103b657600080fd5b803590602001918460018302840111600160201b831117156103d757600080fd5b91908080601f016020809104026020016040519081016040528093929190818152602001838380828437600092019190915250929550508235935050506020810135906040013515156117f2565b34801561043157600080fd5b5061027a6004803603602081101561044857600080fd5b503561195a565b34801561045b57600080fd5b5061027a600480360360a081101561047257600080fd5b810190602081018135600160201b81111561048c57600080fd5b82018360208201111561049e57600080fd5b803590602001918460018302840111600160201b831117156104bf57600080fd5b91908080601f01602080910402602001604051908101604052809392919081815260200183838082843760009201919091525092956001600160a01b038535811696602087013590911695919450925060608101915060400135600160201b81111561052a57600080fd5b82018360208201111561053c57600080fd5b803590602001918460018302840111600160201b8311171561055d57600080fd5b91908080601f016020809104026020016040519081016040528093929190818152602001838380828437600092019190915250929550509135925061195f915050565b3480156105ac57600080fd5b5061027a600480360360208110156105c357600080fd5b5035611d71565b3480156105d657600080fd5b5061027a600480360360608110156105ed57600080fd5b6001600160a01b038235169190810190604081016020820135600160201b81111561061757600080fd5b82018360208201111561062957600080fd5b803590602001918460018302840111600160201b8311171561064a57600080fd5b919390929091602081019035600160201b81111561066757600080fd5b82018360208201111561067957600080fd5b803590602001918460018302840111600160201b8311171561069a57600080fd5b509092509050611e2d565b3480156106b157600080fd5b5061027a611f65565b3480156106c657600080fd5b5061027a600480360360c08110156106dd57600080fd5b810190602081018135600160201b8111156106f757600080fd5b82018360208201111561070957600080fd5b803590602001918460018302840111600160201b8311171561072a57600080fd5b91908080601f0160208091040260200160405190810160405280939291908181526020018383808284376000920191909152509295949360208101935035915050600160201b81111561077c57600080fd5b82018360208201111561078e57600080fd5b803590602001918460018302840111600160201b831117156107af57600080fd5b91908080601f0160208091040260200160405190810160405280939291908181526020018383808284376000920191909152509295949360208101935035915050600160201b81111561080157600080fd5b82018360208201111561081357600080fd5b803590602001918460018302840111600160201b8311171561083457600080fd5b91908080601f0160208091040260200160405190810160405280939291908181526020018383808284376000920191909152509295505050508035151591506001600160a01b036020820135169060400135612007565b34801561089757600080fd5b5061027a600480360360208110156108ae57600080fd5b5035612581565b3480156108c157600080fd5b506108df600480360360208110156108d857600080fd5b50356125f7565b6040805160208082528351818301528351919283929083019185019080838360005b83811015610919578181015183820152602001610901565b50505050905090810190601f1680156109465780820380516001836020036101000a031916815260200191505b509250505060405180910390f35b34801561096057600080fd5b506102f4612698565b34801561097557600080fd5b506109936004803603602081101561098c57600080fd5b503561269e565b604080516001600160a01b039092168252519081900360200190f35b3480156109bb57600080fd5b5061027a600480360360208110156109d257600080fd5b50356001600160a01b03166126b9565b3480156109ee57600080fd5b5061027a600480360360c0811015610a0557600080fd5b810190602081018135600160201b811115610a1f57600080fd5b820183602082011115610a3157600080fd5b803590602001918460018302840111600160201b83111715610a5257600080fd5b919390929091602081019035600160201b811115610a6f57600080fd5b820183602082011115610a8157600080fd5b803590602001918460018302840111600160201b83111715610aa257600080fd5b919390926001600160a01b0383358116936020810135909116929190606081019060400135600160201b811115610ad857600080fd5b820183602082011115610aea57600080fd5b803590602001918460018302840111600160201b83111715610b0b57600080fd5b919350915035612770565b348015610b2257600080fd5b50610b4060048036036020811015610b3957600080fd5b50356127f4565b60408051602080825283518183015283519192839290830191858101910280838360005b83811015610b7c578181015183820152602001610b64565b505050509050019250505060405180910390f35b348015610b9c57600080fd5b50610993600480360360a0811015610bb357600080fd5b810190602081018135600160201b811115610bcd57600080fd5b820183602082011115610bdf57600080fd5b803590602001918460018302840111600160201b83111715610c0057600080fd5b91908080601f0160208091040260200160405190810160405280939291908181526020018383808284376000920191909152509295949360208101935035915050600160201b811115610c5257600080fd5b820183602082011115610c6457600080fd5b803590602001918460018302840111600160201b83111715610c8557600080fd5b91908080601f0160208091040260200160405190810160405280939291908181526020018383808284376000920191909152509295949360208101935035915050600160201b811115610cd757600080fd5b820183602082011115610ce957600080fd5b803590602001918460018302840111600160201b83111715610d0a57600080fd5b91908080601f016020809104026020016040519081016040528093929190818152602001838380828437600092019190915250929550505050803515159150602001356001600160a01b031661285f565b348015610d6757600080fd5b5061027a612cb1565b348015610d7c57600080fd5b5061027a60048036036020811015610d9357600080fd5b50356001600160a01b0316612d50565b348015610daf57600080fd5b50610993612f0f565b348015610dc457600080fd5b50610de260048036036020811015610ddb57600080fd5b5035612f2e565b604080519115158252519081900360200190f35b348015610e0257600080fd5b5061027a600480360360c0811015610e1957600080fd5b6001600160a01b038235169190810190604081016020820135600160201b811115610e4357600080fd5b820183602082011115610e5557600080fd5b803590602001918460018302840111600160201b83111715610e7657600080fd5b919390929091602081019035600160201b811115610e9357600080fd5b820183602082011115610ea557600080fd5b803590602001918460018302840111600160201b83111715610ec657600080fd5b9193509150803590602081013590604001351515612f43565b348015610eeb57600080fd5b5061027a60048036036020811015610f0257600080fd5b5035613058565b348015610f1557600080fd5b5061027a60048036036020811015610f2c57600080fd5b810190602081018135600160201b811115610f4657600080fd5b820183602082011115610f5857600080fd5b803590602001918460018302840111600160201b83111715610f7957600080fd5b91908080601f0160208091040260200160405190810160405280939291908181526020018383808284376000920191909152509295506130ca945050505050565b348015610fc657600080fd5b506108df60048036036020811015610fdd57600080fd5b5035613242565b348015610ff057600080fd5b50610b406004803603602081101561100757600080fd5b50356132ab565b34801561101a57600080fd5b50610de26004803603602081101561103157600080fd5b810190602081018135600160201b81111561104b57600080fd5b82018360208201111561105d57600080fd5b803590602001918460018302840111600160201b8311171561107e57600080fd5b91908080601f01602080910402602001604051908101604052809392919081815260200183838082843760009201919091525092955061330c945050505050565b3480156110cb57600080fd5b5061027a600480360360608110156110e257600080fd5b5060ff8135811691602081013582169160409091013516613387565b34801561110a57600080fd5b50610de26134df565b34801561111f57600080fd5b5061027a6004803603606081101561113657600080fd5b5060ff81358116916020810135821691604090910135166134f8565b34801561115e57600080fd5b5061027a6004803603604081101561117557600080fd5b6001600160a01b038235169190810190604081016020820135600160201b81111561119f57600080fd5b8201836020820111156111b157600080fd5b803590602001918460018302840111600160201b831117156111d257600080fd5b91908080601f01602080910402602001604051908101604052809392919081815260200183838082843760009201919091525092955061350b945050505050565b34801561121f57600080fd5b5061123d6004803603602081101561123657600080fd5b5035613691565b6040805192835260208301919091528051918290030190f35b34801561126257600080fd5b5061027a6004803603608081101561127957600080fd5b810190602081018135600160201b81111561129357600080fd5b8201836020820111156112a557600080fd5b803590602001918460018302840111600160201b831117156112c657600080fd5b919390929091602081019035600160201b8111156112e357600080fd5b8201836020820111156112f557600080fd5b803590602001918460018302840111600160201b8311171561131657600080fd5b919390929091602081019035600160201b81111561133357600080fd5b82018360208201111561134557600080fd5b803590602001918460018302840111600160201b8311171561136657600080fd5b9193509150351515613898565b34801561137f57600080fd5b506102f461395c565b34801561139457600080fd5b5061027a600480360360408110156113ab57600080fd5b6001600160a01b038235169190810190604081016020820135600160201b8111156113d557600080fd5b8201836020820111156113e757600080fd5b803590602001918460018302840111600160201b8311171561140857600080fd5b91908080601f01602080910402602001604051908101604052809392919081815260200183838082843760009201919091525092955061397b945050505050565b34801561145557600080fd5b50610de26004803603602081101561146c57600080fd5b50356001600160a01b0316613c55565b34801561148857600080fd5b5061027a6004803603606081101561149f57600080fd5b50803590602081013590604001351515613cd1565b3480156114c057600080fd5b506102f4613e0b565b3480156114d557600080fd5b5061027a600480360360208110156114ec57600080fd5b50356001600160a01b0316613e24565b34801561150857600080fd5b506102f46004803603602081101561151f57600080fd5b5035613ea5565b34801561153257600080fd5b5061027a6004803603602081101561154957600080fd5b5035613eb7565b34801561155c57600080fd5b5061027a6004803603602081101561157357600080fd5b50356001600160a01b0316613ecf565b34801561158f57600080fd5b5061027a613f94565b3480156115a457600080fd5b50610b40600480360360208110156115bb57600080fd5b5035613fa4565b6115d26115cd614004565b61402f565b565b6115dc614053565b6115e8848484846140b3565b50505050565b6000818152600660205260409020545b919050565b61162c7f9ef7257c3339b099aacf96e55122ee78fb65a36bd2a6c19249882be9c98633bf612f2e565b156116725760408051600160e51b62461bcd02815260206004820152600b6024820152600160aa1b6a125b9a5d1a585b1a5e995902604482015290519081900360640190fd5b6001600160a01b0382161580159061169257506001600160a01b03851615155b80156116a657506001600160a01b03811615155b6116fa5760408051600160e51b62461bcd02815260206004820152600f60248201527f496e76616c696420616464726573730000000000000000000000000000000000604482015290519081900360640190fd5b6117126000805160206158f183398151915285614249565b61172a6000805160206158b183398151915284614249565b6117456000805160206158d1833981519152624f1a00614249565b61175e600080516020615871833981519152600061425b565b6117766000805160206159318339815191528361427b565b61178e6000805160206159118339815191528661427b565b6117b97f9ef7257c3339b099aacf96e55122ee78fb65a36bd2a6c19249882be9c98633bf600161425b565b6117e37f982f24b3bd80807ec3cb227ba152e15c07d66855fa8ae6ca536e689205c0e2e98261427b565b6117eb6142a9565b5050505050565b6117fa614053565b6000845111801561180d5750600a845111155b6118515760408051600160e51b62461bcd02815260206004820152600a6024820152600160b11b692130b2103a34b1b5b2b902604482015290519081900360640190fd5b811580159061185f57508215155b6118a25760408051600160e51b62461bcd0281526020600482015260096024820152600160b81b6842616420646174657302604482015290519081900360640190fd5b818311156118e95760408051600160e51b62461bcd0281526020600482015260096024820152600160b81b6842616420646174657302604482015290519081900360640190fd5b6001600160a01b0385166119385760408051600160e51b62461bcd02815260206004820152600b6024820152600160a81b6a426164206164647265737302604482015290519081900360640190fd5b606061194385614380565b90506119528682868686614422565b505050505050565b600b55565b611967614053565b600a855111156119b15760408051600160e51b62461bcd02815260206004820152600a6024820152600160b11b692130b2103a34b1b5b2b902604482015290519081900360640190fd5b80158015906119c857506001600160a01b03841615155b611a0a5760408051600160e51b62461bcd0281526020600482015260086024820152600160c01b67426164206461746102604482015290519081900360640190fd5b6060611a1586614380565b90506001600160a01b038416611a665760408051600160e51b62461bcd02815260206004820152600b6024820152600160a81b6a426164206164647265737302604482015290519081900360640190fd5b6000611a92611a8d6040518060600160405280602281526020016159bb6022913984614542565b613ea5565b90506000611ac6611a8d6040518060400160405280601c815260200160008051602061597183398151915281525085614542565b905081611afa57429150611af7611aea6000805160206158d1833981519152613ea5565b839063ffffffff61460416565b90505b611b30611b2a60405180604001604052806015815260200160008051602061595183398151915281525085614542565b8761427b565b611b3e878484846001614422565b611b4a8684878761461d565b866001600160a01b0316866001600160a01b03167f71f31ac72f1dd82f9282e8073214cd0de3d6462a83a0f324a28c47ba374639c385896001600160a01b03166306fdde036040518163ffffffff1660e01b815260040160006040518083038186803b158015611bb957600080fd5b505afa158015611bcd573d6000803e3d6000fd5b505050506040513d6000823e601f3d908101601f191682016040526020811015611bf657600080fd5b810190808051600160201b811115611c0d57600080fd5b82016020810184811115611c2057600080fd5b8151600160201b811182820187101715611c3957600080fd5b5050929190505050883360016000806000604051808060200180602001898152602001886001600160a01b03166001600160a01b031681526020018715151515815260200186815260200185815260200184815260200183810383528b818151815260200191508051906020019080838360005b83811015611cc5578181015183820152602001611cad565b50505050905090810190601f168015611cf25780820380516001836020036101000a031916815260200191505b5083810382528a5181528a516020918201918c019080838360005b83811015611d25578181015183820152602001611d0d565b50505050905090810190601f168015611d525780820380516001836020036101000a031916815260200191505b509a505050505050505050505060405180910390a35050505050505050565b611d79614053565b62015180811015611dc35760408051600160e51b62461bcd0281526020600482015260096024820152600160b81b6842616420646174657302604482015290519081900360640190fd5b7f7e1cc0e69ee3b84fb62bbb71687d2565bbb8ad1771bb3e3cd15cbed424c833c8611dfb6000805160206158d1833981519152613ea5565b60408051918252602082018490528051918290030190a1611e2a6000805160206158d183398151915282614249565b50565b611e6d8585858080601f01602080910402602001604051908101604052809392919081815260200183838082843760009201919091525061350b92505050565b6000611e866000805160206158b1833981519152613691565b9150611eb19050611ea46000805160206158d1833981519152613ea5565b429063ffffffff61460416565b42876001600160a01b03167f2de60ed106ca2007f575a4a2ff327cdde9bf801386463689ccb784d8bd46856288888888600089604051808060200180602001851515151581526020018481526020018381038352898982818152602001925080828437600083820152601f01601f191690910184810383528781526020019050878780828437600083820152604051601f909101601f19169092018290039a509098505050505050505050a4505050505050565b611f6d6134df565b611fb15760408051600160e51b62461bcd02815260206004820152600a6024820152600160b21b69139bdd081c185d5cd95902604482015290519081900360640190fd5b611fb9614053565b611fd2600080516020615871833981519152600061425b565b6040805133815290517faeb196d352664784d1900b0e7414a8face7d29f4dae8c4b0cf68ed477423bbf49181900360200190a1565b61200f6146f5565b60008651118015612021575060008551115b6120655760408051600160e51b62461bcd02815260206004820152600a6024820152600160b11b692130b2103a34b1b5b2b902604482015290519081900360640190fd5b6001600160a01b0382166120b85760408051600160e51b62461bcd02815260206004820152600f60248201526001608a1b6e0c1e0c081b9bdd08185b1b1bddd95902604482015290519081900360640190fd5b806120d7576120d4600080516020615891833981519152613ea5565b90505b6120e085614380565b945060006121236040518060400160405280601881526020017f726567697374657265645469636b6572735f737461747573000000000000000081525087614542565b905061212e81612f2e565b156121835760408051600160e51b62461bcd02815260206004820152601060248201527f416c7265616479206465706c6f79656400000000000000000000000000000000604482015290519081900360640190fd5b61218e81600161425b565b33806121998861475e565b6001600160a01b0316146121f75760408051600160e51b62461bcd02815260206004820152600e60248201527f4e6f7420617574686f7269736564000000000000000000000000000000000000604482015290519081900360640190fd5b42612228611a8d6040518060400160405280601c81526020016000805160206159718339815191528152508a614542565b101561227e5760408051600160e51b62461bcd02815260206004820152600e60248201527f5469636b65722065787069726564000000000000000000000000000000000000604482015290519081900360640190fd5b6000806122986000805160206158f18339815191526147a2565b9150915060006122ad8b8b8b878c8c8c6148ca565b90506122bc6002600080614c00565b62ffffff1686141561241857836001600160a01b0316816001600160a01b03167f63d9fb58b25a396dc2ebc591bec9115d1eb9c722dd6cdfcc9be4144d39dc2c268c8e4289600089604051808060200180602001878152602001866001600160a01b03166001600160a01b0316815260200185151515158152602001848152602001838103835289818151815260200191508051906020019080838360005b8381101561237357818101518382015260200161235b565b50505050905090810190601f1680156123a05780820380516001836020036101000a031916815260200191505b5083810382528851815288516020918201918a019080838360005b838110156123d35781810151838201526020016123bb565b50505050905090810190601f1680156124005780820380516001836020036101000a031916815260200191505b509850505050505050505060405180910390a3612574565b836001600160a01b0316816001600160a01b03167f71f31ac72f1dd82f9282e8073214cd0de3d6462a83a0f324a28c47ba374639c38c8e428960008a8a8f604051808060200180602001898152602001886001600160a01b03166001600160a01b031681526020018715151515815260200186815260200185815260200184815260200183810383528b818151815260200191508051906020019080838360005b838110156124d15781810151838201526020016124b9565b50505050905090810190601f1680156124fe5780820380516001836020036101000a031916815260200191505b5083810382528a5181528a516020918201918c019080838360005b83811015612531578181015183820152602001612519565b50505050905090810190601f16801561255e5780820380516001836020036101000a031916815260200191505b509a505050505050505050505060405180910390a35b5050505050505050505050565b612589614053565b60006125a26000805160206158f1833981519152613ea5565b9050818114156125e95760408051600160e51b62461bcd0281526020600482015260076024820152600160c81b664261642066656502604482015290519081900360640190fd5b6125f38183614c18565b5050565b60008181526003602090815260409182902080548351601f600260001961010060018616150201909316929092049182018490048402810184019094528084526060939283018282801561268c5780601f106126615761010080835404028352916020019161268c565b820191906000526020600020905b81548152906001019060200180831161266f57829003601f168201915b50505050509050919050565b600b5481565b6000908152600260205260409020546001600160a01b031690565b6126c1612f0f565b6001600160a01b0316336001600160a01b031614806126df57503330145b6127335760408051600160e51b62461bcd02815260206004820152601260248201527f4f6e6c79206f776e6572206f722073656c660000000000000000000000000000604482015290519081900360640190fd5b6001600160a01b03811661274657600080fd5b611e2a7f982f24b3bd80807ec3cb227ba152e15c07d66855fa8ae6ca536e689205c0e2e98261427b565b6127e987878080601f01602080910402602001604051908101604052809392919081815260200183838082843760009201919091525050604080516020601f89018190048102820181019092528781528a935089925090889088908190840183828082843760009201919091525088925061195f915050565b505050505050505050565b60008181526009602090815260409182902080548351818402810184019094528084526060939283018282801561268c57602002820191906000526020600020905b81546001600160a01b031681526001909101906020018083116128365750505050509050919050565b60006128696146f5565b6000865111801561287b575060008551115b6128bf5760408051600160e51b62461bcd02815260206004820152600a6024820152600160b11b692130b2103a34b1b5b2b902604482015290519081900360640190fd5b6001600160a01b0382166129125760408051600160e51b62461bcd02815260206004820152600f60248201526001608a1b6e0c1e0c081b9bdd08185b1b1bddd95902604482015290519081900360640190fd5b606061291d86614380565b905061292881614c6b565b61297c5760408051600160e51b62461bcd02815260206004820152600c60248201527f6e6f74206465706c6f7965640000000000000000000000000000000000000000604482015290519081900360640190fd5b60006129b36129ae60405180604001604052806015815260200160008051602061595183398151915281525084614542565b61269e565b90506000816001600160a01b0316638da5cb5b6040518163ffffffff1660e01b815260040160206040518083038186803b1580156129f057600080fd5b505afa158015612a04573d6000803e3d6000fd5b505050506040513d6020811015612a1a57600080fd5b50519050336001600160a01b03821614612a7e5760408051600160e51b62461bcd02815260206004820152600c60248201527f556e61757468726f697a65640000000000000000000000000000000000000000604482015290519081900360640190fd5b816001600160a01b031663e45b81346040518163ffffffff1660e01b815260040160206040518083038186803b158015612ab757600080fd5b505afa158015612acb573d6000803e3d6000fd5b505050506040513d6020811015612ae157600080fd5b5051612b375760408051600160e51b62461bcd02815260206004820152601460248201527f5472616e7366657273206e6f742066726f7a656e000000000000000000000000604482015290519081900360640190fd5b6000612b50600080516020615891833981519152613ea5565b90506000612b638b868b868c8c886148ca565b9050826001600160a01b0316816001600160a01b03167fc7a825c502b5a99358e9ec1e69b7f437c96e8a390c18f23ad3aab1646b4ea9238c8e428888604051808060200180602001868152602001856001600160a01b03166001600160a01b03168152602001848152602001838103835288818151815260200191508051906020019080838360005b83811015612c04578181015183820152602001612bec565b50505050905090810190601f168015612c315780820380516001836020036101000a031916815260200191505b50838103825287518152875160209182019189019080838360005b83811015612c64578181015183820152602001612c4c565b50505050905090810190601f168015612c915780820380516001836020036101000a031916815260200191505b5097505050505050505060405180910390a3505050505095945050505050565b612cb96134df565b15612cfa5760408051600160e51b62461bcd0281526020600482015260066024820152600160d21b6514185d5cd95902604482015290519081900360640190fd5b612d02614053565b612d1b600080516020615871833981519152600161425b565b6040805133815290517f5ee71a369c8672edded508e624ffc9257fa1ae6886ef32905c18e60196bca3999181900360200190a1565b612d58614053565b6001600160a01b038116612da75760408051600160e51b62461bcd02815260206004820152600b6024820152600160a81b6a426164206164647265737302604482015290519081900360640190fd5b60408051600160e01b6370a08231028152306004820152905182916000916001600160a01b038416916370a08231916024808301926020929190829003018186803b158015612df557600080fd5b505afa158015612e09573d6000803e3d6000fd5b505050506040513d6020811015612e1f57600080fd5b505190506001600160a01b03821663a9059cbb612e3a612f0f565b836040518363ffffffff1660e01b815260040180836001600160a01b03166001600160a01b0316815260200182815260200192505050602060405180830381600087803b158015612e8a57600080fd5b505af1158015612e9e573d6000803e3d6000fd5b505050506040513d6020811015612eb457600080fd5b5051612f0a5760408051600160e51b62461bcd02815260206004820152600f60248201527f5472616e73666572206661696c65640000000000000000000000000000000000604482015290519081900360640190fd5b505050565b6000612f2860008051602061593183398151915261269e565b90505b90565b60009081526004602052604090205460ff1690565b612f888888888080601f0160208091040260200160405190810160405280939291908181526020018383808284376000920191909152508892508791508690506117f2565b612fa2611ea46000805160206158d1833981519152613ea5565b42896001600160a01b03167f2de60ed106ca2007f575a4a2ff327cdde9bf801386463689ccb784d8bd4685628a8a8a8a600080604051808060200180602001851515151581526020018481526020018381038352898982818152602001925080828437600083820152601f01601f191690910184810383528781526020019050878780828437600083820152604051601f909101601f19169092018290039a509098505050505050505050a45050505050505050565b613060614053565b60006130796000805160206158b1833981519152613ea5565b9050818114156130c05760408051600160e51b62461bcd0281526020600482015260076024820152600160c81b664261642066656502604482015290519081900360640190fd5b6125f38183614cb4565b6130d2614053565b60606130dd82614380565b905060006130ea8261475e565b90506001600160a01b03811661313a5760408051600160e51b62461bcd02815260206004820152600a6024820152600160b11b692130b2103a34b1b5b2b902604482015290519081900360640190fd5b6131448183614d07565b61317b61317460405180604001604052806015815260200160008051602061595183398151915281525084614542565b600061427b565b61318a82600080600080614e2a565b7f9cf1be7eab8a674ff140d6ff508e301aa09860f9f7c8354db4bdc85fe8da6a2d82336040518080602001836001600160a01b03166001600160a01b03168152602001828103825284818151815260200191508051906020019080838360005b838110156132025781810151838201526020016131ea565b50505050905090810190601f16801561322f5780820380516001836020036101000a031916815260200191505b50935050505060405180910390a1505050565b60008181526001602081815260409283902080548451600294821615610100026000190190911693909304601f8101839004830284018301909452838352606093909183018282801561268c5780601f106126615761010080835404028352916020019161268c565b60008181526007602090815260409182902080548351818402810184019094528084526060939283018282801561268c57602002820191906000526020600020905b8154815260200190600101908083116132ed5750505050509050919050565b6000806133188361475e565b6001600160a01b03161461337f57613356611a8d6040518060400160405280601c815260200160008051602061597183398151915281525084614542565b4211801561336a575061336882614c6b565b155b15613377575060016115fe565b5060006115fe565b506001919050565b61338f614053565b600061339c848484614c00565b905062ffffff81166133bb600080516020615891833981519152613ea5565b14156134115760408051600160e51b62461bcd02815260206004820152601b60248201527f43616e6e6f742072656d6f7665206c617465737456657273696f6e0000000000604482015290519081900360640190fd5b61344f6129ae6040518060400160405280601181526020016001607a1b701c1c9bdd1bd8dbdb15995c9cda5bdb94d5028152508362ffffff16614f29565b6040805160ff8088168252808716602083015285168183015290516001600160a01b0392909216917fd2a114f6c16a1bc2f027fda85bc9ac1b584a91dbd658eb295e09ed1b7b1b9bd79181900360600190a26115e86131746040518060400160405280601181526020016001607a1b701c1c9bdd1bd8dbdb15995c9cda5bdb94d5028152508362ffffff16614f29565b6000612f28600080516020615871833981519152612f2e565b613500614053565b612f0a838383614f9e565b6135136146f5565b6001600160a01b0382166135625760408051600160e51b62461bcd02815260206004820152600b6024820152600160a81b6a426164206164647265737302604482015290519081900360640190fd5b600081511180156135755750600a815111155b6135b95760408051600160e51b62461bcd02815260206004820152600a6024820152600160b11b692130b2103a34b1b5b2b902604482015290519081900360640190fd5b6000806135d36000805160206158b18339815191526147a2565b9150915060606135e284614380565b90506135ed8161330c565b6136415760408051600160e51b62461bcd02815260206004820152600f60248201527f5469636b65722072657365727665640000000000000000000000000000000000604482015290519081900360640190fd5b600061364c8261475e565b90506001600160a01b03811615613667576136678183614d07565b611952868342613687611ea46000805160206158d1833981519152613ea5565b600080898b6150ad565b600080806136be7f7152e5426955da44af11ecd67fec5e2a3ba747be974678842afa9394b9a075b6612f2e565b905060006136cb85613ea5565b905060006136e660008051602061591183398151915261269e565b90506000816001600160a01b031663bf40fac16040518060400160405280601381526020017f537461626c65506f6c795573644f7261636c65000000000000000000000000008152506040518263ffffffff1660e01b81526004018080602001828103825283818151815260200191508051906020019080838360005b8381101561377b578181015183820152602001613763565b50505050905090810190601f1680156137a85780820380516001836020036101000a031916815260200191505b509250505060206040518083038186803b1580156137c557600080fd5b505afa1580156137d9573d6000803e3d6000fd5b505050506040513d60208110156137ef57600080fd5b505160408051600160e11b634c6afee502815290516001600160a01b03909216916398d5fdca916004808201926020929091908290030181600087803b15801561383857600080fd5b505af115801561384c573d6000803e3d6000fd5b505050506040513d602081101561386257600080fd5b505190508361387f57829550613878838261518f565b945061388f565b61388983826151c0565b95508294505b50505050915091565b61395387878080601f01602080910402602001604051908101604052809392919081815260200183838082843760009201919091525050604080516020601f8b01819004810282018101909252898152925089915088908190840183828082843760009201919091525050604080516020601f8a0181900481028201810190925288815292508891508790819084018382808284376000920182905250889350339250613949915060029080614c00565b62ffffff16612007565b50505050505050565b60006139756000805160206158f1833981519152613691565b92915050565b6139836146f5565b606061398e82614380565b90506001600160a01b0383166139df5760408051600160e51b62461bcd02815260206004820152600b6024820152600160a81b6a426164206164647265737302604482015290519081900360640190fd5b6000613a206040518060400160405280601781526020017f726567697374657265645469636b6572735f6f776e657200000000000000000081525083614542565b905033613a2c8261269e565b6001600160a01b031614613a7a5760408051600160e51b62461bcd02815260206004820152600a6024820152600160b11b6927b7363c9037bbb732b902604482015290519081900360640190fd5b613a8382614c6b565b15613b8457836001600160a01b0316613ac26129ae60405180604001604052806015815260200160008051602061595183398151915281525085614542565b6001600160a01b0316638da5cb5b6040518163ffffffff1660e01b815260040160206040518083038186803b158015613afa57600080fd5b505afa158015613b0e573d6000803e3d6000fd5b505050506040513d6020811015613b2457600080fd5b50516001600160a01b031614613b845760408051600160e51b62461bcd02815260206004820152600e60248201527f4f776e6572206d69736d61746368000000000000000000000000000000000000604482015290519081900360640190fd5b613b8e3383614d07565b613b9884836151e8565b613ba2818561427b565b836001600160a01b0316336001600160a01b03167f44ee9de70a04c2a46889521de8968f79b4ae423f078fbaec8c492d821154729c846040518080602001828103825283818151815260200191508051906020019080838360005b83811015613c15578181015183820152602001613bfd565b50505050905090810190601f168015613c425780820380516001836020036101000a031916815260200191505b509250505060405180910390a350505050565b60408051808201909152601581527f7365637572697479546f6b656e735f7469636b6572000000000000000000000060208201526000907fc5d2460186f7233c927e7db2dcc703c0e500b653ca82273b7bfad8045d85a47090613cc190613cbc90856152e5565b613242565b8051906020012014159050919050565b613cd9614053565b6000613cf26000805160206158b1833981519152613ea5565b90506000613d0d6000805160206158f1833981519152613ea5565b90506000613d3a7f7152e5426955da44af11ecd67fec5e2a3ba747be974678842afa9394b9a075b6612f2e565b90508315158115151415613d985760408051600160e51b62461bcd02815260206004820152601260248201527f43757272656e637920756e6368616e6765640000000000000000000000000000604482015290519081900360640190fd5b613da28387614cb4565b613dac8286614c18565b60408051851515815290517f103d09c9ed33b1fba54990b33aeb93b42f957ef1bcea350e5ba6103213e375be9181900360200190a16119527f7152e5426955da44af11ecd67fec5e2a3ba747be974678842afa9394b9a075b68561425b565b60006139756000805160206158b1833981519152613691565b613e2c614053565b6001600160a01b038116613e7b5760408051600160e51b62461bcd02815260206004820152600b6024820152600160a81b6a426164206164647265737302604482015290519081900360640190fd5b611e2a7facf8fbd51bb4b83ba426cdb12f63be74db97c412515797993d2a385542e311d78261427b565b60009081526020819052604090205490565b611e2a6000805160206158f183398151915282614249565b613ed7614053565b6001600160a01b038116613f265760408051600160e51b62461bcd02815260206004820152600b6024820152600160a81b6a426164206164647265737302604482015290519081900360640190fd5b6001600160a01b038116613f4760008051602061593183398151915261269e565b6001600160a01b03167f8be0079c531659141344cd1fd0a4f28419497f9722a3daafe3b4186f6b6457e060405160405180910390a3611e2a6000805160206159318339815191528261427b565b613f9c614053565b6115d26142a9565b60008181526008602090815260409182902080548351818402810184019094528084526060939283018282801561268c57602002820191906000526020600020908154815260200190600101908083116132ed5750505050509050919050565b6000612f287f982f24b3bd80807ec3cb227ba152e15c07d66855fa8ae6ca536e689205c0e2e961269e565b3660008037600080366000845af43d6000803e80801561404e573d6000f35b3d6000fd5b61405b612f0f565b6001600160a01b0316336001600160a01b0316146115d25760408051600160e51b62461bcd02815260206004820152600a6024820152600160b11b6927b7363c9037bbb732b902604482015290519081900360640190fd5b6001600160a01b0384166141025760408051600160e51b62461bcd02815260206004820152600b6024820152600160a81b6a426164206164647265737302604482015290519081900360640190fd5b600061410f848484614c00565b905060006141516129ae6040518060400160405280601181526020016001607a1b701c1c9bdd1bd8dbdb15995c9cda5bdb94d5028152508462ffffff16614f29565b90506001600160a01b038116156141b25760408051600160e51b62461bcd02815260206004820152600e60248201527f416c726561647920657869737473000000000000000000000000000000000000604482015290519081900360640190fd5b6141f0611b2a6040518060400160405280601181526020016001607a1b701c1c9bdd1bd8dbdb15995c9cda5bdb94d5028152508462ffffff16614f29565b6040805160ff8088168252808716602083015285168183015290516001600160a01b038816917fff11f4313e25ec84748c64ef99baabff83b721e936e589effb745613302f3969919081900360600190a2505050505050565b60009182526020829052604090912055565b600091825260046020526040909120805460ff1916911515919091179055565b60009182526002602052604090912080546001600160a01b0319166001600160a01b03909216919091179055565b60006142c260008051602061591183398151915261269e565b60408051600160e01b63bf40fac102815260206004820181905260096024830152600160b91b682837b63caa37b5b2b70260448301529151929350611e2a927facf8fbd51bb4b83ba426cdb12f63be74db97c412515797993d2a385542e311d7926001600160a01b0386169263bf40fac19260648083019392829003018186803b15801561434f57600080fd5b505afa158015614363573d6000803e3d6000fd5b505050506040513d602081101561437957600080fd5b505161427b565b60608160005b815181101561441b57600082828151811061439d57fe5b016020015160f890811c901b9050600160f81b6061026001600160f81b03198216108015906143dd5750600160f91b603d026001600160f81b0319821611155b156143ee57601f1960f891821c01901b5b808383815181106143fb57fe5b60200101906001600160f81b031916908160001a90535050600101614386565b5092915050565b600061442d8561475e565b90506001600160a01b03811615614448576144488186614d07565b61445185614c6b565b801561445b575081155b156144905761449061317460405180604001604052806015815260200160008051602061595183398151915281525087614542565b81156145305760006001600160a01b03166144d16129ae60405180604001604052806015815260200160008051602061595183398151915281525088614542565b6001600160a01b031614156145305760408051600160e51b62461bcd02815260206004820152600e60248201527f4e6f742072656769737465726564000000000000000000000000000000000000604482015290519081900360640190fd5b611952868686868660016000806150ad565b600082826040516020018083805190602001908083835b602083106145785780518252601f199092019160209182019101614559565b51815160209384036101000a600019018019909216911617905285519190930192850191508083835b602083106145c05780518252601f1990920191602091820191016145a1565b6001836020036101000a0380198251168184511680821785525050505050509050019250505060405160208183030381529060405280519060200120905092915050565b60008282018381101561461657600080fd5b9392505050565b61466561465f6040518060400160405280601581526020017f7365637572697479546f6b656e735f7469636b65720000000000000000000000815250866152e5565b8461536f565b6146ad6146a76040518060400160405280601b81526020017f7365637572697479546f6b656e735f746f6b656e44657461696c730000000000815250866152e5565b8361536f565b6115e86146ef6040518060400160405280601981526020017f7365637572697479546f6b656e735f6465706c6f796564417400000000000000815250866152e5565b82614249565b6146fd612f0f565b6001600160a01b0316336001600160a01b0316146115d25761471d6134df565b156115d25760408051600160e51b62461bcd0281526020600482015260066024820152600160d21b6514185d5cd95902604482015290519081900360640190fd5b60006139756129ae6040518060400160405280601781526020017f726567697374657265645469636b6572735f6f776e657200000000000000000081525084614542565b6000806000806147b185613691565b909250905080156148c0576147e57facf8fbd51bb4b83ba426cdb12f63be74db97c412515797993d2a385542e311d761269e565b60408051600160e01b6323b872dd0281523360048201523060248201526044810184905290516001600160a01b0392909216916323b872dd916064808201926020929091908290030181600087803b15801561484057600080fd5b505af1158015614854573d6000803e3d6000fd5b505050506040513d602081101561486a57600080fd5b50516148c05760408051600160e51b62461bcd02815260206004820152601560248201527f496e737566666963656e7420616c6c6f77616e63650000000000000000000000604482015290519081900360640190fd5b9092509050915091565b60408051600380825260808201909252600091606091906020820183803883390190505090506002816000815181106148ff57fe5b602002602001019060ff16908160ff168152505060638160018151811061492257fe5b602002602001019060ff16908160ff168152505060638160028151811061494557fe5b602002602001019060ff16908160ff168152505061496b6149658461538e565b82615430565b1561498a5761498760008051602061591183398151915261269e565b93505b6149c36129ae6040518060400160405280601181526020016001607a1b701c1c9bdd1bd8dbdb15995c9cda5bdb94d50281525085614f29565b6001600160a01b031663c85fd4f88a8a60128b8b8b8b6040518863ffffffff1660e01b81526004018080602001806020018860ff16815260200180602001876001600160a01b03166001600160a01b0316815260200186151515158152602001856001600160a01b03166001600160a01b0316815260200184810384528b818151815260200191508051906020019080838360005b83811015614a70578181015183820152602001614a58565b50505050905090810190601f168015614a9d5780820380516001836020036101000a031916815260200191505b5084810383528a5181528a516020918201918c019080838360005b83811015614ad0578181015183820152602001614ab8565b50505050905090810190601f168015614afd5780820380516001836020036101000a031916815260200191505b5084810382528851815288516020918201918a019080838360005b83811015614b30578181015183820152602001614b18565b50505050905090810190601f168015614b5d5780820380516001836020036101000a031916815260200191505b509a5050505050505050505050602060405180830381600087803b158015614b8457600080fd5b505af1158015614b98573d6000803e3d6000fd5b505050506040513d6020811015614bae57600080fd5b50519150614bbe8289894261461d565b614bf4614bee6040518060400160405280601581526020016000805160206159518339815191528152508a614542565b8361427b565b50979650505050505050565b60ff90811691811660081b921660101b919091171790565b604080518381526020810183905281517f082ce758ae1784abd031015a0eac6700b941db0797e890ae7c4d326a5f8255c0929181900390910190a16125f36000805160206158f183398151915282614249565b6000613975614caf6040518060400160405280601881526020017f726567697374657265645469636b6572735f737461747573000000000000000081525084614542565b612f2e565b604080518381526020810183905281517f788dceb058391de5648d0deb9187656f8c46d3ee285c1077579adf642793f1f6929181900390910190a16125f36000805160206158b183398151915282614249565b6000614d3c611a8d6040518060400160405280600b8152602001600160ab1b6a0e8d2c6d6cae492dcc8caf0281525084614542565b90506000614d726040518060400160405280600d8152602001600160981b6c75736572546f5469636b65727302815250856152e5565b90506060614d7f826132ab565b905080518310614d8b57fe5b846001600160a01b0316614d9e8561475e565b6001600160a01b031614614dae57fe5b614db88284615536565b82614dc2836132ab565b5111156117eb576000614dd4836132ab565b8481518110614ddf57fe5b60200260200101519050611952614e246040518060400160405280600b8152602001600160ab1b6a0e8d2c6d6cae492dcc8caf02815250614e1f846155cb565b614542565b85614249565b6000614e6b6040518060400160405280601781526020017f726567697374657265645469636b6572735f6f776e657200000000000000000081525087614542565b9050614e77818661427b565b614e996040518060600160405280602281526020016159bb6022913987614542565b9050614ea58185614249565b614ed26040518060400160405280601c815260200160008051602061597183398151915281525087614542565b9050614ede8184614249565b614f1d6040518060400160405280601881526020017f726567697374657265645469636b6572735f737461747573000000000000000081525087614542565b9050611952818361425b565b600082826040516020018083805190602001908083835b60208310614f5f5780518252601f199092019160209182019101614f40565b51815160209384036101000a60001901801990921691161790529201938452506040805180850381529382019052825192019190912095945050505050565b6000614fab848484614c00565b905060006001600160a01b0316614ff66129ae6040518060400160405280601181526020016001607a1b701c1c9bdd1bd8dbdb15995c9cda5bdb94d5028152508462ffffff16614f29565b6001600160a01b031614156150455760408051600160e51b62461bcd02815260206004820152600a6024820152600160b01b694e6f20666163746f727902604482015290519081900360640190fd5b61506260008051602061589183398151915262ffffff8316614249565b6040805160ff8087168252808616602083015284168183015290517f9ab8e90191e448bebe0ce6be95b1f847fa9c711d9b27c284222a421caa8f0dc09181900360600190a150505050565b6150b788886151e8565b6150c48789888888614e2a565b8486896001600160a01b03167f8863beb3f7041968ea881ebc3e9e7bd1e5ade81b66586f43524a264e849c66098a878787604051808060200185151515158152602001848152602001838152602001828103825286818151815260200191508051906020019080838360005b83811015615148578181015183820152602001615130565b50505050905090810190601f1680156151755780820380516001836020036101000a031916815260200191505b509550505050505060405180910390a45050505050505050565b6000816151b16151a785670de0b6b3a76400006156d4565b6002855b04614604565b816151b857fe5b049392505050565b6000670de0b6b3a76400006151b16151d885856156d4565b6002670de0b6b3a76400006151ab565b600061521c6040518060400160405280600d8152602001600160981b6c75736572546f5469636b65727302815250846152e5565b90506000615229826132ab565b51905061523e82615239856156fb565b615708565b6152716146ef6040518060400160405280600b8152602001600160ab1b6a0e8d2c6d6cae492dcc8caf0281525085614542565b60006152a1604051806040016040528060098152602001600160b81b687365656e557365727302815250866152e5565b90506152ac81612f2e565b6117eb576152da7f425619ce6ba8e9f80f17c0ef298b6557e321d70d7aeff2e74dd157bd87177a9e8661572b565b6117eb81600161425b565b600082826040516020018083805190602001908083835b6020831061531b5780518252601f1990920191602091820191016152fc565b51815160209384036101000a60001901801990921691161790526001600160a01b039590951660601b92019182525060408051808303600b1901815260149092019052805192019190912095945050505050565b60008281526001602090815260409091208251612f0a928401906157b8565b6040805160038082526080820190925260609182919060208201838038833901905050905060108362ffffff16901c816000815181106153ca57fe5b602002602001019060ff16908160ff168152505060088362ffffff16901c816001815181106153f557fe5b602002602001019060ff16908160ff1681525050828160028151811061541757fe5b60ff909216602092830291909101909101529050919050565b6000825160031461544057600080fd5b815160031461544e57600080fd5b60005b83518160ff16101561552c57828160ff168151811061546c57fe5b602002602001015160ff16848260ff168151811061548657fe5b602002602001015160ff16141561549c57615524565b828160ff16815181106154ab57fe5b602002602001015160ff16848260ff16815181106154c557fe5b602002602001015160ff1610156154e0576001915050613975565b828160ff16815181106154ef57fe5b602002602001015160ff16848260ff168151811061550957fe5b602002602001015160ff161115615524576000915050613975565b600101615451565b5060019392505050565b60008281526007602052604090208054821061558657604051600160e51b62461bcd02815260040180806020018281038252602a815260200180615991602a913960400191505060405180910390fd5b80548190600019810190811061559857fe5b90600052602060002001548183815481106155af57fe5b6000918252602090912001558054600019016115e88282615836565b6040805160208082528183019092526060918291906020820181803883390190505090506000805b6020811015615649576008810260020a85026001600160f81b0319811615615640578084848151811061562257fe5b60200101906001600160f81b031916908160001a9053506001909201915b506001016155f3565b6060826040519080825280601f01601f191660200182016040528015615676576020820181803883390190505b509050600091505b828210156156cb5783828151811061569257fe5b602001015160f81c60f81b8183815181106156a957fe5b60200101906001600160f81b031916908160001a90535060019091019061567e565b95945050505050565b6000826156e357506000613975565b828202828482816156f057fe5b041461461657600080fd5b600061397582600061576a565b600091825260076020908152604083208054600181018255908452922090910155565b600091825260096020908152604083208054600181018255908452922090910180546001600160a01b0319166001600160a01b03909216919091179055565b600080805b84518110156157b05780600802858286018151811061578a57fe5b01602001516001600160f81b031960f891821c90911b16901c919091179060010161576f565b509392505050565b828054600181600116156101000203166002900490600052602060002090601f016020900481019282601f106157f957805160ff1916838001178555615826565b82800160010185558215615826579182015b8281111561582657825182559160200191906001019061580b565b50615832929150615856565b5090565b815481835581811115612f0a57600083815260209020612f0a9181019083015b612f2b91905b80821115615832576000815560010161585c56feee35723ac350a69d2a92d3703f17439cbaadf2f093a21ba5bf5f1a53eb2a14d94c63b69b9117452b9f11af62077d0cda875fb4e2dbe07ad6f31f728de69262302fcc69711628630fb5a42566c68bd1092bc4aa26826736293969fddcd11cb2d2604268e9a73dfd777dcecb8a614493dd65c638bad2f5e7d709d378bd2fb0baeed677304bb45536bb7fdfa6b9e47a3c58fe413f9e8f01474b0a4b9c6e0275baf290eeab7c36075577c7cc5ff366e389fefa8a18289b949bab3529ab4471139d4d02016836a56b71f0d02689e69e326f4f4c1b9057164ef592671cf0d37c8040c07469636b6572546f5365637572697479546f6b656e0000000000000000000000726567697374657265645469636b6572735f6578706972794461746500000000496e6465782073686f756c64206c657373207468616e206c656e677468206f6620746865206172726179726567697374657265645469636b6572735f726567697374726174696f6e44617465a165627a7a723058208f627c5205927495ce6a4d8ec1c728fc83753f89e3638e8096259fca6be6de8f0029",
  "source": "pragma solidity 0.5.8;\r\n\r\nimport \"../SecurityTokenRegistry.sol\";\r\n\r\n/**\r\n * @title Registry contract for issuers to register their security tokens\r\n */\r\ncontract SecurityTokenRegistryMock is SecurityTokenRegistry {\r\n    /// @notice It is a dummy function\r\n    /// Alert! Alert! Do NOT use it for the mainnet release\r\n\r\n    uint256 public someValue;\r\n\r\n    function changeTheFee(uint256 _newFee) public {\r\n        set(STLAUNCHFEE, _newFee);\r\n    }\r\n\r\n    function configure(uint256 _someValue) public {\r\n        someValue = _someValue;\r\n    }\r\n\r\n}\r\n",
  "sourcePath": "C:/mspace/polymath-core/contracts/mocks/SecurityTokenRegistryMock.sol",
  "compiler": {
    "name": "solc",
    "version": "0.5.8+commit.23d335f2.Emscripten.clang"
  },
  "schemaVersion": "3.0.11",
  "updatedAt": "2019-08-05T12:37:19.147Z",
  "devdoc": {
    "methods": {
      "changeExpiryLimit(uint256)": {
        "params": {
          "_newExpiry": "is the new expiry for newly generated tickers\r"
        }
      },
      "changeFeesAmountAndCurrency(uint256,uint256,bool)": {
        "params": {
          "_isFeeInPoly": "defines if the fee is in poly or usd\r",
          "_stLaunchFee": "is the st generation fee (base 18 decimals)\r",
          "_tickerRegFee": "is the ticker registration fee (base 18 decimals)\r"
        }
      },
      "changeSecurityLaunchFee(uint256)": {
        "params": {
          "_stLaunchFee": "is the registration fee in USD tokens (base 18 decimals)\r"
        }
      },
      "changeTickerRegistrationFee(uint256)": {
        "params": {
          "_tickerRegFee": "is the registration fee in USD tokens (base 18 decimals)\r"
        }
      },
      "generateNewSecurityToken(string,string,string,bool,address,uint256)": {
        "params": {
          "_divisible": "is whether or not the token is divisible\r",
          "_name": "is the name of the token\r",
          "_protocolVersion": "Version of securityToken contract\r - `_protocolVersion` is the packed value of uin8[3] array (it will be calculated offchain)\r - if _protocolVersion == 0 then latest version of securityToken will be generated\r",
          "_ticker": "is the ticker symbol of the security token\r",
          "_tokenDetails": "is the off-chain details of the token\r",
          "_treasuryWallet": "Ethereum address which will holds the STs.\r"
        }
      },
      "generateSecurityToken(string,string,string,bool)": {
        "details": "this function is for backwards compatibilty with 2.0 dApp.\r",
        "params": {
          "_divisible": "is whether or not the token is divisible\r",
          "_name": "is the name of the token\r",
          "_ticker": "is the ticker symbol of the security token\r",
          "_tokenDetails": "is the off-chain details of the token\r"
        }
      },
      "getFees(bytes32)": {
        "params": {
          "_feeType": "Key corresponding to fee type\r"
        }
      },
      "getSecurityTokenLaunchFee()": {
        "return": "Fee amount\r"
      },
      "getTickerRegistrationFee()": {
        "return": "Fee amount\r"
      },
      "initialize(address,uint256,uint256,address,address)": {
        "params": {
          "_getterContract": "Contract address of the contract which consists getter functions.\r",
          "_owner": "is the owner of the STR,\r",
          "_polymathRegistry": "is the address of the Polymath Registry\r",
          "_stLaunchFee": "is the fee in USD required to launch a token\r",
          "_tickerRegFee": "is the fee in USD required to register a ticker\r"
        }
      },
      "isPaused()": {
        "return": "bool\r"
      },
      "isSecurityToken(address)": {
        "params": {
          "_securityToken": "is the address of the security token\r"
        },
        "return": "bool\r"
      },
      "modifyExistingSecurityToken(string,address,address,string,uint256)": {
        "params": {
          "_deployedAt": "is the timestamp at which the security token is deployed\r",
          "_owner": "is the owner of the token\r",
          "_securityToken": "is the address of the securityToken\r",
          "_ticker": "is the ticker symbol of the security token\r",
          "_tokenDetails": "is the off-chain details of the token\r"
        }
      },
      "modifyExistingTicker(address,string,uint256,uint256,bool)": {
        "params": {
          "_expiryDate": "is the expiry date for the ticker\r",
          "_owner": "is the owner of the token\r",
          "_registrationDate": "is the date at which ticker is registered\r",
          "_status": "is the token deployment status\r",
          "_ticker": "is the token ticker\r"
        }
      },
      "modifySecurityToken(string,string,address,address,string,uint256)": {
        "details": "This function is just for backwards compatibility\r"
      },
      "modifyTicker(address,string,string,uint256,uint256,bool)": {
        "details": "This function is just for backwards compatibility\r"
      },
      "owner()": {
        "return": "address owner\r"
      },
      "reclaimERC20(address)": {
        "params": {
          "_tokenContract": "is the address of the token contract\r"
        }
      },
      "refreshSecurityToken(string,string,string,bool,address)": {
        "details": "This function needs to be in STR 3.0. Defined public to avoid stack overflow\r",
        "params": {
          "_divisible": "is whether or not the token is divisible\r",
          "_name": "is the name of the token\r",
          "_ticker": "is the ticker symbol of the security token\r",
          "_tokenDetails": "is the off-chain details of the token\r"
        }
      },
      "registerNewTicker(address,string)": {
        "params": {
          "_owner": "is address of the owner of the token\r",
          "_ticker": "is unique token ticker\r"
        }
      },
      "registerTicker(address,string,string)": {
        "details": "This function is just for backwards compatibility\r"
      },
      "removeProtocolFactory(uint8,uint8,uint8)": {
        "params": {
          "_major": "Major version of the proxy.\r",
          "_minor": "Minor version of the proxy.\r",
          "_patch": "Patch version of the proxy\r"
        }
      },
      "removeTicker(string)": {
        "params": {
          "_ticker": "is the token ticker\r"
        }
      },
      "setGetterRegistry(address)": {
        "params": {
          "_getterContract": "Address of the contract\r"
        }
      },
      "setLatestVersion(uint8,uint8,uint8)": {
        "params": {
          "_major": "Major version of the proxy.\r",
          "_minor": "Minor version of the proxy.\r",
          "_patch": "Patch version of the proxy\r"
        }
      },
      "setProtocolFactory(address,uint8,uint8,uint8)": {
        "params": {
          "_STFactoryAddress": "is the address of the proxy.\r",
          "_major": "Major version of the proxy.\r",
          "_minor": "Minor version of the proxy.\r",
          "_patch": "Patch version of the proxy\r"
        }
      },
      "tickerAvailable(string)": {
        "params": {
          "_ticker": "is the token ticker\r"
        },
        "return": "bool\r"
      },
      "transferOwnership(address)": {
        "details": "Allows the current owner to transfer control of the contract to a newOwner.\r",
        "params": {
          "_newOwner": "The address to transfer ownership to.\r"
        }
      },
      "transferTickerOwnership(address,string)": {
        "params": {
          "_newOwner": "is the address of the new owner of the ticker\r",
          "_ticker": "is the ticker symbol\r"
        }
      },
      "updatePolyTokenAddress(address)": {
        "params": {
          "_newAddress": "is the address of the polytoken.\r"
        }
      }
    },
    "title": "Registry contract for issuers to register their security tokens\r"
  },
  "userdoc": {
    "methods": {
      "changeExpiryLimit(uint256)": {
        "notice": "Changes the expiry time for the token ticker. Only available to Polymath.\r"
      },
      "changeFeesAmountAndCurrency(uint256,uint256,bool)": {
        "notice": "Sets the ticker registration and ST launch fee amount and currency\r"
      },
      "changeSecurityLaunchFee(uint256)": {
        "notice": "Sets the ticker registration fee in USD tokens. Only Polymath.\r"
      },
      "changeTickerRegistrationFee(uint256)": {
        "notice": "Sets the ticker registration fee in USD tokens. Only Polymath.\r"
      },
      "generateNewSecurityToken(string,string,string,bool,address,uint256)": {
        "notice": "Deploys an instance of a new Security Token and records it to the registry\r"
      },
      "generateSecurityToken(string,string,string,bool)": {
        "notice": "Deploys an instance of a new Security Token of version 2.0 and records it to the registry\r"
      },
      "getArrayAddress(bytes32)": {
        "notice": "getArrayBytes32(keccak256(abi.encodePacked(\"tokensOwnedByOwner\", 0x1)).length;"
      },
      "getFees(bytes32)": {
        "notice": "Returns the usd & poly fee for a particular feetype\r"
      },
      "getSecurityTokenLaunchFee()": {
        "notice": "Gets the security token launch fee\r"
      },
      "getTickerRegistrationFee()": {
        "notice": "Gets the ticker registration fee\r"
      },
      "getUintValue(bytes32)": {
        "notice": "string _name = getString(keccak256(abi.encodePacked(\"registeredSymbols_name\", \"TOKEN\"));"
      },
      "initialize(address,uint256,uint256,address,address)": {
        "notice": "Initializes instance of STR\r"
      },
      "isPaused()": {
        "notice": "Check whether the registry is paused or not\r"
      },
      "isSecurityToken(address)": {
        "notice": "Checks that Security Token is registered\r"
      },
      "modifyExistingSecurityToken(string,address,address,string,uint256)": {
        "notice": "Adds a new custom Security Token and saves it to the registry. (Token should follow the ISecurityToken interface)\r"
      },
      "modifyExistingTicker(address,string,uint256,uint256,bool)": {
        "notice": "Modifies the ticker details. Only Polymath has the ability to do so.\rOnly allowed to modify the tickers which are not yet deployed.\r"
      },
      "owner()": {
        "notice": "Gets the owner of the contract\r"
      },
      "pause()": {
        "notice": "Called by the owner to pause, triggers stopped state\r"
      },
      "reclaimERC20(address)": {
        "notice": "Reclaims all ERC20Basic compatible tokens\r"
      },
      "refreshSecurityToken(string,string,string,bool,address)": {
        "notice": "Deploys an instance of a new Security Token and replaces the old one in the registry\r This can be used to upgrade from version 2.0 of ST to 3.0 or in case something goes wrong with earlier ST\r"
      },
      "registerNewTicker(address,string)": {
        "notice": "Registers the token ticker to the selected owner\rOnce the token ticker is registered to its owner then no other issuer can claim\rits ownership. If the ticker expires and its issuer hasn't used it, then someone else can take it.\r"
      },
      "removeProtocolFactory(uint8,uint8,uint8)": {
        "notice": "Removes a STFactory\r"
      },
      "removeTicker(string)": {
        "notice": "Removes the ticker details, associated ownership & security token mapping\r"
      },
      "setGetterRegistry(address)": {
        "notice": "Set the getter contract address\r"
      },
      "setLatestVersion(uint8,uint8,uint8)": {
        "notice": "Changes the default protocol version\rUsed only by Polymath to upgrade the SecurityToken contract and add more functionalities to future versions\rChanging versions does not affect existing tokens.\r"
      },
      "setProtocolFactory(address,uint8,uint8,uint8)": {
        "notice": "Changes the SecurityToken contract for a particular factory version\rUsed only by Polymath to upgrade the SecurityToken contract and add more functionalities to future versions\rChanging versions does not affect existing tokens.\r"
      },
      "tickerAvailable(string)": {
        "notice": "Checks if the entered ticker is registered and has not expired\r"
      },
      "transferTickerOwnership(address,string)": {
        "notice": "Transfers the ownership of the ticker\r"
      },
      "unpause()": {
        "notice": "Called by the owner to unpause, returns to normal state\r"
      },
      "updateFromRegistry()": {
        "notice": "Used to update the polyToken contract address\r"
      },
      "updatePolyTokenAddress(address)": {
        "notice": "Changes the PolyToken address. Only Polymath.\r"
      }
    }
  }
}