{
  "contractName": "SignedTransferManager",
  "abi": [
    {
      "constant": false,
      "inputs": [],
      "name": "reclaimETH",
      "outputs": [],
      "payable": false,
      "stateMutability": "nonpayable",
      "type": "function"
    },
    {
      "constant": true,
      "inputs": [
        {
          "name": "_partition",
          "type": "bytes32"
        },
        {
          "name": "_tokenHolder",
          "type": "address"
        },
        {
          "name": "",
          "type": "uint256"
        }
      ],
      "name": "getTokensByPartition",
      "outputs": [
        {
          "name": "",
          "type": "uint256"
        }
      ],
      "payable": false,
      "stateMutability": "view",
      "type": "function"
    },
    {
      "constant": true,
      "inputs": [],
      "name": "ADMIN",
      "outputs": [
        {
          "name": "",
          "type": "bytes32"
        }
      ],
      "payable": false,
      "stateMutability": "view",
      "type": "function"
    },
    {
      "constant": false,
      "inputs": [],
      "name": "unpause",
      "outputs": [],
      "payable": false,
      "stateMutability": "nonpayable",
      "type": "function"
    },
    {
      "constant": true,
      "inputs": [],
      "name": "paused",
      "outputs": [
        {
          "name": "",
          "type": "bool"
        }
      ],
      "payable": false,
      "stateMutability": "view",
      "type": "function"
    },
    {
      "constant": true,
      "inputs": [],
      "name": "UNLOCKED",
      "outputs": [
        {
          "name": "",
          "type": "bytes32"
        }
      ],
      "payable": false,
      "stateMutability": "view",
      "type": "function"
    },
    {
      "constant": true,
      "inputs": [],
      "name": "polyToken",
      "outputs": [
        {
          "name": "",
          "type": "address"
        }
      ],
      "payable": false,
      "stateMutability": "view",
      "type": "function"
    },
    {
      "constant": false,
      "inputs": [],
      "name": "pause",
      "outputs": [],
      "payable": false,
      "stateMutability": "nonpayable",
      "type": "function"
    },
    {
      "constant": false,
      "inputs": [
        {
          "name": "_tokenContract",
          "type": "address"
        }
      ],
      "name": "reclaimERC20",
      "outputs": [],
      "payable": false,
      "stateMutability": "nonpayable",
      "type": "function"
    },
    {
      "constant": true,
      "inputs": [],
      "name": "OPERATOR",
      "outputs": [
        {
          "name": "",
          "type": "bytes32"
        }
      ],
      "payable": false,
      "stateMutability": "view",
      "type": "function"
    },
    {
      "constant": true,
      "inputs": [],
      "name": "LOCKED",
      "outputs": [
        {
          "name": "",
          "type": "bytes32"
        }
      ],
      "payable": false,
      "stateMutability": "view",
      "type": "function"
    },
    {
      "constant": true,
      "inputs": [],
      "name": "securityToken",
      "outputs": [
        {
          "name": "",
          "type": "address"
        }
      ],
      "payable": false,
      "stateMutability": "view",
      "type": "function"
    },
    {
      "constant": true,
      "inputs": [],
      "name": "factory",
      "outputs": [
        {
          "name": "",
          "type": "address"
        }
      ],
      "payable": false,
      "stateMutability": "view",
      "type": "function"
    },
    {
      "constant": true,
      "inputs": [],
      "name": "INVALID_SIG",
      "outputs": [
        {
          "name": "",
          "type": "bytes32"
        }
      ],
      "payable": false,
      "stateMutability": "view",
      "type": "function"
    },
    {
      "constant": true,
      "inputs": [],
      "name": "getDataStore",
      "outputs": [
        {
          "name": "",
          "type": "address"
        }
      ],
      "payable": false,
      "stateMutability": "view",
      "type": "function"
    },
    {
      "inputs": [
        {
          "name": "_securityToken",
          "type": "address"
        },
        {
          "name": "_polyAddress",
          "type": "address"
        }
      ],
      "payable": false,
      "stateMutability": "nonpayable",
      "type": "constructor"
    },
    {
      "anonymous": false,
      "inputs": [
        {
          "indexed": false,
          "name": "_data",
          "type": "bytes"
        }
      ],
      "name": "SignatureUsed",
      "type": "event"
    },
    {
      "anonymous": false,
      "inputs": [
        {
          "indexed": false,
          "name": "account",
          "type": "address"
        }
      ],
      "name": "Pause",
      "type": "event"
    },
    {
      "anonymous": false,
      "inputs": [
        {
          "indexed": false,
          "name": "account",
          "type": "address"
        }
      ],
      "name": "Unpause",
      "type": "event"
    },
    {
      "constant": true,
      "inputs": [],
      "name": "getInitFunction",
      "outputs": [
        {
          "name": "",
          "type": "bytes4"
        }
      ],
      "payable": false,
      "stateMutability": "pure",
      "type": "function"
    },
    {
      "constant": true,
      "inputs": [
        {
          "name": "_data",
          "type": "bytes"
        }
      ],
      "name": "checkSignatureValidity",
      "outputs": [
        {
          "name": "",
          "type": "bool"
        }
      ],
      "payable": false,
      "stateMutability": "view",
      "type": "function"
    },
    {
      "constant": true,
      "inputs": [
        {
          "name": "_signer",
          "type": "address"
        }
      ],
      "name": "checkSigner",
      "outputs": [
        {
          "name": "",
          "type": "bool"
        }
      ],
      "payable": false,
      "stateMutability": "view",
      "type": "function"
    },
    {
      "constant": false,
      "inputs": [
        {
          "name": "_from",
          "type": "address"
        },
        {
          "name": "_to",
          "type": "address"
        },
        {
          "name": "_amount",
          "type": "uint256"
        },
        {
          "name": "_data",
          "type": "bytes"
        }
      ],
      "name": "executeTransfer",
      "outputs": [
        {
          "name": "",
          "type": "uint8"
        }
      ],
      "payable": false,
      "stateMutability": "nonpayable",
      "type": "function"
    },
    {
      "constant": true,
      "inputs": [
        {
          "name": "_from",
          "type": "address"
        },
        {
          "name": "_to",
          "type": "address"
        },
        {
          "name": "_amount",
          "type": "uint256"
        },
        {
          "name": "_data",
          "type": "bytes"
        }
      ],
      "name": "verifyTransfer",
      "outputs": [
        {
          "name": "",
          "type": "uint8"
        },
        {
          "name": "",
          "type": "bytes32"
        }
      ],
      "payable": false,
      "stateMutability": "view",
      "type": "function"
    },
    {
      "constant": false,
      "inputs": [
        {
          "name": "_from",
          "type": "address"
        },
        {
          "name": "_to",
          "type": "address"
        },
        {
          "name": "_amount",
          "type": "uint256"
        },
        {
          "name": "_data",
          "type": "bytes"
        }
      ],
      "name": "invalidateSignature",
      "outputs": [],
      "payable": false,
      "stateMutability": "nonpayable",
      "type": "function"
    },
    {
      "constant": true,
      "inputs": [],
      "name": "getPermissions",
      "outputs": [
        {
          "name": "",
          "type": "bytes32[]"
        }
      ],
      "payable": false,
      "stateMutability": "view",
      "type": "function"
    }
  ],
  "bytecode": "0x608060405260028054600160a01b60ff021916905534801561002057600080fd5b506040516040806119838339810180604052604081101561004057600080fd5b508051602090910151600180546001600160a01b039384166001600160a01b03199182161790915560008054821633179055600280549390921692169190911790556118f2806100916000396000f3fe608060405234801561001057600080fd5b50600436106101425760003560e01c80637f63ca37116100b8578063b84dfbd21161007c578063b84dfbd214610424578063c3a07df61461042c578063c45a015514610484578063ee9f0b241461048c578063f1d74b0f14610494578063fe58265e1461058357610142565b80637f63ca37146103c05780638456cb59146103e65780638905fd4f146103ee578063983d273714610414578063a1422f691461041c57610142565b80632d552a9f1161010a5780632d552a9f146102445780633d321731146102d25780633f4ba83a146103845780635c975abb1461038c5780636c2f0d53146103945780636faa22a51461039c57610142565b80630f144a48146101475780631613ec9d1461015157806325554e85146101765780632829e651146101f85780632a0acc6a1461023c575b600080fd5b61014f61058b565b005b6101596105c3565b604080516001600160e01b03199092168252519081900360200190f35b6101e46004803603602081101561018c57600080fd5b810190602081018135600160201b8111156101a657600080fd5b8201836020820111156101b857600080fd5b803590602001918460018302840111600160201b831117156101d957600080fd5b5090925090506105c8565b604080519115158252519081900360200190f35b61022a6004803603606081101561020e57600080fd5b508035906001600160a01b0360208201351690604001356106f8565b60408051918252519081900360200190f35b61022a61079e565b61014f6004803603608081101561025a57600080fd5b6001600160a01b03823581169260208101359091169160408201359190810190608081016060820135600160201b81111561029457600080fd5b8201836020820111156102a657600080fd5b803590602001918460018302840111600160201b831117156102c757600080fd5b5090925090506107ad565b610360600480360360808110156102e857600080fd5b6001600160a01b03823581169260208101359091169160408201359190810190608081016060820135600160201b81111561032257600080fd5b82018360208201111561033457600080fd5b803590602001918460018302840111600160201b8311171561035557600080fd5b509092509050610a8c565b6040518082600381111561037057fe5b60ff16815260200191505060405180910390f35b61014f610c30565b6101e4610c42565b61022a610c52565b6103a4610c64565b604080516001600160a01b039092168252519081900360200190f35b6101e4600480360360208110156103d657600080fd5b50356001600160a01b0316610c73565b61014f610c7e565b61014f6004803603602081101561040457600080fd5b50356001600160a01b0316610c8e565b61022a610e49565b61022a610e5b565b6103a4610e6b565b610434610e7a565b60408051602080825283518183015283519192839290830191858101910280838360005b83811015610470578181015183820152602001610458565b505050509050019250505060405180910390f35b6103a4610ec8565b61022a610ed7565b610558600480360360808110156104aa57600080fd5b6001600160a01b03823581169260208101359091169160408201359190810190608081016060820135600160201b8111156104e457600080fd5b8201836020820111156104f657600080fd5b803590602001918460018302840111600160201b8311171561051757600080fd5b91908080601f016020809104026020016040519081016040528093929190818152602001838380828437600092019190915250929550610eeb945050505050565b6040518083600381111561056857fe5b60ff1681526020018281526020019250505060405180910390f35b6103a46110f0565b610593611169565b6040513390303180156108fc02916000818181858888f193505050501580156105c0573d6000803e3d6000fd5b50565b600090565b60008060008060006060878760a08110156105e257600080fd5b6001600160a01b038235169160208101359160408201359160608101359181019060a081016080820135600160201b81111561061d57600080fd5b82018360208201111561062f57600080fd5b803590602001918460018302840111600160201b8311171561065057600080fd5b91908080601f016020809104026020016040519081016040528093929190818152602001838380828437600092019190915250999e50979c50959a509398509296505050506001600160a01b03881630141592508291506106b2905057504282105b806106bc57504283115b806106c657508051155b806106d557506106d581611242565b156106e8576000955050505050506106f2565b6001955050505050505b92915050565b6000600160c21b6715539313d0d2d151028414156107935760015460408051600160e01b6370a082310281526001600160a01b038681166004830152915191909216916370a08231916024808301926020929190829003018186803b15801561076057600080fd5b505afa158015610774573d6000803e3d6000fd5b505050506040513d602081101561078a57600080fd5b50519050610797565b5060005b9392505050565b600160d91b6420a226a4a70281565b6107b63361134b565b61080a5760408051600160e51b62461bcd02815260206004820152601360248201527f556e617574686f72697a6564205369676e657200000000000000000000000000604482015290519081900360640190fd5b6000806000806060868660a081101561082257600080fd5b6001600160a01b038235169160208101359160408201359160608101359181019060a081016080820135600160201b81111561085d57600080fd5b82018360208201111561086f57600080fd5b803590602001918460018302840111600160201b8311171561089057600080fd5b91908080601f016020809104026020016040519081016040528093929190818152602001838380828437600092019190915250999e50979c50959a509398509296506108e495508694506112429350505050565b156109395760408051600160e51b62461bcd02815260206004820152601960248201527f5369676e617475726520616c726561647920696e76616c696400000000000000604482015290519081900360640190fd5b6001600160a01b03851630146109995760408051600160e51b62461bcd02815260206004820152601d60248201527f5369676e6174757265206e6f7420666f722074686973206d6f64756c65000000604482015290519081900360640190fd5b604080516001600160a01b03808816606090811b602080850191909152603484018990526054840188905260748401879052828f16821b6094850152918d16901b60a883015260bc8083018c90528351808403909101815260dc909201909252805191012033610a1883610a0c84611365565b9063ffffffff6113b616565b6001600160a01b031614610a765760408051600160e51b62461bcd02815260206004820152601060248201527f496e636f7272656374205369676e657200000000000000000000000000000000604482015290519081900360640190fd5b610a7f826114a4565b5050505050505050505050565b6001546000906001600160a01b03163314610af15760408051600160e51b62461bcd02815260206004820152601360248201527f53656e646572206973206e6f74206f776e657200000000000000000000000000604482015290519081900360640190fd5b6000610b3587878787878080601f016020809104026020016040519081016040528093929190818152602001838380828437600092019190915250610eeb92505050565b5090506002816003811115610b4657fe5b148015610b535750602083115b15610c26576060848460a0811015610b6a57600080fd5b6001600160a01b038235169160208101359160408201359160608101359181019060a081016080820135600160201b811115610ba557600080fd5b820183602082011115610bb757600080fd5b803590602001918460018302840111600160201b83111715610bd857600080fd5b91908080601f016020809104026020016040519081016040528093929190818152602001838380828437600092019190915250929a50610c2499508a98506114a4975050505050505050565b505b9695505050505050565b610c38611169565b610c4061163d565b565b600254600160a01b900460ff1681565b600160c21b6715539313d0d2d1510281565b6002546001600160a01b031681565b60006106f28261134b565b610c86611169565b610c406116e3565b610c96611169565b6001600160a01b038116610cf45760408051600160e51b62461bcd02815260206004820152600f60248201527f496e76616c696420616464726573730000000000000000000000000000000000604482015290519081900360640190fd5b60408051600160e01b6370a08231028152306004820152905182916000916001600160a01b038416916370a08231916024808301926020929190829003018186803b158015610d4257600080fd5b505afa158015610d56573d6000803e3d6000fd5b505050506040513d6020811015610d6c57600080fd5b505160408051600160e01b63a9059cbb0281523360048201526024810183905290519192506001600160a01b0384169163a9059cbb916044808201926020929091908290030181600087803b158015610dc457600080fd5b505af1158015610dd8573d6000803e3d6000fd5b505050506040513d6020811015610dee57600080fd5b5051610e445760408051600160e51b62461bcd02815260206004820152600f60248201527f5472616e73666572206661696c65640000000000000000000000000000000000604482015290519081900360640190fd5b505050565b600160c11b6727a822a920aa27a90281565b600160d21b651313d0d2d1510281565b6001546001600160a01b031681565b60408051600180825281830190925260609182919060208083019080388339019050509050600160d91b6420a226a4a70281600081518110610eb857fe5b6020908102919091010152905090565b6000546001600160a01b031681565b600160b01b69494e56414c49445349470281565b6002546000908190600160a01b900460ff166110df576020835111610f1657506001905060006110e7565b60008060008060608780602001905160a0811015610f3357600080fd5b815160208301516040840151606085015160808601805194969395929491939283019291600160201b811115610f6857600080fd5b82016020810184811115610f7b57600080fd5b8151600160201b811182820187101715610f9457600080fd5b50979c50959a509398509196509294505050506001600160a01b038616301415905080610fc057508051155b80610fcf5750610fcf81611242565b80610fd957504282105b80610fe357504283115b15610ffb575060019550600094506110e79350505050565b6000858585858f8f8f60405160200180886001600160a01b03166001600160a01b031660601b8152601401878152602001868152602001858152602001846001600160a01b03166001600160a01b031660601b8152601401836001600160a01b03166001600160a01b031660601b815260140182815260200197505050505050505060405160208183030381529060405280519060200120905060006110a483610a0c84611365565b90506110af8161134b565b6110c8575060019750600096506110e795505050505050565b5060029750503060601b95506110e7945050505050565b506001905060005b94509492505050565b60015460408051600160e01b63660d0d6702815290516000926001600160a01b03169163660d0d67916004808301926020929190829003018186803b15801561113857600080fd5b505afa15801561114c573d6000803e3d6000fd5b505050506040513d602081101561116257600080fd5b5051905090565b600160009054906101000a90046001600160a01b03166001600160a01b0316638da5cb5b6040518163ffffffff1660e01b815260040160206040518083038186803b1580156111b757600080fd5b505afa1580156111cb573d6000803e3d6000fd5b505050506040513d60208110156111e157600080fd5b50516001600160a01b03163314610c405760408051600160e51b62461bcd02815260206004820152601360248201527f53656e646572206973206e6f74206f776e657200000000000000000000000000604482015290519081900360640190fd5b60008061124d6110f0565b9050806001600160a01b0316637ae1cfca600160b01b69494e56414c494453494702856040516020018083815260200182805190602001908083835b602083106112a85780518252601f199092019160209182019101611289565b6001836020036101000a03801982511681845116808217855250505050505090500192505050604051602081830303815290604052805190602001206040518263ffffffff1660e01b81526004018082815260200191505060206040518083038186803b15801561131857600080fd5b505afa15801561132c573d6000803e3d6000fd5b505050506040513d602081101561134257600080fd5b50519392505050565b60006106f2600160c11b6727a822a920aa27a90283611790565b604080517f19457468657265756d205369676e6564204d6573736167653a0a333200000000602080830191909152603c8083019490945282518083039094018452605c909101909152815191012090565b600081516041146113c9575060006106f2565b60208201516040830151606084015160001a7f7fffffffffffffffffffffffffffffff5d576e7357a4501ddfe92f46681b20a082111561140f57600093505050506106f2565b8060ff16601b1415801561142757508060ff16601c14155b1561143857600093505050506106f2565b6040805160008152602080820180845289905260ff8416828401526060820186905260808201859052915160019260a0808401939192601f1981019281900390910190855afa15801561148f573d6000803e3d6000fd5b5050604051601f190151979650505050505050565b60006114ae6110f0565b9050806001600160a01b031663abfdcced600160b01b69494e56414c494453494702846040516020018083815260200182805190602001908083835b602083106115095780518252601f1990920191602091820191016114ea565b6001836020036101000a038019825116818451168082178552505050505050905001925050506040516020818303038152906040528051906020012060016040518363ffffffff1660e01b8152600401808381526020018215151515815260200192505050600060405180830381600087803b15801561158857600080fd5b505af115801561159c573d6000803e3d6000fd5b505050507f239d120e57cb9f69d7e19c48dfa11ddfc0eb88c8c2429c6a1e7496ddadaef7d5826040518080602001828103825283818151815260200191508051906020019080838360005b838110156115ff5781810151838201526020016115e7565b50505050905090810190601f16801561162c5780820380516001836020036101000a031916815260200191505b509250505060405180910390a15050565b600254600160a01b900460ff1661169e5760408051600160e51b62461bcd02815260206004820152601660248201527f436f6e7472616374206973206e6f742070617573656400000000000000000000604482015290519081900360640190fd5b60028054600160a01b60ff02191690556040805133815290517faeb196d352664784d1900b0e7414a8face7d29f4dae8c4b0cf68ed477423bbf49181900360200190a1565b600254600160a01b900460ff16156117455760408051600160e51b62461bcd02815260206004820152601260248201527f436f6e7472616374206973207061757365640000000000000000000000000000604482015290519081900360640190fd5b60028054600160a01b60ff021916600160a01b1790556040805133815290517f5ee71a369c8672edded508e624ffc9257fa1ae6886ef32905c18e60196bca3999181900360200190a1565b600080600160009054906101000a90046001600160a01b03166001600160a01b0316638da5cb5b6040518163ffffffff1660e01b815260040160206040518083038186803b1580156117e157600080fd5b505afa1580156117f5573d6000803e3d6000fd5b505050506040513d602081101561180b57600080fd5b50516000546001600160a01b03858116928116831493501614818061182d5750805b806118bd575060015460408051600160e01b638658b8b90281526001600160a01b0387811660048301523060248301526044820189905291519190921691638658b8b9916064808301926020929190829003018186803b15801561189057600080fd5b505afa1580156118a4573d6000803e3d6000fd5b505050506040513d60208110156118ba57600080fd5b50515b9594505050505056fea165627a7a72305820cc83d5e4474f1608828ca180c3e6608a75de59dd254d19ead6bccdbba287d4060029",
  "source": "pragma solidity 0.5.8;\r\n\r\nimport \"../../TransferManager/TransferManager.sol\";\r\nimport \"openzeppelin-solidity/contracts/math/SafeMath.sol\";\r\nimport \"openzeppelin-solidity/contracts/cryptography/ECDSA.sol\";\r\n\r\n/**\r\n * @title Transfer Manager module for verifing transations with a signed message\r\n */\r\ncontract SignedTransferManager is TransferManager {\r\n    using SafeMath for uint256;\r\n    using ECDSA for bytes32;\r\n\r\n    //Keeps track of if the signature has been used or invalidated\r\n    //mapping(bytes => bool) invalidSignatures;\r\n    bytes32 constant public INVALID_SIG = \"INVALIDSIG\";\r\n\r\n    // Emit when a signature has been deemed invalid\r\n    event SignatureUsed(bytes _data);\r\n\r\n    /**\r\n     * @notice Constructor\r\n     * @param _securityToken Address of the security token\r\n     * @param _polyAddress Address of the polytoken\r\n     */\r\n    constructor (address _securityToken, address _polyAddress)\r\n    public\r\n    Module(_securityToken, _polyAddress)\r\n    {\r\n    }\r\n\r\n    /**\r\n     * @notice This function returns the signature of configure function\r\n     */\r\n    function getInitFunction() external pure returns (bytes4) {\r\n        return bytes4(0);\r\n    }\r\n\r\n    /**\r\n    * @notice function to check if a signature is still valid\r\n    * @param _data signature\r\n    */\r\n    function checkSignatureValidity(bytes calldata _data) external view returns(bool) {\r\n        address targetAddress;\r\n        uint256 nonce;\r\n        uint256 validFrom;\r\n        uint256 expiry;\r\n        bytes memory signature;\r\n        (targetAddress, nonce, validFrom, expiry, signature) = abi.decode(_data, (address, uint256, uint256, uint256, bytes));\r\n        if (targetAddress != address(this) || expiry < now || validFrom > now || signature.length == 0 || _checkSignatureIsInvalid(signature))\r\n            return false;\r\n        return true;\r\n    }\r\n\r\n    function checkSigner(address _signer) external view returns(bool) {\r\n        return _checkSigner(_signer);\r\n    }\r\n\r\n    /**\r\n    * @notice allow verify transfer with signature\r\n    * @param _from address transfer from\r\n    * @param _to address transfer to\r\n    * @param _amount transfer amount\r\n    * @param _data signature\r\n    * Sig needs to be valid (not used or deemed as invalid)\r\n    * Signer needs to be in the signers mapping\r\n    */\r\n    function executeTransfer(address _from, address _to, uint256 _amount, bytes calldata _data) external onlySecurityToken returns(Result) {\r\n        (Result success, ) = verifyTransfer(_from, _to, _amount, _data);\r\n        if (success == Result.VALID && _data.length > 32) {\r\n            bytes memory signature;\r\n            (,,,,signature) = abi.decode(_data, (address, uint256, uint256, uint256, bytes));\r\n            _invalidateSignature(signature);\r\n        }\r\n        return success;\r\n    }\r\n\r\n    /**\r\n    * @notice allow verify transfer with signature\r\n    * @param _from address transfer from\r\n    * @param _to address transfer to\r\n    * @param _amount transfer amount\r\n    * @param _data signature\r\n    * Sig needs to be valid (not used or deemed as invalid)\r\n    * Signer needs to be in the signers mapping\r\n    */\r\n    function verifyTransfer(address _from, address _to, uint256 _amount, bytes memory _data) public view returns(Result, bytes32) {\r\n        if (!paused) {\r\n\r\n            if (_data.length <= 32)\r\n                return (Result.NA, bytes32(0));\r\n\r\n            address targetAddress;\r\n            uint256 nonce;\r\n            uint256 validFrom;\r\n            uint256 expiry;\r\n            bytes memory signature;\r\n            (targetAddress, nonce, validFrom, expiry, signature) = abi.decode(_data, (address, uint256, uint256, uint256, bytes));\r\n\r\n            if (address(this) != targetAddress || signature.length == 0 || _checkSignatureIsInvalid(signature) || expiry < now || validFrom > now)\r\n                return (Result.NA, bytes32(0));\r\n\r\n            bytes32 hash = keccak256(abi.encodePacked(targetAddress, nonce, validFrom, expiry, _from, _to, _amount));\r\n            address signer = hash.toEthSignedMessageHash().recover(signature);\r\n\r\n            if (!_checkSigner(signer))\r\n                return (Result.NA, bytes32(0));\r\n            return (Result.VALID, bytes32(uint256(address(this)) << 96));\r\n        }\r\n        return (Result.NA, bytes32(0));\r\n    }\r\n\r\n    /**\r\n    * @notice allow signers to deem a signature invalid\r\n    * @param _from address transfer from\r\n    * @param _to address transfer to\r\n    * @param _amount transfer amount\r\n    * @param _data signature\r\n    * Sig needs to be valid (not used or deemed as invalid)\r\n    * Signer needs to be in the signers mapping\r\n    */\r\n    function invalidateSignature(address _from, address _to, uint256 _amount, bytes calldata _data) external {\r\n        require(_checkSigner(msg.sender), \"Unauthorized Signer\");\r\n\r\n        address targetAddress;\r\n        uint256 nonce;\r\n        uint256 validFrom;\r\n        uint256 expiry;\r\n        bytes memory signature;\r\n        (targetAddress, nonce, validFrom, expiry, signature) = abi.decode(_data, (address, uint256, uint256, uint256, bytes));\r\n\r\n        require(!_checkSignatureIsInvalid(signature), \"Signature already invalid\");\r\n        require(targetAddress == address(this), \"Signature not for this module\");\r\n\r\n        bytes32 hash = keccak256(abi.encodePacked(targetAddress, nonce, validFrom, expiry, _from, _to, _amount));\r\n        require(hash.toEthSignedMessageHash().recover(signature) == msg.sender, \"Incorrect Signer\");\r\n\r\n        _invalidateSignature(signature);\r\n    }\r\n\r\n    /**\r\n     * @notice Return the permissions flag that are associated with ManualApproval transfer manager\r\n     */\r\n    function getPermissions() public view returns(bytes32[] memory) {\r\n        bytes32[] memory allPermissions = new bytes32[](1);\r\n        allPermissions[0] = ADMIN;\r\n        return allPermissions;\r\n    }\r\n\r\n    function _checkSignatureIsInvalid(bytes memory _data) internal view returns(bool) {\r\n        IDataStore dataStore = getDataStore();\r\n        return dataStore.getBool(keccak256(abi.encodePacked(INVALID_SIG, _data)));\r\n    }\r\n\r\n    function _checkSigner(address _signer) internal view returns(bool) {\r\n        return _checkPerm(OPERATOR, _signer);\r\n    }\r\n\r\n    function _invalidateSignature(bytes memory _data) internal {\r\n        IDataStore dataStore = getDataStore();\r\n        dataStore.setBool(keccak256(abi.encodePacked(INVALID_SIG, _data)), true);\r\n        emit SignatureUsed(_data);\r\n    }\r\n}\r\n",
  "sourcePath": "C:\\mspace\\polymath-core\\contracts\\modules\\Experimental\\TransferManager\\SignedTransferManager.sol",
  "compiler": {
    "name": "solc",
    "version": "0.5.8+commit.23d335f2.Emscripten.clang"
  },
  "schemaVersion": "3.0.11",
  "updatedAt": "2019-08-05T22:52:46.800Z",
  "devdoc": {
    "methods": {
      "checkSignatureValidity(bytes)": {
        "params": {
          "_data": "signature\r"
        }
      },
      "constructor": {
        "params": {
          "_polyAddress": "Address of the polytoken\r",
          "_securityToken": "Address of the security token\r"
        }
      },
      "executeTransfer(address,address,uint256,bytes)": {
        "params": {
          "_amount": "transfer amount\r",
          "_data": "signature\r Sig needs to be valid (not used or deemed as invalid)\r Signer needs to be in the signers mapping\r",
          "_from": "address transfer from\r",
          "_to": "address transfer to\r"
        }
      },
      "getTokensByPartition(bytes32,address,uint256)": {
        "details": "returning the balance of token holder against the UNLOCKED partition. \r This condition is valid only when the base contract doesn't implement the\r `getTokensByPartition()` function.  \r"
      },
      "invalidateSignature(address,address,uint256,bytes)": {
        "params": {
          "_amount": "transfer amount\r",
          "_data": "signature\r Sig needs to be valid (not used or deemed as invalid)\r Signer needs to be in the signers mapping\r",
          "_from": "address transfer from\r",
          "_to": "address transfer to\r"
        }
      },
      "reclaimERC20(address)": {
        "details": "We duplicate here due to the overriden owner & onlyOwner\r",
        "params": {
          "_tokenContract": "The address of the token contract\r"
        }
      },
      "reclaimETH()": {
        "details": "We duplicate here due to the overriden owner & onlyOwner\r"
      },
      "verifyTransfer(address,address,uint256,bytes)": {
        "params": {
          "_amount": "transfer amount\r",
          "_data": "signature\r Sig needs to be valid (not used or deemed as invalid)\r Signer needs to be in the signers mapping\r",
          "_from": "address transfer from\r",
          "_to": "address transfer to\r"
        }
      }
    },
    "title": "Transfer Manager module for verifing transations with a signed message\r"
  },
  "userdoc": {
    "methods": {
      "checkSignatureValidity(bytes)": {
        "notice": "function to check if a signature is still valid\r"
      },
      "constructor": "Constructor\r",
      "executeTransfer(address,address,uint256,bytes)": {
        "notice": "allow verify transfer with signature\r"
      },
      "getDataStore()": {
        "notice": "used to return the data store address of securityToken\r"
      },
      "getInitFunction()": {
        "notice": "This function returns the signature of configure function\r"
      },
      "getPermissions()": {
        "notice": "Return the permissions flag that are associated with ManualApproval transfer manager\r"
      },
      "getTokensByPartition(bytes32,address,uint256)": {
        "notice": "return the amount of tokens for a given user as per the partition\r"
      },
      "invalidateSignature(address,address,uint256,bytes)": {
        "notice": "allow signers to deem a signature invalid\r"
      },
      "pause()": {
        "notice": "Pause (overridden function)\r"
      },
      "reclaimERC20(address)": {
        "notice": "Reclaims ERC20Basic compatible tokens\r"
      },
      "reclaimETH()": {
        "notice": "Reclaims ETH\r"
      },
      "unpause()": {
        "notice": "Unpause (overridden function)\r"
      },
      "verifyTransfer(address,address,uint256,bytes)": {
        "notice": "allow verify transfer with signature\r"
      }
    }
  }
}