{
  "contractName": "StableOracle",
  "abi": [
    {
      "constant": true,
      "inputs": [],
      "name": "lastPrice",
      "outputs": [
        {
          "name": "",
          "type": "uint256"
        }
      ],
      "payable": false,
      "stateMutability": "view",
      "type": "function"
    },
    {
      "constant": false,
      "inputs": [],
      "name": "renounceOwnership",
      "outputs": [],
      "payable": false,
      "stateMutability": "nonpayable",
      "type": "function"
    },
    {
      "constant": true,
      "inputs": [],
      "name": "oracle",
      "outputs": [
        {
          "name": "",
          "type": "address"
        }
      ],
      "payable": false,
      "stateMutability": "view",
      "type": "function"
    },
    {
      "constant": true,
      "inputs": [],
      "name": "owner",
      "outputs": [
        {
          "name": "",
          "type": "address"
        }
      ],
      "payable": false,
      "stateMutability": "view",
      "type": "function"
    },
    {
      "constant": true,
      "inputs": [],
      "name": "isOwner",
      "outputs": [
        {
          "name": "",
          "type": "bool"
        }
      ],
      "payable": false,
      "stateMutability": "view",
      "type": "function"
    },
    {
      "constant": true,
      "inputs": [],
      "name": "manualPrice",
      "outputs": [
        {
          "name": "",
          "type": "uint256"
        }
      ],
      "payable": false,
      "stateMutability": "view",
      "type": "function"
    },
    {
      "constant": true,
      "inputs": [],
      "name": "manualOverride",
      "outputs": [
        {
          "name": "",
          "type": "bool"
        }
      ],
      "payable": false,
      "stateMutability": "view",
      "type": "function"
    },
    {
      "constant": true,
      "inputs": [],
      "name": "evictPercentage",
      "outputs": [
        {
          "name": "",
          "type": "uint256"
        }
      ],
      "payable": false,
      "stateMutability": "view",
      "type": "function"
    },
    {
      "constant": false,
      "inputs": [
        {
          "name": "newOwner",
          "type": "address"
        }
      ],
      "name": "transferOwnership",
      "outputs": [],
      "payable": false,
      "stateMutability": "nonpayable",
      "type": "function"
    },
    {
      "inputs": [
        {
          "name": "_oracle",
          "type": "address"
        },
        {
          "name": "_evictPercentage",
          "type": "uint256"
        }
      ],
      "payable": false,
      "stateMutability": "nonpayable",
      "type": "constructor"
    },
    {
      "anonymous": false,
      "inputs": [
        {
          "indexed": false,
          "name": "_oldOracle",
          "type": "address"
        },
        {
          "indexed": false,
          "name": "_newOracle",
          "type": "address"
        }
      ],
      "name": "ChangeOracle",
      "type": "event"
    },
    {
      "anonymous": false,
      "inputs": [
        {
          "indexed": false,
          "name": "_oldEvictPercentage",
          "type": "uint256"
        },
        {
          "indexed": false,
          "name": "_newEvictPercentage",
          "type": "uint256"
        }
      ],
      "name": "ChangeEvictPercentage",
      "type": "event"
    },
    {
      "anonymous": false,
      "inputs": [
        {
          "indexed": false,
          "name": "_oldPrice",
          "type": "uint256"
        },
        {
          "indexed": false,
          "name": "_newPrice",
          "type": "uint256"
        }
      ],
      "name": "SetManualPrice",
      "type": "event"
    },
    {
      "anonymous": false,
      "inputs": [
        {
          "indexed": false,
          "name": "_override",
          "type": "bool"
        }
      ],
      "name": "SetManualOverride",
      "type": "event"
    },
    {
      "anonymous": false,
      "inputs": [
        {
          "indexed": true,
          "name": "previousOwner",
          "type": "address"
        },
        {
          "indexed": true,
          "name": "newOwner",
          "type": "address"
        }
      ],
      "name": "OwnershipTransferred",
      "type": "event"
    },
    {
      "constant": false,
      "inputs": [
        {
          "name": "_oracle",
          "type": "address"
        }
      ],
      "name": "changeOracle",
      "outputs": [],
      "payable": false,
      "stateMutability": "nonpayable",
      "type": "function"
    },
    {
      "constant": false,
      "inputs": [
        {
          "name": "_evictPercentage",
          "type": "uint256"
        }
      ],
      "name": "changeEvictPercentage",
      "outputs": [],
      "payable": false,
      "stateMutability": "nonpayable",
      "type": "function"
    },
    {
      "constant": true,
      "inputs": [],
      "name": "getCurrencyAddress",
      "outputs": [
        {
          "name": "",
          "type": "address"
        }
      ],
      "payable": false,
      "stateMutability": "view",
      "type": "function"
    },
    {
      "constant": true,
      "inputs": [],
      "name": "getCurrencySymbol",
      "outputs": [
        {
          "name": "",
          "type": "bytes32"
        }
      ],
      "payable": false,
      "stateMutability": "view",
      "type": "function"
    },
    {
      "constant": true,
      "inputs": [],
      "name": "getCurrencyDenominated",
      "outputs": [
        {
          "name": "",
          "type": "bytes32"
        }
      ],
      "payable": false,
      "stateMutability": "view",
      "type": "function"
    },
    {
      "constant": false,
      "inputs": [],
      "name": "getPrice",
      "outputs": [
        {
          "name": "",
          "type": "uint256"
        }
      ],
      "payable": false,
      "stateMutability": "nonpayable",
      "type": "function"
    },
    {
      "constant": false,
      "inputs": [
        {
          "name": "_price",
          "type": "uint256"
        }
      ],
      "name": "setManualPrice",
      "outputs": [],
      "payable": false,
      "stateMutability": "nonpayable",
      "type": "function"
    },
    {
      "constant": false,
      "inputs": [
        {
          "name": "_override",
          "type": "bool"
        }
      ],
      "name": "setManualOverride",
      "outputs": [],
      "payable": false,
      "stateMutability": "nonpayable",
      "type": "function"
    }
  ],
  "bytecode": "0x608060405234801561001057600080fd5b506040516040806109468339810180604052604081101561003057600080fd5b508051602090910151600080546001600160a01b03191633178082556040516001600160a01b039190911691907f8be0079c531659141344cd1fd0a4f28419497f9722a3daafe3b4186f6b6457e0908290a36001600160a01b0382166100f757604080517f08c379a000000000000000000000000000000000000000000000000000000000815260206004820152600e60248201527f496e76616c6964206f7261636c65000000000000000000000000000000000000604482015290519081900360640190fd5b600180546001600160a01b0319166001600160a01b03939093169290921790915560035561081c8061012a6000396000f3fe608060405234801561001057600080fd5b506004361061010b5760003560e01c80638f32d59b116100a2578063bfe0c27e11610071578063bfe0c27e146101fe578063d265421914610206578063d7a718681461020e578063e263c3b01461022b578063f2fde38b146102335761010b565b80638f32d59b146101ca57806398d5fdca146101e6578063a2c9d630146101ee578063bae6d62b146101f65761010b565b80635dfc09a4116100de5780635dfc09a41461018e578063715018a6146101965780637dc0d1d01461019e5780638da5cb5b146101c25761010b565b8063053f14da14610110578063181423b11461012a578063359675011461014957806347c421b514610168575b600080fd5b610118610259565b60408051918252519081900360200190f35b6101476004803603602081101561014057600080fd5b503561025f565b005b6101476004803603602081101561015f57600080fd5b503515156102b2565b6101476004803603602081101561017e57600080fd5b50356001600160a01b031661030a565b6101186103e3565b61014761045d565b6101a66104b8565b604080516001600160a01b039092168252519081900360200190f35b6101a66104c7565b6101d26104d6565b604080519115158252519081900360200190f35b6101186104e7565b6101186105a5565b6101d26105ab565b6101a66105b4565b6101186105fc565b6101476004803603602081101561022457600080fd5b5035610644565b610118610697565b6101476004803603602081101561024957600080fd5b50356001600160a01b031661069d565b60025481565b6102676104d6565b61027057600080fd5b600354604080519182526020820183905280517f95e8a1fac40147788b56f25612798eb7fc4b39b4b30496a1fa0072a62e6810979281900390910190a1600355565b6102ba6104d6565b6102c357600080fd5b6004805482151560ff19909116811790915560408051918252517f04baa8606d8ce0d9f3ff26f474e838ccfdb363859c901d90d3e6a28011e6a9319181900360200190a150565b6103126104d6565b61031b57600080fd5b6001600160a01b0381166103795760408051600160e51b62461bcd02815260206004820152600e60248201527f496e76616c6964206f7261636c65000000000000000000000000000000000000604482015290519081900360640190fd5b600154604080516001600160a01b039283168152918316602083015280517ff38eda0d0d0b3f131bd737d2be9bdc17126c2e6e34f7ece87fc07dcf147090bb9281900390910190a1600180546001600160a01b0319166001600160a01b0392909216919091179055565b60015460408051600160e21b63177f026902815290516000926001600160a01b031691635dfc09a4916004808301926020929190829003018186803b15801561042b57600080fd5b505afa15801561043f573d6000803e3d6000fd5b505050506040513d602081101561045557600080fd5b505190505b90565b6104656104d6565b61046e57600080fd5b600080546040516001600160a01b03909116907f8be0079c531659141344cd1fd0a4f28419497f9722a3daafe3b4186f6b6457e0908390a3600080546001600160a01b0319169055565b6001546001600160a01b031681565b6000546001600160a01b031690565b6000546001600160a01b0316331490565b60045460009060ff16156104fe575060055461045a565b60015460408051600160e11b634c6afee502815290516000926001600160a01b0316916398d5fdca91600480830192602092919082900301818787803b15801561054757600080fd5b505af115801561055b573d6000803e3d6000fd5b505050506040513d602081101561057157600080fd5b50516002549091501580610592575060035461058f826002546106ba565b10155b1561059d5760028190555b505060025490565b60055481565b60045460ff1681565b60015460408051600160e11b635ff0613f02815290516000926001600160a01b03169163bfe0c27e916004808301926020929190829003018186803b15801561042b57600080fd5b60015460408051600160e01b63d265421902815290516000926001600160a01b03169163d2654219916004808301926020929190829003018186803b15801561042b57600080fd5b61064c6104d6565b61065557600080fd5b600554604080519182526020820183905280517ff9343160604fb51d6335273e181102962862d3c22bd3b94394f0a6f5c6bebbcc9281900390910190a1600555565b60035481565b6106a56104d6565b6106ae57600080fd5b6106b78161071d565b50565b6000808284116106d9576106d4838563ffffffff61078b16565b6106e9565b6106e9848463ffffffff61078b16565b90506107138361070783670de0b6b3a764000063ffffffff6107a016565b9063ffffffff6107ce16565b9150505b92915050565b6001600160a01b03811661073057600080fd5b600080546040516001600160a01b03808516939216917f8be0079c531659141344cd1fd0a4f28419497f9722a3daafe3b4186f6b6457e091a3600080546001600160a01b0319166001600160a01b0392909216919091179055565b60008282111561079a57600080fd5b50900390565b6000826107af57506000610717565b828202828482816107bc57fe5b04146107c757600080fd5b9392505050565b60008082116107dc57600080fd5b60008284816107e757fe5b0494935050505056fea165627a7a72305820a10cff18279bd0ad5bd8822f4d6d3e98b87dae5ea888ebc7ae2f31a74fd58fa30029",
  "source": "pragma solidity 0.5.8;\r\n\r\nimport \"../interfaces/IOracle.sol\";\r\nimport \"openzeppelin-solidity/contracts/ownership/Ownable.sol\";\r\nimport \"openzeppelin-solidity/contracts/math/SafeMath.sol\";\r\n\r\ncontract StableOracle is IOracle, Ownable {\r\n    using SafeMath for uint256;\r\n\r\n    IOracle public oracle;\r\n    uint256 public lastPrice;\r\n    uint256 public evictPercentage; //% multiplid by 10**16\r\n\r\n    bool public manualOverride;\r\n    uint256 public manualPrice;\r\n\r\n    /*solium-disable-next-line security/no-block-members*/\r\n    event ChangeOracle(address _oldOracle, address _newOracle);\r\n    event ChangeEvictPercentage(uint256 _oldEvictPercentage, uint256 _newEvictPercentage);\r\n    event SetManualPrice(uint256 _oldPrice, uint256 _newPrice);\r\n    event SetManualOverride(bool _override);\r\n\r\n    /**\r\n      * @notice Creates a new stable oracle based on existing oracle\r\n      * @param _oracle address of underlying oracle\r\n      */\r\n    constructor(address _oracle, uint256 _evictPercentage) public {\r\n        require(_oracle != address(0), \"Invalid oracle\");\r\n        oracle = IOracle(_oracle);\r\n        evictPercentage = _evictPercentage;\r\n    }\r\n\r\n    /**\r\n      * @notice Updates medianizer address\r\n      * @param _oracle Address of underlying oracle\r\n      */\r\n    function changeOracle(address _oracle) public onlyOwner {\r\n        require(_oracle != address(0), \"Invalid oracle\");\r\n        /*solium-disable-next-line security/no-block-members*/\r\n        emit ChangeOracle(address(oracle), _oracle);\r\n        oracle = IOracle(_oracle);\r\n    }\r\n\r\n    /**\r\n      * @notice Updates eviction percentage\r\n      * @param _evictPercentage Percentage multiplied by 10**16\r\n      */\r\n    function changeEvictPercentage(uint256 _evictPercentage) public onlyOwner {\r\n        emit ChangeEvictPercentage(evictPercentage, _evictPercentage);\r\n        evictPercentage = _evictPercentage;\r\n    }\r\n\r\n    /**\r\n    * @notice Returns address of oracle currency (0x0 for ETH)\r\n    */\r\n    function getCurrencyAddress() external view returns(address) {\r\n        return oracle.getCurrencyAddress();\r\n    }\r\n\r\n    /**\r\n    * @notice Returns symbol of oracle currency (0x0 for ETH)\r\n    */\r\n    function getCurrencySymbol() external view returns(bytes32) {\r\n        return oracle.getCurrencySymbol();\r\n    }\r\n\r\n    /**\r\n    * @notice Returns denomination of price\r\n    */\r\n    function getCurrencyDenominated() external view returns(bytes32) {\r\n        return oracle.getCurrencyDenominated();\r\n    }\r\n\r\n    /**\r\n    * @notice Returns price - should throw if not valid\r\n    */\r\n    function getPrice() external returns(uint256) {\r\n        if (manualOverride) {\r\n            return manualPrice;\r\n        }\r\n        uint256 currentPrice = oracle.getPrice();\r\n        if ((lastPrice == 0) || (_change(currentPrice, lastPrice) >= evictPercentage)) {\r\n            lastPrice = currentPrice;\r\n        }\r\n        return lastPrice;\r\n    }\r\n\r\n    function _change(uint256 _newPrice, uint256 _oldPrice) internal pure returns(uint256) {\r\n        uint256 diff = _newPrice > _oldPrice ? _newPrice.sub(_oldPrice) : _oldPrice.sub(_newPrice);\r\n        return diff.mul(10**18).div(_oldPrice);\r\n    }\r\n\r\n    /**\r\n      * @notice Set a manual price. NA - this will only be used if manualOverride == true\r\n      * @param _price Price to set\r\n      */\r\n    function setManualPrice(uint256 _price) public onlyOwner {\r\n        /*solium-disable-next-line security/no-block-members*/\r\n        emit SetManualPrice(manualPrice, _price);\r\n        manualPrice = _price;\r\n    }\r\n\r\n    /**\r\n      * @notice Determine whether manual price is used or not\r\n      * @param _override Whether to use the manual override price or not\r\n      */\r\n    function setManualOverride(bool _override) public onlyOwner {\r\n        manualOverride = _override;\r\n        /*solium-disable-next-line security/no-block-members*/\r\n        emit SetManualOverride(_override);\r\n    }\r\n\r\n}\r\n",
  "sourcePath": "C:/mspace/polymath-core/contracts/oracles/StableOracle.sol",
  "compiler": {
    "name": "solc",
    "version": "0.5.8+commit.23d335f2.Emscripten.clang"
  },
  "schemaVersion": "3.0.11",
  "updatedAt": "2019-08-05T22:53:44.900Z",
  "devdoc": {
    "methods": {
      "changeEvictPercentage(uint256)": {
        "params": {
          "_evictPercentage": "Percentage multiplied by 10**16\r"
        }
      },
      "changeOracle(address)": {
        "params": {
          "_oracle": "Address of underlying oracle\r"
        }
      },
      "constructor": {
        "params": {
          "_oracle": "address of underlying oracle\r"
        }
      },
      "isOwner()": {
        "return": "true if `msg.sender` is the owner of the contract."
      },
      "owner()": {
        "return": "the address of the owner."
      },
      "renounceOwnership()": {
        "details": "Allows the current owner to relinquish control of the contract. It will not be possible to call the functions with the `onlyOwner` modifier anymore."
      },
      "setManualOverride(bool)": {
        "params": {
          "_override": "Whether to use the manual override price or not\r"
        }
      },
      "setManualPrice(uint256)": {
        "params": {
          "_price": "Price to set\r"
        }
      },
      "transferOwnership(address)": {
        "details": "Allows the current owner to transfer control of the contract to a newOwner.",
        "params": {
          "newOwner": "The address to transfer ownership to."
        }
      }
    }
  },
  "userdoc": {
    "methods": {
      "changeEvictPercentage(uint256)": {
        "notice": "Updates eviction percentage\r"
      },
      "changeOracle(address)": {
        "notice": "Updates medianizer address\r"
      },
      "constructor": "Creates a new stable oracle based on existing oracle\r",
      "getCurrencyAddress()": {
        "notice": "Returns address of oracle currency (0x0 for ETH)\r"
      },
      "getCurrencyDenominated()": {
        "notice": "Returns denomination of price\r"
      },
      "getCurrencySymbol()": {
        "notice": "Returns symbol of oracle currency (0x0 for ETH)\r"
      },
      "getPrice()": {
        "notice": "Returns price - should throw if not valid\r"
      },
      "renounceOwnership()": {
        "notice": "Renouncing ownership will leave the contract without an owner, thereby removing any functionality that is only available to the owner."
      },
      "setManualOverride(bool)": {
        "notice": "Determine whether manual price is used or not\r"
      },
      "setManualPrice(uint256)": {
        "notice": "Set a manual price. NA - this will only be used if manualOverride == true\r"
      }
    }
  }
}