{
  "contractName": "STFactory",
  "abi": [
    {
      "constant": true,
      "inputs": [],
      "name": "transferManagerFactory",
      "outputs": [
        {
          "name": "",
          "type": "address"
        }
      ],
      "payable": false,
      "stateMutability": "view",
      "type": "function"
    },
    {
      "constant": true,
      "inputs": [],
      "name": "dataStoreFactory",
      "outputs": [
        {
          "name": "",
          "type": "address"
        }
      ],
      "payable": false,
      "stateMutability": "view",
      "type": "function"
    },
    {
      "constant": true,
      "inputs": [],
      "name": "latestUpgrade",
      "outputs": [
        {
          "name": "",
          "type": "uint256"
        }
      ],
      "payable": false,
      "stateMutability": "view",
      "type": "function"
    },
    {
      "constant": false,
      "inputs": [],
      "name": "renounceOwnership",
      "outputs": [],
      "payable": false,
      "stateMutability": "nonpayable",
      "type": "function"
    },
    {
      "constant": true,
      "inputs": [],
      "name": "polymathRegistry",
      "outputs": [
        {
          "name": "",
          "type": "address"
        }
      ],
      "payable": false,
      "stateMutability": "view",
      "type": "function"
    },
    {
      "constant": true,
      "inputs": [],
      "name": "owner",
      "outputs": [
        {
          "name": "",
          "type": "address"
        }
      ],
      "payable": false,
      "stateMutability": "view",
      "type": "function"
    },
    {
      "constant": true,
      "inputs": [],
      "name": "isOwner",
      "outputs": [
        {
          "name": "",
          "type": "bool"
        }
      ],
      "payable": false,
      "stateMutability": "view",
      "type": "function"
    },
    {
      "constant": false,
      "inputs": [
        {
          "name": "newOwner",
          "type": "address"
        }
      ],
      "name": "transferOwnership",
      "outputs": [],
      "payable": false,
      "stateMutability": "nonpayable",
      "type": "function"
    },
    {
      "inputs": [
        {
          "name": "_polymathRegistry",
          "type": "address"
        },
        {
          "name": "_transferManagerFactory",
          "type": "address"
        },
        {
          "name": "_dataStoreFactory",
          "type": "address"
        },
        {
          "name": "_version",
          "type": "string"
        },
        {
          "name": "_logicContract",
          "type": "address"
        },
        {
          "name": "_initializationData",
          "type": "bytes"
        }
      ],
      "payable": false,
      "stateMutability": "nonpayable",
      "type": "constructor"
    },
    {
      "anonymous": false,
      "inputs": [
        {
          "indexed": false,
          "name": "_version",
          "type": "string"
        },
        {
          "indexed": false,
          "name": "_upgrade",
          "type": "uint256"
        },
        {
          "indexed": false,
          "name": "_logicContract",
          "type": "address"
        },
        {
          "indexed": false,
          "name": "_initializationData",
          "type": "bytes"
        },
        {
          "indexed": false,
          "name": "_upgradeData",
          "type": "bytes"
        }
      ],
      "name": "LogicContractSet",
      "type": "event"
    },
    {
      "anonymous": false,
      "inputs": [
        {
          "indexed": true,
          "name": "_securityToken",
          "type": "address"
        },
        {
          "indexed": true,
          "name": "_version",
          "type": "uint256"
        }
      ],
      "name": "TokenUpgraded",
      "type": "event"
    },
    {
      "anonymous": false,
      "inputs": [
        {
          "indexed": true,
          "name": "_oldTransferManagerFactory",
          "type": "address"
        },
        {
          "indexed": true,
          "name": "_newTransferManagerFactory",
          "type": "address"
        }
      ],
      "name": "DefaultTransferManagerUpdated",
      "type": "event"
    },
    {
      "anonymous": false,
      "inputs": [
        {
          "indexed": true,
          "name": "_oldDataStoreFactory",
          "type": "address"
        },
        {
          "indexed": true,
          "name": "_newDataStoreFactory",
          "type": "address"
        }
      ],
      "name": "DefaultDataStoreUpdated",
      "type": "event"
    },
    {
      "anonymous": false,
      "inputs": [
        {
          "indexed": true,
          "name": "previousOwner",
          "type": "address"
        },
        {
          "indexed": true,
          "name": "newOwner",
          "type": "address"
        }
      ],
      "name": "OwnershipTransferred",
      "type": "event"
    },
    {
      "anonymous": false,
      "inputs": [
        {
          "indexed": false,
          "name": "_version",
          "type": "string"
        },
        {
          "indexed": false,
          "name": "_logicContract",
          "type": "address"
        },
        {
          "indexed": false,
          "name": "_upgradeData",
          "type": "bytes"
        }
      ],
      "name": "LogicContractSet",
      "type": "event"
    },
    {
      "constant": false,
      "inputs": [
        {
          "name": "_name",
          "type": "string"
        },
        {
          "name": "_symbol",
          "type": "string"
        },
        {
          "name": "_decimals",
          "type": "uint8"
        },
        {
          "name": "_tokenDetails",
          "type": "string"
        },
        {
          "name": "_issuer",
          "type": "address"
        },
        {
          "name": "_divisible",
          "type": "bool"
        },
        {
          "name": "_treasuryWallet",
          "type": "address"
        }
      ],
      "name": "deployToken",
      "outputs": [
        {
          "name": "",
          "type": "address"
        }
      ],
      "payable": false,
      "stateMutability": "nonpayable",
      "type": "function"
    },
    {
      "constant": false,
      "inputs": [
        {
          "name": "_version",
          "type": "string"
        },
        {
          "name": "_logicContract",
          "type": "address"
        },
        {
          "name": "_initializationData",
          "type": "bytes"
        },
        {
          "name": "_upgradeData",
          "type": "bytes"
        }
      ],
      "name": "setLogicContract",
      "outputs": [],
      "payable": false,
      "stateMutability": "nonpayable",
      "type": "function"
    },
    {
      "constant": false,
      "inputs": [
        {
          "name": "_upgrade",
          "type": "uint256"
        },
        {
          "name": "_version",
          "type": "string"
        },
        {
          "name": "_logicContract",
          "type": "address"
        },
        {
          "name": "_initializationData",
          "type": "bytes"
        },
        {
          "name": "_upgradeData",
          "type": "bytes"
        }
      ],
      "name": "updateLogicContract",
      "outputs": [],
      "payable": false,
      "stateMutability": "nonpayable",
      "type": "function"
    },
    {
      "constant": false,
      "inputs": [
        {
          "name": "_maxModuleType",
          "type": "uint8"
        }
      ],
      "name": "upgradeToken",
      "outputs": [],
      "payable": false,
      "stateMutability": "nonpayable",
      "type": "function"
    },
    {
      "constant": false,
      "inputs": [
        {
          "name": "_transferManagerFactory",
          "type": "address"
        }
      ],
      "name": "updateDefaultTransferManager",
      "outputs": [],
      "payable": false,
      "stateMutability": "nonpayable",
      "type": "function"
    },
    {
      "constant": false,
      "inputs": [
        {
          "name": "_dataStoreFactory",
          "type": "address"
        }
      ],
      "name": "updateDefaultDataStore",
      "outputs": [],
      "payable": false,
      "stateMutability": "nonpayable",
      "type": "function"
    }
  ],
  "bytecode": "0x60806040523480156200001157600080fd5b506040516200397338038062003973833981018060405260c08110156200003757600080fd5b81516020830151604084015160608501805193959294919391830192916401000000008111156200006757600080fd5b820160208101848111156200007b57600080fd5b81516401000000008111828201871017156200009657600080fd5b50506020820151604090920180519194929391640100000000811115620000bc57600080fd5b82016020810184811115620000d057600080fd5b8151640100000000811182820187101715620000eb57600080fd5b5050600080546001600160a01b03191633178082556040519295506001600160a01b0316935091507f8be0079c531659141344cd1fd0a4f28419497f9722a3daafe3b4186f6b6457e0908290a36001600160a01b038216620001ae57604080517f08c379a000000000000000000000000000000000000000000000000000000000815260206004820152600f60248201527f496e76616c696420416464726573730000000000000000000000000000000000604482015290519081900360640190fd5b6001600160a01b0385166200022457604080517f08c379a000000000000000000000000000000000000000000000000000000000815260206004820152600f60248201527f496e76616c696420416464726573730000000000000000000000000000000000604482015290519081900360640190fd5b6001600160a01b0384166200029a57604080517f08c379a000000000000000000000000000000000000000000000000000000000815260206004820152600f60248201527f496e76616c696420416464726573730000000000000000000000000000000000604482015290519081900360640190fd5b6001600160a01b0386166200031057604080517f08c379a000000000000000000000000000000000000000000000000000000000815260206004820152600f60248201527f496e76616c696420416464726573730000000000000000000000000000000000604482015290519081900360640190fd5b60048151116200038157604080517f08c379a000000000000000000000000000000000000000000000000000000000815260206004820152601660248201527f496e76616c696420496e697469616c697a6174696f6e00000000000000000000604482015290519081900360640190fd5b600180546001600160a01b038088166001600160a01b031992831617835560028054888316908416179055600380548a83169084161790556006839055600092909252600560209081527f1471eb6eb2c5e789fc3de43f8ce62938c7d1836ec861730447e2ada8fd81017c80549386169390921692909217905581516200042e917f1471eb6eb2c5e789fc3de43f8ce62938c7d1836ec861730447e2ada8fd81017d919084019062000460565b5060065460009081526005602090815260409091208451620004539286019062000460565b5050505050505062000505565b828054600181600116156101000203166002900490600052602060002090601f016020900481019282601f10620004a357805160ff1916838001178555620004d3565b82800160010185558215620004d3579182015b82811115620004d3578251825591602001919060010190620004b6565b50620004e1929150620004e5565b5090565b6200050291905b80821115620004e15760008155600101620004ec565b90565b61345e80620005156000396000f3fe60806040523480156200001157600080fd5b5060043610620001005760003560e01c80638da5cb5b1162000099578063c85fd4f8116200006f578063c85fd4f81462000302578063d39d5994146200043e578063ebc679a81462000467578063f2fde38b14620005955762000100565b80638da5cb5b14620002b75780638f32d59b14620002c1578063a62d3a4514620002df5762000100565b8063498db2dc11620000db578063498db2dc146200027d57806360fece011462000287578063715018a614620002a357806377282b7014620002ad5762000100565b8063225da7e514620001055780633b2f56e0146200012b5780633bc7f70b1462000156575b600080fd5b6200010f620005be565b604080516001600160a01b039092168252519081900360200190f35b62000154600480360360208110156200014357600080fd5b50356001600160a01b0316620005cd565b005b62000154600480360360808110156200016e57600080fd5b810190602081018135600160201b8111156200018957600080fd5b8201836020820111156200019c57600080fd5b803590602001918460018302840111600160201b83111715620001be57600080fd5b919390926001600160a01b0383351692604081019060200135600160201b811115620001e957600080fd5b820183602082011115620001fc57600080fd5b803590602001918460018302840111600160201b831117156200021e57600080fd5b919390929091602081019035600160201b8111156200023c57600080fd5b8201836020820111156200024f57600080fd5b803590602001918460018302840111600160201b831117156200027157600080fd5b5090925090506200063d565b6200010f62000983565b6200029162000992565b60408051918252519081900360200190f35b6200015462000998565b6200010f620009f6565b6200010f62000a05565b620002cb62000a15565b604080519115158252519081900360200190f35b6200015460048036036020811015620002f757600080fd5b503560ff1662000a26565b6200010f600480360360e08110156200031a57600080fd5b810190602081018135600160201b8111156200033557600080fd5b8201836020820111156200034857600080fd5b803590602001918460018302840111600160201b831117156200036a57600080fd5b919390929091602081019035600160201b8111156200038857600080fd5b8201836020820111156200039b57600080fd5b803590602001918460018302840111600160201b83111715620003bd57600080fd5b9193909260ff83351692604081019060200135600160201b811115620003e257600080fd5b820183602082011115620003f557600080fd5b803590602001918460018302840111600160201b831117156200041757600080fd5b91935091506001600160a01b03813581169160208101351515916040909101351662001078565b62000154600480360360208110156200045657600080fd5b50356001600160a01b0316620013c9565b62000154600480360360a08110156200047f57600080fd5b81359190810190604081016020820135600160201b811115620004a157600080fd5b820183602082011115620004b457600080fd5b803590602001918460018302840111600160201b83111715620004d657600080fd5b919390926001600160a01b0383351692604081019060200135600160201b8111156200050157600080fd5b8201836020820111156200051457600080fd5b803590602001918460018302840111600160201b831117156200053657600080fd5b919390929091602081019035600160201b8111156200055457600080fd5b8201836020820111156200056757600080fd5b803590602001918460018302840111600160201b831117156200058957600080fd5b50909250905062001439565b6200015460048036036020811015620005ad57600080fd5b50356001600160a01b031662001822565b6001546001600160a01b031681565b620005d762000a15565b620005e157600080fd5b6001546040516001600160a01b038084169216907f5285571daf8fec74911d3c09de7cc58a1019dfc91b5ff26aa9973741a44dff3490600090a3600180546001600160a01b0319166001600160a01b0392909216919091179055565b6200064762000a15565b6200065157600080fd5b6005600060065481526020019081526020016000206000016040516020018082805460018160011615610100020316600290048015620006cb5780601f10620006a8576101008083540402835291820191620006cb565b820191906000526020600020905b815481529060010190602001808311620006b6575b50509150506040516020818303038152906040528051906020012087876040516020018083838082843780830192505050925050506040516020818303038152906040528051906020012014156200075f5760408051600160e51b62461bcd02815260206004820152600c6024820152600160a11b6b29b0b6b2903b32b939b4b7b702604482015290519081900360640190fd5b6006546000908152600560205260409020600101546001600160a01b0386811691161415620007ca5760408051600160e51b62461bcd02815260206004820152600c6024820152600160a11b6b29b0b6b2903b32b939b4b7b702604482015290519081900360640190fd5b6001600160a01b0385166200081e5760408051600160e51b62461bcd02815260206004820152600f6024820152600160881b6e496e76616c6964206164647265737302604482015290519081900360640190fd5b60048311620008775760408051600160e51b62461bcd02815260206004820152601660248201527f496e76616c696420496e697469616c697a6174696f6e00000000000000000000604482015290519081900360640190fd5b60048111620008c55760408051600160e51b62461bcd02815260206004820152600f6024820152600160881b6e496e76616c6964205570677261646502604482015290519081900360640190fd5b6006805460010190819055604080516020601f8a018190048102820181019092528881526200097a92918a908a908190840183828082843760009201919091525050604080516020601f8b018190048102820181019092528981528b93509150899089908190840183828082843760009201919091525050604080516020601f8b0181900481028201810190925289815292508991508890819084018382808284376000920191909152506200184492505050565b50505050505050565b6002546001600160a01b031681565b60065481565b620009a262000a15565b620009ac57600080fd5b600080546040516001600160a01b03909116907f8be0079c531659141344cd1fd0a4f28419497f9722a3daafe3b4186f6b6457e0908390a3600080546001600160a01b0319169055565b6003546001600160a01b031681565b6000546001600160a01b03165b90565b6000546001600160a01b0316331490565b3360009081526004602052604090205462000a8b5760408051600160e51b62461bcd02815260206004820152600d60248201527f496e76616c696420746f6b656e00000000000000000000000000000000000000604482015290519081900360640190fd5b3360009081526004602052604090205460065460019091019081111562000afc5760408051600160e51b62461bcd02815260206004820152601160248201527f496e636f72726563742076657273696f6e000000000000000000000000000000604482015290519081900360640190fd5b600081815260056020526040908190206001808201549251600160e01b63958a41dd0281526001600160a01b039093166024840181905260606004850190815283546002610100948216159490940260001901169290920460648501819052339463958a41dd94936003850192909182916044820191608401908790801562000bc95780601f1062000b9d5761010080835404028352916020019162000bc9565b820191906000526020600020905b81548152906001019060200180831162000bab57829003601f168201915b505083810382528454600260001961010060018416150201909116048082526020909101908590801562000c415780601f1062000c155761010080835404028352916020019162000c41565b820191906000526020600020905b81548152906001019060200180831162000c2357829003601f168201915b505095505050505050600060405180830381600087803b15801562000c6557600080fd5b505af115801562000c7a573d6000803e3d6000fd5b50503360009081526004602081815260408084208790556003548151600160e01b63bf40fac1028152938401839052600e60248501527f4d6f64756c655265676973747279000000000000000000000000000000000000604485015290519395506001600160a01b0316935063bf40fac192606480840193829003018186803b15801562000d0757600080fd5b505afa15801562000d1c573d6000803e3d6000fd5b505050506040513d602081101562000d3357600080fd5b5051905060008060015b8560ff168160ff161015620010435760408051600160e11b6356485a1102815260ff831660048201529051606091339163ac90b42291602480820192600092909190829003018186803b15801562000d9457600080fd5b505afa15801562000da9573d6000803e3d6000fd5b505050506040513d6000823e601f3d908101601f19168201604052602081101562000dd357600080fd5b810190808051600160201b81111562000deb57600080fd5b8201602081018481111562000dff57600080fd5b81518560208202830111600160201b8211171562000e1c57600080fd5b50909450600093505050505b81518110156200103857336001600160a01b031663b5de8d4c83838151811062000e4e57fe5b60200260200101516040518263ffffffff1660e01b815260040180826001600160a01b03166001600160a01b0316815260200191505060006040518083038186803b15801562000e9d57600080fd5b505afa15801562000eb2573d6000803e3d6000fd5b505050506040513d6000823e601f3d908101601f1916820160405260c081101562000edc57600080fd5b815160208301516040840151606085015160808601805194969395929491939283019291600160201b81111562000f1257600080fd5b8201602081018481111562000f2657600080fd5b81518560208202830111600160201b8211171562000f4357600080fd5b50959c50939a508a96506200102f955050505050505760408051600160e71b624474cb0281526001600160a01b03878116600483015233602483015291519188169163223a658091604480820192602092909190829003018186803b15801562000fac57600080fd5b505afa15801562000fc1573d6000803e3d6000fd5b505050506040513d602081101562000fd857600080fd5b50516200102f5760408051600160e51b62461bcd02815260206004820152601460248201527f496e636f6d70617469626c65204d6f64756c6573000000000000000000000000604482015290519081900360640190fd5b60010162000e28565b505060010162000d3d565b50604051849033907f25ca84076773b0455db53621c459ddc84fe40840e4932a62706a032566f399df90600090a35050505050565b600080620011398c8c8080601f016020809104026020016040519081016040528093929190818152602001838380828437600081840152601f19601f820116905080830192505050505050508b8b8080601f01602080910402602001604051908101604052809392919081815260200183838082843760009201919091525050604080516020601f8e018190048102820181019092528c81528e935091508c908c90819084018382808284376000920191909152508b925062001a6c915050565b6002549091506001600160a01b031615620012335760025460408051600160e21b632508a19b0281526001600160a01b03808516600483018190529251929363942df32593911691639422866c9160248083019260209291908290030181600087803b158015620011a957600080fd5b505af1158015620011be573d6000803e3d6000fd5b505050506040513d6020811015620011d557600080fd5b50516040805163ffffffff841660e01b81526001600160a01b03909216600483015251602480830192600092919082900301818387803b1580156200121957600080fd5b505af11580156200122e573d6000803e3d6000fd5b505050505b806001600160a01b031663537c1ac7846040518263ffffffff1660e01b815260040180826001600160a01b03166001600160a01b03168152602001915050600060405180830381600087803b1580156200128c57600080fd5b505af1158015620012a1573d6000803e3d6000fd5b50506001546001600160a01b03161591506200134790505760015460408051600160e21b632a7e1b8b0281526001600160a01b039283166004820152600060448201819052606482018190526084820181905260a0602483015260a4820181905291519284169263a9f86e2c9260e48084019391929182900301818387803b1580156200132d57600080fd5b505af115801562001342573d6000803e3d6000fd5b505050505b806001600160a01b031663f2fde38b866040518263ffffffff1660e01b815260040180826001600160a01b03166001600160a01b03168152602001915050600060405180830381600087803b158015620013a057600080fd5b505af1158015620013b5573d6000803e3d6000fd5b50929e9d5050505050505050505050505050565b620013d362000a15565b620013dd57600080fd5b6002546040516001600160a01b038084169216907f0b56bb326960ecf84a13756e1398f41e0f6e5ded132833101f65441f566fa37c90600090a3600280546001600160a01b0319166001600160a01b0392909216919091179055565b6200144362000a15565b6200144d57600080fd5b6006548811156200149d5760408051600160e51b62461bcd02815260206004820152600f6024820152600160881b6e496e76616c6964207570677261646502604482015290519081900360640190fd5b60008811620014eb5760408051600160e51b62461bcd02815260206004820152600f6024820152600160881b6e496e76616c6964207570677261646502604482015290519081900360640190fd5b600188111562001671576005600060018a0381526020019081526020016000206000016040516020018082805460018160011615610100020316600290048015620015705780601f106200154d57610100808354040283529182019162001570565b820191906000526020600020905b8154815290600101906020018083116200155b575b5050915050604051602081830303815290604052805190602001208787604051602001808383808284378083019250505092505050604051602081830303815290604052805190602001201415620016045760408051600160e51b62461bcd02815260206004820152600c6024820152600160a11b6b29b0b6b2903b32b939b4b7b702604482015290519081900360640190fd5b60001988016000908152600560205260409020600101546001600160a01b0386811691161415620016715760408051600160e51b62461bcd02815260206004820152600c6024820152600160a11b6b29b0b6b2903b32b939b4b7b702604482015290519081900360640190fd5b6001600160a01b038516620016c55760408051600160e51b62461bcd02815260206004820152600f6024820152600160881b6e496e76616c6964206164647265737302604482015290519081900360640190fd5b600483116200171e5760408051600160e51b62461bcd02815260206004820152601660248201527f496e76616c696420496e697469616c697a6174696f6e00000000000000000000604482015290519081900360640190fd5b600481116200176c5760408051600160e51b62461bcd02815260206004820152600f6024820152600160881b6e496e76616c6964205570677261646502604482015290519081900360640190fd5b620018188888888080601f01602080910402602001604051908101604052809392919081815260200183838082843760009201919091525050604080516020601f8b018190048102820181019092528981528b93509150899089908190840183828082843760009201919091525050604080516020601f8b0181900481028201810190925289815292508991508890819084018382808284376000920191909152506200184492505050565b5050505050505050565b6200182c62000a15565b6200183657600080fd5b620018418162001e76565b50565b60008581526005602090815260409091208551620018659287019062001ee5565b5060008581526005602090815260409091206001810180546001600160a01b0319166001600160a01b0387161790558251620018aa9260039092019184019062001ee5565b5060008581526005602090815260409091208351620018d29260029092019185019062001ee5565b507f4fc434dfefc5eedeea99194927c365b6caf396810f5fec02bbe5caa403a3482e84868585856040518080602001868152602001856001600160a01b03166001600160a01b031681526020018060200180602001848103845289818151815260200191508051906020019080838360005b838110156200195e57818101518382015260200162001944565b50505050905090810190601f1680156200198c5780820380516001836020036101000a031916815260200191505b50848103835286518152865160209182019188019080838360005b83811015620019c1578181015183820152602001620019a7565b50505050905090810190601f168015620019ef5780820380516001836020036101000a031916815260200191505b50848103825285518152855160209182019187019080838360005b8381101562001a2457818101518382015260200162001a0a565b50505050905090810190601f16801562001a525780820380516001836020036101000a031916815260200191505b509850505050505050505060405180910390a15050505050565b6000808686868562001a85578760ff16600a0a62001a88565b60015b60035460405189916001600160a01b03169062001aa59062001f6a565b60ff85166040820152606081018490526001600160a01b03821660a082015260c080825287519082015286518190602080830191608084019160e0850191908c019080838360005b8381101562001b0757818101518382015260200162001aed565b50505050905090810190601f16801562001b355780820380516001836020036101000a031916815260200191505b5084810383528951815289516020918201918b019080838360005b8381101562001b6a57818101518382015260200162001b50565b50505050905090810190601f16801562001b985780820380516001836020036101000a031916815260200191505b50848103825286518152865160209182019188019080838360005b8381101562001bcd57818101518382015260200162001bb3565b50505050905090810190601f16801562001bfb5780820380516001836020036101000a031916815260200191505b509950505050505050505050604051809103906000f08015801562001c24573d6000803e3d6000fd5b50600654600090815260056020526040908190206001808201548351600160e01b635a8b1a9f0281526001600160a01b0391821660248201819052600482019586528454600260001995821615610100029590950116939093046044820181905295965090861694635a8b1a9f949182916064909101908590801562001cee5780601f1062001cc25761010080835404028352916020019162001cee565b820191906000526020600020905b81548152906001019060200180831162001cd057829003601f168201915b50509350505050600060405180830381600087803b15801562001d1057600080fd5b505af115801562001d25573d6000803e3d6000fd5b505050506000816001600160a01b0316600560006006548152602001908152602001600020600201604051808280546001816001161561010002031660029004801562001dac5780601f1062001d8957610100808354040283529182019162001dac565b820191906000526020600020905b81548152906001019060200180831162001d97575b50509150506000604051808303816000865af19150503d806000811462001df0576040519150601f19603f3d011682016040523d82523d6000602084013e62001df5565b606091505b505090508062001e4f5760408051600160e51b62461bcd02815260206004820152601b60248201527f556e7375636365737366756c20696e697469616c697a6174696f6e0000000000604482015290519081900360640190fd5b506006546001600160a01b0382166000908152600460205260409020559695505050505050565b6001600160a01b03811662001e8a57600080fd5b600080546040516001600160a01b03808516939216917f8be0079c531659141344cd1fd0a4f28419497f9722a3daafe3b4186f6b6457e091a3600080546001600160a01b0319166001600160a01b0392909216919091179055565b828054600181600116156101000203166002900490600052602060002090601f016020900481019282601f1062001f2857805160ff191683800117855562001f58565b8280016001018555821562001f58579182015b8281111562001f5857825182559160200191906001019062001f3b565b5062001f6692915062001f78565b5090565b61149d8062001f9683390190565b62000a1291905b8082111562001f66576000815560010162001f7f56fe60806040526012805460ff199081169091556014805490911660011790553480156200002a57600080fd5b506040516200149d3803806200149d833981018060405260c08110156200005057600080fd5b8101908080516401000000008111156200006957600080fd5b820160208101848111156200007d57600080fd5b81516401000000008111828201871017156200009857600080fd5b50509291906020018051640100000000811115620000b557600080fd5b82016020810184811115620000c957600080fd5b8151640100000000811182820187101715620000e457600080fd5b505060208201516040830151606090930180519295919491926401000000008111156200011057600080fd5b820160208101848111156200012457600080fd5b81516401000000008111828201871017156200013f57600080fd5b505060209182015190935091506200015d9033906200025f811b901c565b6001600160a01b038116620001d357604080517f08c379a000000000000000000000000000000000000000000000000000000000815260206004820152600f60248201527f496e76616c696420416464726573730000000000000000000000000000000000604482015290519081900360640190fd5b8551620001e8906006906020890190620002f7565b508451620001fe906007906020880190620002f7565b506008805460ff191660ff8616179055600980546001600160a01b0319166001600160a01b03831617905581516200023e906011906020850190620002f7565b505050600f555050600480546001600160a01b03191633179055506200039c565b6001600160a01b038116620002d557604080517f08c379a000000000000000000000000000000000000000000000000000000000815260206004820152601860248201527f416464726573732073686f756c64206e6f742062652030780000000000000000604482015290519081900360640190fd5b602280546001600160a01b0319166001600160a01b0392909216919091179055565b828054600181600116156101000203166002900490600052602060002090601f016020900481019282601f106200033a57805160ff19168380011785556200036a565b828001600101855582156200036a579182015b828111156200036a5782518255916020019190600101906200034d565b50620003789291506200037c565b5090565b6200039991905b8082111562000378576000815560010162000383565b90565b6110f180620003ac6000396000f3fe60806040526004361061014b5760003560e01c80636faa22a5116100b6578063ce4dbdff1161006f578063ce4dbdff146104c7578063d6abe110146104dc578063e45b8134146104f1578063e77772fe14610506578063f1739cae1461051b578063f77c47911461054e5761014b565b80636faa22a51461038f57806377282b70146103a45780637a802c71146103b9578063958a41dd146103ce57806395d89b411461049d578063b95459e4146104b25761014b565b80635488cc80116101085780635488cc80146102a057806354fd4d50146102b5578063556f0dc7146102ca5780635a8b1a9f146102df5780635c60da1b14610365578063660d0d671461037a5761014b565b8063025313a21461015557806306fdde0314610186578063158ef93e146102105780631aab9a9f146102395780632fb3b99d14610260578063313ce56714610275575b610153610563565b005b34801561016157600080fd5b5061016a610575565b604080516001600160a01b039092168252519081900360200190f35b34801561019257600080fd5b5061019b6105b2565b6040805160208082528351818301528351919283929083019185019080838360005b838110156101d55781810151838201526020016101bd565b50505050905090810190601f1680156102025780820380516001836020036101000a031916815260200191505b509250505060405180910390f35b34801561021c57600080fd5b50610225610640565b604080519115158252519081900360200190f35b34801561024557600080fd5b5061024e610650565b60408051918252519081900360200190f35b34801561026c57600080fd5b5061016a610656565b34801561028157600080fd5b5061028a610665565b6040805160ff9092168252519081900360200190f35b3480156102ac57600080fd5b5061024e61066e565b3480156102c157600080fd5b5061019b610674565b3480156102d657600080fd5b5061024e610729565b3480156102eb57600080fd5b506101536004803603604081101561030257600080fd5b81019060208101813564010000000081111561031d57600080fd5b82018360208201111561032f57600080fd5b8035906020019184600183028401116401000000008311171561035157600080fd5b9193509150356001600160a01b031661072f565b34801561037157600080fd5b5061016a6107a3565b34801561038657600080fd5b5061016a6107ce565b34801561039b57600080fd5b5061016a6107dd565b3480156103b057600080fd5b5061016a6107ec565b3480156103c557600080fd5b506102256107fb565b610153600480360360608110156103e457600080fd5b8101906020810181356401000000008111156103ff57600080fd5b82018360208201111561041157600080fd5b8035906020019184600183028401116401000000008311171561043357600080fd5b919390926001600160a01b038335169260408101906020013564010000000081111561045e57600080fd5b82018360208201111561047057600080fd5b8035906020019184600183028401116401000000008311171561049257600080fd5b509092509050610804565b3480156104a957600080fd5b5061019b6108ae565b3480156104be57600080fd5b5061016a610909565b3480156104d357600080fd5b5061016a610918565b3480156104e857600080fd5b5061019b610927565b3480156104fd57600080fd5b50610225610982565b34801561051257600080fd5b5061016a610990565b34801561052757600080fd5b506101536004803603602081101561053e57600080fd5b50356001600160a01b031661099f565b34801561055a57600080fd5b5061016a610a82565b61057361056e610a96565b610aa5565b565b600061057f610ac9565b6001600160a01b0316336001600160a01b031614156105a7576105a0610ac9565b90506105af565b6105af610563565b90565b6006805460408051602060026001851615610100026000190190941693909304601f810184900484028201840190925281815292918301828280156106385780601f1061060d57610100808354040283529160200191610638565b820191906000526020600020905b81548152906001019060200180831161061b57829003601f168201915b505050505081565b600554600160a01b900460ff1681565b60135481565b600d546001600160a01b031681565b60085460ff1681565b60105481565b606061067e610ac9565b6001600160a01b0316336001600160a01b031614156105a7576020805460408051601f6002600019610100600187161502019094169390930492830184900484028101840190915281815291908282018282801561071d5780601f106106f25761010080835404028352916020019161071d565b820191906000526020600020905b81548152906001019060200180831161070057829003601f168201915b505050505090506105af565b600f5481565b610737610ac9565b6001600160a01b0316336001600160a01b031614156107965761079183838080601f016020809104026020016040519081016040528093929190818152602001838380828437600092019190915250859250610ad8915050565b61079e565b61079e610563565b505050565b60006107ad610ac9565b6001600160a01b0316336001600160a01b031614156105a7576105a0610a96565b600e546001600160a01b031681565b600c546001600160a01b031681565b6009546001600160a01b031681565b60125460ff1681565b61080c610ac9565b6001600160a01b0316336001600160a01b0316141561089f5761089a85858080601f01602080910402602001604051908101604052809392919081815260200183838082843760009201919091525050604080516020601f880181900481028201810190925286815288935091508690869081908401838280828437600092019190915250610dd292505050565b6108a7565b6108a7610563565b5050505050565b6007805460408051602060026001851615610100026000190190941693909304601f810184900484028201840190925281815292918301828280156106385780601f1061060d57610100808354040283529160200191610638565b600a546001600160a01b031681565b600b546001600160a01b031681565b6011805460408051602060026001851615610100026000190190941693909304601f810184900484028201840190925281815292918301828280156106385780601f1061060d57610100808354040283529160200191610638565b601254610100900460ff1681565b6005546001600160a01b031681565b6109a7610ac9565b6001600160a01b0316336001600160a01b03161415610a77576001600160a01b038116610a1e5760408051600160e51b62461bcd02815260206004820152601860248201527f416464726573732073686f756c64206e6f742062652030780000000000000000604482015290519081900360640190fd5b7f5a3e66efaa1e445ebd894728a69d6959842ea1e97bd79b892797106e270efcd9610a47610ac9565b604080516001600160a01b03928316815291841660208301528051918290030190a1610a7281610ecb565b610a7f565b610a7f610563565b50565b60085461010090046001600160a01b031681565b6021546001600160a01b031690565b3660008037600080366000845af43d6000803e808015610ac4573d6000f35b3d6000fd5b6022546001600160a01b031690565b6021546001600160a01b03828116911614801590610afe57506001600160a01b03811615155b610b3c57604051600160e51b62461bcd0281526004018080602001828103825260468152602001806110456046913960600191505060405180910390fd5b610b4581610f4b565b610b8357604051600160e51b62461bcd02815260040180806020018281038252603b81526020018061108b603b913960400191505060405180910390fd5b6000825111610bc657604051600160e51b62461bcd028152600401808060200182810382526022815260200180610fea6022913960400191505060405180910390fd5b816040516020018082805190602001908083835b60208310610bf95780518252601f199092019160209182019101610bda565b6001836020036101000a0380198251168184511680821785525050505050509050019150506040516020818303038152906040528051906020012060206040516020018082805460018160011615610100020316600290048015610c945780601f10610c72576101008083540402835291820191610c94565b820191906000526020600020905b815481529060010190602001808311610c80575b5050915050604051602081830303815290604052805190602001201415610d055760408051600160e51b62461bcd02815260206004820152601d60248201527f4e65772076657273696f6e20657175616c7320746f2063757272656e74000000604482015290519081900360640190fd5b8151610d179060209081850190610f51565b50602180546001600160a01b0319166001600160a01b03831690811790915560408051602080825285518183015285517f8e05e0e35ff592971ca8b477d4285a33a61ded208d644042667b78693a472f5e938793928392918301919085019080838360005b83811015610d94578181015183820152602001610d7c565b50505050905090810190601f168015610dc15780820380516001836020036101000a031916815260200191505b509250505060405180910390a25050565b610ddc8383610ad8565b6000306001600160a01b031634836040518082805190602001908083835b60208310610e195780518252601f199092019160209182019101610dfa565b6001836020036101000a03801982511681845116808217855250505050505090500191505060006040518083038185875af1925050503d8060008114610e7b576040519150601f19603f3d011682016040523d82523d6000602084013e610e80565b606091505b50508091505080610ec557604051600160e51b62461bcd02815260040180806020018281038252603981526020018061100c6039913960400191505060405180910390fd5b50505050565b6001600160a01b038116610f295760408051600160e51b62461bcd02815260206004820152601860248201527f416464726573732073686f756c64206e6f742062652030780000000000000000604482015290519081900360640190fd5b602280546001600160a01b0319166001600160a01b0392909216919091179055565b3b151590565b828054600181600116156101000203166002900490600052602060002090601f016020900481019282601f10610f9257805160ff1916838001178555610fbf565b82800160010185558215610fbf579182015b82811115610fbf578251825591602001919060010190610fa4565b50610fcb929150610fcf565b5090565b6105af91905b80821115610fcb5760008155600101610fd556fe56657273696f6e2073686f756c64206e6f7420626520656d70747920737472696e674661696c20696e20657865637574696e67207468652066756e6374696f6e206f6620696d706c656d656e746174696f6e20636f6e74726163744f6c642061646472657373206973206e6f7420616c6c6f77656420616e6420696d706c656d656e746174696f6e20616464726573732073686f756c64206e6f7420626520307843616e6e6f742073657420612070726f787920696d706c656d656e746174696f6e20746f2061206e6f6e2d636f6e74726163742061646472657373a165627a7a72305820c24e2defbc18a0d1081ce7a6a967c4dc6401669defa162555d1fb25fb7f7173e0029a165627a7a72305820401eff27a717cd78bc27c916d7e7b8a639faf5210fc1091f40ad85f3ce35e2d40029",
  "source": "pragma solidity 0.5.8;\r\n\r\nimport \"./SecurityTokenProxy.sol\";\r\nimport \"../proxy/OwnedUpgradeabilityProxy.sol\";\r\nimport \"../interfaces/ISTFactory.sol\";\r\nimport \"../interfaces/ISecurityToken.sol\";\r\nimport \"../interfaces/IPolymathRegistry.sol\";\r\nimport \"../interfaces/IOwnable.sol\";\r\nimport \"openzeppelin-solidity/contracts/ownership/Ownable.sol\";\r\nimport \"../interfaces/IModuleRegistry.sol\";\r\nimport \"../interfaces/IPolymathRegistry.sol\";\r\nimport \"../datastore/DataStoreFactory.sol\";\r\n\r\n/**\r\n * @title Proxy for deploying SecurityToken instances\r\n */\r\ncontract STFactory is ISTFactory, Ownable {\r\n\r\n    address public transferManagerFactory;\r\n    DataStoreFactory public dataStoreFactory;\r\n    IPolymathRegistry public polymathRegistry;\r\n\r\n    // Mapping from Security Token address to token upgrade version.\r\n    // A mapping to 0 means a token has not yet been deployed\r\n    mapping (address => uint256) tokenUpgrade;\r\n\r\n    struct LogicContract {\r\n        string version;\r\n        address logicContract;\r\n        bytes initializationData; // Called when first creating token\r\n        bytes upgradeData; // Called when upgrading token from previous version\r\n    }\r\n\r\n    mapping (uint256 => LogicContract) logicContracts;\r\n\r\n    uint256 public latestUpgrade;\r\n\r\n    event LogicContractSet(string _version, uint256 _upgrade, address _logicContract, bytes _initializationData, bytes _upgradeData);\r\n    event TokenUpgraded(\r\n        address indexed _securityToken,\r\n        uint256 indexed _version\r\n    );\r\n    event DefaultTransferManagerUpdated(address indexed _oldTransferManagerFactory, address indexed _newTransferManagerFactory);\r\n    event DefaultDataStoreUpdated(address indexed _oldDataStoreFactory, address indexed _newDataStoreFactory);\r\n\r\n    constructor(\r\n        address _polymathRegistry,\r\n        address _transferManagerFactory,\r\n        address _dataStoreFactory,\r\n        string memory _version,\r\n        address _logicContract,\r\n        bytes memory _initializationData\r\n    )\r\n        public\r\n    {\r\n        require(_logicContract != address(0), \"Invalid Address\");\r\n        require(_transferManagerFactory != address(0), \"Invalid Address\");\r\n        require(_dataStoreFactory != address(0), \"Invalid Address\");\r\n        require(_polymathRegistry != address(0), \"Invalid Address\");\r\n        require(_initializationData.length > 4, \"Invalid Initialization\");\r\n        transferManagerFactory = _transferManagerFactory;\r\n        dataStoreFactory = DataStoreFactory(_dataStoreFactory);\r\n        polymathRegistry = IPolymathRegistry(_polymathRegistry);\r\n\r\n        // Start at 1 so that we can distinguish deployed tokens in tokenUpgrade\r\n        latestUpgrade = 1;\r\n        logicContracts[latestUpgrade].logicContract = _logicContract;\r\n        logicContracts[latestUpgrade].initializationData = _initializationData;\r\n        logicContracts[latestUpgrade].version = _version;\r\n    }\r\n\r\n    /**\r\n     * @notice deploys the token and adds default modules like the GeneralTransferManager.\r\n     * Future versions of the proxy can attach different modules or pass different parameters.\r\n     */\r\n    function deployToken(\r\n        string calldata _name,\r\n        string calldata _symbol,\r\n        uint8 _decimals,\r\n        string calldata _tokenDetails,\r\n        address _issuer,\r\n        bool _divisible,\r\n        address _treasuryWallet\r\n    )\r\n        external\r\n        returns(address)\r\n    {\r\n        address securityToken = _deploy(\r\n            _name,\r\n            _symbol,\r\n            _decimals,\r\n            _tokenDetails,\r\n            _divisible\r\n        );\r\n        //NB When dataStore is generated, the security token address is automatically set via the constructor in DataStoreProxy.\r\n        if (address(dataStoreFactory) != address(0)) {\r\n            ISecurityToken(securityToken).changeDataStore(dataStoreFactory.generateDataStore(securityToken));\r\n        }\r\n        ISecurityToken(securityToken).changeTreasuryWallet(_treasuryWallet);\r\n        if (transferManagerFactory != address(0)) {\r\n            ISecurityToken(securityToken).addModule(transferManagerFactory, \"\", 0, 0, false);\r\n        }\r\n        IOwnable(securityToken).transferOwnership(_issuer);\r\n        return securityToken;\r\n    }\r\n\r\n    function _deploy(\r\n        string memory _name,\r\n        string memory _symbol,\r\n        uint8 _decimals,\r\n        string memory _tokenDetails,\r\n        bool _divisible\r\n    ) internal returns(address) {\r\n        // Creates proxy contract and sets some initial storage\r\n        SecurityTokenProxy proxy = new SecurityTokenProxy(\r\n            _name,\r\n            _symbol,\r\n            _decimals,\r\n            _divisible ? 1 : uint256(10) ** _decimals,\r\n            _tokenDetails,\r\n            address(polymathRegistry)\r\n        );\r\n        // Sets logic contract\r\n        proxy.upgradeTo(logicContracts[latestUpgrade].version, logicContracts[latestUpgrade].logicContract);\r\n        // Initialises security token contract - needed for functions that can only be called by the\r\n        // owner of the contract, or are specific to this particular logic contract (e.g. setting version)\r\n        (bool success, ) = address(proxy).call(logicContracts[latestUpgrade].initializationData);\r\n        require(success, \"Unsuccessful initialization\");\r\n        tokenUpgrade[address(proxy)] = latestUpgrade;\r\n        return address(proxy);\r\n    }\r\n\r\n    /**\r\n     * @notice Used to set a new token logic contract\r\n     * @param _version Version of upgraded module\r\n     * @param _logicContract Address of deployed module logic contract referenced from proxy\r\n     * @param _initializationData Initialization data that used to intialize value in the securityToken\r\n     * @param _upgradeData Data to be passed in call to upgradeToAndCall when a token upgrades its module\r\n     */\r\n    function setLogicContract(string calldata _version, address _logicContract, bytes calldata _initializationData, bytes calldata _upgradeData) external onlyOwner {\r\n        require(keccak256(abi.encodePacked(_version)) != keccak256(abi.encodePacked(logicContracts[latestUpgrade].version)), \"Same version\");\r\n        require(_logicContract != logicContracts[latestUpgrade].logicContract, \"Same version\");\r\n        require(_logicContract != address(0), \"Invalid address\");\r\n        require(_initializationData.length > 4, \"Invalid Initialization\");\r\n        require(_upgradeData.length > 4, \"Invalid Upgrade\");\r\n        latestUpgrade++;\r\n        _modifyLogicContract(latestUpgrade, _version, _logicContract, _initializationData, _upgradeData);\r\n    }\r\n\r\n    /**\r\n     * @notice Used to update an existing token logic contract\r\n     * @param _upgrade logic contract to upgrade\r\n     * @param _version Version of upgraded module\r\n     * @param _logicContract Address of deployed module logic contract referenced from proxy\r\n     * @param _upgradeData Data to be passed in call to upgradeToAndCall when a token upgrades its module\r\n     */\r\n    function updateLogicContract(uint256 _upgrade, string calldata _version, address _logicContract, bytes calldata _initializationData, bytes calldata _upgradeData) external onlyOwner {\r\n        require(_upgrade <= latestUpgrade, \"Invalid upgrade\");\r\n        require(_upgrade > 0, \"Invalid upgrade\");\r\n        // version & contract must differ from previous version, otherwise upgrade proxy will fail\r\n        if (_upgrade > 1) {\r\n          require(keccak256(abi.encodePacked(_version)) != keccak256(abi.encodePacked(logicContracts[_upgrade - 1].version)), \"Same version\");\r\n          require(_logicContract != logicContracts[_upgrade - 1].logicContract, \"Same version\");\r\n        }\r\n        require(_logicContract != address(0), \"Invalid address\");\r\n        require(_initializationData.length > 4, \"Invalid Initialization\");\r\n        require(_upgradeData.length > 4, \"Invalid Upgrade\");\r\n        _modifyLogicContract(_upgrade, _version, _logicContract, _initializationData, _upgradeData);\r\n    }\r\n\r\n    function _modifyLogicContract(uint256 _upgrade, string memory _version, address _logicContract, bytes memory _initializationData, bytes memory _upgradeData) internal {\r\n        logicContracts[_upgrade].version = _version;\r\n        logicContracts[_upgrade].logicContract = _logicContract;\r\n        logicContracts[_upgrade].upgradeData = _upgradeData;\r\n        logicContracts[_upgrade].initializationData = _initializationData;\r\n        emit LogicContractSet(_version, _upgrade, _logicContract, _initializationData, _upgradeData);\r\n    }\r\n    /**\r\n     * @notice Used to upgrade a token\r\n     * @param _maxModuleType maximum module type enumeration\r\n     */\r\n    function upgradeToken(uint8 _maxModuleType) external {\r\n        // Check the token was created by this factory\r\n        require(tokenUpgrade[msg.sender] != 0, \"Invalid token\");\r\n        uint256 newVersion = tokenUpgrade[msg.sender] + 1;\r\n        require(newVersion <= latestUpgrade, \"Incorrect version\");\r\n        OwnedUpgradeabilityProxy(address(uint160(msg.sender))).upgradeToAndCall(logicContracts[newVersion].version, logicContracts[newVersion].logicContract, logicContracts[newVersion].upgradeData);\r\n        tokenUpgrade[msg.sender] = newVersion;\r\n        // Check that all modules remain valid\r\n        IModuleRegistry moduleRegistry = IModuleRegistry(polymathRegistry.getAddress(\"ModuleRegistry\"));\r\n        address moduleFactory;\r\n        bool isArchived;\r\n        for (uint8 i = 1; i < _maxModuleType; i++) {\r\n            address[] memory modules = ISecurityToken(msg.sender).getModulesByType(i);\r\n            for (uint256 j = 0; j < modules.length; j++) {\r\n                (,, moduleFactory, isArchived,,) = ISecurityToken(msg.sender).getModule(modules[j]);\r\n                if (!isArchived) {\r\n                    require(moduleRegistry.isCompatibleModule(moduleFactory, msg.sender), \"Incompatible Modules\");\r\n                }\r\n            }\r\n        }\r\n        emit TokenUpgraded(msg.sender, newVersion);\r\n    }\r\n\r\n    /**\r\n     * @notice Used to set a new default transfer manager\r\n     * @dev Setting this to address(0) means don't deploy a default TM\r\n     * @param _transferManagerFactory Address of new default transfer manager factory\r\n     */\r\n    function updateDefaultTransferManager(address _transferManagerFactory) external onlyOwner {\r\n        // NB - setting this to address(0) means don't deploy a default TM\r\n        emit DefaultTransferManagerUpdated(transferManagerFactory, _transferManagerFactory);\r\n        transferManagerFactory = _transferManagerFactory;\r\n    }\r\n\r\n    /**\r\n     * @notice Used to set a new default data store\r\n     * @dev Setting this to address(0) means don't deploy a default data store\r\n     * @param _dataStoreFactory Address of new default data store factory\r\n     */\r\n    function updateDefaultDataStore(address _dataStoreFactory) external onlyOwner {\r\n        // NB - setting this to address(0) means don't deploy a default TM\r\n        emit DefaultDataStoreUpdated(address(dataStoreFactory), address(_dataStoreFactory));\r\n        dataStoreFactory = DataStoreFactory(_dataStoreFactory);\r\n    }\r\n\r\n}\r\n",
  "sourcePath": "C:/mspace/polymath-core/contracts/tokens/STFactory.sol",
  "compiler": {
    "name": "solc",
    "version": "0.5.8+commit.23d335f2.Emscripten.clang"
  },
  "schemaVersion": "3.0.11",
  "updatedAt": "2019-08-05T22:53:44.874Z",
  "devdoc": {
    "methods": {
      "isOwner()": {
        "return": "true if `msg.sender` is the owner of the contract."
      },
      "owner()": {
        "return": "the address of the owner."
      },
      "renounceOwnership()": {
        "details": "Allows the current owner to relinquish control of the contract. It will not be possible to call the functions with the `onlyOwner` modifier anymore."
      },
      "setLogicContract(string,address,bytes,bytes)": {
        "params": {
          "_initializationData": "Initialization data that used to intialize value in the securityToken\r",
          "_logicContract": "Address of deployed module logic contract referenced from proxy\r",
          "_upgradeData": "Data to be passed in call to upgradeToAndCall when a token upgrades its module\r",
          "_version": "Version of upgraded module\r"
        }
      },
      "transferOwnership(address)": {
        "details": "Allows the current owner to transfer control of the contract to a newOwner.",
        "params": {
          "newOwner": "The address to transfer ownership to."
        }
      },
      "updateDefaultDataStore(address)": {
        "details": "Setting this to address(0) means don't deploy a default data store\r",
        "params": {
          "_dataStoreFactory": "Address of new default data store factory\r"
        }
      },
      "updateDefaultTransferManager(address)": {
        "details": "Setting this to address(0) means don't deploy a default TM\r",
        "params": {
          "_transferManagerFactory": "Address of new default transfer manager factory\r"
        }
      },
      "updateLogicContract(uint256,string,address,bytes,bytes)": {
        "params": {
          "_logicContract": "Address of deployed module logic contract referenced from proxy\r",
          "_upgrade": "logic contract to upgrade\r",
          "_upgradeData": "Data to be passed in call to upgradeToAndCall when a token upgrades its module\r",
          "_version": "Version of upgraded module\r"
        }
      },
      "upgradeToken(uint8)": {
        "params": {
          "_maxModuleType": "maximum module type enumeration\r"
        }
      }
    },
    "title": "Proxy for deploying SecurityToken instances\r"
  },
  "userdoc": {
    "methods": {
      "deployToken(string,string,uint8,string,address,bool,address)": {
        "notice": "deploys the token and adds default modules like the GeneralTransferManager.\r Future versions of the proxy can attach different modules or pass different parameters.\r"
      },
      "renounceOwnership()": {
        "notice": "Renouncing ownership will leave the contract without an owner, thereby removing any functionality that is only available to the owner."
      },
      "setLogicContract(string,address,bytes,bytes)": {
        "notice": "Used to set a new token logic contract\r"
      },
      "updateDefaultDataStore(address)": {
        "notice": "Used to set a new default data store\r"
      },
      "updateDefaultTransferManager(address)": {
        "notice": "Used to set a new default transfer manager\r"
      },
      "updateLogicContract(uint256,string,address,bytes,bytes)": {
        "notice": "Used to update an existing token logic contract\r"
      },
      "upgradeToken(uint8)": {
        "notice": "Used to upgrade a token\r"
      }
    }
  }
}