{
  "contractName": "STGetter",
  "abi": [
    {
      "constant": true,
      "inputs": [],
      "name": "name",
      "outputs": [
        {
          "name": "",
          "type": "string"
        }
      ],
      "payable": false,
      "stateMutability": "view",
      "type": "function"
    },
    {
      "constant": true,
      "inputs": [],
      "name": "initialized",
      "outputs": [
        {
          "name": "",
          "type": "bool"
        }
      ],
      "payable": false,
      "stateMutability": "view",
      "type": "function"
    },
    {
      "constant": true,
      "inputs": [],
      "name": "holderCount",
      "outputs": [
        {
          "name": "",
          "type": "uint256"
        }
      ],
      "payable": false,
      "stateMutability": "view",
      "type": "function"
    },
    {
      "constant": true,
      "inputs": [],
      "name": "getterDelegate",
      "outputs": [
        {
          "name": "",
          "type": "address"
        }
      ],
      "payable": false,
      "stateMutability": "view",
      "type": "function"
    },
    {
      "constant": true,
      "inputs": [],
      "name": "decimals",
      "outputs": [
        {
          "name": "",
          "type": "uint8"
        }
      ],
      "payable": false,
      "stateMutability": "view",
      "type": "function"
    },
    {
      "constant": true,
      "inputs": [],
      "name": "currentCheckpointId",
      "outputs": [
        {
          "name": "",
          "type": "uint256"
        }
      ],
      "payable": false,
      "stateMutability": "view",
      "type": "function"
    },
    {
      "constant": true,
      "inputs": [],
      "name": "granularity",
      "outputs": [
        {
          "name": "",
          "type": "uint256"
        }
      ],
      "payable": false,
      "stateMutability": "view",
      "type": "function"
    },
    {
      "constant": true,
      "inputs": [],
      "name": "dataStore",
      "outputs": [
        {
          "name": "",
          "type": "address"
        }
      ],
      "payable": false,
      "stateMutability": "view",
      "type": "function"
    },
    {
      "constant": true,
      "inputs": [],
      "name": "polyToken",
      "outputs": [
        {
          "name": "",
          "type": "address"
        }
      ],
      "payable": false,
      "stateMutability": "view",
      "type": "function"
    },
    {
      "constant": true,
      "inputs": [],
      "name": "polymathRegistry",
      "outputs": [
        {
          "name": "",
          "type": "address"
        }
      ],
      "payable": false,
      "stateMutability": "view",
      "type": "function"
    },
    {
      "constant": true,
      "inputs": [],
      "name": "controllerDisabled",
      "outputs": [
        {
          "name": "",
          "type": "bool"
        }
      ],
      "payable": false,
      "stateMutability": "view",
      "type": "function"
    },
    {
      "constant": true,
      "inputs": [],
      "name": "symbol",
      "outputs": [
        {
          "name": "",
          "type": "string"
        }
      ],
      "payable": false,
      "stateMutability": "view",
      "type": "function"
    },
    {
      "constant": true,
      "inputs": [],
      "name": "moduleRegistry",
      "outputs": [
        {
          "name": "",
          "type": "address"
        }
      ],
      "payable": false,
      "stateMutability": "view",
      "type": "function"
    },
    {
      "constant": true,
      "inputs": [],
      "name": "securityTokenRegistry",
      "outputs": [
        {
          "name": "",
          "type": "address"
        }
      ],
      "payable": false,
      "stateMutability": "view",
      "type": "function"
    },
    {
      "constant": true,
      "inputs": [],
      "name": "tokenDetails",
      "outputs": [
        {
          "name": "",
          "type": "string"
        }
      ],
      "payable": false,
      "stateMutability": "view",
      "type": "function"
    },
    {
      "constant": true,
      "inputs": [],
      "name": "transfersFrozen",
      "outputs": [
        {
          "name": "",
          "type": "bool"
        }
      ],
      "payable": false,
      "stateMutability": "view",
      "type": "function"
    },
    {
      "constant": true,
      "inputs": [],
      "name": "tokenFactory",
      "outputs": [
        {
          "name": "",
          "type": "address"
        }
      ],
      "payable": false,
      "stateMutability": "view",
      "type": "function"
    },
    {
      "constant": true,
      "inputs": [],
      "name": "controller",
      "outputs": [
        {
          "name": "",
          "type": "address"
        }
      ],
      "payable": false,
      "stateMutability": "view",
      "type": "function"
    },
    {
      "constant": true,
      "inputs": [],
      "name": "isIssuable",
      "outputs": [
        {
          "name": "",
          "type": "bool"
        }
      ],
      "payable": false,
      "stateMutability": "view",
      "type": "function"
    },
    {
      "constant": true,
      "inputs": [],
      "name": "getCheckpointTimes",
      "outputs": [
        {
          "name": "",
          "type": "uint256[]"
        }
      ],
      "payable": false,
      "stateMutability": "view",
      "type": "function"
    },
    {
      "constant": true,
      "inputs": [],
      "name": "getInvestorCount",
      "outputs": [
        {
          "name": "",
          "type": "uint256"
        }
      ],
      "payable": false,
      "stateMutability": "view",
      "type": "function"
    },
    {
      "constant": true,
      "inputs": [],
      "name": "getInvestors",
      "outputs": [
        {
          "name": "investors",
          "type": "address[]"
        }
      ],
      "payable": false,
      "stateMutability": "view",
      "type": "function"
    },
    {
      "constant": true,
      "inputs": [
        {
          "name": "_checkpointId",
          "type": "uint256"
        }
      ],
      "name": "getInvestorsAt",
      "outputs": [
        {
          "name": "",
          "type": "address[]"
        }
      ],
      "payable": false,
      "stateMutability": "view",
      "type": "function"
    },
    {
      "constant": true,
      "inputs": [
        {
          "name": "_checkpointId",
          "type": "uint256"
        },
        {
          "name": "_start",
          "type": "uint256"
        },
        {
          "name": "_end",
          "type": "uint256"
        }
      ],
      "name": "getInvestorsSubsetAt",
      "outputs": [
        {
          "name": "",
          "type": "address[]"
        }
      ],
      "payable": false,
      "stateMutability": "view",
      "type": "function"
    },
    {
      "constant": true,
      "inputs": [
        {
          "name": "_module",
          "type": "address"
        }
      ],
      "name": "getModule",
      "outputs": [
        {
          "name": "",
          "type": "bytes32"
        },
        {
          "name": "",
          "type": "address"
        },
        {
          "name": "",
          "type": "address"
        },
        {
          "name": "",
          "type": "bool"
        },
        {
          "name": "",
          "type": "uint8[]"
        },
        {
          "name": "",
          "type": "bytes32"
        }
      ],
      "payable": false,
      "stateMutability": "view",
      "type": "function"
    },
    {
      "constant": true,
      "inputs": [
        {
          "name": "_name",
          "type": "bytes32"
        }
      ],
      "name": "getModulesByName",
      "outputs": [
        {
          "name": "",
          "type": "address[]"
        }
      ],
      "payable": false,
      "stateMutability": "view",
      "type": "function"
    },
    {
      "constant": true,
      "inputs": [
        {
          "name": "_type",
          "type": "uint8"
        }
      ],
      "name": "getModulesByType",
      "outputs": [
        {
          "name": "",
          "type": "address[]"
        }
      ],
      "payable": false,
      "stateMutability": "view",
      "type": "function"
    },
    {
      "constant": true,
      "inputs": [],
      "name": "getTreasuryWallet",
      "outputs": [
        {
          "name": "",
          "type": "address"
        }
      ],
      "payable": false,
      "stateMutability": "view",
      "type": "function"
    },
    {
      "constant": true,
      "inputs": [
        {
          "name": "_investor",
          "type": "address"
        },
        {
          "name": "_checkpointId",
          "type": "uint256"
        }
      ],
      "name": "balanceOfAt",
      "outputs": [
        {
          "name": "",
          "type": "uint256"
        }
      ],
      "payable": false,
      "stateMutability": "view",
      "type": "function"
    },
    {
      "constant": true,
      "inputs": [
        {
          "name": "_checkpointId",
          "type": "uint256"
        }
      ],
      "name": "totalSupplyAt",
      "outputs": [
        {
          "name": "",
          "type": "uint256"
        }
      ],
      "payable": false,
      "stateMutability": "view",
      "type": "function"
    },
    {
      "constant": true,
      "inputs": [
        {
          "name": "_start",
          "type": "uint256"
        },
        {
          "name": "_end",
          "type": "uint256"
        }
      ],
      "name": "iterateInvestors",
      "outputs": [
        {
          "name": "",
          "type": "address[]"
        }
      ],
      "payable": false,
      "stateMutability": "view",
      "type": "function"
    },
    {
      "constant": true,
      "inputs": [
        {
          "name": "_delegate",
          "type": "address"
        },
        {
          "name": "_module",
          "type": "address"
        },
        {
          "name": "_perm",
          "type": "bytes32"
        }
      ],
      "name": "checkPermission",
      "outputs": [
        {
          "name": "",
          "type": "bool"
        }
      ],
      "payable": false,
      "stateMutability": "view",
      "type": "function"
    },
    {
      "constant": true,
      "inputs": [
        {
          "name": "_operator",
          "type": "address"
        },
        {
          "name": "_tokenHolder",
          "type": "address"
        }
      ],
      "name": "isOperator",
      "outputs": [
        {
          "name": "",
          "type": "bool"
        }
      ],
      "payable": false,
      "stateMutability": "view",
      "type": "function"
    },
    {
      "constant": true,
      "inputs": [
        {
          "name": "_partition",
          "type": "bytes32"
        },
        {
          "name": "_operator",
          "type": "address"
        },
        {
          "name": "_tokenHolder",
          "type": "address"
        }
      ],
      "name": "isOperatorForPartition",
      "outputs": [
        {
          "name": "",
          "type": "bool"
        }
      ],
      "payable": false,
      "stateMutability": "view",
      "type": "function"
    },
    {
      "constant": true,
      "inputs": [
        {
          "name": "",
          "type": "address"
        }
      ],
      "name": "partitionsOf",
      "outputs": [
        {
          "name": "",
          "type": "bytes32[]"
        }
      ],
      "payable": false,
      "stateMutability": "pure",
      "type": "function"
    },
    {
      "constant": true,
      "inputs": [],
      "name": "getVersion",
      "outputs": [
        {
          "name": "",
          "type": "uint8[]"
        }
      ],
      "payable": false,
      "stateMutability": "view",
      "type": "function"
    },
    {
      "constant": true,
      "inputs": [
        {
          "name": "_name",
          "type": "bytes32"
        }
      ],
      "name": "getDocument",
      "outputs": [
        {
          "name": "",
          "type": "string"
        },
        {
          "name": "",
          "type": "bytes32"
        },
        {
          "name": "",
          "type": "uint256"
        }
      ],
      "payable": false,
      "stateMutability": "view",
      "type": "function"
    },
    {
      "constant": true,
      "inputs": [],
      "name": "getAllDocuments",
      "outputs": [
        {
          "name": "",
          "type": "bytes32[]"
        }
      ],
      "payable": false,
      "stateMutability": "view",
      "type": "function"
    }
  ],
  "bytecode": "0x60806040526012805460ff1990811690915560148054909116600117905534801561002957600080fd5b50611809806100396000396000f3fe608060405234801561001057600080fd5b50600436106102325760003560e01c806377282b7011610130578063b10d6b41116100b8578063ce4dbdff1161007c578063ce4dbdff14610709578063d6abe11014610711578063e45b813414610719578063e77772fe14610721578063f77c47911461072957610232565b8063b10d6b4114610563578063b2f5a54c14610606578063b5de8d4c1461060e578063b6363cf2146106d3578063b95459e41461070157610232565b8063960524e3116100ff578063960524e3146104ed578063981b24d0146104f55780639fa5f50b14610512578063abe191c11461051a578063ac90b4221461054357610232565b806377282b701461049f5780637a802c71146104a75780638658b8b9146104af57806395d89b41146104e557610232565b80633f553586116101be578063660d0d6711610182578063660d0d67146104185780636d77cad6146104205780636faa22a514610454578063740ab8f41461045c578063764387bd1461048257610232565b80633f553586146103b75780634c6041d3146103d45780634ee2cd7e146103dc5780635488cc8014610408578063556f0dc71461041057610232565b80632c035b74116102055780632c035b74146103425780632f1cae85146103665780632fb3b99d1461036e5780633052eed814610376578063313ce5671461039957610232565b806306fdde03146102375780630d8e6e2c146102b4578063158ef93e1461030c5780631aab9a9f14610328575b600080fd5b61023f610731565b6040805160208082528351818301528351919283929083019185019080838360005b83811015610279578181015183820152602001610261565b50505050905090810190601f1680156102a65780820380516001836020036101000a031916815260200191505b509250505060405180910390f35b6102bc6107bf565b60408051602080825283518183015283519192839290830191858101910280838360005b838110156102f85781810151838201526020016102e0565b505050509050019250505060405180910390f35b610314610868565b604080519115158252519081900360200190f35b610330610878565b60408051918252519081900360200190f35b61034a61087e565b604080516001600160a01b039092168252519081900360200190f35b61031461091d565b61034a610926565b6102bc6004803603604081101561038c57600080fd5b5080359060200135610935565b6103a1610a2f565b6040805160ff9092168252519081900360200190f35b6102bc600480360360208110156103cd57600080fd5b5035610a38565b6102bc610c5e565b610330600480360360408110156103f257600080fd5b506001600160a01b038135169060200135610cb6565b610330610d7a565b610330610d80565b61034a610d86565b6103146004803603606081101561043657600080fd5b508035906001600160a01b0360208201358116916040013516610d95565b61034a610dce565b6102bc6004803603602081101561047257600080fd5b50356001600160a01b0316610ddd565b6102bc6004803603602081101561049857600080fd5b5035610e54565b61034a610ec0565b610314610ecf565b610314600480360360608110156104c557600080fd5b506001600160a01b03813581169160208101359091169060400135610ed8565b61023f61106e565b6103306110c9565b6103306004803603602081101561050b57600080fd5b5035611125565b6102bc611149565b6102bc6004803603606081101561053057600080fd5b508035906020810135906040013561119f565b6102bc6004803603602081101561055957600080fd5b503560ff166113d5565b6105806004803603602081101561057957600080fd5b5035611443565b6040518080602001848152602001838152602001828103825285818151815260200191508051906020019080838360005b838110156105c95781810151838201526020016105b1565b50505050905090810190601f1680156105f65780820380516001836020036101000a031916815260200191505b5094505050505060405180910390f35b6102bc6114f9565b6106346004803603602081101561062457600080fd5b50356001600160a01b03166115e3565b60405180878152602001866001600160a01b03166001600160a01b03168152602001856001600160a01b03166001600160a01b031681526020018415151515815260200180602001838152602001828103825284818151815260200191508051906020019060200280838360005b838110156106ba5781810151838201526020016106a2565b5050505090500197505050505050505060405180910390f35b610314600480360360408110156106e957600080fd5b506001600160a01b03813581169160200135166116b6565b61034a6116cd565b61034a6116dc565b61023f6116eb565b610314611746565b61034a611754565b61034a611763565b6006805460408051602060026001851615610100026000190190941693909304601f810184900484028201840190925281815292918301828280156107b75780601f1061078c576101008083540402835291602001916107b7565b820191906000526020600020905b81548152906001019060200180831161079a57829003601f168201915b505050505081565b604080516003808252608082019092526060918291906020820183803883395050601754825192935060ff16918391506000906107f857fe5b60ff92831660209182029290920101526017548251610100909104909116908290600190811061082457fe5b60ff9283166020918202929092010152601754825162010000909104909116908290600290811061085157fe5b60ff90921660209283029190910190910152905090565b600554600160a01b900460ff1681565b60135481565b600e5460408051600160e01b6321f8a7210281527faae8817359f3dcb67d050f44f3e49f982e0359d90ca4b5f18569926304aaece6600482015290516000926001600160a01b0316916321f8a721916024808301926020929190829003018186803b1580156108ec57600080fd5b505afa158015610900573d6000803e3d6000fd5b505050506040513d602081101561091657600080fd5b5051905090565b60145460ff1690565b600d546001600160a01b031681565b600e5460408051600160e51b630755f5e70281526000805160206117be8339815191526004820152602481018590526044810184905290516060926001600160a01b03169163eabebce0916064808301926000929190829003018186803b15801561099f57600080fd5b505afa1580156109b3573d6000803e3d6000fd5b505050506040513d6000823e601f3d908101601f1916820160405260208110156109dc57600080fd5b810190808051600160201b8111156109f357600080fd5b82016020810184811115610a0657600080fd5b81518560208202830111600160201b82111715610a2257600080fd5b5090979650505050505050565b60085460ff1681565b600e5460408051600160e01b635948f7330281526000805160206117be83398151915260048201529051606092600092839285926001600160a01b031691635948f7339160248083019287929190829003018186803b158015610a9a57600080fd5b505afa158015610aae573d6000803e3d6000fd5b505050506040513d6000823e601f3d908101601f191682016040526020811015610ad757600080fd5b810190808051600160201b811115610aee57600080fd5b82016020810184811115610b0157600080fd5b81518560208202830111600160201b82111715610b1d57600080fd5b5060009650909450505050505b8051821015610b9d576000610b52828481518110610b4457fe5b602002602001015187610cb6565b1115610b6357600190920191610b92565b6000818381518110610b7157fe5b60200260200101906001600160a01b031690816001600160a01b0316815250505b600190910190610b2a565b606083604051908082528060200260200182016040528015610bc9578160200160208202803883390190505b50905060009350600092505b8151831015610c555760006001600160a01b0316828481518110610bf557fe5b60200260200101516001600160a01b031614610c4a57818381518110610c1757fe5b6020026020010151818581518110610c2b57fe5b6001600160a01b03909216602092830291909101909101526001909301925b600190920191610bd5565b95945050505050565b60606016805480602002602001604051908101604052809291908181526020018280548015610cac57602002820191906000526020600020905b815481526020019060010190808311610c98575b5050505050905090565b6000601054821115610cc757600080fd5b6001600160a01b0383166000908152601c6020526040902073__TokenLib______________________________9063cc90f5de9084610d0587611777565b6040518463ffffffff1660e01b815260040180848152602001838152602001828152602001935050505060206040518083038186803b158015610d4757600080fd5b505af4158015610d5b573d6000803e3d6000fd5b505050506040513d6020811015610d7157600080fd5b50519392505050565b60105481565b600f5481565b600e546001600160a01b031681565b6001600160a01b038082166000908152601f6020908152604080832087845282528083209386168352929052205460ff165b9392505050565b600c546001600160a01b031681565b604080516002808252606080830184529283929190602083019080388339019050509050600160c21b6715539313d0d2d1510281600081518110610e1d57fe5b602002602001018181525050600160d21b651313d0d2d1510281600181518110610e4357fe5b602090810291909101015292915050565b6000818152601a6020908152604091829020805483518184028101840190945280845260609392830182828015610eb457602002820191906000526020600020905b81546001600160a01b03168152600190910190602001808311610e96575b50505050509050919050565b6009546001600160a01b031681565b60125460ff1681565b6000805b600160005260186020527ff3794665d3af9b6fb6f858b70185898134f96768ef31c325d52e04f0ac195a4d54811015611063576001600090815260186020527ff3794665d3af9b6fb6f858b70185898134f96768ef31c325d52e04f0ac195a4d8054601992919084908110610f4d57fe5b60009182526020808320909101546001600160a01b0316835282019290925260400190206002015460ff600160a01b9091041661105b57600160005260186020527ff3794665d3af9b6fb6f858b70185898134f96768ef31c325d52e04f0ac195a4d805482908110610fbb57fe5b6000918252602091829020015460408051600160e01b638658b8b90281526001600160a01b03898116600483015288811660248301526044820188905291519190921692638658b8b99260648082019391829003018186803b15801561102057600080fd5b505afa158015611034573d6000803e3d6000fd5b505050506040513d602081101561104a57600080fd5b50511561105b576001915050610dc7565b600101610edc565b506000949350505050565b6007805460408051602060026001851615610100026000190190941693909304601f810184900484028201840190925281815292918301828280156107b75780601f1061078c576101008083540402835291602001916107b7565b600e5460408051600160e11b6317e4a5d30281526000805160206117be833981519152600482015290516000926001600160a01b031691632fc94ba6916024808301926020929190829003018186803b1580156108ec57600080fd5b600060105482111561113657600080fd5b506000908152601b602052604090205490565b60606015805480602002602001604051908101604052809291908181526020018280548015610cac5760200282019190600052602060002090815481526020019060010190808311610c98575050505050905090565b600e5460408051600160e51b630755f5e70281526000805160206117be833981519152600482015260248101859052604481018490529051606092600092839285926001600160a01b03169163eabebce09160648083019287929190829003018186803b15801561120f57600080fd5b505afa158015611223573d6000803e3d6000fd5b505050506040513d6000823e601f3d908101601f19168201604052602081101561124c57600080fd5b810190808051600160201b81111561126357600080fd5b8201602081018481111561127657600080fd5b81518560208202830111600160201b8211171561129257600080fd5b5060009650909450505050505b80518210156113125760006112c78284815181106112b957fe5b602002602001015189610cb6565b11156112d857600190920191611307565b60008183815181106112e657fe5b60200260200101906001600160a01b031690816001600160a01b0316815250505b60019091019061129f565b60608360405190808252806020026020018201604052801561133e578160200160208202803883390190505b50905060009350600092505b81518310156113ca5760006001600160a01b031682848151811061136a57fe5b60200260200101516001600160a01b0316146113bf5781838151811061138c57fe5b60200260200101518185815181106113a057fe5b6001600160a01b03909216602092830291909101909101526001909301925b60019092019161134a565b979650505050505050565b60ff8116600090815260186020908152604091829020805483518184028101840190945280845260609392830182828015610eb4576020028201919060005260206000209081546001600160a01b03168152600190910190602001808311610e965750505050509050919050565b6000818152601d6020908152604080832080546001808301546002938401805486519381161561010002600019011694909404601f810187900487028301870190955284825260609695869591929185918301828280156114e55780601f106114ba576101008083540402835291602001916114e5565b820191906000526020600020905b8154815290600101906020018083116114c857829003601f168201915b505050505092509250925092509193909250565b600e5460408051600160e01b635948f7330281526000805160206117be833981519152600482015290516060926001600160a01b031691635948f733916024808301926000929190829003018186803b15801561155557600080fd5b505afa158015611569573d6000803e3d6000fd5b505050506040513d6000823e601f3d908101601f19168201604052602081101561159257600080fd5b810190808051600160201b8111156115a957600080fd5b820160208101848111156115bc57600080fd5b81518560208202830111600160201b821117156115d857600080fd5b509095945050505050565b6001600160a01b03818116600090815260196020908152604080832080546001820154600283015460068401546003909401805486518189028101890190975280875297988998899889986060988a989785169694851695600160a01b90950460ff169493909284919083018282801561169a57602002820191906000526020600020906000905b825461010083900a900460ff1681526020600192830181810494850194909303909202910180841161166b5790505b5050505050915095509550955095509550955091939550919395565b60006000196116c58385611792565b149392505050565b600a546001600160a01b031681565b600b546001600160a01b031681565b6011805460408051602060026001851615610100026000190190941693909304601f810184900484028201840190925281815292918301828280156107b75780601f1061078c576101008083540402835291602001916107b7565b601254610100900460ff1681565b6005546001600160a01b031681565b60085461010090046001600160a01b031681565b6001600160a01b031660009081526020819052604090205490565b6001600160a01b0391821660009081526001602090815260408083209390941682529190915220549056fedf3a8dd24acdd05addfc6aeffef7574d2de3f844535ec91e8e0f3e45dba96731a165627a7a7230582004d620794660365d43f7637a437e71a6499f00c606d9ede42b8665e6ccf1a5760029",
  "source": "pragma solidity 0.5.8;\r\n\r\nimport \"./OZStorage.sol\";\r\nimport \"./SecurityTokenStorage.sol\";\r\nimport \"../libraries/TokenLib.sol\";\r\nimport \"openzeppelin-solidity/contracts/math/SafeMath.sol\";\r\nimport \"../modules/PermissionManager/IPermissionManager.sol\";\r\n\r\ncontract STGetter is OZStorage, SecurityTokenStorage {\r\n\r\n    using SafeMath for uint256;\r\n\r\n    /**\r\n     * @notice A security token issuer can specify that issuance has finished for the token\r\n     * (i.e. no new tokens can be minted or issued).\r\n     * @dev If a token returns FALSE for `isIssuable()` then it MUST always return FALSE in the future.\r\n     * If a token returns FALSE for `isIssuable()` then it MUST never allow additional tokens to be issued.\r\n     * @return bool `true` signifies the minting is allowed. While `false` denotes the end of minting\r\n     */\r\n    function isIssuable() external view returns (bool) {\r\n        return issuance;\r\n    }\r\n\r\n    /**\r\n     * @notice Gets list of times that checkpoints were created\r\n     * @return List of checkpoint times\r\n     */\r\n    function getCheckpointTimes() external view returns(uint256[] memory) {\r\n        return checkpointTimes;\r\n    }\r\n\r\n    /**\r\n     * @notice Returns the count of address that were added as (potential) investors\r\n     * @return Investor count\r\n     */\r\n    function getInvestorCount() external view returns(uint256) {\r\n        return dataStore.getAddressArrayLength(INVESTORSKEY);\r\n    }\r\n\r\n    /**\r\n     * @notice returns an array of investors\r\n     * NB - this length may differ from investorCount as it contains all investors that ever held tokens\r\n     * @return list of addresses\r\n     */\r\n    function getInvestors() public view returns(address[] memory investors) {\r\n        investors = dataStore.getAddressArray(INVESTORSKEY);\r\n    }\r\n\r\n    /**\r\n     * @notice returns an array of investors with non zero balance at a given checkpoint\r\n     * @param _checkpointId Checkpoint id at which investor list is to be populated\r\n     * @return list of investors\r\n     */\r\n    function getInvestorsAt(uint256 _checkpointId) external view returns(address[] memory) {\r\n        uint256 count;\r\n        uint256 i;\r\n        address[] memory investors = dataStore.getAddressArray(INVESTORSKEY);\r\n        for (i = 0; i < investors.length; i++) {\r\n            if (balanceOfAt(investors[i], _checkpointId) > 0) {\r\n                count++;\r\n            } else {\r\n                investors[i] = address(0);\r\n            }\r\n        }\r\n        address[] memory holders = new address[](count);\r\n        count = 0;\r\n        for (i = 0; i < investors.length; i++) {\r\n            if (investors[i] != address(0)) {\r\n                holders[count] = investors[i];\r\n                count++;\r\n            }\r\n        }\r\n        return holders;\r\n    }\r\n\r\n    /**\r\n     * @notice returns an array of investors with non zero balance at a given checkpoint\r\n     * @param _checkpointId Checkpoint id at which investor list is to be populated\r\n     * @param _start Position of investor to start iteration from\r\n     * @param _end Position of investor to stop iteration at\r\n     * @return list of investors\r\n     */\r\n    function getInvestorsSubsetAt(uint256 _checkpointId, uint256 _start, uint256 _end) external view returns(address[] memory) {\r\n        uint256 count;\r\n        uint256 i;\r\n        address[] memory investors = dataStore.getAddressArrayElements(INVESTORSKEY, _start, _end);\r\n        for (i = 0; i < investors.length; i++) {\r\n            if (balanceOfAt(investors[i], _checkpointId) > 0) {\r\n                count++;\r\n            } else {\r\n                investors[i] = address(0);\r\n            }\r\n        }\r\n        address[] memory holders = new address[](count);\r\n        count = 0;\r\n        for (i = 0; i < investors.length; i++) {\r\n            if (investors[i] != address(0)) {\r\n                holders[count] = investors[i];\r\n                count++;\r\n            }\r\n        }\r\n        return holders;\r\n    }\r\n\r\n    /**\r\n     * @notice Returns the data associated to a module\r\n     * @param _module address of the module\r\n     * @return bytes32 name\r\n     * @return address module address\r\n     * @return address module factory address\r\n     * @return bool module archived\r\n     * @return uint8 array of module types\r\n     * @return bytes32 module label\r\n     */\r\n    function getModule(address _module) external view returns(bytes32, address, address, bool, uint8[] memory, bytes32) {\r\n        return (\r\n            modulesToData[_module].name,\r\n            modulesToData[_module].module,\r\n            modulesToData[_module].moduleFactory,\r\n            modulesToData[_module].isArchived,\r\n            modulesToData[_module].moduleTypes,\r\n            modulesToData[_module].label\r\n        );\r\n    }\r\n\r\n    /**\r\n     * @notice Returns a list of modules that match the provided name\r\n     * @param _name name of the module\r\n     * @return address[] list of modules with this name\r\n     */\r\n    function getModulesByName(bytes32 _name) external view returns(address[] memory) {\r\n        return names[_name];\r\n    }\r\n\r\n    /**\r\n     * @notice Returns a list of modules that match the provided module type\r\n     * @param _type type of the module\r\n     * @return address[] list of modules with this type\r\n     */\r\n    function getModulesByType(uint8 _type) external view returns(address[] memory) {\r\n        return modules[_type];\r\n    }\r\n\r\n    /**\r\n     * @notice use to return the global treasury wallet\r\n     */\r\n    function getTreasuryWallet() external view returns(address) {\r\n        return dataStore.getAddress(TREASURY);\r\n    }\r\n\r\n    /**\r\n     * @notice Queries balances as of a defined checkpoint\r\n     * @param _investor Investor to query balance for\r\n     * @param _checkpointId Checkpoint ID to query as of\r\n     */\r\n    function balanceOfAt(address _investor, uint256 _checkpointId) public view returns(uint256) {\r\n        require(_checkpointId <= currentCheckpointId);\r\n        return TokenLib.getValueAt(checkpointBalances[_investor], _checkpointId, balanceOf(_investor));\r\n    }\r\n\r\n    /**\r\n     * @notice Queries totalSupply as of a defined checkpoint\r\n     * @param _checkpointId Checkpoint ID to query\r\n     * @return uint256\r\n     */\r\n    function totalSupplyAt(uint256 _checkpointId) external view returns(uint256) {\r\n        require(_checkpointId <= currentCheckpointId);\r\n        return checkpointTotalSupply[_checkpointId];\r\n    }\r\n\r\n    /**\r\n     * @notice generates subset of investors\r\n     * NB - can be used in batches if investor list is large. start and end both are included in array.\r\n     * @param _start Position of investor to start iteration from\r\n     * @param _end Position of investor to stop iteration at\r\n     * @return list of investors\r\n     */\r\n    function iterateInvestors(uint256 _start, uint256 _end) external view returns(address[] memory) {\r\n        return dataStore.getAddressArrayElements(INVESTORSKEY, _start, _end);\r\n    }\r\n\r\n    /**\r\n     * @notice Validate permissions with PermissionManager if it exists, If no Permission return false\r\n     * @dev Note that IModule withPerm will allow ST owner all permissions anyway\r\n     * @dev this allows individual modules to override this logic if needed (to not allow ST owner all permissions)\r\n     * @param _delegate address of delegate\r\n     * @param _module address of PermissionManager module\r\n     * @param _perm the permissions\r\n     * @return success\r\n     */\r\n    function checkPermission(address _delegate, address _module, bytes32 _perm) public view returns(bool) {\r\n        for (uint256 i = 0; i < modules[PERMISSION_KEY].length; i++) {\r\n            if (!modulesToData[modules[PERMISSION_KEY][i]].isArchived) {\r\n                if (IPermissionManager(modules[PERMISSION_KEY][i]).checkPermission(_delegate, _module, _perm)) {\r\n                    return true;\r\n                }\r\n            }\r\n        }\r\n        return false;\r\n    }\r\n\r\n    /**\r\n     * @notice Determines whether `_operator` is an operator for all partitions of `_tokenHolder`\r\n     * @param _operator The operator to check\r\n     * @param _tokenHolder The token holder to check\r\n     * @return Whether the `_operator` is an operator for all partitions of `_tokenHolder`\r\n     */\r\n    function isOperator(address _operator, address _tokenHolder) external view returns (bool) {\r\n        return (_allowance(_tokenHolder, _operator) == uint(-1));\r\n    }\r\n\r\n    /**\r\n     * @notice Determines whether `_operator` is an operator for a specified partition of `_tokenHolder`\r\n     * @param _partition The partition to check\r\n     * @param _operator The operator to check\r\n     * @param _tokenHolder The token holder to check\r\n     * @return Whether the `_operator` is an operator for a specified partition of `_tokenHolder`\r\n     */\r\n    function isOperatorForPartition(bytes32 _partition, address _operator, address _tokenHolder) external view returns (bool) {\r\n        return partitionApprovals[_tokenHolder][_partition][_operator];\r\n    }\r\n\r\n    /**\r\n     * @notice Return all partitions\r\n     * @return List of partitions\r\n     */\r\n    function partitionsOf(address /*_tokenHolder*/) external pure returns (bytes32[] memory) {\r\n        bytes32[] memory result = new bytes32[](2);\r\n        result[0] = UNLOCKED;\r\n        result[1] = LOCKED;\r\n        return result;\r\n    }\r\n\r\n    /**\r\n     * @notice Returns the version of the SecurityToken\r\n     */\r\n    function getVersion() external view returns(uint8[] memory) {\r\n        uint8[] memory version = new uint8[](3);\r\n        version[0] = securityTokenVersion.major;\r\n        version[1] = securityTokenVersion.minor;\r\n        version[2] = securityTokenVersion.patch;\r\n        return version;\r\n    }\r\n\r\n    /**\r\n     * @notice Used to return the details of a document with a known name (`bytes32`).\r\n     * @param _name Name of the document\r\n     * @return string The URI associated with the document.\r\n     * @return bytes32 The hash (of the contents) of the document.\r\n     * @return uint256 the timestamp at which the document was last modified.\r\n     */\r\n    function getDocument(bytes32 _name) external view returns (string memory, bytes32, uint256) {\r\n        return (\r\n            _documents[_name].uri,\r\n            _documents[_name].docHash,\r\n            _documents[_name].lastModified\r\n        );\r\n    }\r\n\r\n    /**\r\n     * @notice Used to retrieve a full list of documents attached to the smart contract.\r\n     * @return bytes32 List of all documents names present in the contract.\r\n     */\r\n    function getAllDocuments() external view returns (bytes32[] memory) {\r\n        return _docNames;\r\n    }\r\n}\r\n",
  "sourcePath": "C:\\mspace\\polymath-core\\contracts\\tokens\\STGetter.sol",
  "compiler": {
    "name": "solc",
    "version": "0.5.8+commit.23d335f2.Emscripten.clang"
  },
  "schemaVersion": "3.0.11",
  "updatedAt": "2019-08-05T22:53:45.009Z",
  "devdoc": {
    "methods": {
      "balanceOfAt(address,uint256)": {
        "params": {
          "_checkpointId": "Checkpoint ID to query as of\r",
          "_investor": "Investor to query balance for\r"
        }
      },
      "checkPermission(address,address,bytes32)": {
        "details": "Note that IModule withPerm will allow ST owner all permissions anyway\rthis allows individual modules to override this logic if needed (to not allow ST owner all permissions)\r",
        "params": {
          "_delegate": "address of delegate\r",
          "_module": "address of PermissionManager module\r",
          "_perm": "the permissions\r"
        },
        "return": "success\r"
      },
      "getAllDocuments()": {
        "return": "bytes32 List of all documents names present in the contract.\r"
      },
      "getCheckpointTimes()": {
        "return": "List of checkpoint times\r"
      },
      "getDocument(bytes32)": {
        "params": {
          "_name": "Name of the document\r"
        },
        "return": "string The URI associated with the document.\rbytes32 The hash (of the contents) of the document.\ruint256 the timestamp at which the document was last modified.\r"
      },
      "getInvestorCount()": {
        "return": "Investor count\r"
      },
      "getInvestors()": {
        "return": "list of addresses\r"
      },
      "getInvestorsAt(uint256)": {
        "params": {
          "_checkpointId": "Checkpoint id at which investor list is to be populated\r"
        },
        "return": "list of investors\r"
      },
      "getInvestorsSubsetAt(uint256,uint256,uint256)": {
        "params": {
          "_checkpointId": "Checkpoint id at which investor list is to be populated\r",
          "_end": "Position of investor to stop iteration at\r",
          "_start": "Position of investor to start iteration from\r"
        },
        "return": "list of investors\r"
      },
      "getModule(address)": {
        "params": {
          "_module": "address of the module\r"
        },
        "return": "bytes32 name\raddress module address\raddress module factory address\rbool module archived\ruint8 array of module types\rbytes32 module label\r"
      },
      "getModulesByName(bytes32)": {
        "params": {
          "_name": "name of the module\r"
        },
        "return": "address[] list of modules with this name\r"
      },
      "getModulesByType(uint8)": {
        "params": {
          "_type": "type of the module\r"
        },
        "return": "address[] list of modules with this type\r"
      },
      "isIssuable()": {
        "details": "If a token returns FALSE for `isIssuable()` then it MUST always return FALSE in the future.\r If a token returns FALSE for `isIssuable()` then it MUST never allow additional tokens to be issued.\r",
        "return": "bool `true` signifies the minting is allowed. While `false` denotes the end of minting\r"
      },
      "isOperator(address,address)": {
        "params": {
          "_operator": "The operator to check\r",
          "_tokenHolder": "The token holder to check\r"
        },
        "return": "Whether the `_operator` is an operator for all partitions of `_tokenHolder`\r"
      },
      "isOperatorForPartition(bytes32,address,address)": {
        "params": {
          "_operator": "The operator to check\r",
          "_partition": "The partition to check\r",
          "_tokenHolder": "The token holder to check\r"
        },
        "return": "Whether the `_operator` is an operator for a specified partition of `_tokenHolder`\r"
      },
      "iterateInvestors(uint256,uint256)": {
        "params": {
          "_end": "Position of investor to stop iteration at\r",
          "_start": "Position of investor to start iteration from\r"
        },
        "return": "list of investors\r"
      },
      "partitionsOf(address)": {
        "return": "List of partitions\r"
      },
      "totalSupplyAt(uint256)": {
        "params": {
          "_checkpointId": "Checkpoint ID to query\r"
        },
        "return": "uint256\r"
      }
    }
  },
  "userdoc": {
    "methods": {
      "balanceOfAt(address,uint256)": {
        "notice": "Queries balances as of a defined checkpoint\r"
      },
      "checkPermission(address,address,bytes32)": {
        "notice": "Validate permissions with PermissionManager if it exists, If no Permission return false\r"
      },
      "getAllDocuments()": {
        "notice": "Used to retrieve a full list of documents attached to the smart contract.\r"
      },
      "getCheckpointTimes()": {
        "notice": "Gets list of times that checkpoints were created\r"
      },
      "getDocument(bytes32)": {
        "notice": "Used to return the details of a document with a known name (`bytes32`).\r"
      },
      "getInvestorCount()": {
        "notice": "Returns the count of address that were added as (potential) investors\r"
      },
      "getInvestors()": {
        "notice": "returns an array of investors\r NB - this length may differ from investorCount as it contains all investors that ever held tokens\r"
      },
      "getInvestorsAt(uint256)": {
        "notice": "returns an array of investors with non zero balance at a given checkpoint\r"
      },
      "getInvestorsSubsetAt(uint256,uint256,uint256)": {
        "notice": "returns an array of investors with non zero balance at a given checkpoint\r"
      },
      "getModule(address)": {
        "notice": "Returns the data associated to a module\r"
      },
      "getModulesByName(bytes32)": {
        "notice": "Returns a list of modules that match the provided name\r"
      },
      "getModulesByType(uint8)": {
        "notice": "Returns a list of modules that match the provided module type\r"
      },
      "getTreasuryWallet()": {
        "notice": "use to return the global treasury wallet\r"
      },
      "getVersion()": {
        "notice": "Returns the version of the SecurityToken\r"
      },
      "isIssuable()": {
        "notice": "A security token issuer can specify that issuance has finished for the token\r (i.e. no new tokens can be minted or issued).\r"
      },
      "isOperator(address,address)": {
        "notice": "Determines whether `_operator` is an operator for all partitions of `_tokenHolder`\r"
      },
      "isOperatorForPartition(bytes32,address,address)": {
        "notice": "Determines whether `_operator` is an operator for a specified partition of `_tokenHolder`\r"
      },
      "iterateInvestors(uint256,uint256)": {
        "notice": "generates subset of investors\r NB - can be used in batches if investor list is large. start and end both are included in array.\r"
      },
      "partitionsOf(address)": {
        "notice": "Return all partitions\r"
      },
      "totalSupplyAt(uint256)": {
        "notice": "Queries totalSupply as of a defined checkpoint\r"
      }
    }
  }
}