{
  "contractName": "STOStorage",
  "abi": [
    {
      "constant": true,
      "inputs": [],
      "name": "endTime",
      "outputs": [
        {
          "name": "",
          "type": "uint256"
        }
      ],
      "payable": false,
      "stateMutability": "view",
      "type": "function"
    },
    {
      "constant": true,
      "inputs": [],
      "name": "wallet",
      "outputs": [
        {
          "name": "",
          "type": "address"
        }
      ],
      "payable": false,
      "stateMutability": "view",
      "type": "function"
    },
    {
      "constant": true,
      "inputs": [],
      "name": "totalTokensSold",
      "outputs": [
        {
          "name": "",
          "type": "uint256"
        }
      ],
      "payable": false,
      "stateMutability": "view",
      "type": "function"
    },
    {
      "constant": true,
      "inputs": [],
      "name": "startTime",
      "outputs": [
        {
          "name": "",
          "type": "uint256"
        }
      ],
      "payable": false,
      "stateMutability": "view",
      "type": "function"
    },
    {
      "constant": true,
      "inputs": [],
      "name": "pausedTime",
      "outputs": [
        {
          "name": "",
          "type": "uint256"
        }
      ],
      "payable": false,
      "stateMutability": "view",
      "type": "function"
    },
    {
      "constant": true,
      "inputs": [
        {
          "name": "",
          "type": "uint8"
        }
      ],
      "name": "fundsRaised",
      "outputs": [
        {
          "name": "",
          "type": "uint256"
        }
      ],
      "payable": false,
      "stateMutability": "view",
      "type": "function"
    },
    {
      "constant": true,
      "inputs": [
        {
          "name": "",
          "type": "uint8"
        }
      ],
      "name": "fundRaiseTypes",
      "outputs": [
        {
          "name": "",
          "type": "bool"
        }
      ],
      "payable": false,
      "stateMutability": "view",
      "type": "function"
    },
    {
      "constant": true,
      "inputs": [],
      "name": "investorCount",
      "outputs": [
        {
          "name": "",
          "type": "uint256"
        }
      ],
      "payable": false,
      "stateMutability": "view",
      "type": "function"
    }
  ],
  "bytecode": "0x608060405234801561001057600080fd5b506101bf806100206000396000f3fe608060405234801561001057600080fd5b50600436106100885760003560e01c8063b2cca39d1161005b578063b2cca39d146100db578063c4d2c6bd146100e3578063d143a37914610103578063d7e64c001461013757610088565b80633197cbb61461008d578063521eb273146100a757806363b20117146100cb57806378e97925146100d3575b600080fd5b61009561013f565b60408051918252519081900360200190f35b6100af610145565b604080516001600160a01b039092168252519081900360200190f35b610095610154565b61009561015a565b610095610160565b610095600480360360208110156100f957600080fd5b503560ff16610166565b6101236004803603602081101561011957600080fd5b503560ff16610178565b604080519115158252519081900360200190f35b61009561018d565b60035481565b6006546001600160a01b031681565b60075481565b60025481565b60045481565b60016020526000908152604090205481565b60006020819052908152604090205460ff1681565b6005548156fea165627a7a723058201e4536d8bda1a4cfa20918bf350d5c7b6698f459c60183244db7c192f71a1ad40029",
  "source": "pragma solidity 0.5.8;\r\n\r\n/**\r\n * @title Storage layout for the STO contract\r\n */\r\n\r\ncontract STOStorage {\r\n    bytes32 internal constant INVESTORFLAGS = \"INVESTORFLAGS\";\r\n\r\n    mapping (uint8 => bool) public fundRaiseTypes;\r\n    mapping (uint8 => uint256) public fundsRaised;\r\n\r\n    // Start time of the STO\r\n    uint256 public startTime;\r\n    // End time of the STO\r\n    uint256 public endTime;\r\n    // Time STO was paused\r\n    uint256 public pausedTime;\r\n    // Number of individual investors\r\n    uint256 public investorCount;\r\n    // Address where ETH & POLY funds are delivered\r\n    address payable public wallet;\r\n    // Final amount of tokens sold\r\n    uint256 public totalTokensSold;\r\n\r\n}\r\n",
  "sourcePath": "C:\\mspace\\polymath-core\\contracts\\storage\\modules\\STO\\STOStorage.sol",
  "compiler": {
    "name": "solc",
    "version": "0.5.8+commit.23d335f2.Emscripten.clang"
  },
  "schemaVersion": "3.0.11",
  "updatedAt": "2019-08-05T22:52:46.961Z",
  "devdoc": {
    "methods": {},
    "title": "Storage layout for the STO contract\r"
  },
  "userdoc": {
    "methods": {}
  }
}