{
  "contractName": "STRGetter",
  "abi": [
    {
      "constant": true,
      "inputs": [
        {
          "name": "_variable",
          "type": "bytes32"
        }
      ],
      "name": "getBytes32Value",
      "outputs": [
        {
          "name": "",
          "type": "bytes32"
        }
      ],
      "payable": false,
      "stateMutability": "view",
      "type": "function"
    },
    {
      "constant": true,
      "inputs": [
        {
          "name": "_variable",
          "type": "bytes32"
        }
      ],
      "name": "getBytesValue",
      "outputs": [
        {
          "name": "",
          "type": "bytes"
        }
      ],
      "payable": false,
      "stateMutability": "view",
      "type": "function"
    },
    {
      "constant": true,
      "inputs": [
        {
          "name": "_variable",
          "type": "bytes32"
        }
      ],
      "name": "getAddressValue",
      "outputs": [
        {
          "name": "",
          "type": "address"
        }
      ],
      "payable": false,
      "stateMutability": "view",
      "type": "function"
    },
    {
      "constant": true,
      "inputs": [
        {
          "name": "_key",
          "type": "bytes32"
        }
      ],
      "name": "getArrayAddress",
      "outputs": [
        {
          "name": "",
          "type": "address[]"
        }
      ],
      "payable": false,
      "stateMutability": "view",
      "type": "function"
    },
    {
      "constant": true,
      "inputs": [
        {
          "name": "_variable",
          "type": "bytes32"
        }
      ],
      "name": "getBoolValue",
      "outputs": [
        {
          "name": "",
          "type": "bool"
        }
      ],
      "payable": false,
      "stateMutability": "view",
      "type": "function"
    },
    {
      "constant": true,
      "inputs": [
        {
          "name": "_variable",
          "type": "bytes32"
        }
      ],
      "name": "getStringValue",
      "outputs": [
        {
          "name": "",
          "type": "string"
        }
      ],
      "payable": false,
      "stateMutability": "view",
      "type": "function"
    },
    {
      "constant": true,
      "inputs": [
        {
          "name": "_key",
          "type": "bytes32"
        }
      ],
      "name": "getArrayBytes32",
      "outputs": [
        {
          "name": "",
          "type": "bytes32[]"
        }
      ],
      "payable": false,
      "stateMutability": "view",
      "type": "function"
    },
    {
      "constant": true,
      "inputs": [
        {
          "name": "_variable",
          "type": "bytes32"
        }
      ],
      "name": "getUintValue",
      "outputs": [
        {
          "name": "",
          "type": "uint256"
        }
      ],
      "payable": false,
      "stateMutability": "view",
      "type": "function"
    },
    {
      "constant": true,
      "inputs": [
        {
          "name": "_key",
          "type": "bytes32"
        }
      ],
      "name": "getArrayUint",
      "outputs": [
        {
          "name": "",
          "type": "uint256[]"
        }
      ],
      "payable": false,
      "stateMutability": "view",
      "type": "function"
    },
    {
      "constant": true,
      "inputs": [
        {
          "name": "_owner",
          "type": "address"
        }
      ],
      "name": "getTickersByOwner",
      "outputs": [
        {
          "name": "",
          "type": "bytes32[]"
        }
      ],
      "payable": false,
      "stateMutability": "view",
      "type": "function"
    },
    {
      "constant": true,
      "inputs": [
        {
          "name": "_owner",
          "type": "address"
        }
      ],
      "name": "getTokensByOwner",
      "outputs": [
        {
          "name": "",
          "type": "address[]"
        }
      ],
      "payable": false,
      "stateMutability": "view",
      "type": "function"
    },
    {
      "constant": true,
      "inputs": [],
      "name": "getTokens",
      "outputs": [
        {
          "name": "",
          "type": "address[]"
        }
      ],
      "payable": false,
      "stateMutability": "view",
      "type": "function"
    },
    {
      "constant": true,
      "inputs": [
        {
          "name": "_delegate",
          "type": "address"
        }
      ],
      "name": "getTokensByDelegate",
      "outputs": [
        {
          "name": "",
          "type": "address[]"
        }
      ],
      "payable": false,
      "stateMutability": "view",
      "type": "function"
    },
    {
      "constant": true,
      "inputs": [
        {
          "name": "_ticker",
          "type": "string"
        }
      ],
      "name": "getTickerDetails",
      "outputs": [
        {
          "name": "",
          "type": "address"
        },
        {
          "name": "",
          "type": "uint256"
        },
        {
          "name": "",
          "type": "uint256"
        },
        {
          "name": "",
          "type": "string"
        },
        {
          "name": "",
          "type": "bool"
        }
      ],
      "payable": false,
      "stateMutability": "view",
      "type": "function"
    },
    {
      "constant": true,
      "inputs": [
        {
          "name": "_ticker",
          "type": "string"
        }
      ],
      "name": "getSecurityTokenAddress",
      "outputs": [
        {
          "name": "",
          "type": "address"
        }
      ],
      "payable": false,
      "stateMutability": "view",
      "type": "function"
    },
    {
      "constant": true,
      "inputs": [
        {
          "name": "_securityToken",
          "type": "address"
        }
      ],
      "name": "getSecurityTokenData",
      "outputs": [
        {
          "name": "",
          "type": "string"
        },
        {
          "name": "",
          "type": "address"
        },
        {
          "name": "",
          "type": "string"
        },
        {
          "name": "",
          "type": "uint256"
        }
      ],
      "payable": false,
      "stateMutability": "view",
      "type": "function"
    },
    {
      "constant": true,
      "inputs": [],
      "name": "getSTFactoryAddress",
      "outputs": [
        {
          "name": "",
          "type": "address"
        }
      ],
      "payable": false,
      "stateMutability": "view",
      "type": "function"
    },
    {
      "constant": true,
      "inputs": [
        {
          "name": "_protocolVersion",
          "type": "uint256"
        }
      ],
      "name": "getSTFactoryAddressOfVersion",
      "outputs": [
        {
          "name": "",
          "type": "address"
        }
      ],
      "payable": false,
      "stateMutability": "view",
      "type": "function"
    },
    {
      "constant": true,
      "inputs": [],
      "name": "getLatestProtocolVersion",
      "outputs": [
        {
          "name": "",
          "type": "uint8[]"
        }
      ],
      "payable": false,
      "stateMutability": "view",
      "type": "function"
    },
    {
      "constant": true,
      "inputs": [],
      "name": "getIsFeeInPoly",
      "outputs": [
        {
          "name": "",
          "type": "bool"
        }
      ],
      "payable": false,
      "stateMutability": "view",
      "type": "function"
    },
    {
      "constant": true,
      "inputs": [],
      "name": "getExpiryLimit",
      "outputs": [
        {
          "name": "",
          "type": "uint256"
        }
      ],
      "payable": false,
      "stateMutability": "view",
      "type": "function"
    },
    {
      "constant": true,
      "inputs": [
        {
          "name": "_ticker",
          "type": "string"
        }
      ],
      "name": "getTickerStatus",
      "outputs": [
        {
          "name": "",
          "type": "bool"
        }
      ],
      "payable": false,
      "stateMutability": "view",
      "type": "function"
    },
    {
      "constant": true,
      "inputs": [
        {
          "name": "_ticker",
          "type": "string"
        }
      ],
      "name": "getTickerOwner",
      "outputs": [
        {
          "name": "",
          "type": "address"
        }
      ],
      "payable": false,
      "stateMutability": "view",
      "type": "function"
    }
  ],
  "bytecode": "0x608060405234801561001057600080fd5b50611db0806100206000396000f3fe608060405234801561001057600080fd5b506004361061014d5760003560e01c80638ffa9690116100c3578063b70fb8b91161007c578063b70fb8b9146106e7578063e82617fb1461070d578063ea4707581461072a578063f34f50b514610732578063f6fcbee11461073a578063fb621f14146107575761014d565b80638ffa969014610663578063a094a16614610680578063a209a29c1461069d578063a8f0d3a7146106ba578063aa6ca808146106d7578063af0b1a94146106df5761014d565b806344bfa56e1161011557806344bfa56e146102e55780634c77e5ba1461037757806363808bcb146103945780636f3b8ce2146104ac5780637e388c54146104c95780638f9bbf16146105815761014d565b8063025ec81a14610152578063165e694a1461018157806321c8ad0e14610189578063344d7d3d146101ff57806340398d67146102bf575b600080fd5b61016f6004803603602081101561016857600080fd5b50356107c5565b60408051918252519081900360200190f35b61016f6107da565b6101af6004803603602081101561019f57600080fd5b50356001600160a01b031661080a565b60408051602080825283518183015283519192839290830191858101910280838360005b838110156101eb5781810151838201526020016101d3565b505050509050019250505060405180910390f35b6102a36004803603602081101561021557600080fd5b810190602081018135600160201b81111561022f57600080fd5b82018360208201111561024157600080fd5b803590602001918460018302840111600160201b8311171561026257600080fd5b91908080601f016020809104026020016040519081016040528093929190818152602001838380828437600092019190915250929550610926945050505050565b604080516001600160a01b039092168252519081900360200190f35b6101af600480360360208110156102d557600080fd5b50356001600160a01b0316610975565b610302600480360360208110156102fb57600080fd5b5035610982565b6040805160208082528351818301528351919283929083019185019080838360005b8381101561033c578181015183820152602001610324565b50505050905090810190601f1680156103695780820380516001836020036101000a031916815260200191505b509250505060405180910390f35b6102a36004803603602081101561038d57600080fd5b5035610a23565b610402600480360360208110156103aa57600080fd5b810190602081018135600160201b8111156103c457600080fd5b8201836020820111156103d657600080fd5b803590602001918460018302840111600160201b831117156103f757600080fd5b509092509050610a3e565b60405180866001600160a01b03166001600160a01b031681526020018581526020018481526020018060200183151515158152602001828103825284818151815260200191508051906020019080838360005b8381101561046d578181015183820152602001610455565b50505050905090810190601f16801561049a5780820380516001836020036101000a031916815260200191505b50965050505050505060405180910390f35b6101af600480360360208110156104c257600080fd5b5035610c96565b61056d600480360360208110156104df57600080fd5b810190602081018135600160201b8111156104f957600080fd5b82018360208201111561050b57600080fd5b803590602001918460018302840111600160201b8311171561052c57600080fd5b91908080601f016020809104026020016040519081016040528093929190818152602001838380828437600092019190915250929550610d01945050505050565b604080519115158252519081900360200190f35b6105a76004803603602081101561059757600080fd5b50356001600160a01b0316610d4a565b6040518080602001856001600160a01b03166001600160a01b0316815260200180602001848152602001838103835287818151815260200191508051906020019080838360005b838110156106065781810151838201526020016105ee565b50505050905090810190601f1680156106335780820380516001836020036101000a031916815260200191505b5083810382528551815285516020918201918701908083836000831561046d578181015183820152602001610455565b61056d6004803603602081101561067957600080fd5b5035610e91565b6102a36004803603602081101561069657600080fd5b5035610ea6565b610302600480360360208110156106b357600080fd5b5035610ee1565b6101af600480360360208110156106d057600080fd5b5035610f4a565b6101af610fab565b6101af610fb9565b6101af600480360360208110156106fd57600080fd5b50356001600160a01b0316610ff7565b61016f6004803603602081101561072357600080fd5b50356110ef565b6102a3611101565b61056d61116f565b6101af6004803603602081101561075057600080fd5b503561119a565b6102a36004803603602081101561076d57600080fd5b810190602081018135600160201b81111561078757600080fd5b82018360208201111561079957600080fd5b803590602001918460018302840111600160201b831117156107ba57600080fd5b5090925090506111fa565b6000818152600660205260409020545b919050565b60006108057f604268e9a73dfd777dcecb8a614493dd65c638bad2f5e7d709d378bd2fb0baee6110ef565b905090565b60606000809050606061084d6108486040518060400160405280600d8152602001600160981b6c75736572546f5469636b6572730281525086611284565b610f4a565b905060005b815181101561088b5761087782828151811061086a57fe5b602002602001015161130e565b15610883576001909201915b600101610852565b6060836040519080825280602002602001820160405280156108b7578160200160208202803883390190505b50905060009350600091505b825182101561091d576108db83838151811061086a57fe5b15610912578282815181106108ec57fe5b602002602001015181858151811061090057fe5b60209081029190910101526001909301925b6001909101906108c3565b95945050505050565b600061096f61096a6040518060400160405280601781526020017f726567697374657265645469636b6572735f6f776e6572000000000000000000815250846113c2565b610a23565b92915050565b606061096f600083611484565b60008181526003602090815260409182902080548351601f6002600019610100600186161502019093169290920491820184900484028101840190945280845260609392830182828015610a175780601f106109ec57610100808354040283529160200191610a17565b820191906000526020600020905b8154815290600101906020018083116109fa57829003601f168201915b50505050509050919050565b6000908152600260205260409020546001600160a01b031690565b6000806000606060006060610a8888888080601f01602080910402602001604051908101604052809392919081815260200183838082843760009201919091525061167992505050565b90506000610a9582610d01565b90506000610ae0610adb6040518060400160405280601c81526020017f726567697374657265645469636b6572735f6578706972794461746500000000815250856113c2565b6110ef565b905060018215151480610af257504281115b15610c66576000610b3661096a604051806040016040528060158152602001600160591b743a34b1b5b2b92a37a9b2b1bab934ba3caa37b5b2b702815250866113c2565b905060606001600160a01b03821615610c0f57816001600160a01b03166306fdde036040518163ffffffff1660e01b815260040160006040518083038186803b158015610b8257600080fd5b505afa158015610b96573d6000803e3d6000fd5b505050506040513d6000823e601f3d908101601f191682016040526020811015610bbf57600080fd5b810190808051600160201b811115610bd657600080fd5b82016020810184811115610be957600080fd5b8151600160201b811182820187101715610c0257600080fd5b5050929190505050610c20565b604051806020016040528060008152505b9050610c2b85610926565b610c50610adb604051806060016040528060228152602001611d6360229139886113c2565b909a509850919650909450909250610c8c915050565b50506040805160208101909152600080825296508695508594509250839150610c8c9050565b9295509295909350565b600081815260096020908152604091829020805483518184028101840190945280845260609392830182828015610a1757602002820191906000526020600020905b81546001600160a01b03168152600190910190602001808311610cd85750505050509050919050565b600061096f610d456040518060400160405280601881526020017f726567697374657265645469636b6572735f7374617475730000000000000000815250846113c2565b610e91565b6060600060606000610d99610d946040518060400160405280601581526020017f7365637572697479546f6b656e735f7469636b6572000000000000000000000081525087611284565b610ee1565b856001600160a01b0316638da5cb5b6040518163ffffffff1660e01b815260040160206040518083038186803b158015610dd257600080fd5b505afa158015610de6573d6000803e3d6000fd5b505050506040513d6020811015610dfc57600080fd5b505160408051808201909152601b81527f7365637572697479546f6b656e735f746f6b656e44657461696c7300000000006020820152610e4090610d949089611284565b610e82610adb6040518060400160405280601981526020017f7365637572697479546f6b656e735f6465706c6f7965644174000000000000008152508a611284565b93509350935093509193509193565b60009081526004602052604090205460ff1690565b600061096f61096a6040518060400160405280601181526020016001607a1b701c1c9bdd1bd8dbdb15995c9cda5bdb94d5028152508461171b565b60008181526001602081815260409283902080548451600294821615610100026000190190911693909304601f81018390048302840183019094528383526060939091830182828015610a175780601f106109ec57610100808354040283529160200191610a17565b600081815260076020908152604091829020805483518184028101840190945280845260609392830182828015610a1757602002820191906000526020600020905b815481526020019060010190808311610f8c5750505050509050919050565b606061080560016000611484565b6060610805610ff2610adb6040518060400160405280600d8152602001600160991b6c3630ba32b9ba2b32b939b4b7b702815250611790565b611807565b606080611002610fab565b90506000805b82518110156110425761102e83828151811061102057fe5b6020026020010151866118a9565b1561103a576001909101905b600101611008565b60608260405190808252806020026020018201604052801561106e578160200160208202803883390190505b50905060009250600091505b835182101561091d576110a084838151811061109257fe5b6020026020010151876118a9565b156110e4578382815181106110b157fe5b60200260200101518184815181106110c557fe5b6001600160a01b03909216602092830291909101909101526001909201915b60019091019061107a565b60009081526020819052604090205490565b600061080561096a6040518060400160405280601181526020016001607a1b701c1c9bdd1bd8dbdb15995c9cda5bdb94d50281525061116a610adb6040518060400160405280600d8152602001600160991b6c3630ba32b9ba2b32b939b4b7b702815250611790565b61171b565b60006108057f7152e5426955da44af11ecd67fec5e2a3ba747be974678842afa9394b9a075b6610e91565b600081815260086020908152604091829020805483518184028101840190945280845260609392830182828015610a175760200282019190600052602060002090815481526020019060010190808311610f8c5750505050509050919050565b6000606061123d84848080601f01602080910402602001604051908101604052809392919081815260200183838082843760009201919091525061167992505050565b905061127c61096a604051806040016040528060158152602001600160591b743a34b1b5b2b92a37a9b2b1bab934ba3caa37b5b2b702815250836113c2565b949350505050565b600082826040516020018083805190602001908083835b602083106112ba5780518252601f19909201916020918201910161129b565b51815160209384036101000a60001901801990921691161790526001600160a01b039590951660601b92019182525060408051808303600b1901815260149092019052805192019190912095945050505050565b6000606061131b83611b6f565b905042611360610adb6040518060400160405280601c81526020017f726567697374657265645469636b6572735f6578706972794461746500000000815250846113c2565b1015806113aa57506113aa610d456040518060400160405280601881526020017f726567697374657265645469636b6572735f7374617475730000000000000000815250836113c2565b156113b95760019150506107d5565b50600092915050565b600082826040516020018083805190602001908083835b602083106113f85780518252601f1990920191602091820191016113d9565b51815160209384036101000a600019018019909216911617905285519190930192850191508083835b602083106114405780518252601f199092019160209182019101611421565b6001836020036101000a0380198251168184511680821785525050505050509050019250505060405160208183030381529060405280519060200120905092915050565b6060806114be6114b96040518060400160405280600b8152602001600160a81b6a616374697665557365727302815250611790565b610c96565b90506060600080805b845182101561156e576115186108486040518060400160405280600d8152602001600160981b6c75736572546f5469636b6572730281525087858151811061150b57fe5b6020026020010151611284565b9350600090505b83518110156115635761154684828151811061153757fe5b60200260200101518989611c6f565b6001600160a01b03161561155b576001909201915b60010161151f565b6001909101906114c7565b60608360405190808252806020026020018201604052801561159a578160200160208202803883390190505b5090506000935060008093505b865184101561166c576115eb6108486040518060400160405280600d8152602001600160981b6c75736572546f5469636b6572730281525089878151811061150b57fe5b9550600092505b85518310156116615761161986848151811061160a57fe5b60200260200101518b8b611c6f565b90506001600160a01b03811615611656578082868151811061163757fe5b6001600160a01b03909216602092830291909101909101526001909401935b6001909201916115f2565b6001909301926115a7565b5098975050505050505050565b60608160005b815181101561171457600082828151811061169657fe5b016020015160f890811c901b9050600160f81b6061026001600160f81b03198216108015906116d65750600160f91b603d026001600160f81b0319821611155b156116e757601f1960f891821c01901b5b808383815181106116f457fe5b60200101906001600160f81b031916908160001a9053505060010161167f565b5092915050565b600082826040516020018083805190602001908083835b602083106117515780518252601f199092019160209182019101611732565b51815160209384036101000a60001901801990921691161790529201938452506040805180850381529382019052825192019190912095945050505050565b6000816040516020018082805190602001908083835b602083106117c55780518252601f1990920191602091820191016117a6565b6001836020036101000a038019825116818451168082178552505050505050905001915050604051602081830303815290604052805190602001209050919050565b6040805160038082526080820190925260609182919060208201838038833901905050905060108362ffffff16901c8160008151811061184357fe5b602002602001019060ff16908160ff168152505060088362ffffff16901c8160018151811061186e57fe5b602002602001019060ff16908160ff1681525050828160028151811061189057fe5b60ff909216602092830291909101909101529050919050565b6000806000905060606000856001600160a01b031663ac90b42260016040518263ffffffff1660e01b8152600401808260ff16815260200191505060006040518083038186803b1580156118fc57600080fd5b505afa158015611910573d6000803e3d6000fd5b505050506040513d6000823e601f3d908101601f19168201604052602081101561193957600080fd5b810190808051600160201b81111561195057600080fd5b8201602081018481111561196357600080fd5b81518560208202830111600160201b8211171561197f57600080fd5b5060009750909550505050505b8151831015611b6357856001600160a01b031663b5de8d4c8385815181106119b057fe5b60200260200101516040518263ffffffff1660e01b815260040180826001600160a01b03166001600160a01b0316815260200191505060006040518083038186803b1580156119fe57600080fd5b505afa158015611a12573d6000803e3d6000fd5b505050506040513d6000823e601f3d908101601f1916820160405260c0811015611a3b57600080fd5b815160208301516040840151606085015160808601805194969395929491939283019291600160201b811115611a7057600080fd5b82016020810184811115611a8357600080fd5b81518560208202830111600160201b82111715611a9f57600080fd5b50949850889750611b58965050505050505057818381518110611abe57fe5b60200260200101516001600160a01b03166362c90dc5866040518263ffffffff1660e01b815260040180826001600160a01b03166001600160a01b0316815260200191505060206040518083038186803b158015611b1b57600080fd5b505afa158015611b2f573d6000803e3d6000fd5b505050506040513d6020811015611b4557600080fd5b505115611b58576001935050505061096f565b60019092019161198c565b50600095945050505050565b6040805160208082528183019092526060918291906020820181803883390190505090506000805b6020811015611bed576008810260020a85026001600160f81b0319811615611be45780848481518110611bc657fe5b60200101906001600160f81b031916908160001a9053506001909201915b50600101611b97565b6060826040519080825280601f01601f191660200182016040528015611c1a576020820181803883390190505b509050600091505b8282101561091d57838281518110611c3657fe5b602001015160f81c60f81b818381518110611c4d57fe5b60200101906001600160f81b031916908160001a905350600190910190611c22565b600080611cb761096a604051806040016040528060158152602001600160591b743a34b1b5b2b92a37a9b2b1bab934ba3caa37b5b2b702815250611cb288611b6f565b6113c2565b90506001600160a01b03811615611d55578380611d495750826001600160a01b0316816001600160a01b0316638da5cb5b6040518163ffffffff1660e01b815260040160206040518083038186803b158015611d1257600080fd5b505afa158015611d26573d6000803e3d6000fd5b505050506040513d6020811015611d3c57600080fd5b50516001600160a01b0316145b15611d55579050611d5b565b60009150505b939250505056fe726567697374657265645469636b6572735f726567697374726174696f6e44617465a165627a7a72305820638a63af28a9dc0ef814da5530c7fc7a301be9a1dcb5973c469993c5104544ec0029",
  "source": "pragma solidity 0.5.8;\r\n\r\nimport \"./storage/EternalStorage.sol\";\r\nimport \"./interfaces/ISecurityToken.sol\";\r\nimport \"./libraries/Util.sol\";\r\nimport \"./libraries/Encoder.sol\";\r\nimport \"./interfaces/IOwnable.sol\";\r\nimport \"./libraries/VersionUtils.sol\";\r\nimport \"./interfaces/ISecurityToken.sol\";\r\nimport \"./modules/PermissionManager/IPermissionManager.sol\";\r\n\r\ncontract STRGetter is EternalStorage {\r\n\r\n    bytes32 constant STLAUNCHFEE = 0xd677304bb45536bb7fdfa6b9e47a3c58fe413f9e8f01474b0a4b9c6e0275baf2;\r\n    bytes32 constant TICKERREGFEE = 0x2fcc69711628630fb5a42566c68bd1092bc4aa26826736293969fddcd11cb2d2;\r\n    bytes32 constant EXPIRYLIMIT = 0x604268e9a73dfd777dcecb8a614493dd65c638bad2f5e7d709d378bd2fb0baee;\r\n    bytes32 constant IS_FEE_IN_POLY = 0x7152e5426955da44af11ecd67fec5e2a3ba747be974678842afa9394b9a075b6; //keccak256(\"IS_FEE_IN_POLY\")\r\n\r\n    /**\r\n     * @notice Returns the list of tickers owned by the selected address\r\n     * @param _owner is the address which owns the list of tickers\r\n     */\r\n    function getTickersByOwner(address _owner) external view returns(bytes32[] memory) {\r\n        uint256 count = 0;\r\n        // accessing the data structure userTotickers[_owner].length\r\n        bytes32[] memory tickers = getArrayBytes32(Encoder.getKey(\"userToTickers\", _owner));\r\n        uint i;\r\n        for (i = 0; i < tickers.length; i++) {\r\n            if (_ownerInTicker(tickers[i])) {\r\n                count++;\r\n            }\r\n        }\r\n        bytes32[] memory result = new bytes32[](count);\r\n        count = 0;\r\n        for (i = 0; i < tickers.length; i++) {\r\n            if (_ownerInTicker(tickers[i])) {\r\n                result[count] = tickers[i];\r\n                count++;\r\n            }\r\n        }\r\n        return result;\r\n    }\r\n\r\n    function _ownerInTicker(bytes32 _ticker) internal view returns (bool) {\r\n        string memory ticker = Util.bytes32ToString(_ticker);\r\n        /*solium-disable-next-line security/no-block-members*/\r\n        if (getUintValue(Encoder.getKey(\"registeredTickers_expiryDate\", ticker)) >= now || getBoolValue(Encoder.getKey(\"registeredTickers_status\", ticker))) {\r\n            return true;\r\n        }\r\n        return false;\r\n    }\r\n\r\n    /**\r\n     * @notice Returns the list of tokens owned by the selected address\r\n     * @param _owner is the address which owns the list of tickers\r\n     * @dev Intention is that this is called off-chain so block gas limit is not relevant\r\n     */\r\n    function getTokensByOwner(address _owner) external view returns(address[] memory) {\r\n        return _getTokens(false, _owner);\r\n    }\r\n\r\n    /**\r\n     * @notice Returns the list of all tokens\r\n     * @dev Intention is that this is called off-chain so block gas limit is not relevant\r\n     */\r\n    function getTokens() public view returns(address[] memory) {\r\n        return _getTokens(true, address(0));\r\n    }\r\n    /**\r\n     * @notice Returns the list of tokens owned by the selected address\r\n     * @param _allTokens if _allTokens is true returns all tokens despite on the second parameter\r\n     * @param _owner is the address which owns the list of tickers\r\n     */\r\n    function _getTokens(bool _allTokens, address _owner) internal view returns(address[] memory) {\r\n        // Loop over all active users, then all associated tickers of those users\r\n        // This ensures we find tokens, even if their owner has been modified\r\n        address[] memory activeUsers = getArrayAddress(Encoder.getKey(\"activeUsers\"));\r\n        bytes32[] memory tickers;\r\n        uint256 count = 0;\r\n        uint256 i = 0;\r\n        uint256 j = 0;\r\n        for (i = 0; i < activeUsers.length; i++) {\r\n            tickers = getArrayBytes32(Encoder.getKey(\"userToTickers\", activeUsers[i]));\r\n            for (j = 0; j < tickers.length; j++) {\r\n                if (address(0) != _ownerInToken(tickers[j], _allTokens, _owner)) {\r\n                    count++;\r\n                }\r\n            }\r\n        }\r\n        address[] memory result = new address[](count);\r\n        count = 0;\r\n        address token;\r\n        for (i = 0; i < activeUsers.length; i++) {\r\n            tickers = getArrayBytes32(Encoder.getKey(\"userToTickers\", activeUsers[i]));\r\n            for (j = 0; j < tickers.length; j++) {\r\n                token = _ownerInToken(tickers[j], _allTokens, _owner);\r\n                if (address(0) != token) {\r\n                    result[count] = token;\r\n                    count++;\r\n                }\r\n            }\r\n        }\r\n        return result;\r\n    }\r\n\r\n    function _ownerInToken(bytes32 _ticker, bool _allTokens, address _owner) internal view returns(address) {\r\n        address token = getAddressValue(Encoder.getKey(\"tickerToSecurityToken\", Util.bytes32ToString(_ticker)));\r\n        if (token != address(0)) {\r\n            if (_allTokens || IOwnable(token).owner() == _owner) {\r\n                return token;\r\n            }\r\n        }\r\n        return address(0);\r\n    }\r\n\r\n    /**\r\n     * @notice Returns the list of tokens to which the delegate has some access\r\n     * @param _delegate is the address for the delegate\r\n     * @dev Intention is that this is called off-chain so block gas limit is not relevant\r\n     */\r\n    function getTokensByDelegate(address _delegate) external view returns(address[] memory) {\r\n        // Loop over all active users, then all associated tickers of those users\r\n        // This ensures we find tokens, even if their owner has been modified\r\n        address[] memory tokens = getTokens();\r\n        uint256 count = 0;\r\n        uint256 i = 0;\r\n        for (i = 0; i < tokens.length; i++) {\r\n            if (_delegateInToken(tokens[i], _delegate)) {\r\n                count++;\r\n            }\r\n        }\r\n        address[] memory result = new address[](count);\r\n        count = 0;\r\n        for (i = 0; i < tokens.length; i++) {\r\n            if (_delegateInToken(tokens[i], _delegate)) {\r\n                result[count] = tokens[i];\r\n                count++;\r\n            }\r\n        }\r\n        return result;\r\n    }\r\n\r\n    function _delegateInToken(address _token, address _delegate) internal view returns(bool) {\r\n        uint256 j = 0;\r\n        address[] memory permissionManagers;\r\n        bool isArchived;\r\n        permissionManagers = ISecurityToken(_token).getModulesByType(1);\r\n        for (j = 0; j < permissionManagers.length; j++) {\r\n            (,,, isArchived,,) = ISecurityToken(_token).getModule(permissionManagers[j]);\r\n            if (!isArchived) {\r\n                if (IPermissionManager(permissionManagers[j]).checkDelegate(_delegate)) {\r\n                    return true;\r\n                }\r\n            }\r\n        }\r\n        return false;\r\n    }\r\n\r\n    /**\r\n     * @notice Returns the owner and timestamp for a given ticker\r\n     * @param _ticker is the ticker symbol\r\n     * @return address\r\n     * @return uint256\r\n     * @return uint256\r\n     * @return string\r\n     * @return bool\r\n     */\r\n    function getTickerDetails(string calldata _ticker) external view returns (address, uint256, uint256, string memory, bool) {\r\n        string memory ticker = Util.upper(_ticker);\r\n        bool tickerStatus = getTickerStatus(ticker);\r\n        uint256 expiryDate = getUintValue(Encoder.getKey(\"registeredTickers_expiryDate\", ticker));\r\n        /*solium-disable-next-line security/no-block-members*/\r\n        if ((tickerStatus == true) || (expiryDate > now)) {\r\n            address stAddress = getAddressValue(Encoder.getKey(\"tickerToSecurityToken\", ticker));\r\n            string memory tokenName = stAddress == address(0) ? \"\" : ISecurityToken(stAddress).name();\r\n            return\r\n            (\r\n                getTickerOwner(ticker),\r\n                getUintValue(Encoder.getKey(\"registeredTickers_registrationDate\", ticker)),\r\n                expiryDate,\r\n                tokenName,\r\n                tickerStatus\r\n            );\r\n        } else {\r\n            return (address(0), uint256(0), uint256(0), \"\", false);\r\n        }\r\n    }\r\n\r\n    /**\r\n     * @notice Returns the security token address by ticker symbol\r\n     * @param _ticker is the ticker of the security token\r\n     * @return address\r\n     */\r\n    function getSecurityTokenAddress(string calldata _ticker) external view returns (address) {\r\n        string memory ticker = Util.upper(_ticker);\r\n        return getAddressValue(Encoder.getKey(\"tickerToSecurityToken\", ticker));\r\n    }\r\n\r\n    /**\r\n    * @notice Returns the security token data by address\r\n    * @param _securityToken is the address of the security token.\r\n    * @return string is the ticker of the security Token.\r\n    * @return address is the issuer of the security Token.\r\n    * @return string is the details of the security token.\r\n    * @return uint256 is the timestamp at which security Token was deployed.\r\n    */\r\n    function getSecurityTokenData(address _securityToken) external view returns (string memory, address, string memory, uint256) {\r\n        return (\r\n            getStringValue(Encoder.getKey(\"securityTokens_ticker\", _securityToken)),\r\n            IOwnable(_securityToken).owner(),\r\n            getStringValue(Encoder.getKey(\"securityTokens_tokenDetails\", _securityToken)),\r\n            getUintValue(Encoder.getKey(\"securityTokens_deployedAt\", _securityToken))\r\n        );\r\n    }\r\n\r\n    /**\r\n     * @notice Returns the current STFactory Address\r\n     */\r\n    function getSTFactoryAddress() public view returns(address) {\r\n        return getAddressValue(Encoder.getKey(\"protocolVersionST\", getUintValue(Encoder.getKey(\"latestVersion\"))));\r\n    }\r\n\r\n    /**\r\n     * @notice Returns the STFactory Address of a particular version\r\n     * @param _protocolVersion Packed protocol version\r\n     */\r\n    function getSTFactoryAddressOfVersion(uint256 _protocolVersion) public view returns(address) {\r\n        return getAddressValue(Encoder.getKey(\"protocolVersionST\", _protocolVersion));\r\n    }\r\n\r\n    /**\r\n     * @notice Gets Protocol version\r\n     */\r\n    function getLatestProtocolVersion() public view returns(uint8[] memory) {\r\n        return VersionUtils.unpack(uint24(getUintValue(Encoder.getKey(\"latestVersion\"))));\r\n    }\r\n\r\n    /**\r\n     * @notice Gets the fee currency\r\n     * @return true = poly, false = usd\r\n     */\r\n    function getIsFeeInPoly() public view returns(bool) {\r\n        return getBoolValue(IS_FEE_IN_POLY);\r\n    }\r\n\r\n    /**\r\n     * @notice Gets the expiry limit\r\n     * @return Expiry limit\r\n     */\r\n    function getExpiryLimit() public view returns(uint256) {\r\n        return getUintValue(EXPIRYLIMIT);\r\n    }\r\n\r\n    /**\r\n     * @notice Gets the status of the ticker\r\n     * @param _ticker Ticker whose status need to determine\r\n     * @return bool\r\n     */\r\n    function getTickerStatus(string memory _ticker) public view returns(bool) {\r\n        return getBoolValue(Encoder.getKey(\"registeredTickers_status\", _ticker));\r\n    }\r\n\r\n    /**\r\n     * @notice Gets the owner of the ticker\r\n     * @param _ticker Ticker whose owner need to determine\r\n     * @return address Address of the owner\r\n     */\r\n    function getTickerOwner(string memory _ticker) public view returns(address) {\r\n        return getAddressValue(Encoder.getKey(\"registeredTickers_owner\", _ticker));\r\n    }\r\n\r\n}\r\n",
  "sourcePath": "C:\\mspace\\polymath-core\\contracts\\STRGetter.sol",
  "compiler": {
    "name": "solc",
    "version": "0.5.8+commit.23d335f2.Emscripten.clang"
  },
  "schemaVersion": "3.0.11",
  "updatedAt": "2019-08-05T22:53:44.995Z",
  "devdoc": {
    "methods": {
      "getExpiryLimit()": {
        "return": "Expiry limit\r"
      },
      "getIsFeeInPoly()": {
        "return": "true = poly, false = usd\r"
      },
      "getSTFactoryAddressOfVersion(uint256)": {
        "params": {
          "_protocolVersion": "Packed protocol version\r"
        }
      },
      "getSecurityTokenAddress(string)": {
        "params": {
          "_ticker": "is the ticker of the security token\r"
        },
        "return": "address\r"
      },
      "getSecurityTokenData(address)": {
        "params": {
          "_securityToken": "is the address of the security token.\r"
        },
        "return": "string is the ticker of the security Token.\raddress is the issuer of the security Token.\rstring is the details of the security token.\ruint256 is the timestamp at which security Token was deployed.\r"
      },
      "getTickerDetails(string)": {
        "params": {
          "_ticker": "is the ticker symbol\r"
        },
        "return": "address\ruint256\ruint256\rstring\rbool\r"
      },
      "getTickerOwner(string)": {
        "params": {
          "_ticker": "Ticker whose owner need to determine\r"
        },
        "return": "address Address of the owner\r"
      },
      "getTickerStatus(string)": {
        "params": {
          "_ticker": "Ticker whose status need to determine\r"
        },
        "return": "bool\r"
      },
      "getTickersByOwner(address)": {
        "params": {
          "_owner": "is the address which owns the list of tickers\r"
        }
      },
      "getTokens()": {
        "details": "Intention is that this is called off-chain so block gas limit is not relevant\r"
      },
      "getTokensByDelegate(address)": {
        "details": "Intention is that this is called off-chain so block gas limit is not relevant\r",
        "params": {
          "_delegate": "is the address for the delegate\r"
        }
      },
      "getTokensByOwner(address)": {
        "details": "Intention is that this is called off-chain so block gas limit is not relevant\r",
        "params": {
          "_owner": "is the address which owns the list of tickers\r"
        }
      }
    }
  },
  "userdoc": {
    "methods": {
      "getArrayAddress(bytes32)": {
        "notice": "getArrayBytes32(keccak256(abi.encodePacked(\"tokensOwnedByOwner\", 0x1)).length;"
      },
      "getExpiryLimit()": {
        "notice": "Gets the expiry limit\r"
      },
      "getIsFeeInPoly()": {
        "notice": "Gets the fee currency\r"
      },
      "getLatestProtocolVersion()": {
        "notice": "Gets Protocol version\r"
      },
      "getSTFactoryAddress()": {
        "notice": "Returns the current STFactory Address\r"
      },
      "getSTFactoryAddressOfVersion(uint256)": {
        "notice": "Returns the STFactory Address of a particular version\r"
      },
      "getSecurityTokenAddress(string)": {
        "notice": "Returns the security token address by ticker symbol\r"
      },
      "getSecurityTokenData(address)": {
        "notice": "Returns the security token data by address\r"
      },
      "getTickerDetails(string)": {
        "notice": "Returns the owner and timestamp for a given ticker\r"
      },
      "getTickerOwner(string)": {
        "notice": "Gets the owner of the ticker\r"
      },
      "getTickerStatus(string)": {
        "notice": "Gets the status of the ticker\r"
      },
      "getTickersByOwner(address)": {
        "notice": "Returns the list of tickers owned by the selected address\r"
      },
      "getTokens()": {
        "notice": "Returns the list of all tokens\r"
      },
      "getTokensByDelegate(address)": {
        "notice": "Returns the list of tokens to which the delegate has some access\r"
      },
      "getTokensByOwner(address)": {
        "notice": "Returns the list of tokens owned by the selected address\r"
      },
      "getUintValue(bytes32)": {
        "notice": "string _name = getString(keccak256(abi.encodePacked(\"registeredSymbols_name\", \"TOKEN\"));"
      }
    }
  }
}