{
  "contractName": "TokenLib",
  "abi": [
    {
      "anonymous": false,
      "inputs": [
        {
          "indexed": false,
          "name": "_types",
          "type": "uint8[]"
        },
        {
          "indexed": false,
          "name": "_module",
          "type": "address"
        }
      ],
      "name": "ModuleUpgraded",
      "type": "event"
    },
    {
      "anonymous": false,
      "inputs": [
        {
          "indexed": false,
          "name": "_types",
          "type": "uint8[]"
        },
        {
          "indexed": false,
          "name": "_module",
          "type": "address"
        }
      ],
      "name": "ModuleArchived",
      "type": "event"
    },
    {
      "anonymous": false,
      "inputs": [
        {
          "indexed": false,
          "name": "_types",
          "type": "uint8[]"
        },
        {
          "indexed": false,
          "name": "_module",
          "type": "address"
        }
      ],
      "name": "ModuleUnarchived",
      "type": "event"
    },
    {
      "anonymous": false,
      "inputs": [
        {
          "indexed": false,
          "name": "_types",
          "type": "uint8[]"
        },
        {
          "indexed": false,
          "name": "_module",
          "type": "address"
        }
      ],
      "name": "ModuleRemoved",
      "type": "event"
    },
    {
      "anonymous": false,
      "inputs": [
        {
          "indexed": false,
          "name": "_moduleTypes",
          "type": "uint8[]"
        },
        {
          "indexed": false,
          "name": "_module",
          "type": "address"
        },
        {
          "indexed": false,
          "name": "_oldBudget",
          "type": "uint256"
        },
        {
          "indexed": false,
          "name": "_budget",
          "type": "uint256"
        }
      ],
      "name": "ModuleBudgetChanged",
      "type": "event"
    },
    {
      "anonymous": false,
      "inputs": [
        {
          "indexed": true,
          "name": "_name",
          "type": "bytes32"
        },
        {
          "indexed": false,
          "name": "_uri",
          "type": "string"
        },
        {
          "indexed": false,
          "name": "_documentHash",
          "type": "bytes32"
        }
      ],
      "name": "DocumentUpdated",
      "type": "event"
    },
    {
      "anonymous": false,
      "inputs": [
        {
          "indexed": true,
          "name": "_name",
          "type": "bytes32"
        },
        {
          "indexed": false,
          "name": "_uri",
          "type": "string"
        },
        {
          "indexed": false,
          "name": "_documentHash",
          "type": "bytes32"
        }
      ],
      "name": "DocumentRemoved",
      "type": "event"
    },
    {
      "constant": true,
      "inputs": [
        {
          "name": "_signature",
          "type": "bytes"
        }
      ],
      "name": "recoverFreezeIssuanceAckSigner",
      "outputs": [
        {
          "name": "",
          "type": "address"
        }
      ],
      "payable": false,
      "stateMutability": "view",
      "type": "function"
    },
    {
      "constant": true,
      "inputs": [
        {
          "name": "_signature",
          "type": "bytes"
        }
      ],
      "name": "recoverDisableControllerAckSigner",
      "outputs": [
        {
          "name": "",
          "type": "address"
        }
      ],
      "payable": false,
      "stateMutability": "view",
      "type": "function"
    },
    {
      "constant": true,
      "inputs": [
        {
          "name": "success",
          "type": "bool"
        },
        {
          "name": "appCode",
          "type": "bytes32"
        },
        {
          "name": "to",
          "type": "address"
        },
        {
          "name": "value",
          "type": "uint256"
        },
        {
          "name": "balanceOfFrom",
          "type": "uint256"
        }
      ],
      "name": "canTransfer",
      "outputs": [
        {
          "name": "",
          "type": "bytes1"
        },
        {
          "name": "",
          "type": "bytes32"
        }
      ],
      "payable": false,
      "stateMutability": "pure",
      "type": "function"
    }
  ],
  "bytecode": "0x6125f6610026600b82828239805160001a60731461001957fe5b30600052607381538281f3fe73000000000000000000000000000000000000000030146080604052600436106100f45760003560e01c80639713735011610096578063c38890e111610070578063c38890e1146104bf578063cc90f5de14610504578063dfb1f4111461052d578063e8f202921461057e576100f4565b80639713735014610420578063ad24261514610459578063b7e2c78914610483576100f4565b80634a02280e116100d25780634a02280e146102825780635a34d4d9146102bb5780637713083e14610345578063943aef7b146103b3576100f4565b806309def7ee146100f95780631658f46a146101315780632c94d97b1461021e575b600080fd5b81801561010557600080fd5b5061012f6004803603606081101561011c57600080fd5b5080359060208101359060400135610611565b005b610203600480360360e081101561014757600080fd5b8135916020810135916001600160a01b0360408301358116926060810135909116916080820135919081019060c0810160a0820135600160201b81111561018d57600080fd5b82018360208201111561019f57600080fd5b803590602001918460018302840111600160201b831117156101c057600080fd5b91908080601f0160208091040260200160405190810160405280939291908181526020018383808284376000920191909152509295505050503515159050610696565b60408051921515835260208301919091528051918290030190f35b61025e600480360360a081101561023457600080fd5b5080351515906020810135906001600160a01b03604082013516906060810135906080013561090d565b604080516001600160f81b0319909316835260208301919091528051918290030190f35b81801561028e57600080fd5b5061012f600480360360408110156102a557600080fd5b506001600160a01b038135169060200135610979565b610329600480360360208110156102d157600080fd5b810190602081018135600160201b8111156102eb57600080fd5b8201836020820111156102fd57600080fd5b803590602001918460018302840111600160201b8311171561031e57600080fd5b509092509050610b63565b604080516001600160a01b039092168252519081900360200190f35b6103296004803603602081101561035b57600080fd5b810190602081018135600160201b81111561037557600080fd5b82018360208201111561038757600080fd5b803590602001918460018302840111600160201b831117156103a857600080fd5b509092509050610be0565b8180156103bf57600080fd5b5061040e600480360360e08110156103d657600080fd5b508035906001600160a01b036020820135811691604081013582169160608201359160808101359160a08201359160c0013516610c53565b60408051918252519081900360200190f35b81801561042c57600080fd5b5061012f6004803603604081101561044357600080fd5b506001600160a01b038135169060200135610df2565b81801561046557600080fd5b5061012f6004803603602081101561047c57600080fd5b5035610f8a565b81801561048f57600080fd5b5061012f600480360360808110156104a657600080fd5b508035906020810135906040810135906060013561110c565b8180156104cb57600080fd5b5061012f600480360360808110156104e257600080fd5b506001600160a01b0381351690602081013590604081013590606001356112f0565b61040e6004803603606081101561051a57600080fd5b5080359060208101359060400135611719565b81801561053957600080fd5b5061012f600480360360a081101561055057600080fd5b506001600160a01b03813581169160208101359160408201351515916060810135909116906080013561189d565b81801561058a57600080fd5b5061012f600480360360c08110156105a157600080fd5b81359160208101359160408201359160608101359181019060a081016080820135600160201b8111156105d357600080fd5b8201836020820111156105e557600080fd5b803590602001918460018302840111600160201b8311171561060657600080fd5b919350915035611c63565b8061061b57610691565b82541580159061064e5750825481908490600019810190811061063a57fe5b906000526020600020906002020160000154145b1561065857610691565b60408051808201909152818152602080820184815285546001818101885560008881529390932093516002909102909301928355519101555b505050565b600080826108e6576000808080805b8d5481101561089a578c60008f83815481106106bd57fe5b60009182526020808320909101546001600160a01b0316835282019290925260400190206002015460ff600160a01b90910416610892576000808f838154811061070357fe5b9060005260206000200160009054906101000a90046001600160a01b03166001600160a01b031663f1d74b0f8f8f8f8f6040518563ffffffff1660e01b815260040180856001600160a01b03166001600160a01b03168152602001846001600160a01b03166001600160a01b0316815260200183815260200180602001828103825283818151815260200191508051906020019080838360005b838110156107b557818101518382015260200161079d565b50505050905090810190601f1680156107e25780820380516001836020036101000a031916815260200191505b5095505050505050604080518083038186803b15801561080157600080fd5b505afa158015610815573d6000803e3d6000fd5b505050506040513d604081101561082b57600080fd5b5080516020909101519092509050600082600381111561084757fe5b1415610859576001965080935061088f565b600282600381111561086757fe5b1415610876576001955061088f565b600382600381111561088457fe5b141561088f57600194505b50505b6001016106a5565b50816108b357836108ab57826108ae565b60005b6108b6565b60015b925082836108c457816108d9565b6108ce6001611e21565b6001600160f81b0319165b9550955050505050610901565b60006108f26004611e21565b6001600160f81b031916915091505b97509795505050505050565b600080866109295761091f6000611e21565b869150915061096f565b838310156109465761093b6002611e21565b91506000905061096f565b6001600160a01b03851661095e5761093b6007611e21565b6109686001611e21565b9150600090505b9550959350505050565b60018101546001600160a01b03166109cf5760408051600160e51b62461bcd02815260206004820152600e6024820152600160901b6d4d6f64756c65206d697373696e6702604482015290519081900360640190fd5b600281015460408051600160e11b631b7791670281526001600160a01b039283166004820152600160248201529051918416916336ef22ce9160448082019260009290919082900301818387803b158015610a2957600080fd5b505af1158015610a3d573d6000803e3d6000fd5b505050506002810154600182015460408051600160e41b62900f010281526001600160a01b03928316600482015290519190921691630900f01091602480830192600092919082900301818387803b158015610a9857600080fd5b505af1158015610aac573d6000803e3d6000fd5b505050506001810154604080516001600160a01b03909216602083018190528183526003840180549284018390527fedc6007cc44783a48ceb845386592c8d22e6e21f3acd887104ba49340ae8cc5d9390928190606082019085908015610b5057602002820191906000526020600020906000905b825461010083900a900460ff16815260206001928301818104948501949093039092029101808411610b215790505b5050935050505060405180910390a15050565b6000610b6d612394565b60405180602001604052806040518060800160405280604d815260200161253b604d91398152509050610bd68185858080601f016020809104026020016040519081016040528093929190818152602001838380828437600092019190915250611e3b92505050565b9150505b92915050565b6000610bea612394565b60405180602001604052806040518060800160405280604a81526020016124f1604a91398152509050610bd68185858080601f016020809104026020016040519081016040528093929190818152602001838380828437600092019190915250611e3b92505050565b600087851580610c745750866001600160a01b0316886001600160a01b0316145b15610c80579050610de7565b84158015610c9657506001600160a01b03871615155b15610dc857610cac81600163ffffffff611fa616565b9050610cb88784611fb8565b610dc85760408051600160e01b6381d65b2d0281527fdf3a8dd24acdd05addfc6aeffef7574d2de3f844535ec91e8e0f3e45dba9673160048201526001600160a01b0389811660248301529151918516916381d65b2d9160448082019260009290919082900301818387803b158015610d3057600080fd5b505af1158015610d44573d6000803e3d6000fd5b50505050826001600160a01b0316634f3029c2610d70600160ba1b6815d2125511531254d5028a61205f565b60016040518363ffffffff1660e01b81526004018083815260200182815260200192505050600060405180830381600087803b158015610daf57600080fd5b505af1158015610dc3573d6000803e3d6000fd5b505050505b83861415610de457610de181600163ffffffff61209816565b90505b90505b979650505050505050565b6002810154600160a01b900460ff16610e555760408051600160e51b62461bcd02815260206004820152601160248201527f4d6f64756c6520756e6172636869766564000000000000000000000000000000604482015290519081900360640190fd5b600281015460408051600160e11b631b7791670281526001600160a01b039283166004820152600160248201529051918416916336ef22ce9160448082019260009290919082900301818387803b158015610eaf57600080fd5b505af1158015610ec3573d6000803e3d6000fd5b505050506001810154604080516001600160a01b03909216602083018190528183526003840180549284018390527fe69e438aa3b4b943ac4c807820403a6e5815b8fbb7fccfac629fce87ff6d430d9390928190606082019085908015610f6757602002820191906000526020600020906000905b825461010083900a900460ff16815260206001928301818104948501949093039092029101808411610f385790505b5050935050505060405180910390a16002018054600160a01b60ff021916905550565b6002810154600160a01b900460ff1615610fee5760408051600160e51b62461bcd02815260206004820152600f60248201527f4d6f64756c652061726368697665640000000000000000000000000000000000604482015290519081900360640190fd5b60018101546001600160a01b03166110445760408051600160e51b62461bcd02815260206004820152600e6024820152600160901b6d4d6f64756c65206d697373696e6702604482015290519081900360640190fd5b6001810154604080516001600160a01b03909216602083018190528183526003840180549284018390527f78914da53c30c0667830d562877caed5c20adc645b8557fa64336c22a9b8ece693909281906060820190859080156110e457602002820191906000526020600020906000905b825461010083900a900460ff168152602060019283018181049485019490930390920291018084116110b55790505b5050935050505060405180910390a16002018054600160a01b60ff021916600160a01b179055565b6000818152602085905260409020600101546111635760408051600160e51b62461bcd02815260206004820152600b6024820152600160aa1b6a139bdd08195e1a5cdd195902604482015290519081900360640190fd5b6000818152602083905260409020548354600019918201910181146111ea5783548490600019810190811061119457fe5b90600052602060002001548482815481106111ab57fe5b9060005260206000200181905550806001018360008684815481106111cc57fe5b90600052602060002001548152602001908152602001600020819055505b83546111fa8560001983016123a7565b5060008281526020868152604091829020805483519283018190528383526002918201805460001961010060018316150201169290920493830184905285937f3d9bba27d3e360d8c80645beed7e991454a8271bf6f269a24f7782be0f0d0654939081906060820190859080156112b25780601f10611287576101008083540402835291602001916112b2565b820191906000526020600020905b81548152906001019060200180831161129557829003601f168201915b5050935050505060405180910390a2600082815260208690526040812081815560018101829055906112e760028301826123cb565b50505050505050565b6001600160a01b038416600090815260208390526040902060020154600160a01b900460ff1661136a5760408051600160e51b62461bcd02815260206004820152600c60248201527f4e6f742061726368697665640000000000000000000000000000000000000000604482015290519081900360640190fd5b6001600160a01b03848116600090815260208490526040902060010154166113d05760408051600160e51b62461bcd02815260206004820152600e6024820152600160901b6d4d6f64756c65206d697373696e6702604482015290519081900360640190fd5b7ff4e9f735975718dce0ac83fb73f88a1b19a48186af0f6348c04c6229eb4b86a0826000866001600160a01b03166001600160a01b03168152602001908152602001600020600301856040518080602001836001600160a01b03166001600160a01b03168152602001828103825284818154815260200191508054801561149457602002820191906000526020600020906000905b825461010083900a900460ff168152602060019283018181049485019490930390920291018084116114655790505b5050935050505060405180910390a16001600160a01b0384166000908152602083815260409182902060030180548351818402810184019094528084526060939283018282801561152257602002820191906000526020600020906000905b825461010083900a900460ff168152602060019283018181049485019490930390920291018084116114f35790505b50939450600093505050505b815181101561159a5761159282828151811061154657fe5b6020026020010151856000896001600160a01b03166001600160a01b03168152602001908152602001600020600401838154811061158057fe5b906000526020600020015487876120ad565b60010161152e565b506001600160a01b0385166000908152602084815260408083206005810154905480855292869052922080549060001982018281106115d557fe5b600091825260208083209091015484835290879052604090912080546001600160a01b03909216918590811061160757fe5b600091825260208083209190910180546001600160a01b0319166001600160a01b039490941693909317909255838152908690526040902060001982019061164f90826123a7565b508260018203146116a45782866000876000868152602001908152602001600020868154811061167b57fe5b60009182526020808320909101546001600160a01b031683528201929092526040019020600501555b6001600160a01b03881660009081526020879052604081208181556001810180546001600160a01b03191690556002810180546001600160a81b0319169055906116f16003830182612412565b6116ff600483016000612437565b506000600582018190556006909101555050505050505050565b60008261172857506000611896565b8354611735575080611896565b828460008154811061174357fe5b90600052602060002090600202016000015410611780578360008154811061176757fe5b9060005260206000209060020201600101549050611896565b835483908590600019810190811061179457fe5b90600052602060002090600202016000015410156117b3575080611896565b83548390859060001981019081106117c757fe5b90600052602060002090600202016000015414156117f15783548490600019810190811061176757fe5b8354600090600019015b8181111561187357600060028284010490508587828154811061181a57fe5b9060005260206000209060020201600001541415611839579050611873565b8587828154811061184657fe5b90600052602060002090600202016000015410156118695780600101925061186d565b8091505b506117fb565b85818154811061187f57fe5b906000526020600020906002020160010154925050505b9392505050565b6001600160a01b03858116600090815260208390526040902060010154166119035760408051600160e51b62461bcd02815260206004820152600e6024820152600160901b6d4d6f64756c65206d697373696e6702604482015290519081900360640190fd5b60408051600160e11b636eb1769f0281523060048201526001600160a01b038781166024830152915160009285169163dd62ed3e916044808301926020929190829003018186803b15801561195757600080fd5b505afa15801561196b573d6000803e3d6000fd5b505050506040513d602081101561198157600080fd5b5051905060008415611a8457836001600160a01b031663d73dd62388886040518363ffffffff1660e01b815260040180836001600160a01b03166001600160a01b0316815260200182815260200192505050602060405180830381600087803b1580156119ed57600080fd5b505af1158015611a01573d6000803e3d6000fd5b505050506040513d6020811015611a1757600080fd5b5051611a6d5760408051600160e51b62461bcd02815260206004820152601560248201527f496e637265617365417070726f76616c206661696c0000000000000000000000604482015290519081900360640190fd5b611a7d828763ffffffff611fa616565b9050611b77565b836001600160a01b0316636618846388886040518363ffffffff1660e01b815260040180836001600160a01b03166001600160a01b0316815260200182815260200192505050602060405180830381600087803b158015611ae457600080fd5b505af1158015611af8573d6000803e3d6000fd5b505050506040513d6020811015611b0e57600080fd5b5051611b645760408051600160e51b62461bcd02815260206004820152601660248201527f496e73756666696369656e7420616c6c6f77616e636500000000000000000000604482015290519081900360640190fd5b611b74828763ffffffff61209816565b90505b7fa00a1c33ebb7433724919cb1059328c16265f935ef84a13442045da3e81c0ccc836000896001600160a01b03166001600160a01b031681526020019081526020016000206003018884846040518080602001856001600160a01b03166001600160a01b031681526020018481526020018381526020018281038252868181548152602001915080548015611c4957602002820191906000526020600020906000905b825461010083900a900460ff16815260206001928301818104948501949093039092029101808411611c1a5790505b50509550505050505060405180910390a150505050505050565b83611ca65760408051600160e51b62461bcd0281526020600482015260086024820152600160c01b67426164206e616d6502604482015290519081900360640190fd5b81611ce85760408051600160e51b62461bcd0281526020600482015260076024820152600160c81b664261642075726902604482015290519081900360640190fd5b600084815260208890526040902060010154611d255785546001810187556000878152602080822090920186905587548682529187905260409020555b604051806060016040528082815260200142815260200184848080601f016020809104026020016040519081016040528093929190818152602001838380828437600092018290525093909452505086815260208a815260409182902084518155848201516001820155918401518051929350611dab9260028501929190910190612455565b50905050837fb4c22d60cd550a815744f04e3ff5278bf19684565ee00e2b084041b6024bd6f684848460405180806020018381526020018281038252858582818152602001925080828437600083820152604051601f909101601f1916909201829003965090945050505050a250505050505050565b6000816008811115611e2f57fe5b60500160f81b92915050565b6000806000808451604114611e565760009350505050610bda565b50505060208201516040830151606084015160001a601b811015611e7857601b015b8060ff16601b14158015611e9057508060ff16601c14155b15611ea15760009350505050610bda565b6040805160a081018252600860608201908152600160c31b670a0ded8f2dac2e8d0260808301528152600160208201523091810191909152600090611ee5906122bc565b9050600081611ef38961232f565b6040516020018080600160f01b611901028152506002018381526020018281526020019250505060405160208183030381529060405280519060200120905060018184878760405160008152602001604052604051808581526020018460ff1660ff1681526020018381526020018281526020019450505050506020604051602081039080840390855afa158015611f8f573d6000803e3d6000fd5b5050604051601f1901519998505050505050505050565b60008282018381101561189657600080fd5b600080826001600160a01b03166333598b00611fe3600160ba1b6815d2125511531254d5028761205f565b6040518263ffffffff1660e01b81526004018082815260200191505060206040518083038186803b15801561201757600080fd5b505afa15801561202b573d6000803e3d6000fd5b505050506040513d602081101561204157600080fd5b5051905060ff811615612055576001610bd6565b5060009392505050565b604080516020808201949094526001600160a01b039290921660601b828201528051808303603401815260549092019052805191012090565b6000828211156120a757600080fd5b50900390565b60ff8416600090815260208390526040902080549060001982018281106120d057fe5b600091825260208083209091015460ff8816835290859052604090912080546001600160a01b03909216918690811061210557fe5b600091825260208083209190910180546001600160a01b0319166001600160a01b03949094169390931790925560ff87168152908490526040902060001982019061215090826123a7565b508360018203146122b55760608260008560008960ff1660ff168152602001908152602001600020878154811061218357fe5b60009182526020808320909101546001600160a01b0316835282810193909352604091820190206003018054825181850281018501909352808352919290919083018282801561221057602002820191906000526020600020906000905b825461010083900a900460ff168152602060019283018181049485019490930390920291018084116121e15790505b50939450600093505050505b81518110156112e7578660ff1682828151811061223557fe5b602002602001015160ff1614156122ad57858460008760008b60ff1660ff168152602001908152602001600020898154811061226d57fe5b60009182526020808320909101546001600160a01b0316835282019290925260400190206004018054839081106122a057fe5b6000918252602090912001555b60010161221c565b5050505050565b600060405180806125886043913960408051918290036043018220855180516020918201208188015188850151838701949094528585019190915260608501526001600160a01b039091166080808501919091528251808503909101815260a09093019091528151910120915050919050565b604080517f41636b6e6f776c6564676d656e7428737472696e6720746578742900000000008152815190819003601b01812083518051602091820120818401929092528284019190915282518083038401815260609092019092528051910120919050565b6040518060200160405280606081525090565b815481835581811115610691576000838152602090206106919181019083016124d3565b50805460018160011615610100020316600290046000825580601f106123f1575061240f565b601f01602090049060005260206000209081019061240f91906124d3565b50565b50805460008255601f01602090049060005260206000209081019061240f91906124d3565b508054600082559060005260206000209081019061240f91906124d3565b828054600181600116156101000203166002900490600052602060002090601f016020900481019282601f1061249657805160ff19168380011785556124c3565b828001600101855582156124c3579182015b828111156124c35782518255916020019190600101906124a8565b506124cf9291506124d3565b5090565b6124ed91905b808211156124cf57600081556001016124d9565b9056fe492061636b6e6f776c65646765207468617420667265657a696e672049737375616e63652069732061207065726d616e656e7420616e642069727265766f6361626c65206368616e6765492061636b6e6f776c6564676520746861742064697361626c696e6720636f6e74726f6c6c65722069732061207065726d616e656e7420616e642069727265766f6361626c65206368616e6765454950373132446f6d61696e28737472696e67206e616d652c75696e7432353620636861696e49642c6164647265737320766572696679696e67436f6e747261637429a165627a7a7230582068885b5938bd291a937c8164544397cee942c19d11924938627a891bd24d31360029",
  "source": "pragma solidity 0.5.8;\r\n\r\nimport \"../interfaces/IPoly.sol\";\r\nimport \"./StatusCodes.sol\";\r\nimport \"../modules/UpgradableModuleFactory.sol\";\r\nimport \"../interfaces/IDataStore.sol\";\r\nimport \"../tokens/SecurityTokenStorage.sol\";\r\nimport \"../interfaces/ITransferManager.sol\";\r\nimport \"../modules/UpgradableModuleFactory.sol\";\r\nimport \"openzeppelin-solidity/contracts/math/SafeMath.sol\";\r\nimport \"../modules/PermissionManager/IPermissionManager.sol\";\r\nimport \"openzeppelin-solidity/contracts/token/ERC20/IERC20.sol\";\r\n\r\nlibrary TokenLib {\r\n\r\n    using SafeMath for uint256;\r\n\r\n    struct EIP712Domain {\r\n        string  name;\r\n        uint256 chainId;\r\n        address verifyingContract;\r\n    }\r\n\r\n    struct Acknowledgment {\r\n        string text;\r\n    }\r\n\r\n    bytes32 constant EIP712DOMAIN_TYPEHASH = keccak256(\r\n        \"EIP712Domain(string name,uint256 chainId,address verifyingContract)\"\r\n    );\r\n\r\n    bytes32 constant ACK_TYPEHASH = keccak256(\r\n        \"Acknowledgment(string text)\"\r\n    );\r\n\r\n    bytes32 internal constant WHITELIST = \"WHITELIST\";\r\n    bytes32 internal constant INVESTORSKEY = 0xdf3a8dd24acdd05addfc6aeffef7574d2de3f844535ec91e8e0f3e45dba96731; //keccak256(abi.encodePacked(\"INVESTORS\"))\r\n\r\n    // Emit when Module get upgraded from the securityToken\r\n    event ModuleUpgraded(uint8[] _types, address _module);\r\n    // Emit when Module is archived from the SecurityToken\r\n    event ModuleArchived(uint8[] _types, address _module);\r\n    // Emit when Module is unarchived from the SecurityToken\r\n    event ModuleUnarchived(uint8[] _types, address _module);\r\n    // Emit when Module get removed from the securityToken\r\n    event ModuleRemoved(uint8[] _types, address _module);\r\n    // Emit when the budget allocated to a module is changed\r\n    event ModuleBudgetChanged(uint8[] _moduleTypes, address _module, uint256 _oldBudget, uint256 _budget);\r\n    // Emit when document is added/removed\r\n    event DocumentUpdated(bytes32 indexed _name, string _uri, bytes32 _documentHash);\r\n    event DocumentRemoved(bytes32 indexed _name, string _uri, bytes32 _documentHash);\r\n\r\n    function hash(EIP712Domain memory _eip712Domain) internal pure returns (bytes32) {\r\n        return keccak256(\r\n            abi.encode(\r\n                EIP712DOMAIN_TYPEHASH,\r\n                keccak256(bytes(_eip712Domain.name)),\r\n                _eip712Domain.chainId,\r\n                _eip712Domain.verifyingContract\r\n            )\r\n        );\r\n    }\r\n\r\n    function hash(Acknowledgment memory _ack) internal pure returns (bytes32) {\r\n        return keccak256(abi.encode(ACK_TYPEHASH, keccak256(bytes(_ack.text))));\r\n    }\r\n\r\n    function recoverFreezeIssuanceAckSigner(bytes calldata _signature) external view returns (address) {\r\n        Acknowledgment memory ack = Acknowledgment(\"I acknowledge that freezing Issuance is a permanent and irrevocable change\");\r\n        return extractSigner(ack, _signature);\r\n    }\r\n\r\n    function recoverDisableControllerAckSigner(bytes calldata _signature) external view returns (address) {\r\n        Acknowledgment memory ack = Acknowledgment(\"I acknowledge that disabling controller is a permanent and irrevocable change\");\r\n        return extractSigner(ack, _signature);\r\n    }\r\n\r\n    function extractSigner(Acknowledgment memory _ack, bytes memory _signature) internal view returns (address) {\r\n        bytes32 r;\r\n        bytes32 s;\r\n        uint8 v;\r\n\r\n        // Check the signature length\r\n        if (_signature.length != 65) {\r\n            return (address(0));\r\n        }\r\n\r\n        // Divide the signature in r, s and v variables\r\n        // ecrecover takes the signature parameters, and the only way to get them\r\n        // currently is to use assembly.\r\n        // solhint-disable-next-line no-inline-assembly\r\n        assembly {\r\n            r := mload(add(_signature, 0x20))\r\n            s := mload(add(_signature, 0x40))\r\n            v := byte(0, mload(add(_signature, 0x60)))\r\n        }\r\n\r\n        // Version of signature should be 27 or 28, but 0 and 1 are also possible versions\r\n        if (v < 27) {\r\n            v += 27;\r\n        }\r\n\r\n        // If the version is correct return the signer address\r\n        if (v != 27 && v != 28) {\r\n            return (address(0));\r\n        }\r\n\r\n        bytes32 DOMAIN_SEPARATOR = hash(\r\n            EIP712Domain(\r\n                {\r\n                    name: \"Polymath\",\r\n                    chainId: 1,\r\n                    verifyingContract: address(this)\r\n                }\r\n            )\r\n        );\r\n\r\n        // Note: we need to use `encodePacked` here instead of `encode`.\r\n        bytes32 digest = keccak256(abi.encodePacked(\r\n            \"\\x19\\x01\",\r\n            DOMAIN_SEPARATOR,\r\n            hash(_ack)\r\n        ));\r\n        return ecrecover(digest, v, r, s);\r\n    }\r\n\r\n    /**\r\n    * @notice Archives a module attached to the SecurityToken\r\n    * @param _moduleData Storage data\r\n    */\r\n    function archiveModule(SecurityTokenStorage.ModuleData storage _moduleData) external {\r\n        require(!_moduleData.isArchived, \"Module archived\");\r\n        require(_moduleData.module != address(0), \"Module missing\");\r\n        /*solium-disable-next-line security/no-block-members*/\r\n        emit ModuleArchived(_moduleData.moduleTypes, _moduleData.module);\r\n        _moduleData.isArchived = true;\r\n    }\r\n\r\n    /**\r\n    * @notice Unarchives a module attached to the SecurityToken\r\n    * @param _moduleData Storage data\r\n    */\r\n    function unarchiveModule(IModuleRegistry _moduleRegistry, SecurityTokenStorage.ModuleData storage _moduleData) external {\r\n        require(_moduleData.isArchived, \"Module unarchived\");\r\n        /*solium-disable-next-line security/no-block-members*/\r\n        // Check the version is still valid - can only be false if token was upgraded between unarchive / archive\r\n        _moduleRegistry.useModule(_moduleData.moduleFactory, true);\r\n        emit ModuleUnarchived(_moduleData.moduleTypes, _moduleData.module);\r\n        _moduleData.isArchived = false;\r\n    }\r\n\r\n    /**\r\n    * @notice Upgrades a module attached to the SecurityToken\r\n    * @param _moduleData Storage data\r\n    */\r\n    function upgradeModule(IModuleRegistry _moduleRegistry, SecurityTokenStorage.ModuleData storage _moduleData) external {\r\n        require(_moduleData.module != address(0), \"Module missing\");\r\n        //Check module is verified and within version bounds\r\n        _moduleRegistry.useModule(_moduleData.moduleFactory, true);\r\n        // Will revert if module isn't upgradable\r\n        UpgradableModuleFactory(_moduleData.moduleFactory).upgrade(_moduleData.module);\r\n        emit ModuleUpgraded(_moduleData.moduleTypes, _moduleData.module);\r\n    }\r\n\r\n    /**\r\n    * @notice Removes a module attached to the SecurityToken\r\n    * @param _module address of module to unarchive\r\n    */\r\n    function removeModule(\r\n        address _module,\r\n        mapping(uint8 => address[]) storage _modules,\r\n        mapping(address => SecurityTokenStorage.ModuleData) storage _modulesToData,\r\n        mapping(bytes32 => address[]) storage _names\r\n    )\r\n        external\r\n    {\r\n        require(_modulesToData[_module].isArchived, \"Not archived\");\r\n        require(_modulesToData[_module].module != address(0), \"Module missing\");\r\n        /*solium-disable-next-line security/no-block-members*/\r\n        emit ModuleRemoved(_modulesToData[_module].moduleTypes, _module);\r\n        // Remove from module type list\r\n        uint8[] memory moduleTypes = _modulesToData[_module].moduleTypes;\r\n        for (uint256 i = 0; i < moduleTypes.length; i++) {\r\n            _removeModuleWithIndex(moduleTypes[i], _modulesToData[_module].moduleIndexes[i], _modules, _modulesToData);\r\n            /* modulesToData[_module].moduleType[moduleTypes[i]] = false; */\r\n        }\r\n        // Remove from module names list\r\n        uint256 index = _modulesToData[_module].nameIndex;\r\n        bytes32 name = _modulesToData[_module].name;\r\n        uint256 length = _names[name].length;\r\n        _names[name][index] = _names[name][length - 1];\r\n        _names[name].length = length - 1;\r\n        if ((length - 1) != index) {\r\n            _modulesToData[_names[name][index]].nameIndex = index;\r\n        }\r\n        // Remove from modulesToData\r\n        delete _modulesToData[_module];\r\n    }\r\n\r\n    /**\r\n    * @notice Internal - Removes a module attached to the SecurityToken by index\r\n    */\r\n    function _removeModuleWithIndex(\r\n        uint8 _type,\r\n        uint256 _index,\r\n        mapping(uint8 => address[]) storage _modules,\r\n        mapping(address => SecurityTokenStorage.ModuleData) storage _modulesToData\r\n    )\r\n        internal\r\n    {\r\n        uint256 length = _modules[_type].length;\r\n        _modules[_type][_index] = _modules[_type][length - 1];\r\n        _modules[_type].length = length - 1;\r\n\r\n        if ((length - 1) != _index) {\r\n            //Need to find index of _type in moduleTypes of module we are moving\r\n            uint8[] memory newTypes = _modulesToData[_modules[_type][_index]].moduleTypes;\r\n            for (uint256 i = 0; i < newTypes.length; i++) {\r\n                if (newTypes[i] == _type) {\r\n                    _modulesToData[_modules[_type][_index]].moduleIndexes[i] = _index;\r\n                }\r\n            }\r\n        }\r\n    }\r\n\r\n    /**\r\n    * @notice allows owner to increase/decrease POLY approval of one of the modules\r\n    * @param _module module address\r\n    * @param _change change in allowance\r\n    * @param _increase true if budget has to be increased, false if decrease\r\n    */\r\n    function changeModuleBudget(\r\n        address _module,\r\n        uint256 _change,\r\n        bool _increase,\r\n        IERC20 _polyToken,\r\n        mapping(address => SecurityTokenStorage.ModuleData) storage _modulesToData\r\n    )\r\n        external\r\n    {\r\n        require(_modulesToData[_module].module != address(0), \"Module missing\");\r\n        uint256 currentAllowance = _polyToken.allowance(address(this), _module);\r\n        uint256 newAllowance;\r\n        if (_increase) {\r\n            require(IPoly(address(_polyToken)).increaseApproval(_module, _change), \"IncreaseApproval fail\");\r\n            newAllowance = currentAllowance.add(_change);\r\n        } else {\r\n            require(IPoly(address(_polyToken)).decreaseApproval(_module, _change), \"Insufficient allowance\");\r\n            newAllowance = currentAllowance.sub(_change);\r\n        }\r\n        emit ModuleBudgetChanged(_modulesToData[_module].moduleTypes, _module, currentAllowance, newAllowance);\r\n    }\r\n\r\n    /**\r\n     * @notice Queries a value at a defined checkpoint\r\n     * @param _checkpoints is array of Checkpoint objects\r\n     * @param _checkpointId is the Checkpoint ID to query\r\n     * @param _currentValue is the Current value of checkpoint\r\n     * @return uint256\r\n     */\r\n    function getValueAt(SecurityTokenStorage.Checkpoint[] storage _checkpoints, uint256 _checkpointId, uint256 _currentValue) external view returns(uint256) {\r\n        //Checkpoint id 0 is when the token is first created - everyone has a zero balance\r\n        if (_checkpointId == 0) {\r\n            return 0;\r\n        }\r\n        if (_checkpoints.length == 0) {\r\n            return _currentValue;\r\n        }\r\n        if (_checkpoints[0].checkpointId >= _checkpointId) {\r\n            return _checkpoints[0].value;\r\n        }\r\n        if (_checkpoints[_checkpoints.length - 1].checkpointId < _checkpointId) {\r\n            return _currentValue;\r\n        }\r\n        if (_checkpoints[_checkpoints.length - 1].checkpointId == _checkpointId) {\r\n            return _checkpoints[_checkpoints.length - 1].value;\r\n        }\r\n        uint256 min = 0;\r\n        uint256 max = _checkpoints.length - 1;\r\n        while (max > min) {\r\n            uint256 mid = (max + min) / 2;\r\n            if (_checkpoints[mid].checkpointId == _checkpointId) {\r\n                max = mid;\r\n                break;\r\n            }\r\n            if (_checkpoints[mid].checkpointId < _checkpointId) {\r\n                min = mid + 1;\r\n            } else {\r\n                max = mid;\r\n            }\r\n        }\r\n        return _checkpoints[max].value;\r\n    }\r\n\r\n    /**\r\n     * @notice Stores the changes to the checkpoint objects\r\n     * @param _checkpoints is the affected checkpoint object array\r\n     * @param _newValue is the new value that needs to be stored\r\n     */\r\n    function adjustCheckpoints(SecurityTokenStorage.Checkpoint[] storage _checkpoints, uint256 _newValue, uint256 _currentCheckpointId) external {\r\n        //No checkpoints set yet\r\n        if (_currentCheckpointId == 0) {\r\n            return;\r\n        }\r\n        //No new checkpoints since last update\r\n        if ((_checkpoints.length > 0) && (_checkpoints[_checkpoints.length - 1].checkpointId == _currentCheckpointId)) {\r\n            return;\r\n        }\r\n        //New checkpoint, so record balance\r\n        _checkpoints.push(SecurityTokenStorage.Checkpoint({checkpointId: _currentCheckpointId, value: _newValue}));\r\n    }\r\n\r\n    /**\r\n    * @notice Keeps track of the number of non-zero token holders\r\n    * @param _holderCount Number of current token holders\r\n    * @param _from Sender of transfer\r\n    * @param _to Receiver of transfer\r\n    * @param _value Value of transfer\r\n    * @param _balanceTo Balance of the _to address\r\n    * @param _balanceFrom Balance of the _from address\r\n    * @param _dataStore address of data store\r\n    */\r\n    function adjustInvestorCount(\r\n        uint256 _holderCount,\r\n        address _from,\r\n        address _to,\r\n        uint256 _value,\r\n        uint256 _balanceTo,\r\n        uint256 _balanceFrom,\r\n        IDataStore _dataStore\r\n    )\r\n        external\r\n        returns(uint256)\r\n    {\r\n        uint256 holderCount = _holderCount;\r\n        if ((_value == 0) || (_from == _to)) {\r\n            return holderCount;\r\n        }\r\n        // Check whether receiver is a new token holder\r\n        if ((_balanceTo == 0) && (_to != address(0))) {\r\n            holderCount = holderCount.add(1);\r\n            if (!_isExistingInvestor(_to, _dataStore)) {\r\n                _dataStore.insertAddress(INVESTORSKEY, _to);\r\n                //KYC data can not be present if added is false and hence we can set packed KYC as uint256(1) to set added as true\r\n                _dataStore.setUint256(_getKey(WHITELIST, _to), uint256(1));\r\n            }\r\n        }\r\n        // Check whether sender is moving all of their tokens\r\n        if (_value == _balanceFrom) {\r\n            holderCount = holderCount.sub(1);\r\n        }\r\n\r\n        return holderCount;\r\n    }\r\n\r\n    /**\r\n     * @notice Used to attach a new document to the contract, or update the URI or hash of an existing attached document\r\n     * @param name Name of the document. It should be unique always\r\n     * @param uri Off-chain uri of the document from where it is accessible to investors/advisors to read.\r\n     * @param documentHash hash (of the contents) of the document.\r\n     */\r\n    function setDocument(\r\n        mapping(bytes32 => SecurityTokenStorage.Document) storage document,\r\n        bytes32[] storage docNames,\r\n        mapping(bytes32 => uint256) storage docIndexes,\r\n        bytes32 name,\r\n        string calldata uri,\r\n        bytes32 documentHash\r\n    )\r\n        external\r\n    {\r\n        require(name != bytes32(0), \"Bad name\");\r\n        require(bytes(uri).length > 0, \"Bad uri\");\r\n        if (document[name].lastModified == uint256(0)) {\r\n            docNames.push(name);\r\n            docIndexes[name] = docNames.length;\r\n        }\r\n        document[name] = SecurityTokenStorage.Document(documentHash, now, uri);\r\n        emit DocumentUpdated(name, uri, documentHash);\r\n    }\r\n\r\n    /**\r\n     * @notice Used to remove an existing document from the contract by giving the name of the document.\r\n     * @dev Can only be executed by the owner of the contract.\r\n     * @param name Name of the document. It should be unique always\r\n     */\r\n    function removeDocument(\r\n        mapping(bytes32 => SecurityTokenStorage.Document) storage document,\r\n        bytes32[] storage docNames,\r\n        mapping(bytes32 => uint256) storage docIndexes,\r\n        bytes32 name\r\n    )\r\n        external\r\n    {\r\n        require(document[name].lastModified != uint256(0), \"Not existed\");\r\n        uint256 index = docIndexes[name] - 1;\r\n        if (index != docNames.length - 1) {\r\n            docNames[index] = docNames[docNames.length - 1];\r\n            docIndexes[docNames[index]] = index + 1;\r\n        }\r\n        docNames.length--;\r\n        emit DocumentRemoved(name, document[name].uri, document[name].docHash);\r\n        delete document[name];\r\n    }\r\n\r\n    /**\r\n     * @notice Validate transfer with TransferManager module if it exists\r\n     * @dev TransferManager module has a key of 2\r\n     * @param modules Array of addresses for transfer managers\r\n     * @param modulesToData Mapping of the modules details\r\n     * @param from sender of transfer\r\n     * @param to receiver of transfer\r\n     * @param value value of transfer\r\n     * @param data data to indicate validation\r\n     * @param transfersFrozen whether the transfer are frozen or not.\r\n     * @return bool\r\n     */\r\n    function verifyTransfer(\r\n        address[] storage modules,\r\n        mapping(address => SecurityTokenStorage.ModuleData) storage modulesToData,\r\n        address from,\r\n        address to,\r\n        uint256 value,\r\n        bytes memory data,\r\n        bool transfersFrozen\r\n    )\r\n        public //Marked public to avoid stack too deep error\r\n        view\r\n        returns(bool, bytes32)\r\n    {\r\n        if (!transfersFrozen) {\r\n            bool isInvalid = false;\r\n            bool isValid = false;\r\n            bool isForceValid = false;\r\n            // Use the local variables to avoid the stack too deep error\r\n            bytes32 appCode;\r\n            for (uint256 i = 0; i < modules.length; i++) {\r\n                if (!modulesToData[modules[i]].isArchived) {\r\n                    (ITransferManager.Result valid, bytes32 reason) = ITransferManager(modules[i]).verifyTransfer(from, to, value, data);\r\n                    if (valid == ITransferManager.Result.INVALID) {\r\n                        isInvalid = true;\r\n                        appCode = reason;\r\n                    } else if (valid == ITransferManager.Result.VALID) {\r\n                        isValid = true;\r\n                    } else if (valid == ITransferManager.Result.FORCE_VALID) {\r\n                        isForceValid = true;\r\n                    }\r\n                }\r\n            }\r\n            // Use the local variables to avoid the stack too deep error\r\n            isValid = isForceValid ? true : (isInvalid ? false : isValid);\r\n            return (isValid, isValid ? bytes32(StatusCodes.code(StatusCodes.Status.TransferSuccess)): appCode);\r\n        }\r\n        return (false, bytes32(StatusCodes.code(StatusCodes.Status.TransfersHalted)));\r\n    }\r\n\r\n    function canTransfer(\r\n        bool success,\r\n        bytes32 appCode,\r\n        address to,\r\n        uint256 value,\r\n        uint256 balanceOfFrom\r\n    )\r\n        external\r\n        pure\r\n        returns (byte, bytes32)\r\n    {\r\n        if (!success)\r\n            return (StatusCodes.code(StatusCodes.Status.TransferFailure), appCode);\r\n\r\n        if (balanceOfFrom < value)\r\n            return (StatusCodes.code(StatusCodes.Status.InsufficientBalance), bytes32(0));\r\n\r\n        if (to == address(0))\r\n            return (StatusCodes.code(StatusCodes.Status.InvalidReceiver), bytes32(0));\r\n\r\n        // Balance overflow can never happen due to totalsupply being a uint256 as well\r\n        // else if (!KindMath.checkAdd(balanceOf(_to), _value))\r\n        //     return (0x50, bytes32(0));\r\n\r\n        return (StatusCodes.code(StatusCodes.Status.TransferSuccess), bytes32(0));\r\n    }\r\n\r\n    function _getKey(bytes32 _key1, address _key2) internal pure returns(bytes32) {\r\n        return bytes32(keccak256(abi.encodePacked(_key1, _key2)));\r\n    }\r\n\r\n    function _isExistingInvestor(address _investor, IDataStore dataStore) internal view returns(bool) {\r\n        uint256 data = dataStore.getUint256(_getKey(WHITELIST, _investor));\r\n        //extracts `added` from packed `whitelistData`\r\n        return uint8(data) == 0 ? false : true;\r\n    }\r\n\r\n}\r\n",
  "sourcePath": "C:\\mspace\\polymath-core\\contracts\\libraries\\TokenLib.sol",
  "compiler": {
    "name": "solc",
    "version": "0.5.8+commit.23d335f2.Emscripten.clang"
  },
  "schemaVersion": "3.0.11",
  "updatedAt": "2019-08-05T22:53:44.915Z",
  "devdoc": {
    "methods": {
      "adjustCheckpoints(SecurityTokenStorage.Checkpoint[] storage,uint256,uint256)": {
        "params": {
          "_checkpoints": "is the affected checkpoint object array\r",
          "_newValue": "is the new value that needs to be stored\r"
        }
      },
      "adjustInvestorCount(uint256,address,address,uint256,uint256,uint256,IDataStore)": {
        "params": {
          "_balanceFrom": "Balance of the _from address\r",
          "_balanceTo": "Balance of the _to address\r",
          "_dataStore": "address of data store\r",
          "_from": "Sender of transfer\r",
          "_holderCount": "Number of current token holders\r",
          "_to": "Receiver of transfer\r",
          "_value": "Value of transfer\r"
        }
      },
      "archiveModule(SecurityTokenStorage.ModuleData storage)": {
        "params": {
          "_moduleData": "Storage data\r"
        }
      },
      "changeModuleBudget(address,uint256,bool,IERC20,mapping(address => SecurityTokenStorage.ModuleData) storage)": {
        "params": {
          "_change": "change in allowance\r",
          "_increase": "true if budget has to be increased, false if decrease\r",
          "_module": "module address\r"
        }
      },
      "getValueAt(SecurityTokenStorage.Checkpoint[] storage,uint256,uint256)": {
        "params": {
          "_checkpointId": "is the Checkpoint ID to query\r",
          "_checkpoints": "is array of Checkpoint objects\r",
          "_currentValue": "is the Current value of checkpoint\r"
        },
        "return": "uint256\r"
      },
      "removeDocument(mapping(bytes32 => SecurityTokenStorage.Document) storage,bytes32[] storage,mapping(bytes32 => uint256) storage,bytes32)": {
        "details": "Can only be executed by the owner of the contract.\r",
        "params": {
          "name": "Name of the document. It should be unique always\r"
        }
      },
      "removeModule(address,mapping(uint8 => address[]) storage,mapping(address => SecurityTokenStorage.ModuleData) storage,mapping(bytes32 => address[]) storage)": {
        "params": {
          "_module": "address of module to unarchive\r"
        }
      },
      "setDocument(mapping(bytes32 => SecurityTokenStorage.Document) storage,bytes32[] storage,mapping(bytes32 => uint256) storage,bytes32,string,bytes32)": {
        "params": {
          "documentHash": "hash (of the contents) of the document.\r",
          "name": "Name of the document. It should be unique always\r",
          "uri": "Off-chain uri of the document from where it is accessible to investors/advisors to read.\r"
        }
      },
      "unarchiveModule(IModuleRegistry,SecurityTokenStorage.ModuleData storage)": {
        "params": {
          "_moduleData": "Storage data\r"
        }
      },
      "upgradeModule(IModuleRegistry,SecurityTokenStorage.ModuleData storage)": {
        "params": {
          "_moduleData": "Storage data\r"
        }
      },
      "verifyTransfer(address[] storage,mapping(address => SecurityTokenStorage.ModuleData) storage,address,address,uint256,bytes,bool)": {
        "details": "TransferManager module has a key of 2\r",
        "params": {
          "data": "data to indicate validation\r",
          "from": "sender of transfer\r",
          "modules": "Array of addresses for transfer managers\r",
          "modulesToData": "Mapping of the modules details\r",
          "to": "receiver of transfer\r",
          "transfersFrozen": "whether the transfer are frozen or not.\r",
          "value": "value of transfer\r"
        },
        "return": "bool\r"
      }
    }
  },
  "userdoc": {
    "methods": {
      "adjustCheckpoints(SecurityTokenStorage.Checkpoint[] storage,uint256,uint256)": {
        "notice": "Stores the changes to the checkpoint objects\r"
      },
      "adjustInvestorCount(uint256,address,address,uint256,uint256,uint256,IDataStore)": {
        "notice": "Keeps track of the number of non-zero token holders\r"
      },
      "archiveModule(SecurityTokenStorage.ModuleData storage)": {
        "notice": "Archives a module attached to the SecurityToken\r"
      },
      "changeModuleBudget(address,uint256,bool,IERC20,mapping(address => SecurityTokenStorage.ModuleData) storage)": {
        "notice": "allows owner to increase/decrease POLY approval of one of the modules\r"
      },
      "getValueAt(SecurityTokenStorage.Checkpoint[] storage,uint256,uint256)": {
        "notice": "Queries a value at a defined checkpoint\r"
      },
      "removeDocument(mapping(bytes32 => SecurityTokenStorage.Document) storage,bytes32[] storage,mapping(bytes32 => uint256) storage,bytes32)": {
        "notice": "Used to remove an existing document from the contract by giving the name of the document.\r"
      },
      "removeModule(address,mapping(uint8 => address[]) storage,mapping(address => SecurityTokenStorage.ModuleData) storage,mapping(bytes32 => address[]) storage)": {
        "notice": "Removes a module attached to the SecurityToken\r"
      },
      "setDocument(mapping(bytes32 => SecurityTokenStorage.Document) storage,bytes32[] storage,mapping(bytes32 => uint256) storage,bytes32,string,bytes32)": {
        "notice": "Used to attach a new document to the contract, or update the URI or hash of an existing attached document\r"
      },
      "unarchiveModule(IModuleRegistry,SecurityTokenStorage.ModuleData storage)": {
        "notice": "Unarchives a module attached to the SecurityToken\r"
      },
      "upgradeModule(IModuleRegistry,SecurityTokenStorage.ModuleData storage)": {
        "notice": "Upgrades a module attached to the SecurityToken\r"
      },
      "verifyTransfer(address[] storage,mapping(address => SecurityTokenStorage.ModuleData) storage,address,address,uint256,bytes,bool)": {
        "notice": "Validate transfer with TransferManager module if it exists\r"
      }
    }
  }
}