{
  "contractName": "TrackedRedemption",
  "abi": [
    {
      "constant": false,
      "inputs": [],
      "name": "reclaimETH",
      "outputs": [],
      "payable": false,
      "stateMutability": "nonpayable",
      "type": "function"
    },
    {
      "constant": true,
      "inputs": [],
      "name": "ADMIN",
      "outputs": [
        {
          "name": "",
          "type": "bytes32"
        }
      ],
      "payable": false,
      "stateMutability": "view",
      "type": "function"
    },
    {
      "constant": false,
      "inputs": [],
      "name": "unpause",
      "outputs": [],
      "payable": false,
      "stateMutability": "nonpayable",
      "type": "function"
    },
    {
      "constant": true,
      "inputs": [],
      "name": "paused",
      "outputs": [
        {
          "name": "",
          "type": "bool"
        }
      ],
      "payable": false,
      "stateMutability": "view",
      "type": "function"
    },
    {
      "constant": true,
      "inputs": [],
      "name": "polyToken",
      "outputs": [
        {
          "name": "",
          "type": "address"
        }
      ],
      "payable": false,
      "stateMutability": "view",
      "type": "function"
    },
    {
      "constant": false,
      "inputs": [],
      "name": "pause",
      "outputs": [],
      "payable": false,
      "stateMutability": "nonpayable",
      "type": "function"
    },
    {
      "constant": false,
      "inputs": [
        {
          "name": "_tokenContract",
          "type": "address"
        }
      ],
      "name": "reclaimERC20",
      "outputs": [],
      "payable": false,
      "stateMutability": "nonpayable",
      "type": "function"
    },
    {
      "constant": true,
      "inputs": [],
      "name": "OPERATOR",
      "outputs": [
        {
          "name": "",
          "type": "bytes32"
        }
      ],
      "payable": false,
      "stateMutability": "view",
      "type": "function"
    },
    {
      "constant": true,
      "inputs": [],
      "name": "securityToken",
      "outputs": [
        {
          "name": "",
          "type": "address"
        }
      ],
      "payable": false,
      "stateMutability": "view",
      "type": "function"
    },
    {
      "constant": true,
      "inputs": [],
      "name": "factory",
      "outputs": [
        {
          "name": "",
          "type": "address"
        }
      ],
      "payable": false,
      "stateMutability": "view",
      "type": "function"
    },
    {
      "constant": true,
      "inputs": [],
      "name": "getDataStore",
      "outputs": [
        {
          "name": "",
          "type": "address"
        }
      ],
      "payable": false,
      "stateMutability": "view",
      "type": "function"
    },
    {
      "inputs": [
        {
          "name": "_securityToken",
          "type": "address"
        },
        {
          "name": "_polyToken",
          "type": "address"
        }
      ],
      "payable": false,
      "stateMutability": "nonpayable",
      "type": "constructor"
    },
    {
      "anonymous": false,
      "inputs": [
        {
          "indexed": false,
          "name": "_investor",
          "type": "address"
        },
        {
          "indexed": false,
          "name": "_value",
          "type": "uint256"
        }
      ],
      "name": "Redeemed",
      "type": "event"
    },
    {
      "anonymous": false,
      "inputs": [
        {
          "indexed": false,
          "name": "account",
          "type": "address"
        }
      ],
      "name": "Pause",
      "type": "event"
    },
    {
      "anonymous": false,
      "inputs": [
        {
          "indexed": false,
          "name": "account",
          "type": "address"
        }
      ],
      "name": "Unpause",
      "type": "event"
    },
    {
      "constant": true,
      "inputs": [],
      "name": "getInitFunction",
      "outputs": [
        {
          "name": "",
          "type": "bytes4"
        }
      ],
      "payable": false,
      "stateMutability": "pure",
      "type": "function"
    },
    {
      "constant": false,
      "inputs": [
        {
          "name": "_value",
          "type": "uint256"
        }
      ],
      "name": "redeemTokens",
      "outputs": [],
      "payable": false,
      "stateMutability": "nonpayable",
      "type": "function"
    },
    {
      "constant": true,
      "inputs": [],
      "name": "getPermissions",
      "outputs": [
        {
          "name": "",
          "type": "bytes32[]"
        }
      ],
      "payable": false,
      "stateMutability": "view",
      "type": "function"
    }
  ],
  "bytecode": "0x608060405260028054600160a01b60ff021916905534801561002057600080fd5b506040516040806109368339810180604052604081101561004057600080fd5b508051602090910151600180546001600160a01b039384166001600160a01b03199182161790915560008054821633179055600280549390921692169190911790556108a5806100916000396000f3fe608060405234801561001057600080fd5b50600436106100ea5760003560e01c80638905fd4f1161008c578063b84dfbd211610066578063b84dfbd2146101d3578063c3a07df6146101db578063c45a015514610233578063fe58265e1461023b576100ea565b80638905fd4f14610188578063983d2737146101ae578063a6e158f8146101b6576100ea565b80633f4ba83a116100c85780633f4ba83a146101385780635c975abb146101405780636faa22a51461015c5780638456cb5914610180576100ea565b80630f144a48146100ef5780631613ec9d146100f95780632a0acc6a1461011e575b600080fd5b6100f7610243565b005b61010161027b565b604080516001600160e01b03199092168252519081900360200190f35b610126610280565b60408051918252519081900360200190f35b6100f761028f565b6101486102a1565b604080519115158252519081900360200190f35b6101646102b1565b604080516001600160a01b039092168252519081900360200190f35b6100f76102c0565b6100f76004803603602081101561019e57600080fd5b50356001600160a01b03166102d0565b61012661048b565b6100f7600480360360208110156101cc57600080fd5b503561049d565b61016461058b565b6101e361059a565b60408051602080825283518183015283519192839290830191858101910280838360005b8381101561021f578181015183820152602001610207565b505050509050019250505060405180910390f35b6101646105ac565b6101646105bb565b61024b610634565b6040513390303180156108fc02916000818181858888f19350505050158015610278573d6000803e3d6000fd5b50565b600090565b600160d91b6420a226a4a70281565b610297610634565b61029f61070d565b565b600254600160a01b900460ff1681565b6002546001600160a01b031681565b6102c8610634565b61029f6107b3565b6102d8610634565b6001600160a01b0381166103365760408051600160e51b62461bcd02815260206004820152600f60248201527f496e76616c696420616464726573730000000000000000000000000000000000604482015290519081900360640190fd5b60408051600160e01b6370a08231028152306004820152905182916000916001600160a01b038416916370a08231916024808301926020929190829003018186803b15801561038457600080fd5b505afa158015610398573d6000803e3d6000fd5b505050506040513d60208110156103ae57600080fd5b505160408051600160e01b63a9059cbb0281523360048201526024810183905290519192506001600160a01b0384169163a9059cbb916044808201926020929091908290030181600087803b15801561040657600080fd5b505af115801561041a573d6000803e3d6000fd5b505050506040513d602081101561043057600080fd5b50516104865760408051600160e51b62461bcd02815260206004820152600f60248201527f5472616e73666572206661696c65640000000000000000000000000000000000604482015290519081900360640190fd5b505050565b600160c11b6727a822a920aa27a90281565b60015460408051600160e21b63259d464f028152336004820152602481018490526060604482015260006064820181905291516001600160a01b0390931692639675193c9260a48084019391929182900301818387803b15801561050057600080fd5b505af1158015610514573d6000803e3d6000fd5b505033600090815260036020526040902054610539925090508263ffffffff61086016565b3360008181526003602090815260409182902093909355805191825291810183905281517f4896181ff8f4543cc00db9fe9b6fb7e6f032b7eb772c72ab1ec1b4d2e03b9369929181900390910190a150565b6001546001600160a01b031681565b60408051600081526020810190915290565b6000546001600160a01b031681565b60015460408051600160e01b63660d0d6702815290516000926001600160a01b03169163660d0d67916004808301926020929190829003018186803b15801561060357600080fd5b505afa158015610617573d6000803e3d6000fd5b505050506040513d602081101561062d57600080fd5b5051905090565b600160009054906101000a90046001600160a01b03166001600160a01b0316638da5cb5b6040518163ffffffff1660e01b815260040160206040518083038186803b15801561068257600080fd5b505afa158015610696573d6000803e3d6000fd5b505050506040513d60208110156106ac57600080fd5b50516001600160a01b0316331461029f5760408051600160e51b62461bcd02815260206004820152601360248201527f53656e646572206973206e6f74206f776e657200000000000000000000000000604482015290519081900360640190fd5b600254600160a01b900460ff1661076e5760408051600160e51b62461bcd02815260206004820152601660248201527f436f6e7472616374206973206e6f742070617573656400000000000000000000604482015290519081900360640190fd5b60028054600160a01b60ff02191690556040805133815290517faeb196d352664784d1900b0e7414a8face7d29f4dae8c4b0cf68ed477423bbf49181900360200190a1565b600254600160a01b900460ff16156108155760408051600160e51b62461bcd02815260206004820152601260248201527f436f6e7472616374206973207061757365640000000000000000000000000000604482015290519081900360640190fd5b60028054600160a01b60ff021916600160a01b1790556040805133815290517f5ee71a369c8672edded508e624ffc9257fa1ae6886ef32905c18e60196bca3999181900360200190a1565b60008282018381101561087257600080fd5b939250505056fea165627a7a723058207e902b78ec12bf5a64f81202fa987da45c658895edd685b4d140e545e0214b600029",
  "source": "pragma solidity 0.5.8;\r\n\r\nimport \"../../Burn/IBurn.sol\";\r\nimport \"../../Module.sol\";\r\nimport \"openzeppelin-solidity/contracts/math/SafeMath.sol\";\r\n\r\n/**\r\n * @title Burn module for burning tokens and keeping track of burnt amounts\r\n */\r\ncontract TrackedRedemption is IBurn, Module {\r\n    using SafeMath for uint256;\r\n\r\n    mapping(address => uint256) redeemedTokens;\r\n\r\n    event Redeemed(address _investor, uint256 _value);\r\n\r\n    /**\r\n     * @notice Constructor\r\n     * @param _securityToken Address of the security token\r\n     */\r\n    constructor(address _securityToken, address _polyToken) public Module(_securityToken, _polyToken) {\r\n\r\n    }\r\n\r\n    /**\r\n     * @notice This function returns the signature of configure function\r\n     */\r\n    function getInitFunction() public pure returns(bytes4) {\r\n        return bytes4(0);\r\n    }\r\n\r\n    /**\r\n     * @notice To redeem tokens and track redemptions\r\n     * @param _value The number of tokens to redeem\r\n     */\r\n    function redeemTokens(uint256 _value) public {\r\n        securityToken.redeemFrom(msg.sender, _value, \"\");\r\n        redeemedTokens[msg.sender] = redeemedTokens[msg.sender].add(_value);\r\n        /*solium-disable-next-line security/no-block-members*/\r\n        emit Redeemed(msg.sender, _value);\r\n    }\r\n\r\n    /**\r\n     * @notice Returns the permissions flag that are associated with CountTransferManager\r\n     */\r\n    function getPermissions() public view returns(bytes32[] memory) {\r\n        bytes32[] memory allPermissions = new bytes32[](0);\r\n        return allPermissions;\r\n    }\r\n}\r\n",
  "sourcePath": "C:\\mspace\\polymath-core\\contracts\\modules\\Experimental\\Burn\\TrackedRedemption.sol",
  "compiler": {
    "name": "solc",
    "version": "0.5.8+commit.23d335f2.Emscripten.clang"
  },
  "schemaVersion": "3.0.11",
  "updatedAt": "2019-08-05T22:52:46.769Z",
  "devdoc": {
    "methods": {
      "constructor": {
        "params": {
          "_securityToken": "Address of the security token\r"
        }
      },
      "reclaimERC20(address)": {
        "details": "We duplicate here due to the overriden owner & onlyOwner\r",
        "params": {
          "_tokenContract": "The address of the token contract\r"
        }
      },
      "reclaimETH()": {
        "details": "We duplicate here due to the overriden owner & onlyOwner\r"
      },
      "redeemTokens(uint256)": {
        "params": {
          "_value": "The number of tokens to redeem\r"
        }
      }
    },
    "title": "Burn module for burning tokens and keeping track of burnt amounts\r"
  },
  "userdoc": {
    "methods": {
      "constructor": "Constructor\r",
      "getDataStore()": {
        "notice": "used to return the data store address of securityToken\r"
      },
      "getInitFunction()": {
        "notice": "This function returns the signature of configure function\r"
      },
      "getPermissions()": {
        "notice": "Returns the permissions flag that are associated with CountTransferManager\r"
      },
      "pause()": {
        "notice": "Pause (overridden function)\r"
      },
      "reclaimERC20(address)": {
        "notice": "Reclaims ERC20Basic compatible tokens\r"
      },
      "reclaimETH()": {
        "notice": "Reclaims ETH\r"
      },
      "redeemTokens(uint256)": {
        "notice": "To redeem tokens and track redemptions\r"
      },
      "unpause()": {
        "notice": "Unpause (overridden function)\r"
      }
    }
  }
}