{
  "contractName": "USDTieredSTOStorage",
  "abi": [
    {
      "constant": true,
      "inputs": [
        {
          "name": "",
          "type": "uint256"
        }
      ],
      "name": "tiers",
      "outputs": [
        {
          "name": "rate",
          "type": "uint256"
        },
        {
          "name": "rateDiscountPoly",
          "type": "uint256"
        },
        {
          "name": "tokenTotal",
          "type": "uint256"
        },
        {
          "name": "tokensDiscountPoly",
          "type": "uint256"
        },
        {
          "name": "mintedTotal",
          "type": "uint256"
        },
        {
          "name": "mintedDiscountPoly",
          "type": "uint256"
        }
      ],
      "payable": false,
      "stateMutability": "view",
      "type": "function"
    },
    {
      "constant": true,
      "inputs": [],
      "name": "allowBeneficialInvestments",
      "outputs": [
        {
          "name": "",
          "type": "bool"
        }
      ],
      "payable": false,
      "stateMutability": "view",
      "type": "function"
    },
    {
      "constant": true,
      "inputs": [],
      "name": "treasuryWallet",
      "outputs": [
        {
          "name": "",
          "type": "address"
        }
      ],
      "payable": false,
      "stateMutability": "view",
      "type": "function"
    },
    {
      "constant": true,
      "inputs": [],
      "name": "nonAccreditedLimitUSD",
      "outputs": [
        {
          "name": "",
          "type": "uint256"
        }
      ],
      "payable": false,
      "stateMutability": "view",
      "type": "function"
    },
    {
      "constant": true,
      "inputs": [],
      "name": "finalAmountReturned",
      "outputs": [
        {
          "name": "",
          "type": "uint256"
        }
      ],
      "payable": false,
      "stateMutability": "view",
      "type": "function"
    },
    {
      "constant": true,
      "inputs": [
        {
          "name": "",
          "type": "address"
        }
      ],
      "name": "stableCoinsRaised",
      "outputs": [
        {
          "name": "",
          "type": "uint256"
        }
      ],
      "payable": false,
      "stateMutability": "view",
      "type": "function"
    },
    {
      "constant": true,
      "inputs": [
        {
          "name": "",
          "type": "address"
        },
        {
          "name": "",
          "type": "uint8"
        }
      ],
      "name": "investorInvested",
      "outputs": [
        {
          "name": "",
          "type": "uint256"
        }
      ],
      "payable": false,
      "stateMutability": "view",
      "type": "function"
    },
    {
      "constant": true,
      "inputs": [],
      "name": "isFinalized",
      "outputs": [
        {
          "name": "",
          "type": "bool"
        }
      ],
      "payable": false,
      "stateMutability": "view",
      "type": "function"
    },
    {
      "constant": true,
      "inputs": [
        {
          "name": "",
          "type": "address"
        }
      ],
      "name": "investorInvestedUSD",
      "outputs": [
        {
          "name": "",
          "type": "uint256"
        }
      ],
      "payable": false,
      "stateMutability": "view",
      "type": "function"
    },
    {
      "constant": true,
      "inputs": [],
      "name": "currentTier",
      "outputs": [
        {
          "name": "",
          "type": "uint256"
        }
      ],
      "payable": false,
      "stateMutability": "view",
      "type": "function"
    },
    {
      "constant": true,
      "inputs": [
        {
          "name": "",
          "type": "address"
        }
      ],
      "name": "nonAccreditedLimitUSDOverride",
      "outputs": [
        {
          "name": "",
          "type": "uint256"
        }
      ],
      "payable": false,
      "stateMutability": "view",
      "type": "function"
    },
    {
      "constant": true,
      "inputs": [],
      "name": "minimumInvestmentUSD",
      "outputs": [
        {
          "name": "",
          "type": "uint256"
        }
      ],
      "payable": false,
      "stateMutability": "view",
      "type": "function"
    },
    {
      "constant": true,
      "inputs": [],
      "name": "fundsRaisedUSD",
      "outputs": [
        {
          "name": "",
          "type": "uint256"
        }
      ],
      "payable": false,
      "stateMutability": "view",
      "type": "function"
    }
  ],
  "bytecode": "0x608060405234801561001057600080fd5b50610353806100206000396000f3fe608060405234801561001057600080fd5b50600436106100cf5760003560e01c80638784b1c21161008c578063d679677a11610066578063d679677a14610209578063eaa32c4014610211578063ec47740f14610237578063ff18ead31461023f576100cf565b80638784b1c2146101ac5780638d4e4083146101db578063c5139338146101e3576100cf565b8063039af9eb146100d45780632df413e2146101245780634626402b146101405780634b385a42146101645780636c41027f1461017e57806377de903914610186575b600080fd5b6100f1600480360360208110156100ea57600080fd5b5035610247565b604080519687526020870195909552858501939093526060850191909152608084015260a0830152519081900360c00190f35b61012c61028a565b604080519115158252519081900360200190f35b610148610293565b604080516001600160a01b039092168252519081900360200190f35b61016c6102a8565b60408051918252519081900360200190f35b61016c6102ae565b61016c6004803603602081101561019c57600080fd5b50356001600160a01b03166102b4565b61016c600480360360408110156101c257600080fd5b5080356001600160a01b0316906020013560ff166102c6565b61012c6102e3565b61016c600480360360208110156101f957600080fd5b50356001600160a01b03166102f1565b61016c610303565b61016c6004803603602081101561022757600080fd5b50356001600160a01b0316610309565b61016c61031b565b61016c610321565b600d818154811061025457fe5b60009182526020909120600790910201805460018201546002830154600384015460048501546006909501549395509193909286565b60025460ff1681565b6002546201000090046001600160a01b031681565b600a5481565b600c5481565b60066020526000908152604090205481565b600860209081526000928352604080842090915290825290205481565b600254610100900460ff1681565b60076020526000908152604090205481565b60045481565b60006020819052908152604090205481565b600b5481565b6005548156fea165627a7a723058202509f5e6709d247fb4db9b47e0a2038cf65e21a75c61c27abc8967d8b380a5630029",
  "source": "pragma solidity 0.5.8;\r\n\r\nimport \"openzeppelin-solidity/contracts/token/ERC20/IERC20.sol\";\r\n\r\n/**\r\n * @title Contract used to store layout for the USDTieredSTO storage\r\n */\r\ncontract USDTieredSTOStorage {\r\n\r\n    bytes32 internal constant INVESTORSKEY = 0xdf3a8dd24acdd05addfc6aeffef7574d2de3f844535ec91e8e0f3e45dba96731; //keccak256(abi.encodePacked(\"INVESTORS\"))\r\n    \r\n    /////////////\r\n    // Storage //\r\n    /////////////\r\n    struct Tier {\r\n        // NB rates mentioned below are actually price and are used like price in the logic.\r\n        // How many token units a buyer gets per USD in this tier (multiplied by 10**18)\r\n        uint256 rate;\r\n        // How many token units a buyer gets per USD in this tier (multiplied by 10**18) when investing in POLY up to tokensDiscountPoly\r\n        uint256 rateDiscountPoly;\r\n        // How many tokens are available in this tier (relative to totalSupply)\r\n        uint256 tokenTotal;\r\n        // How many token units are available in this tier (relative to totalSupply) at the ratePerTierDiscountPoly rate\r\n        uint256 tokensDiscountPoly;\r\n        // How many tokens have been minted in this tier (relative to totalSupply)\r\n        uint256 mintedTotal;\r\n        // How many tokens have been minted in this tier (relative to totalSupply) for each fund raise type\r\n        mapping(uint8 => uint256) minted;\r\n        // How many tokens have been minted in this tier (relative to totalSupply) at discounted POLY rate\r\n        uint256 mintedDiscountPoly;\r\n    }\r\n\r\n    mapping(address => uint256) public nonAccreditedLimitUSDOverride;\r\n\r\n    mapping(bytes32 => mapping(bytes32 => string)) oracleKeys;\r\n\r\n    // Determine whether users can invest on behalf of a beneficiary\r\n    bool public allowBeneficialInvestments;\r\n\r\n    // Whether or not the STO has been finalized\r\n    bool public isFinalized;\r\n\r\n    // Address of issuer treasury wallet for unsold tokens\r\n    address public treasuryWallet;\r\n\r\n    // List of stable coin addresses\r\n    IERC20[] internal usdTokens;\r\n\r\n    // Current tier\r\n    uint256 public currentTier;\r\n\r\n    // Amount of USD funds raised\r\n    uint256 public fundsRaisedUSD;\r\n\r\n    // Amount of stable coins raised\r\n    mapping (address => uint256) public stableCoinsRaised;\r\n\r\n    // Amount in USD invested by each address\r\n    mapping(address => uint256) public investorInvestedUSD;\r\n\r\n    // Amount in fund raise type invested by each investor\r\n    mapping(address => mapping(uint8 => uint256)) public investorInvested;\r\n\r\n    // List of active stable coin addresses\r\n    mapping (address => bool) internal usdTokenEnabled;\r\n\r\n    // Default limit in USD for non-accredited investors multiplied by 10**18\r\n    uint256 public nonAccreditedLimitUSD;\r\n\r\n    // Minimum investable amount in USD\r\n    uint256 public minimumInvestmentUSD;\r\n\r\n    // Final amount of tokens returned to issuer\r\n    uint256 public finalAmountReturned;\r\n\r\n    // Array of Tiers\r\n    Tier[] public tiers;\r\n\r\n    // Optional custom Oracles.\r\n    mapping(bytes32 => mapping(bytes32 => address)) customOracles;\r\n}\r\n",
  "sourcePath": "C:\\mspace\\polymath-core\\contracts\\modules\\STO\\USDTiered\\USDTieredSTOStorage.sol",
  "compiler": {
    "name": "solc",
    "version": "0.5.8+commit.23d335f2.Emscripten.clang"
  },
  "schemaVersion": "3.0.11",
  "updatedAt": "2019-08-05T22:52:46.844Z",
  "devdoc": {
    "methods": {},
    "title": "Contract used to store layout for the USDTieredSTO storage\r"
  },
  "userdoc": {
    "methods": {}
  }
}