{
  "contractName": "USDTieredSTOProxy",
  "abi": [
    {
      "constant": false,
      "inputs": [],
      "name": "proxyOwner",
      "outputs": [
        {
          "name": "",
          "type": "address"
        }
      ],
      "payable": false,
      "stateMutability": "nonpayable",
      "type": "function"
    },
    {
      "constant": true,
      "inputs": [
        {
          "name": "",
          "type": "uint256"
        }
      ],
      "name": "tiers",
      "outputs": [
        {
          "name": "rate",
          "type": "uint256"
        },
        {
          "name": "rateDiscountPoly",
          "type": "uint256"
        },
        {
          "name": "tokenTotal",
          "type": "uint256"
        },
        {
          "name": "tokensDiscountPoly",
          "type": "uint256"
        },
        {
          "name": "mintedTotal",
          "type": "uint256"
        },
        {
          "name": "mintedDiscountPoly",
          "type": "uint256"
        }
      ],
      "payable": false,
      "stateMutability": "view",
      "type": "function"
    },
    {
      "constant": true,
      "inputs": [],
      "name": "ADMIN",
      "outputs": [
        {
          "name": "",
          "type": "bytes32"
        }
      ],
      "payable": false,
      "stateMutability": "view",
      "type": "function"
    },
    {
      "constant": true,
      "inputs": [],
      "name": "allowBeneficialInvestments",
      "outputs": [
        {
          "name": "",
          "type": "bool"
        }
      ],
      "payable": false,
      "stateMutability": "view",
      "type": "function"
    },
    {
      "constant": true,
      "inputs": [],
      "name": "endTime",
      "outputs": [
        {
          "name": "",
          "type": "uint256"
        }
      ],
      "payable": false,
      "stateMutability": "view",
      "type": "function"
    },
    {
      "constant": true,
      "inputs": [],
      "name": "treasuryWallet",
      "outputs": [
        {
          "name": "",
          "type": "address"
        }
      ],
      "payable": false,
      "stateMutability": "view",
      "type": "function"
    },
    {
      "constant": true,
      "inputs": [],
      "name": "nonAccreditedLimitUSD",
      "outputs": [
        {
          "name": "",
          "type": "uint256"
        }
      ],
      "payable": false,
      "stateMutability": "view",
      "type": "function"
    },
    {
      "constant": true,
      "inputs": [],
      "name": "wallet",
      "outputs": [
        {
          "name": "",
          "type": "address"
        }
      ],
      "payable": false,
      "stateMutability": "view",
      "type": "function"
    },
    {
      "constant": false,
      "inputs": [],
      "name": "version",
      "outputs": [
        {
          "name": "",
          "type": "string"
        }
      ],
      "payable": false,
      "stateMutability": "nonpayable",
      "type": "function"
    },
    {
      "constant": false,
      "inputs": [
        {
          "name": "_newVersion",
          "type": "string"
        },
        {
          "name": "_newImplementation",
          "type": "address"
        }
      ],
      "name": "upgradeTo",
      "outputs": [],
      "payable": false,
      "stateMutability": "nonpayable",
      "type": "function"
    },
    {
      "constant": false,
      "inputs": [],
      "name": "implementation",
      "outputs": [
        {
          "name": "",
          "type": "address"
        }
      ],
      "payable": false,
      "stateMutability": "nonpayable",
      "type": "function"
    },
    {
      "constant": true,
      "inputs": [],
      "name": "paused",
      "outputs": [
        {
          "name": "",
          "type": "bool"
        }
      ],
      "payable": false,
      "stateMutability": "view",
      "type": "function"
    },
    {
      "constant": true,
      "inputs": [],
      "name": "totalTokensSold",
      "outputs": [
        {
          "name": "",
          "type": "uint256"
        }
      ],
      "payable": false,
      "stateMutability": "view",
      "type": "function"
    },
    {
      "constant": true,
      "inputs": [],
      "name": "finalAmountReturned",
      "outputs": [
        {
          "name": "",
          "type": "uint256"
        }
      ],
      "payable": false,
      "stateMutability": "view",
      "type": "function"
    },
    {
      "constant": true,
      "inputs": [],
      "name": "polyToken",
      "outputs": [
        {
          "name": "",
          "type": "address"
        }
      ],
      "payable": false,
      "stateMutability": "view",
      "type": "function"
    },
    {
      "constant": true,
      "inputs": [
        {
          "name": "",
          "type": "address"
        }
      ],
      "name": "stableCoinsRaised",
      "outputs": [
        {
          "name": "",
          "type": "uint256"
        }
      ],
      "payable": false,
      "stateMutability": "view",
      "type": "function"
    },
    {
      "constant": true,
      "inputs": [],
      "name": "startTime",
      "outputs": [
        {
          "name": "",
          "type": "uint256"
        }
      ],
      "payable": false,
      "stateMutability": "view",
      "type": "function"
    },
    {
      "constant": true,
      "inputs": [
        {
          "name": "",
          "type": "address"
        },
        {
          "name": "",
          "type": "uint8"
        }
      ],
      "name": "investorInvested",
      "outputs": [
        {
          "name": "",
          "type": "uint256"
        }
      ],
      "payable": false,
      "stateMutability": "view",
      "type": "function"
    },
    {
      "constant": true,
      "inputs": [],
      "name": "isFinalized",
      "outputs": [
        {
          "name": "",
          "type": "bool"
        }
      ],
      "payable": false,
      "stateMutability": "view",
      "type": "function"
    },
    {
      "constant": false,
      "inputs": [
        {
          "name": "_newVersion",
          "type": "string"
        },
        {
          "name": "_newImplementation",
          "type": "address"
        },
        {
          "name": "_data",
          "type": "bytes"
        }
      ],
      "name": "upgradeToAndCall",
      "outputs": [],
      "payable": true,
      "stateMutability": "payable",
      "type": "function"
    },
    {
      "constant": true,
      "inputs": [],
      "name": "OPERATOR",
      "outputs": [
        {
          "name": "",
          "type": "bytes32"
        }
      ],
      "payable": false,
      "stateMutability": "view",
      "type": "function"
    },
    {
      "constant": true,
      "inputs": [],
      "name": "pausedTime",
      "outputs": [
        {
          "name": "",
          "type": "uint256"
        }
      ],
      "payable": false,
      "stateMutability": "view",
      "type": "function"
    },
    {
      "constant": true,
      "inputs": [],
      "name": "securityToken",
      "outputs": [
        {
          "name": "",
          "type": "address"
        }
      ],
      "payable": false,
      "stateMutability": "view",
      "type": "function"
    },
    {
      "constant": true,
      "inputs": [],
      "name": "factory",
      "outputs": [
        {
          "name": "",
          "type": "address"
        }
      ],
      "payable": false,
      "stateMutability": "view",
      "type": "function"
    },
    {
      "constant": true,
      "inputs": [
        {
          "name": "",
          "type": "uint8"
        }
      ],
      "name": "fundsRaised",
      "outputs": [
        {
          "name": "",
          "type": "uint256"
        }
      ],
      "payable": false,
      "stateMutability": "view",
      "type": "function"
    },
    {
      "constant": true,
      "inputs": [
        {
          "name": "",
          "type": "address"
        }
      ],
      "name": "investorInvestedUSD",
      "outputs": [
        {
          "name": "",
          "type": "uint256"
        }
      ],
      "payable": false,
      "stateMutability": "view",
      "type": "function"
    },
    {
      "constant": true,
      "inputs": [
        {
          "name": "",
          "type": "uint8"
        }
      ],
      "name": "fundRaiseTypes",
      "outputs": [
        {
          "name": "",
          "type": "bool"
        }
      ],
      "payable": false,
      "stateMutability": "view",
      "type": "function"
    },
    {
      "constant": true,
      "inputs": [],
      "name": "currentTier",
      "outputs": [
        {
          "name": "",
          "type": "uint256"
        }
      ],
      "payable": false,
      "stateMutability": "view",
      "type": "function"
    },
    {
      "constant": true,
      "inputs": [],
      "name": "investorCount",
      "outputs": [
        {
          "name": "",
          "type": "uint256"
        }
      ],
      "payable": false,
      "stateMutability": "view",
      "type": "function"
    },
    {
      "constant": true,
      "inputs": [
        {
          "name": "",
          "type": "address"
        }
      ],
      "name": "nonAccreditedLimitUSDOverride",
      "outputs": [
        {
          "name": "",
          "type": "uint256"
        }
      ],
      "payable": false,
      "stateMutability": "view",
      "type": "function"
    },
    {
      "constant": true,
      "inputs": [],
      "name": "minimumInvestmentUSD",
      "outputs": [
        {
          "name": "",
          "type": "uint256"
        }
      ],
      "payable": false,
      "stateMutability": "view",
      "type": "function"
    },
    {
      "constant": false,
      "inputs": [
        {
          "name": "_newOwner",
          "type": "address"
        }
      ],
      "name": "transferProxyOwnership",
      "outputs": [],
      "payable": false,
      "stateMutability": "nonpayable",
      "type": "function"
    },
    {
      "constant": true,
      "inputs": [],
      "name": "fundsRaisedUSD",
      "outputs": [
        {
          "name": "",
          "type": "uint256"
        }
      ],
      "payable": false,
      "stateMutability": "view",
      "type": "function"
    },
    {
      "inputs": [
        {
          "name": "_version",
          "type": "string"
        },
        {
          "name": "_securityToken",
          "type": "address"
        },
        {
          "name": "_polyAddress",
          "type": "address"
        },
        {
          "name": "_implementation",
          "type": "address"
        }
      ],
      "payable": false,
      "stateMutability": "nonpayable",
      "type": "constructor"
    },
    {
      "payable": true,
      "stateMutability": "payable",
      "type": "fallback"
    },
    {
      "anonymous": false,
      "inputs": [
        {
          "indexed": false,
          "name": "_previousOwner",
          "type": "address"
        },
        {
          "indexed": false,
          "name": "_newOwner",
          "type": "address"
        }
      ],
      "name": "ProxyOwnershipTransferred",
      "type": "event"
    },
    {
      "anonymous": false,
      "inputs": [
        {
          "indexed": false,
          "name": "_newVersion",
          "type": "string"
        },
        {
          "indexed": true,
          "name": "_newImplementation",
          "type": "address"
        }
      ],
      "name": "Upgraded",
      "type": "event"
    },
    {
      "anonymous": false,
      "inputs": [
        {
          "indexed": false,
          "name": "account",
          "type": "address"
        }
      ],
      "name": "Pause",
      "type": "event"
    },
    {
      "anonymous": false,
      "inputs": [
        {
          "indexed": false,
          "name": "account",
          "type": "address"
        }
      ],
      "name": "Unpause",
      "type": "event"
    }
  ],
  "bytecode": "0x608060405260198054600160a01b60ff02191690553480156200002157600080fd5b50604051620019cf380380620019cf833981018060405260808110156200004757600080fd5b8101908080516401000000008111156200006057600080fd5b820160208101848111156200007457600080fd5b81516401000000008111828201871017156200008f57600080fd5b50506020808301516040840151606090940151601880546001600160a01b038085166001600160a01b0319928316179092556017805482163390811790915560198054938916939092169290921790556001601a5593965090945091620000fa9162000177811b901c565b6001600160a01b0381166200015b576040517f08c379a0000000000000000000000000000000000000000000000000000000008152600401808060200182810382526027815260200180620019276027913960400191505060405180910390fd5b6200016d84826200020f60201b60201c565b5050505062000631565b6001600160a01b038116620001ed57604080517f08c379a000000000000000000000000000000000000000000000000000000000815260206004820152601860248201527f416464726573732073686f756c64206e6f742062652030780000000000000000604482015290519081900360640190fd5b601d80546001600160a01b0319166001600160a01b0392909216919091179055565b601c546001600160a01b038281169116148015906200023657506001600160a01b03811615155b6200028d576040517f08c379a00000000000000000000000000000000000000000000000000000000081526004018080602001828103825260468152602001806200194e6046913960600191505060405180910390fd5b620002a3816200058660201b6200111e1760201c565b620002fa576040517f08c379a000000000000000000000000000000000000000000000000000000000815260040180806020018281038252603b81526020018062001994603b913960400191505060405180910390fd5b600082511162000356576040517f08c379a0000000000000000000000000000000000000000000000000000000008152600401808060200182810382526022815260200180620019056022913960400191505060405180910390fd5b816040516020018082805190602001908083835b602083106200038b5780518252601f1990920191602091820191016200036a565b6001836020036101000a03801982511681845116808217855250505050505090500191505060405160208183030381529060405280519060200120601b60405160200180828054600181600116156101000203166002900480156200042a5780601f10620004075761010080835404028352918201916200042a565b820191906000526020600020905b81548152906001019060200180831162000415575b5050915050604051602081830303815290604052805190602001201415620004b357604080517f08c379a000000000000000000000000000000000000000000000000000000000815260206004820152601d60248201527f4e65772076657273696f6e20657175616c7320746f2063757272656e74000000604482015290519081900360640190fd5b8151620004c890601b9060208501906200058c565b50601c80546001600160a01b0319166001600160a01b03831690811790915560408051602080825285518183015285517f8e05e0e35ff592971ca8b477d4285a33a61ded208d644042667b78693a472f5e938793928392918301919085019080838360005b83811015620005475781810151838201526020016200052d565b50505050905090810190601f168015620005755780820380516001836020036101000a031916815260200191505b509250505060405180910390a25050565b3b151590565b828054600181600116156101000203166002900490600052602060002090601f016020900481019282601f10620005cf57805160ff1916838001178555620005ff565b82800160010185558215620005ff579182015b82811115620005ff578251825591602001919060010190620005e2565b506200060d92915062000611565b5090565b6200062e91905b808211156200060d576000815560010162000618565b90565b6112c480620006416000396000f3fe6080604052600436106101ee5760003560e01c806378e979251161010d578063c4d2c6bd116100a0578063d7e64c001161006f578063d7e64c0014610701578063eaa32c4014610716578063ec47740f14610749578063f1739cae1461075e578063ff18ead314610791576101ee565b8063c4d2c6bd1461065f578063c51393381461068c578063d143a379146106bf578063d679677a146106ec576101ee565b8063983d2737116100dc578063983d27371461060b578063b2cca39d14610620578063b84dfbd214610635578063c45a01551461064a576101ee565b806378e97925146104d65780638784b1c2146104eb5780638d4e408314610527578063958a41dd1461053c576101ee565b806354fd4d501161018557806363b201171161015457806363b20117146104645780636c41027f146104795780636faa22a51461048e57806377de9039146104a3576101ee565b806354fd4d501461032a5780635a8b1a9f146103b45780635c60da1b1461043a5780635c975abb1461044f576101ee565b80633197cbb6116101c15780633197cbb6146102d65780634626402b146102eb5780634b385a4214610300578063521eb27314610315576101ee565b8063025313a2146101f8578063039af9eb146102295780632a0acc6a146102865780632df413e2146102ad575b6101f66107a6565b005b34801561020457600080fd5b5061020d6107b8565b604080516001600160a01b039092168252519081900360200190f35b34801561023557600080fd5b506102536004803603602081101561024c57600080fd5b50356107f5565b604080519687526020870195909552858501939093526060850191909152608084015260a0830152519081900360c00190f35b34801561029257600080fd5b5061029b610838565b60408051918252519081900360200190f35b3480156102b957600080fd5b506102c2610847565b604080519115158252519081900360200190f35b3480156102e257600080fd5b5061029b610850565b3480156102f757600080fd5b5061020d610856565b34801561030c57600080fd5b5061029b61086b565b34801561032157600080fd5b5061020d610871565b34801561033657600080fd5b5061033f610880565b6040805160208082528351818301528351919283929083019185019080838360005b83811015610379578181015183820152602001610361565b50505050905090810190601f1680156103a65780820380516001836020036101000a031916815260200191505b509250505060405180910390f35b3480156103c057600080fd5b506101f6600480360360408110156103d757600080fd5b8101906020810181356401000000008111156103f257600080fd5b82018360208201111561040457600080fd5b8035906020019184600183028401116401000000008311171561042657600080fd5b9193509150356001600160a01b0316610935565b34801561044657600080fd5b5061020d6109a9565b34801561045b57600080fd5b506102c26109d4565b34801561047057600080fd5b5061029b6109e4565b34801561048557600080fd5b5061029b6109ea565b34801561049a57600080fd5b5061020d6109f0565b3480156104af57600080fd5b5061029b600480360360208110156104c657600080fd5b50356001600160a01b03166109ff565b3480156104e257600080fd5b5061029b610a11565b3480156104f757600080fd5b5061029b6004803603604081101561050e57600080fd5b5080356001600160a01b0316906020013560ff16610a17565b34801561053357600080fd5b506102c2610a34565b6101f66004803603606081101561055257600080fd5b81019060208101813564010000000081111561056d57600080fd5b82018360208201111561057f57600080fd5b803590602001918460018302840111640100000000831117156105a157600080fd5b919390926001600160a01b03833516926040810190602001356401000000008111156105cc57600080fd5b8201836020820111156105de57600080fd5b8035906020019184600183028401116401000000008311171561060057600080fd5b509092509050610a42565b34801561061757600080fd5b5061029b610aec565b34801561062c57600080fd5b5061029b610afe565b34801561064157600080fd5b5061020d610b04565b34801561065657600080fd5b5061020d610b13565b34801561066b57600080fd5b5061029b6004803603602081101561068257600080fd5b503560ff16610b22565b34801561069857600080fd5b5061029b600480360360208110156106af57600080fd5b50356001600160a01b0316610b34565b3480156106cb57600080fd5b506102c2600480360360208110156106e257600080fd5b503560ff16610b46565b3480156106f857600080fd5b5061029b610b5b565b34801561070d57600080fd5b5061029b610b61565b34801561072257600080fd5b5061029b6004803603602081101561073957600080fd5b50356001600160a01b0316610b67565b34801561075557600080fd5b5061029b610b79565b34801561076a57600080fd5b506101f66004803603602081101561078157600080fd5b50356001600160a01b0316610b7f565b34801561079d57600080fd5b5061029b610c62565b6107b66107b1610c68565b610c77565b565b60006107c2610c9b565b6001600160a01b0316336001600160a01b031614156107ea576107e3610c9b565b90506107f2565b6107f26107a6565b90565b600d818154811061080257fe5b60009182526020909120600790910201805460018201546002830154600384015460048501546006909501549395509193909286565b600160d91b6420a226a4a70281565b60025460ff1681565b60125481565b6002546201000090046001600160a01b031681565b600a5481565b6015546001600160a01b031681565b606061088a610c9b565b6001600160a01b0316336001600160a01b031614156107ea57601b805460408051602060026001851615610100026000190190941693909304601f810184900484028201840190925281815292918301828280156109295780601f106108fe57610100808354040283529160200191610929565b820191906000526020600020905b81548152906001019060200180831161090c57829003601f168201915b505050505090506107f2565b61093d610c9b565b6001600160a01b0316336001600160a01b0316141561099c5761099783838080601f016020809104026020016040519081016040528093929190818152602001838380828437600092019190915250859250610caa915050565b6109a4565b6109a46107a6565b505050565b60006109b3610c9b565b6001600160a01b0316336001600160a01b031614156107ea576107e3610c68565b601954600160a01b900460ff1681565b60165481565b600c5481565b6019546001600160a01b031681565b60066020526000908152604090205481565b60115481565b600860209081526000928352604080842090915290825290205481565b600254610100900460ff1681565b610a4a610c9b565b6001600160a01b0316336001600160a01b03161415610add57610ad885858080601f01602080910402602001604051908101604052809392919081815260200183838082843760009201919091525050604080516020601f880181900481028201810190925286815288935091508690869081908401838280828437600092019190915250610fa592505050565b610ae5565b610ae56107a6565b5050505050565b600160c11b6727a822a920aa27a90281565b60135481565b6018546001600160a01b031681565b6017546001600160a01b031681565b60106020526000908152604090205481565b60076020526000908152604090205481565b600f6020526000908152604090205460ff1681565b60045481565b60145481565b60006020819052908152604090205481565b600b5481565b610b87610c9b565b6001600160a01b0316336001600160a01b03161415610c57576001600160a01b038116610bfe5760408051600160e51b62461bcd02815260206004820152601860248201527f416464726573732073686f756c64206e6f742062652030780000000000000000604482015290519081900360640190fd5b7f5a3e66efaa1e445ebd894728a69d6959842ea1e97bd79b892797106e270efcd9610c27610c9b565b604080516001600160a01b03928316815291841660208301528051918290030190a1610c528161109e565b610c5f565b610c5f6107a6565b50565b60055481565b601c546001600160a01b031690565b3660008037600080366000845af43d6000803e808015610c96573d6000f35b3d6000fd5b601d546001600160a01b031690565b601c546001600160a01b03828116911614801590610cd057506001600160a01b03811615155b610d0e57604051600160e51b62461bcd0281526004018080602001828103825260468152602001806112186046913960600191505060405180910390fd5b610d178161111e565b610d5557604051600160e51b62461bcd02815260040180806020018281038252603b81526020018061125e603b913960400191505060405180910390fd5b6000825111610d9857604051600160e51b62461bcd0281526004018080602001828103825260228152602001806111bd6022913960400191505060405180910390fd5b816040516020018082805190602001908083835b60208310610dcb5780518252601f199092019160209182019101610dac565b6001836020036101000a03801982511681845116808217855250505050505090500191505060405160208183030381529060405280519060200120601b6040516020018082805460018160011615610100020316600290048015610e665780601f10610e44576101008083540402835291820191610e66565b820191906000526020600020905b815481529060010190602001808311610e52575b5050915050604051602081830303815290604052805190602001201415610ed75760408051600160e51b62461bcd02815260206004820152601d60248201527f4e65772076657273696f6e20657175616c7320746f2063757272656e74000000604482015290519081900360640190fd5b8151610eea90601b906020850190611124565b50601c80546001600160a01b0319166001600160a01b03831690811790915560408051602080825285518183015285517f8e05e0e35ff592971ca8b477d4285a33a61ded208d644042667b78693a472f5e938793928392918301919085019080838360005b83811015610f67578181015183820152602001610f4f565b50505050905090810190601f168015610f945780820380516001836020036101000a031916815260200191505b509250505060405180910390a25050565b610faf8383610caa565b6000306001600160a01b031634836040518082805190602001908083835b60208310610fec5780518252601f199092019160209182019101610fcd565b6001836020036101000a03801982511681845116808217855250505050505090500191505060006040518083038185875af1925050503d806000811461104e576040519150601f19603f3d011682016040523d82523d6000602084013e611053565b606091505b5050809150508061109857604051600160e51b62461bcd0281526004018080602001828103825260398152602001806111df6039913960400191505060405180910390fd5b50505050565b6001600160a01b0381166110fc5760408051600160e51b62461bcd02815260206004820152601860248201527f416464726573732073686f756c64206e6f742062652030780000000000000000604482015290519081900360640190fd5b601d80546001600160a01b0319166001600160a01b0392909216919091179055565b3b151590565b828054600181600116156101000203166002900490600052602060002090601f016020900481019282601f1061116557805160ff1916838001178555611192565b82800160010185558215611192579182015b82811115611192578251825591602001919060010190611177565b5061119e9291506111a2565b5090565b6107f291905b8082111561119e57600081556001016111a856fe56657273696f6e2073686f756c64206e6f7420626520656d70747920737472696e674661696c20696e20657865637574696e67207468652066756e6374696f6e206f6620696d706c656d656e746174696f6e20636f6e74726163744f6c642061646472657373206973206e6f7420616c6c6f77656420616e6420696d706c656d656e746174696f6e20616464726573732073686f756c64206e6f7420626520307843616e6e6f742073657420612070726f787920696d706c656d656e746174696f6e20746f2061206e6f6e2d636f6e74726163742061646472657373a165627a7a72305820016039aa6b6b784eac279e862cdd3dba7e1e5891da8cb34f3aa27ca70e5012e9002956657273696f6e2073686f756c64206e6f7420626520656d70747920737472696e67496d706c656d656e746174696f6e20616464726573732073686f756c64206e6f742062652030784f6c642061646472657373206973206e6f7420616c6c6f77656420616e6420696d706c656d656e746174696f6e20616464726573732073686f756c64206e6f7420626520307843616e6e6f742073657420612070726f787920696d706c656d656e746174696f6e20746f2061206e6f6e2d636f6e74726163742061646472657373",
  "source": "pragma solidity 0.5.8;\r\n\r\nimport \"../../../proxy/OwnedUpgradeabilityProxy.sol\";\r\nimport \"./USDTieredSTOStorage.sol\";\r\nimport \"../../../Pausable.sol\";\r\nimport \"openzeppelin-solidity/contracts/utils/ReentrancyGuard.sol\";\r\nimport \"../../../storage/modules/STO/STOStorage.sol\";\r\nimport \"../../../storage/modules/ModuleStorage.sol\";\r\n\r\n/**\r\n * @title USDTiered STO module Proxy\r\n */\r\ncontract USDTieredSTOProxy is USDTieredSTOStorage, STOStorage, ModuleStorage, Pausable, ReentrancyGuard, OwnedUpgradeabilityProxy {\r\n    /**\r\n    * @notice Constructor\r\n    * @param _securityToken Address of the security token\r\n    * @param _polyAddress Address of the polytoken\r\n    * @param _implementation representing the address of the new implementation to be set\r\n    */\r\n    constructor (string memory _version, address _securityToken, address _polyAddress, address _implementation) public ModuleStorage(_securityToken, _polyAddress) {\r\n        require(_implementation != address(0), \"Implementation address should not be 0x\");\r\n        _upgradeTo(_version, _implementation);\r\n    }\r\n\r\n}\r\n",
  "sourcePath": "C:\\mspace\\polymath-core\\contracts\\modules\\STO\\USDTiered\\USDTieredSTOProxy.sol",
  "compiler": {
    "name": "solc",
    "version": "0.5.8+commit.23d335f2.Emscripten.clang"
  },
  "schemaVersion": "3.0.11",
  "updatedAt": "2019-08-05T22:52:46.839Z",
  "devdoc": {
    "methods": {
      "constructor": {
        "params": {
          "_implementation": "representing the address of the new implementation to be set\r",
          "_polyAddress": "Address of the polytoken\r",
          "_securityToken": "Address of the security token\r"
        }
      },
      "implementation()": {
        "details": "Tells the address of the current implementation\r",
        "return": "address of the current implementation\r"
      },
      "proxyOwner()": {
        "details": "Tells the address of the proxy owner\r",
        "return": "the address of the proxy owner\r"
      },
      "transferProxyOwnership(address)": {
        "details": "Allows the current owner to transfer control of the contract to a newOwner.\r",
        "params": {
          "_newOwner": "The address to transfer ownership to.\r"
        }
      },
      "upgradeTo(string,address)": {
        "details": "Allows the upgradeability owner to upgrade the current version of the proxy.\r",
        "params": {
          "_newImplementation": "representing the address of the new implementation to be set.\r",
          "_newVersion": "representing the version name of the new implementation to be set.\r"
        }
      },
      "upgradeToAndCall(string,address,bytes)": {
        "details": "Allows the upgradeability owner to upgrade the current version of the proxy and call the new implementation\r to initialize whatever is needed through a low level call.\r",
        "params": {
          "_data": "represents the msg.data to bet sent in the low level call. This parameter may include the function\r signature of the implementation to be called with the needed payload\r",
          "_newImplementation": "representing the address of the new implementation to be set.\r",
          "_newVersion": "representing the version name of the new implementation to be set.\r"
        }
      },
      "version()": {
        "details": "Tells the version name of the current implementation\r",
        "return": "string representing the name of the current version\r"
      }
    },
    "title": "USDTiered STO module Proxy\r"
  },
  "userdoc": {
    "methods": {
      "constructor": "Constructor\r"
    }
  }
}