{
  "contractName": "VestingEscrowWallet",
  "abi": [
    {
      "constant": false,
      "inputs": [],
      "name": "reclaimETH",
      "outputs": [],
      "payable": false,
      "stateMutability": "nonpayable",
      "type": "function"
    },
    {
      "constant": true,
      "inputs": [],
      "name": "ADMIN",
      "outputs": [
        {
          "name": "",
          "type": "bytes32"
        }
      ],
      "payable": false,
      "stateMutability": "view",
      "type": "function"
    },
    {
      "constant": false,
      "inputs": [],
      "name": "unpause",
      "outputs": [],
      "payable": false,
      "stateMutability": "nonpayable",
      "type": "function"
    },
    {
      "constant": true,
      "inputs": [],
      "name": "treasuryWallet",
      "outputs": [
        {
          "name": "",
          "type": "address"
        }
      ],
      "payable": false,
      "stateMutability": "view",
      "type": "function"
    },
    {
      "constant": true,
      "inputs": [],
      "name": "unassignedTokens",
      "outputs": [
        {
          "name": "",
          "type": "uint256"
        }
      ],
      "payable": false,
      "stateMutability": "view",
      "type": "function"
    },
    {
      "constant": true,
      "inputs": [],
      "name": "paused",
      "outputs": [
        {
          "name": "",
          "type": "bool"
        }
      ],
      "payable": false,
      "stateMutability": "view",
      "type": "function"
    },
    {
      "constant": true,
      "inputs": [],
      "name": "polyToken",
      "outputs": [
        {
          "name": "",
          "type": "address"
        }
      ],
      "payable": false,
      "stateMutability": "view",
      "type": "function"
    },
    {
      "constant": false,
      "inputs": [],
      "name": "pause",
      "outputs": [],
      "payable": false,
      "stateMutability": "nonpayable",
      "type": "function"
    },
    {
      "constant": true,
      "inputs": [
        {
          "name": "",
          "type": "address"
        },
        {
          "name": "",
          "type": "uint256"
        }
      ],
      "name": "schedules",
      "outputs": [
        {
          "name": "templateName",
          "type": "bytes32"
        },
        {
          "name": "claimedTokens",
          "type": "uint256"
        },
        {
          "name": "startTime",
          "type": "uint256"
        }
      ],
      "payable": false,
      "stateMutability": "view",
      "type": "function"
    },
    {
      "constant": false,
      "inputs": [
        {
          "name": "_tokenContract",
          "type": "address"
        }
      ],
      "name": "reclaimERC20",
      "outputs": [],
      "payable": false,
      "stateMutability": "nonpayable",
      "type": "function"
    },
    {
      "constant": true,
      "inputs": [],
      "name": "OPERATOR",
      "outputs": [
        {
          "name": "",
          "type": "bytes32"
        }
      ],
      "payable": false,
      "stateMutability": "view",
      "type": "function"
    },
    {
      "constant": true,
      "inputs": [],
      "name": "securityToken",
      "outputs": [
        {
          "name": "",
          "type": "address"
        }
      ],
      "payable": false,
      "stateMutability": "view",
      "type": "function"
    },
    {
      "constant": true,
      "inputs": [],
      "name": "factory",
      "outputs": [
        {
          "name": "",
          "type": "address"
        }
      ],
      "payable": false,
      "stateMutability": "view",
      "type": "function"
    },
    {
      "constant": true,
      "inputs": [
        {
          "name": "",
          "type": "uint256"
        }
      ],
      "name": "templateNames",
      "outputs": [
        {
          "name": "",
          "type": "bytes32"
        }
      ],
      "payable": false,
      "stateMutability": "view",
      "type": "function"
    },
    {
      "constant": true,
      "inputs": [
        {
          "name": "",
          "type": "uint256"
        }
      ],
      "name": "beneficiaries",
      "outputs": [
        {
          "name": "",
          "type": "address"
        }
      ],
      "payable": false,
      "stateMutability": "view",
      "type": "function"
    },
    {
      "constant": true,
      "inputs": [],
      "name": "getDataStore",
      "outputs": [
        {
          "name": "",
          "type": "address"
        }
      ],
      "payable": false,
      "stateMutability": "view",
      "type": "function"
    },
    {
      "inputs": [
        {
          "name": "_securityToken",
          "type": "address"
        },
        {
          "name": "_polyAddress",
          "type": "address"
        }
      ],
      "payable": false,
      "stateMutability": "nonpayable",
      "type": "constructor"
    },
    {
      "anonymous": false,
      "inputs": [
        {
          "indexed": true,
          "name": "_beneficiary",
          "type": "address"
        },
        {
          "indexed": false,
          "name": "_templateName",
          "type": "bytes32"
        },
        {
          "indexed": false,
          "name": "_startTime",
          "type": "uint256"
        }
      ],
      "name": "AddSchedule",
      "type": "event"
    },
    {
      "anonymous": false,
      "inputs": [
        {
          "indexed": true,
          "name": "_beneficiary",
          "type": "address"
        },
        {
          "indexed": false,
          "name": "_templateName",
          "type": "bytes32"
        },
        {
          "indexed": false,
          "name": "_startTime",
          "type": "uint256"
        }
      ],
      "name": "ModifySchedule",
      "type": "event"
    },
    {
      "anonymous": false,
      "inputs": [
        {
          "indexed": true,
          "name": "_beneficiary",
          "type": "address"
        }
      ],
      "name": "RevokeAllSchedules",
      "type": "event"
    },
    {
      "anonymous": false,
      "inputs": [
        {
          "indexed": true,
          "name": "_beneficiary",
          "type": "address"
        },
        {
          "indexed": false,
          "name": "_templateName",
          "type": "bytes32"
        }
      ],
      "name": "RevokeSchedule",
      "type": "event"
    },
    {
      "anonymous": false,
      "inputs": [
        {
          "indexed": false,
          "name": "_numberOfTokens",
          "type": "uint256"
        },
        {
          "indexed": false,
          "name": "_sender",
          "type": "address"
        }
      ],
      "name": "DepositTokens",
      "type": "event"
    },
    {
      "anonymous": false,
      "inputs": [
        {
          "indexed": false,
          "name": "_numberOfTokens",
          "type": "uint256"
        },
        {
          "indexed": false,
          "name": "_sender",
          "type": "address"
        }
      ],
      "name": "SendToTreasury",
      "type": "event"
    },
    {
      "anonymous": false,
      "inputs": [
        {
          "indexed": true,
          "name": "_beneficiary",
          "type": "address"
        },
        {
          "indexed": false,
          "name": "_numberOfTokens",
          "type": "uint256"
        }
      ],
      "name": "SendTokens",
      "type": "event"
    },
    {
      "anonymous": false,
      "inputs": [
        {
          "indexed": false,
          "name": "_name",
          "type": "bytes32"
        },
        {
          "indexed": false,
          "name": "_numberOfTokens",
          "type": "uint256"
        },
        {
          "indexed": false,
          "name": "_duration",
          "type": "uint256"
        },
        {
          "indexed": false,
          "name": "_frequency",
          "type": "uint256"
        }
      ],
      "name": "AddTemplate",
      "type": "event"
    },
    {
      "anonymous": false,
      "inputs": [
        {
          "indexed": false,
          "name": "_name",
          "type": "bytes32"
        }
      ],
      "name": "RemoveTemplate",
      "type": "event"
    },
    {
      "anonymous": false,
      "inputs": [
        {
          "indexed": false,
          "name": "_newWallet",
          "type": "address"
        },
        {
          "indexed": false,
          "name": "_oldWallet",
          "type": "address"
        }
      ],
      "name": "TreasuryWalletChanged",
      "type": "event"
    },
    {
      "anonymous": false,
      "inputs": [
        {
          "indexed": false,
          "name": "account",
          "type": "address"
        }
      ],
      "name": "Pause",
      "type": "event"
    },
    {
      "anonymous": false,
      "inputs": [
        {
          "indexed": false,
          "name": "account",
          "type": "address"
        }
      ],
      "name": "Unpause",
      "type": "event"
    },
    {
      "constant": true,
      "inputs": [],
      "name": "getInitFunction",
      "outputs": [
        {
          "name": "",
          "type": "bytes4"
        }
      ],
      "payable": false,
      "stateMutability": "pure",
      "type": "function"
    },
    {
      "constant": false,
      "inputs": [
        {
          "name": "_treasuryWallet",
          "type": "address"
        }
      ],
      "name": "configure",
      "outputs": [],
      "payable": false,
      "stateMutability": "nonpayable",
      "type": "function"
    },
    {
      "constant": false,
      "inputs": [
        {
          "name": "_newTreasuryWallet",
          "type": "address"
        }
      ],
      "name": "changeTreasuryWallet",
      "outputs": [],
      "payable": false,
      "stateMutability": "nonpayable",
      "type": "function"
    },
    {
      "constant": false,
      "inputs": [
        {
          "name": "_numberOfTokens",
          "type": "uint256"
        }
      ],
      "name": "depositTokens",
      "outputs": [],
      "payable": false,
      "stateMutability": "nonpayable",
      "type": "function"
    },
    {
      "constant": false,
      "inputs": [
        {
          "name": "_amount",
          "type": "uint256"
        }
      ],
      "name": "sendToTreasury",
      "outputs": [],
      "payable": false,
      "stateMutability": "nonpayable",
      "type": "function"
    },
    {
      "constant": true,
      "inputs": [],
      "name": "getTreasuryWallet",
      "outputs": [
        {
          "name": "",
          "type": "address"
        }
      ],
      "payable": false,
      "stateMutability": "view",
      "type": "function"
    },
    {
      "constant": false,
      "inputs": [
        {
          "name": "_beneficiary",
          "type": "address"
        }
      ],
      "name": "pushAvailableTokens",
      "outputs": [],
      "payable": false,
      "stateMutability": "nonpayable",
      "type": "function"
    },
    {
      "constant": false,
      "inputs": [],
      "name": "pullAvailableTokens",
      "outputs": [],
      "payable": false,
      "stateMutability": "nonpayable",
      "type": "function"
    },
    {
      "constant": false,
      "inputs": [
        {
          "name": "_name",
          "type": "bytes32"
        },
        {
          "name": "_numberOfTokens",
          "type": "uint256"
        },
        {
          "name": "_duration",
          "type": "uint256"
        },
        {
          "name": "_frequency",
          "type": "uint256"
        }
      ],
      "name": "addTemplate",
      "outputs": [],
      "payable": false,
      "stateMutability": "nonpayable",
      "type": "function"
    },
    {
      "constant": false,
      "inputs": [
        {
          "name": "_name",
          "type": "bytes32"
        }
      ],
      "name": "removeTemplate",
      "outputs": [],
      "payable": false,
      "stateMutability": "nonpayable",
      "type": "function"
    },
    {
      "constant": true,
      "inputs": [],
      "name": "getTemplateCount",
      "outputs": [
        {
          "name": "",
          "type": "uint256"
        }
      ],
      "payable": false,
      "stateMutability": "view",
      "type": "function"
    },
    {
      "constant": true,
      "inputs": [],
      "name": "getAllTemplateNames",
      "outputs": [
        {
          "name": "",
          "type": "bytes32[]"
        }
      ],
      "payable": false,
      "stateMutability": "view",
      "type": "function"
    },
    {
      "constant": false,
      "inputs": [
        {
          "name": "_beneficiary",
          "type": "address"
        },
        {
          "name": "_templateName",
          "type": "bytes32"
        },
        {
          "name": "_numberOfTokens",
          "type": "uint256"
        },
        {
          "name": "_duration",
          "type": "uint256"
        },
        {
          "name": "_frequency",
          "type": "uint256"
        },
        {
          "name": "_startTime",
          "type": "uint256"
        }
      ],
      "name": "addSchedule",
      "outputs": [],
      "payable": false,
      "stateMutability": "nonpayable",
      "type": "function"
    },
    {
      "constant": false,
      "inputs": [
        {
          "name": "_beneficiary",
          "type": "address"
        },
        {
          "name": "_templateName",
          "type": "bytes32"
        },
        {
          "name": "_startTime",
          "type": "uint256"
        }
      ],
      "name": "addScheduleFromTemplate",
      "outputs": [],
      "payable": false,
      "stateMutability": "nonpayable",
      "type": "function"
    },
    {
      "constant": false,
      "inputs": [
        {
          "name": "_beneficiary",
          "type": "address"
        },
        {
          "name": "_templateName",
          "type": "bytes32"
        },
        {
          "name": "_startTime",
          "type": "uint256"
        }
      ],
      "name": "modifySchedule",
      "outputs": [],
      "payable": false,
      "stateMutability": "nonpayable",
      "type": "function"
    },
    {
      "constant": false,
      "inputs": [
        {
          "name": "_beneficiary",
          "type": "address"
        },
        {
          "name": "_templateName",
          "type": "bytes32"
        }
      ],
      "name": "revokeSchedule",
      "outputs": [],
      "payable": false,
      "stateMutability": "nonpayable",
      "type": "function"
    },
    {
      "constant": false,
      "inputs": [
        {
          "name": "_beneficiary",
          "type": "address"
        }
      ],
      "name": "revokeAllSchedules",
      "outputs": [],
      "payable": false,
      "stateMutability": "nonpayable",
      "type": "function"
    },
    {
      "constant": true,
      "inputs": [
        {
          "name": "_beneficiary",
          "type": "address"
        },
        {
          "name": "_templateName",
          "type": "bytes32"
        }
      ],
      "name": "getSchedule",
      "outputs": [
        {
          "name": "",
          "type": "uint256"
        },
        {
          "name": "",
          "type": "uint256"
        },
        {
          "name": "",
          "type": "uint256"
        },
        {
          "name": "",
          "type": "uint256"
        },
        {
          "name": "",
          "type": "uint256"
        },
        {
          "name": "",
          "type": "uint8"
        }
      ],
      "payable": false,
      "stateMutability": "view",
      "type": "function"
    },
    {
      "constant": true,
      "inputs": [
        {
          "name": "_beneficiary",
          "type": "address"
        }
      ],
      "name": "getTemplateNames",
      "outputs": [
        {
          "name": "",
          "type": "bytes32[]"
        }
      ],
      "payable": false,
      "stateMutability": "view",
      "type": "function"
    },
    {
      "constant": true,
      "inputs": [
        {
          "name": "_beneficiary",
          "type": "address"
        }
      ],
      "name": "getScheduleCount",
      "outputs": [
        {
          "name": "",
          "type": "uint256"
        }
      ],
      "payable": false,
      "stateMutability": "view",
      "type": "function"
    },
    {
      "constant": false,
      "inputs": [
        {
          "name": "_fromIndex",
          "type": "uint256"
        },
        {
          "name": "_toIndex",
          "type": "uint256"
        }
      ],
      "name": "pushAvailableTokensMulti",
      "outputs": [],
      "payable": false,
      "stateMutability": "nonpayable",
      "type": "function"
    },
    {
      "constant": false,
      "inputs": [
        {
          "name": "_beneficiaries",
          "type": "address[]"
        },
        {
          "name": "_templateNames",
          "type": "bytes32[]"
        },
        {
          "name": "_numberOfTokens",
          "type": "uint256[]"
        },
        {
          "name": "_durations",
          "type": "uint256[]"
        },
        {
          "name": "_frequencies",
          "type": "uint256[]"
        },
        {
          "name": "_startTimes",
          "type": "uint256[]"
        }
      ],
      "name": "addScheduleMulti",
      "outputs": [],
      "payable": false,
      "stateMutability": "nonpayable",
      "type": "function"
    },
    {
      "constant": false,
      "inputs": [
        {
          "name": "_beneficiaries",
          "type": "address[]"
        },
        {
          "name": "_templateNames",
          "type": "bytes32[]"
        },
        {
          "name": "_startTimes",
          "type": "uint256[]"
        }
      ],
      "name": "addScheduleFromTemplateMulti",
      "outputs": [],
      "payable": false,
      "stateMutability": "nonpayable",
      "type": "function"
    },
    {
      "constant": false,
      "inputs": [
        {
          "name": "_beneficiaries",
          "type": "address[]"
        }
      ],
      "name": "revokeSchedulesMulti",
      "outputs": [],
      "payable": false,
      "stateMutability": "nonpayable",
      "type": "function"
    },
    {
      "constant": false,
      "inputs": [
        {
          "name": "_beneficiaries",
          "type": "address[]"
        },
        {
          "name": "_templateNames",
          "type": "bytes32[]"
        },
        {
          "name": "_startTimes",
          "type": "uint256[]"
        }
      ],
      "name": "modifyScheduleMulti",
      "outputs": [],
      "payable": false,
      "stateMutability": "nonpayable",
      "type": "function"
    },
    {
      "constant": true,
      "inputs": [],
      "name": "getPermissions",
      "outputs": [
        {
          "name": "",
          "type": "bytes32[]"
        }
      ],
      "payable": false,
      "stateMutability": "view",
      "type": "function"
    }
  ],
  "bytecode": "0x6080604052600d8054600160a01b60ff021916905534801561002057600080fd5b50604051604080613f3b8339810180604052604081101561004057600080fd5b508051602090910151600c80546001600160a01b039384166001600160a01b031991821617909155600b8054821633179055600d8054939092169216919091179055613eaa806100916000396000f3fe608060405234801561001057600080fd5b506004361061025e5760003560e01c8063854e968211610146578063c45a0155116100c3578063dd49756e11610087578063dd49756e14610d12578063e6263df014610d2f578063e842abe814610d55578063efeb5e5814610d72578063f1d7fe5214610d8f578063fe58265e14610e305761025e565b8063c45a015514610af3578063c8bfe26914610afb578063ca0337e814610ca0578063d5d0fb5414610ccf578063dbcddeb514610cf55761025e565b80639ccd86cc1161010a5780639ccd86cc14610913578063a29f753314610ab8578063b84dfbd214610adb578063c05b21ce14610ae3578063c3a07df614610aeb5761025e565b8063854e9682146107e45780638905fd4f1461082e578063903f1f3c14610854578063983d2737146108c75780639c3b6757146108cf5761025e565b80634626402b116101df5780635c975abb116101a35780635c975abb1461074057806368896fa31461075c5780636faa22a51461078857806375cb2672146107905780637bc11465146107b65780638456cb59146107dc5761025e565b80634626402b146106e557806347e09a0b146106ed57806347e3fd871461070a5780635016959a14610712578063537c1ac71461071a5761025e565b80632c035b74116102265780632c035b74146103045780632d846f6114610328578063316774711461035a578063398c5b05146103b25780633f4ba83a146106dd5761025e565b80630f144a48146102635780631613ec9d1461026d578063240894aa1461029257806327461e62146102ca5780632a0acc6a146102fc575b600080fd5b61026b610e38565b005b610275610e70565b604080516001600160e01b03199092168252519081900360200190f35b6102b8600480360360208110156102a857600080fd5b50356001600160a01b0316610e7f565b60408051918252519081900360200190f35b61026b600480360360608110156102e057600080fd5b506001600160a01b038135169060208101359060400135610ef0565b6102b8610f59565b61030c610f68565b604080516001600160a01b039092168252519081900360200190f35b61026b6004803603606081101561033e57600080fd5b506001600160a01b038135169060208101359060400135611085565b6103626110e8565b60408051602080825283518183015283519192839290830191858101910280838360005b8381101561039e578181015183820152602001610386565b505050509050019250505060405180910390f35b61026b600480360360c08110156103c857600080fd5b810190602081018135600160201b8111156103e257600080fd5b8201836020820111156103f457600080fd5b803590602001918460208302840111600160201b8311171561041557600080fd5b9190808060200260200160405190810160405280939291908181526020018383602002808284376000920191909152509295949360208101935035915050600160201b81111561046457600080fd5b82018360208201111561047657600080fd5b803590602001918460208302840111600160201b8311171561049757600080fd5b9190808060200260200160405190810160405280939291908181526020018383602002808284376000920191909152509295949360208101935035915050600160201b8111156104e657600080fd5b8201836020820111156104f857600080fd5b803590602001918460208302840111600160201b8311171561051957600080fd5b9190808060200260200160405190810160405280939291908181526020018383602002808284376000920191909152509295949360208101935035915050600160201b81111561056857600080fd5b82018360208201111561057a57600080fd5b803590602001918460208302840111600160201b8311171561059b57600080fd5b9190808060200260200160405190810160405280939291908181526020018383602002808284376000920191909152509295949360208101935035915050600160201b8111156105ea57600080fd5b8201836020820111156105fc57600080fd5b803590602001918460208302840111600160201b8311171561061d57600080fd5b9190808060200260200160405190810160405280939291908181526020018383602002808284376000920191909152509295949360208101935035915050600160201b81111561066c57600080fd5b82018360208201111561067e57600080fd5b803590602001918460208302840111600160201b8311171561069f57600080fd5b919080806020026020016040519081016040528093929190818152602001838360200280828437600092019190915250929550611140945050505050565b61026b6112be565b61030c6112d0565b61026b6004803603602081101561070357600080fd5b50356112df565b6102b86114ed565b6102b86114f3565b61026b6004803603602081101561073057600080fd5b50356001600160a01b03166114f9565b61074861150a565b604080519115158252519081900360200190f35b61026b6004803603604081101561077257600080fd5b506001600160a01b03813516906020013561151a565b61030c611648565b61026b600480360360208110156107a657600080fd5b50356001600160a01b0316611657565b610362600480360360208110156107cc57600080fd5b50356001600160a01b03166116b9565b61026b611778565b610810600480360360408110156107fa57600080fd5b506001600160a01b038135169060200135611788565b60408051938452602084019290925282820152519081900360600190f35b61026b6004803603602081101561084457600080fd5b50356001600160a01b03166117c7565b6108806004803603604081101561086a57600080fd5b506001600160a01b03813516906020013561196c565b604051808781526020018681526020018581526020018481526020018381526020018260028111156108ae57fe5b60ff168152602001965050505050505060405180910390f35b6102b8611a58565b61026b600480360360c08110156108e557600080fd5b506001600160a01b038135169060208101359060408101359060608101359060808101359060a00135611a6a565b61026b6004803603606081101561092957600080fd5b810190602081018135600160201b81111561094357600080fd5b82018360208201111561095557600080fd5b803590602001918460208302840111600160201b8311171561097657600080fd5b9190808060200260200160405190810160405280939291908181526020018383602002808284376000920191909152509295949360208101935035915050600160201b8111156109c557600080fd5b8201836020820111156109d757600080fd5b803590602001918460208302840111600160201b831117156109f857600080fd5b9190808060200260200160405190810160405280939291908181526020018383602002808284376000920191909152509295949360208101935035915050600160201b811115610a4757600080fd5b820183602082011115610a5957600080fd5b803590602001918460208302840111600160201b83111715610a7a57600080fd5b919080806020026020016040519081016040528093929190818152602001838360200280828437600092019190915250929550611ad9945050505050565b61026b60048036036040811015610ace57600080fd5b5080359060200135611bf1565b61030c611d1b565b61026b611d2a565b610362611d8d565b61030c611e02565b61026b60048036036060811015610b1157600080fd5b810190602081018135600160201b811115610b2b57600080fd5b820183602082011115610b3d57600080fd5b803590602001918460208302840111600160201b83111715610b5e57600080fd5b9190808060200260200160405190810160405280939291908181526020018383602002808284376000920191909152509295949360208101935035915050600160201b811115610bad57600080fd5b820183602082011115610bbf57600080fd5b803590602001918460208302840111600160201b83111715610be057600080fd5b9190808060200260200160405190810160405280939291908181526020018383602002808284376000920191909152509295949360208101935035915050600160201b811115610c2f57600080fd5b820183602082011115610c4157600080fd5b803590602001918460208302840111600160201b83111715610c6257600080fd5b919080806020026020016040519081016040528093929190818152602001838360200280828437600092019190915250929550611e11945050505050565b61026b60048036036080811015610cb657600080fd5b5080359060208101359060408101359060600135611f22565b61026b60048036036020811015610ce557600080fd5b50356001600160a01b0316611f86565b61026b60048036036020811015610d0b57600080fd5b5035611feb565b61026b60048036036020811015610d2857600080fd5b5035612207565b61026b60048036036020811015610d4557600080fd5b50356001600160a01b0316612268565b6102b860048036036020811015610d6b57600080fd5b50356122cc565b61030c60048036036020811015610d8857600080fd5b50356122ea565b61026b60048036036020811015610da557600080fd5b810190602081018135600160201b811115610dbf57600080fd5b820183602082011115610dd157600080fd5b803590602001918460208302840111600160201b83111715610df257600080fd5b919080806020026020016040519081016040528093929190818152602001838360200280828437600092019190915250929550612311945050505050565b61030c612399565b610e40612412565b6040513390303180156108fc02916000818181858888f19350505050158015610e6d573d6000803e3d6000fd5b50565b600160e11b633ae59339025b90565b60006001600160a01b038216610ed45760408051600160e51b62461bcd02815260206004820152600f6024820152600160881b6e496e76616c6964206164647265737302604482015290519081900360640190fd5b506001600160a01b031660009081526004602052604090205490565b600160d91b6420a226a4a702610f0681336124eb565b610f485760408051600160e51b62461bcd0281526020600482015260126024820152600080516020613e37833981519152604482015290519081900360640190fd5b610f53848484612623565b50505050565b600160d91b6420a226a4a70281565b6001546000906001600160a01b0316611073576000610f85612399565b6001600160a01b03166321f8a7217faae8817359f3dcb67d050f44f3e49f982e0359d90ca4b5f18569926304aaece660001b6040518263ffffffff1660e01b81526004018082815260200191505060206040518083038186803b158015610feb57600080fd5b505afa158015610fff573d6000803e3d6000fd5b505050506040513d602081101561101557600080fd5b505190506001600160a01b03811661106c5760408051600160e51b62461bcd02815260206004820152600f6024820152600160881b6e496e76616c6964206164647265737302604482015290519081900360640190fd5b9050610e7c565b506001546001600160a01b0316610e7c565b600160d91b6420a226a4a70261109b81336124eb565b6110dd5760408051600160e51b62461bcd0281526020600482015260126024820152600080516020613e37833981519152604482015290519081900360640190fd5b610f538484846129bf565b6060600a80548060200260200160405190810160405280929190818152602001828054801561113657602002820191906000526020600020905b815481526020019060010190808311611122575b5050505050905090565b600160d91b6420a226a4a70261115681336124eb565b6111985760408051600160e51b62461bcd0281526020600482015260126024820152600080516020613e37833981519152604482015290519081900360640190fd5b855187511480156111aa575084518751145b80156111b7575083518751145b80156111c4575082518751145b80156111d1575081518751145b6112205760408051600160e51b62461bcd02815260206004820152601560248201526001605b1b74082e4e4c2f2e640e6d2f4cae640dad2e6dac2e8c6d02604482015290519081900360640190fd5b60005b87518110156112b4576112ac88828151811061123b57fe5b602002602001015188838151811061124f57fe5b602002602001015188848151811061126357fe5b602002602001015188858151811061127757fe5b602002602001015188868151811061128b57fe5b602002602001015188878151811061129f57fe5b6020026020010151612b0c565b600101611223565b5050505050505050565b6112c6612412565b6112ce612b2b565b565b6001546001600160a01b031681565b600160d91b6420a226a4a7026112f581336124eb565b6113375760408051600160e51b62461bcd0281526020600482015260126024820152600080516020613e37833981519152604482015290519081900360640190fd5b61134082612bd1565b61138c5760408051600160e51b62461bcd0281526020600482015260126024820152600160721b7115195b5c1b185d19481b9bdd08199bdd5b9902604482015290519081900360640190fd5b600082815260076020526040902054156113f05760408051600160e51b62461bcd02815260206004820152601060248201527f54656d706c617465206973207573656400000000000000000000000000000000604482015290519081900360640190fd5b600082815260096020526040902060030154600a5460001901811461147a57600a8054600019810190811061142157fe5b9060005260206000200154600a828154811061143957fe5b90600052602060002001819055508060096000600a848154811061145957fe5b90600052602060002001548152602001908152602001600020600301819055505b600a80549061148d906000198301613d1a565b506000838152600960209081526040808320838155600181018490556002810184905560030192909255815185815291517f0f4b5905c7417477d4e63ba0e4d3e6172d2baa01319ce72ffcb8b9e5a69e9c9e9281900390910190a1505050565b60005481565b600a5490565b611501612412565b610e6d81612be5565b600d54600160a01b900460ff1681565b600160d91b6420a226a4a70261153081336124eb565b6115725760408051600160e51b62461bcd0281526020600482015260126024820152600080516020613e37833981519152604482015290519081900360640190fd5b61157c8383612c4f565b6001600160a01b03831660009081526006602090815260408083208584529091529020546115aa8482612d69565b60006115b68583612f15565b6000858152600960205260409020549091506115eb906115dc908363ffffffff61305516565b6000549063ffffffff61306a16565b6000556115f88585613083565b6116028585613242565b6040805185815290516001600160a01b038716917ff6951dfc535940817b728cd31be985822017a92da785f665f5767f60203f9fdd919081900360200190a25050505050565b600d546001600160a01b031681565b600b546001600160a01b031633146115015760408051600160e51b62461bcd02815260206004820152601560248201527f53656e646572206973206e6f7420666163746f72790000000000000000000000604482015290519081900360640190fd5b60606001600160a01b03821661170e5760408051600160e51b62461bcd02815260206004820152600f6024820152600160881b6e496e76616c6964206164647265737302604482015290519081900360640190fd5b6001600160a01b0382166000908152600560209081526040918290208054835181840281018401909452808452909183018282801561176c57602002820191906000526020600020905b815481526020019060010190808311611758575b50505050509050919050565b611780612412565b6112ce61338b565b600460205281600052604060002081815481106117a157fe5b600091825260209091206003909102018054600182015460029092015490935090915083565b6117cf612412565b6001600160a01b0381166118225760408051600160e51b62461bcd02815260206004820152600f6024820152600160881b6e496e76616c6964206164647265737302604482015290519081900360640190fd5b60408051600160e01b6370a08231028152306004820152905182916000916001600160a01b038416916370a08231916024808301926020929190829003018186803b15801561187057600080fd5b505afa158015611884573d6000803e3d6000fd5b505050506040513d602081101561189a57600080fd5b505160408051600160e01b63a9059cbb0281523360048201526024810183905290519192506001600160a01b0384169163a9059cbb916044808201926020929091908290030181600087803b1580156118f257600080fd5b505af1158015611906573d6000803e3d6000fd5b505050506040513d602081101561191c57600080fd5b50516119675760408051600160e51b62461bcd02815260206004820152600f60248201526001608a1b6e151c985b9cd9995c8819985a5b195902604482015290519081900360640190fd5b505050565b60008060008060008061197f8888612c4f565b6001600160a01b03881660009081526006602090815260408083208a84529091529020546119ab613d3e565b6001600160a01b038a1660009081526004602052604090208054839081106119cf57fe5b6000918252602080832060408051606081018252600390940290910180548085526001808301548686019081526002938401548786019081529288526009909552838720548651885284882090910154865188529390962090910154905192519395509092909190611a418f8f613430565b949f939e50919c509a509850909650945050505050565b600160c11b6727a822a920aa27a90281565b600160d91b6420a226a4a702611a8081336124eb565b611ac25760408051600160e51b62461bcd0281526020600482015260126024820152600080516020613e37833981519152604482015290519081900360640190fd5b611ad0878787878787612b0c565b50505050505050565b600160d91b6420a226a4a702611aef81336124eb565b611b315760408051600160e51b62461bcd0281526020600482015260126024820152600080516020613e37833981519152604482015290519081900360640190fd5b82518451148015611b43575081518451145b611b925760408051600160e51b62461bcd02815260206004820152601560248201526001605b1b74082e4e4c2f2e640e6d2f4cae640dad2e6dac2e8c6d02604482015290519081900360640190fd5b60005b8451811015611bea57611be2858281518110611bad57fe5b6020026020010151858381518110611bc157fe5b6020026020010151858481518110611bd557fe5b60200260200101516129bf565b600101611b95565b5050505050565b600160c11b6727a822a920aa27a902611c0a81336124eb565b611c4c5760408051600160e51b62461bcd0281526020600482015260126024820152600080516020613e37833981519152604482015290519081900360640190fd5b6002548210611ca55760408051600160e51b62461bcd02815260206004820152601260248201527f4172726179206f7574206f6620626f756e640000000000000000000000000000604482015290519081900360640190fd5b825b828111610f53576004600060028381548110611cbf57fe5b60009182526020808320909101546001600160a01b0316835282019290925260400190205415611d1357611d1360028281548110611cf957fe5b6000918252602090912001546001600160a01b0316612268565b600101611ca7565b600c546001600160a01b031681565b600d54600160a01b900460ff1615611d845760408051600160e51b62461bcd0281526020600482015260126024820152600160721b7110dbdb9d1c9858dd081a5cc81c185d5cd95902604482015290519081900360640190fd5b6112ce3361352f565b604080516002808252606080830184529283929190602083019080388339019050509050600160d91b6420a226a4a70281600081518110611dca57fe5b602002602001018181525050600160c11b6727a822a920aa27a90281600181518110611df257fe5b6020908102919091010152905090565b600b546001600160a01b031681565b600160d91b6420a226a4a702611e2781336124eb565b611e695760408051600160e51b62461bcd0281526020600482015260126024820152600080516020613e37833981519152604482015290519081900360640190fd5b82518451148015611e7b575081518451145b611eca5760408051600160e51b62461bcd02815260206004820152601560248201526001605b1b74082e4e4c2f2e640e6d2f4cae640dad2e6dac2e8c6d02604482015290519081900360640190fd5b60005b8451811015611bea57611f1a858281518110611ee557fe5b6020026020010151858381518110611ef957fe5b6020026020010151858481518110611f0d57fe5b6020026020010151612623565b600101611ecd565b600160d91b6420a226a4a702611f3881336124eb565b611f7a5760408051600160e51b62461bcd0281526020600482015260126024820152600080516020613e37833981519152604482015290519081900360640190fd5b611bea85858585613564565b600160d91b6420a226a4a702611f9c81336124eb565b611fde5760408051600160e51b62461bcd0281526020600482015260126024820152600080516020613e37833981519152604482015290519081900360640190fd5b611fe7826136f2565b5050565b600160c11b6727a822a920aa27a90261200481336124eb565b6120465760408051600160e51b62461bcd0281526020600482015260126024820152600080516020613e37833981519152604482015290519081900360640190fd5b6000821161209e5760408051600160e51b62461bcd02815260206004820152601560248201527f416d6f756e742063616e6e6f74206265207a65726f0000000000000000000000604482015290519081900360640190fd5b6000548211156120e257604051600160e51b62461bcd028152600401808060200182810382526028815260200180613e576028913960400191505060405180910390fd5b600080548390039055600c546001600160a01b031663a9059cbb612104610f68565b846040518363ffffffff1660e01b815260040180836001600160a01b03166001600160a01b0316815260200182815260200192505050602060405180830381600087803b15801561215457600080fd5b505af1158015612168573d6000803e3d6000fd5b505050506040513d602081101561217e57600080fd5b50516121c95760408051600160e51b62461bcd02815260206004820152600f60248201526001608a1b6e151c985b9cd9995c8819985a5b195902604482015290519081900360640190fd5b6040805183815233602082015281517fc8a407a238603428d072e9897a2c1c8a849419a45e44003118cb448aab7b1e60929181900390910190a15050565b600160d91b6420a226a4a70261221d81336124eb565b61225f5760408051600160e51b62461bcd0281526020600482015260126024820152600080516020613e37833981519152604482015290519081900360640190fd5b611fe782613901565b600160c11b6727a822a920aa27a90261228181336124eb565b6122c35760408051600160e51b62461bcd0281526020600482015260126024820152600080516020613e37833981519152604482015290519081900360640190fd5b611fe78261352f565b600a81815481106122d957fe5b600091825260209091200154905081565b600281815481106122f757fe5b6000918252602090912001546001600160a01b0316905081565b600160d91b6420a226a4a70261232781336124eb565b6123695760408051600160e51b62461bcd0281526020600482015260126024820152600080516020613e37833981519152604482015290519081900360640190fd5b60005b82518110156119675761239183828151811061238457fe5b60200260200101516136f2565b60010161236c565b600c5460408051600160e01b63660d0d6702815290516000926001600160a01b03169163660d0d67916004808301926020929190829003018186803b1580156123e157600080fd5b505afa1580156123f5573d6000803e3d6000fd5b505050506040513d602081101561240b57600080fd5b5051905090565b600c60009054906101000a90046001600160a01b03166001600160a01b0316638da5cb5b6040518163ffffffff1660e01b815260040160206040518083038186803b15801561246057600080fd5b505afa158015612474573d6000803e3d6000fd5b505050506040513d602081101561248a57600080fd5b50516001600160a01b031633146112ce5760408051600160e51b62461bcd02815260206004820152601360248201527f53656e646572206973206e6f74206f776e657200000000000000000000000000604482015290519081900360640190fd5b600080600c60009054906101000a90046001600160a01b03166001600160a01b0316638da5cb5b6040518163ffffffff1660e01b815260040160206040518083038186803b15801561253c57600080fd5b505afa158015612550573d6000803e3d6000fd5b505050506040513d602081101561256657600080fd5b5051600b546001600160a01b0385811692811683149350161481806125885750805b806126185750600c5460408051600160e01b638658b8b90281526001600160a01b0387811660048301523060248301526044820189905291519190921691638658b8b9916064808301926020929190829003018186803b1580156125eb57600080fd5b505afa1580156125ff573d6000803e3d6000fd5b505050506040513d602081101561261557600080fd5b50515b925050505b92915050565b6001600160a01b0383166126765760408051600160e51b62461bcd02815260206004820152600f6024820152600160881b6e496e76616c6964206164647265737302604482015290519081900360640190fd5b61267f82612bd1565b6126cb5760408051600160e51b62461bcd0281526020600482015260126024820152600160721b7115195b5c1b185d19481b9bdd08199bdd5b9902604482015290519081900360640190fd5b6001600160a01b03831660008181526006602090815260408083208684528252808320549383526004909152902054158061273d57506001600160a01b038416600090815260046020526040902080548491908390811061272857fe5b90600052602060002090600302016000015414155b6127915760408051600160e51b62461bcd02815260206004820152600d60248201527f416c726561647920616464656400000000000000000000000000000000000000604482015290519081900360640190fd5b428210156127df5760408051600160e51b62461bcd0281526020600482015260106024820152600160821b6f11185d19481a5b881d1a19481c185cdd02604482015290519081900360640190fd5b60008381526009602052604081205490548111156128145761281461280f6000548361305590919063ffffffff16565b613901565b600054612827908263ffffffff61305516565b60009081556001600160a01b03861681526003602052604090205460ff166128ad576002805460018082019092557f405787fa12a823e0f2b7631cc41b3ba8828b3321ca811111fa75cd3aa3bb5ace0180546001600160a01b0319166001600160a01b0388169081179091556000908152600360205260409020805460ff191690911790555b6001600160a01b038516600081815260046020908152604080832081516060810183528981528084018581528184018a815283546001818101865585895287892094516003909202909401908155915182840155516002909101558585526005845282852080548083018255908652848620018a90558585529054600684528285208a865284528285206000199182019055600784528285208054928301815580865284862090920180546001600160a01b031916871790558985529054600884528285208686528452938290209301909255815187815290810186905281517f0648acb820848a9d35db819b88d57fa03da7cd8ec5c0b249ea760b2b9e30b767929181900390910190a25050505050565b6129c98383612c4f565b428111612a165760408051600160e51b62461bcd0281526020600482015260106024820152600160821b6f11185d19481a5b881d1a19481c185cdd02604482015290519081900360640190fd5b6001600160a01b038316600081815260066020908152604080832086845282528083205493835260049091528120805483908110612a5057fe5b9060005260206000209060030201905080600201544210612abb5760408051600160e51b62461bcd02815260206004820152601060248201527f5363686564756c65207374617274656400000000000000000000000000000000604482015290519081900360640190fd5b60028101839055604080518581526020810185905281516001600160a01b038816927fab4b7762ecf86a0c9db600ac2450e7bfcfe5c374be6079054cff3d57aa4ed492928290030190a25050505050565b612b1885858585613564565b612b23868683612623565b505050505050565b600d54600160a01b900460ff16612b8c5760408051600160e51b62461bcd02815260206004820152601660248201527f436f6e7472616374206973206e6f742070617573656400000000000000000000604482015290519081900360640190fd5b600d8054600160a01b60ff02191690556040805133815290517faeb196d352664784d1900b0e7414a8face7d29f4dae8c4b0cf68ed477423bbf49181900360200190a1565b600090815260096020526040902054151590565b600154604080516001600160a01b038085168252909216602083015280517f419d718138b0b65d09976f881eed8b8d7075d4b6092f74af0a0ec9b3417cdd129281900390910190a1600180546001600160a01b0319166001600160a01b0392909216919091179055565b6001600160a01b038216612ca25760408051600160e51b62461bcd02815260206004820152600f6024820152600160881b6e496e76616c6964206164647265737302604482015290519081900360640190fd5b6001600160a01b0382166000818152600660209081526040808320858452825280832054938352600490915290205481108015612d1557506001600160a01b0383166000908152600460205260409020805483919083908110612d0157fe5b906000526020600020906003020160000154145b6119675760408051600160e51b62461bcd02815260206004820152601260248201527f5363686564756c65206e6f7420666f756e640000000000000000000000000000604482015290519081900360640190fd5b6000612d758383613a89565b90508015611967576001600160a01b03831660009081526004602052604090208054612dc791839185908110612da757fe5b90600052602060002090600302016001015461306a90919063ffffffff16565b6001600160a01b0384166000908152600460205260409020805484908110612deb57fe5b6000918252602080832060016003909302019190910192909255600c5460408051600160e01b63a9059cbb0281526001600160a01b038881166004830152602482018790529151919092169363a9059cbb936044808501949293928390030190829087803b158015612e5c57600080fd5b505af1158015612e70573d6000803e3d6000fd5b505050506040513d6020811015612e8657600080fd5b5051612ed15760408051600160e51b62461bcd02815260206004820152600f60248201526001608a1b6e151c985b9cd9995c8819985a5b195902604482015290519081900360640190fd5b6040805182815290516001600160a01b038516917f09bd3894cb7ab22415416dac0fecc519855a4b0842f1c9115e562ef557ab577b919081900360200190a2505050565b6000612f1f613d3e565b6001600160a01b0384166000908152600460205260409020805484908110612f4357fe5b906000526020600020906003020160405180606001604052908160008201548152602001600182015481526020016002820154815250509050612f84613d62565b5080516000908152600960209081526040918290208251608081018452815481526001820154928101929092526002810154828401526003015460608201529082015142111561304a576000612feb82604001518360200151613b1590919063ffffffff16565b9050600061301a836040015161300e86604001514261305590919063ffffffff16565b9063ffffffff613b1516565b9050818111156130275750805b825161303f90839061300e908463ffffffff613b3716565b94505050505061261d565b60009250505061261d565b60008282111561306457600080fd5b50900390565b60008282018381101561307c57600080fd5b9392505050565b6001600160a01b03821660008181526006602090815260408083208584528252808320549383526004909152902080546000190182146131dd578054819060001981019081106130cf57fe5b90600052602060002090600302018183815481106130e957fe5b6000918252602080832084546003909302019182556001808501549083015560029384015493909101929092556001600160a01b03861681526005909152604090208054600019810190811061313b57fe5b906000526020600020015460056000866001600160a01b03166001600160a01b03168152602001908152602001600020838154811061317657fe5b90600052602060002001819055508160066000866001600160a01b03166001600160a01b0316815260200190815260200160002060008385815481106131b857fe5b9060005260206000209060030201600001548152602001908152602001600020819055505b80546131ed826000198301613d8a565b506001600160a01b0384166000908152600560205260409020805490613217906000198301613d1a565b5050506001600160a01b03909116600090815260066020908152604080832093835292905290812055565b60008181526008602090815260408083206001600160a01b03861684528252808320548484526007909252909120546000190181146133435760008281526007602052604090208054600019810190811061329957fe5b60009182526020808320909101548483526007909152604090912080546001600160a01b0390921691839081106132cc57fe5b600091825260208083209190910180546001600160a01b0319166001600160a01b03949094169390931790925583815260088252604080822060079093528120805484939291908490811061331d57fe5b60009182526020808320909101546001600160a01b031683528201929092526040019020555b6000828152600760205260409020805490613362906000198301613d1a565b505060009081526008602090815260408083206001600160a01b03909416835292905290812055565b600d54600160a01b900460ff16156133e55760408051600160e51b62461bcd0281526020600482015260126024820152600160721b7110dbdb9d1c9858dd081a5cc81c185d5cd95902604482015290519081900360640190fd5b600d8054600160a01b60ff021916600160a01b1790556040805133815290517f5ee71a369c8672edded508e624ffc9257fa1ae6886ef32905c18e60196bca3999181900360200190a1565b600061343c8383612c4f565b6001600160a01b0383166000908152600660209081526040808320858452909152902054613468613d3e565b6001600160a01b038516600090815260046020526040902080548390811061348c57fe5b90600052602060002090600302016040518060600160405290816000820154815260200160018201548152602001600282015481525050905080604001514210156134dc5760009250505061261d565b80604001514211801561351457506000848152600960205260409081902060010154908201516135119163ffffffff61306a16565b42105b156135245760019250505061261d565b60029250505061261d565b60005b6001600160a01b038216600090815260046020526040902054811015611fe75761355c8282612d69565b600101613532565b836135b95760408051600160e51b62461bcd02815260206004820152600c60248201527f496e76616c6964206e616d650000000000000000000000000000000000000000604482015290519081900360640190fd5b6135c284612bd1565b156136175760408051600160e51b62461bcd02815260206004820152600e60248201527f416c726561647920657869737473000000000000000000000000000000000000604482015290519081900360640190fd5b613622838383613b5e565b600a8054600181810183557fc65a7bb8d6351c1cf70c95a316cc6a92839c986682d98bc35f958f4883f9d2a890910186905560408051608080820183528782526020828101888152838501888152965460001901606080860191825260008d815260098552879020955186559151968501969096559551600284015593516003909201919091558151888152928301879052828201869052928201849052517ff75bc4d11761304615627f4baa68bba6604e74f1e2c5f877c2f041c2121bc364929181900390910190a150505050565b6001600160a01b0381166137455760408051600160e51b62461bcd02815260206004820152600f6024820152600160881b6e496e76616c6964206164647265737302604482015290519081900360640190fd5b61374e8161352f565b6001600160a01b0381166000908152600460205260408120905b815481101561388657600061377d8483612f15565b9050613787613d62565b6009600085858154811061379757fe5b906000526020600020906003020160000154815260200190815260200160002060405180608001604052908160008201548152602001600182015481526020016002820154815260200160038201548152505090506138066115dc83836000015161305590919063ffffffff16565b60009081556001600160a01b0386168152600660205260408120855490919086908690811061383157fe5b90600052602060002090600302016000015481526020019081526020016000206000905561387c8585858154811061386557fe5b906000526020600020906003020160000154613242565b5050600101613768565b506001600160a01b03821660009081526004602052604081206138a891613db6565b6001600160a01b03821660009081526005602052604081206138c991613dd7565b6040516001600160a01b038316907f39a1ff520337e493c93717a8b243770677c27d92e1f0aaff12452376c683460990600090a25050565b600081116139595760408051600160e51b62461bcd02815260206004820152600d60248201527f53686f756c64206265203e203000000000000000000000000000000000000000604482015290519081900360640190fd5b600c5460408051600160e01b6323b872dd0281523360048201523060248201526044810184905290516001600160a01b03909216916323b872dd916064808201926020929091908290030181600087803b1580156139b657600080fd5b505af11580156139ca573d6000803e3d6000fd5b505050506040513d60208110156139e057600080fd5b5051613a365760408051600160e51b62461bcd02815260206004820152601360248201527f4661696c6564207472616e7366657246726f6d00000000000000000000000000604482015290519081900360640190fd5b600054613a49908263ffffffff61306a16565b6000556040805182815233602082015281517f836292ca682c8114ca41dff21057159782f24c693fe569d077e85d0d67ff1132929181900390910190a150565b6000613a93613d3e565b6001600160a01b0384166000908152600460205260409020805484908110613ab757fe5b9060005260206000209060030201604051806060016040529081600082015481526020016001820154815260200160028201548152505090506000613afc8585612f15565b905061261882602001518261305590919063ffffffff16565b6000808211613b2357600080fd5b6000828481613b2e57fe5b04949350505050565b600082613b465750600061261d565b82820282848281613b5357fe5b041461307c57600080fd5b60008311613ba75760408051600160e51b62461bcd02815260206004820152600b6024820152600160aa1b6a16995c9bc8185b5bdd5b9d02604482015290519081900360640190fd5b808281613bb057fe5b0615613c065760408051600160e51b62461bcd02815260206004820152601160248201527f496e76616c6964206672657175656e6379000000000000000000000000000000604482015290519081900360640190fd5b6000613c18838363ffffffff613b1516565b9050808481613c2357fe5b0615613c2e57600080fd5b6000613c40858363ffffffff613b1516565b9050600c60009054906101000a90046001600160a01b03166001600160a01b031663556f0dc76040518163ffffffff1660e01b815260040160206040518083038186803b158015613c9057600080fd5b505afa158015613ca4573d6000803e3d6000fd5b505050506040513d6020811015613cba57600080fd5b50518181613cc457fe5b0615611bea5760408051600160e51b62461bcd02815260206004820152601360248201527f496e76616c6964206772616e756c617269747900000000000000000000000000604482015290519081900360640190fd5b81548183558181111561196757600083815260209020611967918101908301613df1565b60405180606001604052806000801916815260200160008152602001600081525090565b6040518060800160405280600081526020016000815260200160008152602001600081525090565b815481835581811115611967576003028160030283600052602060002091820191016119679190613e0f565b5080546000825560030290600052602060002090810190610e6d9190613e0f565b5080546000825590600052602060002090810190610e6d91905b610e7c91905b80821115613e0b5760008155600101613df7565b5090565b610e7c91905b80821115613e0b576000808255600182018190556002820155600301613e1556fe496e76616c6964207065726d697373696f6e0000000000000000000000000000416d6f756e742069732067726561746572207468616e20756e61737369676e656420746f6b656e73a165627a7a723058200bd4b0377c6e5b7224d74c7c03b006295c561c8cbd5dd165f1e5986a3f6b8ed70029",
  "source": "pragma solidity 0.5.8;\r\n\r\nimport \"openzeppelin-solidity/contracts/math/SafeMath.sol\";\r\nimport \"./Wallet.sol\";\r\nimport \"./VestingEscrowWalletStorage.sol\";\r\n\r\n/**\r\n * @title Wallet for core vesting escrow functionality\r\n */\r\ncontract VestingEscrowWallet is VestingEscrowWalletStorage, Wallet {\r\n    using SafeMath for uint256;\r\n\r\n    // States used to represent the status of the schedule\r\n    enum State {CREATED, STARTED, COMPLETED}\r\n\r\n    // Emit when new schedule is added\r\n    event AddSchedule(\r\n        address indexed _beneficiary,\r\n        bytes32 _templateName,\r\n        uint256 _startTime\r\n    );\r\n    // Emit when schedule is modified\r\n    event ModifySchedule(\r\n        address indexed _beneficiary,\r\n        bytes32 _templateName,\r\n        uint256 _startTime\r\n    );\r\n    // Emit when all schedules are revoked for user\r\n    event RevokeAllSchedules(address indexed _beneficiary);\r\n    // Emit when schedule is revoked\r\n    event RevokeSchedule(address indexed _beneficiary, bytes32 _templateName);\r\n    // Emit when tokes are deposited to wallet\r\n    event DepositTokens(uint256 _numberOfTokens, address _sender);\r\n    // Emit when all unassigned tokens are sent to treasury\r\n    event SendToTreasury(uint256 _numberOfTokens, address _sender);\r\n    // Emit when is sent tokes to user\r\n    event SendTokens(address indexed _beneficiary, uint256 _numberOfTokens);\r\n    // Emit when template is added\r\n    event AddTemplate(bytes32 _name, uint256 _numberOfTokens, uint256 _duration, uint256 _frequency);\r\n    // Emit when template is removed\r\n    event RemoveTemplate(bytes32 _name);\r\n    // Emit when the treasury wallet gets changed\r\n    event TreasuryWalletChanged(address _newWallet, address _oldWallet);\r\n\r\n    /**\r\n     * @notice Constructor\r\n     * @param _securityToken Address of the security token\r\n     * @param _polyAddress Address of the polytoken\r\n     */\r\n    constructor (address _securityToken, address _polyAddress)\r\n    public\r\n    Module(_securityToken, _polyAddress)\r\n    {\r\n    }\r\n\r\n    /**\r\n     * @notice This function returns the signature of the configure function\r\n     */\r\n    function getInitFunction() public pure returns (bytes4) {\r\n        return this.configure.selector;\r\n    }\r\n\r\n    /**\r\n     * @notice Used to initialize the treasury wallet address\r\n     * @param _treasuryWallet Address of the treasury wallet\r\n     */\r\n    function configure(address _treasuryWallet) public onlyFactory {\r\n        _setWallet(_treasuryWallet);\r\n    }\r\n\r\n    /**\r\n     * @notice Used to change the treasury wallet address\r\n     * @param _newTreasuryWallet Address of the treasury wallet\r\n     */\r\n    function changeTreasuryWallet(address _newTreasuryWallet) public {\r\n        _onlySecurityTokenOwner();\r\n        _setWallet(_newTreasuryWallet);\r\n    }\r\n\r\n    function _setWallet(address _newTreasuryWallet) internal {\r\n        emit TreasuryWalletChanged(_newTreasuryWallet, treasuryWallet);\r\n        treasuryWallet = _newTreasuryWallet;\r\n    }\r\n\r\n    /**\r\n     * @notice Used to deposit tokens from treasury wallet to the vesting escrow wallet\r\n     * @param _numberOfTokens Number of tokens that should be deposited\r\n     */\r\n    function depositTokens(uint256 _numberOfTokens) external withPerm(ADMIN) {\r\n        _depositTokens(_numberOfTokens);\r\n    }\r\n\r\n    function _depositTokens(uint256 _numberOfTokens) internal {\r\n        require(_numberOfTokens > 0, \"Should be > 0\");\r\n        require(\r\n            securityToken.transferFrom(msg.sender, address(this), _numberOfTokens),\r\n            \"Failed transferFrom\"\r\n        );\r\n        unassignedTokens = unassignedTokens.add(_numberOfTokens);\r\n        emit DepositTokens(_numberOfTokens, msg.sender);\r\n    }\r\n\r\n    /**\r\n     * @notice Sends unassigned tokens to the treasury wallet\r\n     * @param _amount Amount of tokens that should be send to the treasury wallet\r\n     */\r\n    function sendToTreasury(uint256 _amount) public withPerm(OPERATOR) {\r\n        require(_amount > 0, \"Amount cannot be zero\");\r\n        require(_amount <= unassignedTokens, \"Amount is greater than unassigned tokens\");\r\n        unassignedTokens = unassignedTokens - _amount;\r\n        require(securityToken.transfer(getTreasuryWallet(), _amount), \"Transfer failed\");\r\n        emit SendToTreasury(_amount, msg.sender);\r\n    }\r\n\r\n    /**\r\n     * @notice Returns the treasury wallet address\r\n     */\r\n    function getTreasuryWallet() public view returns(address) {\r\n        if (treasuryWallet == address(0)) {\r\n            address wallet = IDataStore(getDataStore()).getAddress(TREASURY);\r\n            require(wallet != address(0), \"Invalid address\");\r\n            return wallet;\r\n        } else\r\n            return treasuryWallet;\r\n    }\r\n\r\n    /**\r\n     * @notice Pushes available tokens to the beneficiary's address\r\n     * @param _beneficiary Address of the beneficiary who will receive tokens\r\n     */\r\n    function pushAvailableTokens(address _beneficiary) public withPerm(OPERATOR) {\r\n        _sendTokens(_beneficiary);\r\n    }\r\n\r\n    /**\r\n     * @notice Used to withdraw available tokens by beneficiary\r\n     */\r\n    function pullAvailableTokens() external whenNotPaused {\r\n        _sendTokens(msg.sender);\r\n    }\r\n\r\n    /**\r\n     * @notice Adds template that can be used for creating schedule\r\n     * @param _name Name of the template will be created\r\n     * @param _numberOfTokens Number of tokens that should be assigned to schedule\r\n     * @param _duration Duration of the vesting schedule\r\n     * @param _frequency Frequency of the vesting schedule\r\n     */\r\n    function addTemplate(bytes32 _name, uint256 _numberOfTokens, uint256 _duration, uint256 _frequency) external withPerm(ADMIN) {\r\n        _addTemplate(_name, _numberOfTokens, _duration, _frequency);\r\n    }\r\n\r\n    function _addTemplate(bytes32 _name, uint256 _numberOfTokens, uint256 _duration, uint256 _frequency) internal {\r\n        require(_name != bytes32(0), \"Invalid name\");\r\n        require(!_isTemplateExists(_name), \"Already exists\");\r\n        _validateTemplate(_numberOfTokens, _duration, _frequency);\r\n        templateNames.push(_name);\r\n        templates[_name] = Template(_numberOfTokens, _duration, _frequency, templateNames.length - 1);\r\n        emit AddTemplate(_name, _numberOfTokens, _duration, _frequency);\r\n    }\r\n\r\n    /**\r\n     * @notice Removes template with a given name\r\n     * @param _name Name of the template that will be removed\r\n     */\r\n    function removeTemplate(bytes32 _name) external withPerm(ADMIN) {\r\n        require(_isTemplateExists(_name), \"Template not found\");\r\n        require(templateToUsers[_name].length == 0, \"Template is used\");\r\n        uint256 index = templates[_name].index;\r\n        if (index != templateNames.length - 1) {\r\n            templateNames[index] = templateNames[templateNames.length - 1];\r\n            templates[templateNames[index]].index = index;\r\n        }\r\n        templateNames.length--;\r\n        // delete template data\r\n        delete templates[_name];\r\n        emit RemoveTemplate(_name);\r\n    }\r\n\r\n    /**\r\n     * @notice Returns count of the templates those can be used for creating schedule\r\n     * @return Count of the templates\r\n     */\r\n    function getTemplateCount() external view returns(uint256) {\r\n        return templateNames.length;\r\n    }\r\n\r\n    /**\r\n     * @notice Gets the list of the template names those can be used for creating schedule\r\n     * @return bytes32 Array of all template names were created\r\n     */\r\n    function getAllTemplateNames() external view returns(bytes32[] memory) {\r\n        return templateNames;\r\n    }\r\n\r\n    /**\r\n     * @notice Adds vesting schedules for each of the beneficiary's address\r\n     * @param _beneficiary Address of the beneficiary for whom it is scheduled\r\n     * @param _templateName Name of the template that will be created\r\n     * @param _numberOfTokens Total number of tokens for created schedule\r\n     * @param _duration Duration of the created vesting schedule\r\n     * @param _frequency Frequency of the created vesting schedule\r\n     * @param _startTime Start time of the created vesting schedule\r\n     */\r\n    function addSchedule(\r\n        address _beneficiary,\r\n        bytes32 _templateName,\r\n        uint256 _numberOfTokens,\r\n        uint256 _duration,\r\n        uint256 _frequency,\r\n        uint256 _startTime\r\n    )\r\n        external\r\n        withPerm(ADMIN)\r\n    {\r\n        _addSchedule(_beneficiary, _templateName, _numberOfTokens, _duration, _frequency, _startTime);\r\n    }\r\n\r\n    function _addSchedule(\r\n        address _beneficiary,\r\n        bytes32 _templateName,\r\n        uint256 _numberOfTokens,\r\n        uint256 _duration,\r\n        uint256 _frequency,\r\n        uint256 _startTime\r\n    )\r\n        internal\r\n    {\r\n        _addTemplate(_templateName, _numberOfTokens, _duration, _frequency);\r\n        _addScheduleFromTemplate(_beneficiary, _templateName, _startTime);\r\n    }\r\n\r\n    /**\r\n     * @notice Adds vesting schedules from template for the beneficiary\r\n     * @param _beneficiary Address of the beneficiary for whom it is scheduled\r\n     * @param _templateName Name of the exists template\r\n     * @param _startTime Start time of the created vesting schedule\r\n     */\r\n    function addScheduleFromTemplate(address _beneficiary, bytes32 _templateName, uint256 _startTime) external withPerm(ADMIN) {\r\n        _addScheduleFromTemplate(_beneficiary, _templateName, _startTime);\r\n    }\r\n\r\n    function _addScheduleFromTemplate(address _beneficiary, bytes32 _templateName, uint256 _startTime) internal {\r\n        require(_beneficiary != address(0), \"Invalid address\");\r\n        require(_isTemplateExists(_templateName), \"Template not found\");\r\n        uint256 index = userToTemplateIndex[_beneficiary][_templateName];\r\n        require(\r\n            schedules[_beneficiary].length == 0 ||\r\n            schedules[_beneficiary][index].templateName != _templateName,\r\n            \"Already added\"\r\n        );\r\n        require(_startTime >= now, \"Date in the past\");\r\n        uint256 numberOfTokens = templates[_templateName].numberOfTokens;\r\n        if (numberOfTokens > unassignedTokens) {\r\n            _depositTokens(numberOfTokens.sub(unassignedTokens));\r\n        }\r\n        unassignedTokens = unassignedTokens.sub(numberOfTokens);\r\n        if (!beneficiaryAdded[_beneficiary]) {\r\n            beneficiaries.push(_beneficiary);\r\n            beneficiaryAdded[_beneficiary] = true;\r\n        }\r\n        schedules[_beneficiary].push(Schedule(_templateName, 0, _startTime));\r\n        userToTemplates[_beneficiary].push(_templateName);\r\n        userToTemplateIndex[_beneficiary][_templateName] = schedules[_beneficiary].length - 1;\r\n        templateToUsers[_templateName].push(_beneficiary);\r\n        templateToUserIndex[_templateName][_beneficiary] = templateToUsers[_templateName].length - 1;\r\n        emit AddSchedule(_beneficiary, _templateName, _startTime);\r\n    }\r\n\r\n    /**\r\n     * @notice Modifies vesting schedules for each of the beneficiary\r\n     * @param _beneficiary Address of the beneficiary for whom it is modified\r\n     * @param _templateName Name of the template was used for schedule creation\r\n     * @param _startTime Start time of the created vesting schedule\r\n     */\r\n    function modifySchedule(address _beneficiary, bytes32 _templateName, uint256 _startTime) external withPerm(ADMIN) {\r\n        _modifySchedule(_beneficiary, _templateName, _startTime);\r\n    }\r\n\r\n    function _modifySchedule(address _beneficiary, bytes32 _templateName, uint256 _startTime) internal {\r\n        _checkSchedule(_beneficiary, _templateName);\r\n        require(_startTime > now, \"Date in the past\");\r\n        uint256 index = userToTemplateIndex[_beneficiary][_templateName];\r\n        Schedule storage schedule = schedules[_beneficiary][index];\r\n        /*solium-disable-next-line security/no-block-members*/\r\n        require(now < schedule.startTime, \"Schedule started\");\r\n        schedule.startTime = _startTime;\r\n        emit ModifySchedule(_beneficiary, _templateName, _startTime);\r\n    }\r\n\r\n    /**\r\n     * @notice Revokes vesting schedule with given template name for given beneficiary\r\n     * @param _beneficiary Address of the beneficiary for whom it is revoked\r\n     * @param _templateName Name of the template was used for schedule creation\r\n     */\r\n    function revokeSchedule(address _beneficiary, bytes32 _templateName) external withPerm(ADMIN) {\r\n        _checkSchedule(_beneficiary, _templateName);\r\n        uint256 index = userToTemplateIndex[_beneficiary][_templateName];\r\n        _sendTokensPerSchedule(_beneficiary, index);\r\n        uint256 releasedTokens = _getReleasedTokens(_beneficiary, index);\r\n        unassignedTokens = unassignedTokens.add(templates[_templateName].numberOfTokens.sub(releasedTokens));\r\n        _deleteUserToTemplates(_beneficiary, _templateName);\r\n        _deleteTemplateToUsers(_beneficiary, _templateName);\r\n        emit RevokeSchedule(_beneficiary, _templateName);\r\n    }\r\n\r\n    function _deleteUserToTemplates(address _beneficiary, bytes32 _templateName) internal {\r\n        uint256 index = userToTemplateIndex[_beneficiary][_templateName];\r\n        Schedule[] storage userSchedules = schedules[_beneficiary];\r\n        if (index != userSchedules.length - 1) {\r\n            userSchedules[index] = userSchedules[userSchedules.length - 1];\r\n            userToTemplates[_beneficiary][index] = userToTemplates[_beneficiary][userToTemplates[_beneficiary].length - 1];\r\n            userToTemplateIndex[_beneficiary][userSchedules[index].templateName] = index;\r\n        }\r\n        userSchedules.length--;\r\n        userToTemplates[_beneficiary].length--;\r\n        delete userToTemplateIndex[_beneficiary][_templateName];\r\n    }\r\n\r\n    function _deleteTemplateToUsers(address _beneficiary, bytes32 _templateName) internal {\r\n        uint256 templateIndex = templateToUserIndex[_templateName][_beneficiary];\r\n        if (templateIndex != templateToUsers[_templateName].length - 1) {\r\n            templateToUsers[_templateName][templateIndex] = templateToUsers[_templateName][templateToUsers[_templateName].length - 1];\r\n            templateToUserIndex[_templateName][templateToUsers[_templateName][templateIndex]] = templateIndex;\r\n        }\r\n        templateToUsers[_templateName].length--;\r\n        delete templateToUserIndex[_templateName][_beneficiary];\r\n    }\r\n\r\n    /**\r\n     * @notice Revokes all vesting schedules for given beneficiary's address\r\n     * @param _beneficiary Address of the beneficiary for whom all schedules will be revoked\r\n     */\r\n    function revokeAllSchedules(address _beneficiary) public withPerm(ADMIN) {\r\n        _revokeAllSchedules(_beneficiary);\r\n    }\r\n\r\n    function _revokeAllSchedules(address _beneficiary) internal {\r\n        require(_beneficiary != address(0), \"Invalid address\");\r\n        _sendTokens(_beneficiary);\r\n        Schedule[] storage userSchedules = schedules[_beneficiary];\r\n        for (uint256 i = 0; i < userSchedules.length; i++) {\r\n            uint256 releasedTokens = _getReleasedTokens(_beneficiary, i);\r\n            Template memory template = templates[userSchedules[i].templateName];\r\n            unassignedTokens = unassignedTokens.add(template.numberOfTokens.sub(releasedTokens));\r\n            delete userToTemplateIndex[_beneficiary][userSchedules[i].templateName];\r\n            _deleteTemplateToUsers(_beneficiary, userSchedules[i].templateName);\r\n        }\r\n        delete schedules[_beneficiary];\r\n        delete userToTemplates[_beneficiary];\r\n        emit RevokeAllSchedules(_beneficiary);\r\n    }\r\n\r\n    /**\r\n     * @notice Returns beneficiary's schedule created using template name\r\n     * @param _beneficiary Address of the beneficiary who will receive tokens\r\n     * @param _templateName Name of the template was used for schedule creation\r\n     * @return beneficiary's schedule data (numberOfTokens, duration, frequency, startTime, claimedTokens, State)\r\n     */\r\n    function getSchedule(address _beneficiary, bytes32 _templateName) external view returns(uint256, uint256, uint256, uint256, uint256, State) {\r\n        _checkSchedule(_beneficiary, _templateName);\r\n        uint256 index = userToTemplateIndex[_beneficiary][_templateName];\r\n        Schedule memory schedule = schedules[_beneficiary][index];\r\n        return (\r\n            templates[schedule.templateName].numberOfTokens,\r\n            templates[schedule.templateName].duration,\r\n            templates[schedule.templateName].frequency,\r\n            schedule.startTime,\r\n            schedule.claimedTokens,\r\n            _getScheduleState(_beneficiary, _templateName)\r\n        );\r\n    }\r\n\r\n    function _getScheduleState(address _beneficiary, bytes32 _templateName) internal view returns(State) {\r\n        _checkSchedule(_beneficiary, _templateName);\r\n        uint256 index = userToTemplateIndex[_beneficiary][_templateName];\r\n        Schedule memory schedule = schedules[_beneficiary][index];\r\n        if (now < schedule.startTime) {\r\n            return State.CREATED;\r\n        } else if (now > schedule.startTime && now < schedule.startTime.add(templates[_templateName].duration)) {\r\n            return State.STARTED;\r\n        } else {\r\n            return State.COMPLETED;\r\n        }\r\n    }\r\n\r\n    /**\r\n     * @notice Returns list of the template names for given beneficiary's address\r\n     * @param _beneficiary Address of the beneficiary\r\n     * @return List of the template names that were used for schedule creation\r\n     */\r\n    function getTemplateNames(address _beneficiary) external view returns(bytes32[] memory) {\r\n        require(_beneficiary != address(0), \"Invalid address\");\r\n        return userToTemplates[_beneficiary];\r\n    }\r\n\r\n    /**\r\n     * @notice Returns count of the schedules were created for given beneficiary\r\n     * @param _beneficiary Address of the beneficiary\r\n     * @return Count of beneficiary's schedules\r\n     */\r\n    function getScheduleCount(address _beneficiary) external view returns(uint256) {\r\n        require(_beneficiary != address(0), \"Invalid address\");\r\n        return schedules[_beneficiary].length;\r\n    }\r\n\r\n    function _getAvailableTokens(address _beneficiary, uint256 _index) internal view returns(uint256) {\r\n        Schedule memory schedule = schedules[_beneficiary][_index];\r\n        uint256 releasedTokens = _getReleasedTokens(_beneficiary, _index);\r\n        return releasedTokens.sub(schedule.claimedTokens);\r\n    }\r\n\r\n    function _getReleasedTokens(address _beneficiary, uint256 _index) internal view returns(uint256) {\r\n        Schedule memory schedule = schedules[_beneficiary][_index];\r\n        Template memory template = templates[schedule.templateName];\r\n        /*solium-disable-next-line security/no-block-members*/\r\n        if (now > schedule.startTime) {\r\n            uint256 periodCount = template.duration.div(template.frequency);\r\n            /*solium-disable-next-line security/no-block-members*/\r\n            uint256 periodNumber = (now.sub(schedule.startTime)).div(template.frequency);\r\n            if (periodNumber > periodCount) {\r\n                periodNumber = periodCount;\r\n            }\r\n            return template.numberOfTokens.mul(periodNumber).div(periodCount);\r\n        } else {\r\n            return 0;\r\n        }\r\n    }\r\n\r\n    /**\r\n     * @notice Used to bulk send available tokens for each of the beneficiaries\r\n     * @param _fromIndex Start index of array of beneficiary's addresses\r\n     * @param _toIndex End index of array of beneficiary's addresses\r\n     */\r\n    function pushAvailableTokensMulti(uint256 _fromIndex, uint256 _toIndex) public withPerm(OPERATOR) {\r\n        require(_toIndex < beneficiaries.length, \"Array out of bound\");\r\n        for (uint256 i = _fromIndex; i <= _toIndex; i++) {\r\n            if (schedules[beneficiaries[i]].length !=0)\r\n                pushAvailableTokens(beneficiaries[i]);\r\n        }\r\n    }\r\n\r\n    /**\r\n     * @notice Used to bulk add vesting schedules for each of beneficiary\r\n     * @param _beneficiaries Array of the beneficiary's addresses\r\n     * @param _templateNames Array of the template names\r\n     * @param _numberOfTokens Array of number of tokens should be assigned to schedules\r\n     * @param _durations Array of the vesting duration\r\n     * @param _frequencies Array of the vesting frequency\r\n     * @param _startTimes Array of the vesting start time\r\n     */\r\n    function addScheduleMulti(\r\n        address[] memory _beneficiaries,\r\n        bytes32[] memory _templateNames,\r\n        uint256[] memory _numberOfTokens,\r\n        uint256[] memory _durations,\r\n        uint256[] memory _frequencies,\r\n        uint256[] memory _startTimes\r\n    )\r\n        public\r\n        withPerm(ADMIN)\r\n    {\r\n        require(\r\n            _beneficiaries.length == _templateNames.length && /*solium-disable-line operator-whitespace*/\r\n            _beneficiaries.length == _numberOfTokens.length && /*solium-disable-line operator-whitespace*/\r\n            _beneficiaries.length == _durations.length && /*solium-disable-line operator-whitespace*/\r\n            _beneficiaries.length == _frequencies.length && /*solium-disable-line operator-whitespace*/\r\n            _beneficiaries.length == _startTimes.length,\r\n            \"Arrays sizes mismatch\"\r\n        );\r\n        for (uint256 i = 0; i < _beneficiaries.length; i++) {\r\n            _addSchedule(_beneficiaries[i], _templateNames[i], _numberOfTokens[i], _durations[i], _frequencies[i], _startTimes[i]);\r\n        }\r\n    }\r\n\r\n    /**\r\n     * @notice Used to bulk add vesting schedules from template for each of the beneficiary\r\n     * @param _beneficiaries Array of beneficiary's addresses\r\n     * @param _templateNames Array of the template names were used for schedule creation\r\n     * @param _startTimes Array of the vesting start time\r\n     */\r\n    function addScheduleFromTemplateMulti(\r\n        address[] memory _beneficiaries,\r\n        bytes32[] memory _templateNames,\r\n        uint256[] memory _startTimes\r\n    )\r\n        public\r\n        withPerm(ADMIN)\r\n    {\r\n        require(_beneficiaries.length == _templateNames.length && _beneficiaries.length == _startTimes.length, \"Arrays sizes mismatch\");\r\n        for (uint256 i = 0; i < _beneficiaries.length; i++) {\r\n            _addScheduleFromTemplate(_beneficiaries[i], _templateNames[i], _startTimes[i]);\r\n        }\r\n    }\r\n\r\n    /**\r\n     * @notice Used to bulk revoke vesting schedules for each of the beneficiaries\r\n     * @param _beneficiaries Array of the beneficiary's addresses\r\n     */\r\n    function revokeSchedulesMulti(address[] memory _beneficiaries) public withPerm(ADMIN) {\r\n        for (uint256 i = 0; i < _beneficiaries.length; i++) {\r\n            _revokeAllSchedules(_beneficiaries[i]);\r\n        }\r\n    }\r\n\r\n    /**\r\n     * @notice Used to bulk modify vesting schedules for each of the beneficiaries\r\n     * @param _beneficiaries Array of the beneficiary's addresses\r\n     * @param _templateNames Array of the template names\r\n     * @param _startTimes Array of the vesting start time\r\n     */\r\n    function modifyScheduleMulti(\r\n        address[] memory _beneficiaries,\r\n        bytes32[] memory _templateNames,\r\n        uint256[] memory _startTimes\r\n    )\r\n        public\r\n        withPerm(ADMIN)\r\n    {\r\n        require(\r\n            _beneficiaries.length == _templateNames.length && /*solium-disable-line operator-whitespace*/\r\n            _beneficiaries.length == _startTimes.length,\r\n            \"Arrays sizes mismatch\"\r\n        );\r\n        for (uint256 i = 0; i < _beneficiaries.length; i++) {\r\n            _modifySchedule(_beneficiaries[i], _templateNames[i], _startTimes[i]);\r\n        }\r\n    }\r\n\r\n    function _checkSchedule(address _beneficiary, bytes32 _templateName) internal view {\r\n        require(_beneficiary != address(0), \"Invalid address\");\r\n        uint256 index = userToTemplateIndex[_beneficiary][_templateName];\r\n        require(\r\n            index < schedules[_beneficiary].length &&\r\n            schedules[_beneficiary][index].templateName == _templateName,\r\n            \"Schedule not found\"\r\n        );\r\n    }\r\n\r\n    function _isTemplateExists(bytes32 _name) internal view returns(bool) {\r\n        return templates[_name].numberOfTokens > 0;\r\n    }\r\n\r\n    function _validateTemplate(uint256 _numberOfTokens, uint256 _duration, uint256 _frequency) internal view {\r\n        require(_numberOfTokens > 0, \"Zero amount\");\r\n        require(_duration % _frequency == 0, \"Invalid frequency\");\r\n        uint256 periodCount = _duration.div(_frequency);\r\n        require(_numberOfTokens % periodCount == 0);\r\n        uint256 amountPerPeriod = _numberOfTokens.div(periodCount);\r\n        require(amountPerPeriod % securityToken.granularity() == 0, \"Invalid granularity\");\r\n    }\r\n\r\n    function _sendTokens(address _beneficiary) internal {\r\n        for (uint256 i = 0; i < schedules[_beneficiary].length; i++) {\r\n            _sendTokensPerSchedule(_beneficiary, i);\r\n        }\r\n    }\r\n\r\n    function _sendTokensPerSchedule(address _beneficiary, uint256 _index) internal {\r\n        uint256 amount = _getAvailableTokens(_beneficiary, _index);\r\n        if (amount > 0) {\r\n            schedules[_beneficiary][_index].claimedTokens = schedules[_beneficiary][_index].claimedTokens.add(amount);\r\n            require(securityToken.transfer(_beneficiary, amount), \"Transfer failed\");\r\n            emit SendTokens(_beneficiary, amount);\r\n        }\r\n    }\r\n\r\n    /**\r\n     * @notice Return the permissions flag that are associated with VestingEscrowWallet\r\n     */\r\n    function getPermissions() public view returns(bytes32[] memory) {\r\n        bytes32[] memory allPermissions = new bytes32[](2);\r\n        allPermissions[0] = ADMIN;\r\n        allPermissions[1] = OPERATOR;\r\n        return allPermissions;\r\n    }\r\n\r\n}\r\n",
  "sourcePath": "C:/mspace/polymath-core/contracts/modules/Wallet/VestingEscrowWallet.sol",
  "compiler": {
    "name": "solc",
    "version": "0.5.8+commit.23d335f2.Emscripten.clang"
  },
  "schemaVersion": "3.0.11",
  "updatedAt": "2019-08-05T22:53:45.141Z",
  "devdoc": {
    "methods": {
      "addSchedule(address,bytes32,uint256,uint256,uint256,uint256)": {
        "params": {
          "_beneficiary": "Address of the beneficiary for whom it is scheduled\r",
          "_duration": "Duration of the created vesting schedule\r",
          "_frequency": "Frequency of the created vesting schedule\r",
          "_numberOfTokens": "Total number of tokens for created schedule\r",
          "_startTime": "Start time of the created vesting schedule\r",
          "_templateName": "Name of the template that will be created\r"
        }
      },
      "addScheduleFromTemplate(address,bytes32,uint256)": {
        "params": {
          "_beneficiary": "Address of the beneficiary for whom it is scheduled\r",
          "_startTime": "Start time of the created vesting schedule\r",
          "_templateName": "Name of the exists template\r"
        }
      },
      "addScheduleFromTemplateMulti(address[],bytes32[],uint256[])": {
        "params": {
          "_beneficiaries": "Array of beneficiary's addresses\r",
          "_startTimes": "Array of the vesting start time\r",
          "_templateNames": "Array of the template names were used for schedule creation\r"
        }
      },
      "addScheduleMulti(address[],bytes32[],uint256[],uint256[],uint256[],uint256[])": {
        "params": {
          "_beneficiaries": "Array of the beneficiary's addresses\r",
          "_durations": "Array of the vesting duration\r",
          "_frequencies": "Array of the vesting frequency\r",
          "_numberOfTokens": "Array of number of tokens should be assigned to schedules\r",
          "_startTimes": "Array of the vesting start time\r",
          "_templateNames": "Array of the template names\r"
        }
      },
      "addTemplate(bytes32,uint256,uint256,uint256)": {
        "params": {
          "_duration": "Duration of the vesting schedule\r",
          "_frequency": "Frequency of the vesting schedule\r",
          "_name": "Name of the template will be created\r",
          "_numberOfTokens": "Number of tokens that should be assigned to schedule\r"
        }
      },
      "changeTreasuryWallet(address)": {
        "params": {
          "_newTreasuryWallet": "Address of the treasury wallet\r"
        }
      },
      "configure(address)": {
        "params": {
          "_treasuryWallet": "Address of the treasury wallet\r"
        }
      },
      "constructor": {
        "params": {
          "_polyAddress": "Address of the polytoken\r",
          "_securityToken": "Address of the security token\r"
        }
      },
      "depositTokens(uint256)": {
        "params": {
          "_numberOfTokens": "Number of tokens that should be deposited\r"
        }
      },
      "getAllTemplateNames()": {
        "return": "bytes32 Array of all template names were created\r"
      },
      "getSchedule(address,bytes32)": {
        "params": {
          "_beneficiary": "Address of the beneficiary who will receive tokens\r",
          "_templateName": "Name of the template was used for schedule creation\r"
        },
        "return": "beneficiary's schedule data (numberOfTokens, duration, frequency, startTime, claimedTokens, State)\r"
      },
      "getScheduleCount(address)": {
        "params": {
          "_beneficiary": "Address of the beneficiary\r"
        },
        "return": "Count of beneficiary's schedules\r"
      },
      "getTemplateCount()": {
        "return": "Count of the templates\r"
      },
      "getTemplateNames(address)": {
        "params": {
          "_beneficiary": "Address of the beneficiary\r"
        },
        "return": "List of the template names that were used for schedule creation\r"
      },
      "modifySchedule(address,bytes32,uint256)": {
        "params": {
          "_beneficiary": "Address of the beneficiary for whom it is modified\r",
          "_startTime": "Start time of the created vesting schedule\r",
          "_templateName": "Name of the template was used for schedule creation\r"
        }
      },
      "modifyScheduleMulti(address[],bytes32[],uint256[])": {
        "params": {
          "_beneficiaries": "Array of the beneficiary's addresses\r",
          "_startTimes": "Array of the vesting start time\r",
          "_templateNames": "Array of the template names\r"
        }
      },
      "pushAvailableTokens(address)": {
        "params": {
          "_beneficiary": "Address of the beneficiary who will receive tokens\r"
        }
      },
      "pushAvailableTokensMulti(uint256,uint256)": {
        "params": {
          "_fromIndex": "Start index of array of beneficiary's addresses\r",
          "_toIndex": "End index of array of beneficiary's addresses\r"
        }
      },
      "reclaimERC20(address)": {
        "details": "We duplicate here due to the overriden owner & onlyOwner\r",
        "params": {
          "_tokenContract": "The address of the token contract\r"
        }
      },
      "reclaimETH()": {
        "details": "We duplicate here due to the overriden owner & onlyOwner\r"
      },
      "removeTemplate(bytes32)": {
        "params": {
          "_name": "Name of the template that will be removed\r"
        }
      },
      "revokeAllSchedules(address)": {
        "params": {
          "_beneficiary": "Address of the beneficiary for whom all schedules will be revoked\r"
        }
      },
      "revokeSchedule(address,bytes32)": {
        "params": {
          "_beneficiary": "Address of the beneficiary for whom it is revoked\r",
          "_templateName": "Name of the template was used for schedule creation\r"
        }
      },
      "revokeSchedulesMulti(address[])": {
        "params": {
          "_beneficiaries": "Array of the beneficiary's addresses\r"
        }
      },
      "sendToTreasury(uint256)": {
        "params": {
          "_amount": "Amount of tokens that should be send to the treasury wallet\r"
        }
      }
    },
    "title": "Wallet for core vesting escrow functionality\r"
  },
  "userdoc": {
    "methods": {
      "addSchedule(address,bytes32,uint256,uint256,uint256,uint256)": {
        "notice": "Adds vesting schedules for each of the beneficiary's address\r"
      },
      "addScheduleFromTemplate(address,bytes32,uint256)": {
        "notice": "Adds vesting schedules from template for the beneficiary\r"
      },
      "addScheduleFromTemplateMulti(address[],bytes32[],uint256[])": {
        "notice": "Used to bulk add vesting schedules from template for each of the beneficiary\r"
      },
      "addScheduleMulti(address[],bytes32[],uint256[],uint256[],uint256[],uint256[])": {
        "notice": "Used to bulk add vesting schedules for each of beneficiary\r"
      },
      "addTemplate(bytes32,uint256,uint256,uint256)": {
        "notice": "Adds template that can be used for creating schedule\r"
      },
      "changeTreasuryWallet(address)": {
        "notice": "Used to change the treasury wallet address\r"
      },
      "configure(address)": {
        "notice": "Used to initialize the treasury wallet address\r"
      },
      "constructor": "Constructor\r",
      "depositTokens(uint256)": {
        "notice": "Used to deposit tokens from treasury wallet to the vesting escrow wallet\r"
      },
      "getAllTemplateNames()": {
        "notice": "Gets the list of the template names those can be used for creating schedule\r"
      },
      "getDataStore()": {
        "notice": "used to return the data store address of securityToken\r"
      },
      "getInitFunction()": {
        "notice": "This function returns the signature of the configure function\r"
      },
      "getPermissions()": {
        "notice": "Return the permissions flag that are associated with VestingEscrowWallet\r"
      },
      "getSchedule(address,bytes32)": {
        "notice": "Returns beneficiary's schedule created using template name\r"
      },
      "getScheduleCount(address)": {
        "notice": "Returns count of the schedules were created for given beneficiary\r"
      },
      "getTemplateCount()": {
        "notice": "Returns count of the templates those can be used for creating schedule\r"
      },
      "getTemplateNames(address)": {
        "notice": "Returns list of the template names for given beneficiary's address\r"
      },
      "getTreasuryWallet()": {
        "notice": "Returns the treasury wallet address\r"
      },
      "modifySchedule(address,bytes32,uint256)": {
        "notice": "Modifies vesting schedules for each of the beneficiary\r"
      },
      "modifyScheduleMulti(address[],bytes32[],uint256[])": {
        "notice": "Used to bulk modify vesting schedules for each of the beneficiaries\r"
      },
      "pause()": {
        "notice": "Pause (overridden function)\r"
      },
      "pullAvailableTokens()": {
        "notice": "Used to withdraw available tokens by beneficiary\r"
      },
      "pushAvailableTokens(address)": {
        "notice": "Pushes available tokens to the beneficiary's address\r"
      },
      "pushAvailableTokensMulti(uint256,uint256)": {
        "notice": "Used to bulk send available tokens for each of the beneficiaries\r"
      },
      "reclaimERC20(address)": {
        "notice": "Reclaims ERC20Basic compatible tokens\r"
      },
      "reclaimETH()": {
        "notice": "Reclaims ETH\r"
      },
      "removeTemplate(bytes32)": {
        "notice": "Removes template with a given name\r"
      },
      "revokeAllSchedules(address)": {
        "notice": "Revokes all vesting schedules for given beneficiary's address\r"
      },
      "revokeSchedule(address,bytes32)": {
        "notice": "Revokes vesting schedule with given template name for given beneficiary\r"
      },
      "revokeSchedulesMulti(address[])": {
        "notice": "Used to bulk revoke vesting schedules for each of the beneficiaries\r"
      },
      "sendToTreasury(uint256)": {
        "notice": "Sends unassigned tokens to the treasury wallet\r"
      },
      "unpause()": {
        "notice": "Unpause (overridden function)\r"
      }
    }
  }
}