{
  "contractName": "VestingEscrowWalletStorage",
  "abi": [
    {
      "constant": true,
      "inputs": [],
      "name": "treasuryWallet",
      "outputs": [
        {
          "name": "",
          "type": "address"
        }
      ],
      "payable": false,
      "stateMutability": "view",
      "type": "function"
    },
    {
      "constant": true,
      "inputs": [],
      "name": "unassignedTokens",
      "outputs": [
        {
          "name": "",
          "type": "uint256"
        }
      ],
      "payable": false,
      "stateMutability": "view",
      "type": "function"
    },
    {
      "constant": true,
      "inputs": [
        {
          "name": "",
          "type": "address"
        },
        {
          "name": "",
          "type": "uint256"
        }
      ],
      "name": "schedules",
      "outputs": [
        {
          "name": "templateName",
          "type": "bytes32"
        },
        {
          "name": "claimedTokens",
          "type": "uint256"
        },
        {
          "name": "startTime",
          "type": "uint256"
        }
      ],
      "payable": false,
      "stateMutability": "view",
      "type": "function"
    },
    {
      "constant": true,
      "inputs": [
        {
          "name": "",
          "type": "uint256"
        }
      ],
      "name": "templateNames",
      "outputs": [
        {
          "name": "",
          "type": "bytes32"
        }
      ],
      "payable": false,
      "stateMutability": "view",
      "type": "function"
    },
    {
      "constant": true,
      "inputs": [
        {
          "name": "",
          "type": "uint256"
        }
      ],
      "name": "beneficiaries",
      "outputs": [
        {
          "name": "",
          "type": "address"
        }
      ],
      "payable": false,
      "stateMutability": "view",
      "type": "function"
    }
  ],
  "bytecode": "0x608060405234801561001057600080fd5b506101e3806100206000396000f3fe608060405234801561001057600080fd5b50600436106100575760003560e01c80634626402b1461005c57806347e3fd8714610080578063854e96821461009a578063e842abe8146100e4578063efeb5e5814610101575b600080fd5b61006461011e565b604080516001600160a01b039092168252519081900360200190f35b61008861012d565b60408051918252519081900360200190f35b6100c6600480360360408110156100b057600080fd5b506001600160a01b038135169060200135610133565b60408051938452602084019290925282820152519081900360600190f35b610088600480360360208110156100fa57600080fd5b5035610172565b6100646004803603602081101561011757600080fd5b5035610190565b6001546001600160a01b031681565b60005481565b6004602052816000526040600020818154811061014c57fe5b600091825260209091206003909102018054600182015460029092015490935090915083565b600a818154811061017f57fe5b600091825260209091200154905081565b6002818154811061019d57fe5b6000918252602090912001546001600160a01b031690508156fea165627a7a72305820ba35f51395c2de5e3d0e62fd27ca853cb381333f1fa2ca91552ce76fa4e56b9c0029",
  "source": "pragma solidity 0.5.8;\r\n\r\n/**\r\n * @title Wallet for core vesting escrow functionality\r\n */\r\ncontract VestingEscrowWalletStorage {\r\n\r\n    struct Schedule {\r\n        // Name of the template\r\n        bytes32 templateName;\r\n        // Tokens that were already claimed\r\n        uint256 claimedTokens;\r\n        // Start time of the schedule\r\n        uint256 startTime;\r\n    }\r\n\r\n    struct Template {\r\n        // Total amount of tokens\r\n        uint256 numberOfTokens;\r\n        // Schedule duration (How long the schedule will last)\r\n        uint256 duration;\r\n        // Schedule frequency (It is a cliff time period)\r\n        uint256 frequency;\r\n        // Index of the template in an array template names\r\n        uint256 index;\r\n    }\r\n\r\n    // Number of tokens that are hold by the `this` contract but are unassigned to any schedule\r\n    uint256 public unassignedTokens;\r\n    // Address of the Treasury wallet. All of the unassigned token will transfer to that address.\r\n    address public treasuryWallet;\r\n    // List of all beneficiaries who have the schedules running/completed/created\r\n    address[] public beneficiaries;\r\n    // Flag whether beneficiary has been already added or not\r\n    mapping(address => bool) internal beneficiaryAdded;\r\n\r\n    // Holds schedules array corresponds to the affiliate/employee address\r\n    mapping(address => Schedule[]) public schedules;\r\n    // Holds template names array corresponds to the affiliate/employee address\r\n    mapping(address => bytes32[]) internal userToTemplates;\r\n    // Mapping use to store the indexes for different template names for a user.\r\n    // affiliate/employee address => template name => index\r\n    mapping(address => mapping(bytes32 => uint256)) internal userToTemplateIndex;\r\n    // Holds affiliate/employee addresses coressponds to the template name\r\n    mapping(bytes32 => address[]) internal templateToUsers;\r\n    // Mapping use to store the indexes for different users for a template.\r\n    // template name => affiliate/employee address => index\r\n    mapping(bytes32 => mapping(address => uint256)) internal templateToUserIndex;\r\n    // Store the template details corresponds to the template name\r\n    mapping(bytes32 => Template) templates;\r\n\r\n    // List of all template names\r\n    bytes32[] public templateNames;\r\n}\r\n",
  "sourcePath": "C:\\mspace\\polymath-core\\contracts\\modules\\Wallet\\VestingEscrowWalletStorage.sol",
  "compiler": {
    "name": "solc",
    "version": "0.5.8+commit.23d335f2.Emscripten.clang"
  },
  "schemaVersion": "3.0.11",
  "updatedAt": "2019-08-05T22:52:46.923Z",
  "devdoc": {
    "methods": {},
    "title": "Wallet for core vesting escrow functionality\r"
  },
  "userdoc": {
    "methods": {}
  }
}