{
  "contractName": "VestingEscrowWalletProxy",
  "abi": [
    {
      "constant": false,
      "inputs": [],
      "name": "proxyOwner",
      "outputs": [
        {
          "name": "",
          "type": "address"
        }
      ],
      "payable": false,
      "stateMutability": "nonpayable",
      "type": "function"
    },
    {
      "constant": true,
      "inputs": [],
      "name": "ADMIN",
      "outputs": [
        {
          "name": "",
          "type": "bytes32"
        }
      ],
      "payable": false,
      "stateMutability": "view",
      "type": "function"
    },
    {
      "constant": true,
      "inputs": [],
      "name": "treasuryWallet",
      "outputs": [
        {
          "name": "",
          "type": "address"
        }
      ],
      "payable": false,
      "stateMutability": "view",
      "type": "function"
    },
    {
      "constant": true,
      "inputs": [],
      "name": "unassignedTokens",
      "outputs": [
        {
          "name": "",
          "type": "uint256"
        }
      ],
      "payable": false,
      "stateMutability": "view",
      "type": "function"
    },
    {
      "constant": false,
      "inputs": [],
      "name": "version",
      "outputs": [
        {
          "name": "",
          "type": "string"
        }
      ],
      "payable": false,
      "stateMutability": "nonpayable",
      "type": "function"
    },
    {
      "constant": false,
      "inputs": [
        {
          "name": "_newVersion",
          "type": "string"
        },
        {
          "name": "_newImplementation",
          "type": "address"
        }
      ],
      "name": "upgradeTo",
      "outputs": [],
      "payable": false,
      "stateMutability": "nonpayable",
      "type": "function"
    },
    {
      "constant": false,
      "inputs": [],
      "name": "implementation",
      "outputs": [
        {
          "name": "",
          "type": "address"
        }
      ],
      "payable": false,
      "stateMutability": "nonpayable",
      "type": "function"
    },
    {
      "constant": true,
      "inputs": [],
      "name": "paused",
      "outputs": [
        {
          "name": "",
          "type": "bool"
        }
      ],
      "payable": false,
      "stateMutability": "view",
      "type": "function"
    },
    {
      "constant": true,
      "inputs": [],
      "name": "polyToken",
      "outputs": [
        {
          "name": "",
          "type": "address"
        }
      ],
      "payable": false,
      "stateMutability": "view",
      "type": "function"
    },
    {
      "constant": true,
      "inputs": [
        {
          "name": "",
          "type": "address"
        },
        {
          "name": "",
          "type": "uint256"
        }
      ],
      "name": "schedules",
      "outputs": [
        {
          "name": "templateName",
          "type": "bytes32"
        },
        {
          "name": "claimedTokens",
          "type": "uint256"
        },
        {
          "name": "startTime",
          "type": "uint256"
        }
      ],
      "payable": false,
      "stateMutability": "view",
      "type": "function"
    },
    {
      "constant": false,
      "inputs": [
        {
          "name": "_newVersion",
          "type": "string"
        },
        {
          "name": "_newImplementation",
          "type": "address"
        },
        {
          "name": "_data",
          "type": "bytes"
        }
      ],
      "name": "upgradeToAndCall",
      "outputs": [],
      "payable": true,
      "stateMutability": "payable",
      "type": "function"
    },
    {
      "constant": true,
      "inputs": [],
      "name": "OPERATOR",
      "outputs": [
        {
          "name": "",
          "type": "bytes32"
        }
      ],
      "payable": false,
      "stateMutability": "view",
      "type": "function"
    },
    {
      "constant": true,
      "inputs": [],
      "name": "securityToken",
      "outputs": [
        {
          "name": "",
          "type": "address"
        }
      ],
      "payable": false,
      "stateMutability": "view",
      "type": "function"
    },
    {
      "constant": true,
      "inputs": [],
      "name": "factory",
      "outputs": [
        {
          "name": "",
          "type": "address"
        }
      ],
      "payable": false,
      "stateMutability": "view",
      "type": "function"
    },
    {
      "constant": true,
      "inputs": [
        {
          "name": "",
          "type": "uint256"
        }
      ],
      "name": "templateNames",
      "outputs": [
        {
          "name": "",
          "type": "bytes32"
        }
      ],
      "payable": false,
      "stateMutability": "view",
      "type": "function"
    },
    {
      "constant": true,
      "inputs": [
        {
          "name": "",
          "type": "uint256"
        }
      ],
      "name": "beneficiaries",
      "outputs": [
        {
          "name": "",
          "type": "address"
        }
      ],
      "payable": false,
      "stateMutability": "view",
      "type": "function"
    },
    {
      "constant": false,
      "inputs": [
        {
          "name": "_newOwner",
          "type": "address"
        }
      ],
      "name": "transferProxyOwnership",
      "outputs": [],
      "payable": false,
      "stateMutability": "nonpayable",
      "type": "function"
    },
    {
      "inputs": [
        {
          "name": "_version",
          "type": "string"
        },
        {
          "name": "_securityToken",
          "type": "address"
        },
        {
          "name": "_polyAddress",
          "type": "address"
        },
        {
          "name": "_implementation",
          "type": "address"
        }
      ],
      "payable": false,
      "stateMutability": "nonpayable",
      "type": "constructor"
    },
    {
      "payable": true,
      "stateMutability": "payable",
      "type": "fallback"
    },
    {
      "anonymous": false,
      "inputs": [
        {
          "indexed": false,
          "name": "_previousOwner",
          "type": "address"
        },
        {
          "indexed": false,
          "name": "_newOwner",
          "type": "address"
        }
      ],
      "name": "ProxyOwnershipTransferred",
      "type": "event"
    },
    {
      "anonymous": false,
      "inputs": [
        {
          "indexed": false,
          "name": "_newVersion",
          "type": "string"
        },
        {
          "indexed": true,
          "name": "_newImplementation",
          "type": "address"
        }
      ],
      "name": "Upgraded",
      "type": "event"
    },
    {
      "anonymous": false,
      "inputs": [
        {
          "indexed": false,
          "name": "account",
          "type": "address"
        }
      ],
      "name": "Pause",
      "type": "event"
    },
    {
      "anonymous": false,
      "inputs": [
        {
          "indexed": false,
          "name": "account",
          "type": "address"
        }
      ],
      "name": "Unpause",
      "type": "event"
    }
  ],
  "bytecode": "0x6080604052600d8054600160a01b60ff02191690553480156200002157600080fd5b506040516200166238038062001662833981018060405260808110156200004757600080fd5b8101908080516401000000008111156200006057600080fd5b820160208101848111156200007457600080fd5b81516401000000008111828201871017156200008f57600080fd5b50506020808301516040840151606090940151600c80546001600160a01b038085166001600160a01b031992831617909255600b8054821633908117909155600d80549389169390921692909217905593965090945091620000f59162000172811b901c565b6001600160a01b03811662000156576040517f08c379a0000000000000000000000000000000000000000000000000000000008152600401808060200182810382526027815260200180620015ba6027913960400191505060405180910390fd5b6200016884826200020a60201b60201c565b505050506200062c565b6001600160a01b038116620001e857604080517f08c379a000000000000000000000000000000000000000000000000000000000815260206004820152601860248201527f416464726573732073686f756c64206e6f742062652030780000000000000000604482015290519081900360640190fd5b601080546001600160a01b0319166001600160a01b0392909216919091179055565b600f546001600160a01b038281169116148015906200023157506001600160a01b03811615155b62000288576040517f08c379a0000000000000000000000000000000000000000000000000000000008152600401808060200182810382526046815260200180620015e16046913960600191505060405180910390fd5b6200029e816200058160201b62000db61760201c565b620002f5576040517f08c379a000000000000000000000000000000000000000000000000000000000815260040180806020018281038252603b81526020018062001627603b913960400191505060405180910390fd5b600082511162000351576040517f08c379a0000000000000000000000000000000000000000000000000000000008152600401808060200182810382526022815260200180620015986022913960400191505060405180910390fd5b816040516020018082805190602001908083835b60208310620003865780518252601f19909201916020918201910162000365565b6001836020036101000a03801982511681845116808217855250505050505090500191505060405160208183030381529060405280519060200120600e6040516020018082805460018160011615610100020316600290048015620004255780601f106200040257610100808354040283529182019162000425565b820191906000526020600020905b81548152906001019060200180831162000410575b5050915050604051602081830303815290604052805190602001201415620004ae57604080517f08c379a000000000000000000000000000000000000000000000000000000000815260206004820152601d60248201527f4e65772076657273696f6e20657175616c7320746f2063757272656e74000000604482015290519081900360640190fd5b8151620004c390600e90602085019062000587565b50600f80546001600160a01b0319166001600160a01b03831690811790915560408051602080825285518183015285517f8e05e0e35ff592971ca8b477d4285a33a61ded208d644042667b78693a472f5e938793928392918301919085019080838360005b838110156200054257818101518382015260200162000528565b50505050905090810190601f168015620005705780820380516001836020036101000a031916815260200191505b509250505060405180910390a25050565b3b151590565b828054600181600116156101000203166002900490600052602060002090601f016020900481019282601f10620005ca57805160ff1916838001178555620005fa565b82800160010185558215620005fa579182015b82811115620005fa578251825591602001919060010190620005dd565b50620006089291506200060c565b5090565b6200062991905b8082111562000608576000815560010162000613565b90565b610f5c806200063c6000396000f3fe6080604052600436106100fe5760003560e01c80636faa22a511610095578063b84dfbd211610064578063b84dfbd214610428578063c45a01551461043d578063e842abe814610452578063efeb5e581461047c578063f1739cae146104a6576100fe565b80636faa22a5146102d8578063854e9682146102ed578063958a41dd14610344578063983d273714610413576100fe565b806354fd4d50116100d157806354fd4d501461018a5780635a8b1a9f146102145780635c60da1b1461029a5780635c975abb146102af576100fe565b8063025313a2146101085780632a0acc6a146101395780634626402b1461016057806347e3fd8714610175575b6101066104d9565b005b34801561011457600080fd5b5061011d6104eb565b604080516001600160a01b039092168252519081900360200190f35b34801561014557600080fd5b5061014e610528565b60408051918252519081900360200190f35b34801561016c57600080fd5b5061011d610537565b34801561018157600080fd5b5061014e610546565b34801561019657600080fd5b5061019f61054c565b6040805160208082528351818301528351919283929083019185019080838360005b838110156101d95781810151838201526020016101c1565b50505050905090810190601f1680156102065780820380516001836020036101000a031916815260200191505b509250505060405180910390f35b34801561022057600080fd5b506101066004803603604081101561023757600080fd5b81019060208101813564010000000081111561025257600080fd5b82018360208201111561026457600080fd5b8035906020019184600183028401116401000000008311171561028657600080fd5b9193509150356001600160a01b0316610601565b3480156102a657600080fd5b5061011d610675565b3480156102bb57600080fd5b506102c46106a0565b604080519115158252519081900360200190f35b3480156102e457600080fd5b5061011d6106b0565b3480156102f957600080fd5b506103266004803603604081101561031057600080fd5b506001600160a01b0381351690602001356106bf565b60408051938452602084019290925282820152519081900360600190f35b6101066004803603606081101561035a57600080fd5b81019060208101813564010000000081111561037557600080fd5b82018360208201111561038757600080fd5b803590602001918460018302840111640100000000831117156103a957600080fd5b919390926001600160a01b03833516926040810190602001356401000000008111156103d457600080fd5b8201836020820111156103e657600080fd5b8035906020019184600183028401116401000000008311171561040857600080fd5b5090925090506106fe565b34801561041f57600080fd5b5061014e6107a8565b34801561043457600080fd5b5061011d6107ba565b34801561044957600080fd5b5061011d6107c9565b34801561045e57600080fd5b5061014e6004803603602081101561047557600080fd5b50356107d8565b34801561048857600080fd5b5061011d6004803603602081101561049f57600080fd5b50356107f6565b3480156104b257600080fd5b50610106600480360360208110156104c957600080fd5b50356001600160a01b031661081d565b6104e96104e4610900565b61090f565b565b60006104f5610933565b6001600160a01b0316336001600160a01b0316141561051d57610516610933565b9050610525565b6105256104d9565b90565b600160d91b6420a226a4a70281565b6001546001600160a01b031681565b60005481565b6060610556610933565b6001600160a01b0316336001600160a01b0316141561051d57600e805460408051602060026001851615610100026000190190941693909304601f810184900484028201840190925281815292918301828280156105f55780601f106105ca576101008083540402835291602001916105f5565b820191906000526020600020905b8154815290600101906020018083116105d857829003601f168201915b50505050509050610525565b610609610933565b6001600160a01b0316336001600160a01b031614156106685761066383838080601f016020809104026020016040519081016040528093929190818152602001838380828437600092019190915250859250610942915050565b610670565b6106706104d9565b505050565b600061067f610933565b6001600160a01b0316336001600160a01b0316141561051d57610516610900565b600d54600160a01b900460ff1681565b600d546001600160a01b031681565b600460205281600052604060002081815481106106d857fe5b600091825260209091206003909102018054600182015460029092015490935090915083565b610706610933565b6001600160a01b0316336001600160a01b031614156107995761079485858080601f01602080910402602001604051908101604052809392919081815260200183838082843760009201919091525050604080516020601f880181900481028201810190925286815288935091508690869081908401838280828437600092019190915250610c3d92505050565b6107a1565b6107a16104d9565b5050505050565b600160c11b6727a822a920aa27a90281565b600c546001600160a01b031681565b600b546001600160a01b031681565b600a81815481106107e557fe5b600091825260209091200154905081565b6002818154811061080357fe5b6000918252602090912001546001600160a01b0316905081565b610825610933565b6001600160a01b0316336001600160a01b031614156108f5576001600160a01b03811661089c5760408051600160e51b62461bcd02815260206004820152601860248201527f416464726573732073686f756c64206e6f742062652030780000000000000000604482015290519081900360640190fd5b7f5a3e66efaa1e445ebd894728a69d6959842ea1e97bd79b892797106e270efcd96108c5610933565b604080516001600160a01b03928316815291841660208301528051918290030190a16108f081610d36565b6108fd565b6108fd6104d9565b50565b600f546001600160a01b031690565b3660008037600080366000845af43d6000803e80801561092e573d6000f35b3d6000fd5b6010546001600160a01b031690565b600f546001600160a01b0382811691161480159061096857506001600160a01b03811615155b6109a657604051600160e51b62461bcd028152600401808060200182810382526046815260200180610eb06046913960600191505060405180910390fd5b6109af81610db6565b6109ed57604051600160e51b62461bcd02815260040180806020018281038252603b815260200180610ef6603b913960400191505060405180910390fd5b6000825111610a3057604051600160e51b62461bcd028152600401808060200182810382526022815260200180610e556022913960400191505060405180910390fd5b816040516020018082805190602001908083835b60208310610a635780518252601f199092019160209182019101610a44565b6001836020036101000a03801982511681845116808217855250505050505090500191505060405160208183030381529060405280519060200120600e6040516020018082805460018160011615610100020316600290048015610afe5780601f10610adc576101008083540402835291820191610afe565b820191906000526020600020905b815481529060010190602001808311610aea575b5050915050604051602081830303815290604052805190602001201415610b6f5760408051600160e51b62461bcd02815260206004820152601d60248201527f4e65772076657273696f6e20657175616c7320746f2063757272656e74000000604482015290519081900360640190fd5b8151610b8290600e906020850190610dbc565b50600f80546001600160a01b0319166001600160a01b03831690811790915560408051602080825285518183015285517f8e05e0e35ff592971ca8b477d4285a33a61ded208d644042667b78693a472f5e938793928392918301919085019080838360005b83811015610bff578181015183820152602001610be7565b50505050905090810190601f168015610c2c5780820380516001836020036101000a031916815260200191505b509250505060405180910390a25050565b610c478383610942565b6000306001600160a01b031634836040518082805190602001908083835b60208310610c845780518252601f199092019160209182019101610c65565b6001836020036101000a03801982511681845116808217855250505050505090500191505060006040518083038185875af1925050503d8060008114610ce6576040519150601f19603f3d011682016040523d82523d6000602084013e610ceb565b606091505b50508091505080610d3057604051600160e51b62461bcd028152600401808060200182810382526039815260200180610e776039913960400191505060405180910390fd5b50505050565b6001600160a01b038116610d945760408051600160e51b62461bcd02815260206004820152601860248201527f416464726573732073686f756c64206e6f742062652030780000000000000000604482015290519081900360640190fd5b601080546001600160a01b0319166001600160a01b0392909216919091179055565b3b151590565b828054600181600116156101000203166002900490600052602060002090601f016020900481019282601f10610dfd57805160ff1916838001178555610e2a565b82800160010185558215610e2a579182015b82811115610e2a578251825591602001919060010190610e0f565b50610e36929150610e3a565b5090565b61052591905b80821115610e365760008155600101610e4056fe56657273696f6e2073686f756c64206e6f7420626520656d70747920737472696e674661696c20696e20657865637574696e67207468652066756e6374696f6e206f6620696d706c656d656e746174696f6e20636f6e74726163744f6c642061646472657373206973206e6f7420616c6c6f77656420616e6420696d706c656d656e746174696f6e20616464726573732073686f756c64206e6f7420626520307843616e6e6f742073657420612070726f787920696d706c656d656e746174696f6e20746f2061206e6f6e2d636f6e74726163742061646472657373a165627a7a723058201d09f5183cda75de30bc988b96c14b8c3ff57e40a9d90d3399a7466f982dc4aa002956657273696f6e2073686f756c64206e6f7420626520656d70747920737472696e67496d706c656d656e746174696f6e20616464726573732073686f756c64206e6f742062652030784f6c642061646472657373206973206e6f7420616c6c6f77656420616e6420696d706c656d656e746174696f6e20616464726573732073686f756c64206e6f7420626520307843616e6e6f742073657420612070726f787920696d706c656d656e746174696f6e20746f2061206e6f6e2d636f6e74726163742061646472657373",
  "source": "pragma solidity 0.5.8;\r\n\r\nimport \"../../proxy/OwnedUpgradeabilityProxy.sol\";\r\nimport \"./VestingEscrowWalletStorage.sol\";\r\nimport \"../../Pausable.sol\";\r\nimport \"../../storage/modules/ModuleStorage.sol\";\r\n /**\r\n * @title Escrow wallet module for vesting functionality\r\n */\r\ncontract VestingEscrowWalletProxy is VestingEscrowWalletStorage, ModuleStorage, Pausable, OwnedUpgradeabilityProxy {\r\n     /**\r\n    * @notice Constructor\r\n    * @param _securityToken Address of the security token\r\n    * @param _polyAddress Address of the polytoken\r\n    * @param _implementation representing the address of the new implementation to be set\r\n    */\r\n    constructor (string memory _version, address _securityToken, address _polyAddress, address _implementation)\r\n    public\r\n    ModuleStorage(_securityToken, _polyAddress)\r\n    {\r\n        require(\r\n            _implementation != address(0),\r\n            \"Implementation address should not be 0x\"\r\n        );\r\n        _upgradeTo(_version, _implementation);\r\n    }\r\n }\r\n",
  "sourcePath": "C:\\mspace\\polymath-core\\contracts\\modules\\Wallet\\VestingEscrowWalletProxy.sol",
  "compiler": {
    "name": "solc",
    "version": "0.5.8+commit.23d335f2.Emscripten.clang"
  },
  "schemaVersion": "3.0.11",
  "updatedAt": "2019-08-05T22:52:46.921Z",
  "devdoc": {
    "methods": {
      "constructor": {
        "params": {
          "_implementation": "representing the address of the new implementation to be set\r",
          "_polyAddress": "Address of the polytoken\r",
          "_securityToken": "Address of the security token\r"
        }
      },
      "implementation()": {
        "details": "Tells the address of the current implementation\r",
        "return": "address of the current implementation\r"
      },
      "proxyOwner()": {
        "details": "Tells the address of the proxy owner\r",
        "return": "the address of the proxy owner\r"
      },
      "transferProxyOwnership(address)": {
        "details": "Allows the current owner to transfer control of the contract to a newOwner.\r",
        "params": {
          "_newOwner": "The address to transfer ownership to.\r"
        }
      },
      "upgradeTo(string,address)": {
        "details": "Allows the upgradeability owner to upgrade the current version of the proxy.\r",
        "params": {
          "_newImplementation": "representing the address of the new implementation to be set.\r",
          "_newVersion": "representing the version name of the new implementation to be set.\r"
        }
      },
      "upgradeToAndCall(string,address,bytes)": {
        "details": "Allows the upgradeability owner to upgrade the current version of the proxy and call the new implementation\r to initialize whatever is needed through a low level call.\r",
        "params": {
          "_data": "represents the msg.data to bet sent in the low level call. This parameter may include the function\r signature of the implementation to be called with the needed payload\r",
          "_newImplementation": "representing the address of the new implementation to be set.\r",
          "_newVersion": "representing the version name of the new implementation to be set.\r"
        }
      },
      "version()": {
        "details": "Tells the version name of the current implementation\r",
        "return": "string representing the name of the current version\r"
      }
    },
    "title": "Escrow wallet module for vesting functionality\r"
  },
  "userdoc": {
    "methods": {
      "constructor": "Constructor\r"
    }
  }
}