{
  "contractName": "VolumeRestrictionLib",
  "abi": [
    {
      "constant": true,
      "inputs": [
        {
          "name": "_amountTradedLastDay",
          "type": "uint256"
        },
        {
          "name": "_amount",
          "type": "uint256"
        },
        {
          "name": "_sumOfLastPeriod",
          "type": "uint256"
        },
        {
          "name": "_allowedAmount",
          "type": "uint256"
        },
        {
          "name": "_lastTradedTimestamp",
          "type": "uint256"
        }
      ],
      "name": "isValidAmountAfterRestrictionChanges",
      "outputs": [
        {
          "name": "",
          "type": "bool"
        }
      ],
      "payable": false,
      "stateMutability": "view",
      "type": "function"
    }
  ],
  "bytecode": "0x61109d610026600b82828239805160001a60731461001957fe5b30600052607381538281f3fe73000000000000000000000000000000000000000030146080604052600436106100565760003560e01c80630fb19c521461005b57806316449ee0146100a45780633e5c367b14610283578063d8d8ce01146102d2575b600080fd5b610090600480360360a081101561007157600080fd5b5080359060208101359060408101359060608101359060800135610322565b604080519115158252519081900360200190f35b6100d6600480360360608110156100ba57600080fd5b50803590602081013590604001356001600160a01b03166103a0565b6040518080602001806020018060200180602001806020018060200187810387528d818151815260200191508051906020019060200280838360005b8381101561012a578181015183820152602001610112565b5050505090500187810386528c818151815260200191508051906020019060200280838360005b83811015610169578181015183820152602001610151565b5050505090500187810385528b818151815260200191508051906020019060200280838360005b838110156101a8578181015183820152602001610190565b5050505090500187810384528a818151815260200191508051906020019060200280838360005b838110156101e75781810151838201526020016101cf565b50505050905001878103835289818151815260200191508051906020019060200280838360005b8381101561022657818101518382015260200161020e565b50505050905001878103825288818151815260200191508051906020019060200280838360005b8381101561026557818101518382015260200161024d565b505050509050019c5050505050505050505050505060405180910390f35b81801561028f57600080fd5b506102d0600480360360808110156102a657600080fd5b5080359060208101356001600160a01b03908116916040810135909116906060013560ff1661097a565b005b8180156102de57600080fd5b506102d0600480360360a08110156102f557600080fd5b508035906001600160a01b03602082013581169160ff604082013516916060820135916080013516610aff565b6000620151806103328342610da2565b101561039357600061034383610db6565b92505050600061035242610db6565b9250505080821415610390578461037f89610373898b63ffffffff610dd516565b9063ffffffff610dd516565b111561039057600092505050610397565b50505b5060015b95945050505050565b6060806060806060806060876001600160a01b0316635948f7337fdf3a8dd24acdd05addfc6aeffef7574d2de3f844535ec91e8e0f3e45dba9673160001b6040518263ffffffff1660e01b81526004018082815260200191505060006040518083038186803b15801561041257600080fd5b505afa158015610426573d6000803e3d6000fd5b505050506040513d6000823e601f3d908101601f19168201604052602081101561044f57600080fd5b81019080805164010000000081111561046757600080fd5b8201602081018481111561047a57600080fd5b815185602082028301116401000000008211171561049757600080fd5b509094506000935083925050505b82518110156105bc576105558a6001600160a01b03166333598b006104f0600160981b6c494e564553544f52464c414753028786815181106104e357fe5b6020026020010151610dee565b6040518263ffffffff1660e01b81526004018082815260200191505060206040518083038186803b15801561052457600080fd5b505afa158015610538573d6000803e3d6000fd5b505050506040513d602081101561054e57600080fd5b5051610e27565b156105b45760028c600085848151811061056b57fe5b6020908102919091018101516001600160a01b031682528101919091526040016000205460ff16600281111561059d57fe5b146105a95760016105ac565b60025b60ff16820191505b6001016104a5565b816040519080825280602002602001820160405280156105e6578160200160208202803883390190505b50985081604051908082528060200260200182016040528015610613578160200160208202803883390190505b50975081604051908082528060200260200182016040528015610640578160200160208202803883390190505b5096508160405190808252806020026020018201604052801561066d578160200160208202803883390190505b5095508160405190808252806020026020018201604052801561069a578160200160208202803883390190505b509450816040519080825280602002602001820160405280156106c7578160200160208202803883390190505b50935060009150600090505b825181101561096b576107118a6001600160a01b03166333598b006104f0600160981b6c494e564553544f52464c414753028786815181106104e357fe5b156109635782818151811061072257fe5b602002602001015189838151811061073657fe5b6001600160a01b039092166020928302919091019091015260008c600085848151811061075f57fe5b6020908102919091018101516001600160a01b031682528101919091526040016000205460ff16600281111561079157fe5b14156108435761083e8b60000160008584815181106107ac57fe5b60200260200101516001600160a01b03166001600160a01b031681526020019081526020016000206040518060a0016040529081600082015481526020016001820154815260200160028201548152602001600382015481526020016004820160009054906101000a900460ff16600181111561082557fe5b600181111561083057fe5b905250898989898988610e46565b61095c565b60018c600085848151811061085457fe5b6020908102919091018101516001600160a01b031682528101919091526040016000205460ff16600281111561088657fe5b14156108a15761083e8b60010160008584815181106107ac57fe5b60028c60008584815181106108b257fe5b6020908102919091018101516001600160a01b031682528101919091526040016000205460ff1660028111156108e457fe5b141561095c576108ff8b60000160008584815181106107ac57fe5b818060010192505082818151811061091357fe5b602002602001015189838151811061092757fe5b60200260200101906001600160a01b031690816001600160a01b03168152505061095c8b60010160008584815181106107ac57fe5b6001909101905b6001016106d3565b50505093975093979195509350565b60026001600160a01b03841660009081526020869052604090205460ff1660028111156109a357fe5b14610ac4576000826001600160a01b03166333598b006109d6600160981b6c494e564553544f52464c4147530287610dee565b6040518263ffffffff1660e01b81526004018082815260200191505060206040518083038186803b158015610a0a57600080fd5b505afa158015610a1e573d6000803e3d6000fd5b505050506040513d6020811015610a3457600080fd5b50516004191690506001600160a01b038316634f3029c2610a68600160981b6c494e564553544f52464c4147530287610dee565b836040518363ffffffff1660e01b81526004018083815260200182815260200192505050600060405180830381600087803b158015610aa657600080fd5b505af1158015610aba573d6000803e3d6000fd5b5050505050610af9565b6001600160a01b0383166000908152602085905260409020805482919060ff19166001836002811115610af357fe5b02179055505b50505050565b6000816001600160a01b03166333598b00610b2d600160981b6c494e564553544f52464c4147530288610dee565b6040518263ffffffff1660e01b81526004018082815260200191505060206040518083038186803b158015610b6157600080fd5b505afa158015610b75573d6000803e3d6000fd5b505050506040513d6020811015610b8b57600080fd5b50519050610b998583610ef7565b610ca95760408051600160e01b6381d65b2d0281527fdf3a8dd24acdd05addfc6aeffef7574d2de3f844535ec91e8e0f3e45dba9673160048201526001600160a01b0387811660248301529151918416916381d65b2d9160448082019260009290919082900301818387803b158015610c1157600080fd5b505af1158015610c25573d6000803e3d6000fd5b50505050816001600160a01b0316634f3029c2610c51600160ba1b6815d2125511531254d50288610dee565b60016040518363ffffffff1660e01b81526004018083815260200182815260200192505050600060405180830381600087803b158015610c9057600080fd5b505af1158015610ca4573d6000803e3d6000fd5b505050505b610cb281610e27565b610d3c576004176001600160a01b038216634f3029c2610ce5600160981b6c494e564553544f52464c4147530288610dee565b836040518363ffffffff1660e01b81526004018083815260200182815260200192505050600060405180830381600087803b158015610d2357600080fd5b505af1158015610d37573d6000803e3d6000fd5b505050505b6001600160a01b038516600090815260208790526040812054610d639060ff168686610f9f565b6001600160a01b03871660009081526020899052604090208054919250829160ff19166001836002811115610d9457fe5b021790555050505050505050565b600081831115610db157600080fd5b500390565b60008080610dc8620151808504610fdb565b9196909550909350915050565b600082820183811015610de757600080fd5b9392505050565b604080516020808201949094526001600160a01b039290921660601b828201528051808303603401815260549092019052805191012090565b6000600282901c60011680610e3d576000610de7565b60019392505050565b8660000151868281518110610e5757fe5b6020026020010181815250508660200151858281518110610e7457fe5b6020026020010181815250508660400151848281518110610e9157fe5b6020026020010181815250508660600151838281518110610eae57fe5b6020026020010181815250508660800151828281518110610ecb57fe5b60200260200101906001811115610ede57fe5b90816001811115610eeb57fe5b90525050505050505050565b600080826001600160a01b03166333598b00610f22600160ba1b6815d2125511531254d50287610dee565b6040518263ffffffff1660e01b81526004018082815260200191505060206040518083038186803b158015610f5657600080fd5b505afa158015610f6a573d6000803e3d6000fd5b505050506040513d6020811015610f8057600080fd5b5051905060ff811615610f94576001610f97565b60005b949350505050565b6000826002811115610fad57fe5b846002811115610fb957fe5b14158015610fc657508115155b15610fd357506002610de7565b509092915050565b60008080836226496581018262023ab1600483020590506004600362023ab18302010590910390600062164b09610fa0600185010205905060046105b58202058303601f019250600061098f846050028161103257fe5b0590506000605061098f83020585039050600b820560301994909401606402929092018301996002600c9094029091039290920197509550935050505056fea165627a7a72305820cd73a04a0c0a821198054910ce9116c1d1acd86725a2e658400a9fdb566cc6d60029",
  "source": "pragma solidity 0.5.8;\r\n\r\nimport \"../interfaces/IDataStore.sol\";\r\nimport \"./BokkyPooBahsDateTimeLibrary.sol\";\r\nimport \"openzeppelin-solidity/contracts/math/SafeMath.sol\";\r\nimport \"../modules/TransferManager/VRTM/VolumeRestrictionTMStorage.sol\";\r\n\r\nlibrary VolumeRestrictionLib {\r\n\r\n    using SafeMath for uint256;\r\n\r\n    uint256 internal constant ONE = uint256(1);\r\n    uint8 internal constant INDEX = uint8(2);\r\n    bytes32 internal constant INVESTORFLAGS = \"INVESTORFLAGS\";\r\n    bytes32 internal constant INVESTORSKEY = 0xdf3a8dd24acdd05addfc6aeffef7574d2de3f844535ec91e8e0f3e45dba96731; //keccak256(abi.encodePacked(\"INVESTORS\"))\r\n    bytes32 internal constant WHITELIST = \"WHITELIST\";\r\n\r\n\r\n    function deleteHolderFromList(\r\n        mapping(address => VolumeRestrictionTMStorage.TypeOfPeriod) storage _holderToRestrictionType,\r\n        address _holder,\r\n        IDataStore _dataStore,\r\n        VolumeRestrictionTMStorage.TypeOfPeriod _typeOfPeriod\r\n    )\r\n        public\r\n    {\r\n        // Deleting the holder if holder's type of Period is `Both` type otherwise\r\n        // it will assign the given type `_typeOfPeriod` to the _holder typeOfPeriod\r\n        // `_typeOfPeriod` it always be contrary to the removing restriction\r\n        // if removing restriction is individual then typeOfPeriod is TypeOfPeriod.OneDay\r\n        // in uint8 its value is 1. if removing restriction is daily individual then typeOfPeriod\r\n        // is TypeOfPeriod.MultipleDays in uint8 its value is 0.\r\n        if (_holderToRestrictionType[_holder] != VolumeRestrictionTMStorage.TypeOfPeriod.Both) {\r\n            uint256 flags = _dataStore.getUint256(_getKey(INVESTORFLAGS, _holder));\r\n            flags = flags & ~(ONE << INDEX);\r\n            _dataStore.setUint256(_getKey(INVESTORFLAGS, _holder), flags);\r\n        } else {\r\n            _holderToRestrictionType[_holder] = _typeOfPeriod;\r\n        }\r\n    }\r\n\r\n    function addRestrictionData(\r\n        mapping(address => VolumeRestrictionTMStorage.TypeOfPeriod) storage _holderToRestrictionType,\r\n        address _holder,\r\n        VolumeRestrictionTMStorage.TypeOfPeriod _callFrom,\r\n        uint256 _endTime,\r\n        IDataStore _dataStore\r\n    )\r\n        public\r\n    {\r\n        uint256 flags = _dataStore.getUint256(_getKey(INVESTORFLAGS, _holder));\r\n        if (!_isExistingInvestor(_holder, _dataStore)) {\r\n            _dataStore.insertAddress(INVESTORSKEY, _holder);\r\n            //KYC data can not be present if added is false and hence we can set packed KYC as uint256(1) to set added as true\r\n            _dataStore.setUint256(_getKey(WHITELIST, _holder), uint256(1));\r\n        }\r\n        if (!_isVolRestricted(flags)) {\r\n            flags = flags | (ONE << INDEX);\r\n            _dataStore.setUint256(_getKey(INVESTORFLAGS, _holder), flags);\r\n        }\r\n        VolumeRestrictionTMStorage.TypeOfPeriod _type = _getTypeOfPeriod(_holderToRestrictionType[_holder], _callFrom, _endTime);\r\n        _holderToRestrictionType[_holder] = _type;\r\n    }\r\n\r\n    function isValidAmountAfterRestrictionChanges(\r\n        uint256 _amountTradedLastDay,\r\n        uint256 _amount,\r\n        uint256 _sumOfLastPeriod,\r\n        uint256 _allowedAmount,\r\n        uint256 _lastTradedTimestamp\r\n    )\r\n        public\r\n        view\r\n        returns(bool)\r\n    {\r\n        // if restriction is to check whether the current transaction is performed within the 24 hours\r\n        // span after the last transaction performed by the user\r\n        if (BokkyPooBahsDateTimeLibrary.diffSeconds(_lastTradedTimestamp, now) < 86400) {\r\n            (,, uint256 lastTxDay) = BokkyPooBahsDateTimeLibrary.timestampToDate(_lastTradedTimestamp);\r\n            (,, uint256 currentTxDay) = BokkyPooBahsDateTimeLibrary.timestampToDate(now);\r\n            // This if statement is to check whether the last transaction timestamp (of `individualRestriction[_from]`\r\n            // when `_isDefault` is true or defaultRestriction when `_isDefault` is false) is comes within the same day of the current\r\n            // transaction timestamp or not.\r\n            if (lastTxDay == currentTxDay) {\r\n                // Not allow to transact more than the current transaction restriction allowed amount\r\n                if ((_sumOfLastPeriod.add(_amount)).add(_amountTradedLastDay) > _allowedAmount)\r\n                    return false;\r\n            }\r\n        }\r\n        return true;\r\n    }\r\n\r\n    /**\r\n     * @notice Provide the restriction details of all the restricted addresses\r\n     * @return address List of the restricted addresses\r\n     * @return uint256 List of the tokens allowed to the restricted addresses corresponds to restricted address\r\n     * @return uint256 List of the start time of the restriction corresponds to restricted address\r\n     * @return uint256 List of the rolling period in days for a restriction corresponds to restricted address.\r\n     * @return uint256 List of the end time of the restriction corresponds to restricted address.\r\n     * @return uint8 List of the type of restriction to validate the value of the `allowedTokens`\r\n     * of the restriction corresponds to restricted address\r\n     */\r\n    function getRestrictionData(\r\n        mapping(address => VolumeRestrictionTMStorage.TypeOfPeriod) storage _holderToRestrictionType,\r\n        VolumeRestrictionTMStorage.IndividualRestrictions storage _individualRestrictions,\r\n        IDataStore _dataStore\r\n    )\r\n        public\r\n        view\r\n        returns(\r\n            address[] memory allAddresses,\r\n            uint256[] memory allowedTokens,\r\n            uint256[] memory startTime,\r\n            uint256[] memory rollingPeriodInDays,\r\n            uint256[] memory endTime,\r\n            VolumeRestrictionTMStorage.RestrictionType[] memory typeOfRestriction\r\n            )\r\n    {\r\n        address[] memory investors = _dataStore.getAddressArray(INVESTORSKEY);\r\n        uint256 counter;\r\n        uint256 i;\r\n        for (i = 0; i < investors.length; i++) {\r\n            if (_isVolRestricted(_dataStore.getUint256(_getKey(INVESTORFLAGS, investors[i])))) {\r\n                counter = counter + (_holderToRestrictionType[investors[i]] == VolumeRestrictionTMStorage.TypeOfPeriod.Both ? 2 : 1);\r\n            }\r\n        }\r\n        allAddresses = new address[](counter);\r\n        allowedTokens = new uint256[](counter);\r\n        startTime = new uint256[](counter);\r\n        rollingPeriodInDays = new uint256[](counter);\r\n        endTime = new uint256[](counter);\r\n        typeOfRestriction = new VolumeRestrictionTMStorage.RestrictionType[](counter);\r\n        counter = 0;\r\n        for (i = 0; i < investors.length; i++) {\r\n            if (_isVolRestricted(_dataStore.getUint256(_getKey(INVESTORFLAGS, investors[i])))) {\r\n                allAddresses[counter] = investors[i];\r\n                if (_holderToRestrictionType[investors[i]] == VolumeRestrictionTMStorage.TypeOfPeriod.MultipleDays) {\r\n                    _setValues(_individualRestrictions.individualRestriction[investors[i]], allowedTokens, startTime, rollingPeriodInDays, endTime, typeOfRestriction, counter);\r\n                }\r\n                else if (_holderToRestrictionType[investors[i]] == VolumeRestrictionTMStorage.TypeOfPeriod.OneDay) {\r\n                    _setValues(_individualRestrictions.individualDailyRestriction[investors[i]], allowedTokens, startTime, rollingPeriodInDays, endTime, typeOfRestriction, counter);\r\n                }\r\n                else if (_holderToRestrictionType[investors[i]] == VolumeRestrictionTMStorage.TypeOfPeriod.Both) {\r\n                    _setValues(_individualRestrictions.individualRestriction[investors[i]], allowedTokens, startTime, rollingPeriodInDays, endTime, typeOfRestriction, counter);\r\n                    counter++;\r\n                    allAddresses[counter] = investors[i];\r\n                    _setValues(_individualRestrictions.individualDailyRestriction[investors[i]], allowedTokens, startTime, rollingPeriodInDays, endTime, typeOfRestriction, counter);\r\n                }\r\n                counter++;\r\n            }\r\n        }\r\n    }\r\n\r\n    function _setValues(\r\n        VolumeRestrictionTMStorage.VolumeRestriction memory _restriction,\r\n        uint256[] memory _allowedTokens,\r\n        uint256[] memory _startTime,\r\n        uint256[] memory _rollingPeriodInDays,\r\n        uint256[] memory _endTime,\r\n        VolumeRestrictionTMStorage.RestrictionType[] memory _typeOfRestriction,\r\n        uint256 _index\r\n    )\r\n        internal\r\n        pure\r\n    {\r\n        _allowedTokens[_index] = _restriction.allowedTokens;\r\n        _startTime[_index] = _restriction.startTime;\r\n        _rollingPeriodInDays[_index] = _restriction.rollingPeriodInDays;\r\n        _endTime[_index] = _restriction.endTime;\r\n        _typeOfRestriction[_index] = _restriction.typeOfRestriction;\r\n    }\r\n\r\n    function _isVolRestricted(uint256 _flags) internal pure returns(bool) {\r\n        uint256 volRestricted = (_flags >> INDEX) & ONE;\r\n        return (volRestricted > 0 ? true : false);\r\n    }\r\n\r\n    function _getTypeOfPeriod(\r\n        VolumeRestrictionTMStorage.TypeOfPeriod _currentTypeOfPeriod,\r\n        VolumeRestrictionTMStorage.TypeOfPeriod _callFrom,\r\n        uint256 _endTime\r\n    )\r\n        internal\r\n        pure\r\n        returns(VolumeRestrictionTMStorage.TypeOfPeriod)\r\n    {\r\n        if (_currentTypeOfPeriod != _callFrom && _endTime != uint256(0))\r\n            return VolumeRestrictionTMStorage.TypeOfPeriod.Both;\r\n        else\r\n            return _callFrom;\r\n    }\r\n\r\n    function _isExistingInvestor(address _investor, IDataStore _dataStore) internal view returns(bool) {\r\n        uint256 data = _dataStore.getUint256(_getKey(WHITELIST, _investor));\r\n        //extracts `added` from packed `_whitelistData`\r\n        return uint8(data) == 0 ? false : true;\r\n    }\r\n\r\n    function _getKey(bytes32 _key1, address _key2) internal pure returns(bytes32) {\r\n        return bytes32(keccak256(abi.encodePacked(_key1, _key2)));\r\n    }\r\n\r\n}\r\n",
  "sourcePath": "C:\\mspace\\polymath-core\\contracts\\libraries\\VolumeRestrictionLib.sol",
  "compiler": {
    "name": "solc",
    "version": "0.5.8+commit.23d335f2.Emscripten.clang"
  },
  "schemaVersion": "3.0.11",
  "updatedAt": "2019-08-05T22:53:45.113Z",
  "devdoc": {
    "methods": {
      "getRestrictionData(mapping(address => VolumeRestrictionTMStorage.TypeOfPeriod) storage,VolumeRestrictionTMStorage.IndividualRestrictions storage,IDataStore)": {
        "return": "address List of the restricted addresses\ruint256 List of the tokens allowed to the restricted addresses corresponds to restricted address\ruint256 List of the start time of the restriction corresponds to restricted address\ruint256 List of the rolling period in days for a restriction corresponds to restricted address.\ruint256 List of the end time of the restriction corresponds to restricted address.\ruint8 List of the type of restriction to validate the value of the `allowedTokens`\r of the restriction corresponds to restricted address\r"
      }
    }
  },
  "userdoc": {
    "methods": {
      "getRestrictionData(mapping(address => VolumeRestrictionTMStorage.TypeOfPeriod) storage,VolumeRestrictionTMStorage.IndividualRestrictions storage,IDataStore)": {
        "notice": "Provide the restriction details of all the restricted addresses\r"
      }
    }
  }
}