{
  "contractName": "VolumeRestrictionTM",
  "abi": [
    {
      "constant": false,
      "inputs": [],
      "name": "reclaimETH",
      "outputs": [],
      "payable": false,
      "stateMutability": "nonpayable",
      "type": "function"
    },
    {
      "constant": true,
      "inputs": [],
      "name": "ADMIN",
      "outputs": [
        {
          "name": "",
          "type": "bytes32"
        }
      ],
      "payable": false,
      "stateMutability": "view",
      "type": "function"
    },
    {
      "constant": false,
      "inputs": [],
      "name": "unpause",
      "outputs": [],
      "payable": false,
      "stateMutability": "nonpayable",
      "type": "function"
    },
    {
      "constant": true,
      "inputs": [],
      "name": "paused",
      "outputs": [
        {
          "name": "",
          "type": "bool"
        }
      ],
      "payable": false,
      "stateMutability": "view",
      "type": "function"
    },
    {
      "constant": true,
      "inputs": [],
      "name": "UNLOCKED",
      "outputs": [
        {
          "name": "",
          "type": "bytes32"
        }
      ],
      "payable": false,
      "stateMutability": "view",
      "type": "function"
    },
    {
      "constant": true,
      "inputs": [],
      "name": "polyToken",
      "outputs": [
        {
          "name": "",
          "type": "address"
        }
      ],
      "payable": false,
      "stateMutability": "view",
      "type": "function"
    },
    {
      "constant": false,
      "inputs": [],
      "name": "pause",
      "outputs": [],
      "payable": false,
      "stateMutability": "nonpayable",
      "type": "function"
    },
    {
      "constant": false,
      "inputs": [
        {
          "name": "_tokenContract",
          "type": "address"
        }
      ],
      "name": "reclaimERC20",
      "outputs": [],
      "payable": false,
      "stateMutability": "nonpayable",
      "type": "function"
    },
    {
      "constant": true,
      "inputs": [],
      "name": "OPERATOR",
      "outputs": [
        {
          "name": "",
          "type": "bytes32"
        }
      ],
      "payable": false,
      "stateMutability": "view",
      "type": "function"
    },
    {
      "constant": true,
      "inputs": [],
      "name": "LOCKED",
      "outputs": [
        {
          "name": "",
          "type": "bytes32"
        }
      ],
      "payable": false,
      "stateMutability": "view",
      "type": "function"
    },
    {
      "constant": true,
      "inputs": [],
      "name": "securityToken",
      "outputs": [
        {
          "name": "",
          "type": "address"
        }
      ],
      "payable": false,
      "stateMutability": "view",
      "type": "function"
    },
    {
      "constant": true,
      "inputs": [],
      "name": "factory",
      "outputs": [
        {
          "name": "",
          "type": "address"
        }
      ],
      "payable": false,
      "stateMutability": "view",
      "type": "function"
    },
    {
      "constant": true,
      "inputs": [],
      "name": "getDataStore",
      "outputs": [
        {
          "name": "",
          "type": "address"
        }
      ],
      "payable": false,
      "stateMutability": "view",
      "type": "function"
    },
    {
      "inputs": [
        {
          "name": "_securityToken",
          "type": "address"
        },
        {
          "name": "_polyAddress",
          "type": "address"
        }
      ],
      "payable": false,
      "stateMutability": "nonpayable",
      "type": "constructor"
    },
    {
      "anonymous": false,
      "inputs": [
        {
          "indexed": true,
          "name": "_wallet",
          "type": "address"
        },
        {
          "indexed": false,
          "name": "_exempted",
          "type": "bool"
        }
      ],
      "name": "ChangedExemptWalletList",
      "type": "event"
    },
    {
      "anonymous": false,
      "inputs": [
        {
          "indexed": true,
          "name": "_holder",
          "type": "address"
        },
        {
          "indexed": false,
          "name": "_allowedTokens",
          "type": "uint256"
        },
        {
          "indexed": false,
          "name": "_startTime",
          "type": "uint256"
        },
        {
          "indexed": false,
          "name": "_rollingPeriodInDays",
          "type": "uint256"
        },
        {
          "indexed": false,
          "name": "_endTime",
          "type": "uint256"
        },
        {
          "indexed": false,
          "name": "_typeOfRestriction",
          "type": "uint8"
        }
      ],
      "name": "AddIndividualRestriction",
      "type": "event"
    },
    {
      "anonymous": false,
      "inputs": [
        {
          "indexed": true,
          "name": "_holder",
          "type": "address"
        },
        {
          "indexed": false,
          "name": "_allowedTokens",
          "type": "uint256"
        },
        {
          "indexed": false,
          "name": "_startTime",
          "type": "uint256"
        },
        {
          "indexed": false,
          "name": "_rollingPeriodInDays",
          "type": "uint256"
        },
        {
          "indexed": false,
          "name": "_endTime",
          "type": "uint256"
        },
        {
          "indexed": false,
          "name": "_typeOfRestriction",
          "type": "uint8"
        }
      ],
      "name": "AddIndividualDailyRestriction",
      "type": "event"
    },
    {
      "anonymous": false,
      "inputs": [
        {
          "indexed": true,
          "name": "_holder",
          "type": "address"
        },
        {
          "indexed": false,
          "name": "_allowedTokens",
          "type": "uint256"
        },
        {
          "indexed": false,
          "name": "_startTime",
          "type": "uint256"
        },
        {
          "indexed": false,
          "name": "_rollingPeriodInDays",
          "type": "uint256"
        },
        {
          "indexed": false,
          "name": "_endTime",
          "type": "uint256"
        },
        {
          "indexed": false,
          "name": "_typeOfRestriction",
          "type": "uint8"
        }
      ],
      "name": "ModifyIndividualRestriction",
      "type": "event"
    },
    {
      "anonymous": false,
      "inputs": [
        {
          "indexed": true,
          "name": "_holder",
          "type": "address"
        },
        {
          "indexed": false,
          "name": "_allowedTokens",
          "type": "uint256"
        },
        {
          "indexed": false,
          "name": "_startTime",
          "type": "uint256"
        },
        {
          "indexed": false,
          "name": "_rollingPeriodInDays",
          "type": "uint256"
        },
        {
          "indexed": false,
          "name": "_endTime",
          "type": "uint256"
        },
        {
          "indexed": false,
          "name": "_typeOfRestriction",
          "type": "uint8"
        }
      ],
      "name": "ModifyIndividualDailyRestriction",
      "type": "event"
    },
    {
      "anonymous": false,
      "inputs": [
        {
          "indexed": false,
          "name": "_allowedTokens",
          "type": "uint256"
        },
        {
          "indexed": false,
          "name": "_startTime",
          "type": "uint256"
        },
        {
          "indexed": false,
          "name": "_rollingPeriodInDays",
          "type": "uint256"
        },
        {
          "indexed": false,
          "name": "_endTime",
          "type": "uint256"
        },
        {
          "indexed": false,
          "name": "_typeOfRestriction",
          "type": "uint8"
        }
      ],
      "name": "AddDefaultRestriction",
      "type": "event"
    },
    {
      "anonymous": false,
      "inputs": [
        {
          "indexed": false,
          "name": "_allowedTokens",
          "type": "uint256"
        },
        {
          "indexed": false,
          "name": "_startTime",
          "type": "uint256"
        },
        {
          "indexed": false,
          "name": "_rollingPeriodInDays",
          "type": "uint256"
        },
        {
          "indexed": false,
          "name": "_endTime",
          "type": "uint256"
        },
        {
          "indexed": false,
          "name": "_typeOfRestriction",
          "type": "uint8"
        }
      ],
      "name": "AddDefaultDailyRestriction",
      "type": "event"
    },
    {
      "anonymous": false,
      "inputs": [
        {
          "indexed": false,
          "name": "_allowedTokens",
          "type": "uint256"
        },
        {
          "indexed": false,
          "name": "_startTime",
          "type": "uint256"
        },
        {
          "indexed": false,
          "name": "_rollingPeriodInDays",
          "type": "uint256"
        },
        {
          "indexed": false,
          "name": "_endTime",
          "type": "uint256"
        },
        {
          "indexed": false,
          "name": "_typeOfRestriction",
          "type": "uint8"
        }
      ],
      "name": "ModifyDefaultRestriction",
      "type": "event"
    },
    {
      "anonymous": false,
      "inputs": [
        {
          "indexed": false,
          "name": "_allowedTokens",
          "type": "uint256"
        },
        {
          "indexed": false,
          "name": "_startTime",
          "type": "uint256"
        },
        {
          "indexed": false,
          "name": "_rollingPeriodInDays",
          "type": "uint256"
        },
        {
          "indexed": false,
          "name": "_endTime",
          "type": "uint256"
        },
        {
          "indexed": false,
          "name": "_typeOfRestriction",
          "type": "uint8"
        }
      ],
      "name": "ModifyDefaultDailyRestriction",
      "type": "event"
    },
    {
      "anonymous": false,
      "inputs": [
        {
          "indexed": true,
          "name": "_holder",
          "type": "address"
        }
      ],
      "name": "IndividualRestrictionRemoved",
      "type": "event"
    },
    {
      "anonymous": false,
      "inputs": [
        {
          "indexed": true,
          "name": "_holder",
          "type": "address"
        }
      ],
      "name": "IndividualDailyRestrictionRemoved",
      "type": "event"
    },
    {
      "anonymous": false,
      "inputs": [],
      "name": "DefaultRestrictionRemoved",
      "type": "event"
    },
    {
      "anonymous": false,
      "inputs": [],
      "name": "DefaultDailyRestrictionRemoved",
      "type": "event"
    },
    {
      "anonymous": false,
      "inputs": [
        {
          "indexed": false,
          "name": "account",
          "type": "address"
        }
      ],
      "name": "Pause",
      "type": "event"
    },
    {
      "anonymous": false,
      "inputs": [
        {
          "indexed": false,
          "name": "account",
          "type": "address"
        }
      ],
      "name": "Unpause",
      "type": "event"
    },
    {
      "constant": false,
      "inputs": [
        {
          "name": "_from",
          "type": "address"
        },
        {
          "name": "",
          "type": "address"
        },
        {
          "name": "_amount",
          "type": "uint256"
        },
        {
          "name": "",
          "type": "bytes"
        }
      ],
      "name": "executeTransfer",
      "outputs": [
        {
          "name": "success",
          "type": "uint8"
        }
      ],
      "payable": false,
      "stateMutability": "nonpayable",
      "type": "function"
    },
    {
      "constant": true,
      "inputs": [
        {
          "name": "_from",
          "type": "address"
        },
        {
          "name": "",
          "type": "address"
        },
        {
          "name": "_amount",
          "type": "uint256"
        },
        {
          "name": "",
          "type": "bytes"
        }
      ],
      "name": "verifyTransfer",
      "outputs": [
        {
          "name": "",
          "type": "uint8"
        },
        {
          "name": "",
          "type": "bytes32"
        }
      ],
      "payable": false,
      "stateMutability": "view",
      "type": "function"
    },
    {
      "constant": false,
      "inputs": [
        {
          "name": "_wallet",
          "type": "address"
        },
        {
          "name": "_exempted",
          "type": "bool"
        }
      ],
      "name": "changeExemptWalletList",
      "outputs": [],
      "payable": false,
      "stateMutability": "nonpayable",
      "type": "function"
    },
    {
      "constant": false,
      "inputs": [
        {
          "name": "_holder",
          "type": "address"
        },
        {
          "name": "_allowedTokens",
          "type": "uint256"
        },
        {
          "name": "_startTime",
          "type": "uint256"
        },
        {
          "name": "_rollingPeriodInDays",
          "type": "uint256"
        },
        {
          "name": "_endTime",
          "type": "uint256"
        },
        {
          "name": "_restrictionType",
          "type": "uint8"
        }
      ],
      "name": "addIndividualRestriction",
      "outputs": [],
      "payable": false,
      "stateMutability": "nonpayable",
      "type": "function"
    },
    {
      "constant": false,
      "inputs": [
        {
          "name": "_holder",
          "type": "address"
        },
        {
          "name": "_allowedTokens",
          "type": "uint256"
        },
        {
          "name": "_startTime",
          "type": "uint256"
        },
        {
          "name": "_endTime",
          "type": "uint256"
        },
        {
          "name": "_restrictionType",
          "type": "uint8"
        }
      ],
      "name": "addIndividualDailyRestriction",
      "outputs": [],
      "payable": false,
      "stateMutability": "nonpayable",
      "type": "function"
    },
    {
      "constant": false,
      "inputs": [
        {
          "name": "_holders",
          "type": "address[]"
        },
        {
          "name": "_allowedTokens",
          "type": "uint256[]"
        },
        {
          "name": "_startTimes",
          "type": "uint256[]"
        },
        {
          "name": "_endTimes",
          "type": "uint256[]"
        },
        {
          "name": "_restrictionTypes",
          "type": "uint8[]"
        }
      ],
      "name": "addIndividualDailyRestrictionMulti",
      "outputs": [],
      "payable": false,
      "stateMutability": "nonpayable",
      "type": "function"
    },
    {
      "constant": false,
      "inputs": [
        {
          "name": "_holders",
          "type": "address[]"
        },
        {
          "name": "_allowedTokens",
          "type": "uint256[]"
        },
        {
          "name": "_startTimes",
          "type": "uint256[]"
        },
        {
          "name": "_rollingPeriodInDays",
          "type": "uint256[]"
        },
        {
          "name": "_endTimes",
          "type": "uint256[]"
        },
        {
          "name": "_restrictionTypes",
          "type": "uint8[]"
        }
      ],
      "name": "addIndividualRestrictionMulti",
      "outputs": [],
      "payable": false,
      "stateMutability": "nonpayable",
      "type": "function"
    },
    {
      "constant": false,
      "inputs": [
        {
          "name": "_allowedTokens",
          "type": "uint256"
        },
        {
          "name": "_startTime",
          "type": "uint256"
        },
        {
          "name": "_rollingPeriodInDays",
          "type": "uint256"
        },
        {
          "name": "_endTime",
          "type": "uint256"
        },
        {
          "name": "_restrictionType",
          "type": "uint8"
        }
      ],
      "name": "addDefaultRestriction",
      "outputs": [],
      "payable": false,
      "stateMutability": "nonpayable",
      "type": "function"
    },
    {
      "constant": false,
      "inputs": [
        {
          "name": "_allowedTokens",
          "type": "uint256"
        },
        {
          "name": "_startTime",
          "type": "uint256"
        },
        {
          "name": "_endTime",
          "type": "uint256"
        },
        {
          "name": "_restrictionType",
          "type": "uint8"
        }
      ],
      "name": "addDefaultDailyRestriction",
      "outputs": [],
      "payable": false,
      "stateMutability": "nonpayable",
      "type": "function"
    },
    {
      "constant": false,
      "inputs": [
        {
          "name": "_holder",
          "type": "address"
        }
      ],
      "name": "removeIndividualRestriction",
      "outputs": [],
      "payable": false,
      "stateMutability": "nonpayable",
      "type": "function"
    },
    {
      "constant": false,
      "inputs": [
        {
          "name": "_holders",
          "type": "address[]"
        }
      ],
      "name": "removeIndividualRestrictionMulti",
      "outputs": [],
      "payable": false,
      "stateMutability": "nonpayable",
      "type": "function"
    },
    {
      "constant": false,
      "inputs": [
        {
          "name": "_holder",
          "type": "address"
        }
      ],
      "name": "removeIndividualDailyRestriction",
      "outputs": [],
      "payable": false,
      "stateMutability": "nonpayable",
      "type": "function"
    },
    {
      "constant": false,
      "inputs": [
        {
          "name": "_holders",
          "type": "address[]"
        }
      ],
      "name": "removeIndividualDailyRestrictionMulti",
      "outputs": [],
      "payable": false,
      "stateMutability": "nonpayable",
      "type": "function"
    },
    {
      "constant": false,
      "inputs": [],
      "name": "removeDefaultRestriction",
      "outputs": [],
      "payable": false,
      "stateMutability": "nonpayable",
      "type": "function"
    },
    {
      "constant": false,
      "inputs": [],
      "name": "removeDefaultDailyRestriction",
      "outputs": [],
      "payable": false,
      "stateMutability": "nonpayable",
      "type": "function"
    },
    {
      "constant": false,
      "inputs": [
        {
          "name": "_holder",
          "type": "address"
        },
        {
          "name": "_allowedTokens",
          "type": "uint256"
        },
        {
          "name": "_startTime",
          "type": "uint256"
        },
        {
          "name": "_rollingPeriodInDays",
          "type": "uint256"
        },
        {
          "name": "_endTime",
          "type": "uint256"
        },
        {
          "name": "_restrictionType",
          "type": "uint8"
        }
      ],
      "name": "modifyIndividualRestriction",
      "outputs": [],
      "payable": false,
      "stateMutability": "nonpayable",
      "type": "function"
    },
    {
      "constant": false,
      "inputs": [
        {
          "name": "_holder",
          "type": "address"
        },
        {
          "name": "_allowedTokens",
          "type": "uint256"
        },
        {
          "name": "_startTime",
          "type": "uint256"
        },
        {
          "name": "_endTime",
          "type": "uint256"
        },
        {
          "name": "_restrictionType",
          "type": "uint8"
        }
      ],
      "name": "modifyIndividualDailyRestriction",
      "outputs": [],
      "payable": false,
      "stateMutability": "nonpayable",
      "type": "function"
    },
    {
      "constant": false,
      "inputs": [
        {
          "name": "_holders",
          "type": "address[]"
        },
        {
          "name": "_allowedTokens",
          "type": "uint256[]"
        },
        {
          "name": "_startTimes",
          "type": "uint256[]"
        },
        {
          "name": "_endTimes",
          "type": "uint256[]"
        },
        {
          "name": "_restrictionTypes",
          "type": "uint8[]"
        }
      ],
      "name": "modifyIndividualDailyRestrictionMulti",
      "outputs": [],
      "payable": false,
      "stateMutability": "nonpayable",
      "type": "function"
    },
    {
      "constant": false,
      "inputs": [
        {
          "name": "_holders",
          "type": "address[]"
        },
        {
          "name": "_allowedTokens",
          "type": "uint256[]"
        },
        {
          "name": "_startTimes",
          "type": "uint256[]"
        },
        {
          "name": "_rollingPeriodInDays",
          "type": "uint256[]"
        },
        {
          "name": "_endTimes",
          "type": "uint256[]"
        },
        {
          "name": "_restrictionTypes",
          "type": "uint8[]"
        }
      ],
      "name": "modifyIndividualRestrictionMulti",
      "outputs": [],
      "payable": false,
      "stateMutability": "nonpayable",
      "type": "function"
    },
    {
      "constant": false,
      "inputs": [
        {
          "name": "_allowedTokens",
          "type": "uint256"
        },
        {
          "name": "_startTime",
          "type": "uint256"
        },
        {
          "name": "_rollingPeriodInDays",
          "type": "uint256"
        },
        {
          "name": "_endTime",
          "type": "uint256"
        },
        {
          "name": "_restrictionType",
          "type": "uint8"
        }
      ],
      "name": "modifyDefaultRestriction",
      "outputs": [],
      "payable": false,
      "stateMutability": "nonpayable",
      "type": "function"
    },
    {
      "constant": false,
      "inputs": [
        {
          "name": "_allowedTokens",
          "type": "uint256"
        },
        {
          "name": "_startTime",
          "type": "uint256"
        },
        {
          "name": "_endTime",
          "type": "uint256"
        },
        {
          "name": "_restrictionType",
          "type": "uint8"
        }
      ],
      "name": "modifyDefaultDailyRestriction",
      "outputs": [],
      "payable": false,
      "stateMutability": "nonpayable",
      "type": "function"
    },
    {
      "constant": true,
      "inputs": [
        {
          "name": "_partition",
          "type": "bytes32"
        },
        {
          "name": "_tokenHolder",
          "type": "address"
        },
        {
          "name": "_additionalBalance",
          "type": "uint256"
        }
      ],
      "name": "getTokensByPartition",
      "outputs": [
        {
          "name": "",
          "type": "uint256"
        }
      ],
      "payable": false,
      "stateMutability": "view",
      "type": "function"
    },
    {
      "constant": true,
      "inputs": [
        {
          "name": "_user",
          "type": "address"
        }
      ],
      "name": "getIndividualBucketDetailsToUser",
      "outputs": [
        {
          "name": "",
          "type": "uint256"
        },
        {
          "name": "",
          "type": "uint256"
        },
        {
          "name": "",
          "type": "uint256"
        },
        {
          "name": "",
          "type": "uint256"
        },
        {
          "name": "",
          "type": "uint256"
        }
      ],
      "payable": false,
      "stateMutability": "view",
      "type": "function"
    },
    {
      "constant": true,
      "inputs": [
        {
          "name": "_user",
          "type": "address"
        }
      ],
      "name": "getDefaultBucketDetailsToUser",
      "outputs": [
        {
          "name": "",
          "type": "uint256"
        },
        {
          "name": "",
          "type": "uint256"
        },
        {
          "name": "",
          "type": "uint256"
        },
        {
          "name": "",
          "type": "uint256"
        },
        {
          "name": "",
          "type": "uint256"
        }
      ],
      "payable": false,
      "stateMutability": "view",
      "type": "function"
    },
    {
      "constant": true,
      "inputs": [
        {
          "name": "_user",
          "type": "address"
        },
        {
          "name": "_at",
          "type": "uint256"
        }
      ],
      "name": "getTotalTradedByUser",
      "outputs": [
        {
          "name": "",
          "type": "uint256"
        }
      ],
      "payable": false,
      "stateMutability": "view",
      "type": "function"
    },
    {
      "constant": true,
      "inputs": [],
      "name": "getInitFunction",
      "outputs": [
        {
          "name": "",
          "type": "bytes4"
        }
      ],
      "payable": false,
      "stateMutability": "pure",
      "type": "function"
    },
    {
      "constant": true,
      "inputs": [],
      "name": "getExemptAddress",
      "outputs": [
        {
          "name": "",
          "type": "address[]"
        }
      ],
      "payable": false,
      "stateMutability": "view",
      "type": "function"
    },
    {
      "constant": true,
      "inputs": [
        {
          "name": "_investor",
          "type": "address"
        }
      ],
      "name": "getIndividualRestriction",
      "outputs": [
        {
          "name": "",
          "type": "uint256"
        },
        {
          "name": "",
          "type": "uint256"
        },
        {
          "name": "",
          "type": "uint256"
        },
        {
          "name": "",
          "type": "uint256"
        },
        {
          "name": "",
          "type": "uint8"
        }
      ],
      "payable": false,
      "stateMutability": "view",
      "type": "function"
    },
    {
      "constant": true,
      "inputs": [
        {
          "name": "_investor",
          "type": "address"
        }
      ],
      "name": "getIndividualDailyRestriction",
      "outputs": [
        {
          "name": "",
          "type": "uint256"
        },
        {
          "name": "",
          "type": "uint256"
        },
        {
          "name": "",
          "type": "uint256"
        },
        {
          "name": "",
          "type": "uint256"
        },
        {
          "name": "",
          "type": "uint8"
        }
      ],
      "payable": false,
      "stateMutability": "view",
      "type": "function"
    },
    {
      "constant": true,
      "inputs": [],
      "name": "getDefaultRestriction",
      "outputs": [
        {
          "name": "",
          "type": "uint256"
        },
        {
          "name": "",
          "type": "uint256"
        },
        {
          "name": "",
          "type": "uint256"
        },
        {
          "name": "",
          "type": "uint256"
        },
        {
          "name": "",
          "type": "uint8"
        }
      ],
      "payable": false,
      "stateMutability": "view",
      "type": "function"
    },
    {
      "constant": true,
      "inputs": [],
      "name": "getDefaultDailyRestriction",
      "outputs": [
        {
          "name": "",
          "type": "uint256"
        },
        {
          "name": "",
          "type": "uint256"
        },
        {
          "name": "",
          "type": "uint256"
        },
        {
          "name": "",
          "type": "uint256"
        },
        {
          "name": "",
          "type": "uint8"
        }
      ],
      "payable": false,
      "stateMutability": "view",
      "type": "function"
    },
    {
      "constant": true,
      "inputs": [],
      "name": "getRestrictionData",
      "outputs": [
        {
          "name": "allAddresses",
          "type": "address[]"
        },
        {
          "name": "allowedTokens",
          "type": "uint256[]"
        },
        {
          "name": "startTime",
          "type": "uint256[]"
        },
        {
          "name": "rollingPeriodInDays",
          "type": "uint256[]"
        },
        {
          "name": "endTime",
          "type": "uint256[]"
        },
        {
          "name": "typeOfRestriction",
          "type": "uint8[]"
        }
      ],
      "payable": false,
      "stateMutability": "view",
      "type": "function"
    },
    {
      "constant": true,
      "inputs": [],
      "name": "getPermissions",
      "outputs": [
        {
          "name": "allPermissions",
          "type": "bytes32[]"
        }
      ],
      "payable": false,
      "stateMutability": "view",
      "type": "function"
    }
  ],
  "bytecode": "0x608060405260158054600160a01b60ff021916905534801561002057600080fd5b506040516040806200524a8339810180604052604081101561004157600080fd5b508051602090910151601480546001600160a01b039384166001600160a01b03199182161790915560138054821633179055601580549390921692169190911790556151b780620000936000396000f3fe608060405234801561001057600080fd5b506004361061028a5760003560e01c80638456cb591161015c578063b470f993116100ce578063c569ecde11610087578063c569ecde146116a2578063dfe3de7c146116aa578063f1d74b0f146116d0578063f6526145146117bf578063fbaa978c146117ed578063fe58265e146117f55761028a565b8063b470f993146111b6578063b84dfbd21461145f578063bb26efc814611467578063c08b4d0b1461161c578063c3a07df614611642578063c45a01551461169a5761028a565b80639d00fd85116101205780639d00fd8514611087578063a1422f69146110b9578063a8e6f170146110c1578063ab1aa9c214611102578063ae0c78841461112e578063b315ca221461116f5761028a565b80638456cb5914610ff857806387c02c94146110005780638905fd4f14611051578063983d2737146110775780639a7727ae1461107f5761028a565b806344d615e3116102005780636c2f0d53116101b95780636c2f0d5314610c3b5780636faa22a514610c4357806370debde814610c6757806378a37fe914610f925780637e2fb4d914610fca578063824a900714610ff05761028a565b806344d615e314610a3e578063493ed28414610a645780635713f8c414610a965780635ad7c85114610add5780635c975abb14610b7e5780636437ceaf14610b9a5761028a565b80632a0acc6a116102525780632a0acc6a14610342578063326eb0311461034a5780633c79377e146103b05780633d321731146106db5780633edc300e1461078d5780633f4ba83a14610a365761028a565b8063048460c91461028f5780630f144a48146102995780631613ec9d146102a15780631db40797146102c65780632829e651146102fe575b600080fd5b6102976117fd565b005b61029761190e565b6102a9611946565b604080516001600160e01b03199092168252519081900360200190f35b610297600480360360a08110156102dc57600080fd5b508035906020810135906040810135906060810135906080013560ff1661194c565b6103306004803603606081101561031457600080fd5b508035906001600160a01b036020820135169060400135611aad565b60408051918252519081900360200190f35b610330611cee565b6103706004803603602081101561036057600080fd5b50356001600160a01b0316611cfd565b6040518086815260200185815260200184815260200183815260200182600181111561039857fe5b60ff1681526020019550505050505060405180910390f35b610297600480360360c08110156103c657600080fd5b810190602081018135600160201b8111156103e057600080fd5b8201836020820111156103f257600080fd5b803590602001918460208302840111600160201b8311171561041357600080fd5b9190808060200260200160405190810160405280939291908181526020018383602002808284376000920191909152509295949360208101935035915050600160201b81111561046257600080fd5b82018360208201111561047457600080fd5b803590602001918460208302840111600160201b8311171561049557600080fd5b9190808060200260200160405190810160405280939291908181526020018383602002808284376000920191909152509295949360208101935035915050600160201b8111156104e457600080fd5b8201836020820111156104f657600080fd5b803590602001918460208302840111600160201b8311171561051757600080fd5b9190808060200260200160405190810160405280939291908181526020018383602002808284376000920191909152509295949360208101935035915050600160201b81111561056657600080fd5b82018360208201111561057857600080fd5b803590602001918460208302840111600160201b8311171561059957600080fd5b9190808060200260200160405190810160405280939291908181526020018383602002808284376000920191909152509295949360208101935035915050600160201b8111156105e857600080fd5b8201836020820111156105fa57600080fd5b803590602001918460208302840111600160201b8311171561061b57600080fd5b9190808060200260200160405190810160405280939291908181526020018383602002808284376000920191909152509295949360208101935035915050600160201b81111561066a57600080fd5b82018360208201111561067c57600080fd5b803590602001918460208302840111600160201b8311171561069d57600080fd5b919080806020026020016040519081016040528093929190818152602001838360200280828437600092019190915250929550611d8f945050505050565b610769600480360360808110156106f157600080fd5b6001600160a01b03823581169260208101359091169160408201359190810190608081016060820135600160201b81111561072b57600080fd5b82018360208201111561073d57600080fd5b803590602001918460018302840111600160201b8311171561075e57600080fd5b509092509050611e3a565b6040518082600381111561077957fe5b60ff16815260200191505060405180910390f35b610297600480360360a08110156107a357600080fd5b810190602081018135600160201b8111156107bd57600080fd5b8201836020820111156107cf57600080fd5b803590602001918460208302840111600160201b831117156107f057600080fd5b9190808060200260200160405190810160405280939291908181526020018383602002808284376000920191909152509295949360208101935035915050600160201b81111561083f57600080fd5b82018360208201111561085157600080fd5b803590602001918460208302840111600160201b8311171561087257600080fd5b9190808060200260200160405190810160405280939291908181526020018383602002808284376000920191909152509295949360208101935035915050600160201b8111156108c157600080fd5b8201836020820111156108d357600080fd5b803590602001918460208302840111600160201b831117156108f457600080fd5b9190808060200260200160405190810160405280939291908181526020018383602002808284376000920191909152509295949360208101935035915050600160201b81111561094357600080fd5b82018360208201111561095557600080fd5b803590602001918460208302840111600160201b8311171561097657600080fd5b9190808060200260200160405190810160405280939291908181526020018383602002808284376000920191909152509295949360208101935035915050600160201b8111156109c557600080fd5b8201836020820111156109d757600080fd5b803590602001918460208302840111600160201b831117156109f857600080fd5b919080806020026020016040519081016040528093929190818152602001838360200280828437600092019190915250929550611ef7945050505050565b610297611f8d565b61037060048036036020811015610a5457600080fd5b50356001600160a01b0316611f9f565b61029760048036036080811015610a7a57600080fd5b508035906020810135906040810135906060013560ff1661200a565b610297600480360360c0811015610aac57600080fd5b5080356001600160a01b03169060208101359060408101359060608101359060808101359060a0013560ff16612161565b61029760048036036020811015610af357600080fd5b810190602081018135600160201b811115610b0d57600080fd5b820183602082011115610b1f57600080fd5b803590602001918460208302840111600160201b83111715610b4057600080fd5b919080806020026020016040519081016040528093929190818152602001838360200280828437600092019190915250929550612308945050505050565b610b86612395565b604080519115158252519081900360200190f35b61029760048036036020811015610bb057600080fd5b810190602081018135600160201b811115610bca57600080fd5b820183602082011115610bdc57600080fd5b803590602001918460208302840111600160201b83111715610bfd57600080fd5b9190808060200260200160405190810160405280939291908181526020018383602002808284376000920191909152509295506123a5945050505050565b61033061242d565b610c4b61243f565b604080516001600160a01b039092168252519081900360200190f35b610297600480360360c0811015610c7d57600080fd5b810190602081018135600160201b811115610c9757600080fd5b820183602082011115610ca957600080fd5b803590602001918460208302840111600160201b83111715610cca57600080fd5b9190808060200260200160405190810160405280939291908181526020018383602002808284376000920191909152509295949360208101935035915050600160201b811115610d1957600080fd5b820183602082011115610d2b57600080fd5b803590602001918460208302840111600160201b83111715610d4c57600080fd5b9190808060200260200160405190810160405280939291908181526020018383602002808284376000920191909152509295949360208101935035915050600160201b811115610d9b57600080fd5b820183602082011115610dad57600080fd5b803590602001918460208302840111600160201b83111715610dce57600080fd5b9190808060200260200160405190810160405280939291908181526020018383602002808284376000920191909152509295949360208101935035915050600160201b811115610e1d57600080fd5b820183602082011115610e2f57600080fd5b803590602001918460208302840111600160201b83111715610e5057600080fd5b9190808060200260200160405190810160405280939291908181526020018383602002808284376000920191909152509295949360208101935035915050600160201b811115610e9f57600080fd5b820183602082011115610eb157600080fd5b803590602001918460208302840111600160201b83111715610ed257600080fd5b9190808060200260200160405190810160405280939291908181526020018383602002808284376000920191909152509295949360208101935035915050600160201b811115610f2157600080fd5b820183602082011115610f3357600080fd5b803590602001918460208302840111600160201b83111715610f5457600080fd5b91908080602002602001604051908101604052809392919081815260200183836020028082843760009201919091525092955061244e945050505050565b610297600480360360a0811015610fa857600080fd5b508035906020810135906040810135906060810135906080013560ff166124f0565b61029760048036036020811015610fe057600080fd5b50356001600160a01b0316612625565b61037061268a565b6102976126ed565b6110266004803603602081101561101657600080fd5b50356001600160a01b03166126fd565b6040805195865260208601949094528484019290925260608401526080830152519081900360a00190f35b6102976004803603602081101561106757600080fd5b50356001600160a01b0316612726565b6103306128d1565b6102976128e3565b6102976004803603608081101561109d57600080fd5b508035906020810135906040810135906060013560ff166129f4565b610330612b45565b610297600480360360a08110156110d757600080fd5b5080356001600160a01b0316906020810135906040810135906060810135906080013560ff16612b55565b6103306004803603604081101561111857600080fd5b506001600160a01b038135169060200135612d1c565b610297600480360360a081101561114457600080fd5b5080356001600160a01b0316906020810135906040810135906060810135906080013560ff16612d6e565b610297600480360360c081101561118557600080fd5b5080356001600160a01b03169060208101359060408101359060608101359060808101359060a0013560ff1661300d565b610297600480360360a08110156111cc57600080fd5b810190602081018135600160201b8111156111e657600080fd5b8201836020820111156111f857600080fd5b803590602001918460208302840111600160201b8311171561121957600080fd5b9190808060200260200160405190810160405280939291908181526020018383602002808284376000920191909152509295949360208101935035915050600160201b81111561126857600080fd5b82018360208201111561127a57600080fd5b803590602001918460208302840111600160201b8311171561129b57600080fd5b9190808060200260200160405190810160405280939291908181526020018383602002808284376000920191909152509295949360208101935035915050600160201b8111156112ea57600080fd5b8201836020820111156112fc57600080fd5b803590602001918460208302840111600160201b8311171561131d57600080fd5b9190808060200260200160405190810160405280939291908181526020018383602002808284376000920191909152509295949360208101935035915050600160201b81111561136c57600080fd5b82018360208201111561137e57600080fd5b803590602001918460208302840111600160201b8311171561139f57600080fd5b9190808060200260200160405190810160405280939291908181526020018383602002808284376000920191909152509295949360208101935035915050600160201b8111156113ee57600080fd5b82018360208201111561140057600080fd5b803590602001918460208302840111600160201b8311171561142157600080fd5b9190808060200260200160405190810160405280939291908181526020018383602002808284376000920191909152509295506132e3945050505050565b610c4b613371565b61146f613380565b6040518080602001806020018060200180602001806020018060200187810387528d818151815260200191508051906020019060200280838360005b838110156114c35781810151838201526020016114ab565b5050505090500187810386528c818151815260200191508051906020019060200280838360005b838110156115025781810151838201526020016114ea565b5050505090500187810385528b818151815260200191508051906020019060200280838360005b83811015611541578181015183820152602001611529565b5050505090500187810384528a818151815260200191508051906020019060200280838360005b83811015611580578181015183820152602001611568565b50505050905001878103835289818151815260200191508051906020019060200280838360005b838110156115bf5781810151838201526020016115a7565b50505050905001878103825288818151815260200191508051906020019060200280838360005b838110156115fe5781810151838201526020016115e6565b505050509050019c5050505050505050505050505060405180910390f35b6110266004803603602081101561163257600080fd5b50356001600160a01b0316613613565b61164a61363c565b60408051602080825283518183015283519192839290830191858101910280838360005b8381101561168657818101518382015260200161166e565b505050509050019250505060405180910390f35b610c4b613686565b610370613695565b610297600480360360208110156116c057600080fd5b50356001600160a01b03166136e7565b611794600480360360808110156116e657600080fd5b6001600160a01b03823581169260208101359091169160408201359190810190608081016060820135600160201b81111561172057600080fd5b82018360208201111561173257600080fd5b803590602001918460018302840111600160201b8311171561175357600080fd5b91908080601f016020809104026020016040519081016040528093929190818152602001838380828437600092019190915250929550613748945050505050565b604051808360038111156117a457fe5b60ff1681526020018281526020019250505060405180910390f35b610297600480360360408110156117d557600080fd5b506001600160a01b038135169060200135151561379b565b61164a6139c7565b610c4b613a2c565b600160d91b6420a226a4a7026118138133613aa5565b6118555760408051600160e51b62461bcd028152602060048201526012602482015260008051602061516c833981519152604482015290519081900360640190fd5b60065461186157600080fd5b6040518060a00160405280600081526020016000815260200160008152602001600081526020016000600181111561189557fe5b60018111156118a057fe5b90528051600390815560208201516004556040820151600555606082015160065560808201516007805460ff1916600183818111156118db57fe5b0217905550506040517f59f8d3bed9f0ab7c5e66887418204622e4da84de330570b2d587bb7d53e2080e9150600090a150565b611916613bdb565b6040513390303180156108fc02916000818181858888f19350505050158015611943573d6000803e3d6000fd5b50565b60005b90565b600160d91b6420a226a4a7026119628133613aa5565b6119a45760408051600160e51b62461bcd028152602060048201526012602482015260008051602061516c833981519152604482015290519081900360640190fd5b6004546119b090613cb4565b60006119bb86613cc0565b90506119cd8782878787426000613cd2565b6040518060a001604052808881526020018281526020018681526020018581526020018460018111156119fc57fe5b90528051600390815560208201516004556040820151600555606082015160065560808201516007805460ff191660018381811115611a3757fe5b02179055509050507fa25ed3183d81e18380b7ad6abe553ff604f2a7bd7509e8e0283dabf12e45c10e878287878760405180868152602001858152602001848152602001838152602001826001811115611a8d57fe5b60ff1681526020019550505050505060405180910390a150505050505050565b60145460009081908190819081906001600160a01b03163314611b4b5760145460408051600160e01b6370a082310281526001600160a01b038a81166004830152915191909216916370a08231916024808301926020929190829003018186803b158015611b1a57600080fd5b505afa158015611b2e573d6000803e3d6000fd5b505050506040513d6020811015611b4457600080fd5b5051611bd6565b60145460408051600160e01b6370a082310281526001600160a01b038a811660048301529151611bd6938a9316916370a08231916024808301926020929190829003018186803b158015611b9e57600080fd5b505afa158015611bb2573d6000803e3d6000fd5b505050506040513d6020811015611bc857600080fd5b50519063ffffffff613ec216565b601554909150600160a01b900460ff1615611c1457600160c21b6715539313d0d2d151028814611c07576000611c09565b805b945050505050611ce7565b611c1f876000613ed4565b5099509397509550505050600160d21b651313d0d2d151028914159050611c885783158015611c4c575082155b8015611c56575081155b15611c68576000945050505050611ce7565b83611c78579350611ce792505050565b611c09818563ffffffff61411116565b600160c21b6715539313d0d2d15102881415611ce25783158015611caa575082155b8015611cb4575081155b15611cc4579350611ce792505050565b83611cd6576000945050505050611ce7565b83945050505050611ce7565b505050505b9392505050565b600160d91b6420a226a4a70281565b6001600160a01b0381166000908152600260208181526040808420815160a081018352815481526001828101549482019490945293810154918401919091526003810154606084015260048101548493849384938493611d7d9392608084019160ff1690811115611d6a57fe5b6001811115611d7557fe5b905250614126565b939a9299509097509550909350915050565b611d9d868686868686614145565b60005b8651811015611e3157611e29878281518110611db857fe5b6020026020010151878381518110611dcc57fe5b6020026020010151878481518110611de057fe5b6020026020010151878581518110611df457fe5b6020026020010151878681518110611e0857fe5b6020026020010151878781518110611e1c57fe5b6020026020010151612161565b600101611da0565b50505050505050565b6014546000906001600160a01b03163314611e9f5760408051600160e51b62461bcd02815260206004820152601360248201527f53656e646572206973206e6f74206f776e657200000000000000000000000000604482015290519081900360640190fd5b600080600080600080611eb28c8b613ed4565b969d50949b50929950909750955093509091505085151580611ed357508215155b15611ee857611ee88c8b8888888888886141d2565b50505050505095945050505050565b611f05858585868686614145565b60005b8551811015611f8557611f7d868281518110611f2057fe5b6020026020010151868381518110611f3457fe5b6020026020010151868481518110611f4857fe5b6020026020010151868581518110611f5c57fe5b6020026020010151868681518110611f7057fe5b6020026020010151612d6e565b600101611f08565b505050505050565b611f95613bdb565b611f9d614245565b565b6001600160a01b0381166000908152600160208181526040808420815160a0810183528154815281850154938101939093526002810154918301919091526003810154606083015260048101548493849384938493611d7d93608084019160ff1690811115611d6a57fe5b600160d91b6420a226a4a7026120208133613aa5565b6120625760408051600160e51b62461bcd028152602060048201526012602482015260008051602061516c833981519152604482015290519081900360640190fd5b600061206d85613cc0565b9050612080868260018787426000613cd2565b6040518060a00160405280878152602001828152602001600181526020018581526020018460018111156120b057fe5b90528051600890815560208201516009556040820151600a556060820151600b556080820151600c805460ff1916600183818111156120eb57fe5b02179055509050507f1e7cdbf79e2c594b49ca3dfdba4bfa0f01610d6ce25f75eb2e13c9b5310708f68682600187876040518086815260200185815260200184815260200183815260200182600181111561214257fe5b60ff1681526020019550505050505060405180910390a1505050505050565b600160d91b6420a226a4a7026121778133613aa5565b6121b95760408051600160e51b62461bcd028152602060048201526012602482015260008051602061516c833981519152604482015290519081900360640190fd5b6001600160a01b038716600090815260016020819052604090912001546121df90613cb4565b60006121ea86613cc0565b90506121fc8782878787426000613cd2565b6040518060a0016040528088815260200182815260200186815260200185815260200184600181111561222b57fe5b90526001600160a01b0389166000908152600160208181526040928390208451815590840151818301559183015160028301556060830151600383015560808301516004830180549192909160ff191690838181111561228757fe5b0217905550905050876001600160a01b03167f115af9f6b9ee2cde92eafcfa37fb2b0f499522e495ec84a3728285c1cfe535358883888888604051808681526020018581526020018481526020018381526020018260018111156122e757fe5b60ff1681526020019550505050505060405180910390a25050505050505050565b600160d91b6420a226a4a70261231e8133613aa5565b6123605760408051600160e51b62461bcd028152602060048201526012602482015260008051602061516c833981519152604482015290519081900360640190fd5b60005b82518110156123905761238883828151811061237b57fe5b60200260200101516142eb565b600101612363565b505050565b601554600160a01b900460ff1681565b600160d91b6420a226a4a7026123bb8133613aa5565b6123fd5760408051600160e51b62461bcd028152602060048201526012602482015260008051602061516c833981519152604482015290519081900360640190fd5b60005b82518110156123905761242583828151811061241857fe5b60200260200101516144aa565b600101612400565b600160c21b6715539313d0d2d1510281565b6015546001600160a01b031681565b61245c868686868686614145565b60005b8651811015611e31576124e887828151811061247757fe5b602002602001015187838151811061248b57fe5b602002602001015187848151811061249f57fe5b60200260200101518785815181106124b357fe5b60200260200101518786815181106124c757fe5b60200260200101518787815181106124db57fe5b602002602001015161300d565b60010161245f565b600160d91b6420a226a4a7026125068133613aa5565b6125485760408051600160e51b62461bcd028152602060048201526012602482015260008051602061516c833981519152604482015290519081900360640190fd5b600061255386613cc0565b90506125658782878787426000613cd2565b6040518060a0016040528088815260200182815260200186815260200185815260200184600181111561259457fe5b90528051600390815560208201516004556040820151600555606082015160065560808201516007805460ff1916600183818111156125cf57fe5b02179055509050507f2563be59aba55b6c70280dd8ee07b1c999d944d30bb39a17d08f6c4cfd68d4d4878287878760405180868152602001858152602001848152602001838152602001826001811115611a8d57fe5b600160d91b6420a226a4a70261263b8133613aa5565b61267d5760408051600160e51b62461bcd028152602060048201526012602482015260008051602061516c833981519152604482015290519081900360640190fd5b612686826142eb565b5050565b6040805160a081018252600380548252600454602083015260055492820192909252600654606082015260075460009283928392839283926126dc92909190608083019060ff166001811115611d6a57fe5b945094509450945094509091929394565b6126f5613bdb565b611f9d614677565b6001600160a01b0381166000908152600f602052604081208190819081908190611d7d90614724565b61272e613bdb565b6001600160a01b0381166127815760408051600160e51b62461bcd02815260206004820152600f6024820152600160881b6e496e76616c6964206164647265737302604482015290519081900360640190fd5b60408051600160e01b6370a08231028152306004820152905182916000916001600160a01b038416916370a08231916024808301926020929190829003018186803b1580156127cf57600080fd5b505afa1580156127e3573d6000803e3d6000fd5b505050506040513d60208110156127f957600080fd5b505160408051600160e01b63a9059cbb0281523360048201526024810183905290519192506001600160a01b0384169163a9059cbb916044808201926020929091908290030181600087803b15801561285157600080fd5b505af1158015612865573d6000803e3d6000fd5b505050506040513d602081101561287b57600080fd5b50516123905760408051600160e51b62461bcd02815260206004820152600f60248201527f5472616e73666572206661696c65640000000000000000000000000000000000604482015290519081900360640190fd5b600160c11b6727a822a920aa27a90281565b600160d91b6420a226a4a7026128f98133613aa5565b61293b5760408051600160e51b62461bcd028152602060048201526012602482015260008051602061516c833981519152604482015290519081900360640190fd5b600b5461294757600080fd5b6040518060a00160405280600081526020016000815260200160008152602001600081526020016000600181111561297b57fe5b600181111561298657fe5b90528051600890815560208201516009556040820151600a556060820151600b556080820151600c805460ff1916600183818111156129c157fe5b0217905550506040517f7e3ebc021a9ba6d7d37d6e0a419a38a6751a21f19bb17e35033cdbeee8212b5d9150600090a150565b600160d91b6420a226a4a702612a0a8133613aa5565b612a4c5760408051600160e51b62461bcd028152602060048201526012602482015260008051602061516c833981519152604482015290519081900360640190fd5b6000612a5785613cc0565b9050612a83868260018787426003600501600101541115612a785742612a7c565b6009545b6001613cd2565b6040518060a0016040528087815260200182815260200160018152602001858152602001846001811115612ab357fe5b90528051600890815560208201516009556040820151600a556060820151600b556080820151600c805460ff191660018381811115612aee57fe5b02179055509050507fa1d34e3a865cf0ff72c0694ea6c889d82b5cca0944956c48a999f047289aa7bd8682600187876040518086815260200185815260200184815260200183815260200182600181111561214257fe5b600160d21b651313d0d2d1510281565b600160d91b6420a226a4a702612b6b8133613aa5565b612bad5760408051600160e51b62461bcd028152602060048201526012602482015260008051602061516c833981519152604482015290519081900360640190fd5b6000612bb885613cc0565b6001600160a01b03881660009081526002602052604081206001015491925090421015612be55742612c02565b6001600160a01b0388166000908152600260205260409020600101545b9050612c15878360018888866001613cd2565b6040518060a0016040528088815260200183815260200160018152602001868152602001856001811115612c4557fe5b8152506001800160008a6001600160a01b03166001600160a01b031681526020019081526020016000206000820151816000015560208201518160010155604082015181600201556060820151816003015560808201518160040160006101000a81548160ff02191690836001811115612cbb57fe5b0217905550905050876001600160a01b03167fbee6643567005ce930b555dba91d4a5125f4127ab98b2da38ae1919016c13401888460018989604051808681526020018581526020018481526020018381526020018260018111156122e757fe5b6001600160a01b0382166000818152600e60209081526040808320858452825280832054938352600d82528083208584529091528120549091612d65919063ffffffff613ec216565b90505b92915050565b600160d91b6420a226a4a702612d848133613aa5565b612dc65760408051600160e51b62461bcd028152602060048201526012602482015260008051602061516c833981519152604482015290519081900360640190fd5b6000612dd185613cc0565b9050612de4868260018787426000613cd2565b6001600160a01b03871660009081526002602052604090206003015415612e0e57612e0e876136e7565b6040518060a0016040528087815260200182815260200160018152602001858152602001846001811115612e3e57fe5b815250600180016000896001600160a01b03166001600160a01b031681526020019081526020016000206000820151816000015560208201518160010155604082015181600201556060820151816003015560808201518160040160006101000a81548160ff02191690836001811115612eb457fe5b021790555050506001600160a01b038716600090815260016020819052604082206003015473__VolumeRestrictionLib__________________9263d8d8ce019290918b9190612f02613a2c565b60405163ffffffff871660e01b8152600481018681526001600160a01b038616602483015290604401846002811115612f3757fe5b60ff168152602001838152602001826001600160a01b03166001600160a01b031681526020019550505050505060006040518083038186803b158015612f7c57600080fd5b505af4158015612f90573d6000803e3d6000fd5b50505050866001600160a01b03167fbd60235d4f1681d666cd8ef38ca7525f8ca710530add32c83cba14d3aa17099987836001888860405180868152602001858152602001848152602001838152602001826001811115612fed57fe5b60ff1681526020019550505050505060405180910390a250505050505050565b600160d91b6420a226a4a7026130238133613aa5565b6130655760408051600160e51b62461bcd028152602060048201526012602482015260008051602061516c833981519152604482015290519081900360640190fd5b600061307086613cc0565b90506001600160a01b038816158015906130a057506001600160a01b038816600090815260116020526040902054155b6130e95760408051600160e51b62461bcd02815260206004820152600f6024820152600160881b6e496e76616c6964206164647265737302604482015290519081900360640190fd5b6130f98782878787426000613cd2565b6001600160a01b038816600090815260016020526040902060030154156131235761312388612625565b6040518060a0016040528088815260200182815260200186815260200185815260200184600181111561315257fe5b90526001600160a01b0389166000908152600160208181526040928390208451815590840151818301559183015160028301556060830151600383015560808301516004830180549192909160ff19169083818111156131ae57fe5b021790555050506001600160a01b03881660009081526001602052604081206003015473__VolumeRestrictionLib__________________9163d8d8ce01918b9082906131f9613a2c565b60405163ffffffff871660e01b8152600481018681526001600160a01b03861660248301529060440184600281111561322e57fe5b60ff168152602001838152602001826001600160a01b03166001600160a01b031681526020019550505050505060006040518083038186803b15801561327357600080fd5b505af4158015613287573d6000803e3d6000fd5b50505050876001600160a01b03167fcf58c8d9e6261e7129143397dea4a0cc65c416a6d18a489ab0935f22d2bde50a8883888888604051808681526020018581526020018481526020018381526020018260018111156122e757fe5b6132f1858585868686614145565b60005b8551811015611f855761336986828151811061330c57fe5b602002602001015186838151811061332057fe5b602002602001015186848151811061333457fe5b602002602001015186858151811061334857fe5b602002602001015186868151811061335c57fe5b6020026020010151612b55565b6001016132f4565b6014546001600160a01b031681565b60608060608060608073__VolumeRestrictionLib__________________6316449ee0600060016133af613a2c565b6040518463ffffffff1660e01b815260040180848152602001838152602001826001600160a01b03166001600160a01b03168152602001935050505060006040518083038186803b15801561340357600080fd5b505af4158015613417573d6000803e3d6000fd5b505050506040513d6000823e601f3d908101601f1916820160405260c081101561344057600080fd5b810190808051600160201b81111561345757600080fd5b8201602081018481111561346a57600080fd5b81518560208202830111600160201b8211171561348657600080fd5b50509291906020018051600160201b8111156134a157600080fd5b820160208101848111156134b457600080fd5b81518560208202830111600160201b821117156134d057600080fd5b50509291906020018051600160201b8111156134eb57600080fd5b820160208101848111156134fe57600080fd5b81518560208202830111600160201b8211171561351a57600080fd5b50509291906020018051600160201b81111561353557600080fd5b8201602081018481111561354857600080fd5b81518560208202830111600160201b8211171561356457600080fd5b50509291906020018051600160201b81111561357f57600080fd5b8201602081018481111561359257600080fd5b81518560208202830111600160201b821117156135ae57600080fd5b50509291906020018051600160201b8111156135c957600080fd5b820160208101848111156135dc57600080fd5b81518560208202830111600160201b821117156135f857600080fd5b50989f979e50959c50939a5091985092965092945050505050565b6001600160a01b03811660009081526010602052604081208190819081908190611d7d90614724565b60408051600180825281830190925260609160208083019080388339019050509050600160d91b6420a226a4a7028160008151811061367757fe5b60200260200101818152505090565b6013546001600160a01b031681565b6040805160a0810182526008805482526009546020830152600a5492820192909252600b546060820152600c5460009283928392839283926126dc92909190608083019060ff166001811115611d6a57fe5b600160d91b6420a226a4a7026136fd8133613aa5565b61373f5760408051600160e51b62461bcd028152602060048201526012602482015260008051602061516c833981519152604482015290519081900360640190fd5b612686826144aa565b60008060006137578786613ed4565b509596506000955061376a945050505050565b81600381111561377657fe5b1415613788579150503060601b613792565b5060019150600090505b94509492505050565b600160d91b6420a226a4a7026137b18133613aa5565b6137f35760408051600160e51b62461bcd028152602060048201526012602482015260008051602061516c833981519152604482015290519081900360640190fd5b6001600160a01b03831661380657600080fd5b6001600160a01b038316600090815260116020526040902054158215151461382d57600080fd5b811561389257601280546001810182557fbb8a6a4669ba250d26cd7a459eca9d215f8307e33aebe50379bc5a3617ec34440180546001600160a01b0319166001600160a01b038616908117909155905460009182526011602052604090912055613981565b6012805460001981019081106138a457fe5b60009182526020808320909101546001600160a01b0386811684526011909252604090922054601280549290931692916000199091019081106138e357fe5b600091825260208083209190910180546001600160a01b0319166001600160a01b03948516179055918516815260119182905260408120546012805491939291600019850190811061393157fe5b60009182526020808320909101546001600160a01b0390811684528382019490945260409283018220949094559186168252601190925290812055601280549061397f9060001983016150c5565b505b60408051831515815290516001600160a01b038516917f3878c77907250eb8a2d1013139975b1215ae66528e7d7469066f6edf0902a861919081900360200190a2505050565b60606011600101805480602002602001604051908101604052809291908181526020018280548015613a2257602002820191906000526020600020905b81546001600160a01b03168152600190910190602001808311613a04575b5050505050905090565b60145460408051600160e01b63660d0d6702815290516000926001600160a01b03169163660d0d67916004808301926020929190829003018186803b158015613a7457600080fd5b505afa158015613a88573d6000803e3d6000fd5b505050506040513d6020811015613a9e57600080fd5b5051905090565b600080601460009054906101000a90046001600160a01b03166001600160a01b0316638da5cb5b6040518163ffffffff1660e01b815260040160206040518083038186803b158015613af657600080fd5b505afa158015613b0a573d6000803e3d6000fd5b505050506040513d6020811015613b2057600080fd5b50516013546001600160a01b038581169281168314935016148180613b425750805b80613bd2575060145460408051600160e01b638658b8b90281526001600160a01b0387811660048301523060248301526044820189905291519190921691638658b8b9916064808301926020929190829003018186803b158015613ba557600080fd5b505afa158015613bb9573d6000803e3d6000fd5b505050506040513d6020811015613bcf57600080fd5b50515b95945050505050565b601460009054906101000a90046001600160a01b03166001600160a01b0316638da5cb5b6040518163ffffffff1660e01b815260040160206040518083038186803b158015613c2957600080fd5b505afa158015613c3d573d6000803e3d6000fd5b505050506040513d6020811015613c5357600080fd5b50516001600160a01b03163314611f9d5760408051600160e51b62461bcd02815260206004820152601360248201527f53656e646572206973206e6f74206f776e657200000000000000000000000000604482015290519081900360640190fd5b42811161194357600080fd5b600081613cce574260010191505b5090565b8015613d2c5781861015613d275760408051600160e51b62461bcd0281526020600482015260116024820152600160781b70496e76616c696420737461727454696d6502604482015290519081900360640190fd5b613d7a565b818611613d7a5760408051600160e51b62461bcd0281526020600482015260116024820152600160781b70496e76616c696420737461727454696d6502604482015290519081900360640190fd5b60008711613d8757600080fd5b6000836001811115613d9557fe5b14613dfa57670de0b6b3a7640000871115613dfa5760408051600160e51b62461bcd02815260206004820152600d60248201527f496e76616c69642076616c756500000000000000000000000000000000000000604482015290519081900360640190fd5b60018510158015613e0d575061016d8511155b613e615760408051600160e51b62461bcd02815260206004820152601560248201527f496e76616c696420726f6c6c696e67706572696f640000000000000000000000604482015290519081900360640190fd5b84613e6c8786614743565b1015611e315760408051600160e51b62461bcd02815260206004820152600d60248201527f496e76616c69642074696d657300000000000000000000000000000000000000604482015290519081900360640190fd5b600082820183811015612d6557600080fd5b600080600080600080600080601560149054906101000a900460ff16158015613f0557506001600160a01b038a1615155b8015613f2757506001600160a01b038a16600090815260116020526040902054155b156140ea576001600160a01b038a166000908152600160205260409020600301544211801590613f7357506001600160a01b038a16600090815260016020819052604090912001544210155b80613fbf57506001600160a01b038a166000908152600260205260409020600301544211801590613fbf57506001600160a01b038a166000908152600260205260409020600101544210155b1561406c57614057898b6000600160000160008f6001600160a01b03166001600160a01b031681526020019081526020016000206040518060a0016040529081600082015481526020016001820154815260200160028201548152602001600382015481526020016004820160009054906101000a900460ff16600181111561404457fe5b600181111561404f57fe5b90525061475e565b97509750975097509750975097509750614104565b600654421180159061408057506004544210155b8061409a5750600b54421180159061409a57506009544210155b156140ea576040805160a0810182526003805482526004546020830152600554928201929092526006546060820152600754614057928c928e9260019290608083019060ff168481111561404457fe5b506001965060009550859450849350839250829150819050805b9295985092959890939650565b60008282111561412057600080fd5b50900390565b8051602082015160408301516060840151608085015191939590929450565b84518651148015614157575083518551145b8015614164575082518451145b8015614171575081518351145b801561417e575080518251145b611f855760408051600160e51b62461bcd02815260206004820152600f60248201527f4c656e677468206d69736d617463680000000000000000000000000000000000604482015290519081900360640190fd5b8015614208576001600160a01b038816600090815260106020526040902061420289898989898989600189614954565b5061423b565b6001600160a01b0388166000908152600f6020526040812090614239908a908a908a908a908a908a908a9089614954565b505b5050505050505050565b601554600160a01b900460ff166142a65760408051600160e51b62461bcd02815260206004820152601660248201527f436f6e7472616374206973206e6f742070617573656400000000000000000000604482015290519081900360640190fd5b60158054600160a01b60ff02191690556040805133815290517faeb196d352664784d1900b0e7414a8face7d29f4dae8c4b0cf68ed477423bbf49181900360200190a1565b6001600160a01b0381166142fe57600080fd5b6001600160a01b03811660009081526001602052604090206003015461432357600080fd5b6040518060a00160405280600081526020016000815260200160008152602001600081526020016000600181111561435757fe5b600181111561436257fe5b90526001600160a01b0382166000908152600160208181526040928390208451815590840151818301559183015160028301556060830151600383015560808301516004830180549192909160ff19169083818111156143be57fe5b021790555090505073__VolumeRestrictionLib__________________633e5c367b6000836143eb613a2c565b6040805163ffffffff861660e01b815260048101949094526001600160a01b0392831660248501529116604483015260016064830152516084808301926000929190829003018186803b15801561444157600080fd5b505af4158015614455573d6000803e3d6000fd5b505050506001600160a01b0381166000818152600f602052604080822082815560018101839055600201829055517ff3ebad03e2153aee439adbb3b3a7d51671d10b0818280f33f4dc1081f87bc0169190a250565b6001600160a01b0381166144bd57600080fd5b6001600160a01b0381166000908152600260205260409020600301546144e257600080fd5b6040518060a00160405280600081526020016000815260200160008152602001600081526020016000600181111561451657fe5b600181111561452157fe5b815250600180016000836001600160a01b03166001600160a01b031681526020019081526020016000206000820151816000015560208201518160010155604082015181600201556060820151816003015560808201518160040160006101000a81548160ff0219169083600181111561459757fe5b021790555090505073__VolumeRestrictionLib__________________633e5c367b6000836145c4613a2c565b6040805163ffffffff861660e01b815260048101949094526001600160a01b039283166024850152911660448301526000606483018190529051608480840193829003018186803b15801561461857600080fd5b505af415801561462c573d6000803e3d6000fd5b505050506001600160a01b0381166000818152600f6020526040808220600301829055517ff50ca388c3f256ffc185ee828de54a7a06ba31013225af07e2a7a162e5c046da9190a250565b601554600160a01b900460ff16156146d95760408051600160e51b62461bcd02815260206004820152601260248201527f436f6e7472616374206973207061757365640000000000000000000000000000604482015290519081900360640190fd5b60158054600160a01b60ff021916600160a01b1790556040805133815290517f5ee71a369c8672edded508e624ffc9257fa1ae6886ef32905c18e60196bca3999181900360200190a1565b8054600182015460028301546003840154600485015491939590929450565b60008183111561475257600080fd5b50620151809190030490565b6000806000806000806000806147726150e9565b8a614794576001600160a01b038c166000908152600260205260409020614797565b60085b6040805160a081018252825481526001808401546020830152600284015492820192909252600383015460608201526004830154909291608084019160ff16908111156147e057fe5b60018111156147eb57fe5b90525090506147f8615122565b8b61481a576001600160a01b038d166000908152600f60205260409020614833565b6001600160a01b038d1660009081526010602052604090205b6040518060a00160405290816000820154815260200160018201548152602001600282015481526020016003820154815260200160048201548152505090508a604001519650600060019050428c60600151101580156148975750428c6020015111155b156148f35760208c0151825110156148b5578b6020015199506148ba565b815199505b6148d18e8e8c6148ca8e42614743565b8c87614b4f565b909b5090995097506148e68f8f8f8f8d614ca5565b95509050806148f3575060005b6149048f8f8f856060015187614cdf565b909850965093508380156149155750805b1515600114614925576000614928565b60015b9a50614936838d8789614e1d565b9450826060015195508c935050505094995094995094999196509450565b80548714614960578681555b8381600301541461497357600381018490555b8481600201541461498657600281018590555b4260048201558715614239578615614a69576149a8868963ffffffff613ec216565b60018201558115614a10576001600160a01b0389166000908152600e602090815260408083208a84529091529020546149e7908963ffffffff613ec216565b6001600160a01b038a166000908152600e602090815260408083208b8452909152902055614a69565b6001600160a01b0389166000908152600d602090815260408083208a8452909152902054614a44908963ffffffff613ec216565b6001600160a01b038a166000908152600d602090815260408083208b84529091529020555b868414158015614a7857508315155b8015614a845750824211155b15614239578115614aec576001600160a01b0389166000908152600e60209081526040808320878452909152902054614ac3908963ffffffff613ec216565b6001600160a01b038a166000908152600e60209081526040808320888452909152902055614239565b6001600160a01b0389166000908152600d60209081526040808320878452909152902054614b20908963ffffffff613ec216565b6001600160a01b038a166000908152600d60209081526040808320888452909152902055505050505050505050565b60408101516020820151600091829182919082878910614b845760009150614b7d838a63ffffffff613ec216565b9250614c6f565b5060005b88811015614c6f57600190920191878310614c67576000614bc3614bb2858b63ffffffff61411116565b60408a01519063ffffffff61411116565b9050614be9614bdb826201518063ffffffff614e7616565b89519063ffffffff61411116565b90508b15614c2d576001600160a01b038d166000908152600e60209081526040808320848452909152902054614c2690849063ffffffff61411116565b9250614c65565b6001600160a01b038d166000908152600d60209081526040808320848452909152902054614c6290849063ffffffff61411116565b92505b505b600101614b88565b614c92614c858a6201518063ffffffff614e7616565b8b9063ffffffff613ec216565b919c919b50919950975050505050505050565b6000806000614cb48486614e9d565b90508781108015908190614cd05750614cd087898b8886614f6b565b99919850909650505050505050565b600080600083606001514211158015614cfc575083602001514210155b15614e08576000851580614d135750846020015186105b15614d5457614d4d614d3c62015180614d30886020015142614743565b9063ffffffff614e7616565b60208701519063ffffffff613ec216565b9550614d91565b62015180614d68428863ffffffff61411116565b10614d9157614d8e614d8162015180614d308942614743565b879063ffffffff613ec216565b95505b8615614dc157506001600160a01b0387166000908152600e60209081526040808320888452909152902054614de7565b506001600160a01b0387166000908152600d602090815260408083208884529091529020545b600080614df78b8b8b8a87614ca5565b9096508895509350614e1292505050565b5060019150839050865b955095509592505050565b60008460600151421180614e345750846020015142105b15614e40575081614e6e565b8360600151421180614e555750836020015142105b15614e61575080614e6e565b614e6b82846150af565b90505b949350505050565b600082614e8557506000612d68565b82820282848281614e9257fe5b0414612d6557600080fd5b600080600183608001516001811115614eb257fe5b1415614f57576012600a0a614f48601460009054906101000a90046001600160a01b03166001600160a01b03166318160ddd6040518163ffffffff1660e01b815260040160206040518083038186803b158015614f0e57600080fd5b505afa158015614f22573d6000803e3d6000fd5b505050506040513d6020811015614f3857600080fd5b505185519063ffffffff614e7616565b81614f4f57fe5b049050614f5b565b5081515b614e6e818563ffffffff61411116565b60008086614f90576001600160a01b0386166000908152601060205260409020614fa9565b6001600160a01b0386166000908152600f602052604090205b9050600087614fdc576001600160a01b0387166000908152600e6020908152604080832085548452909152902054615002565b6001600160a01b0387166000908152600d60209081526040808320855484529091529020545b905073__VolumeRestrictionLib__________________630fb19c528288888887600401546040518663ffffffff1660e01b8152600401808681526020018581526020018481526020018381526020018281526020019550505050505060206040518083038186803b15801561507757600080fd5b505af415801561508b573d6000803e3d6000fd5b505050506040513d60208110156150a157600080fd5b505198975050505050505050565b60008183106150be5781612d65565b5090919050565b81548183558181111561239057600083815260209020612390918101908301615151565b6040518060a00160405280600081526020016000815260200160008152602001600081526020016000600181111561511d57fe5b905290565b6040518060a0016040528060008152602001600081526020016000815260200160008152602001600081525090565b61194991905b80821115613cce576000815560010161515756fe496e76616c6964207065726d697373696f6e0000000000000000000000000000a165627a7a723058202b0a50598606edae3e2ed8e02389428cee8d226d6fe27eadaef1024960e0b28b0029",
  "source": "pragma solidity 0.5.8;\r\n\r\nimport \"openzeppelin-solidity/contracts/math/SafeMath.sol\";\r\nimport \"openzeppelin-solidity/contracts/math/Math.sol\";\r\nimport \"../../../libraries/BokkyPooBahsDateTimeLibrary.sol\";\r\nimport \"../../../libraries/VolumeRestrictionLib.sol\";\r\nimport \"../TransferManager.sol\";\r\n\r\ncontract VolumeRestrictionTM is VolumeRestrictionTMStorage, TransferManager {\r\n    using SafeMath for uint256;\r\n\r\n    // Emit when the token holder is added/removed from the exemption list\r\n    event ChangedExemptWalletList(address indexed _wallet, bool _exempted);\r\n    // Emit when the new individual restriction is added corresponds to new token holders\r\n    event AddIndividualRestriction(\r\n        address indexed _holder,\r\n        uint256 _allowedTokens,\r\n        uint256 _startTime,\r\n        uint256 _rollingPeriodInDays,\r\n        uint256 _endTime,\r\n        RestrictionType _typeOfRestriction\r\n    );\r\n    // Emit when the new daily (Individual) restriction is added\r\n    event AddIndividualDailyRestriction(\r\n        address indexed _holder,\r\n        uint256 _allowedTokens,\r\n        uint256 _startTime,\r\n        uint256 _rollingPeriodInDays,\r\n        uint256 _endTime,\r\n        RestrictionType _typeOfRestriction\r\n    );\r\n    // Emit when the individual restriction is modified for a given address\r\n    event ModifyIndividualRestriction(\r\n        address indexed _holder,\r\n        uint256 _allowedTokens,\r\n        uint256 _startTime,\r\n        uint256 _rollingPeriodInDays,\r\n        uint256 _endTime,\r\n        RestrictionType _typeOfRestriction\r\n    );\r\n    // Emit when individual daily restriction get modified\r\n    event ModifyIndividualDailyRestriction(\r\n        address indexed _holder,\r\n        uint256 _allowedTokens,\r\n        uint256 _startTime,\r\n        uint256 _rollingPeriodInDays,\r\n        uint256 _endTime,\r\n        RestrictionType _typeOfRestriction\r\n    );\r\n    // Emit when the new global restriction is added\r\n    event AddDefaultRestriction(\r\n        uint256 _allowedTokens,\r\n        uint256 _startTime,\r\n        uint256 _rollingPeriodInDays,\r\n        uint256 _endTime,\r\n        RestrictionType _typeOfRestriction\r\n    );\r\n    // Emit when the new daily (Default) restriction is added\r\n    event AddDefaultDailyRestriction(\r\n        uint256 _allowedTokens,\r\n        uint256 _startTime,\r\n        uint256 _rollingPeriodInDays,\r\n        uint256 _endTime,\r\n        RestrictionType _typeOfRestriction\r\n    );\r\n    // Emit when default restriction get modified\r\n    event ModifyDefaultRestriction(\r\n        uint256 _allowedTokens,\r\n        uint256 _startTime,\r\n        uint256 _rollingPeriodInDays,\r\n        uint256 _endTime,\r\n        RestrictionType _typeOfRestriction\r\n    );\r\n    // Emit when daily default restriction get modified\r\n    event ModifyDefaultDailyRestriction(\r\n        uint256 _allowedTokens,\r\n        uint256 _startTime,\r\n        uint256 _rollingPeriodInDays,\r\n        uint256 _endTime,\r\n        RestrictionType _typeOfRestriction\r\n    );\r\n    // Emit when the individual restriction gets removed\r\n    event IndividualRestrictionRemoved(address indexed _holder);\r\n    // Emit when individual daily restriction removed\r\n    event IndividualDailyRestrictionRemoved(address indexed _holder);\r\n    // Emit when the default restriction gets removed\r\n    event DefaultRestrictionRemoved();\r\n    // Emit when the daily default restriction gets removed\r\n    event DefaultDailyRestrictionRemoved();\r\n\r\n    /**\r\n     * @notice Constructor\r\n     * @param _securityToken Address of the security token\r\n     * @param _polyAddress Address of the polytoken\r\n     */\r\n    constructor (address _securityToken, address _polyAddress)\r\n    public\r\n    Module(_securityToken, _polyAddress)\r\n    {\r\n\r\n    }\r\n\r\n    /**\r\n     * @notice Used to verify the transfer/transferFrom transaction and prevent tranaction\r\n     * whose volume of tokens will voilate the maximum volume transfer restriction\r\n     * @param _from Address of the sender\r\n     * @param _amount The amount of tokens to transfer\r\n     */\r\n    function executeTransfer(address _from, address /*_to */, uint256 _amount, bytes calldata /*_data*/) external onlySecurityToken returns (Result success) {\r\n        uint256 fromTimestamp;\r\n        uint256 sumOfLastPeriod;\r\n        uint256 daysCovered;\r\n        uint256 dailyTime;\r\n        uint256 endTime;\r\n        bool isGlobal;\r\n        (success, fromTimestamp, sumOfLastPeriod, daysCovered, dailyTime, endTime, ,isGlobal) = _verifyTransfer(_from, _amount);\r\n        if (fromTimestamp != 0 || dailyTime != 0) {\r\n            _updateStorage(\r\n                _from,\r\n                _amount,\r\n                fromTimestamp,\r\n                sumOfLastPeriod,\r\n                daysCovered,\r\n                dailyTime,\r\n                endTime,\r\n                isGlobal\r\n            );\r\n        }\r\n        return success;\r\n    }\r\n\r\n    /**\r\n     * @notice Used to verify the transfer/transferFrom transaction and prevent tranaction\r\n     * whose volume of tokens will voilate the maximum volume transfer restriction\r\n     * @param _from Address of the sender\r\n     * @param _amount The amount of tokens to transfer\r\n     */\r\n    function verifyTransfer(\r\n        address _from,\r\n        address /*_to*/ ,\r\n        uint256 _amount,\r\n        bytes memory /*_data*/\r\n    )\r\n        public\r\n        view\r\n        returns (Result, bytes32)\r\n    {\r\n\r\n        (Result success,,,,,,,) = _verifyTransfer(_from, _amount);\r\n        if (success == Result.INVALID)\r\n            return (success, bytes32(uint256(address(this)) << 96));\r\n        return (Result.NA, bytes32(0));\r\n    }\r\n\r\n    /**\r\n     * @notice Used to verify the transfer/transferFrom transaction and prevent tranaction\r\n     * whose volume of tokens will voilate the maximum volume transfer restriction\r\n     * @param _from Address of the sender\r\n     * @param _amount The amount of tokens to transfer\r\n     */\r\n    function _verifyTransfer(\r\n        address _from,\r\n        uint256 _amount\r\n    )\r\n        internal\r\n        view\r\n        returns (Result, uint256, uint256, uint256, uint256, uint256, uint256, bool)\r\n    {\r\n        // If `_from` is present in the exemptionList or it is `0x0` address then it will not follow the vol restriction\r\n        if (!paused && _from != address(0) && exemptions.exemptIndex[_from] == 0) {\r\n            // Checking the individual restriction if the `_from` comes in the individual category\r\n            if ((individualRestrictions.individualRestriction[_from].endTime >= now && individualRestrictions.individualRestriction[_from].startTime <= now)\r\n                || (individualRestrictions.individualDailyRestriction[_from].endTime >= now && individualRestrictions.individualDailyRestriction[_from].startTime <= now)) {\r\n\r\n                return _restrictionCheck(_amount, _from, false, individualRestrictions.individualRestriction[_from]);\r\n                // If the `_from` doesn't fall under the individual category. It will processed with in the global category automatically\r\n            } else if ((globalRestrictions.defaultRestriction.endTime >= now && globalRestrictions.defaultRestriction.startTime <= now)\r\n                || (globalRestrictions.defaultDailyRestriction.endTime >= now && globalRestrictions.defaultDailyRestriction.startTime <= now)) {\r\n\r\n                return _restrictionCheck(_amount, _from, true, globalRestrictions.defaultRestriction);\r\n            }\r\n        }\r\n        return (Result.NA, 0, 0, 0, 0, 0, 0, false);\r\n    }\r\n\r\n    /**\r\n     * @notice Add/Remove wallet address from the exempt list\r\n     * @param _wallet Ethereum wallet/contract address that need to be exempted\r\n     * @param _exempted Boolean value used to add (i.e true) or remove (i.e false) from the list\r\n     */\r\n    function changeExemptWalletList(address _wallet, bool _exempted) public withPerm(ADMIN) {\r\n        require(_wallet != address(0));\r\n        require((exemptions.exemptIndex[_wallet] == 0) == _exempted);\r\n        if (_exempted) {\r\n            exemptions.exemptAddresses.push(_wallet);\r\n            exemptions.exemptIndex[_wallet] = exemptions.exemptAddresses.length;\r\n        } else {\r\n            exemptions.exemptAddresses[exemptions.exemptIndex[_wallet] - 1] = exemptions.exemptAddresses[exemptions.exemptAddresses.length - 1];\r\n            exemptions.exemptIndex[exemptions.exemptAddresses[exemptions.exemptIndex[_wallet] - 1]] = exemptions.exemptIndex[_wallet];\r\n            delete exemptions.exemptIndex[_wallet];\r\n            exemptions.exemptAddresses.length--;\r\n        }\r\n        emit ChangedExemptWalletList(_wallet, _exempted);\r\n    }\r\n\r\n    /**\r\n     * @notice Use to add the new individual restriction for a given token holder\r\n     * @param _holder Address of the token holder, whom restriction will be implied\r\n     * @param _allowedTokens Amount of tokens allowed to be trade for a given address.\r\n     * @param _startTime Unix timestamp at which restriction get into effect\r\n     * @param _rollingPeriodInDays Rolling period in days (Minimum value should be 1 day)\r\n     * @param _endTime Unix timestamp at which restriction effects will gets end.\r\n     * @param _restrictionType Whether it will be `Fixed` (fixed no. of tokens allowed to transact)\r\n     * or `Percentage` (tokens are calculated as per the totalSupply in the fly).\r\n     */\r\n    function addIndividualRestriction(\r\n        address _holder,\r\n        uint256 _allowedTokens,\r\n        uint256 _startTime,\r\n        uint256 _rollingPeriodInDays,\r\n        uint256 _endTime,\r\n        RestrictionType _restrictionType\r\n    )\r\n        public\r\n        withPerm(ADMIN)\r\n    {\r\n        // It will help to reduce the chances of transaction failure (Specially when the issuer\r\n        // wants to set the startTime near to the current block.timestamp) and minting delayed because\r\n        // of the gas fee or network congestion that lead to the process block timestamp may grater\r\n        // than the given startTime.\r\n        uint256 startTime = _getValidStartTime(_startTime);\r\n        require(_holder != address(0) && exemptions.exemptIndex[_holder] == 0, \"Invalid address\");\r\n        _checkInputParams(_allowedTokens, startTime, _rollingPeriodInDays, _endTime, _restrictionType, now, false);\r\n\r\n        if (individualRestrictions.individualRestriction[_holder].endTime != 0) {\r\n            removeIndividualRestriction(_holder);\r\n        }\r\n        individualRestrictions.individualRestriction[_holder] = VolumeRestriction(\r\n            _allowedTokens,\r\n            startTime,\r\n            _rollingPeriodInDays,\r\n            _endTime,\r\n            _restrictionType\r\n        );\r\n        VolumeRestrictionLib\r\n            .addRestrictionData(\r\n                holderToRestrictionType,\r\n                _holder,\r\n                TypeOfPeriod.MultipleDays,\r\n                individualRestrictions.individualRestriction[_holder].endTime,\r\n                getDataStore()\r\n            );\r\n        emit AddIndividualRestriction(\r\n            _holder,\r\n            _allowedTokens,\r\n            startTime,\r\n            _rollingPeriodInDays,\r\n            _endTime,\r\n            _restrictionType\r\n        );\r\n    }\r\n\r\n    /**\r\n     * @notice Use to add the new individual daily restriction for all token holder\r\n     * @param _holder Address of the token holder, whom restriction will be implied\r\n     * @param _allowedTokens Amount of tokens allowed to be traded for all token holder.\r\n     * @param _startTime Unix timestamp at which restriction get into effect\r\n     * @param _endTime Unix timestamp at which restriction effects will gets end.\r\n     * @param _restrictionType Whether it will be `Fixed` (fixed no. of tokens allowed to transact)\r\n     * or `Percentage` (tokens are calculated as per the totalSupply in the fly).\r\n     */\r\n    function addIndividualDailyRestriction(\r\n        address _holder,\r\n        uint256 _allowedTokens,\r\n        uint256 _startTime,\r\n        uint256 _endTime,\r\n        RestrictionType _restrictionType\r\n    )\r\n        public\r\n        withPerm(ADMIN)\r\n    {\r\n        uint256 startTime = _getValidStartTime(_startTime);\r\n        _checkInputParams(_allowedTokens, startTime, 1, _endTime, _restrictionType, now, false);\r\n        if (individualRestrictions.individualDailyRestriction[_holder].endTime != 0) {\r\n            removeIndividualDailyRestriction(_holder);\r\n        }\r\n        individualRestrictions.individualDailyRestriction[_holder] = VolumeRestriction(\r\n            _allowedTokens,\r\n            startTime,\r\n            1,\r\n            _endTime,\r\n            _restrictionType\r\n        );\r\n        VolumeRestrictionLib\r\n            .addRestrictionData(\r\n                holderToRestrictionType,\r\n                _holder,\r\n                TypeOfPeriod.OneDay,\r\n                individualRestrictions.individualRestriction[_holder].endTime,\r\n                getDataStore()\r\n            );\r\n        emit AddIndividualDailyRestriction(\r\n            _holder,\r\n            _allowedTokens,\r\n            startTime,\r\n            1,\r\n            _endTime,\r\n            _restrictionType\r\n        );\r\n    }\r\n\r\n    /**\r\n     * @notice Use to add the new individual daily restriction for multiple token holders\r\n     * @param _holders Array of address of the token holders, whom restriction will be implied\r\n     * @param _allowedTokens Array of amount of tokens allowed to be trade for a given address.\r\n     * @param _startTimes Array of unix timestamps at which restrictions get into effect\r\n     * @param _endTimes Array of unix timestamps at which restriction effects will gets end.\r\n     * @param _restrictionTypes Array of restriction types value whether it will be `Fixed` (fixed no. of tokens allowed to transact)\r\n     * or `Percentage` (tokens are calculated as per the totalSupply in the fly).\r\n     */\r\n    function addIndividualDailyRestrictionMulti(\r\n        address[] memory _holders,\r\n        uint256[] memory _allowedTokens,\r\n        uint256[] memory _startTimes,\r\n        uint256[] memory _endTimes,\r\n        RestrictionType[] memory _restrictionTypes\r\n    )\r\n        public\r\n    {\r\n        //NB - we duplicate _startTimes below to allow function reuse\r\n        _checkLengthOfArray(_holders, _allowedTokens, _startTimes, _startTimes, _endTimes, _restrictionTypes);\r\n        for (uint256 i = 0; i < _holders.length; i++) {\r\n            addIndividualDailyRestriction(\r\n                _holders[i],\r\n                _allowedTokens[i],\r\n                _startTimes[i],\r\n                _endTimes[i],\r\n                _restrictionTypes[i]\r\n            );\r\n        }\r\n    }\r\n\r\n    /**\r\n     * @notice Use to add the new individual restriction for multiple token holders\r\n     * @param _holders Array of address of the token holders, whom restriction will be implied\r\n     * @param _allowedTokens Array of amount of tokens allowed to be trade for a given address.\r\n     * @param _startTimes Array of unix timestamps at which restrictions get into effect\r\n     * @param _rollingPeriodInDays Array of rolling period in days (Minimum value should be 1 day)\r\n     * @param _endTimes Array of unix timestamps at which restriction effects will gets end.\r\n     * @param _restrictionTypes Array of restriction types value whether it will be `Fixed` (fixed no. of tokens allowed to transact)\r\n     * or `Percentage` (tokens are calculated as per the totalSupply in the fly).\r\n     */\r\n    function addIndividualRestrictionMulti(\r\n        address[] memory _holders,\r\n        uint256[] memory _allowedTokens,\r\n        uint256[] memory _startTimes,\r\n        uint256[] memory _rollingPeriodInDays,\r\n        uint256[] memory _endTimes,\r\n        RestrictionType[] memory _restrictionTypes\r\n    )\r\n        public\r\n    {\r\n        _checkLengthOfArray(_holders, _allowedTokens, _startTimes, _rollingPeriodInDays, _endTimes, _restrictionTypes);\r\n        for (uint256 i = 0; i < _holders.length; i++) {\r\n            addIndividualRestriction(\r\n                _holders[i],\r\n                _allowedTokens[i],\r\n                _startTimes[i],\r\n                _rollingPeriodInDays[i],\r\n                _endTimes[i],\r\n                _restrictionTypes[i]\r\n            );\r\n        }\r\n    }\r\n\r\n    /**\r\n     * @notice Use to add the new default restriction for all token holder\r\n     * @param _allowedTokens Amount of tokens allowed to be traded for all token holder.\r\n     * @param _startTime Unix timestamp at which restriction get into effect\r\n     * @param _rollingPeriodInDays Rolling period in days (Minimum value should be 1 day)\r\n     * @param _endTime Unix timestamp at which restriction effects will gets end.\r\n     * @param _restrictionType Whether it will be `Fixed` (fixed no. of tokens allowed to transact)\r\n     * or `Percentage` (tokens are calculated as per the totalSupply in the fly).\r\n     */\r\n    function addDefaultRestriction(\r\n        uint256 _allowedTokens,\r\n        uint256 _startTime,\r\n        uint256 _rollingPeriodInDays,\r\n        uint256 _endTime,\r\n        RestrictionType _restrictionType\r\n    )\r\n        external\r\n        withPerm(ADMIN)\r\n    {\r\n        uint256 startTime = _getValidStartTime(_startTime);\r\n        _checkInputParams(_allowedTokens, startTime, _rollingPeriodInDays, _endTime, _restrictionType, now, false);\r\n        globalRestrictions.defaultRestriction = VolumeRestriction(\r\n            _allowedTokens,\r\n            startTime,\r\n            _rollingPeriodInDays,\r\n            _endTime,\r\n            _restrictionType\r\n        );\r\n        emit AddDefaultRestriction(\r\n            _allowedTokens,\r\n            startTime,\r\n            _rollingPeriodInDays,\r\n            _endTime,\r\n            _restrictionType\r\n        );\r\n    }\r\n\r\n    /**\r\n     * @notice Use to add the new default daily restriction for all token holder\r\n     * @param _allowedTokens Amount of tokens allowed to be traded for all token holder.\r\n     * @param _startTime Unix timestamp at which restriction get into effect\r\n     * @param _endTime Unix timestamp at which restriction effects will gets end.\r\n     * @param _restrictionType Whether it will be `Fixed` (fixed no. of tokens allowed to transact)\r\n     * or `Percentage` (tokens are calculated as per the totalSupply in the fly).\r\n     */\r\n    function addDefaultDailyRestriction(\r\n        uint256 _allowedTokens,\r\n        uint256 _startTime,\r\n        uint256 _endTime,\r\n        RestrictionType _restrictionType\r\n    )\r\n        external\r\n        withPerm(ADMIN)\r\n    {\r\n        uint256 startTime = _getValidStartTime(_startTime);\r\n        _checkInputParams(_allowedTokens, startTime, 1, _endTime, _restrictionType, now, false);\r\n        globalRestrictions.defaultDailyRestriction = VolumeRestriction(\r\n            _allowedTokens,\r\n            startTime,\r\n            1,\r\n            _endTime,\r\n            _restrictionType\r\n        );\r\n        emit AddDefaultDailyRestriction(\r\n            _allowedTokens,\r\n            startTime,\r\n            1,\r\n            _endTime,\r\n            _restrictionType\r\n        );\r\n    }\r\n\r\n    /**\r\n     * @notice use to remove the individual restriction for a given address\r\n     * @param _holder Address of the user\r\n     */\r\n    function removeIndividualRestriction(address _holder) public withPerm(ADMIN) {\r\n        _removeIndividualRestriction(_holder);\r\n    }\r\n\r\n    function _removeIndividualRestriction(address _holder) internal {\r\n        require(_holder != address(0));\r\n        require(individualRestrictions.individualRestriction[_holder].endTime != 0);\r\n        individualRestrictions.individualRestriction[_holder] = VolumeRestriction(0, 0, 0, 0, RestrictionType(0));\r\n        VolumeRestrictionLib.deleteHolderFromList(holderToRestrictionType, _holder, getDataStore(), TypeOfPeriod.OneDay);\r\n        bucketData.userToBucket[_holder].lastTradedDayTime = 0;\r\n        bucketData.userToBucket[_holder].sumOfLastPeriod = 0;\r\n        bucketData.userToBucket[_holder].daysCovered = 0;\r\n        emit IndividualRestrictionRemoved(_holder);\r\n    }\r\n\r\n    /**\r\n     * @notice use to remove the individual restriction for a given address\r\n     * @param _holders Array of address of the user\r\n     */\r\n    function removeIndividualRestrictionMulti(address[] memory _holders) public withPerm(ADMIN) {\r\n        for (uint256 i = 0; i < _holders.length; i++) {\r\n            _removeIndividualRestriction(_holders[i]);\r\n        }\r\n    }\r\n\r\n    /**\r\n     * @notice use to remove the individual daily restriction for a given address\r\n     * @param _holder Address of the user\r\n     */\r\n    function removeIndividualDailyRestriction(address _holder) public withPerm(ADMIN) {\r\n        _removeIndividualDailyRestriction(_holder);\r\n    }\r\n\r\n    function _removeIndividualDailyRestriction(address _holder) internal {\r\n        require(_holder != address(0));\r\n        require(individualRestrictions.individualDailyRestriction[_holder].endTime != 0);\r\n        individualRestrictions.individualDailyRestriction[_holder] = VolumeRestriction(0, 0, 0, 0, RestrictionType(0));\r\n        VolumeRestrictionLib.deleteHolderFromList(holderToRestrictionType, _holder, getDataStore(), TypeOfPeriod.MultipleDays);\r\n        bucketData.userToBucket[_holder].dailyLastTradedDayTime = 0;\r\n        emit IndividualDailyRestrictionRemoved(_holder);\r\n    }\r\n\r\n    /**\r\n     * @notice use to remove the individual daily restriction for a given address\r\n     * @param _holders Array of address of the user\r\n     */\r\n    function removeIndividualDailyRestrictionMulti(address[] memory _holders) public withPerm(ADMIN) {\r\n        for (uint256 i = 0; i < _holders.length; i++) {\r\n            _removeIndividualDailyRestriction(_holders[i]);\r\n        }\r\n    }\r\n\r\n    /**\r\n     * @notice Use to remove the default restriction\r\n     */\r\n    function removeDefaultRestriction() public withPerm(ADMIN) {\r\n        require(globalRestrictions.defaultRestriction.endTime != 0);\r\n        globalRestrictions.defaultRestriction = VolumeRestriction(0, 0, 0, 0, RestrictionType(0));\r\n        emit DefaultRestrictionRemoved();\r\n    }\r\n\r\n    /**\r\n     * @notice Use to remove the daily default restriction\r\n     */\r\n    function removeDefaultDailyRestriction() external withPerm(ADMIN) {\r\n        require(globalRestrictions.defaultDailyRestriction.endTime != 0);\r\n        globalRestrictions.defaultDailyRestriction = VolumeRestriction(0, 0, 0, 0, RestrictionType(0));\r\n        emit DefaultDailyRestrictionRemoved();\r\n    }\r\n\r\n    /**\r\n     * @notice Use to modify the existing individual restriction for a given token holder\r\n     * @param _holder Address of the token holder, whom restriction will be implied\r\n     * @param _allowedTokens Amount of tokens allowed to be trade for a given address.\r\n     * @param _startTime Unix timestamp at which restriction get into effect\r\n     * @param _rollingPeriodInDays Rolling period in days (Minimum value should be 1 day)\r\n     * @param _endTime Unix timestamp at which restriction effects will gets end.\r\n     * @param _restrictionType Whether it will be `Fixed` (fixed no. of tokens allowed to transact)\r\n     * or `Percentage` (tokens are calculated as per the totalSupply in the fly).\r\n     */\r\n    function modifyIndividualRestriction(\r\n        address _holder,\r\n        uint256 _allowedTokens,\r\n        uint256 _startTime,\r\n        uint256 _rollingPeriodInDays,\r\n        uint256 _endTime,\r\n        RestrictionType _restrictionType\r\n    )\r\n        public\r\n        withPerm(ADMIN)\r\n    {\r\n        _isAllowedToModify(individualRestrictions.individualRestriction[_holder].startTime);\r\n        uint256 startTime = _getValidStartTime(_startTime);\r\n        _checkInputParams(_allowedTokens, startTime, _rollingPeriodInDays, _endTime, _restrictionType, now, false);\r\n        individualRestrictions.individualRestriction[_holder] = VolumeRestriction(\r\n            _allowedTokens,\r\n            startTime,\r\n            _rollingPeriodInDays,\r\n            _endTime,\r\n            _restrictionType\r\n        );\r\n        emit ModifyIndividualRestriction(\r\n            _holder,\r\n            _allowedTokens,\r\n            startTime,\r\n            _rollingPeriodInDays,\r\n            _endTime,\r\n            _restrictionType\r\n      );\r\n    }\r\n\r\n    /**\r\n     * @notice Use to modify the existing individual daily restriction for a given token holder\r\n     * @dev Changing of startTime will affect the 24 hrs span. i.e if in earlier restriction days start with\r\n     * morning and end on midnight while after the change day may start with afternoon and end with other day afternoon\r\n     * @param _holder Address of the token holder, whom restriction will be implied\r\n     * @param _allowedTokens Amount of tokens allowed to be trade for a given address.\r\n     * @param _startTime Unix timestamp at which restriction get into effect\r\n     * @param _endTime Unix timestamp at which restriction effects will gets end.\r\n     * @param _restrictionType Whether it will be `Fixed` (fixed no. of tokens allowed to transact)\r\n     * or `Percentage` (tokens are calculated as per the totalSupply in the fly).\r\n     */\r\n    function modifyIndividualDailyRestriction(\r\n        address _holder,\r\n        uint256 _allowedTokens,\r\n        uint256 _startTime,\r\n        uint256 _endTime,\r\n        RestrictionType _restrictionType\r\n    )\r\n        public\r\n        withPerm(ADMIN)\r\n    {\r\n        uint256 startTime = _getValidStartTime(_startTime);\r\n        uint256 checkTime = (individualRestrictions.individualDailyRestriction[_holder].startTime <= now ? individualRestrictions.individualDailyRestriction[_holder].startTime : now);\r\n        _checkInputParams(_allowedTokens, startTime, 1, _endTime, _restrictionType, checkTime, true);\r\n        individualRestrictions.individualDailyRestriction[_holder] = VolumeRestriction(\r\n            _allowedTokens,\r\n            startTime,\r\n            1,\r\n            _endTime,\r\n            _restrictionType\r\n        );\r\n        emit ModifyIndividualDailyRestriction(\r\n            _holder,\r\n            _allowedTokens,\r\n            startTime,\r\n            1,\r\n            _endTime,\r\n            _restrictionType\r\n        );\r\n    }\r\n\r\n    /**\r\n     * @notice Use to modify the existing individual daily restriction for multiple token holders\r\n     * @param _holders Array of address of the token holders, whom restriction will be implied\r\n     * @param _allowedTokens Array of amount of tokens allowed to be trade for a given address.\r\n     * @param _startTimes Array of unix timestamps at which restrictions get into effect\r\n     * @param _endTimes Array of unix timestamps at which restriction effects will gets end.\r\n     * @param _restrictionTypes Array of restriction types value whether it will be `Fixed` (fixed no. of tokens allowed to transact)\r\n     * or `Percentage` (tokens are calculated as per the totalSupply in the fly).\r\n     */\r\n    function modifyIndividualDailyRestrictionMulti(\r\n        address[] memory _holders,\r\n        uint256[] memory _allowedTokens,\r\n        uint256[] memory _startTimes,\r\n        uint256[] memory _endTimes,\r\n        RestrictionType[] memory _restrictionTypes\r\n    )\r\n        public\r\n    {\r\n        //NB - we duplicate _startTimes below to allow function reuse\r\n        _checkLengthOfArray(_holders, _allowedTokens, _startTimes, _startTimes, _endTimes, _restrictionTypes);\r\n        for (uint256 i = 0; i < _holders.length; i++) {\r\n            modifyIndividualDailyRestriction(\r\n                _holders[i],\r\n                _allowedTokens[i],\r\n                _startTimes[i],\r\n                _endTimes[i],\r\n                _restrictionTypes[i]\r\n            );\r\n        }\r\n    }\r\n\r\n    /**\r\n     * @notice Use to modify the existing individual restriction for multiple token holders\r\n     * @param _holders Array of address of the token holders, whom restriction will be implied\r\n     * @param _allowedTokens Array of amount of tokens allowed to be trade for a given address.\r\n     * @param _startTimes Array of unix timestamps at which restrictions get into effect\r\n     * @param _rollingPeriodInDays Array of rolling period in days (Minimum value should be 1 day)\r\n     * @param _endTimes Array of unix timestamps at which restriction effects will gets end.\r\n     * @param _restrictionTypes Array of restriction types value whether it will be `Fixed` (fixed no. of tokens allowed to transact)\r\n     * or `Percentage` (tokens are calculated as per the totalSupply in the fly).\r\n     */\r\n    function modifyIndividualRestrictionMulti(\r\n        address[] memory _holders,\r\n        uint256[] memory _allowedTokens,\r\n        uint256[] memory _startTimes,\r\n        uint256[] memory _rollingPeriodInDays,\r\n        uint256[] memory _endTimes,\r\n        RestrictionType[] memory _restrictionTypes\r\n    )\r\n        public\r\n    {\r\n        _checkLengthOfArray(_holders, _allowedTokens, _startTimes, _rollingPeriodInDays, _endTimes, _restrictionTypes);\r\n        for (uint256 i = 0; i < _holders.length; i++) {\r\n            modifyIndividualRestriction(\r\n                _holders[i],\r\n                _allowedTokens[i],\r\n                _startTimes[i],\r\n                _rollingPeriodInDays[i],\r\n                _endTimes[i],\r\n                _restrictionTypes[i]\r\n            );\r\n        }\r\n    }\r\n\r\n    /**\r\n     * @notice Use to modify the global restriction for all token holder\r\n     * @param _allowedTokens Amount of tokens allowed to be traded for all token holder.\r\n     * @param _startTime Unix timestamp at which restriction get into effect\r\n     * @param _rollingPeriodInDays Rolling period in days (Minimum value should be 1 day)\r\n     * @param _endTime Unix timestamp at which restriction effects will gets end.\r\n     * @param _restrictionType Whether it will be `Fixed` (fixed no. of tokens allowed to transact)\r\n     * or `Percentage` (tokens are calculated as per the totalSupply in the fly).\r\n     */\r\n    function modifyDefaultRestriction(\r\n        uint256 _allowedTokens,\r\n        uint256 _startTime,\r\n        uint256 _rollingPeriodInDays,\r\n        uint256 _endTime,\r\n        RestrictionType _restrictionType\r\n    )\r\n        external\r\n        withPerm(ADMIN)\r\n    {\r\n        _isAllowedToModify(globalRestrictions.defaultRestriction.startTime);\r\n        uint256 startTime = _getValidStartTime(_startTime);\r\n        _checkInputParams(_allowedTokens, startTime, _rollingPeriodInDays, _endTime, _restrictionType, now, false);\r\n        globalRestrictions.defaultRestriction = VolumeRestriction(\r\n            _allowedTokens,\r\n            startTime,\r\n            _rollingPeriodInDays,\r\n            _endTime,\r\n            _restrictionType\r\n        );\r\n        emit ModifyDefaultRestriction(\r\n            _allowedTokens,\r\n            startTime,\r\n            _rollingPeriodInDays,\r\n            _endTime,\r\n            _restrictionType\r\n        );\r\n    }\r\n\r\n    /**\r\n     * @notice Use to modify the daily default restriction for all token holder\r\n     * @dev Changing of startTime will affect the 24 hrs span. i.e if in earlier restriction days start with\r\n     * morning and end on midnight while after the change day may start with afternoon and end with other day afternoon.\r\n     * @param _allowedTokens Amount of tokens allowed to be traded for all token holder.\r\n     * @param _startTime Unix timestamp at which restriction get into effect\r\n     * @param _endTime Unix timestamp at which restriction effects will gets end.\r\n     * @param _restrictionType Whether it will be `Fixed` (fixed no. of tokens allowed to transact)\r\n     * or `Percentage` (tokens are calculated as per the totalSupply in the fly).\r\n     */\r\n    function modifyDefaultDailyRestriction(\r\n        uint256 _allowedTokens,\r\n        uint256 _startTime,\r\n        uint256 _endTime,\r\n        RestrictionType _restrictionType\r\n    )\r\n        external\r\n        withPerm(ADMIN)\r\n    {\r\n        uint256 startTime = _getValidStartTime(_startTime);\r\n        // If old startTime is already passed then new startTime should be greater than or equal to the\r\n        // old startTime otherwise any past startTime can be allowed in compare to earlier startTime.\r\n        _checkInputParams(_allowedTokens, startTime, 1, _endTime, _restrictionType,\r\n            (globalRestrictions.defaultDailyRestriction.startTime <= now ? globalRestrictions.defaultDailyRestriction.startTime : now),\r\n            true\r\n        );\r\n        globalRestrictions.defaultDailyRestriction = VolumeRestriction(\r\n            _allowedTokens,\r\n            startTime,\r\n            1,\r\n            _endTime,\r\n            _restrictionType\r\n        );\r\n        emit ModifyDefaultDailyRestriction(\r\n            _allowedTokens,\r\n            startTime,\r\n            1,\r\n            _endTime,\r\n            _restrictionType\r\n        );\r\n    }\r\n\r\n    /**\r\n    * @notice Internal function used to validate the transaction for a given address\r\n    * If it validates then it also update the storage corressponds to the default restriction\r\n    */\r\n    function _restrictionCheck(\r\n        uint256 _amount,\r\n        address _from,\r\n        bool _isDefault,\r\n        VolumeRestriction memory _restriction\r\n    )\r\n        internal\r\n        view\r\n        returns (\r\n        Result success,\r\n        uint256 fromTimestamp,\r\n        uint256 sumOfLastPeriod,\r\n        uint256 daysCovered,\r\n        uint256 dailyTime,\r\n        uint256 endTime,\r\n        uint256 allowedAmountToTransact,\r\n        bool allowedDaily\r\n    ) {\r\n        // using the variable to avoid stack too deep error\r\n        VolumeRestriction memory dailyRestriction = _isDefault ? globalRestrictions.defaultDailyRestriction :individualRestrictions.individualDailyRestriction[_from];\r\n        BucketDetails memory _bucketDetails = _isDefault ? bucketData.defaultUserToBucket[_from]: bucketData.userToBucket[_from];\r\n        daysCovered = _restriction.rollingPeriodInDays;\r\n        // This variable works for both allowedDefault or allowedIndividual\r\n        bool allowedDefault = true;\r\n        if (_restriction.endTime >= now && _restriction.startTime <= now) {\r\n            if (_bucketDetails.lastTradedDayTime < _restriction.startTime) {\r\n                // It will execute when the txn is performed first time after the addition of individual restriction\r\n                fromTimestamp = _restriction.startTime;\r\n            } else {\r\n                // Picking up the last timestamp\r\n                fromTimestamp = _bucketDetails.lastTradedDayTime;\r\n            }\r\n\r\n            // Check with the bucket and parse all the new timestamps to calculate the sumOfLastPeriod\r\n            // re-using the local variables to avoid the stack too deep error.\r\n            (sumOfLastPeriod, fromTimestamp, daysCovered) = _bucketCheck(\r\n                _from,\r\n                _isDefault,\r\n                fromTimestamp,\r\n                BokkyPooBahsDateTimeLibrary.diffDays(fromTimestamp, now),\r\n\r\n                daysCovered,\r\n                _bucketDetails\r\n            );\r\n            // validation of the transaction amount\r\n            // reusing the local variable to avoid stack too deep error\r\n            // here variable allowedAmountToTransact is representing the allowedAmount\r\n            (allowedDefault, allowedAmountToTransact) = _checkValidAmountToTransact(_amount, _from, _isDefault, _restriction, sumOfLastPeriod);\r\n            if (!allowedDefault) {\r\n                allowedDefault = false;\r\n            }\r\n        }\r\n\r\n        // reusing the local variable to avoid stack too deep error\r\n        // here variable endTime is representing the allowedDailyAmount\r\n        (allowedDaily, dailyTime, endTime) = _dailyTxCheck(_amount, _from, _isDefault, _bucketDetails.dailyLastTradedDayTime, dailyRestriction);\r\n        success = ((allowedDaily && allowedDefault) == true ? Result.NA : Result.INVALID);\r\n        allowedAmountToTransact = _validAllowedAmount(dailyRestriction, _restriction, allowedAmountToTransact, endTime);\r\n        endTime = dailyRestriction.endTime;\r\n        allowedDaily = _isDefault;\r\n    }\r\n\r\n    function _validAllowedAmount(\r\n        VolumeRestriction memory dailyRestriction,\r\n        VolumeRestriction memory restriction,\r\n        uint256 allowedAmount,\r\n        uint256 allowedDailyAmount\r\n    )\r\n        internal\r\n        view\r\n        returns (uint256)\r\n    {\r\n        if (now > dailyRestriction.endTime || now < dailyRestriction.startTime)\r\n            return allowedAmount;\r\n        else if (now > restriction.endTime || now < restriction.startTime)\r\n            return allowedDailyAmount;\r\n        else\r\n            return Math.min(allowedDailyAmount, allowedAmount);\r\n    }\r\n\r\n    /**\r\n     * @notice The function is used to check specific edge case where the user restriction type change from\r\n     * default to individual or vice versa. It will return true when last transaction traded by the user\r\n     * and the current txn timestamp lies in the same day.\r\n     * NB - Instead of comparing the current day transaction amount, we are comparing the total amount traded\r\n     * on the lastTradedDayTime that makes the restriction strict. The reason is not availability of amount\r\n     * that transacted on the current day (because of bucket desgin).\r\n     */\r\n    function _isValidAmountAfterRestrictionChanges(\r\n        bool _isDefault,\r\n        address _from,\r\n        uint256 _amount,\r\n        uint256 _sumOfLastPeriod,\r\n        uint256 _allowedAmount\r\n    )\r\n        internal\r\n        view\r\n        returns(bool)\r\n    {\r\n        // Always use the alternate bucket details as per the current transaction restriction\r\n        BucketDetails storage bucketDetails = _isDefault ? bucketData.userToBucket[_from] : bucketData.defaultUserToBucket[_from];\r\n        uint256 amountTradedLastDay = _isDefault ? bucketData.bucket[_from][bucketDetails.lastTradedDayTime]: bucketData.defaultBucket[_from][bucketDetails.lastTradedDayTime];\r\n        return VolumeRestrictionLib.isValidAmountAfterRestrictionChanges(\r\n            amountTradedLastDay,\r\n            _amount,\r\n            _sumOfLastPeriod,\r\n            _allowedAmount,\r\n            bucketDetails.lastTradedTimestamp\r\n        );\r\n    }\r\n\r\n    function _dailyTxCheck(\r\n        uint256 _amount,\r\n        address _from,\r\n        bool _isDefault,\r\n        uint256 _dailyLastTradedDayTime,\r\n        VolumeRestriction memory _restriction\r\n    )\r\n        internal\r\n        view\r\n        returns(bool, uint256, uint256)\r\n    {\r\n        // Checking whether the daily restriction is added or not if yes then calculate\r\n        // the total amount get traded on a particular day (~ _fromTime)\r\n        if ( now <= _restriction.endTime && now >= _restriction.startTime) {\r\n            uint256 txSumOfDay = 0;\r\n            if (_dailyLastTradedDayTime == 0 || _dailyLastTradedDayTime < _restriction.startTime)\r\n                // This if condition will be executed when the individual daily restriction executed first time\r\n                _dailyLastTradedDayTime = _restriction.startTime.add(BokkyPooBahsDateTimeLibrary.diffDays(_restriction.startTime, now).mul(1 days));\r\n            else if (now.sub(_dailyLastTradedDayTime) >= 1 days)\r\n                _dailyLastTradedDayTime = _dailyLastTradedDayTime.add(BokkyPooBahsDateTimeLibrary.diffDays(_dailyLastTradedDayTime, now).mul(1 days));\r\n            // Assgining total sum traded on dailyLastTradedDayTime timestamp\r\n            if (_isDefault)\r\n                txSumOfDay = bucketData.defaultBucket[_from][_dailyLastTradedDayTime];\r\n            else\r\n                txSumOfDay = bucketData.bucket[_from][_dailyLastTradedDayTime];\r\n            (bool isAllowed, uint256 allowedAmount) = _checkValidAmountToTransact(_amount, _from, _isDefault, _restriction, txSumOfDay);\r\n            return (isAllowed, _dailyLastTradedDayTime, allowedAmount);\r\n        }\r\n        return (true, _dailyLastTradedDayTime, _amount);\r\n    }\r\n\r\n    /// Internal function for the bucket check\r\n    function _bucketCheck(\r\n        address _from,\r\n        bool isDefault,\r\n        uint256 _fromTime,\r\n        uint256 _diffDays,\r\n        uint256 _rollingPeriodInDays,\r\n        BucketDetails memory _bucketDetails\r\n    )\r\n        internal\r\n        view\r\n        returns (uint256, uint256, uint256)\r\n    {\r\n        uint256 counter = _bucketDetails.daysCovered;\r\n        uint256 sumOfLastPeriod = _bucketDetails.sumOfLastPeriod;\r\n        uint256 i = 0;\r\n        if (_diffDays >= _rollingPeriodInDays) {\r\n            // If the difference of days is greater than the rollingPeriod then sumOfLastPeriod will always be zero\r\n            sumOfLastPeriod = 0;\r\n            counter = counter.add(_diffDays);\r\n        } else {\r\n            for (i = 0; i < _diffDays; i++) {\r\n                counter++;\r\n                // This condition is to check whether the first rolling period is covered or not\r\n                // if not then it continues and adding 0 value into sumOfLastPeriod without subtracting\r\n                // the earlier value at that index\r\n                if (counter >= _rollingPeriodInDays) {\r\n                    // Subtracting the former value(Sum of all the txn amount of that day) from the sumOfLastPeriod\r\n                    // The below line subtracts (the traded volume on days no longer covered by rolling period) from sumOfLastPeriod.\r\n                    // Every loop execution subtracts one day's trade volume.\r\n                    // Loop starts from the first day covered in sumOfLastPeriod upto the day that is covered by rolling period.\r\n                    uint256 temp = _bucketDetails.daysCovered.sub(counter.sub(_rollingPeriodInDays));\r\n                    temp = _bucketDetails.lastTradedDayTime.sub(temp.mul(1 days));\r\n                    if (isDefault)\r\n                        sumOfLastPeriod = sumOfLastPeriod.sub(bucketData.defaultBucket[_from][temp]);\r\n                    else\r\n                        sumOfLastPeriod = sumOfLastPeriod.sub(bucketData.bucket[_from][temp]);\r\n                }\r\n                // Adding the last amount that is transacted on the `_fromTime` not actually doing it but left written to understand\r\n                // the alogrithm\r\n                //_bucketDetails.sumOfLastPeriod = _bucketDetails.sumOfLastPeriod.add(uint256(0));\r\n            }\r\n        }\r\n        // calculating the timestamp that will used as an index of the next bucket\r\n        // i.e buckets period will be look like this T1 to T2-1, T2 to T3-1 ....\r\n        // where T1,T2,T3 are timestamps having 24 hrs difference\r\n        _fromTime = _fromTime.add(_diffDays.mul(1 days));\r\n        return (sumOfLastPeriod, _fromTime, counter);\r\n    }\r\n\r\n    function _checkValidAmountToTransact(\r\n        uint256 _amountToTransact,\r\n        address _from,\r\n        bool _isDefault,\r\n        VolumeRestriction memory _restriction,\r\n        uint256 _sumOfLastPeriod\r\n    )\r\n        internal\r\n        view\r\n        returns (bool, uint256)\r\n    {\r\n        uint256 allowedAmount = _allowedAmountToTransact(_sumOfLastPeriod, _restriction);\r\n        // Validation on the amount to transact\r\n        bool allowed = allowedAmount >= _amountToTransact;\r\n        return ((allowed && _isValidAmountAfterRestrictionChanges(_isDefault, _from, _amountToTransact, _sumOfLastPeriod, allowedAmount)), allowedAmount);\r\n    }\r\n\r\n    function _allowedAmountToTransact(\r\n        uint256 _sumOfLastPeriod,\r\n        VolumeRestriction memory _restriction\r\n    )\r\n        internal\r\n        view\r\n        returns (uint256)\r\n    {\r\n        uint256 _allowedAmount = 0;\r\n        if (_restriction.typeOfRestriction == RestrictionType.Percentage) {\r\n            _allowedAmount = (_restriction.allowedTokens.mul(securityToken.totalSupply())) / uint256(10) ** 18;\r\n        } else {\r\n            _allowedAmount = _restriction.allowedTokens;\r\n        }\r\n        return _allowedAmount.sub(_sumOfLastPeriod);\r\n    }\r\n\r\n    function _updateStorage(\r\n        address _from,\r\n        uint256 _amount,\r\n        uint256 _lastTradedDayTime,\r\n        uint256 _sumOfLastPeriod,\r\n        uint256 _daysCovered,\r\n        uint256 _dailyLastTradedDayTime,\r\n        uint256 _endTime,\r\n        bool isDefault\r\n    )\r\n        internal\r\n    {\r\n\r\n        if (isDefault){\r\n            BucketDetails storage defaultUserToBucketDetails = bucketData.defaultUserToBucket[_from];\r\n            _updateStorageActual(_from, _amount, _lastTradedDayTime, _sumOfLastPeriod, _daysCovered, _dailyLastTradedDayTime, _endTime, true,  defaultUserToBucketDetails);\r\n        }\r\n        else {\r\n            BucketDetails storage userToBucketDetails = bucketData.userToBucket[_from];\r\n            _updateStorageActual(_from, _amount, _lastTradedDayTime, _sumOfLastPeriod, _daysCovered, _dailyLastTradedDayTime, _endTime, false, userToBucketDetails);\r\n        }\r\n    }\r\n\r\n    function _updateStorageActual(\r\n        address _from,\r\n        uint256 _amount,\r\n        uint256 _lastTradedDayTime,\r\n        uint256 _sumOfLastPeriod,\r\n        uint256 _daysCovered,\r\n        uint256 _dailyLastTradedDayTime,\r\n        uint256 _endTime,\r\n        bool isDefault,\r\n        BucketDetails storage details\r\n    )\r\n        internal\r\n    {\r\n        // Cheap storage technique\r\n        if (details.lastTradedDayTime != _lastTradedDayTime) {\r\n            // Assigning the latest transaction timestamp of the day\r\n            details.lastTradedDayTime = _lastTradedDayTime;\r\n        }\r\n        if (details.dailyLastTradedDayTime != _dailyLastTradedDayTime) {\r\n            // Assigning the latest transaction timestamp of the day\r\n            details.dailyLastTradedDayTime = _dailyLastTradedDayTime;\r\n        }\r\n        if (details.daysCovered != _daysCovered) {\r\n            details.daysCovered = _daysCovered;\r\n        }\r\n        // Assigning the latest transaction timestamp\r\n        details.lastTradedTimestamp = now;\r\n\r\n        if (_amount != 0) {\r\n            if (_lastTradedDayTime !=0) {\r\n                details.sumOfLastPeriod = _sumOfLastPeriod.add(_amount);\r\n                // Increasing the total amount of the day by `_amount`\r\n                if (isDefault)\r\n                    bucketData.defaultBucket[_from][_lastTradedDayTime] = bucketData.defaultBucket[_from][_lastTradedDayTime].add(_amount);\r\n                else\r\n                    bucketData.bucket[_from][_lastTradedDayTime] = bucketData.bucket[_from][_lastTradedDayTime].add(_amount);\r\n            }\r\n            if ((_dailyLastTradedDayTime != _lastTradedDayTime) && _dailyLastTradedDayTime != 0 && now <= _endTime) {\r\n                // Increasing the total amount of the day by `_amount`\r\n                if (isDefault)\r\n                    bucketData.defaultBucket[_from][_dailyLastTradedDayTime] = bucketData.defaultBucket[_from][_dailyLastTradedDayTime].add(_amount);\r\n                else\r\n                    bucketData.bucket[_from][_dailyLastTradedDayTime] = bucketData.bucket[_from][_dailyLastTradedDayTime].add(_amount);\r\n            }\r\n        }\r\n    }\r\n\r\n    function _checkInputParams(\r\n        uint256 _allowedTokens,\r\n        uint256 _startTime,\r\n        uint256 _rollingPeriodDays,\r\n        uint256 _endTime,\r\n        RestrictionType _restrictionType,\r\n        uint256 _earliestStartTime,\r\n        bool isModifyDaily\r\n    )\r\n        internal\r\n        pure\r\n    {\r\n        if (isModifyDaily)\r\n            require(_startTime >= _earliestStartTime, \"Invalid startTime\");\r\n        else\r\n            require(_startTime > _earliestStartTime, \"Invalid startTime\");\r\n        require(_allowedTokens > 0);\r\n        if (_restrictionType != RestrictionType.Fixed) {\r\n            require(_allowedTokens <= 100 * 10 ** 16, \"Invalid value\");\r\n        }\r\n        // Maximum limit for the rollingPeriod is 365 days\r\n        require(_rollingPeriodDays >= 1 && _rollingPeriodDays <= 365, \"Invalid rollingperiod\");\r\n        require(\r\n            BokkyPooBahsDateTimeLibrary.diffDays(_startTime, _endTime) >= _rollingPeriodDays,\r\n            \"Invalid times\"\r\n        );\r\n    }\r\n\r\n    function _isAllowedToModify(uint256 _startTime) internal view {\r\n        require(_startTime > now);\r\n    }\r\n\r\n    function _getValidStartTime(uint256 _startTime) internal view returns(uint256) {\r\n        if (_startTime == 0)\r\n            _startTime = now + 1;\r\n        return _startTime;\r\n    }\r\n\r\n    /**\r\n     * @notice return the amount of tokens for a given user as per the partition\r\n     * @param _partition Identifier\r\n     * @param _tokenHolder Whom token amount need to query\r\n     * @param _additionalBalance It is the `_value` that transfer during transfer/transferFrom function call\r\n     */\r\n    function getTokensByPartition(bytes32 _partition, address _tokenHolder, uint256 _additionalBalance) external view returns(uint256) {\r\n        uint256 allowedAmountToTransact;\r\n        uint256 fromTimestamp;\r\n        uint256 dailyTime;\r\n        uint256 currentBalance = (msg.sender == address(securityToken)) ? (securityToken.balanceOf(_tokenHolder)).add(_additionalBalance) : securityToken.balanceOf(_tokenHolder);\r\n        if (paused)\r\n            return (_partition == UNLOCKED ? currentBalance: 0);\r\n\r\n        (,fromTimestamp,,,dailyTime,,allowedAmountToTransact,) = _verifyTransfer(_tokenHolder, 0);\r\n        if (_partition == LOCKED) {\r\n            if (allowedAmountToTransact == 0 && fromTimestamp == 0 && dailyTime == 0)\r\n                return 0;\r\n            else if (allowedAmountToTransact == 0)\r\n                return currentBalance;\r\n            else\r\n                return (currentBalance.sub(allowedAmountToTransact));\r\n        }\r\n        else if (_partition == UNLOCKED) {\r\n            if (allowedAmountToTransact == 0 && fromTimestamp == 0 && dailyTime == 0)\r\n                return currentBalance;\r\n            else if (allowedAmountToTransact == 0)\r\n                return 0;\r\n            else\r\n                return allowedAmountToTransact;\r\n        }\r\n    }\r\n\r\n    /**\r\n     * @notice Use to get the bucket details for a given address\r\n     * @param _user Address of the token holder for whom the bucket details has queried\r\n     * @return uint256 lastTradedDayTime\r\n     * @return uint256 sumOfLastPeriod\r\n     * @return uint256 days covered\r\n     * @return uint256 24h lastTradedDayTime\r\n     * @return uint256 Timestamp at which last transaction get executed\r\n     */\r\n    function getIndividualBucketDetailsToUser(address _user) public view returns(uint256, uint256, uint256, uint256, uint256) {\r\n        return _getBucketDetails(bucketData.userToBucket[_user]);\r\n    }\r\n\r\n    /**\r\n     * @notice Use to get the bucket details for a given address\r\n     * @param _user Address of the token holder for whom the bucket details has queried\r\n     * @return uint256 lastTradedDayTime\r\n     * @return uint256 sumOfLastPeriod\r\n     * @return uint256 days covered\r\n     * @return uint256 24h lastTradedDayTime\r\n     * @return uint256 Timestamp at which last transaction get executed\r\n     */\r\n    function getDefaultBucketDetailsToUser(address _user) public view returns(uint256, uint256, uint256, uint256, uint256) {\r\n        return _getBucketDetails(bucketData.defaultUserToBucket[_user]);\r\n    }\r\n\r\n    function _getBucketDetails(BucketDetails storage _bucket) internal view returns(\r\n        uint256,\r\n        uint256,\r\n        uint256,\r\n        uint256,\r\n        uint256\r\n    ) {\r\n        return(\r\n            _bucket.lastTradedDayTime,\r\n            _bucket.sumOfLastPeriod,\r\n            _bucket.daysCovered,\r\n            _bucket.dailyLastTradedDayTime,\r\n            _bucket.lastTradedTimestamp\r\n        );\r\n    }\r\n\r\n    /**\r\n     * @notice Use to get the volume of token that being traded at a particular day (`_at` + 24 hours) for a given user\r\n     * @param _user Address of the token holder\r\n     * @param _at Timestamp\r\n     */\r\n    function getTotalTradedByUser(address _user, uint256 _at) external view returns(uint256) {\r\n        return (bucketData.bucket[_user][_at].add(bucketData.defaultBucket[_user][_at]));\r\n    }\r\n\r\n    /**\r\n     * @notice This function returns the signature of configure function\r\n     */\r\n    function getInitFunction() public pure returns(bytes4) {\r\n        return bytes4(0);\r\n    }\r\n\r\n    /**\r\n     * @notice Use to return the list of exempted addresses\r\n     */\r\n    function getExemptAddress() external view returns(address[] memory) {\r\n        return exemptions.exemptAddresses;\r\n    }\r\n\r\n    function getIndividualRestriction(address _investor) external view returns(uint256, uint256, uint256, uint256, RestrictionType) {\r\n        return _volumeRestrictionSplay(individualRestrictions.individualRestriction[_investor]);\r\n    }\r\n\r\n    function getIndividualDailyRestriction(address _investor) external view returns(uint256, uint256, uint256, uint256, RestrictionType) {\r\n        return _volumeRestrictionSplay(individualRestrictions.individualDailyRestriction[_investor]);\r\n    }\r\n\r\n    function getDefaultRestriction() external view returns(uint256, uint256, uint256, uint256, RestrictionType) {\r\n        return _volumeRestrictionSplay(globalRestrictions.defaultRestriction);\r\n    }\r\n\r\n    function getDefaultDailyRestriction() external view returns(uint256, uint256, uint256, uint256, RestrictionType) {\r\n        return _volumeRestrictionSplay(globalRestrictions.defaultDailyRestriction);\r\n    }\r\n\r\n    function _volumeRestrictionSplay(VolumeRestriction memory _volumeRestriction) internal pure returns(uint256, uint256, uint256, uint256, RestrictionType) {\r\n        return (\r\n            _volumeRestriction.allowedTokens,\r\n            _volumeRestriction.startTime,\r\n            _volumeRestriction.rollingPeriodInDays,\r\n            _volumeRestriction.endTime,\r\n            _volumeRestriction.typeOfRestriction\r\n        );\r\n    }\r\n\r\n    /**\r\n     * @notice Provide the restriction details of all the restricted addresses\r\n     * @return address List of the restricted addresses\r\n     * @return uint256 List of the tokens allowed to the restricted addresses corresponds to restricted address\r\n     * @return uint256 List of the start time of the restriction corresponds to restricted address\r\n     * @return uint256 List of the rolling period in days for a restriction corresponds to restricted address.\r\n     * @return uint256 List of the end time of the restriction corresponds to restricted address.\r\n     * @return uint8 List of the type of restriction to validate the value of the `allowedTokens`\r\n     * of the restriction corresponds to restricted address\r\n     */\r\n    function getRestrictionData() external view returns(\r\n        address[] memory allAddresses,\r\n        uint256[] memory allowedTokens,\r\n        uint256[] memory startTime,\r\n        uint256[] memory rollingPeriodInDays,\r\n        uint256[] memory endTime,\r\n        RestrictionType[] memory typeOfRestriction\r\n    ) {\r\n        return VolumeRestrictionLib.getRestrictionData(holderToRestrictionType, individualRestrictions, getDataStore());\r\n    }\r\n\r\n    function _checkLengthOfArray(\r\n        address[] memory _holders,\r\n        uint256[] memory _allowedTokens,\r\n        uint256[] memory _startTimes,\r\n        uint256[] memory _rollingPeriodInDays,\r\n        uint256[] memory _endTimes,\r\n        RestrictionType[] memory _restrictionTypes\r\n    )\r\n        internal\r\n        pure\r\n    {\r\n        require(\r\n            _holders.length == _allowedTokens.length &&\r\n            _allowedTokens.length == _startTimes.length &&\r\n            _startTimes.length == _rollingPeriodInDays.length &&\r\n            _rollingPeriodInDays.length == _endTimes.length &&\r\n            _endTimes.length == _restrictionTypes.length,\r\n            \"Length mismatch\"\r\n        );\r\n    }\r\n\r\n    /**\r\n     * @notice Returns the permissions flag that are associated with Percentage transfer Manager\r\n     */\r\n    function getPermissions() public view returns(bytes32[] memory allPermissions) {\r\n        allPermissions = new bytes32[](1);\r\n        allPermissions[0] = ADMIN;\r\n    }\r\n\r\n}\r\n",
  "sourcePath": "C:/mspace/polymath-core/contracts/modules/TransferManager/VRTM/VolumeRestrictionTM.sol",
  "compiler": {
    "name": "solc",
    "version": "0.5.8+commit.23d335f2.Emscripten.clang"
  },
  "schemaVersion": "3.0.11",
  "updatedAt": "2019-08-05T22:53:45.077Z",
  "devdoc": {
    "methods": {
      "addDefaultDailyRestriction(uint256,uint256,uint256,uint8)": {
        "params": {
          "_allowedTokens": "Amount of tokens allowed to be traded for all token holder.\r",
          "_endTime": "Unix timestamp at which restriction effects will gets end.\r",
          "_restrictionType": "Whether it will be `Fixed` (fixed no. of tokens allowed to transact)\r or `Percentage` (tokens are calculated as per the totalSupply in the fly).\r",
          "_startTime": "Unix timestamp at which restriction get into effect\r"
        }
      },
      "addDefaultRestriction(uint256,uint256,uint256,uint256,uint8)": {
        "params": {
          "_allowedTokens": "Amount of tokens allowed to be traded for all token holder.\r",
          "_endTime": "Unix timestamp at which restriction effects will gets end.\r",
          "_restrictionType": "Whether it will be `Fixed` (fixed no. of tokens allowed to transact)\r or `Percentage` (tokens are calculated as per the totalSupply in the fly).\r",
          "_rollingPeriodInDays": "Rolling period in days (Minimum value should be 1 day)\r",
          "_startTime": "Unix timestamp at which restriction get into effect\r"
        }
      },
      "addIndividualDailyRestriction(address,uint256,uint256,uint256,uint8)": {
        "params": {
          "_allowedTokens": "Amount of tokens allowed to be traded for all token holder.\r",
          "_endTime": "Unix timestamp at which restriction effects will gets end.\r",
          "_holder": "Address of the token holder, whom restriction will be implied\r",
          "_restrictionType": "Whether it will be `Fixed` (fixed no. of tokens allowed to transact)\r or `Percentage` (tokens are calculated as per the totalSupply in the fly).\r",
          "_startTime": "Unix timestamp at which restriction get into effect\r"
        }
      },
      "addIndividualDailyRestrictionMulti(address[],uint256[],uint256[],uint256[],uint8[])": {
        "params": {
          "_allowedTokens": "Array of amount of tokens allowed to be trade for a given address.\r",
          "_endTimes": "Array of unix timestamps at which restriction effects will gets end.\r",
          "_holders": "Array of address of the token holders, whom restriction will be implied\r",
          "_restrictionTypes": "Array of restriction types value whether it will be `Fixed` (fixed no. of tokens allowed to transact)\r or `Percentage` (tokens are calculated as per the totalSupply in the fly).\r",
          "_startTimes": "Array of unix timestamps at which restrictions get into effect\r"
        }
      },
      "addIndividualRestriction(address,uint256,uint256,uint256,uint256,uint8)": {
        "params": {
          "_allowedTokens": "Amount of tokens allowed to be trade for a given address.\r",
          "_endTime": "Unix timestamp at which restriction effects will gets end.\r",
          "_holder": "Address of the token holder, whom restriction will be implied\r",
          "_restrictionType": "Whether it will be `Fixed` (fixed no. of tokens allowed to transact)\r or `Percentage` (tokens are calculated as per the totalSupply in the fly).\r",
          "_rollingPeriodInDays": "Rolling period in days (Minimum value should be 1 day)\r",
          "_startTime": "Unix timestamp at which restriction get into effect\r"
        }
      },
      "addIndividualRestrictionMulti(address[],uint256[],uint256[],uint256[],uint256[],uint8[])": {
        "params": {
          "_allowedTokens": "Array of amount of tokens allowed to be trade for a given address.\r",
          "_endTimes": "Array of unix timestamps at which restriction effects will gets end.\r",
          "_holders": "Array of address of the token holders, whom restriction will be implied\r",
          "_restrictionTypes": "Array of restriction types value whether it will be `Fixed` (fixed no. of tokens allowed to transact)\r or `Percentage` (tokens are calculated as per the totalSupply in the fly).\r",
          "_rollingPeriodInDays": "Array of rolling period in days (Minimum value should be 1 day)\r",
          "_startTimes": "Array of unix timestamps at which restrictions get into effect\r"
        }
      },
      "changeExemptWalletList(address,bool)": {
        "params": {
          "_exempted": "Boolean value used to add (i.e true) or remove (i.e false) from the list\r",
          "_wallet": "Ethereum wallet/contract address that need to be exempted\r"
        }
      },
      "constructor": {
        "params": {
          "_polyAddress": "Address of the polytoken\r",
          "_securityToken": "Address of the security token\r"
        }
      },
      "executeTransfer(address,address,uint256,bytes)": {
        "params": {
          "_amount": "The amount of tokens to transfer\r",
          "_from": "Address of the sender\r"
        }
      },
      "getDefaultBucketDetailsToUser(address)": {
        "params": {
          "_user": "Address of the token holder for whom the bucket details has queried\r"
        },
        "return": "uint256 lastTradedDayTime\ruint256 sumOfLastPeriod\ruint256 days covered\ruint256 24h lastTradedDayTime\ruint256 Timestamp at which last transaction get executed\r"
      },
      "getIndividualBucketDetailsToUser(address)": {
        "params": {
          "_user": "Address of the token holder for whom the bucket details has queried\r"
        },
        "return": "uint256 lastTradedDayTime\ruint256 sumOfLastPeriod\ruint256 days covered\ruint256 24h lastTradedDayTime\ruint256 Timestamp at which last transaction get executed\r"
      },
      "getRestrictionData()": {
        "return": "address List of the restricted addresses\ruint256 List of the tokens allowed to the restricted addresses corresponds to restricted address\ruint256 List of the start time of the restriction corresponds to restricted address\ruint256 List of the rolling period in days for a restriction corresponds to restricted address.\ruint256 List of the end time of the restriction corresponds to restricted address.\ruint8 List of the type of restriction to validate the value of the `allowedTokens`\r of the restriction corresponds to restricted address\r"
      },
      "getTokensByPartition(bytes32,address,uint256)": {
        "params": {
          "_additionalBalance": "It is the `_value` that transfer during transfer/transferFrom function call\r",
          "_partition": "Identifier\r",
          "_tokenHolder": "Whom token amount need to query\r"
        }
      },
      "getTotalTradedByUser(address,uint256)": {
        "params": {
          "_at": "Timestamp\r",
          "_user": "Address of the token holder\r"
        }
      },
      "modifyDefaultDailyRestriction(uint256,uint256,uint256,uint8)": {
        "details": "Changing of startTime will affect the 24 hrs span. i.e if in earlier restriction days start with\r morning and end on midnight while after the change day may start with afternoon and end with other day afternoon.\r",
        "params": {
          "_allowedTokens": "Amount of tokens allowed to be traded for all token holder.\r",
          "_endTime": "Unix timestamp at which restriction effects will gets end.\r",
          "_restrictionType": "Whether it will be `Fixed` (fixed no. of tokens allowed to transact)\r or `Percentage` (tokens are calculated as per the totalSupply in the fly).\r",
          "_startTime": "Unix timestamp at which restriction get into effect\r"
        }
      },
      "modifyDefaultRestriction(uint256,uint256,uint256,uint256,uint8)": {
        "params": {
          "_allowedTokens": "Amount of tokens allowed to be traded for all token holder.\r",
          "_endTime": "Unix timestamp at which restriction effects will gets end.\r",
          "_restrictionType": "Whether it will be `Fixed` (fixed no. of tokens allowed to transact)\r or `Percentage` (tokens are calculated as per the totalSupply in the fly).\r",
          "_rollingPeriodInDays": "Rolling period in days (Minimum value should be 1 day)\r",
          "_startTime": "Unix timestamp at which restriction get into effect\r"
        }
      },
      "modifyIndividualDailyRestriction(address,uint256,uint256,uint256,uint8)": {
        "details": "Changing of startTime will affect the 24 hrs span. i.e if in earlier restriction days start with\r morning and end on midnight while after the change day may start with afternoon and end with other day afternoon\r",
        "params": {
          "_allowedTokens": "Amount of tokens allowed to be trade for a given address.\r",
          "_endTime": "Unix timestamp at which restriction effects will gets end.\r",
          "_holder": "Address of the token holder, whom restriction will be implied\r",
          "_restrictionType": "Whether it will be `Fixed` (fixed no. of tokens allowed to transact)\r or `Percentage` (tokens are calculated as per the totalSupply in the fly).\r",
          "_startTime": "Unix timestamp at which restriction get into effect\r"
        }
      },
      "modifyIndividualDailyRestrictionMulti(address[],uint256[],uint256[],uint256[],uint8[])": {
        "params": {
          "_allowedTokens": "Array of amount of tokens allowed to be trade for a given address.\r",
          "_endTimes": "Array of unix timestamps at which restriction effects will gets end.\r",
          "_holders": "Array of address of the token holders, whom restriction will be implied\r",
          "_restrictionTypes": "Array of restriction types value whether it will be `Fixed` (fixed no. of tokens allowed to transact)\r or `Percentage` (tokens are calculated as per the totalSupply in the fly).\r",
          "_startTimes": "Array of unix timestamps at which restrictions get into effect\r"
        }
      },
      "modifyIndividualRestriction(address,uint256,uint256,uint256,uint256,uint8)": {
        "params": {
          "_allowedTokens": "Amount of tokens allowed to be trade for a given address.\r",
          "_endTime": "Unix timestamp at which restriction effects will gets end.\r",
          "_holder": "Address of the token holder, whom restriction will be implied\r",
          "_restrictionType": "Whether it will be `Fixed` (fixed no. of tokens allowed to transact)\r or `Percentage` (tokens are calculated as per the totalSupply in the fly).\r",
          "_rollingPeriodInDays": "Rolling period in days (Minimum value should be 1 day)\r",
          "_startTime": "Unix timestamp at which restriction get into effect\r"
        }
      },
      "modifyIndividualRestrictionMulti(address[],uint256[],uint256[],uint256[],uint256[],uint8[])": {
        "params": {
          "_allowedTokens": "Array of amount of tokens allowed to be trade for a given address.\r",
          "_endTimes": "Array of unix timestamps at which restriction effects will gets end.\r",
          "_holders": "Array of address of the token holders, whom restriction will be implied\r",
          "_restrictionTypes": "Array of restriction types value whether it will be `Fixed` (fixed no. of tokens allowed to transact)\r or `Percentage` (tokens are calculated as per the totalSupply in the fly).\r",
          "_rollingPeriodInDays": "Array of rolling period in days (Minimum value should be 1 day)\r",
          "_startTimes": "Array of unix timestamps at which restrictions get into effect\r"
        }
      },
      "reclaimERC20(address)": {
        "details": "We duplicate here due to the overriden owner & onlyOwner\r",
        "params": {
          "_tokenContract": "The address of the token contract\r"
        }
      },
      "reclaimETH()": {
        "details": "We duplicate here due to the overriden owner & onlyOwner\r"
      },
      "removeIndividualDailyRestriction(address)": {
        "params": {
          "_holder": "Address of the user\r"
        }
      },
      "removeIndividualDailyRestrictionMulti(address[])": {
        "params": {
          "_holders": "Array of address of the user\r"
        }
      },
      "removeIndividualRestriction(address)": {
        "params": {
          "_holder": "Address of the user\r"
        }
      },
      "removeIndividualRestrictionMulti(address[])": {
        "params": {
          "_holders": "Array of address of the user\r"
        }
      },
      "verifyTransfer(address,address,uint256,bytes)": {
        "params": {
          "_amount": "The amount of tokens to transfer\r",
          "_from": "Address of the sender\r"
        }
      }
    }
  },
  "userdoc": {
    "methods": {
      "addDefaultDailyRestriction(uint256,uint256,uint256,uint8)": {
        "notice": "Use to add the new default daily restriction for all token holder\r"
      },
      "addDefaultRestriction(uint256,uint256,uint256,uint256,uint8)": {
        "notice": "Use to add the new default restriction for all token holder\r"
      },
      "addIndividualDailyRestriction(address,uint256,uint256,uint256,uint8)": {
        "notice": "Use to add the new individual daily restriction for all token holder\r"
      },
      "addIndividualDailyRestrictionMulti(address[],uint256[],uint256[],uint256[],uint8[])": {
        "notice": "Use to add the new individual daily restriction for multiple token holders\r"
      },
      "addIndividualRestriction(address,uint256,uint256,uint256,uint256,uint8)": {
        "notice": "Use to add the new individual restriction for a given token holder\r"
      },
      "addIndividualRestrictionMulti(address[],uint256[],uint256[],uint256[],uint256[],uint8[])": {
        "notice": "Use to add the new individual restriction for multiple token holders\r"
      },
      "changeExemptWalletList(address,bool)": {
        "notice": "Add/Remove wallet address from the exempt list\r"
      },
      "constructor": "Constructor\r",
      "executeTransfer(address,address,uint256,bytes)": {
        "notice": "Used to verify the transfer/transferFrom transaction and prevent tranaction\r whose volume of tokens will voilate the maximum volume transfer restriction\r"
      },
      "getDataStore()": {
        "notice": "used to return the data store address of securityToken\r"
      },
      "getDefaultBucketDetailsToUser(address)": {
        "notice": "Use to get the bucket details for a given address\r"
      },
      "getExemptAddress()": {
        "notice": "Use to return the list of exempted addresses\r"
      },
      "getIndividualBucketDetailsToUser(address)": {
        "notice": "Use to get the bucket details for a given address\r"
      },
      "getInitFunction()": {
        "notice": "This function returns the signature of configure function\r"
      },
      "getPermissions()": {
        "notice": "Returns the permissions flag that are associated with Percentage transfer Manager\r"
      },
      "getRestrictionData()": {
        "notice": "Provide the restriction details of all the restricted addresses\r"
      },
      "getTokensByPartition(bytes32,address,uint256)": {
        "notice": "return the amount of tokens for a given user as per the partition\r"
      },
      "getTotalTradedByUser(address,uint256)": {
        "notice": "Use to get the volume of token that being traded at a particular day (`_at` + 24 hours) for a given user\r"
      },
      "modifyDefaultDailyRestriction(uint256,uint256,uint256,uint8)": {
        "notice": "Use to modify the daily default restriction for all token holder\r"
      },
      "modifyDefaultRestriction(uint256,uint256,uint256,uint256,uint8)": {
        "notice": "Use to modify the global restriction for all token holder\r"
      },
      "modifyIndividualDailyRestriction(address,uint256,uint256,uint256,uint8)": {
        "notice": "Use to modify the existing individual daily restriction for a given token holder\r"
      },
      "modifyIndividualDailyRestrictionMulti(address[],uint256[],uint256[],uint256[],uint8[])": {
        "notice": "Use to modify the existing individual daily restriction for multiple token holders\r"
      },
      "modifyIndividualRestriction(address,uint256,uint256,uint256,uint256,uint8)": {
        "notice": "Use to modify the existing individual restriction for a given token holder\r"
      },
      "modifyIndividualRestrictionMulti(address[],uint256[],uint256[],uint256[],uint256[],uint8[])": {
        "notice": "Use to modify the existing individual restriction for multiple token holders\r"
      },
      "pause()": {
        "notice": "Pause (overridden function)\r"
      },
      "reclaimERC20(address)": {
        "notice": "Reclaims ERC20Basic compatible tokens\r"
      },
      "reclaimETH()": {
        "notice": "Reclaims ETH\r"
      },
      "removeDefaultDailyRestriction()": {
        "notice": "Use to remove the daily default restriction\r"
      },
      "removeDefaultRestriction()": {
        "notice": "Use to remove the default restriction\r"
      },
      "removeIndividualDailyRestriction(address)": {
        "notice": "use to remove the individual daily restriction for a given address\r"
      },
      "removeIndividualDailyRestrictionMulti(address[])": {
        "notice": "use to remove the individual daily restriction for a given address\r"
      },
      "removeIndividualRestriction(address)": {
        "notice": "use to remove the individual restriction for a given address\r"
      },
      "removeIndividualRestrictionMulti(address[])": {
        "notice": "use to remove the individual restriction for a given address\r"
      },
      "unpause()": {
        "notice": "Unpause (overridden function)\r"
      },
      "verifyTransfer(address,address,uint256,bytes)": {
        "notice": "Used to verify the transfer/transferFrom transaction and prevent tranaction\r whose volume of tokens will voilate the maximum volume transfer restriction\r"
      }
    }
  }
}