{
  "contractName": "WeightedVoteCheckpoint",
  "abi": [
    {
      "constant": false,
      "inputs": [],
      "name": "reclaimETH",
      "outputs": [],
      "payable": false,
      "stateMutability": "nonpayable",
      "type": "function"
    },
    {
      "constant": false,
      "inputs": [
        {
          "name": "_voters",
          "type": "address[]"
        },
        {
          "name": "_exempts",
          "type": "bool[]"
        }
      ],
      "name": "changeDefaultExemptedVotersListMulti",
      "outputs": [],
      "payable": false,
      "stateMutability": "nonpayable",
      "type": "function"
    },
    {
      "constant": true,
      "inputs": [],
      "name": "ADMIN",
      "outputs": [
        {
          "name": "",
          "type": "bytes32"
        }
      ],
      "payable": false,
      "stateMutability": "view",
      "type": "function"
    },
    {
      "constant": false,
      "inputs": [],
      "name": "unpause",
      "outputs": [],
      "payable": false,
      "stateMutability": "nonpayable",
      "type": "function"
    },
    {
      "constant": true,
      "inputs": [],
      "name": "paused",
      "outputs": [
        {
          "name": "",
          "type": "bool"
        }
      ],
      "payable": false,
      "stateMutability": "view",
      "type": "function"
    },
    {
      "constant": true,
      "inputs": [],
      "name": "polyToken",
      "outputs": [
        {
          "name": "",
          "type": "address"
        }
      ],
      "payable": false,
      "stateMutability": "view",
      "type": "function"
    },
    {
      "constant": true,
      "inputs": [],
      "name": "getDefaultExemptionVotersList",
      "outputs": [
        {
          "name": "",
          "type": "address[]"
        }
      ],
      "payable": false,
      "stateMutability": "view",
      "type": "function"
    },
    {
      "constant": false,
      "inputs": [],
      "name": "pause",
      "outputs": [],
      "payable": false,
      "stateMutability": "nonpayable",
      "type": "function"
    },
    {
      "constant": false,
      "inputs": [
        {
          "name": "_tokenContract",
          "type": "address"
        }
      ],
      "name": "reclaimERC20",
      "outputs": [],
      "payable": false,
      "stateMutability": "nonpayable",
      "type": "function"
    },
    {
      "constant": true,
      "inputs": [],
      "name": "OPERATOR",
      "outputs": [
        {
          "name": "",
          "type": "bytes32"
        }
      ],
      "payable": false,
      "stateMutability": "view",
      "type": "function"
    },
    {
      "constant": true,
      "inputs": [],
      "name": "securityToken",
      "outputs": [
        {
          "name": "",
          "type": "address"
        }
      ],
      "payable": false,
      "stateMutability": "view",
      "type": "function"
    },
    {
      "constant": true,
      "inputs": [],
      "name": "factory",
      "outputs": [
        {
          "name": "",
          "type": "address"
        }
      ],
      "payable": false,
      "stateMutability": "view",
      "type": "function"
    },
    {
      "constant": false,
      "inputs": [
        {
          "name": "_voter",
          "type": "address"
        },
        {
          "name": "_exempt",
          "type": "bool"
        }
      ],
      "name": "changeDefaultExemptedVotersList",
      "outputs": [],
      "payable": false,
      "stateMutability": "nonpayable",
      "type": "function"
    },
    {
      "constant": true,
      "inputs": [],
      "name": "getDataStore",
      "outputs": [
        {
          "name": "",
          "type": "address"
        }
      ],
      "payable": false,
      "stateMutability": "view",
      "type": "function"
    },
    {
      "inputs": [
        {
          "name": "_securityToken",
          "type": "address"
        },
        {
          "name": "_polyToken",
          "type": "address"
        }
      ],
      "payable": false,
      "stateMutability": "nonpayable",
      "type": "constructor"
    },
    {
      "anonymous": false,
      "inputs": [
        {
          "indexed": true,
          "name": "_ballotId",
          "type": "uint256"
        },
        {
          "indexed": true,
          "name": "_checkpointId",
          "type": "uint256"
        },
        {
          "indexed": false,
          "name": "_startTime",
          "type": "uint256"
        },
        {
          "indexed": false,
          "name": "_endTime",
          "type": "uint256"
        },
        {
          "indexed": false,
          "name": "_noOfProposals",
          "type": "uint256"
        },
        {
          "indexed": false,
          "name": "_quorumPercentage",
          "type": "uint256"
        }
      ],
      "name": "BallotCreated",
      "type": "event"
    },
    {
      "anonymous": false,
      "inputs": [
        {
          "indexed": true,
          "name": "_voter",
          "type": "address"
        },
        {
          "indexed": false,
          "name": "_weight",
          "type": "uint256"
        },
        {
          "indexed": true,
          "name": "_ballotId",
          "type": "uint256"
        },
        {
          "indexed": true,
          "name": "_proposalId",
          "type": "uint256"
        }
      ],
      "name": "VoteCast",
      "type": "event"
    },
    {
      "anonymous": false,
      "inputs": [
        {
          "indexed": true,
          "name": "_ballotId",
          "type": "uint256"
        },
        {
          "indexed": false,
          "name": "_isActive",
          "type": "bool"
        }
      ],
      "name": "BallotStatusChanged",
      "type": "event"
    },
    {
      "anonymous": false,
      "inputs": [
        {
          "indexed": true,
          "name": "_ballotId",
          "type": "uint256"
        },
        {
          "indexed": true,
          "name": "_voter",
          "type": "address"
        },
        {
          "indexed": false,
          "name": "_exempt",
          "type": "bool"
        }
      ],
      "name": "ChangedBallotExemptedVotersList",
      "type": "event"
    },
    {
      "anonymous": false,
      "inputs": [
        {
          "indexed": true,
          "name": "_voter",
          "type": "address"
        },
        {
          "indexed": false,
          "name": "_exempt",
          "type": "bool"
        }
      ],
      "name": "ChangedDefaultExemptedVotersList",
      "type": "event"
    },
    {
      "anonymous": false,
      "inputs": [
        {
          "indexed": false,
          "name": "account",
          "type": "address"
        }
      ],
      "name": "Pause",
      "type": "event"
    },
    {
      "anonymous": false,
      "inputs": [
        {
          "indexed": false,
          "name": "account",
          "type": "address"
        }
      ],
      "name": "Unpause",
      "type": "event"
    },
    {
      "constant": true,
      "inputs": [],
      "name": "getInitFunction",
      "outputs": [
        {
          "name": "",
          "type": "bytes4"
        }
      ],
      "payable": false,
      "stateMutability": "pure",
      "type": "function"
    },
    {
      "constant": false,
      "inputs": [
        {
          "name": "_duration",
          "type": "uint256"
        },
        {
          "name": "_noOfProposals",
          "type": "uint256"
        },
        {
          "name": "_quorumPercentage",
          "type": "uint256"
        }
      ],
      "name": "createBallot",
      "outputs": [],
      "payable": false,
      "stateMutability": "nonpayable",
      "type": "function"
    },
    {
      "constant": false,
      "inputs": [
        {
          "name": "_checkpointId",
          "type": "uint256"
        },
        {
          "name": "_quorumPercentage",
          "type": "uint256"
        },
        {
          "name": "_startTime",
          "type": "uint256"
        },
        {
          "name": "_endTime",
          "type": "uint256"
        },
        {
          "name": "_noOfProposals",
          "type": "uint256"
        }
      ],
      "name": "createCustomBallot",
      "outputs": [],
      "payable": false,
      "stateMutability": "nonpayable",
      "type": "function"
    },
    {
      "constant": false,
      "inputs": [
        {
          "name": "_ballotId",
          "type": "uint256"
        },
        {
          "name": "_proposalId",
          "type": "uint256"
        }
      ],
      "name": "castVote",
      "outputs": [],
      "payable": false,
      "stateMutability": "nonpayable",
      "type": "function"
    },
    {
      "constant": false,
      "inputs": [
        {
          "name": "_ballotId",
          "type": "uint256"
        },
        {
          "name": "_voter",
          "type": "address"
        },
        {
          "name": "_exempt",
          "type": "bool"
        }
      ],
      "name": "changeBallotExemptedVotersList",
      "outputs": [],
      "payable": false,
      "stateMutability": "nonpayable",
      "type": "function"
    },
    {
      "constant": false,
      "inputs": [
        {
          "name": "_ballotId",
          "type": "uint256"
        },
        {
          "name": "_voters",
          "type": "address[]"
        },
        {
          "name": "_exempts",
          "type": "bool[]"
        }
      ],
      "name": "changeBallotExemptedVotersListMulti",
      "outputs": [],
      "payable": false,
      "stateMutability": "nonpayable",
      "type": "function"
    },
    {
      "constant": true,
      "inputs": [
        {
          "name": "_ballotId",
          "type": "uint256"
        },
        {
          "name": "_voter",
          "type": "address"
        }
      ],
      "name": "isVoterAllowed",
      "outputs": [
        {
          "name": "",
          "type": "bool"
        }
      ],
      "payable": false,
      "stateMutability": "view",
      "type": "function"
    },
    {
      "constant": false,
      "inputs": [
        {
          "name": "_ballotId",
          "type": "uint256"
        },
        {
          "name": "_isActive",
          "type": "bool"
        }
      ],
      "name": "changeBallotStatus",
      "outputs": [],
      "payable": false,
      "stateMutability": "nonpayable",
      "type": "function"
    },
    {
      "constant": true,
      "inputs": [
        {
          "name": "_ballotId",
          "type": "uint256"
        }
      ],
      "name": "getBallotResults",
      "outputs": [
        {
          "name": "voteWeighting",
          "type": "uint256[]"
        },
        {
          "name": "tieWith",
          "type": "uint256[]"
        },
        {
          "name": "winningProposal",
          "type": "uint256"
        },
        {
          "name": "isVotingSucceed",
          "type": "bool"
        },
        {
          "name": "totalVotes",
          "type": "uint256"
        }
      ],
      "payable": false,
      "stateMutability": "view",
      "type": "function"
    },
    {
      "constant": true,
      "inputs": [
        {
          "name": "_ballotId",
          "type": "uint256"
        },
        {
          "name": "_voter",
          "type": "address"
        }
      ],
      "name": "getSelectedProposal",
      "outputs": [
        {
          "name": "proposalId",
          "type": "uint256"
        }
      ],
      "payable": false,
      "stateMutability": "view",
      "type": "function"
    },
    {
      "constant": true,
      "inputs": [
        {
          "name": "_ballotId",
          "type": "uint256"
        }
      ],
      "name": "getBallotDetails",
      "outputs": [
        {
          "name": "",
          "type": "uint256"
        },
        {
          "name": "",
          "type": "uint256"
        },
        {
          "name": "",
          "type": "uint256"
        },
        {
          "name": "",
          "type": "uint256"
        },
        {
          "name": "",
          "type": "uint256"
        },
        {
          "name": "",
          "type": "uint256"
        },
        {
          "name": "",
          "type": "uint256"
        },
        {
          "name": "",
          "type": "bool"
        }
      ],
      "payable": false,
      "stateMutability": "view",
      "type": "function"
    },
    {
      "constant": true,
      "inputs": [],
      "name": "getPermissions",
      "outputs": [
        {
          "name": "",
          "type": "bytes32[]"
        }
      ],
      "payable": false,
      "stateMutability": "view",
      "type": "function"
    }
  ],
  "bytecode": "0x608060405260058054600160a01b60ff021916905534801561002057600080fd5b506040516040806127ea8339810180604052604081101561004057600080fd5b508051602090910151600480546001600160a01b039384166001600160a01b0319918216179091556003805482163317905560058054939092169216919091179055612759806100916000396000f3fe608060405234801561001057600080fd5b506004361061018e5760003560e01c8063634616dd116100de578063983d273711610097578063c45a015511610071578063c45a0155146105d7578063c795bb79146105df578063d71aae2b1461060d578063fe58265e146106d85761018e565b8063983d2737146105bf578063b84dfbd2146105c7578063c3a07df6146105cf5761018e565b8063634616dd146104bd5780636faa22a5146104e95780636ff7896b1461050d5780638456cb59146105655780638905fd4f1461056d5780638e400132146105935761018e565b80632c0a3f891161014b5780634f8eb47f116101255780634f8eb47f146103e45780635814a4bf146104445780635c975abb1461046d578063614437bf146104895761018e565b80632c0a3f89146102f45780633b051cf5146103175780633f4ba83a146103dc5761018e565b80630321a3801461019357806303e10d37146101ba5780630f144a48146101ef5780631613ec9d146101f757806328e0b6671461021c5780632a0acc6a146102da575b600080fd5b6101b8600480360360408110156101a957600080fd5b508035906020013515156106e0565b005b6101b8600480360360a08110156101d057600080fd5b50803590602081013590604081013590606081013590608001356108d3565b6101b8610a5f565b6101ff610a97565b604080516001600160e01b03199092168252519081900360200190f35b6101b86004803603604081101561023257600080fd5b810190602081018135600160201b81111561024c57600080fd5b82018360208201111561025e57600080fd5b803590602001918460208302840111600160201b8311171561027f57600080fd5b919390929091602081019035600160201b81111561029c57600080fd5b8201836020820111156102ae57600080fd5b803590602001918460208302840111600160201b831117156102cf57600080fd5b509092509050610a9d565b6102e2610b98565b60408051918252519081900360200190f35b6101b86004803603604081101561030a57600080fd5b5080359060200135610ba7565b6101b86004803603606081101561032d57600080fd5b81359190810190604081016020820135600160201b81111561034e57600080fd5b82018360208201111561036057600080fd5b803590602001918460208302840111600160201b8311171561038157600080fd5b919390929091602081019035600160201b81111561039e57600080fd5b8201836020820111156103b057600080fd5b803590602001918460208302840111600160201b831117156103d157600080fd5b509092509050610f8e565b6101b8611093565b610401600480360360208110156103fa57600080fd5b50356110a5565b604080519889526020890197909752878701959095526060870193909352608086019190915260a085015260c0840152151560e083015251908190036101000190f35b6101b86004803603606081101561045a57600080fd5b5080359060208101359060400135611219565b61047561136a565b604080519115158252519081900360200190f35b6101b86004803603606081101561049f57600080fd5b508035906001600160a01b036020820135169060400135151561137a565b610475600480360360408110156104d357600080fd5b50803590602001356001600160a01b03166113e3565b6104f161144c565b604080516001600160a01b039092168252519081900360200190f35b61051561145b565b60408051602080825283518183015283519192839290830191858101910280838360005b83811015610551578181015183820152602001610539565b505050509050019250505060405180910390f35b6101b86114bd565b6101b86004803603602081101561058357600080fd5b50356001600160a01b03166114cd565b6102e2600480360360408110156105a957600080fd5b50803590602001356001600160a01b031661167d565b6102e26116cd565b6104f16116df565b6105156116ee565b6104f161173c565b6101b8600480360360408110156105f557600080fd5b506001600160a01b038135169060200135151561174b565b61062a6004803603602081101561062357600080fd5b50356117ad565b6040805190810184905282151560608201526080810182905260a08082528651908201528551819060208083019160c08401918a8101910280838360005b83811015610680578181015183820152602001610668565b50505050905001838103825287818151815260200191508051906020019060200280838360005b838110156106bf5781810151838201526020016106a7565b5050505090500197505050505050505060405180910390f35b6104f1611ae7565b600160d91b6420a226a4a7026106f68133611b68565b6107385760408051600160e51b62461bcd028152602060048201526012602482015260008051602061270e833981519152604482015290519081900360640190fd5b6000838154811061074557fe5b906000526020600020906006020160020160089054906101000a90046001600160401b03166001600160401b0316426001600160401b031611156107d35760408051600160e51b62461bcd02815260206004820152600d60248201527f416c726561647920656e64656400000000000000000000000000000000000000604482015290519081900360640190fd5b811515600084815481106107e357fe5b9060005260206000209060060201600201601f9054906101000a900460ff161515141561085a5760408051600160e51b62461bcd02815260206004820152601660248201527f41637469766520737461746520756e6368616e67656400000000000000000000604482015290519081900360640190fd5b816000848154811061086857fe5b60009182526020918290206002600690920201018054921515600160f81b026001600160f81b0390931692909217909155604080518415158152905185927f80ae572a579745c7375800cf38cc2f3e7ac6f46992590aab83e90baa6e2d2096928290030190a2505050565b600160d91b6420a226a4a7026108e98133611b68565b61092b5760408051600160e51b62461bcd028152602060048201526012602482015260008051602061270e833981519152604482015290519081900360640190fd5b6004805460408051600160e71b62a9119902815290516001600160a01b0390921692635488cc80928282019260209290829003018186803b15801561096f57600080fd5b505afa158015610983573d6000803e3d6000fd5b505050506040513d602081101561099957600080fd5b50518611156109f25760408051600160e51b62461bcd02815260206004820152601560248201527f496e76616c696420636865636b706f696e742049640000000000000000000000604482015290519081900360640190fd5b42841015610a4a5760408051600160e51b62461bcd02815260206004820152601160248201527f496e76616c696420737461727454696d65000000000000000000000000000000604482015290519081900360640190fd5b610a578686868686611c98565b505050505050565b610a67612004565b6040513390303180156108fc02916000818181858888f19350505050158015610a94573d6000803e3d6000fd5b50565b60005b90565b600160d91b6420a226a4a702610ab38133611b68565b610af55760408051600160e51b62461bcd028152602060048201526012602482015260008051602061270e833981519152604482015290519081900360640190fd5b838214610b4c5760408051600160e51b62461bcd02815260206004820152601560248201527f4172726179206c656e677468206d69736d617463680000000000000000000000604482015290519081900360640190fd5b60005b84811015610a5757610b90868683818110610b6657fe5b905060200201356001600160a01b0316858584818110610b8257fe5b9050602002013515156120d4565b600101610b4f565b600160d91b6420a226a4a70281565b610bb082612323565b610bba82336113e3565b610c0e5760408051600160e51b62461bcd02815260206004820152600d60248201527f496e76616c696420766f74657200000000000000000000000000000000000000604482015290519081900360640190fd5b6000808381548110610c1c57fe5b60009182526020808320600480546006909402909101805460408051600160e11b63277166bf02815233948101949094526024840191909152519095506001600160a01b0390931692634ee2cd7e92604480840193919291829003018186803b158015610c8857600080fd5b505afa158015610c9c573d6000803e3d6000fd5b505050506040513d6020811015610cb257600080fd5b5051905080610d0b5760408051600160e51b62461bcd02815260206004820152601460248201527f7765696768742073686f756c64206265203e2030000000000000000000000000604482015290519081900360640190fd5b6002820154600160801b90046001600160401b03168311801590610d2f5750600083115b610d835760408051600160e51b62461bcd02815260206004820152601660248201527f496e636f72726563742070726f706f73616c7320496400000000000000000000604482015290519081900360640190fd5b60028201546001600160401b03164210801590610db457506002820154600160401b90046001600160401b03164211155b610e085760408051600160e51b62461bcd02815260206004820152601b60248201527f566f74696e6720706572696f64206973206e6f74206163746976650000000000604482015290519081900360640190fd5b33600090815260048301602052604090205415610e6f5760408051600160e51b62461bcd02815260206004820152601e60248201527f546f6b656e20686f6c6465722068617320616c726561647920766f7465640000604482015290519081900360640190fd5b6002820154600160f81b900460ff16610ed25760408051600160e51b62461bcd02815260206004820152601460248201527f42616c6c6f74206973206e6f7420616374697665000000000000000000000000604482015290519081900360640190fd5b3360009081526004830160209081526040808320869055600285018054600166ffffffffffffff600160c01b8084048216929092011602600160c01b600160f81b031990911617905585835260038501909152902054610f38908263ffffffff61237c16565b600084815260038401602090815260409182902092909255805183815290518592879233927fa23fc440c6fc2e19ce408adc0b47622097fa7ea64409d71d33ba3fcdb5b4cd95929181900390910190a450505050565b600160d91b6420a226a4a702610fa48133611b68565b610fe65760408051600160e51b62461bcd028152602060048201526012602482015260008051602061270e833981519152604482015290519081900360640190fd5b83821461103d5760408051600160e51b62461bcd02815260206004820152601560248201527f4172726179206c656e677468206d69736d617463680000000000000000000000604482015290519081900360640190fd5b60005b8481101561108a576110828787878481811061105857fe5b905060200201356001600160a01b031686868581811061107457fe5b905060200201351515612395565b600101611040565b50505050505050565b61109b612004565b6110a36124f8565b565b6000806000806000806000806110b9612694565b60008a815481106110c657fe5b60009182526020918290206040805160e0810182526006909302909101805480845260018201548486018190526002909201546001600160401b0380821686860152600160401b820481166060870152600160801b820416608086015266ffffffffffffff600160c01b82041660a086015260ff600160f81b90910416151560c0850152600480548451600160e41b630981b24d02815291820192909252925193955090936001600160a01b039091169263981b24d0926024808201939291829003018186803b15801561119957600080fd5b505afa1580156111ad573d6000803e3d6000fd5b505050506040513d60208110156111c357600080fd5b5051825160408401516060850151608086015160a087015160c090970151959e50939c50919a506001600160401b039081169950908116975016945066ffffffffffffff90911692509050919395975091939597565b600160d91b6420a226a4a70261122f8133611b68565b6112715760408051600160e51b62461bcd028152602060048201526012602482015260008051602061270e833981519152604482015290519081900360640190fd5b600084116112c95760408051600160e51b62461bcd02815260206004820152601960248201527f496e636f72726563742062616c6c6f74206475726174696f6e00000000000000604482015290519081900360640190fd5b6000600460009054906101000a90046001600160a01b03166001600160a01b031663ff0b9c906040518163ffffffff1660e01b8152600401602060405180830381600087803b15801561131b57600080fd5b505af115801561132f573d6000803e3d6000fd5b505050506040513d602081101561134557600080fd5b50519050600061135b428763ffffffff61237c16565b9050610a578285428489611c98565b600554600160a01b900460ff1681565b600160d91b6420a226a4a7026113908133611b68565b6113d25760408051600160e51b62461bcd028152602060048201526012602482015260008051602061270e833981519152604482015290519081900360640190fd5b6113dd848484612395565b50505050565b600080600084815481106113f357fe5b600091825260208083206001600160a01b03871684526005600690930201919091019052604090205460ff168061144157506001600160a01b03831660009081526001602052604090205415155b159150505b92915050565b6005546001600160a01b031681565b606060028054806020026020016040519081016040528092919081815260200182805480156114b357602002820191906000526020600020905b81546001600160a01b03168152600190910190602001808311611495575b5050505050905090565b6114c5612004565b6110a361259e565b6114d5612004565b6001600160a01b0381166115285760408051600160e51b62461bcd02815260206004820152600f6024820152600160881b6e496e76616c6964206164647265737302604482015290519081900360640190fd5b60408051600160e01b6370a08231028152306004820152905182916000916001600160a01b038416916370a08231916024808301926020929190829003018186803b15801561157657600080fd5b505afa15801561158a573d6000803e3d6000fd5b505050506040513d60208110156115a057600080fd5b505160408051600160e01b63a9059cbb0281523360048201526024810183905290519192506001600160a01b0384169163a9059cbb916044808201926020929091908290030181600087803b1580156115f857600080fd5b505af115801561160c573d6000803e3d6000fd5b505050506040513d602081101561162257600080fd5b50516116785760408051600160e51b62461bcd02815260206004820152600f60248201527f5472616e73666572206661696c65640000000000000000000000000000000000604482015290519081900360640190fd5b505050565b60008054831061168f57506000611446565b6000838154811061169c57fe5b600091825260208083206001600160a01b038616845260046006909302019190910190526040902054905092915050565b600160c11b6727a822a920aa27a90281565b6004546001600160a01b031681565b60408051600180825281830190925260609182919060208083019080388339019050509050600160d91b6420a226a4a7028160008151811061172c57fe5b6020908102919091010152905090565b6003546001600160a01b031681565b600160d91b6420a226a4a7026117618133611b68565b6117a35760408051600160e51b62461bcd028152602060048201526012602482015260008051602061270e833981519152604482015290519081900360640190fd5b61167883836120d4565b6060806000806000808054905086106117df576040805160008082526020820190815281830190925295509350611ade565b60008087815481106117ed57fe5b60009182526020808320600480546006909402909101805460408051600160e41b630981b24d02815293840191909152519095508493849384936001600160a01b039092169263981b24d0926024808201939291829003018186803b15801561185557600080fd5b505afa158015611869573d6000803e3d6000fd5b505050506040513d602081101561187f57600080fd5b505160018601549091506000906118b790670de0b6b3a7640000906118ab90859063ffffffff61264b16565b9063ffffffff61267216565b90508560020160109054906101000a90046001600160401b03166001600160401b0316604051908082528060200260200182016040528015611903578160200160208202803883390190505b509a50600094505b6002860154600160801b90046001600160401b03168510156119a6576001850160009081526003870160205260409020548b518c908790811061194a57fe5b6020026020010181815250508560030160008660010181526020019081526020016000205483101561199b57600185016000908152600387016020526040902054925080831061199b578460010198505b60019094019361190b565b808310611a0f5760019750600094505b6002860154600160801b90046001600160401b0316851015611a0f57600185016000908152600387016020526040902054831480156119f85750888560010114155b15611a04576001909301925b6001909401936119b6565b83604051908082528060200260200182016040528015611a39578160200160208202803883390190505b5099508315611abf5760009350600094505b6002860154600160801b90046001600160401b0316851015611abf5760018501600090815260038701602052604090205483148015611a8d5750888560010114155b15611ab457846001018a8581518110611aa257fe5b60209081029190910101526001909301925b600190940193611a4b565b50505060029092015466ffffffffffffff600160c01b90910416925050505b91939590929450565b6000600460009054906101000a90046001600160a01b03166001600160a01b031663660d0d676040518163ffffffff1660e01b815260040160206040518083038186803b158015611b3757600080fd5b505afa158015611b4b573d6000803e3d6000fd5b505050506040513d6020811015611b6157600080fd5b5051905090565b6004805460408051600160e01b638da5cb5b028152905160009384936001600160a01b031692638da5cb5b9281830192602092829003018186803b158015611baf57600080fd5b505afa158015611bc3573d6000803e3d6000fd5b505050506040513d6020811015611bd957600080fd5b50516003546001600160a01b038581169281168314935016148180611bfb5750805b80611c8f57506004805460408051600160e01b638658b8b90281526001600160a01b03888116948201949094523060248201526044810189905290519290911691638658b8b991606480820192602092909190829003018186803b158015611c6257600080fd5b505afa158015611c76573d6000803e3d6000fd5b505050506040513d6020811015611c8c57600080fd5b50515b95945050505050565b60018111611cf05760408051600160e51b62461bcd02815260206004820152601660248201527f496e636f72726563742070726f706f73616c73206e6f00000000000000000000604482015290519081900360640190fd5b828211611d475760408051600160e51b62461bcd02815260206004820152601360248201527f54696d657320617265206e6f742076616c696400000000000000000000000000604482015290519081900360640190fd5b670de0b6b3a76400008411158015611d5f5750600084115b611db35760408051600160e51b62461bcd02815260206004820152601960248201527f496e76616c69642071756f72756d2070657263656e7461676500000000000000604482015290519081900360640190fd5b82836001600160401b0316148015611dd3575081826001600160401b0316145b8015611de7575080816001600160401b0316145b611e3b5760408051600160e51b62461bcd02815260206004820152601560248201527f76616c75657320676574206f766572666c6f7765640000000000000000000000604482015290519081900360640190fd5b600080546040805160e08101825288815260208082018981526001600160401b0389811684860190815289821660608087019182528a8416608080890191825260a089018c8152600160c08b01818152908d018e559c805298517f290decd9548b62a8d60345a988386fc84ba6bc95484008f6362f93160ef3e56360068d029081019190915596517f290decd9548b62a8d60345a988386fc84ba6bc95484008f6362f93160ef3e56488015593517f290decd9548b62a8d60345a988386fc84ba6bc95484008f6362f93160ef3e56590960180549351915198519b5167ffffffffffffffff19909416968616969096176fffffffffffffffff00000000000000001916600160401b918616919091021777ffffffffffffffff000000000000000000000000000000001916600160801b979094169690960292909217600160c01b600160f81b031916600160c01b66ffffffffffffff90991698909802979097176001600160f81b0316600160f81b91151591909102179055825188815290810187905280830186905290810188905290519192889284927f0a36a133c5e50be283d9b15d8ee2204798db3a0330ba4ac7dc8fd233ef825e5f92908290030190a3505050505050565b6004805460408051600160e01b638da5cb5b02815290516001600160a01b0390921692638da5cb5b928282019260209290829003018186803b15801561204957600080fd5b505afa15801561205d573d6000803e3d6000fd5b505050506040513d602081101561207357600080fd5b50516001600160a01b031633146110a35760408051600160e51b62461bcd02815260206004820152601360248201527f53656e646572206973206e6f74206f776e657200000000000000000000000000604482015290519081900360640190fd5b6001600160a01b0382166121275760408051600160e51b62461bcd02815260206004820152600f6024820152600160881b6e496e76616c6964206164647265737302604482015290519081900360640190fd5b6001600160a01b038216600090815260016020526040902054158115151461214e57600080fd5b80156121b75760028054600180820183557f405787fa12a823e0f2b7631cc41b3ba8828b3321ca811111fa75cd3aa3bb5ace90910180546001600160a01b0319166001600160a01b038616908117909155915460009283526020919091526040909120556122de565b6001600160a01b038216600090815260016020526040902054600254146122b0576002805460001981019081106121ea57fe5b9060005260206000200160009054906101000a90046001600160a01b031660026001806000866001600160a01b03166001600160a01b0316815260200190815260200160002054038154811061223c57fe5b600091825260208083209190910180546001600160a01b0319166001600160a01b03948516179055918416815260019182905260408120546002805491939291600019850190811061228a57fe5b60009182526020808320909101546001600160a01b031683528201929092526040019020555b6001600160a01b03821660009081526001602052604081205560028054906122dc9060001983016126d0565b505b60408051821515815290516001600160a01b038416917fb1170a171a18d650f44f0faa7b4106b781dd287316a9e155fe9bbb1d8c0a0c14919081900360200190a25050565b6000548110610a945760408051600160e51b62461bcd02815260206004820152601260248201527f496e646578206f7574206f6620626f756e640000000000000000000000000000604482015290519081900360640190fd5b60008282018381101561238e57600080fd5b9392505050565b61239e83612323565b6001600160a01b0382166123f15760408051600160e51b62461bcd02815260206004820152600f6024820152600160881b6e496e76616c6964206164647265737302604482015290519081900360640190fd5b8015156000848154811061240157fe5b600091825260208083206001600160a01b03871684526005600690930201919091019052604090205460ff16151514156124745760408051600160e51b62461bcd0281526020600482015260096024820152600160b81b684e6f206368616e676502604482015290519081900360640190fd5b806000848154811061248257fe5b600091825260208083206001600160a01b038716808552600693909302016005018152604092839020805460ff191694151594909417909355815184151581529151909286927f0503f23c8ccfa4d5085847e7279510103d5cd6992091aec6b7e229f2a57969b3929081900390910190a3505050565b600554600160a01b900460ff166125595760408051600160e51b62461bcd02815260206004820152601660248201527f436f6e7472616374206973206e6f742070617573656400000000000000000000604482015290519081900360640190fd5b60058054600160a01b60ff02191690556040805133815290517faeb196d352664784d1900b0e7414a8face7d29f4dae8c4b0cf68ed477423bbf49181900360200190a1565b600554600160a01b900460ff16156126005760408051600160e51b62461bcd02815260206004820152601260248201527f436f6e7472616374206973207061757365640000000000000000000000000000604482015290519081900360640190fd5b60058054600160a01b60ff021916600160a01b1790556040805133815290517f5ee71a369c8672edded508e624ffc9257fa1ae6886ef32905c18e60196bca3999181900360200190a1565b60008261265a57506000611446565b8282028284828161266757fe5b041461238e57600080fd5b600080821161268057600080fd5b600082848161268b57fe5b04949350505050565b6040805160e081018252600080825260208201819052918101829052606081018290526080810182905260a0810182905260c081019190915290565b81548183558181111561167857600083815260209020611678918101908301610a9a91905b8082111561270957600081556001016126f5565b509056fe496e76616c6964207065726d697373696f6e0000000000000000000000000000a165627a7a7230582053c39187dc2ab401152d8d02a87fb40f417ba405f58b762ddbbb527179b76a630029",
  "source": "pragma solidity 0.5.8;\r\n\r\nimport \"../VotingCheckpoint.sol\";\r\nimport \"./WeightedVoteCheckpointStorage.sol\";\r\nimport \"openzeppelin-solidity/contracts/math/SafeMath.sol\";\r\n\r\n/**\r\n * @title Checkpoint module for token weighted vote\r\n * @notice This voting system uses public votes\r\n * @notice In this module every token holder has voting right (Should be greater than zero)\r\n * Tally will be calculated as per the weight (balance of the token holder)\r\n */\r\ncontract WeightedVoteCheckpoint is WeightedVoteCheckpointStorage, VotingCheckpoint {\r\n    using SafeMath for uint256;\r\n\r\n    event BallotCreated(\r\n        uint256 indexed _ballotId,\r\n        uint256 indexed _checkpointId,\r\n        uint256 _startTime,\r\n        uint256 _endTime,\r\n        uint256 _noOfProposals,\r\n        uint256 _quorumPercentage\r\n    );\r\n    event VoteCast(address indexed _voter,  uint256 _weight, uint256 indexed _ballotId, uint256 indexed _proposalId);\r\n    event BallotStatusChanged(uint256 indexed _ballotId, bool _isActive);\r\n    event ChangedBallotExemptedVotersList(uint256 indexed _ballotId, address indexed _voter, bool _exempt);\r\n\r\n    /**\r\n     * @notice Constructor\r\n     * @param _securityToken Address of the security token\r\n     * @param _polyToken Address of the polytoken\r\n     */\r\n    constructor(address _securityToken, address _polyToken)\r\n    public\r\n    Module(_securityToken, _polyToken)\r\n    {\r\n\r\n    }\r\n\r\n    /**\r\n     * @notice This function returns the signature of configure function\r\n     */\r\n    function getInitFunction() external pure returns(bytes4) {\r\n        return bytes4(0);\r\n    }\r\n\r\n    /**\r\n     * @notice Allows the token issuer to create a ballot\r\n     * @param _duration The duration of the voting period in seconds\r\n     * @param _noOfProposals Number of proposals\r\n     * @param _quorumPercentage Minimum Quorum  percentage required to make a proposal won\r\n     */\r\n    function createBallot(uint256 _duration, uint256 _noOfProposals, uint256 _quorumPercentage) external withPerm(ADMIN) {\r\n        require(_duration > 0, \"Incorrect ballot duration\");\r\n        uint256 checkpointId = securityToken.createCheckpoint();\r\n        uint256 endTime = now.add(_duration);\r\n        _createCustomBallot(checkpointId, _quorumPercentage, now, endTime, _noOfProposals);\r\n    }\r\n\r\n    function _createCustomBallot(\r\n        uint256 _checkpointId,\r\n        uint256 _quorumPercentage,\r\n        uint256 _startTime,\r\n        uint256 _endTime,\r\n        uint256 _noOfProposals\r\n    )\r\n        internal\r\n    {\r\n        require(_noOfProposals > 1, \"Incorrect proposals no\");\r\n        require(_endTime > _startTime, \"Times are not valid\");\r\n        require(_quorumPercentage <= 100 * 10 ** 16 && _quorumPercentage > 0, \"Invalid quorum percentage\"); // not more than 100 %\r\n        require(\r\n            uint64(_startTime) == _startTime &&\r\n            uint64(_endTime) == _endTime &&\r\n            uint64(_noOfProposals) == _noOfProposals,\r\n            \"values get overflowed\"\r\n        );\r\n        uint256 ballotId = ballots.length;\r\n        ballots.push(\r\n            Ballot(\r\n                _checkpointId, _quorumPercentage, uint64(_startTime), uint64(_endTime), uint64(_noOfProposals), uint56(0), true\r\n            )\r\n        );\r\n        emit BallotCreated(ballotId, _checkpointId, _startTime, _endTime, _noOfProposals, _quorumPercentage);\r\n    }\r\n\r\n    /**\r\n     * @notice Allows the token issuer to create a ballot with custom settings\r\n     * @param _checkpointId Index of the checkpoint to use for token balances\r\n     * @param _quorumPercentage Minimum Quorum  percentage required to make a proposal won\r\n     * @param _startTime Start time of the voting period in Unix Epoch time\r\n     * @param _endTime End time of the voting period in Unix Epoch time\r\n     * @param _noOfProposals Number of proposals\r\n     */\r\n    function createCustomBallot(uint256 _checkpointId, uint256 _quorumPercentage, uint256 _startTime, uint256 _endTime, uint256 _noOfProposals) external withPerm(ADMIN) {\r\n        require(_checkpointId <= securityToken.currentCheckpointId(), \"Invalid checkpoint Id\");\r\n        require(_startTime >= now, \"Invalid startTime\");\r\n        _createCustomBallot(_checkpointId, _quorumPercentage, _startTime, _endTime, _noOfProposals);\r\n    }\r\n\r\n    /**\r\n     * @notice Allows a token holder to cast their vote on a specific ballot\r\n     * @param _ballotId The index of the target ballot\r\n     * @param _proposalId Id of the proposal which investor want to vote for proposal\r\n     */\r\n    function castVote(uint256 _ballotId, uint256 _proposalId) external {\r\n        // Check for the ballots array out of bound\r\n        _checkIndexOutOfBound(_ballotId);\r\n        // Check whether the msg.sender is allowed to vote for a given ballotId or not.\r\n        require(isVoterAllowed(_ballotId, msg.sender), \"Invalid voter\");\r\n        Ballot storage ballot = ballots[_ballotId];\r\n        // Get the balance of the voter (i.e `msg.sender`) at the checkpoint on which ballot was created.\r\n        uint256 weight = securityToken.balanceOfAt(msg.sender, ballot.checkpointId);\r\n        require(weight > 0, \"weight should be > 0\");\r\n        // Validate the storage values\r\n        require(ballot.totalProposals >= _proposalId && _proposalId > 0, \"Incorrect proposals Id\");\r\n        require(now >= ballot.startTime && now <= ballot.endTime, \"Voting period is not active\");\r\n        require(ballot.investorToProposal[msg.sender] == 0, \"Token holder has already voted\");\r\n        require(ballot.isActive, \"Ballot is not active\");\r\n        // Update the storage\r\n        ballot.investorToProposal[msg.sender] = _proposalId;\r\n        ballot.totalVoters = ballot.totalVoters + 1;\r\n        ballot.proposalToVotes[_proposalId] = ballot.proposalToVotes[_proposalId].add(weight);\r\n        emit VoteCast(msg.sender, weight, _ballotId, _proposalId);\r\n    }\r\n\r\n    /**\r\n     * Change the given ballot exempted list\r\n     * @param _ballotId Given ballot Id\r\n     * @param _voter Address of the voter\r\n     * @param _exempt Whether it is exempted or not\r\n     */\r\n    function changeBallotExemptedVotersList(uint256 _ballotId, address _voter, bool _exempt) external withPerm(ADMIN) {\r\n        _changeBallotExemptedVotersList(_ballotId, _voter, _exempt);\r\n    }\r\n\r\n    /**\r\n     * Change the given ballot exempted list (Multi)\r\n     * @param _ballotId Given ballot Id\r\n     * @param _voters Address of the voter\r\n     * @param _exempts Whether it is exempted or not\r\n     */\r\n    function changeBallotExemptedVotersListMulti(uint256 _ballotId, address[] calldata _voters, bool[] calldata _exempts) external withPerm(ADMIN) {\r\n        require(_voters.length == _exempts.length, \"Array length mismatch\");\r\n        for (uint256 i = 0; i < _voters.length; i++) {\r\n            _changeBallotExemptedVotersList(_ballotId, _voters[i], _exempts[i]);\r\n        }\r\n    }\r\n\r\n    function _changeBallotExemptedVotersList(uint256 _ballotId, address _voter, bool _exempt) internal {\r\n        // Check for the ballots array out of bound\r\n        _checkIndexOutOfBound(_ballotId);\r\n        require(_voter != address(0), \"Invalid address\");\r\n        require(ballots[_ballotId].exemptedVoters[_voter] != _exempt, \"No change\");\r\n        ballots[_ballotId].exemptedVoters[_voter] = _exempt;\r\n        emit ChangedBallotExemptedVotersList(_ballotId, _voter, _exempt);\r\n    }\r\n\r\n    /**\r\n     * Use to check whether the voter is allowed to vote or not\r\n     * @param _ballotId The index of the target ballot\r\n     * @param _voter Address of the voter\r\n     * @return bool\r\n     */\r\n    function isVoterAllowed(uint256 _ballotId, address _voter) public view returns(bool) {\r\n        bool allowed = (ballots[_ballotId].exemptedVoters[_voter] || (defaultExemptIndex[_voter] != 0));\r\n        return !allowed;\r\n    }\r\n\r\n    /**\r\n     * @notice Allows the token issuer to set the active stats of a ballot\r\n     * @param _ballotId The index of the target ballot\r\n     * @param _isActive The bool value of the active stats of the ballot\r\n     * @return bool success\r\n     */\r\n    function changeBallotStatus(uint256 _ballotId, bool _isActive) external withPerm(ADMIN) {\r\n        require(uint64(now) <= ballots[_ballotId].endTime, \"Already ended\");\r\n        require(ballots[_ballotId].isActive != _isActive, \"Active state unchanged\");\r\n        ballots[_ballotId].isActive = _isActive;\r\n        emit BallotStatusChanged(_ballotId, _isActive);\r\n    }\r\n\r\n    /**\r\n     * @notice Queries the result of a given ballot\r\n     * @param _ballotId Id of the target ballot\r\n     * @return uint256 voteWeighting\r\n     * @return uint256 tieWith\r\n     * @return uint256 winningProposal\r\n     * @return bool isVotingSucceed\r\n     * @return uint256 totalVotes\r\n     */\r\n    function getBallotResults(uint256 _ballotId) external view returns (\r\n        uint256[] memory voteWeighting,\r\n        uint256[] memory tieWith,\r\n        uint256 winningProposal,\r\n        bool isVotingSucceed,\r\n        uint256 totalVotes\r\n    ) {\r\n        if (_ballotId >= ballots.length)\r\n            return (new uint256[](0), new uint256[](0), winningProposal, isVotingSucceed, totalVotes);\r\n\r\n        Ballot storage ballot = ballots[_ballotId];\r\n        uint256 i;\r\n        uint256 counter = 0;\r\n        uint256 maxWeight = 0;\r\n        uint256 supplyAtCheckpoint = securityToken.totalSupplyAt(ballot.checkpointId);\r\n        uint256 quorumWeight = (supplyAtCheckpoint.mul(ballot.quorum)).div(10 ** 18);\r\n        voteWeighting = new uint256[](ballot.totalProposals);\r\n        for (i = 0; i < ballot.totalProposals; i++) {\r\n            voteWeighting[i] = ballot.proposalToVotes[i + 1];\r\n            if (maxWeight < ballot.proposalToVotes[i + 1]) {\r\n                maxWeight = ballot.proposalToVotes[i + 1];\r\n                if (maxWeight >= quorumWeight)\r\n                    winningProposal = i + 1;\r\n            }\r\n        }\r\n        if (maxWeight >= quorumWeight) {\r\n            isVotingSucceed = true;\r\n            for (i = 0; i < ballot.totalProposals; i++) {\r\n                if (maxWeight == ballot.proposalToVotes[i + 1] && (i + 1) != winningProposal)\r\n                    counter ++;\r\n            }\r\n        }\r\n\r\n        tieWith = new uint256[](counter);\r\n        if (counter > 0) {\r\n            counter = 0;\r\n            for (i = 0; i < ballot.totalProposals; i++) {\r\n                if (maxWeight == ballot.proposalToVotes[i + 1] && (i + 1) != winningProposal) {\r\n                    tieWith[counter] = i + 1;\r\n                    counter ++;\r\n                }\r\n            }\r\n        }\r\n        totalVotes = uint256(ballot.totalVoters);\r\n    }\r\n\r\n    /**\r\n     * @notice Get the voted proposal\r\n     * @param _ballotId Id of the ballot\r\n     * @param _voter Address of the voter\r\n     */\r\n    function getSelectedProposal(uint256 _ballotId, address _voter) external view returns(uint256 proposalId) {\r\n        if (_ballotId >= ballots.length)\r\n            return 0;\r\n        return ballots[_ballotId].investorToProposal[_voter];\r\n    }\r\n\r\n    /**\r\n     * @notice Get the details of the ballot\r\n     * @param _ballotId The index of the target ballot\r\n     * @return uint256 quorum\r\n     * @return uint256 totalSupplyAtCheckpoint\r\n     * @return uint256 checkpointId\r\n     * @return uint256 startTime\r\n     * @return uint256 endTime\r\n     * @return uint256 totalProposals\r\n     * @return uint256 totalVoters\r\n     * @return bool isActive\r\n     */\r\n    function getBallotDetails(uint256 _ballotId) external view returns(uint256, uint256, uint256, uint256, uint256, uint256, uint256, bool) {\r\n        Ballot memory ballot = ballots[_ballotId];\r\n        return (\r\n            ballot.quorum,\r\n            securityToken.totalSupplyAt(ballot.checkpointId),\r\n            ballot.checkpointId,\r\n            ballot.startTime,\r\n            ballot.endTime,\r\n            ballot.totalProposals,\r\n            ballot.totalVoters,\r\n            ballot.isActive\r\n        );\r\n    }\r\n\r\n    /**\r\n     * @notice Return the permissions flag that are associated with STO\r\n     * @return bytes32 array\r\n     */\r\n    function getPermissions() public view returns(bytes32[] memory) {\r\n        bytes32[] memory allPermissions = new bytes32[](1);\r\n        allPermissions[0] = ADMIN;\r\n        return allPermissions;\r\n    }\r\n\r\n    function _checkIndexOutOfBound(uint256 _ballotId) internal view {\r\n        require(ballots.length > _ballotId, \"Index out of bound\");\r\n    }\r\n\r\n}\r\n",
  "sourcePath": "C:/mspace/polymath-core/contracts/modules/Checkpoint/Voting/Transparent/WeightedVoteCheckpoint.sol",
  "compiler": {
    "name": "solc",
    "version": "0.5.8+commit.23d335f2.Emscripten.clang"
  },
  "schemaVersion": "3.0.11",
  "updatedAt": "2019-08-05T12:37:19.229Z",
  "devdoc": {
    "methods": {
      "castVote(uint256,uint256)": {
        "params": {
          "_ballotId": "The index of the target ballot\r",
          "_proposalId": "Id of the proposal which investor want to vote for proposal\r"
        }
      },
      "changeBallotExemptedVotersList(uint256,address,bool)": {
        "params": {
          "_ballotId": "Given ballot Id\r",
          "_exempt": "Whether it is exempted or not\r",
          "_voter": "Address of the voter\r"
        }
      },
      "changeBallotExemptedVotersListMulti(uint256,address[],bool[])": {
        "params": {
          "_ballotId": "Given ballot Id\r",
          "_exempts": "Whether it is exempted or not\r",
          "_voters": "Address of the voter\r"
        }
      },
      "changeBallotStatus(uint256,bool)": {
        "params": {
          "_ballotId": "The index of the target ballot\r",
          "_isActive": "The bool value of the active stats of the ballot\r"
        },
        "return": "bool success\r"
      },
      "changeDefaultExemptedVotersList(address,bool)": {
        "params": {
          "_exempt": "Whether it is exempted or not\r",
          "_voter": "Address of the voter\r"
        }
      },
      "changeDefaultExemptedVotersListMulti(address[],bool[])": {
        "params": {
          "_exempts": "Whether it is exempted or not\r",
          "_voters": "Address of the voter\r"
        }
      },
      "constructor": {
        "params": {
          "_polyToken": "Address of the polytoken\r",
          "_securityToken": "Address of the security token\r"
        }
      },
      "createBallot(uint256,uint256,uint256)": {
        "params": {
          "_duration": "The duration of the voting period in seconds\r",
          "_noOfProposals": "Number of proposals\r",
          "_quorumPercentage": "Minimum Quorum  percentage required to make a proposal won\r"
        }
      },
      "createCustomBallot(uint256,uint256,uint256,uint256,uint256)": {
        "params": {
          "_checkpointId": "Index of the checkpoint to use for token balances\r",
          "_endTime": "End time of the voting period in Unix Epoch time\r",
          "_noOfProposals": "Number of proposals\r",
          "_quorumPercentage": "Minimum Quorum  percentage required to make a proposal won\r",
          "_startTime": "Start time of the voting period in Unix Epoch time\r"
        }
      },
      "getBallotDetails(uint256)": {
        "params": {
          "_ballotId": "The index of the target ballot\r"
        },
        "return": "uint256 quorum\ruint256 totalSupplyAtCheckpoint\ruint256 checkpointId\ruint256 startTime\ruint256 endTime\ruint256 totalProposals\ruint256 totalVoters\rbool isActive\r"
      },
      "getBallotResults(uint256)": {
        "params": {
          "_ballotId": "Id of the target ballot\r"
        },
        "return": "uint256 voteWeighting\ruint256 tieWith\ruint256 winningProposal\rbool isVotingSucceed\ruint256 totalVotes\r"
      },
      "getPermissions()": {
        "return": "bytes32 array\r"
      },
      "getSelectedProposal(uint256,address)": {
        "params": {
          "_ballotId": "Id of the ballot\r",
          "_voter": "Address of the voter\r"
        }
      },
      "isVoterAllowed(uint256,address)": {
        "params": {
          "_ballotId": "The index of the target ballot\r",
          "_voter": "Address of the voter\r"
        },
        "return": "bool\r"
      },
      "reclaimERC20(address)": {
        "details": "We duplicate here due to the overriden owner & onlyOwner\r",
        "params": {
          "_tokenContract": "The address of the token contract\r"
        }
      },
      "reclaimETH()": {
        "details": "We duplicate here due to the overriden owner & onlyOwner\r"
      }
    },
    "title": "Checkpoint module for token weighted vote\r"
  },
  "userdoc": {
    "methods": {
      "castVote(uint256,uint256)": {
        "notice": "Allows a token holder to cast their vote on a specific ballot\r"
      },
      "changeBallotExemptedVotersList(uint256,address,bool)": {
        "notice": "Change the given ballot exempted list\r"
      },
      "changeBallotExemptedVotersListMulti(uint256,address[],bool[])": {
        "notice": "Change the given ballot exempted list (Multi)\r"
      },
      "changeBallotStatus(uint256,bool)": {
        "notice": "Allows the token issuer to set the active stats of a ballot\r"
      },
      "changeDefaultExemptedVotersList(address,bool)": {
        "notice": "Change the global exempted voters list\r"
      },
      "changeDefaultExemptedVotersListMulti(address[],bool[])": {
        "notice": "Change the global exempted voters list\r"
      },
      "constructor": "Constructor\r",
      "createBallot(uint256,uint256,uint256)": {
        "notice": "Allows the token issuer to create a ballot\r"
      },
      "createCustomBallot(uint256,uint256,uint256,uint256,uint256)": {
        "notice": "Allows the token issuer to create a ballot with custom settings\r"
      },
      "getBallotDetails(uint256)": {
        "notice": "Get the details of the ballot\r"
      },
      "getBallotResults(uint256)": {
        "notice": "Queries the result of a given ballot\r"
      },
      "getDataStore()": {
        "notice": "used to return the data store address of securityToken\r"
      },
      "getDefaultExemptionVotersList()": {
        "notice": "Return the default exemption list\r"
      },
      "getInitFunction()": {
        "notice": "This function returns the signature of configure function\r"
      },
      "getPermissions()": {
        "notice": "Return the permissions flag that are associated with STO\r"
      },
      "getSelectedProposal(uint256,address)": {
        "notice": "Get the voted proposal\r"
      },
      "isVoterAllowed(uint256,address)": {
        "notice": "Use to check whether the voter is allowed to vote or not\r"
      },
      "pause()": {
        "notice": "Pause (overridden function)\r"
      },
      "reclaimERC20(address)": {
        "notice": "Reclaims ERC20Basic compatible tokens\r"
      },
      "reclaimETH()": {
        "notice": "Reclaims ETH\r"
      },
      "unpause()": {
        "notice": "Unpause (overridden function)\r"
      }
    },
    "notice": "This voting system uses public votes\rIn this module every token holder has voting right (Should be greater than zero)\r Tally will be calculated as per the weight (balance of the token holder)\r"
  }
}